{
  "_format": "hh-sol-artifact-1",
  "contractName": "FixedPrice",
  "sourceName": "contracts/market/FixedPrice.sol",
  "abi": [
    {
      "inputs": [
        {
          "internalType": "address",
          "name": "book_",
          "type": "address"
        },
        {
          "internalType": "uint256",
          "name": "lifetimeMonthes",
          "type": "uint256"
        }
      ],
      "stateMutability": "nonpayable",
      "type": "constructor"
    },
    {
      "inputs": [],
      "name": "book",
      "outputs": [
        {
          "internalType": "contract AddressBook",
          "name": "",
          "type": "address"
        }
      ],
      "stateMutability": "view",
      "type": "function"
    },
    {
      "inputs": [
        {
          "internalType": "uint256",
          "name": "beforeLength",
          "type": "uint256"
        },
        {
          "internalType": "uint256",
          "name": "uploadSectors",
          "type": "uint256"
        },
        {
          "internalType": "uint256",
          "name": "paddingSectors",
          "type": "uint256"
        }
      ],
      "name": "chargeFee",
      "outputs": [],
      "stateMutability": "nonpayable",
      "type": "function"
    },
    {
      "inputs": [],
      "name": "pricePerSector",
      "outputs": [
        {
          "internalType": "uint256",
          "name": "",
          "type": "uint256"
        }
      ],
      "stateMutability": "view",
      "type": "function"
    },
    {
      "stateMutability": "payable",
      "type": "receive"
    }
  ],
  "bytecode": "0x60c060405234801561001057600080fd5b506040516106cb3803806106cb83398101604081905261002f9161009f565b6001600160a01b038216608052600c61004a610400806100d9565b610056906104006100d9565b670de0b6b3a764000061006c600a6101006100d9565b61007691906100d9565b6100809190610106565b61008a9190610106565b61009490826100d9565b60a052506101289050565b600080604083850312156100b257600080fd5b82516001600160a01b03811681146100c957600080fd5b6020939093015192949293505050565b600081600019048311821515161561010157634e487b7160e01b600052601160045260246000fd5b500290565b60008261012357634e487b7160e01b600052601260045260246000fd5b500490565b60805160a0516105656101666000396000818160a701526101f501526000818160560152818160fb01528181610258015261033f01526105656000f3fe6080604052600436106100385760003560e01c806305a8da721461004457806361ec508214610095578063da6eb36a146100d757600080fd5b3661003f57005b600080fd5b34801561005057600080fd5b506100787f000000000000000000000000000000000000000000000000000000000000000081565b6040516001600160a01b0390911681526020015b60405180910390f35b3480156100a157600080fd5b506100c97f000000000000000000000000000000000000000000000000000000000000000081565b60405190815260200161008c565b3480156100e357600080fd5b506100f76100f2366004610444565b6100f9565b005b7f00000000000000000000000000000000000000000000000000000000000000006001600160a01b031663343aad826040518163ffffffff1660e01b8152600401602060405180830381865afa158015610157573d6000803e3d6000fd5b505050506040513d601f19601f8201168201806040525081019061017b9190610488565b6001600160a01b0316336001600160a01b0316146101df5760405162461bcd60e51b815260206004820152601f60248201527f53656e64657220646f6573206e6f742068617665207065726d697373696f6e00604482015260640160405180910390fd5b60006101eb82846104c2565b90506000610219847f00000000000000000000000000000000000000000000000000000000000000006104db565b9050600061022782476104fa565b905060008361023686856104db565b610240919061050d565b9050600061024e82856104fa565b9050851561033d577f00000000000000000000000000000000000000000000000000000000000000006001600160a01b031663228cb7336040518163ffffffff1660e01b8152600401602060405180830381865afa1580156102b4573d6000803e3d6000fd5b505050506040513d601f19601f820116820180604052508101906102d89190610488565b6040516259e96760e81b8152600481018a9052602481018890526001600160a01b0391909116906359e967009084906044016000604051808303818588803b15801561032357600080fd5b505af1158015610337573d6000803e3d6000fd5b50505050505b7f00000000000000000000000000000000000000000000000000000000000000006001600160a01b031663228cb7336040518163ffffffff1660e01b8152600401602060405180830381865afa15801561039b573d6000803e3d6000fd5b505050506040513d601f19601f820116820180604052508101906103bf9190610488565b6001600160a01b03166359e967006103d783866104c2565b6103e1898c6104c2565b8a6040518463ffffffff1660e01b8152600401610408929190918252602082015260400190565b6000604051808303818588803b15801561042157600080fd5b505af1158015610435573d6000803e3d6000fd5b50505050505050505050505050565b60008060006060848603121561045957600080fd5b505081359360208301359350604090920135919050565b6001600160a01b038116811461048557600080fd5b50565b60006020828403121561049a57600080fd5b81516104a581610470565b9392505050565b634e487b7160e01b600052601160045260246000fd5b808201808211156104d5576104d56104ac565b92915050565b60008160001904831182151516156104f5576104f56104ac565b500290565b818103818111156104d5576104d56104ac565b60008261052a57634e487b7160e01b600052601260045260246000fd5b50049056fea2646970667358221220659455e21dcc74ff778b3807f8795c9f95b01f82bc46ce98f2a073d05b4848c664736f6c63430008100033",
  "linkReferences": {},
  "deployedLinkReferences": {}
}