{
  "_format": "hh-sol-artifact-1",
  "contractName": "FixedPrice",
  "sourceName": "contracts/market/FixedPrice.sol",
  "abi": [
    {
      "anonymous": false,
      "inputs": [
        {
          "indexed": true,
          "internalType": "bytes32",
          "name": "role",
          "type": "bytes32"
        },
        {
          "indexed": true,
          "internalType": "bytes32",
          "name": "previousAdminRole",
          "type": "bytes32"
        },
        {
          "indexed": true,
          "internalType": "bytes32",
          "name": "newAdminRole",
          "type": "bytes32"
        }
      ],
      "name": "RoleAdminChanged",
      "type": "event"
    },
    {
      "anonymous": false,
      "inputs": [
        {
          "indexed": true,
          "internalType": "bytes32",
          "name": "role",
          "type": "bytes32"
        },
        {
          "indexed": true,
          "internalType": "address",
          "name": "account",
          "type": "address"
        },
        {
          "indexed": true,
          "internalType": "address",
          "name": "sender",
          "type": "address"
        }
      ],
      "name": "RoleGranted",
      "type": "event"
    },
    {
      "anonymous": false,
      "inputs": [
        {
          "indexed": true,
          "internalType": "bytes32",
          "name": "role",
          "type": "bytes32"
        },
        {
          "indexed": true,
          "internalType": "address",
          "name": "account",
          "type": "address"
        },
        {
          "indexed": true,
          "internalType": "address",
          "name": "sender",
          "type": "address"
        }
      ],
      "name": "RoleRevoked",
      "type": "event"
    },
    {
      "inputs": [],
      "name": "DEFAULT_ADMIN_ROLE",
      "outputs": [
        {
          "internalType": "bytes32",
          "name": "",
          "type": "bytes32"
        }
      ],
      "stateMutability": "view",
      "type": "function"
    },
    {
      "inputs": [],
      "name": "PARAMS_ADMIN_ROLE",
      "outputs": [
        {
          "internalType": "bytes32",
          "name": "",
          "type": "bytes32"
        }
      ],
      "stateMutability": "view",
      "type": "function"
    },
    {
      "inputs": [
        {
          "internalType": "uint256",
          "name": "beforeLength",
          "type": "uint256"
        },
        {
          "internalType": "uint256",
          "name": "uploadSectors",
          "type": "uint256"
        },
        {
          "internalType": "uint256",
          "name": "paddingSectors",
          "type": "uint256"
        }
      ],
      "name": "chargeFee",
      "outputs": [],
      "stateMutability": "nonpayable",
      "type": "function"
    },
    {
      "inputs": [],
      "name": "flow",
      "outputs": [
        {
          "internalType": "address",
          "name": "",
          "type": "address"
        }
      ],
      "stateMutability": "view",
      "type": "function"
    },
    {
      "inputs": [
        {
          "internalType": "bytes32",
          "name": "role",
          "type": "bytes32"
        }
      ],
      "name": "getRoleAdmin",
      "outputs": [
        {
          "internalType": "bytes32",
          "name": "",
          "type": "bytes32"
        }
      ],
      "stateMutability": "view",
      "type": "function"
    },
    {
      "inputs": [
        {
          "internalType": "bytes32",
          "name": "role",
          "type": "bytes32"
        },
        {
          "internalType": "uint256",
          "name": "index",
          "type": "uint256"
        }
      ],
      "name": "getRoleMember",
      "outputs": [
        {
          "internalType": "address",
          "name": "",
          "type": "address"
        }
      ],
      "stateMutability": "view",
      "type": "function"
    },
    {
      "inputs": [
        {
          "internalType": "bytes32",
          "name": "role",
          "type": "bytes32"
        }
      ],
      "name": "getRoleMemberCount",
      "outputs": [
        {
          "internalType": "uint256",
          "name": "",
          "type": "uint256"
        }
      ],
      "stateMutability": "view",
      "type": "function"
    },
    {
      "inputs": [
        {
          "internalType": "bytes32",
          "name": "role",
          "type": "bytes32"
        },
        {
          "internalType": "address",
          "name": "account",
          "type": "address"
        }
      ],
      "name": "grantRole",
      "outputs": [],
      "stateMutability": "nonpayable",
      "type": "function"
    },
    {
      "inputs": [
        {
          "internalType": "bytes32",
          "name": "role",
          "type": "bytes32"
        },
        {
          "internalType": "address",
          "name": "account",
          "type": "address"
        }
      ],
      "name": "hasRole",
      "outputs": [
        {
          "internalType": "bool",
          "name": "",
          "type": "bool"
        }
      ],
      "stateMutability": "view",
      "type": "function"
    },
    {
      "inputs": [
        {
          "internalType": "uint256",
          "name": "lifetimeMonthes",
          "type": "uint256"
        },
        {
          "internalType": "address",
          "name": "flow_",
          "type": "address"
        },
        {
          "internalType": "address",
          "name": "reward_",
          "type": "address"
        }
      ],
      "name": "initialize",
      "outputs": [],
      "stateMutability": "nonpayable",
      "type": "function"
    },
    {
      "inputs": [],
      "name": "initialized",
      "outputs": [
        {
          "internalType": "bool",
          "name": "",
          "type": "bool"
        }
      ],
      "stateMutability": "view",
      "type": "function"
    },
    {
      "inputs": [],
      "name": "pricePerSector",
      "outputs": [
        {
          "internalType": "uint256",
          "name": "",
          "type": "uint256"
        }
      ],
      "stateMutability": "view",
      "type": "function"
    },
    {
      "inputs": [
        {
          "internalType": "bytes32",
          "name": "role",
          "type": "bytes32"
        },
        {
          "internalType": "address",
          "name": "account",
          "type": "address"
        }
      ],
      "name": "renounceRole",
      "outputs": [],
      "stateMutability": "nonpayable",
      "type": "function"
    },
    {
      "inputs": [
        {
          "internalType": "bytes32",
          "name": "role",
          "type": "bytes32"
        },
        {
          "internalType": "address",
          "name": "account",
          "type": "address"
        }
      ],
      "name": "revokeRole",
      "outputs": [],
      "stateMutability": "nonpayable",
      "type": "function"
    },
    {
      "inputs": [],
      "name": "reward",
      "outputs": [
        {
          "internalType": "address",
          "name": "",
          "type": "address"
        }
      ],
      "stateMutability": "view",
      "type": "function"
    },
    {
      "inputs": [
        {
          "internalType": "uint256",
          "name": "pricePerSector_",
          "type": "uint256"
        }
      ],
      "name": "setPricePerSector",
      "outputs": [],
      "stateMutability": "nonpayable",
      "type": "function"
    },
    {
      "inputs": [
        {
          "internalType": "bytes4",
          "name": "interfaceId",
          "type": "bytes4"
        }
      ],
      "name": "supportsInterface",
      "outputs": [
        {
          "internalType": "bool",
          "name": "",
          "type": "bool"
        }
      ],
      "stateMutability": "view",
      "type": "function"
    }
  ],
  "bytecode": "0x608060405234801561001057600080fd5b50610f45806100206000396000f3fe608060405234801561001057600080fd5b506004361061010b5760003560e01c806361ec5082116100a2578063b15d20da11610071578063b15d20da14610227578063b4988fd01461024e578063ca15c87314610261578063d547741f14610274578063da6eb36a1461028757600080fd5b806361ec5082146101f05780639010d07c146101f957806391d148541461020c578063a217fddf1461021f57600080fd5b8063248a9ca3116100de578063248a9ca3146101855780632f2ff15d146101b7578063343aad82146101ca57806336568abe146101dd57600080fd5b806301ffc9a71461011057806314aa90a114610138578063158ef93e1461014d578063228cb7331461015a575b600080fd5b61012361011e366004610c58565b61029a565b60405190151581526020015b60405180910390f35b61014b610146366004610c82565b6102c5565b005b6000546101239060ff1681565b60375461016d906001600160a01b031681565b6040516001600160a01b03909116815260200161012f565b6101a9610193366004610c82565b6000908152600160208190526040909120015490565b60405190815260200161012f565b61014b6101c5366004610cb7565b6102f5565b60365461016d906001600160a01b031681565b61014b6101eb366004610cb7565b610320565b6101a960355481565b61016d610207366004610ce3565b6103a3565b61012361021a366004610cb7565b6103c2565b6101a9600081565b6101a97fb9d69e0ca90be54a40811e436234a7f7908b87ff2bec27e64f878b166da8e8e581565b61014b61025c366004610d05565b6103ed565b6101a961026f366004610c82565b61051d565b61014b610282366004610cb7565b610534565b61014b610295366004610d41565b61055a565b60006001600160e01b03198216635a05180f60e01b14806102bf57506102bf8261074d565b92915050565b7fb9d69e0ca90be54a40811e436234a7f7908b87ff2bec27e64f878b166da8e8e56102ef81610782565b50603555565b6000828152600160208190526040909120015461031181610782565b61031b838361078f565b505050565b6001600160a01b03811633146103955760405162461bcd60e51b815260206004820152602f60248201527f416363657373436f6e74726f6c3a2063616e206f6e6c792072656e6f756e636560448201526e103937b632b9903337b91039b2b63360891b60648201526084015b60405180910390fd5b61039f82826107b1565b5050565b60008281526002602052604081206103bb90836107d3565b9392505050565b60009182526001602090815260408084206001600160a01b0393909316845291905290205460ff1690565b60005460ff161561044c5760405162461bcd60e51b8152602060048201526024808201527f5a67496e697469616c697a61626c653a20616c726561647920696e697469616c6044820152631a5e995960e21b606482015260840161038c565b6000805460ff19166001178155610469906104643390565b61078f565b6104937fb9d69e0ca90be54a40811e436234a7f7908b87ff2bec27e64f878b166da8e8e53361078f565b600c6104a161040080610d83565b6104ad90610400610d83565b670de0b6b3a76400006104c3600a610100610d83565b6104cd9190610d83565b6104d79190610da2565b6104e19190610da2565b6104eb9084610d83565b603555603680546001600160a01b039384166001600160a01b0319918216179091556037805492909316911617905550565b60008181526002602052604081206102bf906107df565b6000828152600160208190526040909120015461055081610782565b61031b83836107b1565b6036546001600160a01b0316336001600160a01b0316146105bd5760405162461bcd60e51b815260206004820152601f60248201527f53656e64657220646f6573206e6f742068617665207065726d697373696f6e00604482015260640161038c565b60006105c98284610dc4565b90506000836035546105db9190610d83565b9050478111156106235760405162461bcd60e51b81526020600482015260136024820152724e6f7420656e6f75676820706169642066656560681b604482015260640161038c565b600061062f8247610dd7565b905060008361063e8685610d83565b6106489190610da2565b905060006106568285610dd7565b905085156106c5576037546040516259e96760e81b8152600481018a9052602481018890526001600160a01b03909116906359e967009084906044016000604051808303818588803b1580156106ab57600080fd5b505af11580156106bf573d6000803e3d6000fd5b50505050505b6037546001600160a01b03166359e967006106e08386610dc4565b6106ea898c610dc4565b8a6040518463ffffffff1660e01b8152600401610711929190918252602082015260400190565b6000604051808303818588803b15801561072a57600080fd5b505af115801561073e573d6000803e3d6000fd5b50505050505050505050505050565b60006001600160e01b03198216637965db0b60e01b14806102bf57506301ffc9a760e01b6001600160e01b03198316146102bf565b61078c81336107e9565b50565b6107998282610842565b600082815260026020526040902061031b90826108ad565b6107bb82826108c2565b600082815260026020526040902061031b9082610929565b60006103bb838361093e565b60006102bf825490565b6107f382826103c2565b61039f5761080081610968565b61080b83602061097a565b60405160200161081c929190610e0e565b60408051601f198184030181529082905262461bcd60e51b825261038c91600401610e83565b61084c82826103c2565b61039f5760008281526001602081815260408084206001600160a01b0386168086529252808420805460ff19169093179092559051339285917f2f8788117e7eff1d82e926ec794901d17c78024a50270940304540a733656f0d9190a45050565b60006103bb836001600160a01b038416610b16565b6108cc82826103c2565b1561039f5760008281526001602090815260408083206001600160a01b0385168085529252808320805460ff1916905551339285917ff6391f5c32d9c69d2a47ea670b442974b53935d1edc7fd64eb21e047a839171b9190a45050565b60006103bb836001600160a01b038416610b65565b600082600001828154811061095557610955610eb6565b9060005260206000200154905092915050565b60606102bf6001600160a01b03831660145b60606000610989836002610d83565b610994906002610dc4565b67ffffffffffffffff8111156109ac576109ac610ecc565b6040519080825280601f01601f1916602001820160405280156109d6576020820181803683370190505b509050600360fc1b816000815181106109f1576109f1610eb6565b60200101906001600160f81b031916908160001a905350600f60fb1b81600181518110610a2057610a20610eb6565b60200101906001600160f81b031916908160001a9053506000610a44846002610d83565b610a4f906001610dc4565b90505b6001811115610ac7576f181899199a1a9b1b9c1cb0b131b232b360811b85600f1660108110610a8357610a83610eb6565b1a60f81b828281518110610a9957610a99610eb6565b60200101906001600160f81b031916908160001a90535060049490941c93610ac081610ee2565b9050610a52565b5083156103bb5760405162461bcd60e51b815260206004820181905260248201527f537472696e67733a20686578206c656e67746820696e73756666696369656e74604482015260640161038c565b6000818152600183016020526040812054610b5d575081546001818101845560008481526020808220909301849055845484825282860190935260409020919091556102bf565b5060006102bf565b60008181526001830160205260408120548015610c4e576000610b89600183610dd7565b8554909150600090610b9d90600190610dd7565b9050818114610c02576000866000018281548110610bbd57610bbd610eb6565b9060005260206000200154905080876000018481548110610be057610be0610eb6565b6000918252602080832090910192909255918252600188019052604090208390555b8554869080610c1357610c13610ef9565b6001900381819060005260206000200160009055905585600101600086815260200190815260200160002060009055600193505050506102bf565b60009150506102bf565b600060208284031215610c6a57600080fd5b81356001600160e01b0319811681146103bb57600080fd5b600060208284031215610c9457600080fd5b5035919050565b80356001600160a01b0381168114610cb257600080fd5b919050565b60008060408385031215610cca57600080fd5b82359150610cda60208401610c9b565b90509250929050565b60008060408385031215610cf657600080fd5b50508035926020909101359150565b600080600060608486031215610d1a57600080fd5b83359250610d2a60208501610c9b565b9150610d3860408501610c9b565b90509250925092565b600080600060608486031215610d5657600080fd5b505081359360208301359350604090920135919050565b634e487b7160e01b600052601160045260246000fd5b6000816000190483118215151615610d9d57610d9d610d6d565b500290565b600082610dbf57634e487b7160e01b600052601260045260246000fd5b500490565b808201808211156102bf576102bf610d6d565b818103818111156102bf576102bf610d6d565b60005b83811015610e05578181015183820152602001610ded565b50506000910152565b7f416363657373436f6e74726f6c3a206163636f756e7420000000000000000000815260008351610e46816017850160208801610dea565b7001034b99036b4b9b9b4b733903937b6329607d1b6017918401918201528351610e77816028840160208801610dea565b01602801949350505050565b6020815260008251806020840152610ea2816040850160208701610dea565b601f01601f19169190910160400192915050565b634e487b7160e01b600052603260045260246000fd5b634e487b7160e01b600052604160045260246000fd5b600081610ef157610ef1610d6d565b506000190190565b634e487b7160e01b600052603160045260246000fdfea264697066735822122037b6e204b7c9aeeded36090e71a5ffec97f9b42fc60f7dc5aa1dffa955e32d9b64736f6c63430008100033",
  "linkReferences": {},
  "deployedLinkReferences": {}
}