{
  "_format": "hh-sol-artifact-1",
  "contractName": "FixedPrice",
  "sourceName": "contracts/market/FixedPrice.sol",
  "abi": [
    {
      "anonymous": false,
      "inputs": [
        {
          "indexed": true,
          "internalType": "bytes32",
          "name": "role",
          "type": "bytes32"
        },
        {
          "indexed": true,
          "internalType": "bytes32",
          "name": "previousAdminRole",
          "type": "bytes32"
        },
        {
          "indexed": true,
          "internalType": "bytes32",
          "name": "newAdminRole",
          "type": "bytes32"
        }
      ],
      "name": "RoleAdminChanged",
      "type": "event"
    },
    {
      "anonymous": false,
      "inputs": [
        {
          "indexed": true,
          "internalType": "bytes32",
          "name": "role",
          "type": "bytes32"
        },
        {
          "indexed": true,
          "internalType": "address",
          "name": "account",
          "type": "address"
        },
        {
          "indexed": true,
          "internalType": "address",
          "name": "sender",
          "type": "address"
        }
      ],
      "name": "RoleGranted",
      "type": "event"
    },
    {
      "anonymous": false,
      "inputs": [
        {
          "indexed": true,
          "internalType": "bytes32",
          "name": "role",
          "type": "bytes32"
        },
        {
          "indexed": true,
          "internalType": "address",
          "name": "account",
          "type": "address"
        },
        {
          "indexed": true,
          "internalType": "address",
          "name": "sender",
          "type": "address"
        }
      ],
      "name": "RoleRevoked",
      "type": "event"
    },
    {
      "inputs": [],
      "name": "DEFAULT_ADMIN_ROLE",
      "outputs": [
        {
          "internalType": "bytes32",
          "name": "",
          "type": "bytes32"
        }
      ],
      "stateMutability": "view",
      "type": "function"
    },
    {
      "inputs": [],
      "name": "PARAMS_ADMIN_ROLE",
      "outputs": [
        {
          "internalType": "bytes32",
          "name": "",
          "type": "bytes32"
        }
      ],
      "stateMutability": "view",
      "type": "function"
    },
    {
      "inputs": [
        {
          "internalType": "uint256",
          "name": "beforeLength",
          "type": "uint256"
        },
        {
          "internalType": "uint256",
          "name": "uploadSectors",
          "type": "uint256"
        },
        {
          "internalType": "uint256",
          "name": "paddingSectors",
          "type": "uint256"
        }
      ],
      "name": "chargeFee",
      "outputs": [],
      "stateMutability": "nonpayable",
      "type": "function"
    },
    {
      "inputs": [],
      "name": "flow",
      "outputs": [
        {
          "internalType": "address",
          "name": "",
          "type": "address"
        }
      ],
      "stateMutability": "view",
      "type": "function"
    },
    {
      "inputs": [
        {
          "internalType": "bytes32",
          "name": "role",
          "type": "bytes32"
        }
      ],
      "name": "getRoleAdmin",
      "outputs": [
        {
          "internalType": "bytes32",
          "name": "",
          "type": "bytes32"
        }
      ],
      "stateMutability": "view",
      "type": "function"
    },
    {
      "inputs": [
        {
          "internalType": "bytes32",
          "name": "role",
          "type": "bytes32"
        },
        {
          "internalType": "uint256",
          "name": "index",
          "type": "uint256"
        }
      ],
      "name": "getRoleMember",
      "outputs": [
        {
          "internalType": "address",
          "name": "",
          "type": "address"
        }
      ],
      "stateMutability": "view",
      "type": "function"
    },
    {
      "inputs": [
        {
          "internalType": "bytes32",
          "name": "role",
          "type": "bytes32"
        }
      ],
      "name": "getRoleMemberCount",
      "outputs": [
        {
          "internalType": "uint256",
          "name": "",
          "type": "uint256"
        }
      ],
      "stateMutability": "view",
      "type": "function"
    },
    {
      "inputs": [
        {
          "internalType": "bytes32",
          "name": "role",
          "type": "bytes32"
        },
        {
          "internalType": "address",
          "name": "account",
          "type": "address"
        }
      ],
      "name": "grantRole",
      "outputs": [],
      "stateMutability": "nonpayable",
      "type": "function"
    },
    {
      "inputs": [
        {
          "internalType": "bytes32",
          "name": "role",
          "type": "bytes32"
        },
        {
          "internalType": "address",
          "name": "account",
          "type": "address"
        }
      ],
      "name": "hasRole",
      "outputs": [
        {
          "internalType": "bool",
          "name": "",
          "type": "bool"
        }
      ],
      "stateMutability": "view",
      "type": "function"
    },
    {
      "inputs": [
        {
          "internalType": "uint256",
          "name": "pricePerSector_",
          "type": "uint256"
        },
        {
          "internalType": "address",
          "name": "flow_",
          "type": "address"
        },
        {
          "internalType": "address",
          "name": "reward_",
          "type": "address"
        }
      ],
      "name": "initialize",
      "outputs": [],
      "stateMutability": "nonpayable",
      "type": "function"
    },
    {
      "inputs": [],
      "name": "initialized",
      "outputs": [
        {
          "internalType": "bool",
          "name": "",
          "type": "bool"
        }
      ],
      "stateMutability": "view",
      "type": "function"
    },
    {
      "inputs": [],
      "name": "pricePerSector",
      "outputs": [
        {
          "internalType": "uint256",
          "name": "",
          "type": "uint256"
        }
      ],
      "stateMutability": "view",
      "type": "function"
    },
    {
      "inputs": [
        {
          "internalType": "bytes32",
          "name": "role",
          "type": "bytes32"
        },
        {
          "internalType": "address",
          "name": "account",
          "type": "address"
        }
      ],
      "name": "renounceRole",
      "outputs": [],
      "stateMutability": "nonpayable",
      "type": "function"
    },
    {
      "inputs": [
        {
          "internalType": "bytes32",
          "name": "role",
          "type": "bytes32"
        },
        {
          "internalType": "address",
          "name": "account",
          "type": "address"
        }
      ],
      "name": "revokeRole",
      "outputs": [],
      "stateMutability": "nonpayable",
      "type": "function"
    },
    {
      "inputs": [],
      "name": "reward",
      "outputs": [
        {
          "internalType": "address",
          "name": "",
          "type": "address"
        }
      ],
      "stateMutability": "view",
      "type": "function"
    },
    {
      "inputs": [
        {
          "internalType": "uint256",
          "name": "pricePerSector_",
          "type": "uint256"
        }
      ],
      "name": "setPricePerSector",
      "outputs": [],
      "stateMutability": "nonpayable",
      "type": "function"
    },
    {
      "inputs": [
        {
          "internalType": "bytes4",
          "name": "interfaceId",
          "type": "bytes4"
        }
      ],
      "name": "supportsInterface",
      "outputs": [
        {
          "internalType": "bool",
          "name": "",
          "type": "bool"
        }
      ],
      "stateMutability": "view",
      "type": "function"
    }
  ],
  "bytecode": "0x608060405234801561001057600080fd5b50610eef806100206000396000f3fe608060405234801561001057600080fd5b506004361061010b5760003560e01c806361ec5082116100a2578063b15d20da11610071578063b15d20da14610227578063b4988fd01461024e578063ca15c87314610261578063d547741f14610274578063da6eb36a1461028757600080fd5b806361ec5082146101f05780639010d07c146101f957806391d148541461020c578063a217fddf1461021f57600080fd5b8063248a9ca3116100de578063248a9ca3146101855780632f2ff15d146101b7578063343aad82146101ca57806336568abe146101dd57600080fd5b806301ffc9a71461011057806314aa90a114610138578063158ef93e1461014d578063228cb7331461015a575b600080fd5b61012361011e366004610c02565b61029a565b60405190151581526020015b60405180910390f35b61014b610146366004610c2c565b6102c5565b005b6000546101239060ff1681565b60375461016d906001600160a01b031681565b6040516001600160a01b03909116815260200161012f565b6101a9610193366004610c2c565b6000908152600160208190526040909120015490565b60405190815260200161012f565b61014b6101c5366004610c61565b6102f5565b60365461016d906001600160a01b031681565b61014b6101eb366004610c61565b610320565b6101a960355481565b61016d610207366004610c8d565b6103a3565b61012361021a366004610c61565b6103c2565b6101a9600081565b6101a97fb9d69e0ca90be54a40811e436234a7f7908b87ff2bec27e64f878b166da8e8e581565b61014b61025c366004610caf565b6103ed565b6101a961026f366004610c2c565b6104c7565b61014b610282366004610c61565b6104de565b61014b610295366004610ceb565b610504565b60006001600160e01b03198216635a05180f60e01b14806102bf57506102bf826106f7565b92915050565b7fb9d69e0ca90be54a40811e436234a7f7908b87ff2bec27e64f878b166da8e8e56102ef8161072c565b50603555565b600082815260016020819052604090912001546103118161072c565b61031b8383610739565b505050565b6001600160a01b03811633146103955760405162461bcd60e51b815260206004820152602f60248201527f416363657373436f6e74726f6c3a2063616e206f6e6c792072656e6f756e636560448201526e103937b632b9903337b91039b2b63360891b60648201526084015b60405180910390fd5b61039f828261075b565b5050565b60008281526002602052604081206103bb908361077d565b9392505050565b60009182526001602090815260408084206001600160a01b0393909316845291905290205460ff1690565b60005460ff161561044c5760405162461bcd60e51b8152602060048201526024808201527f5a67496e697469616c697a61626c653a20616c726561647920696e697469616c6044820152631a5e995960e21b606482015260840161038c565b6000805460ff19166001178155610469906104643390565b610739565b6104937fb9d69e0ca90be54a40811e436234a7f7908b87ff2bec27e64f878b166da8e8e533610739565b603592909255603680546001600160a01b039283166001600160a01b03199182161790915560378054929093169116179055565b60008181526002602052604081206102bf90610789565b600082815260016020819052604090912001546104fa8161072c565b61031b838361075b565b6036546001600160a01b0316336001600160a01b0316146105675760405162461bcd60e51b815260206004820152601f60248201527f53656e64657220646f6573206e6f742068617665207065726d697373696f6e00604482015260640161038c565b60006105738284610d2d565b90506000836035546105859190610d40565b9050478111156105cd5760405162461bcd60e51b81526020600482015260136024820152724e6f7420656e6f75676820706169642066656560681b604482015260640161038c565b60006105d98247610d5f565b90506000836105e88685610d40565b6105f29190610d72565b905060006106008285610d5f565b9050851561066f576037546040516259e96760e81b8152600481018a9052602481018890526001600160a01b03909116906359e967009084906044016000604051808303818588803b15801561065557600080fd5b505af1158015610669573d6000803e3d6000fd5b50505050505b6037546001600160a01b03166359e9670061068a8386610d2d565b610694898c610d2d565b8a6040518463ffffffff1660e01b81526004016106bb929190918252602082015260400190565b6000604051808303818588803b1580156106d457600080fd5b505af11580156106e8573d6000803e3d6000fd5b50505050505050505050505050565b60006001600160e01b03198216637965db0b60e01b14806102bf57506301ffc9a760e01b6001600160e01b03198316146102bf565b6107368133610793565b50565b61074382826107ec565b600082815260026020526040902061031b9082610857565b610765828261086c565b600082815260026020526040902061031b90826108d3565b60006103bb83836108e8565b60006102bf825490565b61079d82826103c2565b61039f576107aa81610912565b6107b5836020610924565b6040516020016107c6929190610db8565b60408051601f198184030181529082905262461bcd60e51b825261038c91600401610e2d565b6107f682826103c2565b61039f5760008281526001602081815260408084206001600160a01b0386168086529252808420805460ff19169093179092559051339285917f2f8788117e7eff1d82e926ec794901d17c78024a50270940304540a733656f0d9190a45050565b60006103bb836001600160a01b038416610ac0565b61087682826103c2565b1561039f5760008281526001602090815260408083206001600160a01b0385168085529252808320805460ff1916905551339285917ff6391f5c32d9c69d2a47ea670b442974b53935d1edc7fd64eb21e047a839171b9190a45050565b60006103bb836001600160a01b038416610b0f565b60008260000182815481106108ff576108ff610e60565b9060005260206000200154905092915050565b60606102bf6001600160a01b03831660145b60606000610933836002610d40565b61093e906002610d2d565b67ffffffffffffffff81111561095657610956610e76565b6040519080825280601f01601f191660200182016040528015610980576020820181803683370190505b509050600360fc1b8160008151811061099b5761099b610e60565b60200101906001600160f81b031916908160001a905350600f60fb1b816001815181106109ca576109ca610e60565b60200101906001600160f81b031916908160001a90535060006109ee846002610d40565b6109f9906001610d2d565b90505b6001811115610a71576f181899199a1a9b1b9c1cb0b131b232b360811b85600f1660108110610a2d57610a2d610e60565b1a60f81b828281518110610a4357610a43610e60565b60200101906001600160f81b031916908160001a90535060049490941c93610a6a81610e8c565b90506109fc565b5083156103bb5760405162461bcd60e51b815260206004820181905260248201527f537472696e67733a20686578206c656e67746820696e73756666696369656e74604482015260640161038c565b6000818152600183016020526040812054610b07575081546001818101845560008481526020808220909301849055845484825282860190935260409020919091556102bf565b5060006102bf565b60008181526001830160205260408120548015610bf8576000610b33600183610d5f565b8554909150600090610b4790600190610d5f565b9050818114610bac576000866000018281548110610b6757610b67610e60565b9060005260206000200154905080876000018481548110610b8a57610b8a610e60565b6000918252602080832090910192909255918252600188019052604090208390555b8554869080610bbd57610bbd610ea3565b6001900381819060005260206000200160009055905585600101600086815260200190815260200160002060009055600193505050506102bf565b60009150506102bf565b600060208284031215610c1457600080fd5b81356001600160e01b0319811681146103bb57600080fd5b600060208284031215610c3e57600080fd5b5035919050565b80356001600160a01b0381168114610c5c57600080fd5b919050565b60008060408385031215610c7457600080fd5b82359150610c8460208401610c45565b90509250929050565b60008060408385031215610ca057600080fd5b50508035926020909101359150565b600080600060608486031215610cc457600080fd5b83359250610cd460208501610c45565b9150610ce260408501610c45565b90509250925092565b600080600060608486031215610d0057600080fd5b505081359360208301359350604090920135919050565b634e487b7160e01b600052601160045260246000fd5b808201808211156102bf576102bf610d17565b6000816000190483118215151615610d5a57610d5a610d17565b500290565b818103818111156102bf576102bf610d17565b600082610d8f57634e487b7160e01b600052601260045260246000fd5b500490565b60005b83811015610daf578181015183820152602001610d97565b50506000910152565b7f416363657373436f6e74726f6c3a206163636f756e7420000000000000000000815260008351610df0816017850160208801610d94565b7001034b99036b4b9b9b4b733903937b6329607d1b6017918401918201528351610e21816028840160208801610d94565b01602801949350505050565b6020815260008251806020840152610e4c816040850160208701610d94565b601f01601f19169190910160400192915050565b634e487b7160e01b600052603260045260246000fd5b634e487b7160e01b600052604160045260246000fd5b600081610e9b57610e9b610d17565b506000190190565b634e487b7160e01b600052603160045260246000fdfea264697066735822122005bc5212fa31058aa9eb45854ae54aa86ea3714a75aa5f83d01ff6825bec82d664736f6c63430008100033",
  "linkReferences": {},
  "deployedLinkReferences": {}
}