{
  "_format": "hh-sol-artifact-1",
  "contractName": "FixedPrice",
  "sourceName": "contracts/market/FixedPrice.sol",
  "abi": [
    {
      "inputs": [
        {
          "internalType": "address",
          "name": "book_",
          "type": "address"
        },
        {
          "internalType": "uint256",
          "name": "lifetimeMonthes",
          "type": "uint256"
        }
      ],
      "stateMutability": "nonpayable",
      "type": "constructor"
    },
    {
      "inputs": [],
      "name": "book",
      "outputs": [
        {
          "internalType": "contract AddressBook",
          "name": "",
          "type": "address"
        }
      ],
      "stateMutability": "view",
      "type": "function"
    },
    {
      "inputs": [
        {
          "internalType": "uint256",
          "name": "beforeLength",
          "type": "uint256"
        },
        {
          "internalType": "uint256",
          "name": "uploadSectors",
          "type": "uint256"
        },
        {
          "internalType": "uint256",
          "name": "paddingSectors",
          "type": "uint256"
        }
      ],
      "name": "chargeFee",
      "outputs": [],
      "stateMutability": "nonpayable",
      "type": "function"
    },
    {
      "inputs": [],
      "name": "pricePerSector",
      "outputs": [
        {
          "internalType": "uint256",
          "name": "",
          "type": "uint256"
        }
      ],
      "stateMutability": "view",
      "type": "function"
    },
    {
      "stateMutability": "payable",
      "type": "receive"
    }
  ],
  "bytecode": "0x60c060405234801561001057600080fd5b5060405161071238038061071283398101604081905261002f9161009f565b6001600160a01b038216608052600c61004a610400806100d9565b610056906104006100d9565b670de0b6b3a764000061006c600a6101006100d9565b61007691906100d9565b6100809190610106565b61008a9190610106565b61009490826100d9565b60a052506101289050565b600080604083850312156100b257600080fd5b82516001600160a01b03811681146100c957600080fd5b6020939093015192949293505050565b600081600019048311821515161561010157634e487b7160e01b600052601160045260246000fd5b500290565b60008261012357634e487b7160e01b600052601260045260246000fd5b500490565b60805160a0516105ac6101666000396000818160a701526101f601526000818160560152818160fb0152818161029f015261038601526105ac6000f3fe6080604052600436106100385760003560e01c806305a8da721461004457806361ec508214610095578063da6eb36a146100d757600080fd5b3661003f57005b600080fd5b34801561005057600080fd5b506100787f000000000000000000000000000000000000000000000000000000000000000081565b6040516001600160a01b0390911681526020015b60405180910390f35b3480156100a157600080fd5b506100c97f000000000000000000000000000000000000000000000000000000000000000081565b60405190815260200161008c565b3480156100e357600080fd5b506100f76100f236600461048b565b6100f9565b005b7f00000000000000000000000000000000000000000000000000000000000000006001600160a01b031663343aad826040518163ffffffff1660e01b8152600401602060405180830381865afa158015610157573d6000803e3d6000fd5b505050506040513d601f19601f8201168201806040525081019061017b91906104cf565b6001600160a01b0316336001600160a01b0316146101e05760405162461bcd60e51b815260206004820152601f60248201527f53656e64657220646f6573206e6f742068617665207065726d697373696f6e0060448201526064015b60405180910390fd5b60006101ec8284610509565b9050600061021a847f0000000000000000000000000000000000000000000000000000000000000000610522565b9050478111156102625760405162461bcd60e51b81526020600482015260136024820152724e6f7420656e6f75676820706169642066656560681b60448201526064016101d7565b600061026e8247610541565b905060008361027d8685610522565b6102879190610554565b905060006102958285610541565b90508515610384577f00000000000000000000000000000000000000000000000000000000000000006001600160a01b031663228cb7336040518163ffffffff1660e01b8152600401602060405180830381865afa1580156102fb573d6000803e3d6000fd5b505050506040513d601f19601f8201168201806040525081019061031f91906104cf565b6040516259e96760e81b8152600481018a9052602481018890526001600160a01b0391909116906359e967009084906044016000604051808303818588803b15801561036a57600080fd5b505af115801561037e573d6000803e3d6000fd5b50505050505b7f00000000000000000000000000000000000000000000000000000000000000006001600160a01b031663228cb7336040518163ffffffff1660e01b8152600401602060405180830381865afa1580156103e2573d6000803e3d6000fd5b505050506040513d601f19601f8201168201806040525081019061040691906104cf565b6001600160a01b03166359e9670061041e8386610509565b610428898c610509565b8a6040518463ffffffff1660e01b815260040161044f929190918252602082015260400190565b6000604051808303818588803b15801561046857600080fd5b505af115801561047c573d6000803e3d6000fd5b50505050505050505050505050565b6000806000606084860312156104a057600080fd5b505081359360208301359350604090920135919050565b6001600160a01b03811681146104cc57600080fd5b50565b6000602082840312156104e157600080fd5b81516104ec816104b7565b9392505050565b634e487b7160e01b600052601160045260246000fd5b8082018082111561051c5761051c6104f3565b92915050565b600081600019048311821515161561053c5761053c6104f3565b500290565b8181038181111561051c5761051c6104f3565b60008261057157634e487b7160e01b600052601260045260246000fd5b50049056fea2646970667358221220d8c6df6df247ef931c00a2f0c8319548d3ba00a2a0bc646763096c2394225d5064736f6c63430008100033",
  "linkReferences": {},
  "deployedLinkReferences": {}
}