{
  "_format": "hh-sol-artifact-1",
  "contractName": "OnePoolReward",
  "sourceName": "contracts/reward/OnePoolReward.sol",
  "abi": [
    {
      "inputs": [
        {
          "internalType": "address",
          "name": "book_",
          "type": "address"
        },
        {
          "internalType": "uint256",
          "name": "lifetimeMonthes",
          "type": "uint256"
        }
      ],
      "stateMutability": "nonpayable",
      "type": "constructor"
    },
    {
      "anonymous": false,
      "inputs": [
        {
          "indexed": true,
          "internalType": "uint256",
          "name": "pricingIndex",
          "type": "uint256"
        },
        {
          "indexed": true,
          "internalType": "address",
          "name": "beneficiary",
          "type": "address"
        },
        {
          "indexed": false,
          "internalType": "uint256",
          "name": "amount",
          "type": "uint256"
        }
      ],
      "name": "DistributeReward",
      "type": "event"
    },
    {
      "inputs": [],
      "name": "accumulatedReward",
      "outputs": [
        {
          "internalType": "uint256",
          "name": "",
          "type": "uint256"
        }
      ],
      "stateMutability": "view",
      "type": "function"
    },
    {
      "inputs": [],
      "name": "book",
      "outputs": [
        {
          "internalType": "contract AddressBook",
          "name": "",
          "type": "address"
        }
      ],
      "stateMutability": "view",
      "type": "function"
    },
    {
      "inputs": [
        {
          "internalType": "uint256",
          "name": "pricingIndex",
          "type": "uint256"
        },
        {
          "internalType": "address payable",
          "name": "beneficiary",
          "type": "address"
        }
      ],
      "name": "claimMineReward",
      "outputs": [],
      "stateMutability": "nonpayable",
      "type": "function"
    },
    {
      "inputs": [],
      "name": "claimedReward",
      "outputs": [
        {
          "internalType": "uint256",
          "name": "",
          "type": "uint256"
        }
      ],
      "stateMutability": "view",
      "type": "function"
    },
    {
      "inputs": [
        {
          "internalType": "uint256",
          "name": "beforeLength",
          "type": "uint256"
        },
        {
          "internalType": "uint256",
          "name": "rewardSectors",
          "type": "uint256"
        }
      ],
      "name": "fillReward",
      "outputs": [],
      "stateMutability": "payable",
      "type": "function"
    },
    {
      "inputs": [],
      "name": "firstValidChunk",
      "outputs": [
        {
          "internalType": "uint256",
          "name": "",
          "type": "uint256"
        }
      ],
      "stateMutability": "view",
      "type": "function"
    },
    {
      "inputs": [],
      "name": "lastUpdateTimestamp",
      "outputs": [
        {
          "internalType": "uint256",
          "name": "",
          "type": "uint256"
        }
      ],
      "stateMutability": "view",
      "type": "function"
    },
    {
      "inputs": [],
      "name": "lastValidChunk",
      "outputs": [
        {
          "internalType": "uint256",
          "name": "",
          "type": "uint256"
        }
      ],
      "stateMutability": "view",
      "type": "function"
    },
    {
      "inputs": [],
      "name": "lifetimeSeconds",
      "outputs": [
        {
          "internalType": "uint256",
          "name": "",
          "type": "uint256"
        }
      ],
      "stateMutability": "view",
      "type": "function"
    },
    {
      "inputs": [],
      "name": "refresh",
      "outputs": [],
      "stateMutability": "nonpayable",
      "type": "function"
    },
    {
      "inputs": [],
      "name": "timeoutHead",
      "outputs": [
        {
          "internalType": "uint256",
          "name": "",
          "type": "uint256"
        }
      ],
      "stateMutability": "view",
      "type": "function"
    },
    {
      "inputs": [
        {
          "internalType": "uint256",
          "name": "",
          "type": "uint256"
        }
      ],
      "name": "timeoutRecords",
      "outputs": [
        {
          "internalType": "uint64",
          "name": "numPriceChunks",
          "type": "uint64"
        },
        {
          "internalType": "uint64",
          "name": "timeoutTimestamp",
          "type": "uint64"
        }
      ],
      "stateMutability": "view",
      "type": "function"
    }
  ],
  "bytecode": "0x60c060405234801561001057600080fd5b50604051610b29380380610b2983398101604081905261002f91610062565b6001600160a01b03821660805261004a601f6201518061009c565b610054908261009c565b60a0525050426006556100c9565b6000806040838503121561007557600080fd5b82516001600160a01b038116811461008c57600080fd5b6020939093015192949293505050565b60008160001904831182151516156100c457634e487b7160e01b600052601160045260246000fd5b500290565b60805160a051610a27610102600039600081816101f7015261043201526000818160be0152818161028601526104d00152610a276000f3fe6080604052600436106100a75760003560e01c8063514ccef011610064578063514ccef0146101a457806359e96700146101ba57806380fad325146101cf578063bef193f0146101e5578063ccec92c414610219578063f8ac93e81461023957600080fd5b806305a8da72146100ac5780630dbbe0a2146100fd57806314bcec9f1461013e57806318ca1b2b1461016257806322ee4cb81461017857806328fedefe1461018e575b600080fd5b3480156100b857600080fd5b506100e07f000000000000000000000000000000000000000000000000000000000000000081565b6040516001600160a01b0390911681526020015b60405180910390f35b34801561010957600080fd5b5061011d6101183660046108b4565b61024e565b6040805167ffffffffffffffff9384168152929091166020830152016100f4565b34801561014a57600080fd5b5061015460065481565b6040519081526020016100f4565b34801561016e57600080fd5b5061015460035481565b34801561018457600080fd5b5061015460025481565b34801561019a57600080fd5b5061015460015481565b3480156101b057600080fd5b5061015460055481565b6101cd6101c83660046108cd565b610284565b005b3480156101db57600080fd5b5061015460045481565b3480156101f157600080fd5b506101547f000000000000000000000000000000000000000000000000000000000000000081565b34801561022557600080fd5b506101cd610234366004610904565b6104ce565b34801561024557600080fd5b506101cd61066c565b6000818154811061025e57600080fd5b60009182526020909120015467ffffffffffffffff8082169250600160401b9091041682565b7f00000000000000000000000000000000000000000000000000000000000000006001600160a01b03166380f556056040518163ffffffff1660e01b8152600401602060405180830381865afa1580156102e2573d6000803e3d6000fd5b505050506040513d601f19601f820116820180604052508101906103069190610934565b6001600160a01b0316336001600160a01b03161461036b5760405162461bcd60e51b815260206004820152601f60248201527f53656e64657220646f6573206e6f742068617665207065726d697373696f6e0060448201526064015b60405180910390fd5b61037361066c565b600061037f828461096e565b9050600061010061039261040080610987565b61039e90610400610987565b6103a9906008610987565b6103b391906109a6565b6103bd90856109a6565b905060006101006103d061040080610987565b6103dc90610400610987565b6103e7906008610987565b6103f191906109a6565b6103fb90846109a6565b9050818111156104c75760006040518060400160405280848461041e91906109c8565b67ffffffffffffffff1681526020016104577f00000000000000000000000000000000000000000000000000000000000000004261096e565b67ffffffffffffffff9081169091526000805460018101825590805282517f290decd9548b62a8d60345a988386fc84ba6bc95484008f6362f93160ef3e56390910180546020909401518316600160401b026001600160801b031990941691909216179190911790555060038190555b5050505050565b7f00000000000000000000000000000000000000000000000000000000000000006001600160a01b03166399f4b2516040518163ffffffff1660e01b8152600401602060405180830381865afa15801561052c573d6000803e3d6000fd5b505050506040513d601f19601f820116820180604052508101906105509190610934565b6001600160a01b0316336001600160a01b0316146105b05760405162461bcd60e51b815260206004820152601f60248201527f53656e64657220646f6573206e6f742068617665207065726d697373696f6e006044820152606401610362565b6002548210156105be575050565b6105c661066c565b60006005546004546105d891906109c8565b9050478111156105e55750475b8015610667576040516001600160a01b0383169082156108fc029083906000818181858888f19350505050158015610621573d6000803e3d6000fd5b50816001600160a01b0316837f83617a1b0f847971f005bd162dde513cfe93df96e6293c3bbb5fe9c40629dd4c8360405161065e91815260200190565b60405180910390a35b505050565b600080549081900361068a57426006819055610687906107cf565b50565b426000600154815481106106a0576106a06109db565b600091825260209091200154600160401b900467ffffffffffffffff16116107ca576106fc6000600154815481106106da576106da6109db565b600091825260209091200154600160401b900467ffffffffffffffff166107cf565b600060015481548110610711576107116109db565b60009182526020822001546002805467ffffffffffffffff90921692909161073a90849061096e565b90915550506040805180820190915260008082526020820181905260015481548110610768576107686109db565b60009182526020808320845192018054949091015167ffffffffffffffff908116600160401b026001600160801b03199095169216919091179290921790915560018054909182916107bb90839061096e565b9091555050600154810361068a575b610687425b60065481116107db5750565b60006107e9601f600c610987565b6107f69062015180610987565b61080261040080610987565b61080e90610400610987565b670de0b6b3a7640000600a61082561040080610987565b61083190610400610987565b61083c906008610987565b60025460035461084c91906109c8565b60065461085990896109c8565b6108639190610987565b61086d9190610987565b6108779190610987565b6108819190610987565b61088b91906109a6565b61089591906109a6565b905080600460008282546108a9919061096e565b909155505050600655565b6000602082840312156108c657600080fd5b5035919050565b600080604083850312156108e057600080fd5b50508035926020909101359150565b6001600160a01b038116811461068757600080fd5b6000806040838503121561091757600080fd5b823591506020830135610929816108ef565b809150509250929050565b60006020828403121561094657600080fd5b8151610951816108ef565b9392505050565b634e487b7160e01b600052601160045260246000fd5b8082018082111561098157610981610958565b92915050565b60008160001904831182151516156109a1576109a1610958565b500290565b6000826109c357634e487b7160e01b600052601260045260246000fd5b500490565b8181038181111561098157610981610958565b634e487b7160e01b600052603260045260246000fdfea26469706673582212202cb6e8c64eaa9caf9060d33cca8a7af0c4607562e0e7a516f96c6535d4ba26ef64736f6c63430008100033",
  "linkReferences": {},
  "deployedLinkReferences": {}
}