{
  "_format": "hh-sol-artifact-1",
  "contractName": "OnePoolReward",
  "sourceName": "contracts/reward/OnePoolReward.sol",
  "abi": [
    {
      "inputs": [
        {
          "internalType": "address",
          "name": "book_",
          "type": "address"
        },
        {
          "internalType": "uint256",
          "name": "lifetimeMonthes",
          "type": "uint256"
        }
      ],
      "stateMutability": "nonpayable",
      "type": "constructor"
    },
    {
      "inputs": [],
      "name": "accumulatedReward",
      "outputs": [
        {
          "internalType": "uint256",
          "name": "",
          "type": "uint256"
        }
      ],
      "stateMutability": "view",
      "type": "function"
    },
    {
      "inputs": [],
      "name": "book",
      "outputs": [
        {
          "internalType": "contract AddressBook",
          "name": "",
          "type": "address"
        }
      ],
      "stateMutability": "view",
      "type": "function"
    },
    {
      "inputs": [
        {
          "internalType": "uint256",
          "name": "pricingIndex",
          "type": "uint256"
        },
        {
          "internalType": "address payable",
          "name": "beneficiary",
          "type": "address"
        }
      ],
      "name": "claimMineReward",
      "outputs": [],
      "stateMutability": "nonpayable",
      "type": "function"
    },
    {
      "inputs": [],
      "name": "claimedReward",
      "outputs": [
        {
          "internalType": "uint256",
          "name": "",
          "type": "uint256"
        }
      ],
      "stateMutability": "view",
      "type": "function"
    },
    {
      "inputs": [
        {
          "internalType": "uint256",
          "name": "beforeLength",
          "type": "uint256"
        },
        {
          "internalType": "uint256",
          "name": "rewardSectors",
          "type": "uint256"
        }
      ],
      "name": "fillReward",
      "outputs": [],
      "stateMutability": "payable",
      "type": "function"
    },
    {
      "inputs": [],
      "name": "firstValidChunk",
      "outputs": [
        {
          "internalType": "uint256",
          "name": "",
          "type": "uint256"
        }
      ],
      "stateMutability": "view",
      "type": "function"
    },
    {
      "inputs": [],
      "name": "lastUpdateTimestamp",
      "outputs": [
        {
          "internalType": "uint256",
          "name": "",
          "type": "uint256"
        }
      ],
      "stateMutability": "view",
      "type": "function"
    },
    {
      "inputs": [],
      "name": "lastValidChunk",
      "outputs": [
        {
          "internalType": "uint256",
          "name": "",
          "type": "uint256"
        }
      ],
      "stateMutability": "view",
      "type": "function"
    },
    {
      "inputs": [],
      "name": "lifetimeSeconds",
      "outputs": [
        {
          "internalType": "uint256",
          "name": "",
          "type": "uint256"
        }
      ],
      "stateMutability": "view",
      "type": "function"
    },
    {
      "inputs": [],
      "name": "refresh",
      "outputs": [],
      "stateMutability": "nonpayable",
      "type": "function"
    },
    {
      "inputs": [],
      "name": "timeoutHead",
      "outputs": [
        {
          "internalType": "uint256",
          "name": "",
          "type": "uint256"
        }
      ],
      "stateMutability": "view",
      "type": "function"
    },
    {
      "inputs": [
        {
          "internalType": "uint256",
          "name": "",
          "type": "uint256"
        }
      ],
      "name": "timeoutRecords",
      "outputs": [
        {
          "internalType": "uint64",
          "name": "numPriceChunks",
          "type": "uint64"
        },
        {
          "internalType": "uint64",
          "name": "timeoutTimestamp",
          "type": "uint64"
        }
      ],
      "stateMutability": "view",
      "type": "function"
    }
  ],
  "bytecode": "0x60c060405234801561001057600080fd5b50604051610ae0380380610ae083398101604081905261002f91610062565b6001600160a01b03821660805261004a601f6201518061009c565b610054908261009c565b60a0525050426006556100c9565b6000806040838503121561007557600080fd5b82516001600160a01b038116811461008c57600080fd5b6020939093015192949293505050565b60008160001904831182151516156100c457634e487b7160e01b600052601160045260246000fd5b500290565b60805160a0516109de610102600039600081816101f7015261043201526000818160be0152818161028601526104d001526109de6000f3fe6080604052600436106100a75760003560e01c8063514ccef011610064578063514ccef0146101a457806359e96700146101ba57806380fad325146101cf578063bef193f0146101e5578063ccec92c414610219578063f8ac93e81461023957600080fd5b806305a8da72146100ac5780630dbbe0a2146100fd57806314bcec9f1461013e57806318ca1b2b1461016257806322ee4cb81461017857806328fedefe1461018e575b600080fd5b3480156100b857600080fd5b506100e07f000000000000000000000000000000000000000000000000000000000000000081565b6040516001600160a01b0390911681526020015b60405180910390f35b34801561010957600080fd5b5061011d61011836600461086b565b61024e565b6040805167ffffffffffffffff9384168152929091166020830152016100f4565b34801561014a57600080fd5b5061015460065481565b6040519081526020016100f4565b34801561016e57600080fd5b5061015460035481565b34801561018457600080fd5b5061015460025481565b34801561019a57600080fd5b5061015460015481565b3480156101b057600080fd5b5061015460055481565b6101cd6101c8366004610884565b610284565b005b3480156101db57600080fd5b5061015460045481565b3480156101f157600080fd5b506101547f000000000000000000000000000000000000000000000000000000000000000081565b34801561022557600080fd5b506101cd6102343660046108bb565b6104ce565b34801561024557600080fd5b506101cd610621565b6000818154811061025e57600080fd5b60009182526020909120015467ffffffffffffffff8082169250600160401b9091041682565b7f00000000000000000000000000000000000000000000000000000000000000006001600160a01b03166380f556056040518163ffffffff1660e01b8152600401602060405180830381865afa1580156102e2573d6000803e3d6000fd5b505050506040513d601f19601f8201168201806040525081019061030691906108eb565b6001600160a01b0316336001600160a01b03161461036b5760405162461bcd60e51b815260206004820152601f60248201527f53656e64657220646f6573206e6f742068617665207065726d697373696f6e0060448201526064015b60405180910390fd5b610373610621565b600061037f8284610925565b905060006101006103926104008061093e565b61039e9061040061093e565b6103a990600861093e565b6103b3919061095d565b6103bd908561095d565b905060006101006103d06104008061093e565b6103dc9061040061093e565b6103e790600861093e565b6103f1919061095d565b6103fb908461095d565b9050818111156104c75760006040518060400160405280848461041e919061097f565b67ffffffffffffffff1681526020016104577f000000000000000000000000000000000000000000000000000000000000000042610925565b67ffffffffffffffff9081169091526000805460018101825590805282517f290decd9548b62a8d60345a988386fc84ba6bc95484008f6362f93160ef3e56390910180546020909401518316600160401b026001600160801b031990941691909216179190911790555060038190555b5050505050565b7f00000000000000000000000000000000000000000000000000000000000000006001600160a01b031663343aad826040518163ffffffff1660e01b8152600401602060405180830381865afa15801561052c573d6000803e3d6000fd5b505050506040513d601f19601f8201168201806040525081019061055091906108eb565b6001600160a01b0316336001600160a01b0316146105b05760405162461bcd60e51b815260206004820152601f60248201527f53656e64657220646f6573206e6f742068617665207065726d697373696f6e006044820152606401610362565b6002548210156105be575050565b6105c6610621565b60006005546004546105d8919061097f565b9050478111156105e55750475b6040516001600160a01b0383169082156108fc029083906000818181858888f1935050505015801561061b573d6000803e3d6000fd5b50505050565b6000805490819003610634575042600655565b4260006001548154811061064a5761064a610992565b600091825260209091200154600160401b900467ffffffffffffffff161161077d576106a660006001548154811061068457610684610992565b600091825260209091200154600160401b900467ffffffffffffffff16610785565b6000600154815481106106bb576106bb610992565b60009182526020822001546002805467ffffffffffffffff9092169290916106e4908490610925565b9091555050604080518082019091526000808252602082018190526001548154811061071257610712610992565b60009182526020808320845192018054949091015167ffffffffffffffff908116600160401b026001600160801b0319909516921691909117929092179091556001805490918291610765908390610925565b90915550506001548190036107805761077d42610785565b50565b610634565b60065481116107915750565b600061079f601f600c61093e565b6107ac906201518061093e565b6107b86104008061093e565b6107c49061040061093e565b670de0b6b3a7640000600a6107db6104008061093e565b6107e79061040061093e565b6107f290600861093e565b600254600354610802919061097f565b87600654610810919061097f565b61081a919061093e565b610824919061093e565b61082e919061093e565b610838919061093e565b610842919061095d565b61084c919061095d565b905080600460008282546108609190610925565b909155505050600655565b60006020828403121561087d57600080fd5b5035919050565b6000806040838503121561089757600080fd5b50508035926020909101359150565b6001600160a01b038116811461077d57600080fd5b600080604083850312156108ce57600080fd5b8235915060208301356108e0816108a6565b809150509250929050565b6000602082840312156108fd57600080fd5b8151610908816108a6565b9392505050565b634e487b7160e01b600052601160045260246000fd5b808201808211156109385761093861090f565b92915050565b60008160001904831182151516156109585761095861090f565b500290565b60008261097a57634e487b7160e01b600052601260045260246000fd5b500490565b818103818111156109385761093861090f565b634e487b7160e01b600052603260045260246000fdfea2646970667358221220f5ad9078eaf69e9adcbac8ca6f6bcf3f44f624edc6aa48ba2866c5e13d6b21cc64736f6c63430008100033",
  "linkReferences": {},
  "deployedLinkReferences": {}
}