{
  "_format": "hh-sol-artifact-1",
  "contractName": "OnePoolReward",
  "sourceName": "contracts/reward/OnePoolReward.sol",
  "abi": [
    {
      "inputs": [
        {
          "internalType": "address",
          "name": "book_",
          "type": "address"
        },
        {
          "internalType": "uint256",
          "name": "lifetimeMonthes",
          "type": "uint256"
        }
      ],
      "stateMutability": "nonpayable",
      "type": "constructor"
    },
    {
      "anonymous": false,
      "inputs": [
        {
          "indexed": true,
          "internalType": "uint256",
          "name": "pricingIndex",
          "type": "uint256"
        },
        {
          "indexed": true,
          "internalType": "address",
          "name": "beneficiary",
          "type": "address"
        },
        {
          "indexed": false,
          "internalType": "uint256",
          "name": "amount",
          "type": "uint256"
        }
      ],
      "name": "DistributeReward",
      "type": "event"
    },
    {
      "inputs": [],
      "name": "accumulatedReward",
      "outputs": [
        {
          "internalType": "uint256",
          "name": "",
          "type": "uint256"
        }
      ],
      "stateMutability": "view",
      "type": "function"
    },
    {
      "inputs": [],
      "name": "activeDonation",
      "outputs": [
        {
          "internalType": "uint256",
          "name": "",
          "type": "uint256"
        }
      ],
      "stateMutability": "view",
      "type": "function"
    },
    {
      "inputs": [],
      "name": "book",
      "outputs": [
        {
          "internalType": "contract AddressBook",
          "name": "",
          "type": "address"
        }
      ],
      "stateMutability": "view",
      "type": "function"
    },
    {
      "inputs": [
        {
          "internalType": "uint256",
          "name": "pricingIndex",
          "type": "uint256"
        },
        {
          "internalType": "address payable",
          "name": "beneficiary",
          "type": "address"
        },
        {
          "internalType": "bytes32",
          "name": "",
          "type": "bytes32"
        }
      ],
      "name": "claimMineReward",
      "outputs": [],
      "stateMutability": "nonpayable",
      "type": "function"
    },
    {
      "inputs": [],
      "name": "claimedReward",
      "outputs": [
        {
          "internalType": "uint256",
          "name": "",
          "type": "uint256"
        }
      ],
      "stateMutability": "view",
      "type": "function"
    },
    {
      "inputs": [
        {
          "internalType": "uint256",
          "name": "beforeLength",
          "type": "uint256"
        },
        {
          "internalType": "uint256",
          "name": "rewardSectors",
          "type": "uint256"
        }
      ],
      "name": "fillReward",
      "outputs": [],
      "stateMutability": "payable",
      "type": "function"
    },
    {
      "inputs": [],
      "name": "firstValidChunk",
      "outputs": [
        {
          "internalType": "uint256",
          "name": "",
          "type": "uint256"
        }
      ],
      "stateMutability": "view",
      "type": "function"
    },
    {
      "inputs": [],
      "name": "lastUpdateTimestamp",
      "outputs": [
        {
          "internalType": "uint256",
          "name": "",
          "type": "uint256"
        }
      ],
      "stateMutability": "view",
      "type": "function"
    },
    {
      "inputs": [],
      "name": "lastValidChunk",
      "outputs": [
        {
          "internalType": "uint256",
          "name": "",
          "type": "uint256"
        }
      ],
      "stateMutability": "view",
      "type": "function"
    },
    {
      "inputs": [],
      "name": "lifetimeInSeconds",
      "outputs": [
        {
          "internalType": "uint256",
          "name": "",
          "type": "uint256"
        }
      ],
      "stateMutability": "view",
      "type": "function"
    },
    {
      "inputs": [],
      "name": "nextChunkDonation",
      "outputs": [
        {
          "internalType": "uint256",
          "name": "",
          "type": "uint256"
        }
      ],
      "stateMutability": "view",
      "type": "function"
    },
    {
      "inputs": [],
      "name": "refresh",
      "outputs": [],
      "stateMutability": "nonpayable",
      "type": "function"
    },
    {
      "inputs": [],
      "name": "timeoutHead",
      "outputs": [
        {
          "internalType": "uint256",
          "name": "",
          "type": "uint256"
        }
      ],
      "stateMutability": "view",
      "type": "function"
    },
    {
      "inputs": [
        {
          "internalType": "uint256",
          "name": "",
          "type": "uint256"
        }
      ],
      "name": "timeoutRecords",
      "outputs": [
        {
          "internalType": "uint64",
          "name": "numPriceChunks",
          "type": "uint64"
        },
        {
          "internalType": "uint64",
          "name": "timeoutTimestamp",
          "type": "uint64"
        },
        {
          "internalType": "uint256",
          "name": "donation",
          "type": "uint256"
        }
      ],
      "stateMutability": "view",
      "type": "function"
    },
    {
      "stateMutability": "payable",
      "type": "receive"
    }
  ],
  "bytecode": "0x60c060405234801561001057600080fd5b50604051610ce7380380610ce783398101604081905261002f91610062565b6001600160a01b03821660805261004a601f6201518061009c565b610054908261009c565b60a0525050426006556100c9565b6000806040838503121561007557600080fd5b82516001600160a01b038116811461008c57600080fd5b6020939093015192949293505050565b60008160001904831182151516156100c457634e487b7160e01b600052601160045260246000fd5b500290565b60805160a051610bdd61010a60003960008181610282015281816104cc01526109f20152600081816101170152818161032001526105c90152610bdd6000f3fe6080604052600436106100e15760003560e01c806359e967001161007f57806380fad3251161005957806380fad3251461025a578063b7375ddb14610270578063b7a3c04c146102a4578063f8ac93e8146102c457600080fd5b806359e96700146102195780636baff3d31461022e57806377bd602b1461024457600080fd5b806318ca1b2b116100bb57806318ca1b2b146101c157806322ee4cb8146101d757806328fedefe146101ed578063514ccef01461020357600080fd5b806305a8da72146101055780630dbbe0a21461015657806314bcec9f1461019d57600080fd5b366101005734600760008282546100f89190610a78565b925050819055005b600080fd5b34801561011157600080fd5b506101397f000000000000000000000000000000000000000000000000000000000000000081565b6040516001600160a01b0390911681526020015b60405180910390f35b34801561016257600080fd5b50610176610171366004610a91565b6102d9565b6040805167ffffffffffffffff94851681529390921660208401529082015260600161014d565b3480156101a957600080fd5b506101b360065481565b60405190815260200161014d565b3480156101cd57600080fd5b506101b360035481565b3480156101e357600080fd5b506101b360025481565b3480156101f957600080fd5b506101b360015481565b34801561020f57600080fd5b506101b360055481565b61022c610227366004610aaa565b61031e565b005b34801561023a57600080fd5b506101b360075481565b34801561025057600080fd5b506101b360085481565b34801561026657600080fd5b506101b360045481565b34801561027c57600080fd5b506101b37f000000000000000000000000000000000000000000000000000000000000000081565b3480156102b057600080fd5b5061022c6102bf366004610ae1565b6105c7565b3480156102d057600080fd5b5061022c610767565b600081815481106102e957600080fd5b60009182526020909120600290910201805460019091015467ffffffffffffffff8083169350600160401b9092049091169083565b7f00000000000000000000000000000000000000000000000000000000000000006001600160a01b03166380f556056040518163ffffffff1660e01b8152600401602060405180830381865afa15801561037c573d6000803e3d6000fd5b505050506040513d601f19601f820116820180604052508101906103a09190610b19565b6001600160a01b0316336001600160a01b0316146104055760405162461bcd60e51b815260206004820152601f60248201527f53656e64657220646f6573206e6f742068617665207065726d697373696f6e0060448201526064015b60405180910390fd5b61040d610767565b60006104198284610a78565b9050600061010061042c61040080610b3d565b61043890610400610b3d565b610443906008610b3d565b61044d9190610b5c565b6104579085610b5c565b9050600061010061046a61040080610b3d565b61047690610400610b3d565b610481906008610b3d565b61048b9190610b5c565b6104959084610b5c565b9050818111156105c0576000604051806060016040528084846104b89190610b7e565b67ffffffffffffffff1681526020016104f17f000000000000000000000000000000000000000000000000000000000000000042610a78565b67ffffffffffffffff90811682526007805460209384015260008054600181018255818052855160029091027f290decd9548b62a8d60345a988386fc84ba6bc95484008f6362f93160ef3e56381018054968801518616600160401b026001600160801b031990971692909516919091179490941790925560408401517f290decd9548b62a8d60345a988386fc84ba6bc95484008f6362f93160ef3e56490930192909255600385905590546008805493945090929091906105b4908490610a78565b90915550506000600755505b5050505050565b7f00000000000000000000000000000000000000000000000000000000000000006001600160a01b03166399f4b2516040518163ffffffff1660e01b8152600401602060405180830381865afa158015610625573d6000803e3d6000fd5b505050506040513d601f19601f820116820180604052508101906106499190610b19565b6001600160a01b0316336001600160a01b0316146106a95760405162461bcd60e51b815260206004820152601f60248201527f53656e64657220646f6573206e6f742068617665207065726d697373696f6e0060448201526064016103fc565b6002548310156106b857505050565b6106c0610767565b60006005546004546106d29190610b7e565b9050478111156106df5750475b8015610761576040516001600160a01b0384169082156108fc029083906000818181858888f1935050505015801561071b573d6000803e3d6000fd5b50826001600160a01b0316847f83617a1b0f847971f005bd162dde513cfe93df96e6293c3bbb5fe9c40629dd4c8360405161075891815260200190565b60405180910390a35b50505050565b60008054908190036107855742600681905561078290610926565b50565b4260006001548154811061079b5761079b610b91565b6000918252602090912060029091020154600160401b900467ffffffffffffffff1611610921576108016000600154815481106107da576107da610b91565b6000918252602090912060029091020154600160401b900467ffffffffffffffff16610926565b60006001548154811061081657610816610b91565b60009182526020822060029182020154815467ffffffffffffffff9091169290610841908490610a78565b9250508190555060006001548154811061085d5761085d610b91565b906000526020600020906002020160010154600860008282546108809190610b7e565b909155505060408051606081018252600080825260208201819052918101829052600154825491929181106108b7576108b7610b91565b60009182526020808320845160029093020180549185015167ffffffffffffffff908116600160401b026001600160801b03199093169316929092171781556040909201516001928301558154829190610912908390610a78565b90915550506001548103610785575b610782425b60065481116109325750565b6000610940601f600c610b3d565b61094d9062015180610b3d565b61095961040080610b3d565b61096590610400610b3d565b670de0b6b3a7640000600a61097c61040080610b3d565b61098890610400610b3d565b610993906008610b3d565b6002546003546109a39190610b7e565b6006546109b09089610b7e565b6109ba9190610b3d565b6109c49190610b3d565b6109ce9190610b3d565b6109d89190610b3d565b6109e29190610b5c565b6109ec9190610b5c565b905060007f000000000000000000000000000000000000000000000000000000000000000060065484610a1f9190610b7e565b600854610a2c9190610b3d565b610a369190610b5c565b9050610a428183610a78565b60046000828254610a539190610a78565b90915550505060069190915550565b634e487b7160e01b600052601160045260246000fd5b80820180821115610a8b57610a8b610a62565b92915050565b600060208284031215610aa357600080fd5b5035919050565b60008060408385031215610abd57600080fd5b50508035926020909101359150565b6001600160a01b038116811461078257600080fd5b600080600060608486031215610af657600080fd5b833592506020840135610b0881610acc565b929592945050506040919091013590565b600060208284031215610b2b57600080fd5b8151610b3681610acc565b9392505050565b6000816000190483118215151615610b5757610b57610a62565b500290565b600082610b7957634e487b7160e01b600052601260045260246000fd5b500490565b81810381811115610a8b57610a8b610a62565b634e487b7160e01b600052603260045260246000fdfea2646970667358221220374108878f902bcab05c99159fe299c416622bb9e656b61251ec59eb97fd2cf564736f6c63430008100033",
  "linkReferences": {},
  "deployedLinkReferences": {}
}