{
  "_format": "hh-sol-artifact-1",
  "contractName": "PauseControl",
  "sourceName": "contracts/security/PauseControl.sol",
  "abi": [
    {
      "anonymous": false,
      "inputs": [
        {
          "indexed": false,
          "internalType": "address",
          "name": "account",
          "type": "address"
        }
      ],
      "name": "Paused",
      "type": "event"
    },
    {
      "anonymous": false,
      "inputs": [
        {
          "indexed": true,
          "internalType": "bytes32",
          "name": "role",
          "type": "bytes32"
        },
        {
          "indexed": true,
          "internalType": "bytes32",
          "name": "previousAdminRole",
          "type": "bytes32"
        },
        {
          "indexed": true,
          "internalType": "bytes32",
          "name": "newAdminRole",
          "type": "bytes32"
        }
      ],
      "name": "RoleAdminChanged",
      "type": "event"
    },
    {
      "anonymous": false,
      "inputs": [
        {
          "indexed": true,
          "internalType": "bytes32",
          "name": "role",
          "type": "bytes32"
        },
        {
          "indexed": true,
          "internalType": "address",
          "name": "account",
          "type": "address"
        },
        {
          "indexed": true,
          "internalType": "address",
          "name": "sender",
          "type": "address"
        }
      ],
      "name": "RoleGranted",
      "type": "event"
    },
    {
      "anonymous": false,
      "inputs": [
        {
          "indexed": true,
          "internalType": "bytes32",
          "name": "role",
          "type": "bytes32"
        },
        {
          "indexed": true,
          "internalType": "address",
          "name": "account",
          "type": "address"
        },
        {
          "indexed": true,
          "internalType": "address",
          "name": "sender",
          "type": "address"
        }
      ],
      "name": "RoleRevoked",
      "type": "event"
    },
    {
      "anonymous": false,
      "inputs": [
        {
          "indexed": false,
          "internalType": "address",
          "name": "account",
          "type": "address"
        }
      ],
      "name": "Unpaused",
      "type": "event"
    },
    {
      "inputs": [],
      "name": "DEFAULT_ADMIN_ROLE",
      "outputs": [
        {
          "internalType": "bytes32",
          "name": "",
          "type": "bytes32"
        }
      ],
      "stateMutability": "view",
      "type": "function"
    },
    {
      "inputs": [],
      "name": "PAUSER_ROLE",
      "outputs": [
        {
          "internalType": "bytes32",
          "name": "",
          "type": "bytes32"
        }
      ],
      "stateMutability": "view",
      "type": "function"
    },
    {
      "inputs": [
        {
          "internalType": "bytes32",
          "name": "role",
          "type": "bytes32"
        }
      ],
      "name": "getRoleAdmin",
      "outputs": [
        {
          "internalType": "bytes32",
          "name": "",
          "type": "bytes32"
        }
      ],
      "stateMutability": "view",
      "type": "function"
    },
    {
      "inputs": [
        {
          "internalType": "bytes32",
          "name": "role",
          "type": "bytes32"
        },
        {
          "internalType": "uint256",
          "name": "index",
          "type": "uint256"
        }
      ],
      "name": "getRoleMember",
      "outputs": [
        {
          "internalType": "address",
          "name": "",
          "type": "address"
        }
      ],
      "stateMutability": "view",
      "type": "function"
    },
    {
      "inputs": [
        {
          "internalType": "bytes32",
          "name": "role",
          "type": "bytes32"
        }
      ],
      "name": "getRoleMemberCount",
      "outputs": [
        {
          "internalType": "uint256",
          "name": "",
          "type": "uint256"
        }
      ],
      "stateMutability": "view",
      "type": "function"
    },
    {
      "inputs": [
        {
          "internalType": "bytes32",
          "name": "role",
          "type": "bytes32"
        },
        {
          "internalType": "address",
          "name": "account",
          "type": "address"
        }
      ],
      "name": "grantRole",
      "outputs": [],
      "stateMutability": "nonpayable",
      "type": "function"
    },
    {
      "inputs": [
        {
          "internalType": "bytes32",
          "name": "role",
          "type": "bytes32"
        },
        {
          "internalType": "address",
          "name": "account",
          "type": "address"
        }
      ],
      "name": "hasRole",
      "outputs": [
        {
          "internalType": "bool",
          "name": "",
          "type": "bool"
        }
      ],
      "stateMutability": "view",
      "type": "function"
    },
    {
      "inputs": [],
      "name": "pause",
      "outputs": [],
      "stateMutability": "nonpayable",
      "type": "function"
    },
    {
      "inputs": [],
      "name": "paused",
      "outputs": [
        {
          "internalType": "bool",
          "name": "",
          "type": "bool"
        }
      ],
      "stateMutability": "view",
      "type": "function"
    },
    {
      "inputs": [
        {
          "internalType": "bytes32",
          "name": "role",
          "type": "bytes32"
        },
        {
          "internalType": "address",
          "name": "account",
          "type": "address"
        }
      ],
      "name": "renounceRole",
      "outputs": [],
      "stateMutability": "nonpayable",
      "type": "function"
    },
    {
      "inputs": [
        {
          "internalType": "bytes32",
          "name": "role",
          "type": "bytes32"
        },
        {
          "internalType": "address",
          "name": "account",
          "type": "address"
        }
      ],
      "name": "revokeRole",
      "outputs": [],
      "stateMutability": "nonpayable",
      "type": "function"
    },
    {
      "inputs": [
        {
          "internalType": "bytes4",
          "name": "interfaceId",
          "type": "bytes4"
        }
      ],
      "name": "supportsInterface",
      "outputs": [
        {
          "internalType": "bool",
          "name": "",
          "type": "bool"
        }
      ],
      "stateMutability": "view",
      "type": "function"
    },
    {
      "inputs": [],
      "name": "unpause",
      "outputs": [],
      "stateMutability": "nonpayable",
      "type": "function"
    }
  ],
  "bytecode": "0x608060405234801561001057600080fd5b506000805460ff19169055610c4a8061002a6000396000f3fe608060405234801561001057600080fd5b50600436106100cf5760003560e01c80638456cb591161008c578063a217fddf11610066578063a217fddf146101af578063ca15c873146101b7578063d547741f146101ca578063e63ab1e9146101dd57600080fd5b80638456cb59146101695780639010d07c1461017157806391d148541461019c57600080fd5b806301ffc9a7146100d4578063248a9ca3146100fc5780632f2ff15d1461012e57806336568abe146101435780633f4ba83a146101565780635c975abb1461015e575b600080fd5b6100e76100e23660046109f3565b610204565b60405190151581526020015b60405180910390f35b61012061010a366004610a1d565b6000908152600160208190526040909120015490565b6040519081526020016100f3565b61014161013c366004610a36565b61022f565b005b610141610151366004610a36565b61025a565b6101416102dd565b60005460ff166100e7565b610141610312565b61018461017f366004610a72565b610344565b6040516001600160a01b0390911681526020016100f3565b6100e76101aa366004610a36565b610363565b610120600081565b6101206101c5366004610a1d565b61038e565b6101416101d8366004610a36565b6103a5565b6101207f65d7a28e3265b37a6474929f336521b332c1681b933f6cb9f3376673440d862a81565b60006001600160e01b03198216635a05180f60e01b14806102295750610229826103cb565b92915050565b6000828152600160208190526040909120015461024b81610400565b610255838361040a565b505050565b6001600160a01b03811633146102cf5760405162461bcd60e51b815260206004820152602f60248201527f416363657373436f6e74726f6c3a2063616e206f6e6c792072656e6f756e636560448201526e103937b632b9903337b91039b2b63360891b60648201526084015b60405180910390fd5b6102d9828261042c565b5050565b7f65d7a28e3265b37a6474929f336521b332c1681b933f6cb9f3376673440d862a61030781610400565b61030f61044e565b50565b7f65d7a28e3265b37a6474929f336521b332c1681b933f6cb9f3376673440d862a61033c81610400565b61030f6104a0565b600082815260026020526040812061035c90836104dd565b9392505050565b60009182526001602090815260408084206001600160a01b0393909316845291905290205460ff1690565b6000818152600260205260408120610229906104e9565b600082815260016020819052604090912001546103c181610400565b610255838361042c565b60006001600160e01b03198216637965db0b60e01b148061022957506301ffc9a760e01b6001600160e01b0319831614610229565b61030f81336104f3565b610414828261054c565b600082815260026020526040902061025590826105b7565b61043682826105cc565b60008281526002602052604090206102559082610633565b610456610648565b6000805460ff191690557f5db9ee0a495bf2e6ff9c91a7834c1ba4fdd244a5e8aa4e537bd38aeae4b073aa335b6040516001600160a01b03909116815260200160405180910390a1565b6104a8610693565b6000805460ff191660011790557f62e78cea01bee320cd4e420270b5ea74000d11b0c9f74754ebdbfc544b05a2586104833390565b600061035c83836106d9565b6000610229825490565b6104fd8282610363565b6102d95761050a81610703565b610515836020610715565b604051602001610526929190610ab8565b60408051601f198184030181529082905262461bcd60e51b82526102c691600401610b2d565b6105568282610363565b6102d95760008281526001602081815260408084206001600160a01b0386168086529252808420805460ff19169093179092559051339285917f2f8788117e7eff1d82e926ec794901d17c78024a50270940304540a733656f0d9190a45050565b600061035c836001600160a01b0384166108b1565b6105d68282610363565b156102d95760008281526001602090815260408083206001600160a01b0385168085529252808320805460ff1916905551339285917ff6391f5c32d9c69d2a47ea670b442974b53935d1edc7fd64eb21e047a839171b9190a45050565b600061035c836001600160a01b038416610900565b60005460ff166106915760405162461bcd60e51b815260206004820152601460248201527314185d5cd8589b194e881b9bdd081c185d5cd95960621b60448201526064016102c6565b565b60005460ff16156106915760405162461bcd60e51b815260206004820152601060248201526f14185d5cd8589b194e881c185d5cd95960821b60448201526064016102c6565b60008260000182815481106106f0576106f0610b60565b9060005260206000200154905092915050565b60606102296001600160a01b03831660145b60606000610724836002610b8c565b61072f906002610bab565b67ffffffffffffffff81111561074757610747610bbe565b6040519080825280601f01601f191660200182016040528015610771576020820181803683370190505b509050600360fc1b8160008151811061078c5761078c610b60565b60200101906001600160f81b031916908160001a905350600f60fb1b816001815181106107bb576107bb610b60565b60200101906001600160f81b031916908160001a90535060006107df846002610b8c565b6107ea906001610bab565b90505b6001811115610862576f181899199a1a9b1b9c1cb0b131b232b360811b85600f166010811061081e5761081e610b60565b1a60f81b82828151811061083457610834610b60565b60200101906001600160f81b031916908160001a90535060049490941c9361085b81610bd4565b90506107ed565b50831561035c5760405162461bcd60e51b815260206004820181905260248201527f537472696e67733a20686578206c656e67746820696e73756666696369656e7460448201526064016102c6565b60008181526001830160205260408120546108f857508154600181810184556000848152602080822090930184905584548482528286019093526040902091909155610229565b506000610229565b600081815260018301602052604081205480156109e9576000610924600183610beb565b855490915060009061093890600190610beb565b905081811461099d57600086600001828154811061095857610958610b60565b906000526020600020015490508087600001848154811061097b5761097b610b60565b6000918252602080832090910192909255918252600188019052604090208390555b85548690806109ae576109ae610bfe565b600190038181906000526020600020016000905590558560010160008681526020019081526020016000206000905560019350505050610229565b6000915050610229565b600060208284031215610a0557600080fd5b81356001600160e01b03198116811461035c57600080fd5b600060208284031215610a2f57600080fd5b5035919050565b60008060408385031215610a4957600080fd5b8235915060208301356001600160a01b0381168114610a6757600080fd5b809150509250929050565b60008060408385031215610a8557600080fd5b50508035926020909101359150565b60005b83811015610aaf578181015183820152602001610a97565b50506000910152565b7f416363657373436f6e74726f6c3a206163636f756e7420000000000000000000815260008351610af0816017850160208801610a94565b7001034b99036b4b9b9b4b733903937b6329607d1b6017918401918201528351610b21816028840160208801610a94565b01602801949350505050565b6020815260008251806020840152610b4c816040850160208701610a94565b601f01601f19169190910160400192915050565b634e487b7160e01b600052603260045260246000fd5b634e487b7160e01b600052601160045260246000fd5b6000816000190483118215151615610ba657610ba6610b76565b500290565b8082018082111561022957610229610b76565b634e487b7160e01b600052604160045260246000fd5b600081610be357610be3610b76565b506000190190565b8181038181111561022957610229610b76565b634e487b7160e01b600052603160045260246000fdfea26469706673582212205c26e0555d0bd79089d317da49ecea5523d23058826f54e87e6176ba0d4a401664736f6c63430008100033",
  "linkReferences": {},
  "deployedLinkReferences": {}
}