{
  "_format": "hh-sol-artifact-1",
  "contractName": "ChunkReward",
  "sourceName": "contracts/reward/ChunkReward.sol",
  "abi": [
    {
      "inputs": [
        {
          "internalType": "address",
          "name": "_book",
          "type": "address"
        }
      ],
      "stateMutability": "nonpayable",
      "type": "constructor"
    },
    {
      "inputs": [],
      "name": "book",
      "outputs": [
        {
          "internalType": "contract AddressBook",
          "name": "",
          "type": "address"
        }
      ],
      "stateMutability": "view",
      "type": "function"
    },
    {
      "inputs": [
        {
          "internalType": "uint256",
          "name": "pricingIndex",
          "type": "uint256"
        },
        {
          "internalType": "address payable",
          "name": "beneficiary",
          "type": "address"
        }
      ],
      "name": "claimMineReward",
      "outputs": [],
      "stateMutability": "nonpayable",
      "type": "function"
    },
    {
      "inputs": [
        {
          "internalType": "uint256",
          "name": "beforeLength",
          "type": "uint256"
        },
        {
          "internalType": "uint256",
          "name": "chargedSectors",
          "type": "uint256"
        }
      ],
      "name": "fillReward",
      "outputs": [],
      "stateMutability": "payable",
      "type": "function"
    },
    {
      "inputs": [
        {
          "internalType": "uint256",
          "name": "",
          "type": "uint256"
        }
      ],
      "name": "rewards",
      "outputs": [
        {
          "internalType": "uint104",
          "name": "lockedReward",
          "type": "uint104"
        },
        {
          "internalType": "uint104",
          "name": "claimableReward",
          "type": "uint104"
        },
        {
          "internalType": "uint48",
          "name": "timestamp",
          "type": "uint48"
        }
      ],
      "stateMutability": "view",
      "type": "function"
    }
  ],
  "bytecode": "0x60a060405234801561001057600080fd5b50604051610f41380380610f4183398101604081905261002f91610040565b6001600160a01b0316608052610070565b60006020828403121561005257600080fd5b81516001600160a01b038116811461006957600080fd5b9392505050565b608051610ea96100986000396000818160560152818161014d01526105bc0152610ea96000f3fe60806040526004361061003f5760003560e01c806305a8da721461004457806359e9670014610095578063ccec92c4146100aa578063f301af42146100ca575b600080fd5b34801561005057600080fd5b506100787f000000000000000000000000000000000000000000000000000000000000000081565b6040516001600160a01b0390911681526020015b60405180910390f35b6100a86100a3366004610c8b565b61014b565b005b3480156100b657600080fd5b506100a86100c5366004610cc5565b6105ba565b3480156100d657600080fd5b5061011d6100e5366004610cf5565b6000602081905290815260409020546001600160681b0380821691600160681b810490911690600160d01b900465ffffffffffff1683565b604080516001600160681b03948516815293909216602084015265ffffffffffff169082015260600161008c565b7f00000000000000000000000000000000000000000000000000000000000000006001600160a01b03166380f556056040518163ffffffff1660e01b8152600401602060405180830381865afa1580156101a9573d6000803e3d6000fd5b505050506040513d601f19601f820116820180604052508101906101cd9190610d0e565b6001600160a01b0316336001600160a01b0316146102325760405162461bcd60e51b815260206004820152601f60248201527f53656e64657220646f6573206e6f742068617665207065726d697373696f6e0060448201526064015b60405180910390fd5b8060008161010061024561040080610d48565b61025190610400610d48565b61025c906008610d48565b6102669190610d7d565b6102709034610d48565b61027a9190610d7d565b905060006102888386610d91565b9050600061010061029b61040080610d48565b6102a790610400610d48565b6102b2906008610d48565b6102bc9190610d7d565b6102c69087610daa565b6101006102d561040080610d48565b6102e190610400610d48565b6102ec906008610d48565b6102f69190610d7d565b6103009190610dbe565b90506000600161010061031561040080610d48565b61032190610400610d48565b61032c906008610d48565b6103369190610d7d565b610340848a610d91565b61034a9190610d7d565b6103549190610dbe565b9050600061010061036761040080610d48565b61037390610400610d48565b61037e906008610d48565b6103889190610d7d565b610393600186610dbe565b61039d9190610daa565b6103a8906001610d91565b905060006101006103bb61040080610d48565b6103c790610400610d48565b6103d2906008610d48565b6103dc9190610d7d565b6103e68387610dbe565b6103f09190610d7d565b9050600061010061040361040080610d48565b61040f90610400610d48565b61041a906008610d48565b6104249190610d7d565b61042f836001610d91565b6104399190610d48565b861490508184036104af576104aa61010061045661040080610d48565b61046290610400610d48565b61046d906008610d48565b6104779190610d7d565b6104818c89610dbe565b61048b908a610d48565b6104959190610d7d565b600086815260208190526040902090836106f8565b6105ae565b61050c6101006104c161040080610d48565b6104cd90610400610d48565b6104d8906008610d48565b6104e29190610d7d565b6104ec878a610d48565b6104f69190610d7d565b60008681526020819052604090209060016106f8565b61056861010061051e61040080610d48565b61052a90610400610d48565b610535906008610d48565b61053f9190610d7d565b610549858a610d48565b6105539190610d7d565b600084815260208190526040902090836106f8565b6000610575856001610d91565b90505b828110156105ac57600081815260208190526040902061059a908960016106f8565b806105a481610dd1565b915050610578565b505b50505050505050505050565b7f00000000000000000000000000000000000000000000000000000000000000006001600160a01b03166399f4b2516040518163ffffffff1660e01b8152600401602060405180830381865afa158015610618573d6000803e3d6000fd5b505050506040513d601f19601f8201168201806040525081019061063c9190610d0e565b6001600160a01b0316336001600160a01b03161461069c5760405162461bcd60e51b815260206004820152601f60248201527f53656e64657220646f6573206e6f742068617665207065726d697373696f6e006044820152606401610229565b60008281526020819052604081206106b390610807565b905080156106f3576040516001600160a01b0383169082156108fc029083906000818181858888f193505050501580156106f1573d6000803e3d6000fd5b505b505050565b6001600160681b038211156107415760405162461bcd60e51b815260206004820152600f60248201526e526577617264206f766572666c6f7760881b6044820152606401610229565b8254600160d01b900465ffffffffffff161561079f5760405162461bcd60e51b815260206004820152601960248201527f52657761726420686173206265656e2066696e616c697a6564000000000000006044820152606401610229565b8254829084906000906107bc9084906001600160681b0316610dea565b92506101000a8154816001600160681b0302191690836001600160681b0316021790555080156106f357505080546001600160d01b0316600160d01b4265ffffffffffff1602179055565b8054600090600160d01b900465ffffffffffff16810361082957506000919050565b815460009061084790600160d01b900465ffffffffffff1642610dbe565b610853906103e8610d48565b90506000606461086861016d62015180610d48565b610874906103e8610d48565b68010000000000000000610899700171547652b82fe1777d0ffda0d23a7d1186610d48565b6108a4906004610d48565b6108ae9190610d7d565b6108b89190610d7d565b6108c29190610d7d565b905060006108cf82610a29565b6108dd90600160601b610dbe565b8554909150600090600160601b906108fe906001600160681b031684610d48565b6109089190610d7d565b8654909150819087906000906109289084906001600160681b0316610e11565b92506101000a8154816001600160681b0302191690836001600160681b031602179055508086600001600d8282829054906101000a90046001600160681b03166109729190610dea565b82546101009290920a6001600160681b0381810219909316918316021790915587546001600160d01b0316600160d01b4265ffffffffffff160217808955600092506109c891600291600160681b900416610e31565b875490915081908890600d906109ef908490600160681b90046001600160681b0316610e11565b92506101000a8154816001600160681b0302191690836001600160681b03160217905550806001600160681b031695505050505050919050565b6000663fffffffffffff821667ffc00000000000008316604084901c83610a57610a5285610e57565b610be8565b90506640000000000000831615610a7e576fffd3a751c0f7e10bd3b9f8ae012fbe060260801c5b6680000000000000831615610aa3576fffa756521c8daed19f3a1b48fb94c5890260801c5b670100000000000000831615610ac9576fff4ecb59511ec8a5301ba217ef18dd7c0260801c5b670200000000000000831615610aef576ffe9e115c7b8f884badd25995e79d2f090260801c5b670400000000000000831615610b15576ffd3e0c0cf486c174853f3a5931e0ee030260801c5b670800000000000000831615610b3b576ffa83b2db722a033a7c25bb14315d7fcc0260801c5b671000000000000000831615610b61576ff5257d152486cc2c7b9d0c7aed980fc30260801c5b672000000000000000831615610b87576feac0c6e7dd24392ed02d75b3706e54fa0260801c5b674000000000000000831615610bad576fd744fccad69d6af439a68bb9902d3fde0260801c5b678000000000000000831615610bd3576fb504f333f9de6484597d89b3754abe9f0260801c5b610bde82601f610d91565b1c95945050505050565b600081600003610bfd57506001607f1b919050565b603f82901b808002607f90811d90818302811d90818402811d906f7afef7fe0b163aa1bc5ac1bb25cd7f2a840260801d6fb17217f7d1cf79abc9e3b39803f2f6af8602821d01600160801b01906006906f55411a850de23ea19af62831983789cb8502901d050160186f3b18024f2eeb657d6633a21fbcc04f158302607f1d050160011c9695505050505050565b60008060408385031215610c9e57600080fd5b50508035926020909101359150565b6001600160a01b0381168114610cc257600080fd5b50565b60008060408385031215610cd857600080fd5b823591506020830135610cea81610cad565b809150509250929050565b600060208284031215610d0757600080fd5b5035919050565b600060208284031215610d2057600080fd5b8151610d2b81610cad565b9392505050565b634e487b7160e01b600052601160045260246000fd5b6000816000190483118215151615610d6257610d62610d32565b500290565b634e487b7160e01b600052601260045260246000fd5b600082610d8c57610d8c610d67565b500490565b80820180821115610da457610da4610d32565b92915050565b600082610db957610db9610d67565b500690565b81810381811115610da457610da4610d32565b600060018201610de357610de3610d32565b5060010190565b6001600160681b03818116838216019080821115610e0a57610e0a610d32565b5092915050565b6001600160681b03828116828216039080821115610e0a57610e0a610d32565b60006001600160681b0380841680610e4b57610e4b610d67565b92169190910492915050565b6000600160ff1b8201610e6c57610e6c610d32565b506000039056fea26469706673582212201fa01422ec4e2b98ebef3e341b23053aff7f3711e9af07927ee3d7d73090926d64736f6c63430008100033",
  "linkReferences": {},
  "deployedLinkReferences": {}
}