{"contracts/interfaces/AddressBook.sol":{"DummyReward":{"abi":[{"anonymous":false,"inputs":[{"indexed":true,"internalType":"uint256","name":"pricingIndex","type":"uint256"},{"indexed":true,"internalType":"address","name":"beneficiary","type":"address"},{"indexed":false,"internalType":"uint256","name":"amount","type":"uint256"}],"name":"DistributeReward","type":"event"},{"inputs":[{"internalType":"uint256","name":"pricingIndex","type":"uint256"},{"internalType":"address payable","name":"beneficiary","type":"address"}],"name":"claimMineReward","outputs":[],"stateMutability":"nonpayable","type":"function"},{"inputs":[{"internalType":"uint256","name":"beforeLength","type":"uint256"},{"internalType":"uint256","name":"uploadSectors","type":"uint256"}],"name":"fillReward","outputs":[],"stateMutability":"payable","type":"function"}],"evm":{"bytecode":{"linkReferences":{},"object":"608060405234801561001057600080fd5b5060e48061001f6000396000f3fe60806040526004361060265760003560e01c806359e9670014602b578063ccec92c414603c575b600080fd5b603a60363660046053565b5050565b005b348015604757600080fd5b50603a60363660046074565b60008060408385031215606557600080fd5b50508035926020909101359150565b60008060408385031215608657600080fd5b8235915060208301356001600160a01b038116811460a357600080fd5b80915050925092905056fea26469706673582212204878ebc6765ee96ecba856baef0ce9e03dc61c80d608728c9c6ebfb77914354664736f6c63430008100033","opcodes":"PUSH1 0x80 PUSH1 0x40 MSTORE CALLVALUE DUP1 ISZERO PUSH2 0x10 JUMPI PUSH1 0x0 DUP1 REVERT JUMPDEST POP PUSH1 0xE4 DUP1 PUSH2 0x1F PUSH1 0x0 CODECOPY PUSH1 0x0 RETURN INVALID PUSH1 0x80 PUSH1 0x40 MSTORE PUSH1 0x4 CALLDATASIZE LT PUSH1 0x26 JUMPI PUSH1 0x0 CALLDATALOAD PUSH1 0xE0 SHR DUP1 PUSH4 0x59E96700 EQ PUSH1 0x2B JUMPI DUP1 PUSH4 0xCCEC92C4 EQ PUSH1 0x3C JUMPI JUMPDEST PUSH1 0x0 DUP1 REVERT JUMPDEST PUSH1 0x3A PUSH1 0x36 CALLDATASIZE PUSH1 0x4 PUSH1 0x53 JUMP JUMPDEST POP POP JUMP JUMPDEST STOP JUMPDEST CALLVALUE DUP1 ISZERO PUSH1 0x47 JUMPI PUSH1 0x0 DUP1 REVERT JUMPDEST POP PUSH1 0x3A PUSH1 0x36 CALLDATASIZE PUSH1 0x4 PUSH1 0x74 JUMP JUMPDEST PUSH1 0x0 DUP1 PUSH1 0x40 DUP4 DUP6 SUB SLT ISZERO PUSH1 0x65 JUMPI PUSH1 0x0 DUP1 REVERT JUMPDEST POP POP DUP1 CALLDATALOAD SWAP3 PUSH1 0x20 SWAP1 SWAP2 ADD CALLDATALOAD SWAP2 POP JUMP JUMPDEST PUSH1 0x0 DUP1 PUSH1 0x40 DUP4 DUP6 SUB SLT ISZERO PUSH1 0x86 JUMPI PUSH1 0x0 DUP1 REVERT JUMPDEST DUP3 CALLDATALOAD SWAP2 POP PUSH1 0x20 DUP4 ADD CALLDATALOAD PUSH1 0x1 PUSH1 0x1 PUSH1 0xA0 SHL SUB DUP2 AND DUP2 EQ PUSH1 0xA3 JUMPI PUSH1 0x0 DUP1 REVERT JUMPDEST DUP1 SWAP2 POP POP SWAP3 POP SWAP3 SWAP1 POP JUMP INVALID LOG2 PUSH5 0x6970667358 0x22 SLT KECCAK256 BASEFEE PUSH25 0xEBC6765EE96ECBA856BAEF0CE9E03DC61C80D608728C9C6EBF 0xB7 PUSH26 0x14354664736F6C63430008100033000000000000000000000000 "},"methodIdentifiers":{"claimMineReward(uint256,address)":"ccec92c4","fillReward(uint256,uint256)":"59e96700"}}}}}