{"contracts/interfaces/AddressBook.sol":{"AddressBook":{"abi":[{"inputs":[{"internalType":"address","name":"flow_","type":"address"},{"internalType":"address","name":"market_","type":"address"},{"internalType":"address","name":"reward_","type":"address"},{"internalType":"address","name":"mine_","type":"address"}],"stateMutability":"nonpayable","type":"constructor"},{"inputs":[],"name":"flow","outputs":[{"internalType":"contract IFlow","name":"","type":"address"}],"stateMutability":"view","type":"function"},{"inputs":[],"name":"market","outputs":[{"internalType":"contract IMarket","name":"","type":"address"}],"stateMutability":"view","type":"function"},{"inputs":[],"name":"mine","outputs":[{"internalType":"address","name":"","type":"address"}],"stateMutability":"view","type":"function"},{"inputs":[],"name":"reward","outputs":[{"internalType":"contract IReward","name":"","type":"address"}],"stateMutability":"view","type":"function"}],"evm":{"bytecode":{"linkReferences":{},"object":"61010060405234801561001157600080fd5b50604051610488380380610488833981016040819052610030916100ff565b6001600160a01b0380851660c052831661007057604051610050906100ca565b604051809103906000f08015801561006c573d6000803e3d6000fd5b5092505b6001600160a01b0380841660805282166100b057604051610090906100d6565b604051809103906000f0801580156100ac573d6000803e3d6000fd5b5091505b6001600160a01b0391821660a0521660e052506101539050565b60be806102c783390190565b6101038061038583390190565b80516001600160a01b03811681146100fa57600080fd5b919050565b6000806000806080858703121561011557600080fd5b61011e856100e3565b935061012c602086016100e3565b925061013a604086016100e3565b9150610148606086016100e3565b905092959194509250565b60805160a05160c05160e05161013f610188600039600060e70152600060990152600060560152600060c0015261013f6000f3fe608060405234801561001057600080fd5b506004361061004c5760003560e01c8063228cb73314610051578063343aad821461009457806380f55605146100bb57806399f4b251146100e2575b600080fd5b6100787f000000000000000000000000000000000000000000000000000000000000000081565b6040516001600160a01b03909116815260200160405180910390f35b6100787f000000000000000000000000000000000000000000000000000000000000000081565b6100787f000000000000000000000000000000000000000000000000000000000000000081565b6100787f00000000000000000000000000000000000000000000000000000000000000008156fea2646970667358221220491e1a6d36286351622c01e9d4329ce314599cc35c2e7bde4eb67360e1ee64fe64736f6c634300081000336080604052348015600f57600080fd5b5060a08061001e6000396000f3fe6080604052348015600f57600080fd5b506004361060285760003560e01c8063da6eb36a14602d575b600080fd5b603d6038366004603f565b505050565b005b600080600060608486031215605357600080fd5b50508135936020830135935060409092013591905056fea2646970667358221220d9d35219df3ca422aabb059198b0d366d158b93e0f248f03c5b44d058c151da964736f6c63430008100033608060405234801561001057600080fd5b5060e48061001f6000396000f3fe60806040526004361060265760003560e01c806359e9670014602b578063ccec92c414603c575b600080fd5b603a60363660046053565b5050565b005b348015604757600080fd5b50603a60363660046074565b60008060408385031215606557600080fd5b50508035926020909101359150565b60008060408385031215608657600080fd5b8235915060208301356001600160a01b038116811460a357600080fd5b80915050925092905056fea26469706673582212204878ebc6765ee96ecba856baef0ce9e03dc61c80d608728c9c6ebfb77914354664736f6c63430008100033","opcodes":"PUSH2 0x100 PUSH1 0x40 MSTORE CALLVALUE DUP1 ISZERO PUSH2 0x11 JUMPI PUSH1 0x0 DUP1 REVERT JUMPDEST POP PUSH1 0x40 MLOAD PUSH2 0x488 CODESIZE SUB DUP1 PUSH2 0x488 DUP4 CODECOPY DUP2 ADD PUSH1 0x40 DUP2 SWAP1 MSTORE PUSH2 0x30 SWAP2 PUSH2 0xFF JUMP JUMPDEST PUSH1 0x1 PUSH1 0x1 PUSH1 0xA0 SHL SUB DUP1 DUP6 AND PUSH1 0xC0 MSTORE DUP4 AND PUSH2 0x70 JUMPI PUSH1 0x40 MLOAD PUSH2 0x50 SWAP1 PUSH2 0xCA JUMP JUMPDEST PUSH1 0x40 MLOAD DUP1 SWAP2 SUB SWAP1 PUSH1 0x0 CREATE DUP1 ISZERO DUP1 ISZERO PUSH2 0x6C JUMPI RETURNDATASIZE PUSH1 0x0 DUP1 RETURNDATACOPY RETURNDATASIZE PUSH1 0x0 REVERT JUMPDEST POP SWAP3 POP JUMPDEST PUSH1 0x1 PUSH1 0x1 PUSH1 0xA0 SHL SUB DUP1 DUP5 AND PUSH1 0x80 MSTORE DUP3 AND PUSH2 0xB0 JUMPI PUSH1 0x40 MLOAD PUSH2 0x90 SWAP1 PUSH2 0xD6 JUMP JUMPDEST PUSH1 0x40 MLOAD DUP1 SWAP2 SUB SWAP1 PUSH1 0x0 CREATE DUP1 ISZERO DUP1 ISZERO PUSH2 0xAC JUMPI RETURNDATASIZE PUSH1 0x0 DUP1 RETURNDATACOPY RETURNDATASIZE PUSH1 0x0 REVERT JUMPDEST POP SWAP2 POP JUMPDEST PUSH1 0x1 PUSH1 0x1 PUSH1 0xA0 SHL SUB SWAP2 DUP3 AND PUSH1 0xA0 MSTORE AND PUSH1 0xE0 MSTORE POP PUSH2 0x153 SWAP1 POP JUMP JUMPDEST PUSH1 0xBE DUP1 PUSH2 0x2C7 DUP4 CODECOPY ADD SWAP1 JUMP JUMPDEST PUSH2 0x103 DUP1 PUSH2 0x385 DUP4 CODECOPY ADD SWAP1 JUMP JUMPDEST DUP1 MLOAD PUSH1 0x1 PUSH1 0x1 PUSH1 0xA0 SHL SUB DUP2 AND DUP2 EQ PUSH2 0xFA JUMPI PUSH1 0x0 DUP1 REVERT JUMPDEST SWAP2 SWAP1 POP JUMP JUMPDEST PUSH1 0x0 DUP1 PUSH1 0x0 DUP1 PUSH1 0x80 DUP6 DUP8 SUB SLT ISZERO PUSH2 0x115 JUMPI PUSH1 0x0 DUP1 REVERT JUMPDEST PUSH2 0x11E DUP6 PUSH2 0xE3 JUMP JUMPDEST SWAP4 POP PUSH2 0x12C PUSH1 0x20 DUP7 ADD PUSH2 0xE3 JUMP JUMPDEST SWAP3 POP PUSH2 0x13A PUSH1 0x40 DUP7 ADD PUSH2 0xE3 JUMP JUMPDEST SWAP2 POP PUSH2 0x148 PUSH1 0x60 DUP7 ADD PUSH2 0xE3 JUMP JUMPDEST SWAP1 POP SWAP3 SWAP6 SWAP2 SWAP5 POP SWAP3 POP JUMP JUMPDEST PUSH1 0x80 MLOAD PUSH1 0xA0 MLOAD PUSH1 0xC0 MLOAD PUSH1 0xE0 MLOAD PUSH2 0x13F PUSH2 0x188 PUSH1 0x0 CODECOPY PUSH1 0x0 PUSH1 0xE7 ADD MSTORE PUSH1 0x0 PUSH1 0x99 ADD MSTORE PUSH1 0x0 PUSH1 0x56 ADD MSTORE PUSH1 0x0 PUSH1 0xC0 ADD MSTORE PUSH2 0x13F PUSH1 0x0 RETURN INVALID PUSH1 0x80 PUSH1 0x40 MSTORE CALLVALUE DUP1 ISZERO PUSH2 0x10 JUMPI PUSH1 0x0 DUP1 REVERT JUMPDEST POP PUSH1 0x4 CALLDATASIZE LT PUSH2 0x4C JUMPI PUSH1 0x0 CALLDATALOAD PUSH1 0xE0 SHR DUP1 PUSH4 0x228CB733 EQ PUSH2 0x51 JUMPI DUP1 PUSH4 0x343AAD82 EQ PUSH2 0x94 JUMPI DUP1 PUSH4 0x80F55605 EQ PUSH2 0xBB JUMPI DUP1 PUSH4 0x99F4B251 EQ PUSH2 0xE2 JUMPI JUMPDEST PUSH1 0x0 DUP1 REVERT JUMPDEST PUSH2 0x78 PUSH32 0x0 DUP2 JUMP JUMPDEST PUSH1 0x40 MLOAD PUSH1 0x1 PUSH1 0x1 PUSH1 0xA0 SHL SUB SWAP1 SWAP2 AND DUP2 MSTORE PUSH1 0x20 ADD PUSH1 0x40 MLOAD DUP1 SWAP2 SUB SWAP1 RETURN JUMPDEST PUSH2 0x78 PUSH32 0x0 DUP2 JUMP JUMPDEST PUSH2 0x78 PUSH32 0x0 DUP2 JUMP JUMPDEST PUSH2 0x78 PUSH32 0x0 DUP2 JUMP INVALID LOG2 PUSH5 0x6970667358 0x22 SLT KECCAK256 0x49 0x1E BYTE PUSH14 0x36286351622C01E9D4329CE31459 SWAP13 0xC3 0x5C 0x2E PUSH28 0xDE4EB67360E1EE64FE64736F6C634300081000336080604052348015 PUSH1 0xF JUMPI PUSH1 0x0 DUP1 REVERT JUMPDEST POP PUSH1 0xA0 DUP1 PUSH2 0x1E PUSH1 0x0 CODECOPY PUSH1 0x0 RETURN INVALID PUSH1 0x80 PUSH1 0x40 MSTORE CALLVALUE DUP1 ISZERO PUSH1 0xF JUMPI PUSH1 0x0 DUP1 REVERT JUMPDEST POP PUSH1 0x4 CALLDATASIZE LT PUSH1 0x28 JUMPI PUSH1 0x0 CALLDATALOAD PUSH1 0xE0 SHR DUP1 PUSH4 0xDA6EB36A EQ PUSH1 0x2D JUMPI JUMPDEST PUSH1 0x0 DUP1 REVERT JUMPDEST PUSH1 0x3D PUSH1 0x38 CALLDATASIZE PUSH1 0x4 PUSH1 0x3F JUMP JUMPDEST POP POP POP JUMP JUMPDEST STOP JUMPDEST PUSH1 0x0 DUP1 PUSH1 0x0 PUSH1 0x60 DUP5 DUP7 SUB SLT ISZERO PUSH1 0x53 JUMPI PUSH1 0x0 DUP1 REVERT JUMPDEST POP POP DUP2 CALLDATALOAD SWAP4 PUSH1 0x20 DUP4 ADD CALLDATALOAD SWAP4 POP PUSH1 0x40 SWAP1 SWAP3 ADD CALLDATALOAD SWAP2 SWAP1 POP JUMP INVALID LOG2 PUSH5 0x6970667358 0x22 SLT KECCAK256 0xD9 0xD3 MSTORE NOT 0xDF EXTCODECOPY LOG4 0x22 0xAA 0xBB SDIV SWAP2 SWAP9 0xB0 0xD3 PUSH7 0xD158B93E0F248F SUB 0xC5 0xB4 0x4D SDIV DUP13 ISZERO SAR 0xA9 PUSH5 0x736F6C6343 STOP ADDMOD LT STOP CALLER PUSH1 0x80 PUSH1 0x40 MSTORE CALLVALUE DUP1 ISZERO PUSH2 0x10 JUMPI PUSH1 0x0 DUP1 REVERT JUMPDEST POP PUSH1 0xE4 DUP1 PUSH2 0x1F PUSH1 0x0 CODECOPY PUSH1 0x0 RETURN INVALID PUSH1 0x80 PUSH1 0x40 MSTORE PUSH1 0x4 CALLDATASIZE LT PUSH1 0x26 JUMPI PUSH1 0x0 CALLDATALOAD PUSH1 0xE0 SHR DUP1 PUSH4 0x59E96700 EQ PUSH1 0x2B JUMPI DUP1 PUSH4 0xCCEC92C4 EQ PUSH1 0x3C JUMPI JUMPDEST PUSH1 0x0 DUP1 REVERT JUMPDEST PUSH1 0x3A PUSH1 0x36 CALLDATASIZE PUSH1 0x4 PUSH1 0x53 JUMP JUMPDEST POP POP JUMP JUMPDEST STOP JUMPDEST CALLVALUE DUP1 ISZERO PUSH1 0x47 JUMPI PUSH1 0x0 DUP1 REVERT JUMPDEST POP PUSH1 0x3A PUSH1 0x36 CALLDATASIZE PUSH1 0x4 PUSH1 0x74 JUMP JUMPDEST PUSH1 0x0 DUP1 PUSH1 0x40 DUP4 DUP6 SUB SLT ISZERO PUSH1 0x65 JUMPI PUSH1 0x0 DUP1 REVERT JUMPDEST POP POP DUP1 CALLDATALOAD SWAP3 PUSH1 0x20 SWAP1 SWAP2 ADD CALLDATALOAD SWAP2 POP JUMP JUMPDEST PUSH1 0x0 DUP1 PUSH1 0x40 DUP4 DUP6 SUB SLT ISZERO PUSH1 0x86 JUMPI PUSH1 0x0 DUP1 REVERT JUMPDEST DUP3 CALLDATALOAD SWAP2 POP PUSH1 0x20 DUP4 ADD CALLDATALOAD PUSH1 0x1 PUSH1 0x1 PUSH1 0xA0 SHL SUB DUP2 AND DUP2 EQ PUSH1 0xA3 JUMPI PUSH1 0x0 DUP1 REVERT JUMPDEST DUP1 SWAP2 POP POP SWAP3 POP SWAP3 SWAP1 POP JUMP INVALID LOG2 PUSH5 0x6970667358 0x22 SLT KECCAK256 BASEFEE PUSH25 0xEBC6765EE96ECBA856BAEF0CE9E03DC61C80D608728C9C6EBF 0xB7 PUSH26 0x14354664736F6C63430008100033000000000000000000000000 "},"methodIdentifiers":{"flow()":"343aad82","market()":"80f55605","mine()":"99f4b251","reward()":"228cb733"}}}}}