{"contracts/reward/OnePoolReward.sol":{"OnePoolReward":{"abi":[{"inputs":[{"internalType":"address","name":"book_","type":"address"},{"internalType":"uint256","name":"lifetimeMonthes","type":"uint256"}],"stateMutability":"nonpayable","type":"constructor"},{"anonymous":false,"inputs":[{"indexed":true,"internalType":"uint256","name":"pricingIndex","type":"uint256"},{"indexed":true,"internalType":"address","name":"beneficiary","type":"address"},{"indexed":false,"internalType":"uint256","name":"amount","type":"uint256"}],"name":"DistributeReward","type":"event"},{"inputs":[],"name":"accumulatedReward","outputs":[{"internalType":"uint256","name":"","type":"uint256"}],"stateMutability":"view","type":"function"},{"inputs":[],"name":"activeDonation","outputs":[{"internalType":"uint256","name":"","type":"uint256"}],"stateMutability":"view","type":"function"},{"inputs":[],"name":"book","outputs":[{"internalType":"contract AddressBook","name":"","type":"address"}],"stateMutability":"view","type":"function"},{"inputs":[{"internalType":"uint256","name":"pricingIndex","type":"uint256"},{"internalType":"address payable","name":"beneficiary","type":"address"}],"name":"claimMineReward","outputs":[],"stateMutability":"nonpayable","type":"function"},{"inputs":[],"name":"claimedReward","outputs":[{"internalType":"uint256","name":"","type":"uint256"}],"stateMutability":"view","type":"function"},{"inputs":[{"internalType":"uint256","name":"beforeLength","type":"uint256"},{"internalType":"uint256","name":"rewardSectors","type":"uint256"}],"name":"fillReward","outputs":[],"stateMutability":"payable","type":"function"},{"inputs":[],"name":"firstValidChunk","outputs":[{"internalType":"uint256","name":"","type":"uint256"}],"stateMutability":"view","type":"function"},{"inputs":[],"name":"lastUpdateTimestamp","outputs":[{"internalType":"uint256","name":"","type":"uint256"}],"stateMutability":"view","type":"function"},{"inputs":[],"name":"lastValidChunk","outputs":[{"internalType":"uint256","name":"","type":"uint256"}],"stateMutability":"view","type":"function"},{"inputs":[],"name":"lifetimeInSeconds","outputs":[{"internalType":"uint256","name":"","type":"uint256"}],"stateMutability":"view","type":"function"},{"inputs":[],"name":"nextChunkDonation","outputs":[{"internalType":"uint256","name":"","type":"uint256"}],"stateMutability":"view","type":"function"},{"inputs":[],"name":"refresh","outputs":[],"stateMutability":"nonpayable","type":"function"},{"inputs":[],"name":"timeoutHead","outputs":[{"internalType":"uint256","name":"","type":"uint256"}],"stateMutability":"view","type":"function"},{"inputs":[{"internalType":"uint256","name":"","type":"uint256"}],"name":"timeoutRecords","outputs":[{"internalType":"uint64","name":"numPriceChunks","type":"uint64"},{"internalType":"uint64","name":"timeoutTimestamp","type":"uint64"},{"internalType":"uint256","name":"donation","type":"uint256"}],"stateMutability":"view","type":"function"},{"stateMutability":"payable","type":"receive"}],"evm":{"bytecode":{"linkReferences":{},"object":"60c060405234801561001057600080fd5b50604051610cdd380380610cdd83398101604081905261002f91610062565b6001600160a01b03821660805261004a601f6201518061009c565b610054908261009c565b60a0525050426006556100c9565b6000806040838503121561007557600080fd5b82516001600160a01b038116811461008c57600080fd5b6020939093015192949293505050565b60008160001904831182151516156100c457634e487b7160e01b600052601160045260246000fd5b500290565b60805160a051610bd361010a60003960008181610282015281816104cc01526109f00152600081816101170152818161032001526105c90152610bd36000f3fe6080604052600436106100e15760003560e01c806359e967001161007f57806380fad3251161005957806380fad3251461025a578063b7375ddb14610270578063ccec92c4146102a4578063f8ac93e8146102c457600080fd5b806359e96700146102195780636baff3d31461022e57806377bd602b1461024457600080fd5b806318ca1b2b116100bb57806318ca1b2b146101c157806322ee4cb8146101d757806328fedefe146101ed578063514ccef01461020357600080fd5b806305a8da72146101055780630dbbe0a21461015657806314bcec9f1461019d57600080fd5b366101005734600760008282546100f89190610a76565b925050819055005b600080fd5b34801561011157600080fd5b506101397f000000000000000000000000000000000000000000000000000000000000000081565b6040516001600160a01b0390911681526020015b60405180910390f35b34801561016257600080fd5b50610176610171366004610a8f565b6102d9565b6040805167ffffffffffffffff94851681529390921660208401529082015260600161014d565b3480156101a957600080fd5b506101b360065481565b60405190815260200161014d565b3480156101cd57600080fd5b506101b360035481565b3480156101e357600080fd5b506101b360025481565b3480156101f957600080fd5b506101b360015481565b34801561020f57600080fd5b506101b360055481565b61022c610227366004610aa8565b61031e565b005b34801561023a57600080fd5b506101b360075481565b34801561025057600080fd5b506101b360085481565b34801561026657600080fd5b506101b360045481565b34801561027c57600080fd5b506101b37f000000000000000000000000000000000000000000000000000000000000000081565b3480156102b057600080fd5b5061022c6102bf366004610adf565b6105c7565b3480156102d057600080fd5b5061022c610765565b600081815481106102e957600080fd5b60009182526020909120600290910201805460019091015467ffffffffffffffff8083169350600160401b9092049091169083565b7f00000000000000000000000000000000000000000000000000000000000000006001600160a01b03166380f556056040518163ffffffff1660e01b8152600401602060405180830381865afa15801561037c573d6000803e3d6000fd5b505050506040513d601f19601f820116820180604052508101906103a09190610b0f565b6001600160a01b0316336001600160a01b0316146104055760405162461bcd60e51b815260206004820152601f60248201527f53656e64657220646f6573206e6f742068617665207065726d697373696f6e0060448201526064015b60405180910390fd5b61040d610765565b60006104198284610a76565b9050600061010061042c61040080610b33565b61043890610400610b33565b610443906008610b33565b61044d9190610b52565b6104579085610b52565b9050600061010061046a61040080610b33565b61047690610400610b33565b610481906008610b33565b61048b9190610b52565b6104959084610b52565b9050818111156105c0576000604051806060016040528084846104b89190610b74565b67ffffffffffffffff1681526020016104f17f000000000000000000000000000000000000000000000000000000000000000042610a76565b67ffffffffffffffff90811682526007805460209384015260008054600181018255818052855160029091027f290decd9548b62a8d60345a988386fc84ba6bc95484008f6362f93160ef3e56381018054968801518616600160401b026001600160801b031990971692909516919091179490941790925560408401517f290decd9548b62a8d60345a988386fc84ba6bc95484008f6362f93160ef3e56490930192909255600385905590546008805493945090929091906105b4908490610a76565b90915550506000600755505b5050505050565b7f00000000000000000000000000000000000000000000000000000000000000006001600160a01b03166399f4b2516040518163ffffffff1660e01b8152600401602060405180830381865afa158015610625573d6000803e3d6000fd5b505050506040513d601f19601f820116820180604052508101906106499190610b0f565b6001600160a01b0316336001600160a01b0316146106a95760405162461bcd60e51b815260206004820152601f60248201527f53656e64657220646f6573206e6f742068617665207065726d697373696f6e0060448201526064016103fc565b6002548210156106b7575050565b6106bf610765565b60006005546004546106d19190610b74565b9050478111156106de5750475b8015610760576040516001600160a01b0383169082156108fc029083906000818181858888f1935050505015801561071a573d6000803e3d6000fd5b50816001600160a01b0316837f83617a1b0f847971f005bd162dde513cfe93df96e6293c3bbb5fe9c40629dd4c8360405161075791815260200190565b60405180910390a35b505050565b60008054908190036107835742600681905561078090610924565b50565b4260006001548154811061079957610799610b87565b6000918252602090912060029091020154600160401b900467ffffffffffffffff161161091f576107ff6000600154815481106107d8576107d8610b87565b6000918252602090912060029091020154600160401b900467ffffffffffffffff16610924565b60006001548154811061081457610814610b87565b60009182526020822060029182020154815467ffffffffffffffff909116929061083f908490610a76565b9250508190555060006001548154811061085b5761085b610b87565b9060005260206000209060020201600101546008600082825461087e9190610b74565b909155505060408051606081018252600080825260208201819052918101829052600154825491929181106108b5576108b5610b87565b60009182526020808320845160029093020180549185015167ffffffffffffffff908116600160401b026001600160801b03199093169316929092171781556040909201516001928301558154829190610910908390610a76565b90915550506001548103610783575b610780425b60065481116109305750565b600061093e601f600c610b33565b61094b9062015180610b33565b61095761040080610b33565b61096390610400610b33565b670de0b6b3a7640000600a61097a61040080610b33565b61098690610400610b33565b610991906008610b33565b6002546003546109a19190610b74565b6006546109ae9089610b74565b6109b89190610b33565b6109c29190610b33565b6109cc9190610b33565b6109d69190610b33565b6109e09190610b52565b6109ea9190610b52565b905060007f000000000000000000000000000000000000000000000000000000000000000060065484610a1d9190610b74565b600854610a2a9190610b33565b610a349190610b52565b9050610a408183610a76565b60046000828254610a519190610a76565b90915550505060069190915550565b634e487b7160e01b600052601160045260246000fd5b80820180821115610a8957610a89610a60565b92915050565b600060208284031215610aa157600080fd5b5035919050565b60008060408385031215610abb57600080fd5b50508035926020909101359150565b6001600160a01b038116811461078057600080fd5b60008060408385031215610af257600080fd5b823591506020830135610b0481610aca565b809150509250929050565b600060208284031215610b2157600080fd5b8151610b2c81610aca565b9392505050565b6000816000190483118215151615610b4d57610b4d610a60565b500290565b600082610b6f57634e487b7160e01b600052601260045260246000fd5b500490565b81810381811115610a8957610a89610a60565b634e487b7160e01b600052603260045260246000fdfea2646970667358221220f02d98f976acbdfa397a5d665e66cda22139bad0c87a3d86cf708a2c6a0c69c364736f6c63430008100033","opcodes":"PUSH1 0xC0 PUSH1 0x40 MSTORE CALLVALUE DUP1 ISZERO PUSH2 0x10 JUMPI PUSH1 0x0 DUP1 REVERT JUMPDEST POP PUSH1 0x40 MLOAD PUSH2 0xCDD CODESIZE SUB DUP1 PUSH2 0xCDD DUP4 CODECOPY DUP2 ADD PUSH1 0x40 DUP2 SWAP1 MSTORE PUSH2 0x2F SWAP2 PUSH2 0x62 JUMP JUMPDEST PUSH1 0x1 PUSH1 0x1 PUSH1 0xA0 SHL SUB DUP3 AND PUSH1 0x80 MSTORE PUSH2 0x4A PUSH1 0x1F PUSH3 0x15180 PUSH2 0x9C JUMP JUMPDEST PUSH2 0x54 SWAP1 DUP3 PUSH2 0x9C JUMP JUMPDEST PUSH1 0xA0 MSTORE POP POP TIMESTAMP PUSH1 0x6 SSTORE PUSH2 0xC9 JUMP JUMPDEST PUSH1 0x0 DUP1 PUSH1 0x40 DUP4 DUP6 SUB SLT ISZERO PUSH2 0x75 JUMPI PUSH1 0x0 DUP1 REVERT JUMPDEST DUP3 MLOAD PUSH1 0x1 PUSH1 0x1 PUSH1 0xA0 SHL SUB DUP2 AND DUP2 EQ PUSH2 0x8C JUMPI PUSH1 0x0 DUP1 REVERT JUMPDEST PUSH1 0x20 SWAP4 SWAP1 SWAP4 ADD MLOAD SWAP3 SWAP5 SWAP3 SWAP4 POP POP POP JUMP JUMPDEST PUSH1 0x0 DUP2 PUSH1 0x0 NOT DIV DUP4 GT DUP3 ISZERO ISZERO AND ISZERO PUSH2 0xC4 JUMPI PUSH4 0x4E487B71 PUSH1 0xE0 SHL PUSH1 0x0 MSTORE PUSH1 0x11 PUSH1 0x4 MSTORE PUSH1 0x24 PUSH1 0x0 REVERT JUMPDEST POP MUL SWAP1 JUMP JUMPDEST PUSH1 0x80 MLOAD PUSH1 0xA0 MLOAD PUSH2 0xBD3 PUSH2 0x10A PUSH1 0x0 CODECOPY PUSH1 0x0 DUP2 DUP2 PUSH2 0x282 ADD MSTORE DUP2 DUP2 PUSH2 0x4CC ADD MSTORE PUSH2 0x9F0 ADD MSTORE PUSH1 0x0 DUP2 DUP2 PUSH2 0x117 ADD MSTORE DUP2 DUP2 PUSH2 0x320 ADD MSTORE PUSH2 0x5C9 ADD MSTORE PUSH2 0xBD3 PUSH1 0x0 RETURN INVALID PUSH1 0x80 PUSH1 0x40 MSTORE PUSH1 0x4 CALLDATASIZE LT PUSH2 0xE1 JUMPI PUSH1 0x0 CALLDATALOAD PUSH1 0xE0 SHR DUP1 PUSH4 0x59E96700 GT PUSH2 0x7F JUMPI DUP1 PUSH4 0x80FAD325 GT PUSH2 0x59 JUMPI DUP1 PUSH4 0x80FAD325 EQ PUSH2 0x25A JUMPI DUP1 PUSH4 0xB7375DDB EQ PUSH2 0x270 JUMPI DUP1 PUSH4 0xCCEC92C4 EQ PUSH2 0x2A4 JUMPI DUP1 PUSH4 0xF8AC93E8 EQ PUSH2 0x2C4 JUMPI PUSH1 0x0 DUP1 REVERT JUMPDEST DUP1 PUSH4 0x59E96700 EQ PUSH2 0x219 JUMPI DUP1 PUSH4 0x6BAFF3D3 EQ PUSH2 0x22E JUMPI DUP1 PUSH4 0x77BD602B EQ PUSH2 0x244 JUMPI PUSH1 0x0 DUP1 REVERT JUMPDEST DUP1 PUSH4 0x18CA1B2B GT PUSH2 0xBB JUMPI DUP1 PUSH4 0x18CA1B2B EQ PUSH2 0x1C1 JUMPI DUP1 PUSH4 0x22EE4CB8 EQ PUSH2 0x1D7 JUMPI DUP1 PUSH4 0x28FEDEFE EQ PUSH2 0x1ED JUMPI DUP1 PUSH4 0x514CCEF0 EQ PUSH2 0x203 JUMPI PUSH1 0x0 DUP1 REVERT JUMPDEST DUP1 PUSH4 0x5A8DA72 EQ PUSH2 0x105 JUMPI DUP1 PUSH4 0xDBBE0A2 EQ PUSH2 0x156 JUMPI DUP1 PUSH4 0x14BCEC9F EQ PUSH2 0x19D JUMPI PUSH1 0x0 DUP1 REVERT JUMPDEST CALLDATASIZE PUSH2 0x100 JUMPI CALLVALUE PUSH1 0x7 PUSH1 0x0 DUP3 DUP3 SLOAD PUSH2 0xF8 SWAP2 SWAP1 PUSH2 0xA76 JUMP JUMPDEST SWAP3 POP POP DUP2 SWAP1 SSTORE STOP JUMPDEST PUSH1 0x0 DUP1 REVERT JUMPDEST CALLVALUE DUP1 ISZERO PUSH2 0x111 JUMPI PUSH1 0x0 DUP1 REVERT JUMPDEST POP PUSH2 0x139 PUSH32 0x0 DUP2 JUMP JUMPDEST PUSH1 0x40 MLOAD PUSH1 0x1 PUSH1 0x1 PUSH1 0xA0 SHL SUB SWAP1 SWAP2 AND DUP2 MSTORE PUSH1 0x20 ADD JUMPDEST PUSH1 0x40 MLOAD DUP1 SWAP2 SUB SWAP1 RETURN JUMPDEST CALLVALUE DUP1 ISZERO PUSH2 0x162 JUMPI PUSH1 0x0 DUP1 REVERT JUMPDEST POP PUSH2 0x176 PUSH2 0x171 CALLDATASIZE PUSH1 0x4 PUSH2 0xA8F JUMP JUMPDEST PUSH2 0x2D9 JUMP JUMPDEST PUSH1 0x40 DUP1 MLOAD PUSH8 0xFFFFFFFFFFFFFFFF SWAP5 DUP6 AND DUP2 MSTORE SWAP4 SWAP1 SWAP3 AND PUSH1 0x20 DUP5 ADD MSTORE SWAP1 DUP3 ADD MSTORE PUSH1 0x60 ADD PUSH2 0x14D JUMP JUMPDEST CALLVALUE DUP1 ISZERO PUSH2 0x1A9 JUMPI PUSH1 0x0 DUP1 REVERT JUMPDEST POP PUSH2 0x1B3 PUSH1 0x6 SLOAD DUP2 JUMP JUMPDEST PUSH1 0x40 MLOAD SWAP1 DUP2 MSTORE PUSH1 0x20 ADD PUSH2 0x14D JUMP JUMPDEST CALLVALUE DUP1 ISZERO PUSH2 0x1CD JUMPI PUSH1 0x0 DUP1 REVERT JUMPDEST POP PUSH2 0x1B3 PUSH1 0x3 SLOAD DUP2 JUMP JUMPDEST CALLVALUE DUP1 ISZERO PUSH2 0x1E3 JUMPI PUSH1 0x0 DUP1 REVERT JUMPDEST POP PUSH2 0x1B3 PUSH1 0x2 SLOAD DUP2 JUMP JUMPDEST CALLVALUE DUP1 ISZERO PUSH2 0x1F9 JUMPI PUSH1 0x0 DUP1 REVERT JUMPDEST POP PUSH2 0x1B3 PUSH1 0x1 SLOAD DUP2 JUMP JUMPDEST CALLVALUE DUP1 ISZERO PUSH2 0x20F JUMPI PUSH1 0x0 DUP1 REVERT JUMPDEST POP PUSH2 0x1B3 PUSH1 0x5 SLOAD DUP2 JUMP JUMPDEST PUSH2 0x22C PUSH2 0x227 CALLDATASIZE PUSH1 0x4 PUSH2 0xAA8 JUMP JUMPDEST PUSH2 0x31E JUMP JUMPDEST STOP JUMPDEST CALLVALUE DUP1 ISZERO PUSH2 0x23A JUMPI PUSH1 0x0 DUP1 REVERT JUMPDEST POP PUSH2 0x1B3 PUSH1 0x7 SLOAD DUP2 JUMP JUMPDEST CALLVALUE DUP1 ISZERO PUSH2 0x250 JUMPI PUSH1 0x0 DUP1 REVERT JUMPDEST POP PUSH2 0x1B3 PUSH1 0x8 SLOAD DUP2 JUMP JUMPDEST CALLVALUE DUP1 ISZERO PUSH2 0x266 JUMPI PUSH1 0x0 DUP1 REVERT JUMPDEST POP PUSH2 0x1B3 PUSH1 0x4 SLOAD DUP2 JUMP JUMPDEST CALLVALUE DUP1 ISZERO PUSH2 0x27C JUMPI PUSH1 0x0 DUP1 REVERT JUMPDEST POP PUSH2 0x1B3 PUSH32 0x0 DUP2 JUMP JUMPDEST CALLVALUE DUP1 ISZERO PUSH2 0x2B0 JUMPI PUSH1 0x0 DUP1 REVERT JUMPDEST POP PUSH2 0x22C PUSH2 0x2BF CALLDATASIZE PUSH1 0x4 PUSH2 0xADF JUMP JUMPDEST PUSH2 0x5C7 JUMP JUMPDEST CALLVALUE DUP1 ISZERO PUSH2 0x2D0 JUMPI PUSH1 0x0 DUP1 REVERT JUMPDEST POP PUSH2 0x22C PUSH2 0x765 JUMP JUMPDEST PUSH1 0x0 DUP2 DUP2 SLOAD DUP2 LT PUSH2 0x2E9 JUMPI PUSH1 0x0 DUP1 REVERT JUMPDEST PUSH1 0x0 SWAP2 DUP3 MSTORE PUSH1 0x20 SWAP1 SWAP2 KECCAK256 PUSH1 0x2 SWAP1 SWAP2 MUL ADD DUP1 SLOAD PUSH1 0x1 SWAP1 SWAP2 ADD SLOAD PUSH8 0xFFFFFFFFFFFFFFFF DUP1 DUP4 AND SWAP4 POP PUSH1 0x1 PUSH1 0x40 SHL SWAP1 SWAP3 DIV SWAP1 SWAP2 AND SWAP1 DUP4 JUMP JUMPDEST PUSH32 0x0 PUSH1 0x1 PUSH1 0x1 PUSH1 0xA0 SHL SUB AND PUSH4 0x80F55605 PUSH1 0x40 MLOAD DUP2 PUSH4 0xFFFFFFFF AND PUSH1 0xE0 SHL DUP2 MSTORE PUSH1 0x4 ADD PUSH1 0x20 PUSH1 0x40 MLOAD DUP1 DUP4 SUB DUP2 DUP7 GAS STATICCALL ISZERO DUP1 ISZERO PUSH2 0x37C JUMPI RETURNDATASIZE PUSH1 0x0 DUP1 RETURNDATACOPY RETURNDATASIZE PUSH1 0x0 REVERT JUMPDEST POP POP POP POP PUSH1 0x40 MLOAD RETURNDATASIZE PUSH1 0x1F NOT PUSH1 0x1F DUP3 ADD AND DUP3 ADD DUP1 PUSH1 0x40 MSTORE POP DUP2 ADD SWAP1 PUSH2 0x3A0 SWAP2 SWAP1 PUSH2 0xB0F JUMP JUMPDEST PUSH1 0x1 PUSH1 0x1 PUSH1 0xA0 SHL SUB AND CALLER PUSH1 0x1 PUSH1 0x1 PUSH1 0xA0 SHL SUB AND EQ PUSH2 0x405 JUMPI PUSH1 0x40 MLOAD PUSH3 0x461BCD PUSH1 0xE5 SHL DUP2 MSTORE PUSH1 0x20 PUSH1 0x4 DUP3 ADD MSTORE PUSH1 0x1F PUSH1 0x24 DUP3 ADD MSTORE PUSH32 0x53656E64657220646F6573206E6F742068617665207065726D697373696F6E00 PUSH1 0x44 DUP3 ADD MSTORE PUSH1 0x64 ADD JUMPDEST PUSH1 0x40 MLOAD DUP1 SWAP2 SUB SWAP1 REVERT JUMPDEST PUSH2 0x40D PUSH2 0x765 JUMP JUMPDEST PUSH1 0x0 PUSH2 0x419 DUP3 DUP5 PUSH2 0xA76 JUMP JUMPDEST SWAP1 POP PUSH1 0x0 PUSH2 0x100 PUSH2 0x42C PUSH2 0x400 DUP1 PUSH2 0xB33 JUMP JUMPDEST PUSH2 0x438 SWAP1 PUSH2 0x400 PUSH2 0xB33 JUMP JUMPDEST PUSH2 0x443 SWAP1 PUSH1 0x8 PUSH2 0xB33 JUMP JUMPDEST PUSH2 0x44D SWAP2 SWAP1 PUSH2 0xB52 JUMP JUMPDEST PUSH2 0x457 SWAP1 DUP6 PUSH2 0xB52 JUMP JUMPDEST SWAP1 POP PUSH1 0x0 PUSH2 0x100 PUSH2 0x46A PUSH2 0x400 DUP1 PUSH2 0xB33 JUMP JUMPDEST PUSH2 0x476 SWAP1 PUSH2 0x400 PUSH2 0xB33 JUMP JUMPDEST PUSH2 0x481 SWAP1 PUSH1 0x8 PUSH2 0xB33 JUMP JUMPDEST PUSH2 0x48B SWAP2 SWAP1 PUSH2 0xB52 JUMP JUMPDEST PUSH2 0x495 SWAP1 DUP5 PUSH2 0xB52 JUMP JUMPDEST SWAP1 POP DUP2 DUP2 GT ISZERO PUSH2 0x5C0 JUMPI PUSH1 0x0 PUSH1 0x40 MLOAD DUP1 PUSH1 0x60 ADD PUSH1 0x40 MSTORE DUP1 DUP5 DUP5 PUSH2 0x4B8 SWAP2 SWAP1 PUSH2 0xB74 JUMP JUMPDEST PUSH8 0xFFFFFFFFFFFFFFFF AND DUP2 MSTORE PUSH1 0x20 ADD PUSH2 0x4F1 PUSH32 0x0 TIMESTAMP PUSH2 0xA76 JUMP JUMPDEST PUSH8 0xFFFFFFFFFFFFFFFF SWAP1 DUP2 AND DUP3 MSTORE PUSH1 0x7 DUP1 SLOAD PUSH1 0x20 SWAP4 DUP5 ADD MSTORE PUSH1 0x0 DUP1 SLOAD PUSH1 0x1 DUP2 ADD DUP3 SSTORE DUP2 DUP1 MSTORE DUP6 MLOAD PUSH1 0x2 SWAP1 SWAP2 MUL PUSH32 0x290DECD9548B62A8D60345A988386FC84BA6BC95484008F6362F93160EF3E563 DUP2 ADD DUP1 SLOAD SWAP7 DUP9 ADD MLOAD DUP7 AND PUSH1 0x1 PUSH1 0x40 SHL MUL PUSH1 0x1 PUSH1 0x1 PUSH1 0x80 SHL SUB NOT SWAP1 SWAP8 AND SWAP3 SWAP1 SWAP6 AND SWAP2 SWAP1 SWAP2 OR SWAP5 SWAP1 SWAP5 OR SWAP1 SWAP3 SSTORE PUSH1 0x40 DUP5 ADD MLOAD PUSH32 0x290DECD9548B62A8D60345A988386FC84BA6BC95484008F6362F93160EF3E564 SWAP1 SWAP4 ADD SWAP3 SWAP1 SWAP3 SSTORE PUSH1 0x3 DUP6 SWAP1 SSTORE SWAP1 SLOAD PUSH1 0x8 DUP1 SLOAD SWAP4 SWAP5 POP SWAP1 SWAP3 SWAP1 SWAP2 SWAP1 PUSH2 0x5B4 SWAP1 DUP5 SWAP1 PUSH2 0xA76 JUMP JUMPDEST SWAP1 SWAP2 SSTORE POP POP PUSH1 0x0 PUSH1 0x7 SSTORE POP JUMPDEST POP POP POP POP POP JUMP JUMPDEST PUSH32 0x0 PUSH1 0x1 PUSH1 0x1 PUSH1 0xA0 SHL SUB AND PUSH4 0x99F4B251 PUSH1 0x40 MLOAD DUP2 PUSH4 0xFFFFFFFF AND PUSH1 0xE0 SHL DUP2 MSTORE PUSH1 0x4 ADD PUSH1 0x20 PUSH1 0x40 MLOAD DUP1 DUP4 SUB DUP2 DUP7 GAS STATICCALL ISZERO DUP1 ISZERO PUSH2 0x625 JUMPI RETURNDATASIZE PUSH1 0x0 DUP1 RETURNDATACOPY RETURNDATASIZE PUSH1 0x0 REVERT JUMPDEST POP POP POP POP PUSH1 0x40 MLOAD RETURNDATASIZE PUSH1 0x1F NOT PUSH1 0x1F DUP3 ADD AND DUP3 ADD DUP1 PUSH1 0x40 MSTORE POP DUP2 ADD SWAP1 PUSH2 0x649 SWAP2 SWAP1 PUSH2 0xB0F JUMP JUMPDEST PUSH1 0x1 PUSH1 0x1 PUSH1 0xA0 SHL SUB AND CALLER PUSH1 0x1 PUSH1 0x1 PUSH1 0xA0 SHL SUB AND EQ PUSH2 0x6A9 JUMPI PUSH1 0x40 MLOAD PUSH3 0x461BCD PUSH1 0xE5 SHL DUP2 MSTORE PUSH1 0x20 PUSH1 0x4 DUP3 ADD MSTORE PUSH1 0x1F PUSH1 0x24 DUP3 ADD MSTORE PUSH32 0x53656E64657220646F6573206E6F742068617665207065726D697373696F6E00 PUSH1 0x44 DUP3 ADD MSTORE PUSH1 0x64 ADD PUSH2 0x3FC JUMP JUMPDEST PUSH1 0x2 SLOAD DUP3 LT ISZERO PUSH2 0x6B7 JUMPI POP POP JUMP JUMPDEST PUSH2 0x6BF PUSH2 0x765 JUMP JUMPDEST PUSH1 0x0 PUSH1 0x5 SLOAD PUSH1 0x4 SLOAD PUSH2 0x6D1 SWAP2 SWAP1 PUSH2 0xB74 JUMP JUMPDEST SWAP1 POP SELFBALANCE DUP2 GT ISZERO PUSH2 0x6DE JUMPI POP SELFBALANCE JUMPDEST DUP1 ISZERO PUSH2 0x760 JUMPI PUSH1 0x40 MLOAD PUSH1 0x1 PUSH1 0x1 PUSH1 0xA0 SHL SUB DUP4 AND SWAP1 DUP3 ISZERO PUSH2 0x8FC MUL SWAP1 DUP4 SWAP1 PUSH1 0x0 DUP2 DUP2 DUP2 DUP6 DUP9 DUP9 CALL SWAP4 POP POP POP POP ISZERO DUP1 ISZERO PUSH2 0x71A JUMPI RETURNDATASIZE PUSH1 0x0 DUP1 RETURNDATACOPY RETURNDATASIZE PUSH1 0x0 REVERT JUMPDEST POP DUP2 PUSH1 0x1 PUSH1 0x1 PUSH1 0xA0 SHL SUB AND DUP4 PUSH32 0x83617A1B0F847971F005BD162DDE513CFE93DF96E6293C3BBB5FE9C40629DD4C DUP4 PUSH1 0x40 MLOAD PUSH2 0x757 SWAP2 DUP2 MSTORE PUSH1 0x20 ADD SWAP1 JUMP JUMPDEST PUSH1 0x40 MLOAD DUP1 SWAP2 SUB SWAP1 LOG3 JUMPDEST POP POP POP JUMP JUMPDEST PUSH1 0x0 DUP1 SLOAD SWAP1 DUP2 SWAP1 SUB PUSH2 0x783 JUMPI TIMESTAMP PUSH1 0x6 DUP2 SWAP1 SSTORE PUSH2 0x780 SWAP1 PUSH2 0x924 JUMP JUMPDEST POP JUMP JUMPDEST TIMESTAMP PUSH1 0x0 PUSH1 0x1 SLOAD DUP2 SLOAD DUP2 LT PUSH2 0x799 JUMPI PUSH2 0x799 PUSH2 0xB87 JUMP JUMPDEST PUSH1 0x0 SWAP2 DUP3 MSTORE PUSH1 0x20 SWAP1 SWAP2 KECCAK256 PUSH1 0x2 SWAP1 SWAP2 MUL ADD SLOAD PUSH1 0x1 PUSH1 0x40 SHL SWAP1 DIV PUSH8 0xFFFFFFFFFFFFFFFF AND GT PUSH2 0x91F JUMPI PUSH2 0x7FF PUSH1 0x0 PUSH1 0x1 SLOAD DUP2 SLOAD DUP2 LT PUSH2 0x7D8 JUMPI PUSH2 0x7D8 PUSH2 0xB87 JUMP JUMPDEST PUSH1 0x0 SWAP2 DUP3 MSTORE PUSH1 0x20 SWAP1 SWAP2 KECCAK256 PUSH1 0x2 SWAP1 SWAP2 MUL ADD SLOAD PUSH1 0x1 PUSH1 0x40 SHL SWAP1 DIV PUSH8 0xFFFFFFFFFFFFFFFF AND PUSH2 0x924 JUMP JUMPDEST PUSH1 0x0 PUSH1 0x1 SLOAD DUP2 SLOAD DUP2 LT PUSH2 0x814 JUMPI PUSH2 0x814 PUSH2 0xB87 JUMP JUMPDEST PUSH1 0x0 SWAP2 DUP3 MSTORE PUSH1 0x20 DUP3 KECCAK256 PUSH1 0x2 SWAP2 DUP3 MUL ADD SLOAD DUP2 SLOAD PUSH8 0xFFFFFFFFFFFFFFFF SWAP1 SWAP2 AND SWAP3 SWAP1 PUSH2 0x83F SWAP1 DUP5 SWAP1 PUSH2 0xA76 JUMP JUMPDEST SWAP3 POP POP DUP2 SWAP1 SSTORE POP PUSH1 0x0 PUSH1 0x1 SLOAD DUP2 SLOAD DUP2 LT PUSH2 0x85B JUMPI PUSH2 0x85B PUSH2 0xB87 JUMP JUMPDEST SWAP1 PUSH1 0x0 MSTORE PUSH1 0x20 PUSH1 0x0 KECCAK256 SWAP1 PUSH1 0x2 MUL ADD PUSH1 0x1 ADD SLOAD PUSH1 0x8 PUSH1 0x0 DUP3 DUP3 SLOAD PUSH2 0x87E SWAP2 SWAP1 PUSH2 0xB74 JUMP JUMPDEST SWAP1 SWAP2 SSTORE POP POP PUSH1 0x40 DUP1 MLOAD PUSH1 0x60 DUP2 ADD DUP3 MSTORE PUSH1 0x0 DUP1 DUP3 MSTORE PUSH1 0x20 DUP3 ADD DUP2 SWAP1 MSTORE SWAP2 DUP2 ADD DUP3 SWAP1 MSTORE PUSH1 0x1 SLOAD DUP3 SLOAD SWAP2 SWAP3 SWAP2 DUP2 LT PUSH2 0x8B5 JUMPI PUSH2 0x8B5 PUSH2 0xB87 JUMP JUMPDEST PUSH1 0x0 SWAP2 DUP3 MSTORE PUSH1 0x20 DUP1 DUP4 KECCAK256 DUP5 MLOAD PUSH1 0x2 SWAP1 SWAP4 MUL ADD DUP1 SLOAD SWAP2 DUP6 ADD MLOAD PUSH8 0xFFFFFFFFFFFFFFFF SWAP1 DUP2 AND PUSH1 0x1 PUSH1 0x40 SHL MUL PUSH1 0x1 PUSH1 0x1 PUSH1 0x80 SHL SUB NOT SWAP1 SWAP4 AND SWAP4 AND SWAP3 SWAP1 SWAP3 OR OR DUP2 SSTORE PUSH1 0x40 SWAP1 SWAP3 ADD MLOAD PUSH1 0x1 SWAP3 DUP4 ADD SSTORE DUP2 SLOAD DUP3 SWAP2 SWAP1 PUSH2 0x910 SWAP1 DUP4 SWAP1 PUSH2 0xA76 JUMP JUMPDEST SWAP1 SWAP2 SSTORE POP POP PUSH1 0x1 SLOAD DUP2 SUB PUSH2 0x783 JUMPI JUMPDEST PUSH2 0x780 TIMESTAMP JUMPDEST PUSH1 0x6 SLOAD DUP2 GT PUSH2 0x930 JUMPI POP JUMP JUMPDEST PUSH1 0x0 PUSH2 0x93E PUSH1 0x1F PUSH1 0xC PUSH2 0xB33 JUMP JUMPDEST PUSH2 0x94B SWAP1 PUSH3 0x15180 PUSH2 0xB33 JUMP JUMPDEST PUSH2 0x957 PUSH2 0x400 DUP1 PUSH2 0xB33 JUMP JUMPDEST PUSH2 0x963 SWAP1 PUSH2 0x400 PUSH2 0xB33 JUMP JUMPDEST PUSH8 0xDE0B6B3A7640000 PUSH1 0xA PUSH2 0x97A PUSH2 0x400 DUP1 PUSH2 0xB33 JUMP JUMPDEST PUSH2 0x986 SWAP1 PUSH2 0x400 PUSH2 0xB33 JUMP JUMPDEST PUSH2 0x991 SWAP1 PUSH1 0x8 PUSH2 0xB33 JUMP JUMPDEST PUSH1 0x2 SLOAD PUSH1 0x3 SLOAD PUSH2 0x9A1 SWAP2 SWAP1 PUSH2 0xB74 JUMP JUMPDEST PUSH1 0x6 SLOAD PUSH2 0x9AE SWAP1 DUP10 PUSH2 0xB74 JUMP JUMPDEST PUSH2 0x9B8 SWAP2 SWAP1 PUSH2 0xB33 JUMP JUMPDEST PUSH2 0x9C2 SWAP2 SWAP1 PUSH2 0xB33 JUMP JUMPDEST PUSH2 0x9CC SWAP2 SWAP1 PUSH2 0xB33 JUMP JUMPDEST PUSH2 0x9D6 SWAP2 SWAP1 PUSH2 0xB33 JUMP JUMPDEST PUSH2 0x9E0 SWAP2 SWAP1 PUSH2 0xB52 JUMP JUMPDEST PUSH2 0x9EA SWAP2 SWAP1 PUSH2 0xB52 JUMP JUMPDEST SWAP1 POP PUSH1 0x0 PUSH32 0x0 PUSH1 0x6 SLOAD DUP5 PUSH2 0xA1D SWAP2 SWAP1 PUSH2 0xB74 JUMP JUMPDEST PUSH1 0x8 SLOAD PUSH2 0xA2A SWAP2 SWAP1 PUSH2 0xB33 JUMP JUMPDEST PUSH2 0xA34 SWAP2 SWAP1 PUSH2 0xB52 JUMP JUMPDEST SWAP1 POP PUSH2 0xA40 DUP2 DUP4 PUSH2 0xA76 JUMP JUMPDEST PUSH1 0x4 PUSH1 0x0 DUP3 DUP3 SLOAD PUSH2 0xA51 SWAP2 SWAP1 PUSH2 0xA76 JUMP JUMPDEST SWAP1 SWAP2 SSTORE POP POP POP PUSH1 0x6 SWAP2 SWAP1 SWAP2 SSTORE POP JUMP JUMPDEST PUSH4 0x4E487B71 PUSH1 0xE0 SHL PUSH1 0x0 MSTORE PUSH1 0x11 PUSH1 0x4 MSTORE PUSH1 0x24 PUSH1 0x0 REVERT JUMPDEST DUP1 DUP3 ADD DUP1 DUP3 GT ISZERO PUSH2 0xA89 JUMPI PUSH2 0xA89 PUSH2 0xA60 JUMP JUMPDEST SWAP3 SWAP2 POP POP JUMP JUMPDEST PUSH1 0x0 PUSH1 0x20 DUP3 DUP5 SUB SLT ISZERO PUSH2 0xAA1 JUMPI PUSH1 0x0 DUP1 REVERT JUMPDEST POP CALLDATALOAD SWAP2 SWAP1 POP JUMP JUMPDEST PUSH1 0x0 DUP1 PUSH1 0x40 DUP4 DUP6 SUB SLT ISZERO PUSH2 0xABB JUMPI PUSH1 0x0 DUP1 REVERT JUMPDEST POP POP DUP1 CALLDATALOAD SWAP3 PUSH1 0x20 SWAP1 SWAP2 ADD CALLDATALOAD SWAP2 POP JUMP JUMPDEST PUSH1 0x1 PUSH1 0x1 PUSH1 0xA0 SHL SUB DUP2 AND DUP2 EQ PUSH2 0x780 JUMPI PUSH1 0x0 DUP1 REVERT JUMPDEST PUSH1 0x0 DUP1 PUSH1 0x40 DUP4 DUP6 SUB SLT ISZERO PUSH2 0xAF2 JUMPI PUSH1 0x0 DUP1 REVERT JUMPDEST DUP3 CALLDATALOAD SWAP2 POP PUSH1 0x20 DUP4 ADD CALLDATALOAD PUSH2 0xB04 DUP2 PUSH2 0xACA JUMP JUMPDEST DUP1 SWAP2 POP POP SWAP3 POP SWAP3 SWAP1 POP JUMP JUMPDEST PUSH1 0x0 PUSH1 0x20 DUP3 DUP5 SUB SLT ISZERO PUSH2 0xB21 JUMPI PUSH1 0x0 DUP1 REVERT JUMPDEST DUP2 MLOAD PUSH2 0xB2C DUP2 PUSH2 0xACA JUMP JUMPDEST SWAP4 SWAP3 POP POP POP JUMP JUMPDEST PUSH1 0x0 DUP2 PUSH1 0x0 NOT DIV DUP4 GT DUP3 ISZERO ISZERO AND ISZERO PUSH2 0xB4D JUMPI PUSH2 0xB4D PUSH2 0xA60 JUMP JUMPDEST POP MUL SWAP1 JUMP JUMPDEST PUSH1 0x0 DUP3 PUSH2 0xB6F JUMPI PUSH4 0x4E487B71 PUSH1 0xE0 SHL PUSH1 0x0 MSTORE PUSH1 0x12 PUSH1 0x4 MSTORE PUSH1 0x24 PUSH1 0x0 REVERT JUMPDEST POP DIV SWAP1 JUMP JUMPDEST DUP2 DUP2 SUB DUP2 DUP2 GT ISZERO PUSH2 0xA89 JUMPI PUSH2 0xA89 PUSH2 0xA60 JUMP JUMPDEST PUSH4 0x4E487B71 PUSH1 0xE0 SHL PUSH1 0x0 MSTORE PUSH1 0x32 PUSH1 0x4 MSTORE PUSH1 0x24 PUSH1 0x0 REVERT INVALID LOG2 PUSH5 0x6970667358 0x22 SLT KECCAK256 CREATE 0x2D SWAP9 0xF9 PUSH23 0xACBDFA397A5D665E66CDA22139BAD0C87A3D86CF708A2C PUSH11 0xC69C364736F6C63430008 LT STOP CALLER "},"methodIdentifiers":{"accumulatedReward()":"80fad325","activeDonation()":"77bd602b","book()":"05a8da72","claimMineReward(uint256,address)":"ccec92c4","claimedReward()":"514ccef0","fillReward(uint256,uint256)":"59e96700","firstValidChunk()":"22ee4cb8","lastUpdateTimestamp()":"14bcec9f","lastValidChunk()":"18ca1b2b","lifetimeInSeconds()":"b7375ddb","nextChunkDonation()":"6baff3d3","refresh()":"f8ac93e8","timeoutHead()":"28fedefe","timeoutRecords(uint256)":"0dbbe0a2"}}}}}