{
  "_format": "hh-sol-artifact-1",
  "contractName": "CashierTest",
  "sourceName": "contracts/test/CashierTest.sol",
  "abi": [
    {
      "inputs": [
        {
          "internalType": "address",
          "name": "book",
          "type": "address"
        },
        {
          "internalType": "address",
          "name": "uploadToken",
          "type": "address"
        },
        {
          "internalType": "address",
          "name": "stake",
          "type": "address"
        },
        {
          "internalType": "address",
          "name": "zgsToken_",
          "type": "address"
        }
      ],
      "stateMutability": "payable",
      "type": "constructor"
    },
    {
      "inputs": [
        {
          "internalType": "uint256",
          "name": "uploadSectors",
          "type": "uint256"
        },
        {
          "internalType": "uint256",
          "name": "paddingSectors",
          "type": "uint256"
        }
      ],
      "name": "chargeFee",
      "outputs": [],
      "stateMutability": "nonpayable",
      "type": "function"
    },
    {
      "inputs": [
        {
          "internalType": "uint256",
          "name": "purchaseBytes",
          "type": "uint256"
        }
      ],
      "name": "computePriorityFee",
      "outputs": [
        {
          "internalType": "uint256",
          "name": "",
          "type": "uint256"
        }
      ],
      "stateMutability": "view",
      "type": "function"
    },
    {
      "inputs": [
        {
          "internalType": "uint256",
          "name": "sectors",
          "type": "uint256"
        }
      ],
      "name": "consumeUploadToken",
      "outputs": [],
      "stateMutability": "nonpayable",
      "type": "function"
    },
    {
      "inputs": [],
      "name": "drippingRate",
      "outputs": [
        {
          "internalType": "uint256",
          "name": "",
          "type": "uint256"
        }
      ],
      "stateMutability": "view",
      "type": "function"
    },
    {
      "inputs": [],
      "name": "flow",
      "outputs": [
        {
          "internalType": "address",
          "name": "",
          "type": "address"
        }
      ],
      "stateMutability": "view",
      "type": "function"
    },
    {
      "inputs": [],
      "name": "flowLength",
      "outputs": [
        {
          "internalType": "uint256",
          "name": "",
          "type": "uint256"
        }
      ],
      "stateMutability": "view",
      "type": "function"
    },
    {
      "inputs": [],
      "name": "gauge",
      "outputs": [
        {
          "internalType": "int256",
          "name": "",
          "type": "int256"
        }
      ],
      "stateMutability": "view",
      "type": "function"
    },
    {
      "inputs": [],
      "name": "getFlowLength",
      "outputs": [
        {
          "internalType": "uint256",
          "name": "",
          "type": "uint256"
        }
      ],
      "stateMutability": "view",
      "type": "function"
    },
    {
      "inputs": [],
      "name": "lastUpdate",
      "outputs": [
        {
          "internalType": "uint256",
          "name": "",
          "type": "uint256"
        }
      ],
      "stateMutability": "view",
      "type": "function"
    },
    {
      "inputs": [],
      "name": "mine",
      "outputs": [
        {
          "internalType": "address",
          "name": "",
          "type": "address"
        }
      ],
      "stateMutability": "view",
      "type": "function"
    },
    {
      "inputs": [],
      "name": "paidFee",
      "outputs": [
        {
          "internalType": "uint256",
          "name": "",
          "type": "uint256"
        }
      ],
      "stateMutability": "view",
      "type": "function"
    },
    {
      "inputs": [],
      "name": "paidUploadAmount",
      "outputs": [
        {
          "internalType": "uint256",
          "name": "",
          "type": "uint256"
        }
      ],
      "stateMutability": "view",
      "type": "function"
    },
    {
      "inputs": [
        {
          "internalType": "uint256",
          "name": "sectors",
          "type": "uint256"
        },
        {
          "internalType": "uint256",
          "name": "maxPrice",
          "type": "uint256"
        },
        {
          "internalType": "uint256",
          "name": "maxTipPrice",
          "type": "uint256"
        }
      ],
      "name": "purchase",
      "outputs": [],
      "stateMutability": "payable",
      "type": "function"
    },
    {
      "inputs": [],
      "name": "reward",
      "outputs": [
        {
          "internalType": "contract IReward",
          "name": "",
          "type": "address"
        }
      ],
      "stateMutability": "view",
      "type": "function"
    },
    {
      "inputs": [
        {
          "internalType": "int256",
          "name": "gauge_",
          "type": "int256"
        }
      ],
      "name": "setGauge",
      "outputs": [],
      "stateMutability": "nonpayable",
      "type": "function"
    },
    {
      "inputs": [],
      "name": "stake",
      "outputs": [
        {
          "internalType": "address",
          "name": "",
          "type": "address"
        }
      ],
      "stateMutability": "view",
      "type": "function"
    },
    {
      "inputs": [],
      "name": "updateGauge",
      "outputs": [],
      "stateMutability": "nonpayable",
      "type": "function"
    },
    {
      "inputs": [
        {
          "internalType": "uint256",
          "name": "sectors",
          "type": "uint256"
        }
      ],
      "name": "updateTotalSubmission",
      "outputs": [],
      "stateMutability": "nonpayable",
      "type": "function"
    },
    {
      "inputs": [],
      "name": "uploadToken",
      "outputs": [
        {
          "internalType": "contract IUploadToken",
          "name": "",
          "type": "address"
        }
      ],
      "stateMutability": "view",
      "type": "function"
    },
    {
      "inputs": [],
      "name": "zgsToken",
      "outputs": [
        {
          "internalType": "contract MockHackToken",
          "name": "",
          "type": "address"
        }
      ],
      "stateMutability": "view",
      "type": "function"
    }
  ],
  "bytecode": "0x610140604052604051620013ca380380620013ca83398101604081905262000027916200020d565b8383836000839050806001600160a01b031663343aad826040518163ffffffff1660e01b8152600401602060405180830381865afa1580156200006e573d6000803e3d6000fd5b505050506040513d601f19601f8201168201806040525081019062000094919062000275565b6001600160a01b031660c0816001600160a01b031681525050806001600160a01b03166399f4b2516040518163ffffffff1660e01b8152600401602060405180830381865afa158015620000ec573d6000803e3d6000fd5b505050506040513d601f19601f8201168201806040525081019062000112919062000275565b6001600160a01b031660e0816001600160a01b031681525050806001600160a01b031663228cb7336040518163ffffffff1660e01b8152600401602060405180830381865afa1580156200016a573d6000803e3d6000fd5b505050506040513d601f19601f8201168201806040525081019062000190919062000275565b6001600160a01b0390811660805283811660a0528216610100526001600455620001b9620001d7565b5050506001600160a01b039092166101205250620002c49350505050565b60008054620001e790426200029c565b426000556103e802919050565b6001600160a01b03811681146200020a57600080fd5b50565b600080600080608085870312156200022457600080fd5b84516200023181620001f4565b60208601519094506200024481620001f4565b60408601519093506200025781620001f4565b60608601519092506200026a81620001f4565b939692955090935050565b6000602082840312156200028857600080fd5b81516200029581620001f4565b9392505050565b81810381811115620002be57634e487b7160e01b600052601160045260246000fd5b92915050565b60805160a05160c05160e051610100516101205161108c6200033e600039600081816101cd01528181610c980152610d950152600081816102350152610d6601526000610333015260008181610201015261067c015260008181610289015261096d01526000818161018101526107cb015261108c6000f3fe60806040526004361061011f5760003560e01c806379c79707116100a0578063a6f19c8411610064578063a6f19c8414610368578063ab378cb71461037e578063c04637111461039e578063d6713eb1146103b4578063e8aaf7b5146103ca57600080fd5b806379c79707146102d75780637fdeaa85146102ec578063881fa03c1461030157806399f4b251146103215780639b8b93051461035557600080fd5b80633a4b66f1116100e75780633a4b66f11461022357806346d5b97d1461025757806347e0a875146102775780636e00da94146102ab578063709e5fed146102c157600080fd5b80630ce6bf7414610124578063178bb4e214610146578063228cb7331461016f5780632782f579146101bb578063343aad82146101ef575b600080fd5b34801561013057600080fd5b5061014461013f366004610ede565b6103ea565b005b34801561015257600080fd5b5061015c60045481565b6040519081526020015b60405180910390f35b34801561017b57600080fd5b506101a37f000000000000000000000000000000000000000000000000000000000000000081565b6040516001600160a01b039091168152602001610166565b3480156101c757600080fd5b506101a37f000000000000000000000000000000000000000000000000000000000000000081565b3480156101fb57600080fd5b506101a37f000000000000000000000000000000000000000000000000000000000000000081565b34801561022f57600080fd5b506101a37f000000000000000000000000000000000000000000000000000000000000000081565b34801561026357600080fd5b5061015c610272366004610ede565b6103f8565b34801561028357600080fd5b506101a37f000000000000000000000000000000000000000000000000000000000000000081565b3480156102b757600080fd5b5061015c60025481565b3480156102cd57600080fd5b5061015c60055481565b3480156102e357600080fd5b506101446105e0565b3480156102f857600080fd5b5060045461015c565b34801561030d57600080fd5b5061014461031c366004610ef7565b61067a565b34801561032d57600080fd5b506101a37f000000000000000000000000000000000000000000000000000000000000000081565b610144610363366004610f19565b610839565b34801561037457600080fd5b5061015c60015481565b34801561038a57600080fd5b50610144610399366004610ede565b61093a565b3480156103aa57600080fd5b5061015c60035481565b3480156103c057600080fd5b5061015c60065481565b3480156103d657600080fd5b506101446103e5366004610ede565b6109f0565b6103f26109fc565b50600155565b600080600080600154126104315760015484811061041b57506000949350505050565b600092506104298186610f5b565b915050610452565b600060015461043f90610f6e565b925082905061044e8582610f8a565b9150505b61045e61040080610f9d565b61046a90610400610f9d565b610475906064610f9d565b8111156104bb5760405162461bcd60e51b815260206004820152600f60248201526e476175676520756e646572666c6f7760881b60448201526064015b60405180910390fd5b60006104c961040080610f9d565b6104d590610384610f9d565b6104e390604085901b610fbc565b905060006104f361040080610f9d565b6104ff90610384610f9d565b61050d90604085901b610fbc565b90506000600160601b6105286105238585610f5b565b610a17565b6105329190610f5b565b9050600061053f84610a17565b90506000600160681b8211156105645761055d604083901c84610f9d565b905061058f565b600160681b83111561057e5761055d82604085901c610f9d565b604061058a8385610f9d565b901c90505b602081901c606060646105a461040080610f9d565b6105b090610384610f9d565b6105bc6103e885610f9d565b6105c69190610f9d565b6105d09190610fbc565b901c9a9950505050505050505050565b60006105ea6109fc565b905060006103e8600254836105ff9190610f9d565b6106099190610fbc565b9050806001600082825461061d9190610fde565b9091555061062f905061040080610f9d565b61063b90610400610f9d565b61064690601e610f9d565b60015413156106765761065b61040080610f9d565b61066790610400610f9d565b61067290601e610f9d565b6001555b5050565b7f0000000000000000000000000000000000000000000000000000000000000000336001600160a01b038216146106f35760405162461bcd60e51b815260206004820152601f60248201527f53656e64657220646f6573206e6f742068617665207065726d697373696f6e0060448201526064016104b2565b8260055410156107455760405162461bcd60e51b815260206004820152601b60248201527f44617461207375626d697373696f6e206973206e6f742070616964000000000060448201526064016104b2565b60006107518385610f8a565b60045490915061076082610c06565b6000600554600654876107739190610f9d565b61077d9190610fbc565b905080600660008282546107919190610f5b565b9250508190555085600560008282546107aa9190610f5b565b90915550506040516259e96760e81b815260048101839052602481018490527f00000000000000000000000000000000000000000000000000000000000000006001600160a01b0316906359e967009083906044016000604051808303818588803b15801561081857600080fd5b505af115801561082c573d6000803e3d6000fd5b5050505050505050505050565b6108416105e0565b600061084f61010085610f9d565b9050600061085f6103e883610f9d565b9050600061086c836103f8565b9050600061087a8486610f9d565b905060006108888786610f9d565b9050806108958486610f8a565b11156108d85760405162461bcd60e51b8152602060048201526012602482015271115e18d95959081c1c9a58d9481b1a5b5a5d60721b60448201526064016104b2565b60006108f882846108e98789610f8a565b6108f39190610f8a565b610c6c565b90506109048185610c86565b85600160008282546109169190611006565b9091555061092f90508961092a8684610f5b565b610e07565b505050505050505050565b600061094e670de0b6b3a764000083610f9d565b604051631125ae3960e11b8152336004820152602481018290529091507f00000000000000000000000000000000000000000000000000000000000000006001600160a01b03169063224b5c7290604401600060405180830381600087803b1580156109b957600080fd5b505af11580156109cd573d6000803e3d6000fd5b50505050610676826103e8610100856109e69190610f9d565b61092a9190610f9d565b6109f981610c06565b50565b60008054610a0a9042610f5b565b426000556103e802919050565b6000663fffffffffffff821667ffc00000000000008316604084901c60a08110610a475750600019949350505050565b6000610a5284610e3b565b90506640000000000000831615610a79576f8016302f174676283690dfe44d11d00802607f1c5b6680000000000000831615610a9e576f802c6436d0e04f50ff8ce94a6797b3ce02607f1c5b670100000000000000831615610ac4576f8058d7d2d5e5f6b094d589f608ee4aa202607f1c5b670200000000000000831615610aea576f80b1ed4fd999ab6c25335719b6e6fd2002607f1c5b670400000000000000831615610b10576f8164d1f3bc0307737be56527bd14def402607f1c5b670800000000000000831615610b36576f82cd8698ac2ba1d73e2a475b46520bff02607f1c5b671000000000000000831615610b5c576f85aac367cc487b14c5c95b8c2154c1b202607f1c5b672000000000000000831615610b82576f8b95c1e3ea8bd6e6fbe4628758a53c9002607f1c5b674000000000000000831615610ba8576f9837f0518db8a96f46ad23182e42f6f602607f1c5b678000000000000000831615610bce576fb504f333f9de6484597d89b3754abe9f02607f1c5b601f821015610bec57610be282601f610f5b565b81901c9450610bfd565b610bf7601f83610f5b565b81901b94505b50505050919050565b610c0e6105e0565b8060046000828254610c209190610f8a565b90915550610c669050610c3561040080610f9d565b610c40906003610f9d565b610c4c61040080610f9d565b610100600454610c5c9190610f9d565b6108f39190610fbc565b60025550565b6000818310610c7b5781610c7d565b825b90505b92915050565b80821115610d43576001600160a01b037f0000000000000000000000000000000000000000000000000000000000000000166323b872dd3330610cc98587610f5b565b6040516001600160e01b031960e086901b1681526001600160a01b03938416600482015292909116602483015260448201526064016020604051808303816000875af1158015610d1d573d6000803e3d6000fd5b505050506040513d601f19601f82011682018060405250810190610d41919061102d565b505b8015610676576040516323b872dd60e01b81523360048201526001600160a01b037f000000000000000000000000000000000000000000000000000000000000000081166024830152604482018390527f000000000000000000000000000000000000000000000000000000000000000016906323b872dd906064016020604051808303816000875af1158015610dde573d6000803e3d6000fd5b505050506040513d601f19601f82011682018060405250810190610e02919061102d565b505050565b8160056000828254610e199190610f8a565b925050819055508060066000828254610e329190610f8a565b90915550505050565b600081600003610e5057506001607f1b919050565b603f82901b808002607f90811d90818302811d90818402811d906f7afef7fe0b163aa1bc5ac1bb25cd7f2a840260801d6fb17217f7d1cf79abc9e3b39803f2f6af8602821d01600160801b01906006906f55411a850de23ea19af62831983789cb8502901d050160186f3b18024f2eeb657d6633a21fbcc04f158302607f1d050160011c9695505050505050565b600060208284031215610ef057600080fd5b5035919050565b60008060408385031215610f0a57600080fd5b50508035926020909101359150565b600080600060608486031215610f2e57600080fd5b505081359360208301359350604090920135919050565b634e487b7160e01b600052601160045260246000fd5b81810381811115610c8057610c80610f45565b6000600160ff1b8201610f8357610f83610f45565b5060000390565b80820180821115610c8057610c80610f45565b6000816000190483118215151615610fb757610fb7610f45565b500290565b600082610fd957634e487b7160e01b600052601260045260246000fd5b500490565b8082018281126000831280158216821582161715610ffe57610ffe610f45565b505092915050565b818103600083128015838313168383128216171561102657611026610f45565b5092915050565b60006020828403121561103f57600080fd5b8151801515811461104f57600080fd5b939250505056fea2646970667358221220906ebcb52d721737965eb564bd7a930f3b447db8f55d7b3c9656ed56db30c37664736f6c63430008100033",
  "linkReferences": {},
  "deployedLinkReferences": {}
}