{
  "_format": "hh-sol-artifact-1",
  "contractName": "CashierTest",
  "sourceName": "contracts/test/CashierTest.sol",
  "abi": [
    {
      "inputs": [
        {
          "internalType": "address",
          "name": "book",
          "type": "address"
        },
        {
          "internalType": "address",
          "name": "uploadToken",
          "type": "address"
        },
        {
          "internalType": "address",
          "name": "stake",
          "type": "address"
        },
        {
          "internalType": "address",
          "name": "zgsToken_",
          "type": "address"
        }
      ],
      "stateMutability": "payable",
      "type": "constructor"
    },
    {
      "inputs": [
        {
          "internalType": "uint256",
          "name": "beforeLength",
          "type": "uint256"
        },
        {
          "internalType": "uint256",
          "name": "uploadSectors",
          "type": "uint256"
        },
        {
          "internalType": "uint256",
          "name": "paddingSectors",
          "type": "uint256"
        }
      ],
      "name": "chargeFee",
      "outputs": [],
      "stateMutability": "nonpayable",
      "type": "function"
    },
    {
      "inputs": [
        {
          "internalType": "uint256",
          "name": "uploadSectors",
          "type": "uint256"
        },
        {
          "internalType": "uint256",
          "name": "paddingSectors",
          "type": "uint256"
        }
      ],
      "name": "chargeFeeTest",
      "outputs": [],
      "stateMutability": "nonpayable",
      "type": "function"
    },
    {
      "inputs": [
        {
          "internalType": "uint256",
          "name": "purchaseBytes",
          "type": "uint256"
        }
      ],
      "name": "computePriorityFee",
      "outputs": [
        {
          "internalType": "uint256",
          "name": "",
          "type": "uint256"
        }
      ],
      "stateMutability": "view",
      "type": "function"
    },
    {
      "inputs": [
        {
          "internalType": "uint256",
          "name": "sectors",
          "type": "uint256"
        }
      ],
      "name": "consumeUploadToken",
      "outputs": [],
      "stateMutability": "nonpayable",
      "type": "function"
    },
    {
      "inputs": [],
      "name": "drippingRate",
      "outputs": [
        {
          "internalType": "uint256",
          "name": "",
          "type": "uint256"
        }
      ],
      "stateMutability": "view",
      "type": "function"
    },
    {
      "inputs": [],
      "name": "flow",
      "outputs": [
        {
          "internalType": "address",
          "name": "",
          "type": "address"
        }
      ],
      "stateMutability": "view",
      "type": "function"
    },
    {
      "inputs": [],
      "name": "flowLength",
      "outputs": [
        {
          "internalType": "uint256",
          "name": "",
          "type": "uint256"
        }
      ],
      "stateMutability": "view",
      "type": "function"
    },
    {
      "inputs": [],
      "name": "gauge",
      "outputs": [
        {
          "internalType": "int256",
          "name": "",
          "type": "int256"
        }
      ],
      "stateMutability": "view",
      "type": "function"
    },
    {
      "inputs": [],
      "name": "lastUpdate",
      "outputs": [
        {
          "internalType": "uint256",
          "name": "",
          "type": "uint256"
        }
      ],
      "stateMutability": "view",
      "type": "function"
    },
    {
      "inputs": [],
      "name": "mine",
      "outputs": [
        {
          "internalType": "address",
          "name": "",
          "type": "address"
        }
      ],
      "stateMutability": "view",
      "type": "function"
    },
    {
      "inputs": [],
      "name": "paidFee",
      "outputs": [
        {
          "internalType": "uint256",
          "name": "",
          "type": "uint256"
        }
      ],
      "stateMutability": "view",
      "type": "function"
    },
    {
      "inputs": [],
      "name": "paidUploadAmount",
      "outputs": [
        {
          "internalType": "uint256",
          "name": "",
          "type": "uint256"
        }
      ],
      "stateMutability": "view",
      "type": "function"
    },
    {
      "inputs": [
        {
          "internalType": "uint256",
          "name": "sectors",
          "type": "uint256"
        },
        {
          "internalType": "uint256",
          "name": "maxPrice",
          "type": "uint256"
        },
        {
          "internalType": "uint256",
          "name": "maxTipPrice",
          "type": "uint256"
        }
      ],
      "name": "purchase",
      "outputs": [],
      "stateMutability": "payable",
      "type": "function"
    },
    {
      "inputs": [],
      "name": "refreshGauge",
      "outputs": [],
      "stateMutability": "nonpayable",
      "type": "function"
    },
    {
      "inputs": [],
      "name": "reward",
      "outputs": [
        {
          "internalType": "contract IReward",
          "name": "",
          "type": "address"
        }
      ],
      "stateMutability": "view",
      "type": "function"
    },
    {
      "inputs": [
        {
          "internalType": "int256",
          "name": "gauge_",
          "type": "int256"
        }
      ],
      "name": "setGauge",
      "outputs": [],
      "stateMutability": "nonpayable",
      "type": "function"
    },
    {
      "inputs": [],
      "name": "stake",
      "outputs": [
        {
          "internalType": "address",
          "name": "",
          "type": "address"
        }
      ],
      "stateMutability": "view",
      "type": "function"
    },
    {
      "inputs": [
        {
          "internalType": "uint256",
          "name": "sectors",
          "type": "uint256"
        }
      ],
      "name": "updateTotalSubmission",
      "outputs": [],
      "stateMutability": "nonpayable",
      "type": "function"
    },
    {
      "inputs": [],
      "name": "uploadToken",
      "outputs": [
        {
          "internalType": "contract IUploadToken",
          "name": "",
          "type": "address"
        }
      ],
      "stateMutability": "view",
      "type": "function"
    },
    {
      "inputs": [],
      "name": "zgsToken",
      "outputs": [
        {
          "internalType": "contract MockHackToken",
          "name": "",
          "type": "address"
        }
      ],
      "stateMutability": "view",
      "type": "function"
    }
  ],
  "bytecode": "0x610140604052604051620014063803806200140683398101604081905262000027916200020d565b8383836000839050806001600160a01b031663343aad826040518163ffffffff1660e01b8152600401602060405180830381865afa1580156200006e573d6000803e3d6000fd5b505050506040513d601f19601f8201168201806040525081019062000094919062000275565b6001600160a01b031660c0816001600160a01b031681525050806001600160a01b03166399f4b2516040518163ffffffff1660e01b8152600401602060405180830381865afa158015620000ec573d6000803e3d6000fd5b505050506040513d601f19601f8201168201806040525081019062000112919062000275565b6001600160a01b031660e0816001600160a01b031681525050806001600160a01b031663228cb7336040518163ffffffff1660e01b8152600401602060405180830381865afa1580156200016a573d6000803e3d6000fd5b505050506040513d601f19601f8201168201806040525081019062000190919062000275565b6001600160a01b0390811660805283811660a052821661010052620001b4620001d7565b5050506001600160a01b03909216610120525050600160065550620002c4915050565b60008054620001e790426200029c565b426000556103e802919050565b6001600160a01b03811681146200020a57600080fd5b50565b600080600080608085870312156200022457600080fd5b84516200023181620001f4565b60208601519094506200024481620001f4565b60408601519093506200025781620001f4565b60608601519092506200026a81620001f4565b939692955090935050565b6000602082840312156200028857600080fd5b81516200029581620001f4565b9392505050565b81810381811115620002be57634e487b7160e01b600052601160045260246000fd5b92915050565b60805160a05160c05160e05161010051610120516110c86200033e600039600081816101cd01528181610c930152610d9001526000818161024a0152610d610152600061031e015260008181610216015261086f01526000818161029e01526107ea01526000818161018101526109c801526110c86000f3fe60806040526004361061011f5760003560e01c80636e00da94116100a0578063ab378cb711610064578063ab378cb714610369578063c046371114610389578063d6713eb11461039f578063da6eb36a146103b5578063e8aaf7b5146103d557600080fd5b80636e00da94146102e0578063709e5fed146102f657806399f4b2511461030c5780639b8b930514610340578063a6f19c841461035357600080fd5b8063343aad82116100e7578063343aad82146102045780633a4b66f11461023857806346d5b97d1461026c57806347e0a8751461028c5780636348dda1146102c057600080fd5b80630ce6bf7414610124578063178bb4e214610146578063228cb7331461016f5780632782f579146101bb57806329ada121146101ef575b600080fd5b34801561013057600080fd5b5061014461013f366004610f1a565b6103f5565b005b34801561015257600080fd5b5061015c60065481565b6040519081526020015b60405180910390f35b34801561017b57600080fd5b506101a37f000000000000000000000000000000000000000000000000000000000000000081565b6040516001600160a01b039091168152602001610166565b3480156101c757600080fd5b506101a37f000000000000000000000000000000000000000000000000000000000000000081565b3480156101fb57600080fd5b50610144610403565b34801561021057600080fd5b506101a37f000000000000000000000000000000000000000000000000000000000000000081565b34801561024457600080fd5b506101a37f000000000000000000000000000000000000000000000000000000000000000081565b34801561027857600080fd5b5061015c610287366004610f1a565b61049d565b34801561029857600080fd5b506101a37f000000000000000000000000000000000000000000000000000000000000000081565b3480156102cc57600080fd5b506101446102db366004610f33565b610685565b3480156102ec57600080fd5b5061015c60025481565b34801561030257600080fd5b5061015c60045481565b34801561031857600080fd5b506101a37f000000000000000000000000000000000000000000000000000000000000000081565b61014461034e366004610f55565b6106b6565b34801561035f57600080fd5b5061015c60015481565b34801561037557600080fd5b50610144610384366004610f1a565b6107b7565b34801561039557600080fd5b5061015c60035481565b3480156103ab57600080fd5b5061015c60055481565b3480156103c157600080fd5b506101446103d0366004610f55565b61086d565b3480156103e157600080fd5b506101446103f0366004610f1a565b610a37565b6103fd610a5d565b50600155565b600061040d610a5d565b905060006103e8600254836104229190610f97565b61042c9190610fb6565b905080600160008282546104409190610fd8565b90915550610452905061040080610f97565b61045e90610400610f97565b61046990601e610f97565b60015413156104995761047e61040080610f97565b61048a90610400610f97565b61049590601e610f97565b6001555b5050565b600080600080600154126104d6576001548481106104c057506000949350505050565b600092506104ce8186611000565b9150506104f7565b60006001546104e490611013565b92508290506104f3858261102f565b9150505b61050361040080610f97565b61050f90610400610f97565b61051a906064610f97565b8111156105605760405162461bcd60e51b815260206004820152600f60248201526e476175676520756e646572666c6f7760881b60448201526064015b60405180910390fd5b600061056e61040080610f97565b61057a90610384610f97565b61058890604085901b610fb6565b9050600061059861040080610f97565b6105a490610384610f97565b6105b290604085901b610fb6565b90506000600160601b6105cd6105c88585611000565b610a78565b6105d79190611000565b905060006105e484610a78565b90506000600160681b82111561060957610602604083901c84610f97565b9050610634565b600160681b8311156106235761060282604085901c610f97565b604061062f8385610f97565b901c90505b602081901c6060606461064961040080610f97565b61065590610384610f97565b6106616103e885610f97565b61066b9190610f97565b6106759190610fb6565b901c9a9950505050505050505050565b610692600654838361086d565b61069c818361102f565b600660008282546106ad919061102f565b90915550505050565b6106be610403565b60006106cc61010085610f97565b905060006106dc6103e883610f97565b905060006106e98361049d565b905060006106f78486610f97565b905060006107058786610f97565b905080610712848661102f565b11156107555760405162461bcd60e51b8152602060048201526012602482015271115e18d95959081c1c9a58d9481b1a5b5a5d60721b6044820152606401610557565b60006107758284610766878961102f565b610770919061102f565b610c67565b90506107818185610c81565b85600160008282546107939190611042565b909155506107ac9050896107a78684611000565b610e02565b505050505050505050565b60006107cb670de0b6b3a764000083610f97565b604051631125ae3960e11b8152336004820152602481018290529091507f00000000000000000000000000000000000000000000000000000000000000006001600160a01b03169063224b5c7290604401600060405180830381600087803b15801561083657600080fd5b505af115801561084a573d6000803e3d6000fd5b50505050610499826103e8610100856108639190610f97565b6107a79190610f97565b7f0000000000000000000000000000000000000000000000000000000000000000336001600160a01b038216146108e65760405162461bcd60e51b815260206004820152601f60248201527f53656e64657220646f6573206e6f742068617665207065726d697373696f6e006044820152606401610557565b8260045410156109385760405162461bcd60e51b815260206004820152601b60248201527f44617461207375626d697373696f6e206973206e6f74207061696400000000006044820152606401610557565b6000610944838561102f565b90506000610952828761102f565b905061095d81610e2d565b6000600454600554876109709190610f97565b61097a9190610fb6565b9050806005600082825461098e9190611000565b9250508190555085600460008282546109a79190611000565b90915550506040516259e96760e81b815260048101889052602481018490527f00000000000000000000000000000000000000000000000000000000000000006001600160a01b0316906359e967009083906044016000604051808303818588803b158015610a1557600080fd5b505af1158015610a29573d6000803e3d6000fd5b505050505050505050505050565b8060066000828254610a49919061102f565b9091555050600654610a5a90610e2d565b50565b60008054610a6b9042611000565b426000556103e802919050565b6000663fffffffffffff821667ffc00000000000008316604084901c60a08110610aa85750600019949350505050565b6000610ab384610e77565b90506640000000000000831615610ada576f8016302f174676283690dfe44d11d00802607f1c5b6680000000000000831615610aff576f802c6436d0e04f50ff8ce94a6797b3ce02607f1c5b670100000000000000831615610b25576f8058d7d2d5e5f6b094d589f608ee4aa202607f1c5b670200000000000000831615610b4b576f80b1ed4fd999ab6c25335719b6e6fd2002607f1c5b670400000000000000831615610b71576f8164d1f3bc0307737be56527bd14def402607f1c5b670800000000000000831615610b97576f82cd8698ac2ba1d73e2a475b46520bff02607f1c5b671000000000000000831615610bbd576f85aac367cc487b14c5c95b8c2154c1b202607f1c5b672000000000000000831615610be3576f8b95c1e3ea8bd6e6fbe4628758a53c9002607f1c5b674000000000000000831615610c09576f9837f0518db8a96f46ad23182e42f6f602607f1c5b678000000000000000831615610c2f576fb504f333f9de6484597d89b3754abe9f02607f1c5b601f821015610c4d57610c4382601f611000565b81901c9450610c5e565b610c58601f83611000565b81901b94505b50505050919050565b6000818310610c765781610c78565b825b90505b92915050565b80821115610d3e576001600160a01b037f0000000000000000000000000000000000000000000000000000000000000000166323b872dd3330610cc48587611000565b6040516001600160e01b031960e086901b1681526001600160a01b03938416600482015292909116602483015260448201526064016020604051808303816000875af1158015610d18573d6000803e3d6000fd5b505050506040513d601f19601f82011682018060405250810190610d3c9190611069565b505b8015610499576040516323b872dd60e01b81523360048201526001600160a01b037f000000000000000000000000000000000000000000000000000000000000000081166024830152604482018390527f000000000000000000000000000000000000000000000000000000000000000016906323b872dd906064016020604051808303816000875af1158015610dd9573d6000803e3d6000fd5b505050506040513d601f19601f82011682018060405250810190610dfd9190611069565b505050565b8160046000828254610e14919061102f565b9250508190555080600560008282546106ad919061102f565b610e35610403565b610e71610e4461040080610f97565b610e4f906003610f97565b610e5b61040080610f97565b610e6761010085610f97565b6107709190610fb6565b60025550565b600081600003610e8c57506001607f1b919050565b603f82901b808002607f90811d90818302811d90818402811d906f7afef7fe0b163aa1bc5ac1bb25cd7f2a840260801d6fb17217f7d1cf79abc9e3b39803f2f6af8602821d01600160801b01906006906f55411a850de23ea19af62831983789cb8502901d050160186f3b18024f2eeb657d6633a21fbcc04f158302607f1d050160011c9695505050505050565b600060208284031215610f2c57600080fd5b5035919050565b60008060408385031215610f4657600080fd5b50508035926020909101359150565b600080600060608486031215610f6a57600080fd5b505081359360208301359350604090920135919050565b634e487b7160e01b600052601160045260246000fd5b6000816000190483118215151615610fb157610fb1610f81565b500290565b600082610fd357634e487b7160e01b600052601260045260246000fd5b500490565b8082018281126000831280158216821582161715610ff857610ff8610f81565b505092915050565b81810381811115610c7b57610c7b610f81565b6000600160ff1b820161102857611028610f81565b5060000390565b80820180821115610c7b57610c7b610f81565b818103600083128015838313168383128216171561106257611062610f81565b5092915050565b60006020828403121561107b57600080fd5b8151801515811461108b57600080fd5b939250505056fea26469706673582212205d0af61a552892771a5d41d5027f4f8ff44d98c5a8d3534e7fbfc8b2648fa7be64736f6c63430008100033",
  "linkReferences": {},
  "deployedLinkReferences": {}
}