{
  "_format": "hh-sol-artifact-1",
  "contractName": "CashierTest",
  "sourceName": "contracts/test/CashierTest.sol",
  "abi": [
    {
      "inputs": [
        {
          "internalType": "address",
          "name": "zgsToken_",
          "type": "address"
        }
      ],
      "stateMutability": "payable",
      "type": "constructor"
    },
    {
      "inputs": [
        {
          "internalType": "uint256",
          "name": "beforeLength",
          "type": "uint256"
        },
        {
          "internalType": "uint256",
          "name": "uploadSectors",
          "type": "uint256"
        },
        {
          "internalType": "uint256",
          "name": "paddingSectors",
          "type": "uint256"
        }
      ],
      "name": "chargeFee",
      "outputs": [],
      "stateMutability": "nonpayable",
      "type": "function"
    },
    {
      "inputs": [
        {
          "internalType": "uint256",
          "name": "uploadSectors",
          "type": "uint256"
        },
        {
          "internalType": "uint256",
          "name": "paddingSectors",
          "type": "uint256"
        }
      ],
      "name": "chargeFeeTest",
      "outputs": [],
      "stateMutability": "nonpayable",
      "type": "function"
    },
    {
      "inputs": [
        {
          "internalType": "uint256",
          "name": "purchaseBytes",
          "type": "uint256"
        }
      ],
      "name": "computePriorityFee",
      "outputs": [
        {
          "internalType": "uint256",
          "name": "",
          "type": "uint256"
        }
      ],
      "stateMutability": "view",
      "type": "function"
    },
    {
      "inputs": [
        {
          "internalType": "uint256",
          "name": "sectors",
          "type": "uint256"
        }
      ],
      "name": "consumeUploadToken",
      "outputs": [],
      "stateMutability": "nonpayable",
      "type": "function"
    },
    {
      "inputs": [],
      "name": "drippingRate",
      "outputs": [
        {
          "internalType": "uint256",
          "name": "",
          "type": "uint256"
        }
      ],
      "stateMutability": "view",
      "type": "function"
    },
    {
      "inputs": [],
      "name": "flow",
      "outputs": [
        {
          "internalType": "address",
          "name": "",
          "type": "address"
        }
      ],
      "stateMutability": "view",
      "type": "function"
    },
    {
      "inputs": [],
      "name": "flowLength",
      "outputs": [
        {
          "internalType": "uint256",
          "name": "",
          "type": "uint256"
        }
      ],
      "stateMutability": "view",
      "type": "function"
    },
    {
      "inputs": [],
      "name": "gauge",
      "outputs": [
        {
          "internalType": "int256",
          "name": "",
          "type": "int256"
        }
      ],
      "stateMutability": "view",
      "type": "function"
    },
    {
      "inputs": [
        {
          "internalType": "address",
          "name": "flow_",
          "type": "address"
        },
        {
          "internalType": "address",
          "name": "mine_",
          "type": "address"
        },
        {
          "internalType": "address",
          "name": "reward_",
          "type": "address"
        },
        {
          "internalType": "address",
          "name": "uploadToken_",
          "type": "address"
        },
        {
          "internalType": "address",
          "name": "stake_",
          "type": "address"
        }
      ],
      "name": "initialize",
      "outputs": [],
      "stateMutability": "payable",
      "type": "function"
    },
    {
      "inputs": [],
      "name": "initialized",
      "outputs": [
        {
          "internalType": "bool",
          "name": "",
          "type": "bool"
        }
      ],
      "stateMutability": "view",
      "type": "function"
    },
    {
      "inputs": [],
      "name": "lastUpdate",
      "outputs": [
        {
          "internalType": "uint256",
          "name": "",
          "type": "uint256"
        }
      ],
      "stateMutability": "view",
      "type": "function"
    },
    {
      "inputs": [],
      "name": "mine",
      "outputs": [
        {
          "internalType": "address",
          "name": "",
          "type": "address"
        }
      ],
      "stateMutability": "view",
      "type": "function"
    },
    {
      "inputs": [],
      "name": "paidFee",
      "outputs": [
        {
          "internalType": "uint256",
          "name": "",
          "type": "uint256"
        }
      ],
      "stateMutability": "view",
      "type": "function"
    },
    {
      "inputs": [],
      "name": "paidUploadAmount",
      "outputs": [
        {
          "internalType": "uint256",
          "name": "",
          "type": "uint256"
        }
      ],
      "stateMutability": "view",
      "type": "function"
    },
    {
      "inputs": [
        {
          "internalType": "uint256",
          "name": "sectors",
          "type": "uint256"
        },
        {
          "internalType": "uint256",
          "name": "maxPrice",
          "type": "uint256"
        },
        {
          "internalType": "uint256",
          "name": "maxTipPrice",
          "type": "uint256"
        }
      ],
      "name": "purchase",
      "outputs": [],
      "stateMutability": "payable",
      "type": "function"
    },
    {
      "inputs": [],
      "name": "refreshGauge",
      "outputs": [],
      "stateMutability": "nonpayable",
      "type": "function"
    },
    {
      "inputs": [],
      "name": "reward",
      "outputs": [
        {
          "internalType": "contract IReward",
          "name": "",
          "type": "address"
        }
      ],
      "stateMutability": "view",
      "type": "function"
    },
    {
      "inputs": [
        {
          "internalType": "int256",
          "name": "gauge_",
          "type": "int256"
        }
      ],
      "name": "setGauge",
      "outputs": [],
      "stateMutability": "nonpayable",
      "type": "function"
    },
    {
      "inputs": [],
      "name": "stake",
      "outputs": [
        {
          "internalType": "address",
          "name": "",
          "type": "address"
        }
      ],
      "stateMutability": "view",
      "type": "function"
    },
    {
      "inputs": [
        {
          "internalType": "uint256",
          "name": "sectors",
          "type": "uint256"
        }
      ],
      "name": "updateTotalSubmission",
      "outputs": [],
      "stateMutability": "nonpayable",
      "type": "function"
    },
    {
      "inputs": [],
      "name": "uploadToken",
      "outputs": [
        {
          "internalType": "contract IUploadToken",
          "name": "",
          "type": "address"
        }
      ],
      "stateMutability": "view",
      "type": "function"
    },
    {
      "inputs": [],
      "name": "zgsToken",
      "outputs": [
        {
          "internalType": "contract MockHackToken",
          "name": "",
          "type": "address"
        }
      ],
      "stateMutability": "view",
      "type": "function"
    }
  ],
  "bytecode": "0x60a060405260405161123a38038061123a83398101604081905261002291610033565b6001600160a01b0316608052610063565b60006020828403121561004557600080fd5b81516001600160a01b038116811461005c57600080fd5b9392505050565b6080516111ae61008c6000396000818161020c01528181610d130152610df301526111ae6000f3fe6080604052600436106101355760003560e01c80636348dda1116100ab578063a6f19c841161006f578063a6f19c8414610342578063ab378cb714610358578063c046371114610378578063d6713eb11461038e578063da6eb36a146103a4578063e8aaf7b5146103c457600080fd5b80636348dda1146102c35780636e00da94146102e3578063709e5fed146102f957806399f4b2511461030f5780639b8b93051461032f57600080fd5b80632782f579116100fd5780632782f579146101fa57806329ada1211461022e578063343aad82146102435780633a4b66f11461026357806346d5b97d1461028357806347e0a875146102a357600080fd5b80630ce6bf741461013a5780631459457a1461015c578063158ef93e1461016f578063178bb4e21461019e578063228cb733146101c2575b600080fd5b34801561014657600080fd5b5061015a610155366004610f7f565b6103e4565b005b61015a61016a366004610fb4565b6103f2565b34801561017b57600080fd5b506001546101899060ff1681565b60405190151581526020015b60405180910390f35b3480156101aa57600080fd5b506101b4603e5481565b604051908152602001610195565b3480156101ce57600080fd5b506039546101e2906001600160a01b031681565b6040516001600160a01b039091168152602001610195565b34801561020657600080fd5b506101e27f000000000000000000000000000000000000000000000000000000000000000081565b34801561023a57600080fd5b5061015a61047a565b34801561024f57600080fd5b50603b546101e2906001600160a01b031681565b34801561026f57600080fd5b50603d546101e2906001600160a01b031681565b34801561028f57600080fd5b506101b461029e366004610f7f565b610514565b3480156102af57600080fd5b50603a546101e2906001600160a01b031681565b3480156102cf57600080fd5b5061015a6102de366004611019565b6106f7565b3480156102ef57600080fd5b506101b460355481565b34801561030557600080fd5b506101b460375481565b34801561031b57600080fd5b50603c546101e2906001600160a01b031681565b61015a61033d36600461103b565b610728565b34801561034e57600080fd5b506101b460345481565b34801561036457600080fd5b5061015a610373366004610f7f565b610829565b34801561038457600080fd5b506101b460365481565b34801561039a57600080fd5b506101b460385481565b3480156103b057600080fd5b5061015a6103bf36600461103b565b6108c1565b3480156103d057600080fd5b5061015a6103df366004610f7f565b610a51565b6103ec610a77565b50603455565b60015460ff16156104555760405162461bcd60e51b815260206004820152602260248201527f496e697469616c697a61626c653a20616c726561647920696e697469616c697a604482015261195960f21b60648201526084015b60405180910390fd5b6001805460ff19168117905561046e8585858585610a92565b50506001603e55505050565b6000610484610a77565b905060006103e860355483610499919061107d565b6104a3919061109c565b905080603460008282546104b791906110be565b909155506104c990506104008061107d565b6104d59061040061107d565b6104e090601e61107d565b6034541315610510576104f56104008061107d565b6105019061040061107d565b61050c90601e61107d565b6034555b5050565b6000806000806034541261054d5760345484811061053757506000949350505050565b6000925061054581866110e6565b91505061056e565b600060345461055b906110f9565b925082905061056a8582611115565b9150505b61057a6104008061107d565b6105869061040061107d565b61059190606461107d565b8111156105d25760405162461bcd60e51b815260206004820152600f60248201526e476175676520756e646572666c6f7760881b604482015260640161044c565b60006105e06104008061107d565b6105ec9061038461107d565b6105fa90604085901b61109c565b9050600061060a6104008061107d565b6106169061038461107d565b61062490604085901b61109c565b90506000600160601b61063f61063a85856110e6565b610af8565b61064991906110e6565b9050600061065684610af8565b90506000600160681b82111561067b57610674604083901c8461107d565b90506106a6565b600160681b8311156106955761067482604085901c61107d565b60406106a1838561107d565b901c90505b602081901c606060646106bb6104008061107d565b6106c79061038461107d565b6106d36103e88561107d565b6106dd919061107d565b6106e7919061109c565b901c9a9950505050505050505050565b610704603e5483836108c1565b61070e8183611115565b603e600082825461071f9190611115565b90915550505050565b61073061047a565b600061073e6101008561107d565b9050600061074e6103e88361107d565b9050600061075b83610514565b90506000610769848661107d565b90506000610777878661107d565b9050806107848486611115565b11156107c75760405162461bcd60e51b8152602060048201526012602482015271115e18d95959081c1c9a58d9481b1a5b5a5d60721b604482015260640161044c565b60006107e782846107d88789611115565b6107e29190611115565b610ce7565b90506107f38185610d01565b85603460008282546108059190611128565b9091555061081e90508961081986846110e6565b610e67565b505050505050505050565b600061083d670de0b6b3a76400008361107d565b603a54604051631125ae3960e11b8152336004820152602481018390529192506001600160a01b03169063224b5c7290604401600060405180830381600087803b15801561088a57600080fd5b505af115801561089e573d6000803e3d6000fd5b50505050610510826103e8610100856108b7919061107d565b610819919061107d565b603b546001600160a01b031633811461091c5760405162461bcd60e51b815260206004820152601f60248201527f53656e64657220646f6573206e6f742068617665207065726d697373696f6e00604482015260640161044c565b82603754101561096e5760405162461bcd60e51b815260206004820152601b60248201527f44617461207375626d697373696f6e206973206e6f7420706169640000000000604482015260640161044c565b600061097a8385611115565b905060006109888287611115565b905061099381610e92565b6000603754603854876109a6919061107d565b6109b0919061109c565b905080603860008282546109c491906110e6565b9250508190555085603760008282546109dd91906110e6565b90915550506039546040516259e96760e81b815260048101899052602481018590526001600160a01b03909116906359e967009083906044016000604051808303818588803b158015610a2f57600080fd5b505af1158015610a43573d6000803e3d6000fd5b505050505050505050505050565b80603e6000828254610a639190611115565b9091555050603e54610a7490610e92565b50565b60008054610a8590426110e6565b426000556103e802919050565b603b80546001600160a01b03199081166001600160a01b0388811691909117909255603c80548216878416179055603980548216868416179055603a80548216858416179055603d8054909116918316919091179055610af0610a77565b505050505050565b6000663fffffffffffff821667ffc00000000000008316604084901c60a08110610b285750600019949350505050565b6000610b3384610edc565b90506640000000000000831615610b5a576f8016302f174676283690dfe44d11d00802607f1c5b6680000000000000831615610b7f576f802c6436d0e04f50ff8ce94a6797b3ce02607f1c5b670100000000000000831615610ba5576f8058d7d2d5e5f6b094d589f608ee4aa202607f1c5b670200000000000000831615610bcb576f80b1ed4fd999ab6c25335719b6e6fd2002607f1c5b670400000000000000831615610bf1576f8164d1f3bc0307737be56527bd14def402607f1c5b670800000000000000831615610c17576f82cd8698ac2ba1d73e2a475b46520bff02607f1c5b671000000000000000831615610c3d576f85aac367cc487b14c5c95b8c2154c1b202607f1c5b672000000000000000831615610c63576f8b95c1e3ea8bd6e6fbe4628758a53c9002607f1c5b674000000000000000831615610c89576f9837f0518db8a96f46ad23182e42f6f602607f1c5b678000000000000000831615610caf576fb504f333f9de6484597d89b3754abe9f02607f1c5b601f821015610ccd57610cc382601f6110e6565b81901c9450610cde565b610cd8601f836110e6565b81901b94505b50505050919050565b6000818310610cf65781610cf8565b825b90505b92915050565b80821115610dbe576001600160a01b037f0000000000000000000000000000000000000000000000000000000000000000166323b872dd3330610d4485876110e6565b6040516001600160e01b031960e086901b1681526001600160a01b03938416600482015292909116602483015260448201526064016020604051808303816000875af1158015610d98573d6000803e3d6000fd5b505050506040513d601f19601f82011682018060405250810190610dbc919061114f565b505b801561051057603d546040516323b872dd60e01b81523360048201526001600160a01b039182166024820152604481018390527f0000000000000000000000000000000000000000000000000000000000000000909116906323b872dd906064016020604051808303816000875af1158015610e3e573d6000803e3d6000fd5b505050506040513d601f19601f82011682018060405250810190610e62919061114f565b505050565b8160376000828254610e799190611115565b92505081905550806038600082825461071f9190611115565b610e9a61047a565b610ed6610ea96104008061107d565b610eb490600361107d565b610ec06104008061107d565b610ecc6101008561107d565b6107e2919061109c565b60355550565b600081600003610ef157506001607f1b919050565b603f82901b808002607f90811d90818302811d90818402811d906f7afef7fe0b163aa1bc5ac1bb25cd7f2a840260801d6fb17217f7d1cf79abc9e3b39803f2f6af8602821d01600160801b01906006906f55411a850de23ea19af62831983789cb8502901d050160186f3b18024f2eeb657d6633a21fbcc04f158302607f1d050160011c9695505050505050565b600060208284031215610f9157600080fd5b5035919050565b80356001600160a01b0381168114610faf57600080fd5b919050565b600080600080600060a08688031215610fcc57600080fd5b610fd586610f98565b9450610fe360208701610f98565b9350610ff160408701610f98565b9250610fff60608701610f98565b915061100d60808701610f98565b90509295509295909350565b6000806040838503121561102c57600080fd5b50508035926020909101359150565b60008060006060848603121561105057600080fd5b505081359360208301359350604090920135919050565b634e487b7160e01b600052601160045260246000fd5b600081600019048311821515161561109757611097611067565b500290565b6000826110b957634e487b7160e01b600052601260045260246000fd5b500490565b80820182811260008312801582168215821617156110de576110de611067565b505092915050565b81810381811115610cfb57610cfb611067565b6000600160ff1b820161110e5761110e611067565b5060000390565b80820180821115610cfb57610cfb611067565b818103600083128015838313168383128216171561114857611148611067565b5092915050565b60006020828403121561116157600080fd5b8151801515811461117157600080fd5b939250505056fea26469706673582212200ade9046847b5c04f75e8c96175159ecf5e2914cc0d60a835f336e5d551e621c64736f6c63430008100033",
  "linkReferences": {},
  "deployedLinkReferences": {}
}