{
  "_format": "hh-sol-artifact-1",
  "contractName": "CashierTest",
  "sourceName": "contracts/test/CashierTest.sol",
  "abi": [
    {
      "inputs": [
        {
          "internalType": "address",
          "name": "zgsToken",
          "type": "address"
        },
        {
          "internalType": "address",
          "name": "uploadToken",
          "type": "address"
        },
        {
          "internalType": "address",
          "name": "flow",
          "type": "address"
        },
        {
          "internalType": "address",
          "name": "mine",
          "type": "address"
        },
        {
          "internalType": "address",
          "name": "stake",
          "type": "address"
        }
      ],
      "stateMutability": "nonpayable",
      "type": "constructor"
    },
    {
      "inputs": [
        {
          "internalType": "uint256",
          "name": "uploadSectors",
          "type": "uint256"
        },
        {
          "internalType": "uint256",
          "name": "paddingSectors",
          "type": "uint256"
        }
      ],
      "name": "chargeFee",
      "outputs": [],
      "stateMutability": "nonpayable",
      "type": "function"
    },
    {
      "inputs": [
        {
          "internalType": "uint256",
          "name": "pricingIndex",
          "type": "uint256"
        },
        {
          "internalType": "address",
          "name": "beneficiary",
          "type": "address"
        }
      ],
      "name": "claimMineReward",
      "outputs": [],
      "stateMutability": "nonpayable",
      "type": "function"
    },
    {
      "inputs": [
        {
          "internalType": "uint256",
          "name": "purchaseBytes",
          "type": "uint256"
        }
      ],
      "name": "computePriorityFee",
      "outputs": [
        {
          "internalType": "uint256",
          "name": "",
          "type": "uint256"
        }
      ],
      "stateMutability": "view",
      "type": "function"
    },
    {
      "inputs": [
        {
          "internalType": "uint256",
          "name": "sectors",
          "type": "uint256"
        }
      ],
      "name": "consumeUploadToken",
      "outputs": [],
      "stateMutability": "nonpayable",
      "type": "function"
    },
    {
      "inputs": [],
      "name": "drippingRate",
      "outputs": [
        {
          "internalType": "uint256",
          "name": "",
          "type": "uint256"
        }
      ],
      "stateMutability": "view",
      "type": "function"
    },
    {
      "inputs": [],
      "name": "flow",
      "outputs": [
        {
          "internalType": "address",
          "name": "",
          "type": "address"
        }
      ],
      "stateMutability": "view",
      "type": "function"
    },
    {
      "inputs": [],
      "name": "flowLength",
      "outputs": [
        {
          "internalType": "uint256",
          "name": "",
          "type": "uint256"
        }
      ],
      "stateMutability": "view",
      "type": "function"
    },
    {
      "inputs": [],
      "name": "gauge",
      "outputs": [
        {
          "internalType": "int256",
          "name": "",
          "type": "int256"
        }
      ],
      "stateMutability": "view",
      "type": "function"
    },
    {
      "inputs": [],
      "name": "getFlowLength",
      "outputs": [
        {
          "internalType": "uint256",
          "name": "",
          "type": "uint256"
        }
      ],
      "stateMutability": "view",
      "type": "function"
    },
    {
      "inputs": [],
      "name": "lastUpdate",
      "outputs": [
        {
          "internalType": "uint256",
          "name": "",
          "type": "uint256"
        }
      ],
      "stateMutability": "view",
      "type": "function"
    },
    {
      "inputs": [],
      "name": "mine",
      "outputs": [
        {
          "internalType": "address",
          "name": "",
          "type": "address"
        }
      ],
      "stateMutability": "view",
      "type": "function"
    },
    {
      "inputs": [],
      "name": "paidFee",
      "outputs": [
        {
          "internalType": "uint256",
          "name": "",
          "type": "uint256"
        }
      ],
      "stateMutability": "view",
      "type": "function"
    },
    {
      "inputs": [],
      "name": "paidUploadAmount",
      "outputs": [
        {
          "internalType": "uint256",
          "name": "",
          "type": "uint256"
        }
      ],
      "stateMutability": "view",
      "type": "function"
    },
    {
      "inputs": [
        {
          "internalType": "uint256",
          "name": "sectors",
          "type": "uint256"
        },
        {
          "internalType": "uint256",
          "name": "maxPrice",
          "type": "uint256"
        },
        {
          "internalType": "uint256",
          "name": "maxTipPrice",
          "type": "uint256"
        }
      ],
      "name": "purchase",
      "outputs": [],
      "stateMutability": "nonpayable",
      "type": "function"
    },
    {
      "inputs": [
        {
          "internalType": "uint256",
          "name": "",
          "type": "uint256"
        }
      ],
      "name": "rewards",
      "outputs": [
        {
          "internalType": "uint104",
          "name": "lockedReward",
          "type": "uint104"
        },
        {
          "internalType": "uint104",
          "name": "claimableReward",
          "type": "uint104"
        },
        {
          "internalType": "uint48",
          "name": "timestamp",
          "type": "uint48"
        }
      ],
      "stateMutability": "view",
      "type": "function"
    },
    {
      "inputs": [
        {
          "internalType": "int256",
          "name": "gauge_",
          "type": "int256"
        }
      ],
      "name": "setGauge",
      "outputs": [],
      "stateMutability": "nonpayable",
      "type": "function"
    },
    {
      "inputs": [],
      "name": "stake",
      "outputs": [
        {
          "internalType": "address",
          "name": "",
          "type": "address"
        }
      ],
      "stateMutability": "view",
      "type": "function"
    },
    {
      "inputs": [],
      "name": "updateGauge",
      "outputs": [],
      "stateMutability": "nonpayable",
      "type": "function"
    },
    {
      "inputs": [
        {
          "internalType": "uint256",
          "name": "sectors",
          "type": "uint256"
        }
      ],
      "name": "updateTotalSubmission",
      "outputs": [],
      "stateMutability": "nonpayable",
      "type": "function"
    },
    {
      "inputs": [],
      "name": "uploadToken",
      "outputs": [
        {
          "internalType": "contract IUploadToken",
          "name": "",
          "type": "address"
        }
      ],
      "stateMutability": "view",
      "type": "function"
    },
    {
      "inputs": [],
      "name": "zgsToken",
      "outputs": [
        {
          "internalType": "contract ISafeERC20",
          "name": "",
          "type": "address"
        }
      ],
      "stateMutability": "view",
      "type": "function"
    }
  ],
  "bytecode": "0x6101206040523480156200001257600080fd5b5060405162001b5b38038062001b5b8339810160408190526200003591620000ba565b6001600160a01b0380861660805280851660a05280841660c05280831660e052811661010052600160045584848484846200006f62000080565b505050505050505050505062000152565b600080546200009090426200012a565b426000556103e802919050565b80516001600160a01b0381168114620000b557600080fd5b919050565b600080600080600060a08688031215620000d357600080fd5b620000de866200009d565b9450620000ee602087016200009d565b9350620000fe604087016200009d565b92506200010e606087016200009d565b91506200011e608087016200009d565b90509295509295909350565b818103818111156200014c57634e487b7160e01b600052601160045260246000fd5b92915050565b60805160a05160c05160e05161010051611993620001c8600039600081816101d80152610c5201526000818161026e0152610dde0152600081816101b101526105fd0152600081816102120152610d5901526000818161017201528181610b8401528181610c810152610e9501526119936000f3fe608060405234801561001057600080fd5b50600436106101375760003560e01c80637fdeaa85116100b8578063ab378cb71161007c578063ab378cb7146102ac578063c0463711146102bf578063ccec92c4146102c8578063d6713eb1146102db578063e8aaf7b5146102e4578063f301af42146102f757600080fd5b80637fdeaa851461024e578063881fa03c1461025657806399f4b251146102695780639b8b930514610290578063a6f19c84146102a357600080fd5b806346d5b97d116100ff57806346d5b97d146101fa57806347e0a8751461020d5780636e00da9414610234578063709e5fed1461023d57806379c797071461024657600080fd5b80630ce6bf741461013c578063178bb4e2146101515780632782f5791461016d578063343aad82146101ac5780633a4b66f1146101d3575b600080fd5b61014f61014a36600461170e565b61036b565b005b61015a60045481565b6040519081526020015b60405180910390f35b6101947f000000000000000000000000000000000000000000000000000000000000000081565b6040516001600160a01b039091168152602001610164565b6101947f000000000000000000000000000000000000000000000000000000000000000081565b6101947f000000000000000000000000000000000000000000000000000000000000000081565b61015a61020836600461170e565b610379565b6101947f000000000000000000000000000000000000000000000000000000000000000081565b61015a60025481565b61015a60055481565b61014f610561565b60045461015a565b61014f610264366004611727565b6105fb565b6101947f000000000000000000000000000000000000000000000000000000000000000081565b61014f61029e366004611749565b610ab1565b61015a60015481565b61014f6102ba36600461170e565b610d26565b61015a60035481565b61014f6102d6366004611775565b610ddc565b61015a60065481565b61014f6102f236600461170e565b610f0b565b61033d61030536600461170e565b6007602052600090815260409020546001600160681b0380821691600160681b810490911690600160d01b900465ffffffffffff1683565b604080516001600160681b03948516815293909216602084015265ffffffffffff1690820152606001610164565b610373610f17565b50600155565b600080600080600154126103b25760015484811061039c57506000949350505050565b600092506103aa81866117c7565b9150506103d3565b60006001546103c0906117da565b92508290506103cf85826117f6565b9150505b6103df61040080611809565b6103eb90610400611809565b6103f6906064611809565b81111561043c5760405162461bcd60e51b815260206004820152600f60248201526e476175676520756e646572666c6f7760881b60448201526064015b60405180910390fd5b600061044a61040080611809565b61045690610384611809565b61046490604085901b61183e565b9050600061047461040080611809565b61048090610384611809565b61048e90604085901b61183e565b90506000600160601b6104a96104a485856117c7565b610f32565b6104b391906117c7565b905060006104c084610f32565b90506000600160681b8211156104e5576104de604083901c84611809565b9050610510565b600160681b8311156104ff576104de82604085901c611809565b604061050b8385611809565b901c90505b602081901c6060606461052561040080611809565b61053190610384611809565b61053d6103e885611809565b6105479190611809565b610551919061183e565b901c9a9950505050505050505050565b600061056b610f17565b905060006103e8600254836105809190611809565b61058a919061183e565b9050806001600082825461059e9190611852565b909155506105b0905061040080611809565b6105bc90610400611809565b6105c790601e611809565b60015413156105f7576105dc61040080611809565b6105e890610400611809565b6105f390601e611809565b6001555b5050565b7f0000000000000000000000000000000000000000000000000000000000000000336001600160a01b038216146106745760405162461bcd60e51b815260206004820152601f60248201527f53656e64657220646f6573206e6f742068617665207065726d697373696f6e006044820152606401610433565b8260055410156106c65760405162461bcd60e51b815260206004820152601b60248201527f44617461207375626d697373696f6e206973206e6f74207061696400000000006044820152606401610433565b60006106d283856117f6565b6004549091506106e182611101565b600454600554600654600091906106f89089611809565b610702919061183e565b9050806006600082825461071691906117c7565b92505081905550866005600082825461072f91906117c7565b90915550600090508461010061074761040080611809565b61075390610400611809565b61075e906008611809565b610768919061183e565b6107729084611809565b61077c919061183e565b9050600061010061078f61040080611809565b61079b90610400611809565b6107a6906008611809565b6107b0919061183e565b6107ba908661187a565b6101006107c961040080611809565b6107d590610400611809565b6107e0906008611809565b6107ea919061183e565b6107f491906117c7565b90506000600161010061080961040080611809565b61081590610400611809565b610820906008611809565b61082a919061183e565b61083484896117f6565b61083e919061183e565b61084891906117c7565b9050600061010061085b61040080611809565b61086790610400611809565b610872906008611809565b61087c919061183e565b6108876001886117c7565b610891919061187a565b61089c9060016117f6565b905060006101006108af61040080611809565b6108bb90610400611809565b6108c6906008611809565b6108d0919061183e565b6108da83896117c7565b6108e4919061183e565b905060006101006108f761040080611809565b61090390610400611809565b61090e906008611809565b610918919061183e565b6109238360016117f6565b61092d9190611809565b881490508184036109a35761099e61010061094a61040080611809565b61095690610400611809565b610961906008611809565b61096b919061183e565b6109758b8b6117c7565b61097f9089611809565b610989919061183e565b60008681526007602052604090209083611167565b610aa2565b610a006101006109b561040080611809565b6109c190610400611809565b6109cc906008611809565b6109d6919061183e565b6109e08789611809565b6109ea919061183e565b6000868152600760205260409020906001611167565b610a5c610100610a1261040080611809565b610a1e90610400611809565b610a29906008611809565b610a33919061183e565b610a3d8589611809565b610a47919061183e565b60008481526007602052604090209083611167565b6000610a698560016117f6565b90505b82811015610aa0576000818152600760205260409020610a8e90886001611167565b80610a988161188e565b915050610a6c565b505b50505050505050505050505050565b610ab9610561565b6000610ac761010085611809565b90506000610ad76103e883611809565b90506000610ae483610379565b90506000610af28486611809565b90506000610b008786611809565b905080610b0d84866117f6565b1115610b505760405162461bcd60e51b8152602060048201526012602482015271115e18d95959081c1c9a58d9481b1a5b5a5d60721b6044820152606401610433565b6000610b708284610b6187896117f6565b610b6b91906117f6565b611278565b905083811115610c2f576001600160a01b037f0000000000000000000000000000000000000000000000000000000000000000166323b872dd3330610bb588866117c7565b6040516001600160e01b031960e086901b1681526001600160a01b03938416600482015292909116602483015260448201526064016020604051808303816000875af1158015610c09573d6000803e3d6000fd5b505050506040513d601f19601f82011682018060405250810190610c2d91906118a7565b505b8315610cf0576040516323b872dd60e01b81523360048201526001600160a01b037f000000000000000000000000000000000000000000000000000000000000000081166024830152604482018690527f000000000000000000000000000000000000000000000000000000000000000016906323b872dd906064016020604051808303816000875af1158015610cca573d6000803e3d6000fd5b505050506040513d601f19601f82011682018060405250810190610cee91906118a7565b505b8560016000828254610d0291906118d0565b90915550610d1b905089610d1686846117c7565b611292565b505050505050505050565b6000610d3a670de0b6b3a764000083611809565b604051631125ae3960e11b8152336004820152602481018290529091507f00000000000000000000000000000000000000000000000000000000000000006001600160a01b03169063224b5c7290604401600060405180830381600087803b158015610da557600080fd5b505af1158015610db9573d6000803e3d6000fd5b505050506105f7826103e861010085610dd29190611809565b610d169190611809565b7f0000000000000000000000000000000000000000000000000000000000000000336001600160a01b03821614610e555760405162461bcd60e51b815260206004820152601f60248201527f53656e64657220646f6573206e6f742068617665207065726d697373696f6e006044820152606401610433565b6000838152600760205260408120610e6c906112c6565b60405163a9059cbb60e01b81526001600160a01b038581166004830152602482018390529192507f00000000000000000000000000000000000000000000000000000000000000009091169063a9059cbb906044016020604051808303816000875af1158015610ee0573d6000803e3d6000fd5b505050506040513d601f19601f82011682018060405250810190610f0491906118a7565b5050505050565b610f1481611101565b50565b60008054610f2590426117c7565b426000556103e802919050565b6000663fffffffffffff821667ffc00000000000008316604084901c60a08110610f625750600019949350505050565b6000610f6d846114cc565b90506640000000000000831615610f94576f8016302f174676283690dfe44d11d00802607f1c5b6680000000000000831615610fb9576f802c6436d0e04f50ff8ce94a6797b3ce02607f1c5b600160381b831615610fdb576f8058d7d2d5e5f6b094d589f608ee4aa202607f1c5b600160391b831615610ffd576f80b1ed4fd999ab6c25335719b6e6fd2002607f1c5b6001603a1b83161561101f576f8164d1f3bc0307737be56527bd14def402607f1c5b6001603b1b831615611041576f82cd8698ac2ba1d73e2a475b46520bff02607f1c5b6001603c1b831615611063576f85aac367cc487b14c5c95b8c2154c1b202607f1c5b6001603d1b831615611085576f8b95c1e3ea8bd6e6fbe4628758a53c9002607f1c5b6001603e1b8316156110a7576f9837f0518db8a96f46ad23182e42f6f602607f1c5b6001603f1b8316156110c9576fb504f333f9de6484597d89b3754abe9f02607f1c5b601f8210156110e7576110dd82601f6117c7565b81901c94506110f8565b6110f2601f836117c7565b81901b94505b50505050919050565b611109610561565b806004600082825461111b91906117f6565b90915550611161905061113061040080611809565b61113b906003611809565b61114761040080611809565b6101006004546111579190611809565b610b6b919061183e565b60025550565b6001600160681b038211156111b05760405162461bcd60e51b815260206004820152600f60248201526e526577617264206f766572666c6f7760881b6044820152606401610433565b8254600160d01b900465ffffffffffff161561120e5760405162461bcd60e51b815260206004820152601960248201527f52657761726420686173206265656e2066696e616c697a6564000000000000006044820152606401610433565b82548290849060009061122b9084906001600160681b03166118f7565b92506101000a8154816001600160681b0302191690836001600160681b0316021790555080156112735782546001600160d01b0316600160d01b4265ffffffffffff16021783555b505050565b60008183106112875781611289565b825b90505b92915050565b81600560008282546112a491906117f6565b9250508190555080600660008282546112bd91906117f6565b90915550505050565b8054600090600160d01b900465ffffffffffff1681036112e857506000919050565b815460009061130690600160d01b900465ffffffffffff16426117c7565b611312906103e8611809565b90506000606461132761016d62015180611809565b611333906103e8611809565b6113468468010000000000000000611809565b611351906004611809565b61135b919061183e565b611365919061183e565b905060006113728261156f565b61138090600160601b6117c7565b8554909150600090600160601b906113a1906001600160681b031684611809565b6113ab919061183e565b8654909150819087906000906113cb9084906001600160681b0316611917565b92506101000a8154816001600160681b0302191690836001600160681b031602179055508086600001600d8282829054906101000a90046001600160681b031661141591906118f7565b82546101009290920a6001600160681b0381810219909316918316021790915587546001600160d01b0316600160d01b4265ffffffffffff1602178089556000925061146b91600291600160681b900416611937565b875490915081908890600d90611492908490600160681b90046001600160681b0316611917565b92506101000a8154816001600160681b0302191690836001600160681b03160217905550806001600160681b031695505050505050919050565b6000816000036114e157506001607f1b919050565b603f82901b808002607f90811d90818302811d90818402811d906f7afef7fe0b163aa1bc5ac1bb25cd7f2a840260801d6fb17217f7d1cf79abc9e3b39803f2f6af8602821d01600160801b01906006906f55411a850de23ea19af62831983789cb8502901d050160186f3b18024f2eeb657d6633a21fbcc04f158302607f1d050160011c9695505050505050565b6000663fffffffffffff821667ffc00000000000008316604084901c8361159d611598856117da565b6114cc565b905066400000000000008316156115c4576fffd3a751c0f7e10bd3b9f8ae012fbe060260801c5b66800000000000008316156115e9576fffa756521c8daed19f3a1b48fb94c5890260801c5b600160381b83161561160b576fff4ecb59511ec8a5301ba217ef18dd7c0260801c5b600160391b83161561162d576ffe9e115c7b8f884badd25995e79d2f090260801c5b6001603a1b83161561164f576ffd3e0c0cf486c174853f3a5931e0ee030260801c5b6001603b1b831615611671576ffa83b2db722a033a7c25bb14315d7fcc0260801c5b6001603c1b831615611693576ff5257d152486cc2c7b9d0c7aed980fc30260801c5b6001603d1b8316156116b5576feac0c6e7dd24392ed02d75b3706e54fa0260801c5b6001603e1b8316156116d7576fd744fccad69d6af439a68bb9902d3fde0260801c5b6001603f1b8316156116f9576fb504f333f9de6484597d89b3754abe9f0260801c5b61170482601f6117f6565b1c95945050505050565b60006020828403121561172057600080fd5b5035919050565b6000806040838503121561173a57600080fd5b50508035926020909101359150565b60008060006060848603121561175e57600080fd5b505081359360208301359350604090920135919050565b6000806040838503121561178857600080fd5b8235915060208301356001600160a01b03811681146117a657600080fd5b809150509250929050565b634e487b7160e01b600052601160045260246000fd5b8181038181111561128c5761128c6117b1565b6000600160ff1b82016117ef576117ef6117b1565b5060000390565b8082018082111561128c5761128c6117b1565b6000816000190483118215151615611823576118236117b1565b500290565b634e487b7160e01b600052601260045260246000fd5b60008261184d5761184d611828565b500490565b8082018281126000831280158216821582161715611872576118726117b1565b505092915050565b60008261188957611889611828565b500690565b6000600182016118a0576118a06117b1565b5060010190565b6000602082840312156118b957600080fd5b815180151581146118c957600080fd5b9392505050565b81810360008312801583831316838312821617156118f0576118f06117b1565b5092915050565b6001600160681b038181168382160190808211156118f0576118f06117b1565b6001600160681b038281168282160390808211156118f0576118f06117b1565b60006001600160681b038084168061195157611951611828565b9216919091049291505056fea26469706673582212205a064e4c423c142fe758809d58baf3ea04cb45d3c2c8b61ea1e6e1d74718d06e64736f6c63430008100033",
  "linkReferences": {},
  "deployedLinkReferences": {}
}