{
  "_format": "hh-sol-artifact-1",
  "contractName": "CashierTest",
  "sourceName": "contracts/test/CashierTest.sol",
  "abi": [
    {
      "inputs": [
        {
          "internalType": "address",
          "name": "zgsToken_",
          "type": "address"
        }
      ],
      "stateMutability": "payable",
      "type": "constructor"
    },
    {
      "inputs": [
        {
          "internalType": "uint256",
          "name": "beforeLength",
          "type": "uint256"
        },
        {
          "internalType": "uint256",
          "name": "uploadSectors",
          "type": "uint256"
        },
        {
          "internalType": "uint256",
          "name": "paddingSectors",
          "type": "uint256"
        }
      ],
      "name": "chargeFee",
      "outputs": [],
      "stateMutability": "nonpayable",
      "type": "function"
    },
    {
      "inputs": [
        {
          "internalType": "uint256",
          "name": "uploadSectors",
          "type": "uint256"
        },
        {
          "internalType": "uint256",
          "name": "paddingSectors",
          "type": "uint256"
        }
      ],
      "name": "chargeFeeTest",
      "outputs": [],
      "stateMutability": "nonpayable",
      "type": "function"
    },
    {
      "inputs": [
        {
          "internalType": "uint256",
          "name": "purchaseBytes",
          "type": "uint256"
        }
      ],
      "name": "computePriorityFee",
      "outputs": [
        {
          "internalType": "uint256",
          "name": "",
          "type": "uint256"
        }
      ],
      "stateMutability": "view",
      "type": "function"
    },
    {
      "inputs": [
        {
          "internalType": "uint256",
          "name": "sectors",
          "type": "uint256"
        }
      ],
      "name": "consumeUploadToken",
      "outputs": [],
      "stateMutability": "nonpayable",
      "type": "function"
    },
    {
      "inputs": [],
      "name": "drippingRate",
      "outputs": [
        {
          "internalType": "uint256",
          "name": "",
          "type": "uint256"
        }
      ],
      "stateMutability": "view",
      "type": "function"
    },
    {
      "inputs": [],
      "name": "flow",
      "outputs": [
        {
          "internalType": "address",
          "name": "",
          "type": "address"
        }
      ],
      "stateMutability": "view",
      "type": "function"
    },
    {
      "inputs": [],
      "name": "flowLength",
      "outputs": [
        {
          "internalType": "uint256",
          "name": "",
          "type": "uint256"
        }
      ],
      "stateMutability": "view",
      "type": "function"
    },
    {
      "inputs": [],
      "name": "gauge",
      "outputs": [
        {
          "internalType": "int256",
          "name": "",
          "type": "int256"
        }
      ],
      "stateMutability": "view",
      "type": "function"
    },
    {
      "inputs": [
        {
          "internalType": "address",
          "name": "flow_",
          "type": "address"
        },
        {
          "internalType": "address",
          "name": "mine_",
          "type": "address"
        },
        {
          "internalType": "address",
          "name": "reward_",
          "type": "address"
        },
        {
          "internalType": "address",
          "name": "uploadToken_",
          "type": "address"
        },
        {
          "internalType": "address",
          "name": "stake_",
          "type": "address"
        }
      ],
      "name": "initialize",
      "outputs": [],
      "stateMutability": "payable",
      "type": "function"
    },
    {
      "inputs": [],
      "name": "initialized",
      "outputs": [
        {
          "internalType": "bool",
          "name": "",
          "type": "bool"
        }
      ],
      "stateMutability": "view",
      "type": "function"
    },
    {
      "inputs": [],
      "name": "lastUpdate",
      "outputs": [
        {
          "internalType": "uint256",
          "name": "",
          "type": "uint256"
        }
      ],
      "stateMutability": "view",
      "type": "function"
    },
    {
      "inputs": [],
      "name": "mine",
      "outputs": [
        {
          "internalType": "address",
          "name": "",
          "type": "address"
        }
      ],
      "stateMutability": "view",
      "type": "function"
    },
    {
      "inputs": [],
      "name": "paidFee",
      "outputs": [
        {
          "internalType": "uint256",
          "name": "",
          "type": "uint256"
        }
      ],
      "stateMutability": "view",
      "type": "function"
    },
    {
      "inputs": [],
      "name": "paidUploadAmount",
      "outputs": [
        {
          "internalType": "uint256",
          "name": "",
          "type": "uint256"
        }
      ],
      "stateMutability": "view",
      "type": "function"
    },
    {
      "inputs": [
        {
          "internalType": "uint256",
          "name": "sectors",
          "type": "uint256"
        },
        {
          "internalType": "uint256",
          "name": "maxPrice",
          "type": "uint256"
        },
        {
          "internalType": "uint256",
          "name": "maxTipPrice",
          "type": "uint256"
        }
      ],
      "name": "purchase",
      "outputs": [],
      "stateMutability": "payable",
      "type": "function"
    },
    {
      "inputs": [],
      "name": "refreshGauge",
      "outputs": [],
      "stateMutability": "nonpayable",
      "type": "function"
    },
    {
      "inputs": [],
      "name": "reward",
      "outputs": [
        {
          "internalType": "contract IReward",
          "name": "",
          "type": "address"
        }
      ],
      "stateMutability": "view",
      "type": "function"
    },
    {
      "inputs": [
        {
          "internalType": "int256",
          "name": "gauge_",
          "type": "int256"
        }
      ],
      "name": "setGauge",
      "outputs": [],
      "stateMutability": "nonpayable",
      "type": "function"
    },
    {
      "inputs": [],
      "name": "stake",
      "outputs": [
        {
          "internalType": "address",
          "name": "",
          "type": "address"
        }
      ],
      "stateMutability": "view",
      "type": "function"
    },
    {
      "inputs": [
        {
          "internalType": "uint256",
          "name": "sectors",
          "type": "uint256"
        }
      ],
      "name": "updateTotalSubmission",
      "outputs": [],
      "stateMutability": "nonpayable",
      "type": "function"
    },
    {
      "inputs": [],
      "name": "uploadToken",
      "outputs": [
        {
          "internalType": "contract IUploadToken",
          "name": "",
          "type": "address"
        }
      ],
      "stateMutability": "view",
      "type": "function"
    },
    {
      "inputs": [],
      "name": "zgsToken",
      "outputs": [
        {
          "internalType": "contract MockHackToken",
          "name": "",
          "type": "address"
        }
      ],
      "stateMutability": "view",
      "type": "function"
    }
  ],
  "bytecode": "0x60a060405260405161123b38038061123b83398101604081905261002291610033565b6001600160a01b0316608052610063565b60006020828403121561004557600080fd5b81516001600160a01b038116811461005c57600080fd5b9392505050565b6080516111af61008c6000396000818161020c01528181610d140152610df401526111af6000f3fe6080604052600436106101355760003560e01c80636348dda1116100ab578063a6f19c841161006f578063a6f19c8414610342578063ab378cb714610358578063c046371114610378578063d6713eb11461038e578063da6eb36a146103a4578063e8aaf7b5146103c457600080fd5b80636348dda1146102c35780636e00da94146102e3578063709e5fed146102f957806399f4b2511461030f5780639b8b93051461032f57600080fd5b80632782f579116100fd5780632782f579146101fa57806329ada1211461022e578063343aad82146102435780633a4b66f11461026357806346d5b97d1461028357806347e0a875146102a357600080fd5b80630ce6bf741461013a5780631459457a1461015c578063158ef93e1461016f578063178bb4e21461019e578063228cb733146101c2575b600080fd5b34801561014657600080fd5b5061015a610155366004610f80565b6103e4565b005b61015a61016a366004610fb5565b6103f2565b34801561017b57600080fd5b506001546101899060ff1681565b60405190151581526020015b60405180910390f35b3480156101aa57600080fd5b506101b4603e5481565b604051908152602001610195565b3480156101ce57600080fd5b506039546101e2906001600160a01b031681565b6040516001600160a01b039091168152602001610195565b34801561020657600080fd5b506101e27f000000000000000000000000000000000000000000000000000000000000000081565b34801561023a57600080fd5b5061015a61047b565b34801561024f57600080fd5b50603b546101e2906001600160a01b031681565b34801561026f57600080fd5b50603d546101e2906001600160a01b031681565b34801561028f57600080fd5b506101b461029e366004610f80565b610515565b3480156102af57600080fd5b50603a546101e2906001600160a01b031681565b3480156102cf57600080fd5b5061015a6102de36600461101a565b6106f8565b3480156102ef57600080fd5b506101b460355481565b34801561030557600080fd5b506101b460375481565b34801561031b57600080fd5b50603c546101e2906001600160a01b031681565b61015a61033d36600461103c565b610729565b34801561034e57600080fd5b506101b460345481565b34801561036457600080fd5b5061015a610373366004610f80565b61082a565b34801561038457600080fd5b506101b460365481565b34801561039a57600080fd5b506101b460385481565b3480156103b057600080fd5b5061015a6103bf36600461103c565b6108c2565b3480156103d057600080fd5b5061015a6103df366004610f80565b610a52565b6103ec610a78565b50603455565b60015460ff16156104565760405162461bcd60e51b8152602060048201526024808201527f5a67496e697469616c697a61626c653a20616c726561647920696e697469616c6044820152631a5e995960e21b60648201526084015b60405180910390fd5b6001805460ff19168117905561046f8585858585610a93565b50506001603e55505050565b6000610485610a78565b905060006103e86035548361049a919061107e565b6104a4919061109d565b905080603460008282546104b891906110bf565b909155506104ca90506104008061107e565b6104d69061040061107e565b6104e190601e61107e565b6034541315610511576104f66104008061107e565b6105029061040061107e565b61050d90601e61107e565b6034555b5050565b6000806000806034541261054e5760345484811061053857506000949350505050565b6000925061054681866110e7565b91505061056f565b600060345461055c906110fa565b925082905061056b8582611116565b9150505b61057b6104008061107e565b6105879061040061107e565b61059290606461107e565b8111156105d35760405162461bcd60e51b815260206004820152600f60248201526e476175676520756e646572666c6f7760881b604482015260640161044d565b60006105e16104008061107e565b6105ed9061038461107e565b6105fb90604085901b61109d565b9050600061060b6104008061107e565b6106179061038461107e565b61062590604085901b61109d565b90506000600160601b61064061063b85856110e7565b610af9565b61064a91906110e7565b9050600061065784610af9565b90506000600160681b82111561067c57610675604083901c8461107e565b90506106a7565b600160681b8311156106965761067582604085901c61107e565b60406106a2838561107e565b901c90505b602081901c606060646106bc6104008061107e565b6106c89061038461107e565b6106d46103e88561107e565b6106de919061107e565b6106e8919061109d565b901c9a9950505050505050505050565b610705603e5483836108c2565b61070f8183611116565b603e60008282546107209190611116565b90915550505050565b61073161047b565b600061073f6101008561107e565b9050600061074f6103e88361107e565b9050600061075c83610515565b9050600061076a848661107e565b90506000610778878661107e565b9050806107858486611116565b11156107c85760405162461bcd60e51b8152602060048201526012602482015271115e18d95959081c1c9a58d9481b1a5b5a5d60721b604482015260640161044d565b60006107e882846107d98789611116565b6107e39190611116565b610ce8565b90506107f48185610d02565b85603460008282546108069190611129565b9091555061081f90508961081a86846110e7565b610e68565b505050505050505050565b600061083e670de0b6b3a76400008361107e565b603a54604051631125ae3960e11b8152336004820152602481018390529192506001600160a01b03169063224b5c7290604401600060405180830381600087803b15801561088b57600080fd5b505af115801561089f573d6000803e3d6000fd5b50505050610511826103e8610100856108b8919061107e565b61081a919061107e565b603b546001600160a01b031633811461091d5760405162461bcd60e51b815260206004820152601f60248201527f53656e64657220646f6573206e6f742068617665207065726d697373696f6e00604482015260640161044d565b82603754101561096f5760405162461bcd60e51b815260206004820152601b60248201527f44617461207375626d697373696f6e206973206e6f7420706169640000000000604482015260640161044d565b600061097b8385611116565b905060006109898287611116565b905061099481610e93565b6000603754603854876109a7919061107e565b6109b1919061109d565b905080603860008282546109c591906110e7565b9250508190555085603760008282546109de91906110e7565b90915550506039546040516259e96760e81b815260048101899052602481018590526001600160a01b03909116906359e967009083906044016000604051808303818588803b158015610a3057600080fd5b505af1158015610a44573d6000803e3d6000fd5b505050505050505050505050565b80603e6000828254610a649190611116565b9091555050603e54610a7590610e93565b50565b60008054610a8690426110e7565b426000556103e802919050565b603b80546001600160a01b03199081166001600160a01b0388811691909117909255603c80548216878416179055603980548216868416179055603a80548216858416179055603d8054909116918316919091179055610af1610a78565b505050505050565b6000663fffffffffffff821667ffc00000000000008316604084901c60a08110610b295750600019949350505050565b6000610b3484610edd565b90506640000000000000831615610b5b576f8016302f174676283690dfe44d11d00802607f1c5b6680000000000000831615610b80576f802c6436d0e04f50ff8ce94a6797b3ce02607f1c5b670100000000000000831615610ba6576f8058d7d2d5e5f6b094d589f608ee4aa202607f1c5b670200000000000000831615610bcc576f80b1ed4fd999ab6c25335719b6e6fd2002607f1c5b670400000000000000831615610bf2576f8164d1f3bc0307737be56527bd14def402607f1c5b670800000000000000831615610c18576f82cd8698ac2ba1d73e2a475b46520bff02607f1c5b671000000000000000831615610c3e576f85aac367cc487b14c5c95b8c2154c1b202607f1c5b672000000000000000831615610c64576f8b95c1e3ea8bd6e6fbe4628758a53c9002607f1c5b674000000000000000831615610c8a576f9837f0518db8a96f46ad23182e42f6f602607f1c5b678000000000000000831615610cb0576fb504f333f9de6484597d89b3754abe9f02607f1c5b601f821015610cce57610cc482601f6110e7565b81901c9450610cdf565b610cd9601f836110e7565b81901b94505b50505050919050565b6000818310610cf75781610cf9565b825b90505b92915050565b80821115610dbf576001600160a01b037f0000000000000000000000000000000000000000000000000000000000000000166323b872dd3330610d4585876110e7565b6040516001600160e01b031960e086901b1681526001600160a01b03938416600482015292909116602483015260448201526064016020604051808303816000875af1158015610d99573d6000803e3d6000fd5b505050506040513d601f19601f82011682018060405250810190610dbd9190611150565b505b801561051157603d546040516323b872dd60e01b81523360048201526001600160a01b039182166024820152604481018390527f0000000000000000000000000000000000000000000000000000000000000000909116906323b872dd906064016020604051808303816000875af1158015610e3f573d6000803e3d6000fd5b505050506040513d601f19601f82011682018060405250810190610e639190611150565b505050565b8160376000828254610e7a9190611116565b9250508190555080603860008282546107209190611116565b610e9b61047b565b610ed7610eaa6104008061107e565b610eb590600361107e565b610ec16104008061107e565b610ecd6101008561107e565b6107e3919061109d565b60355550565b600081600003610ef257506001607f1b919050565b603f82901b808002607f90811d90818302811d90818402811d906f7afef7fe0b163aa1bc5ac1bb25cd7f2a840260801d6fb17217f7d1cf79abc9e3b39803f2f6af8602821d01600160801b01906006906f55411a850de23ea19af62831983789cb8502901d050160186f3b18024f2eeb657d6633a21fbcc04f158302607f1d050160011c9695505050505050565b600060208284031215610f9257600080fd5b5035919050565b80356001600160a01b0381168114610fb057600080fd5b919050565b600080600080600060a08688031215610fcd57600080fd5b610fd686610f99565b9450610fe460208701610f99565b9350610ff260408701610f99565b925061100060608701610f99565b915061100e60808701610f99565b90509295509295909350565b6000806040838503121561102d57600080fd5b50508035926020909101359150565b60008060006060848603121561105157600080fd5b505081359360208301359350604090920135919050565b634e487b7160e01b600052601160045260246000fd5b600081600019048311821515161561109857611098611068565b500290565b6000826110ba57634e487b7160e01b600052601260045260246000fd5b500490565b80820182811260008312801582168215821617156110df576110df611068565b505092915050565b81810381811115610cfc57610cfc611068565b6000600160ff1b820161110f5761110f611068565b5060000390565b80820180821115610cfc57610cfc611068565b818103600083128015838313168383128216171561114957611149611068565b5092915050565b60006020828403121561116257600080fd5b8151801515811461117257600080fd5b939250505056fea2646970667358221220e228f899525e04f8effaa41ab4e4fd5be603a6b8cd78a372c586a8dcf5d8633064736f6c63430008100033",
  "linkReferences": {},
  "deployedLinkReferences": {}
}