{
  "_format": "hh-sol-artifact-1",
  "contractName": "Exponential",
  "sourceName": "contracts/utils/Exponent.sol",
  "abi": [
    {
      "inputs": [],
      "name": "INV_LOG2X128",
      "outputs": [
        {
          "internalType": "int256",
          "name": "",
          "type": "int256"
        }
      ],
      "stateMutability": "view",
      "type": "function"
    },
    {
      "inputs": [],
      "name": "LOG2X128",
      "outputs": [
        {
          "internalType": "int256",
          "name": "",
          "type": "int256"
        }
      ],
      "stateMutability": "view",
      "type": "function"
    }
  ],
  "bytecode": "0x60b7610039600b82828239805160001a60731461002c57634e487b7160e01b600052600060045260246000fd5b30600052607381538281f3fe7300000000000000000000000000000000000000003014608060405260043610603d5760003560e01c80630b3791d8146042578063bd47387014606a575b600080fd5b60586fb17217f7d1cf79abc9e3b39803f2f6af81565b60405190815260200160405180910390f35b6058700171547652b82fe1777d0ffda0d23a7d118156fea26469706673582212200075ad3d1b46ffdf7523d88e6f46cb90db5c8614222f2291075ed8957ec8b8c364736f6c63430008100033",
  "linkReferences": {},
  "deployedLinkReferences": {}
}