{
  "_format": "hh-sol-artifact-1",
  "contractName": "MockHackToken",
  "sourceName": "contracts/token/MockHackToken.sol",
  "abi": [
    {
      "inputs": [],
      "stateMutability": "nonpayable",
      "type": "constructor"
    },
    {
      "anonymous": false,
      "inputs": [
        {
          "indexed": true,
          "internalType": "address",
          "name": "owner",
          "type": "address"
        },
        {
          "indexed": true,
          "internalType": "address",
          "name": "spender",
          "type": "address"
        },
        {
          "indexed": false,
          "internalType": "uint256",
          "name": "value",
          "type": "uint256"
        }
      ],
      "name": "Approval",
      "type": "event"
    },
    {
      "anonymous": false,
      "inputs": [
        {
          "indexed": true,
          "internalType": "address",
          "name": "from",
          "type": "address"
        },
        {
          "indexed": true,
          "internalType": "address",
          "name": "to",
          "type": "address"
        },
        {
          "indexed": false,
          "internalType": "uint256",
          "name": "value",
          "type": "uint256"
        }
      ],
      "name": "Transfer",
      "type": "event"
    },
    {
      "inputs": [
        {
          "internalType": "address",
          "name": "owner",
          "type": "address"
        },
        {
          "internalType": "address",
          "name": "spender",
          "type": "address"
        }
      ],
      "name": "allowance",
      "outputs": [
        {
          "internalType": "uint256",
          "name": "",
          "type": "uint256"
        }
      ],
      "stateMutability": "view",
      "type": "function"
    },
    {
      "inputs": [
        {
          "internalType": "address",
          "name": "spender",
          "type": "address"
        },
        {
          "internalType": "uint256",
          "name": "amount",
          "type": "uint256"
        }
      ],
      "name": "approve",
      "outputs": [
        {
          "internalType": "bool",
          "name": "",
          "type": "bool"
        }
      ],
      "stateMutability": "nonpayable",
      "type": "function"
    },
    {
      "inputs": [
        {
          "internalType": "address",
          "name": "account",
          "type": "address"
        }
      ],
      "name": "balanceOf",
      "outputs": [
        {
          "internalType": "uint256",
          "name": "",
          "type": "uint256"
        }
      ],
      "stateMutability": "view",
      "type": "function"
    },
    {
      "inputs": [],
      "name": "decimals",
      "outputs": [
        {
          "internalType": "uint8",
          "name": "",
          "type": "uint8"
        }
      ],
      "stateMutability": "view",
      "type": "function"
    },
    {
      "inputs": [
        {
          "internalType": "address",
          "name": "spender",
          "type": "address"
        },
        {
          "internalType": "uint256",
          "name": "subtractedValue",
          "type": "uint256"
        }
      ],
      "name": "decreaseAllowance",
      "outputs": [
        {
          "internalType": "bool",
          "name": "",
          "type": "bool"
        }
      ],
      "stateMutability": "nonpayable",
      "type": "function"
    },
    {
      "inputs": [
        {
          "internalType": "address",
          "name": "spender",
          "type": "address"
        },
        {
          "internalType": "uint256",
          "name": "addedValue",
          "type": "uint256"
        }
      ],
      "name": "increaseAllowance",
      "outputs": [
        {
          "internalType": "bool",
          "name": "",
          "type": "bool"
        }
      ],
      "stateMutability": "nonpayable",
      "type": "function"
    },
    {
      "inputs": [],
      "name": "name",
      "outputs": [
        {
          "internalType": "string",
          "name": "",
          "type": "string"
        }
      ],
      "stateMutability": "view",
      "type": "function"
    },
    {
      "inputs": [],
      "name": "receiveNative",
      "outputs": [],
      "stateMutability": "payable",
      "type": "function"
    },
    {
      "inputs": [],
      "name": "symbol",
      "outputs": [
        {
          "internalType": "string",
          "name": "",
          "type": "string"
        }
      ],
      "stateMutability": "view",
      "type": "function"
    },
    {
      "inputs": [],
      "name": "totalSupply",
      "outputs": [
        {
          "internalType": "uint256",
          "name": "",
          "type": "uint256"
        }
      ],
      "stateMutability": "view",
      "type": "function"
    },
    {
      "inputs": [
        {
          "internalType": "address",
          "name": "to",
          "type": "address"
        },
        {
          "internalType": "uint256",
          "name": "amount",
          "type": "uint256"
        }
      ],
      "name": "transfer",
      "outputs": [
        {
          "internalType": "bool",
          "name": "",
          "type": "bool"
        }
      ],
      "stateMutability": "nonpayable",
      "type": "function"
    },
    {
      "inputs": [
        {
          "internalType": "address",
          "name": "from",
          "type": "address"
        },
        {
          "internalType": "address",
          "name": "to",
          "type": "address"
        },
        {
          "internalType": "uint256",
          "name": "amount",
          "type": "uint256"
        }
      ],
      "name": "transferFrom",
      "outputs": [
        {
          "internalType": "bool",
          "name": "",
          "type": "bool"
        }
      ],
      "stateMutability": "nonpayable",
      "type": "function"
    }
  ],
  "bytecode": "0x60806040523480156200001157600080fd5b506040518060400160405280601781526020017f4d6f636b205a65726f4753746f7261676520546f6b656e000000000000000000815250604051806040016040528060038152602001625a475360e81b815250816003908162000075919062000399565b50600462000084828262000399565b5050506200009b336103e8620000a160201b60201c565b6200048d565b6001600160a01b038216620000fd5760405162461bcd60e51b815260206004820152601f60248201527f45524332303a206d696e7420746f20746865207a65726f20616464726573730060448201526064015b60405180910390fd5b806002600082825462000111919062000465565b90915550506001600160a01b0382166000818152602081815260408083208054860190555184815260008051602062000f15833981519152910160405180910390a362000161600083836200016a565b5050565b505050565b6001600160a01b0382166200017e57505050565b6200018a8282620001c7565b6040516001600160a01b0383169082156108fc029083906000818181858888f19350505050158015620001c1573d6000803e3d6000fd5b50505050565b6001600160a01b038216620002295760405162461bcd60e51b815260206004820152602160248201527f45524332303a206275726e2066726f6d20746865207a65726f206164647265736044820152607360f81b6064820152608401620000f4565b6001600160a01b038216600090815260208190526040902054818110156200029f5760405162461bcd60e51b815260206004820152602260248201527f45524332303a206275726e20616d6f756e7420657863656564732062616c616e604482015261636560f01b6064820152608401620000f4565b6001600160a01b03831660008181526020818152604080832086860390556002805487900390555185815291929160008051602062000f15833981519152910160405180910390a362000165836000846200016a565b634e487b7160e01b600052604160045260246000fd5b600181811c908216806200032057607f821691505b6020821081036200034157634e487b7160e01b600052602260045260246000fd5b50919050565b601f8211156200016557600081815260208120601f850160051c81016020861015620003705750805b601f850160051c820191505b8181101562000391578281556001016200037c565b505050505050565b81516001600160401b03811115620003b557620003b5620002f5565b620003cd81620003c684546200030b565b8462000347565b602080601f831160018114620004055760008415620003ec5750858301515b600019600386901b1c1916600185901b17855562000391565b600085815260208120601f198616915b82811015620004365788860151825594840194600190910190840162000415565b5085821015620004555787850151600019600388901b60f8161c191681555b5050505050600190811b01905550565b808201808211156200048757634e487b7160e01b600052601160045260246000fd5b92915050565b610a78806200049d6000396000f3fe6080604052600436106100a75760003560e01c80635df50068116100645780635df500681461018257806370a082311461018457806395d89b41146101ba578063a457c2d7146101cf578063a9059cbb146101ef578063dd62ed3e1461020f57600080fd5b806306fdde03146100ac578063095ea7b3146100d757806318160ddd1461010757806323b872dd14610126578063313ce567146101465780633950935114610162575b600080fd5b3480156100b857600080fd5b506100c161022f565b6040516100ce91906108c2565b60405180910390f35b3480156100e357600080fd5b506100f76100f236600461092c565b6102c1565b60405190151581526020016100ce565b34801561011357600080fd5b506002545b6040519081526020016100ce565b34801561013257600080fd5b506100f7610141366004610956565b6102db565b34801561015257600080fd5b50604051601281526020016100ce565b34801561016e57600080fd5b506100f761017d36600461092c565b6102ff565b005b34801561019057600080fd5b5061011861019f366004610992565b6001600160a01b031660009081526020819052604090205490565b3480156101c657600080fd5b506100c1610321565b3480156101db57600080fd5b506100f76101ea36600461092c565b610330565b3480156101fb57600080fd5b506100f761020a36600461092c565b6103b0565b34801561021b57600080fd5b5061011861022a3660046109b4565b6103be565b60606003805461023e906109e7565b80601f016020809104026020016040519081016040528092919081815260200182805461026a906109e7565b80156102b75780601f1061028c576101008083540402835291602001916102b7565b820191906000526020600020905b81548152906001019060200180831161029a57829003601f168201915b5050505050905090565b6000336102cf8185856103e9565b60019150505b92915050565b6000336102e985828561050d565b6102f4858585610587565b506001949350505050565b6000336102cf81858561031283836103be565b61031c9190610a21565b6103e9565b60606004805461023e906109e7565b6000338161033e82866103be565b9050838110156103a35760405162461bcd60e51b815260206004820152602560248201527f45524332303a2064656372656173656420616c6c6f77616e63652062656c6f77604482015264207a65726f60d81b60648201526084015b60405180910390fd5b6102f482868684036103e9565b6000336102cf818585610587565b6001600160a01b03918216600090815260016020908152604080832093909416825291909152205490565b6001600160a01b03831661044b5760405162461bcd60e51b8152602060048201526024808201527f45524332303a20617070726f76652066726f6d20746865207a65726f206164646044820152637265737360e01b606482015260840161039a565b6001600160a01b0382166104ac5760405162461bcd60e51b815260206004820152602260248201527f45524332303a20617070726f766520746f20746865207a65726f206164647265604482015261737360f01b606482015260840161039a565b6001600160a01b0383811660008181526001602090815260408083209487168084529482529182902085905590518481527f8c5be1e5ebec7d5bd14f71427d1e84f3dd0314c0f7b2291e5b200ac8c7c3b925910160405180910390a3505050565b600061051984846103be565b9050600019811461058157818110156105745760405162461bcd60e51b815260206004820152601d60248201527f45524332303a20696e73756666696369656e7420616c6c6f77616e6365000000604482015260640161039a565b61058184848484036103e9565b50505050565b6001600160a01b0383166105eb5760405162461bcd60e51b815260206004820152602560248201527f45524332303a207472616e736665722066726f6d20746865207a65726f206164604482015264647265737360d81b606482015260840161039a565b6001600160a01b03821661064d5760405162461bcd60e51b815260206004820152602360248201527f45524332303a207472616e7366657220746f20746865207a65726f206164647260448201526265737360e81b606482015260840161039a565b6001600160a01b038316600090815260208190526040902054818110156106c55760405162461bcd60e51b815260206004820152602660248201527f45524332303a207472616e7366657220616d6f756e7420657863656564732062604482015265616c616e636560d01b606482015260840161039a565b6001600160a01b03848116600081815260208181526040808320878703905593871680835291849020805487019055925185815290927fddf252ad1be2c89b69c2b068fc378daa952ba7f163c4a11628f55a4df523b3ef910160405180910390a3610581848484610736565b505050565b6001600160a01b03821661074957505050565b6107538282610789565b6040516001600160a01b0383169082156108fc029083906000818181858888f19350505050158015610581573d6000803e3d6000fd5b6001600160a01b0382166107e95760405162461bcd60e51b815260206004820152602160248201527f45524332303a206275726e2066726f6d20746865207a65726f206164647265736044820152607360f81b606482015260840161039a565b6001600160a01b0382166000908152602081905260409020548181101561085d5760405162461bcd60e51b815260206004820152602260248201527f45524332303a206275726e20616d6f756e7420657863656564732062616c616e604482015261636560f01b606482015260840161039a565b6001600160a01b0383166000818152602081815260408083208686039055600280548790039055518581529192917fddf252ad1be2c89b69c2b068fc378daa952ba7f163c4a11628f55a4df523b3ef910160405180910390a361073183600084610736565b600060208083528351808285015260005b818110156108ef578581018301518582016040015282016108d3565b506000604082860101526040601f19601f8301168501019250505092915050565b80356001600160a01b038116811461092757600080fd5b919050565b6000806040838503121561093f57600080fd5b61094883610910565b946020939093013593505050565b60008060006060848603121561096b57600080fd5b61097484610910565b925061098260208501610910565b9150604084013590509250925092565b6000602082840312156109a457600080fd5b6109ad82610910565b9392505050565b600080604083850312156109c757600080fd5b6109d083610910565b91506109de60208401610910565b90509250929050565b600181811c908216806109fb57607f821691505b602082108103610a1b57634e487b7160e01b600052602260045260246000fd5b50919050565b808201808211156102d557634e487b7160e01b600052601160045260246000fdfea264697066735822122057c860d0d860a3a97ce8be71e32bddd008d1359ce60095ce94ac2a21b86366d564736f6c63430008100033ddf252ad1be2c89b69c2b068fc378daa952ba7f163c4a11628f55a4df523b3ef",
  "linkReferences": {},
  "deployedLinkReferences": {}
}