{
  "_format": "hh-sol-artifact-1",
  "contractName": "MerkleTreeTest",
  "sourceName": "contracts/test/MerkleTreeTest.sol",
  "abi": [
    {
      "inputs": [],
      "stateMutability": "nonpayable",
      "type": "constructor"
    },
    {
      "inputs": [],
      "name": "commitRoot",
      "outputs": [],
      "stateMutability": "nonpayable",
      "type": "function"
    },
    {
      "inputs": [],
      "name": "currentLength",
      "outputs": [
        {
          "internalType": "uint256",
          "name": "",
          "type": "uint256"
        }
      ],
      "stateMutability": "view",
      "type": "function"
    },
    {
      "inputs": [
        {
          "internalType": "bytes32",
          "name": "nodeRoot",
          "type": "bytes32"
        },
        {
          "internalType": "uint256",
          "name": "height",
          "type": "uint256"
        }
      ],
      "name": "insertNode",
      "outputs": [
        {
          "internalType": "uint256",
          "name": "",
          "type": "uint256"
        }
      ],
      "stateMutability": "nonpayable",
      "type": "function"
    },
    {
      "inputs": [],
      "name": "root",
      "outputs": [
        {
          "internalType": "bytes32",
          "name": "",
          "type": "bytes32"
        }
      ],
      "stateMutability": "view",
      "type": "function"
    },
    {
      "inputs": [],
      "name": "tree",
      "outputs": [
        {
          "internalType": "uint256",
          "name": "currentLength",
          "type": "uint256"
        },
        {
          "internalType": "uint256",
          "name": "unstagedHeight",
          "type": "uint256"
        }
      ],
      "stateMutability": "view",
      "type": "function"
    },
    {
      "inputs": [],
      "name": "unstagedHeight",
      "outputs": [
        {
          "internalType": "uint256",
          "name": "",
          "type": "uint256"
        }
      ],
      "stateMutability": "view",
      "type": "function"
    }
  ],
  "bytecode": "0x608060405234801561001057600080fd5b5061002c6000801b600061003160201b6101011790919060201c565b610056565b6001808355600283018054808301825560009182526020909120019190915590810155565b6112fe806100656000396000f3fe608060405234801561001057600080fd5b50600436106100625760003560e01c8063364800ec14610067578063843ba6131461007e578063a3d35f3614610091578063d34353c914610099578063ebf0c717146100a3578063fd54b228146100ab575b600080fd5b6001545b6040519081526020015b60405180910390f35b61006b61008c366004611219565b6100ce565b60005461006b565b6100a16100e4565b005b61006b6100f0565b6000546001546100b9919082565b60408051928352602083019190915201610075565b60006100db818484610126565b90505b92915050565b6100ee60006102af565b565b60006100fc60006103de565b905090565b6001808355600283018054808301825560009182526020909120019190915590810155565b600080610137856000015484610416565b905060006101486001851b83611251565b600287015490915061015c90600190611264565b6001901b8111156101ae57610170866102af565b6101798661044e565b600286015461018a90600190611264565b6001901b8111156101a35761019e8661044e565b610179565b600286015460018701555b60028601546101bd87866104e1565b60008087875b84811015610291576101d8600288831c611277565b60000361022557818b60020182815481106101f5576101f5611299565b60009182526020909120015561020c816001611251565b6001808d019190915561021f9086611264565b50610291565b8a600201818154811061023a5761023a611299565b906000526020600020015493508192508383604051602001610266929190918252602082015260400190565b6040516020818303038152906040528051906020012091508080610289906112af565b9150506101c3565b5061029f6001891b87611251565b9099555092979650505050505050565b60028101546001820154036102c15750565b600281018054600180840154919260009290916102dd91611264565b815481106102ed576102ed611299565b906000526020600020015490506000610315600185600101546103109190611264565b610616565b60018501549091505b838110156103d35760408051602080820186905281830185905282518083038401815260609092019092528051910120855461035e90600290841c611277565b60000361039a5780935061037182610616565b92508086600201838154811061038957610389611299565b6000918252602090912001556103c0565b8560020182815481106103af576103af611299565b906000526020600020015493508092505b50806103cb816112af565b91505061031e565b505050600190910155565b600281018054600091906103f490600190611264565b8154811061040457610404611299565b90600052602060002001549050919050565b60008280820361042a5760009150506100de565b610435600182611264565b831c9050610444600182611251565b90921b9392505050565b60028101805490600090610463600184611264565b8154811061047357610473611299565b6000918252602082200154915061048e610310600185611264565b90508360020182826040516020016104b0929190918252602082015260400190565b60408051601f1981840301815291905280516020918201208254600181018455600093845291909220015550505050565b80826001015411156104f1575050565b6002820180546001808501549192600092909161050d91611264565b8154811061051d5761051d611299565b906000526020600020015490506000610540600186600101546103109190611264565b60018601549091505b8381101561060e5760408051602080820186905281830185905282518083038401815260609092019092528051910120865461058990600290841c611277565b6000036105d55780935061059c82610616565b92508582106105d057808760020183815481106105bb576105bb611299565b60009182526020909120015550505050505050565b6105fb565b8660020182815481106105ea576105ea611299565b906000526020600020015493508092505b5080610606816112af565b915050610549565b505050505050565b60008160000361064757507fd397b3b043d87fcd6fad1291ff0bfd16401c274896d8c63a923727f077b8e0b5919050565b8160010361067657507ff73e6947d7d1628b9976a6e40d7b278a8a16405e96324a68df45b12a51b7cfde919050565b816002036106a557507fa1520264ae93cac619e22e8718fc4fa7ebdd23f493cad602434d2a58ff4868fb919050565b816003036106d457507fde5747106ac1194a1fa9071dbd6cf19dc2bc7964497ef0afec7e4bdbcf08c47e919050565b8160040361070357507f09c7082879180d28c789c05fafe7030871c76cedbe82c948b165d6a1d66ac15b919050565b8160050361073257507faa7a02bcf29fba687f84123c808b5b48834ff5395abe98e622fadc14e4180c95919050565b8160060361076157507f7608fd46b710b589e0f2ee5a13cd9c41d432858a30d524f84c6d5db37f66273a919050565b8160070361079057507fa5d9a2f7f3573ac9a1366bc484688b4daf934b87ea9b3bf2e703da8fd9f09708919050565b816008036107bf57507f6c1779477f4c3fca26b4607398859a43b90a286ce8062500744bd4949981757f919050565b816009036107ee57507f45c22df3d952c33d5edce122eed85e5cda3fd61939e7ad7b3e03b6927bb598ea919050565b81600a0361081d57507fe68d02859bb6211cec64f52368b77d422de3b8eac34bf615942b814b643301b5919050565b81600b0361084c57507f62d78399b954d51cb9728601738ad13ddc43b2300064660716bb661d2f4d686f919050565b81600c0361087b57507f6e250d9abdbbb3993fce08de0395cdb56f0483e67d8762a798de011f6a50866a919050565b81600d036108aa57507f1d1a3a74062fd94078617e33eb901eaf16a830f67c387d8eed342db2ac5e2cc5919050565b81600e036108d957507f19b3b3886526917eae8650223d0be20a0301be960eb339696e673ad8a804440f919050565b81600f0361090857507fee9e05df53f10e62a897e5140a3f58732dd849e69cd1d62b21ed80ead711a014919050565b8160100361093757507f2cc7aa6e611a113a34505dc1c96b220f14909b70e2c2c7b1a74655da21013c5e919050565b8160110361096657507f949b52dfece7ca3bad3cb27f7750ecaee64cedb6243a275c35984e92956c530a919050565b8160120361099557507fb2680d060b763b932c150434c3812ba9fbc50937e0ebcf5758de884be81bab65919050565b816013036109c457507f523aebf4a085edbc9c8cdc99c83f46262e5f029b395ff7bf561a48a3f387e6b8919050565b816014036109f357507fc9ab73827ab33c0cedb7ecf0ed2e6e32583c0fe887133a7f381ea4ba84d95b76919050565b81601503610a2257507f23eb397dec7e564ebe97f160a5e1081a77d9861f316807079b6be4731beb331e919050565b81601603610a5157507fdfa44a274c60f090df034aaf75539fd40e94cfd6362dd53d26ed20c8ad529563919050565b81601703610a8057507f15b13ee358e1044a53381243c094e54bf7aceb9b5325a0313d6b85fd44e8b3a5919050565b81601803610aaf57507f1a7a93871e2daa0f1860aa91d4ece4ccd012dac5fe581176a21b155cfeca6d40919050565b81601903610ade57507fb12665fd0b884a7c7d1e0294d369170d7e672d9e125eb87784556305f98292df919050565b81601a03610b0d57507f2a5543b0b2f8cf550524390291774f4d6c8c0a25ff5393b09c44d75c92a5bd8e919050565b81601b03610b3c57507ff9df1841a6e7164b67a1242f1c74975137085ffd9721831f6c469d3a4d5ba42e919050565b81601c03610b6b57507fba24736b1b48246c1f7803be967be43ca0dddc9c2c0687a2957952249bc89371919050565b81601d03610b9a57507ff3f706b73790c73ca0a8f0460ac3a2a102e280415586b520e70cd5e8264388b4919050565b81601e03610bc957507fc1f5a9a9f357e1c37814688cf7290c87a264ed3d6174a12b978da1c586f53825919050565b81601f03610bf857507f766f7702e19ce23d426cdad03e4292a5a42c4669420101fed74400ec7cda3ac6919050565b81602003610c2757507f070fec213e105b3e4d9b0434ac2fc7ca721d35093dc741fb9419797003e2394a919050565b81602103610c5657507f9a7aade05b49e43f5fd3782571cc8c90eadacd5d660b53842b4e5b63d675ae0c919050565b81602203610c8557507fb27b35a8236d0f9b6692820429c025ed58ed378dc98d316b762f0c865c68be6f919050565b81602303610cb457507fdc567ad38d9b90cc9bea4e0f82ec05eca10b3aa94eddc7b63c4fd20c001bb53b919050565b81602403610ce357507fb208dfc457c8b30661ae49544c8e57399818095aab8dd7a426fb8dd56bb8c559919050565b81602503610d1257507fc4a72e1ff84f7a22631f3f95c61c392f98f52050360215a9d7e75d79b0bcd2ca919050565b81602603610d4157507fbb093ec8c0d7defb1de668b5b5dd4f2619e5cd92d29cc144862364a83ab993a8919050565b81602703610d7057507fe341796f2fe3975012c1e6badfa2e9c4523e43f911dc845082c3f4d7b4ff871d919050565b81602803610d9f57507f42d356a11a0b39243eca3c3263299cb6f8c3e9728af6d9d8b0ddb6d354f1890d919050565b81602903610dce57507f0ce506e834e3a50a33f80074bc7fa16cf3c0712b36a41b69699177ea25de6c30919050565b81602a03610dfd57507fd8fa5bf130aeb7756b1ed09090cc80ed78dae0617978540f0fabd06dfb978938919050565b81602b03610e2c57507feed69a20fe36eb604f2153efa3b01c0e143cdf02229a1b8f741c9c2719059eb0919050565b81602c03610e5b57507f303c9c566ebf5bfe252796e5c131a99801226152a514688b5ca6883e99031d88919050565b81602d03610e8a57507fc7c3765ba96cfbccf3ae718393fa89791070cc8cd85f280b6ac46aea10d96042919050565b81602e03610eb957507f1ca65b0a2b8034ee6bfb1fa4526832304e393af835c2c42b4dace58048746800919050565b81602f03610ee857507f957add5e02350fd47de3a8e1da38fd774ceb31214d5897ed6315740a83cd634a919050565b81603003610f1757507f787892cb439d5d358870774e163557cf02ec3cb87be6fde11abf1acee14eeaa4919050565b81603103610f4657507f047c0962d4f5c8f60692c587de07739528c4d2059240d61dd34d2a547a438ee6919050565b81603203610f7557507fc18727efc9e4df63020dcd90edc17dfd2ad14f02328c912b13898e0b53735556919050565b81603303610fa457507fe38b9218987e451effe1648c3c9851ad03b64b052a5a3f5ca30f4d7b1ecf7120919050565b81603403610fd357507f0e48ecb1a5418e6218289acc8cf723e67ac6eae3ecb80f644336ab4365a2f2b2919050565b8160350361100257507fd60e66f5b8cd08d71a1a4d7798952a7afa5a6e93a886c587a46a5500ebef4a60919050565b8160360361103157507f5162aa9c31d9105f689cf6e71e19548bc9f0218b7d0f99ff7fa8bc2f19c68462919050565b8160370361106057507f6fa8519b4b0e8fb97a9b618e97627d97b9b9d29d04521fd96472e9c502700568919050565b8160380361108f57507f41f5dcf0cdee270a2ad9a5f8130aaaab94b237463e09757c28b0321f09e24eb0919050565b816039036110be57507f87a119239fa90732197108adfd029938b4743874d959d3da79b3a30f4832899e919050565b81603a036110ed57507f8e96dbaa5c72e84a5297b040ccc1a60750a3201166e3b7740d352837233608a1919050565b81603b0361111c57507f01605058d167ce967af8c475d2f6c341c3e0b437babf899c9da73a520aa4ecb5919050565b81603c0361114b57507f04529eb80532c5118949d700d8dfd2aa86850b1c6479b26276b9486784a145ff919050565b81603d0361117a57507fd191814ad13f27361ae20a46cbac8f6e76c10ebe9af0806d6720492ee2f296f0919050565b81603e036111a957507fa28df63f78821060570da371c0be1312188346b92a7965cc4b980b26c134a4d7919050565b81603f036111d857507fb48a92d40b61dc995ceecee4cded6415050dcece448b1e0b5e5b6a0e6981f3ef919050565b60405162461bcd60e51b8152602060048201526012602482015271125b99195e081bdd5d081bd988189bdd5b9960721b604482015260640160405180910390fd5b6000806040838503121561122c57600080fd5b50508035926020909101359150565b634e487b7160e01b600052601160045260246000fd5b808201808211156100de576100de61123b565b818103818111156100de576100de61123b565b60008261129457634e487b7160e01b600052601260045260246000fd5b500690565b634e487b7160e01b600052603260045260246000fd5b6000600182016112c1576112c161123b565b506001019056fea2646970667358221220af5a39a5f48be5388544d0655804faf093918768306e0dcb4f5ce039727d8ac764736f6c63430008100033",
  "linkReferences": {},
  "deployedLinkReferences": {}
}