{
  "_format": "hh-sol-artifact-1",
  "contractName": "MerkleTreeTest",
  "sourceName": "contracts/test/MerkleTreeTest.sol",
  "abi": [
    {
      "inputs": [],
      "stateMutability": "nonpayable",
      "type": "constructor"
    },
    {
      "inputs": [],
      "name": "commitRoot",
      "outputs": [],
      "stateMutability": "nonpayable",
      "type": "function"
    },
    {
      "inputs": [],
      "name": "currentLength",
      "outputs": [
        {
          "internalType": "uint256",
          "name": "",
          "type": "uint256"
        }
      ],
      "stateMutability": "view",
      "type": "function"
    },
    {
      "inputs": [
        {
          "internalType": "bytes32",
          "name": "nodeRoot",
          "type": "bytes32"
        },
        {
          "internalType": "uint256",
          "name": "height",
          "type": "uint256"
        }
      ],
      "name": "insertNode",
      "outputs": [
        {
          "internalType": "uint256",
          "name": "",
          "type": "uint256"
        }
      ],
      "stateMutability": "nonpayable",
      "type": "function"
    },
    {
      "inputs": [
        {
          "internalType": "uint256",
          "name": "_length",
          "type": "uint256"
        },
        {
          "internalType": "uint256",
          "name": "alignExp",
          "type": "uint256"
        }
      ],
      "name": "nextAlign",
      "outputs": [
        {
          "internalType": "uint256",
          "name": "",
          "type": "uint256"
        }
      ],
      "stateMutability": "pure",
      "type": "function"
    },
    {
      "inputs": [
        {
          "internalType": "uint256",
          "name": "_length",
          "type": "uint256"
        }
      ],
      "name": "nextPow2",
      "outputs": [
        {
          "internalType": "uint256",
          "name": "",
          "type": "uint256"
        }
      ],
      "stateMutability": "pure",
      "type": "function"
    },
    {
      "inputs": [],
      "name": "root",
      "outputs": [
        {
          "internalType": "bytes32",
          "name": "",
          "type": "bytes32"
        }
      ],
      "stateMutability": "view",
      "type": "function"
    },
    {
      "inputs": [],
      "name": "unstagedHeight",
      "outputs": [
        {
          "internalType": "uint256",
          "name": "",
          "type": "uint256"
        }
      ],
      "stateMutability": "view",
      "type": "function"
    },
    {
      "inputs": [
        {
          "internalType": "uint256",
          "name": "height",
          "type": "uint256"
        }
      ],
      "name": "zeros",
      "outputs": [
        {
          "internalType": "bytes32",
          "name": "",
          "type": "bytes32"
        }
      ],
      "stateMutability": "pure",
      "type": "function"
    }
  ],
  "bytecode": "0x608060405234801561001057600080fd5b506001600081815560408051828152602081019182905251919261003692909190610073565b5060018054808201825560008290527fb10e2d527612073b26eecdfd717e6a320cf44b4afac2b0732d9fcbe2b7fa0cf601919091556002556100d3565b8280548282559060005260206000209081019282156100ae579160200282015b828111156100ae578251825591602001919060010190610093565b506100ba9291506100be565b5090565b5b808211156100ba57600081556001016100bf565b611309806100e26000396000f3fe608060405234801561001057600080fd5b50600436106100885760003560e01c8063a3d35f361161005b578063a3d35f36146100e1578063d34353c9146100ea578063e8295588146100f4578063ebf0c7171461010757600080fd5b8063364800ec1461008d5780633d75d9c2146100a8578063555430a1146100bb578063843ba613146100ce575b600080fd5b61009660025481565b60405190815260200160405180910390f35b6100966100b636600461120b565b61010f565b6100966100c9366004611224565b61015b565b6100966100dc366004611224565b610195565b61009660005481565b6100f26101a1565b005b61009661010236600461120b565b6102b7565b610096610eba565b6000818082036101225750600092915050565b600181811c909117600281901c17600481901c17600881901c17601081901c17602081901c179061015490829061125c565b9392505050565b60008280820361016f57600091505061018f565b61017a60018261126f565b831c905061018960018261125c565b831b9150505b92915050565b60006101548383610eed565b600154600254036101ae57565b6001805460025490916000916101c590829061126f565b815481106101d5576101d5611282565b9060005260206000200154905060006101f66001600254610102919061126f565b6002549091505b838110156102af576040805160208082018690528183018590528251808303840181526060909201909252805191012060005461023e90600290841c611298565b60000361027857809350610251826102b7565b9250806001838154811061026757610267611282565b60009182526020909120015561029c565b6001828154811061028b5761028b611282565b906000526020600020015493508092505b50806102a7816112ba565b9150506101fd565b505050600255565b6000816000036102e857507fd397b3b043d87fcd6fad1291ff0bfd16401c274896d8c63a923727f077b8e0b5919050565b8160010361031757507ff73e6947d7d1628b9976a6e40d7b278a8a16405e96324a68df45b12a51b7cfde919050565b8160020361034657507fa1520264ae93cac619e22e8718fc4fa7ebdd23f493cad602434d2a58ff4868fb919050565b8160030361037557507fde5747106ac1194a1fa9071dbd6cf19dc2bc7964497ef0afec7e4bdbcf08c47e919050565b816004036103a457507f09c7082879180d28c789c05fafe7030871c76cedbe82c948b165d6a1d66ac15b919050565b816005036103d357507faa7a02bcf29fba687f84123c808b5b48834ff5395abe98e622fadc14e4180c95919050565b8160060361040257507f7608fd46b710b589e0f2ee5a13cd9c41d432858a30d524f84c6d5db37f66273a919050565b8160070361043157507fa5d9a2f7f3573ac9a1366bc484688b4daf934b87ea9b3bf2e703da8fd9f09708919050565b8160080361046057507f6c1779477f4c3fca26b4607398859a43b90a286ce8062500744bd4949981757f919050565b8160090361048f57507f45c22df3d952c33d5edce122eed85e5cda3fd61939e7ad7b3e03b6927bb598ea919050565b81600a036104be57507fe68d02859bb6211cec64f52368b77d422de3b8eac34bf615942b814b643301b5919050565b81600b036104ed57507f62d78399b954d51cb9728601738ad13ddc43b2300064660716bb661d2f4d686f919050565b81600c0361051c57507f6e250d9abdbbb3993fce08de0395cdb56f0483e67d8762a798de011f6a50866a919050565b81600d0361054b57507f1d1a3a74062fd94078617e33eb901eaf16a830f67c387d8eed342db2ac5e2cc5919050565b81600e0361057a57507f19b3b3886526917eae8650223d0be20a0301be960eb339696e673ad8a804440f919050565b81600f036105a957507fee9e05df53f10e62a897e5140a3f58732dd849e69cd1d62b21ed80ead711a014919050565b816010036105d857507f2cc7aa6e611a113a34505dc1c96b220f14909b70e2c2c7b1a74655da21013c5e919050565b8160110361060757507f949b52dfece7ca3bad3cb27f7750ecaee64cedb6243a275c35984e92956c530a919050565b8160120361063657507fb2680d060b763b932c150434c3812ba9fbc50937e0ebcf5758de884be81bab65919050565b8160130361066557507f523aebf4a085edbc9c8cdc99c83f46262e5f029b395ff7bf561a48a3f387e6b8919050565b8160140361069457507fc9ab73827ab33c0cedb7ecf0ed2e6e32583c0fe887133a7f381ea4ba84d95b76919050565b816015036106c357507f23eb397dec7e564ebe97f160a5e1081a77d9861f316807079b6be4731beb331e919050565b816016036106f257507fdfa44a274c60f090df034aaf75539fd40e94cfd6362dd53d26ed20c8ad529563919050565b8160170361072157507f15b13ee358e1044a53381243c094e54bf7aceb9b5325a0313d6b85fd44e8b3a5919050565b8160180361075057507f1a7a93871e2daa0f1860aa91d4ece4ccd012dac5fe581176a21b155cfeca6d40919050565b8160190361077f57507fb12665fd0b884a7c7d1e0294d369170d7e672d9e125eb87784556305f98292df919050565b81601a036107ae57507f2a5543b0b2f8cf550524390291774f4d6c8c0a25ff5393b09c44d75c92a5bd8e919050565b81601b036107dd57507ff9df1841a6e7164b67a1242f1c74975137085ffd9721831f6c469d3a4d5ba42e919050565b81601c0361080c57507fba24736b1b48246c1f7803be967be43ca0dddc9c2c0687a2957952249bc89371919050565b81601d0361083b57507ff3f706b73790c73ca0a8f0460ac3a2a102e280415586b520e70cd5e8264388b4919050565b81601e0361086a57507fc1f5a9a9f357e1c37814688cf7290c87a264ed3d6174a12b978da1c586f53825919050565b81601f0361089957507f766f7702e19ce23d426cdad03e4292a5a42c4669420101fed74400ec7cda3ac6919050565b816020036108c857507f070fec213e105b3e4d9b0434ac2fc7ca721d35093dc741fb9419797003e2394a919050565b816021036108f757507f9a7aade05b49e43f5fd3782571cc8c90eadacd5d660b53842b4e5b63d675ae0c919050565b8160220361092657507fb27b35a8236d0f9b6692820429c025ed58ed378dc98d316b762f0c865c68be6f919050565b8160230361095557507fdc567ad38d9b90cc9bea4e0f82ec05eca10b3aa94eddc7b63c4fd20c001bb53b919050565b8160240361098457507fb208dfc457c8b30661ae49544c8e57399818095aab8dd7a426fb8dd56bb8c559919050565b816025036109b357507fc4a72e1ff84f7a22631f3f95c61c392f98f52050360215a9d7e75d79b0bcd2ca919050565b816026036109e257507fbb093ec8c0d7defb1de668b5b5dd4f2619e5cd92d29cc144862364a83ab993a8919050565b81602703610a1157507fe341796f2fe3975012c1e6badfa2e9c4523e43f911dc845082c3f4d7b4ff871d919050565b81602803610a4057507f42d356a11a0b39243eca3c3263299cb6f8c3e9728af6d9d8b0ddb6d354f1890d919050565b81602903610a6f57507f0ce506e834e3a50a33f80074bc7fa16cf3c0712b36a41b69699177ea25de6c30919050565b81602a03610a9e57507fd8fa5bf130aeb7756b1ed09090cc80ed78dae0617978540f0fabd06dfb978938919050565b81602b03610acd57507feed69a20fe36eb604f2153efa3b01c0e143cdf02229a1b8f741c9c2719059eb0919050565b81602c03610afc57507f303c9c566ebf5bfe252796e5c131a99801226152a514688b5ca6883e99031d88919050565b81602d03610b2b57507fc7c3765ba96cfbccf3ae718393fa89791070cc8cd85f280b6ac46aea10d96042919050565b81602e03610b5a57507f1ca65b0a2b8034ee6bfb1fa4526832304e393af835c2c42b4dace58048746800919050565b81602f03610b8957507f957add5e02350fd47de3a8e1da38fd774ceb31214d5897ed6315740a83cd634a919050565b81603003610bb857507f787892cb439d5d358870774e163557cf02ec3cb87be6fde11abf1acee14eeaa4919050565b81603103610be757507f047c0962d4f5c8f60692c587de07739528c4d2059240d61dd34d2a547a438ee6919050565b81603203610c1657507fc18727efc9e4df63020dcd90edc17dfd2ad14f02328c912b13898e0b53735556919050565b81603303610c4557507fe38b9218987e451effe1648c3c9851ad03b64b052a5a3f5ca30f4d7b1ecf7120919050565b81603403610c7457507f0e48ecb1a5418e6218289acc8cf723e67ac6eae3ecb80f644336ab4365a2f2b2919050565b81603503610ca357507fd60e66f5b8cd08d71a1a4d7798952a7afa5a6e93a886c587a46a5500ebef4a60919050565b81603603610cd257507f5162aa9c31d9105f689cf6e71e19548bc9f0218b7d0f99ff7fa8bc2f19c68462919050565b81603703610d0157507f6fa8519b4b0e8fb97a9b618e97627d97b9b9d29d04521fd96472e9c502700568919050565b81603803610d3057507f41f5dcf0cdee270a2ad9a5f8130aaaab94b237463e09757c28b0321f09e24eb0919050565b81603903610d5f57507f87a119239fa90732197108adfd029938b4743874d959d3da79b3a30f4832899e919050565b81603a03610d8e57507f8e96dbaa5c72e84a5297b040ccc1a60750a3201166e3b7740d352837233608a1919050565b81603b03610dbd57507f01605058d167ce967af8c475d2f6c341c3e0b437babf899c9da73a520aa4ecb5919050565b81603c03610dec57507f04529eb80532c5118949d700d8dfd2aa86850b1c6479b26276b9486784a145ff919050565b81603d03610e1b57507fd191814ad13f27361ae20a46cbac8f6e76c10ebe9af0806d6720492ee2f296f0919050565b81603e03610e4a57507fa28df63f78821060570da371c0be1312188346b92a7965cc4b980b26c134a4d7919050565b81603f03610e7957507fb48a92d40b61dc995ceecee4cded6415050dcece448b1e0b5e5b6a0e6981f3ef919050565b60405162461bcd60e51b8152602060048201526012602482015271125b99195e081bdd5d081bd988189bdd5b9960721b604482015260640160405180910390fd5b6001805460009190610ecd90829061126f565b81548110610edd57610edd611282565b9060005260206000200154905090565b600080610efc6000548461015b565b90506000610f0d6001851b8361125c565b60018054919250610f1d9161126f565b6001901b811115610f6557610f306101a1565b610f3861105a565b60018054610f46919061126f565b6001901b811115610f5e57610f5961105a565b610f38565b6001546002555b600154610f71856110e7565b60008087875b8481101561103c57610f8c600288831c611298565b600003610fd2578160018281548110610fa757610fa7611282565b600091825260209091200155610fbe81600161125c565b600255610fcc60018661126f565b5061103c565b60018181548110610fe557610fe5611282565b906000526020600020015493508192508383604051602001611011929190918252602082015260400190565b6040516020818303038152906040528051906020012091508080611034906112ba565b915050610f77565b5061104a6001891b8761125c565b6000555093979650505050505050565b600180549060009061106c818461126f565b8154811061107c5761107c611282565b6000918252602082200154915061109761010260018561126f565b9050600182826040516020016110b7929190918252602082015260400190565b60408051601f19818403018152919052805160209182012082546001810184556000938452919092200155505050565b8060025411156110f45750565b60018054600254909160009161110b90829061126f565b8154811061111b5761111b611282565b90600052602060002001549050600061113c6001600254610102919061126f565b6002549091505b83811015611204576040805160208082018690528183018590528251808303840181526060909201909252805191012060005461118490600290841c611298565b6000036111cd57809350611197826102b7565b92508582106111c85780600183815481106111b4576111b4611282565b600091825260209091200155505050505050565b6111f1565b600182815481106111e0576111e0611282565b906000526020600020015493508092505b50806111fc816112ba565b915050611143565b5050505050565b60006020828403121561121d57600080fd5b5035919050565b6000806040838503121561123757600080fd5b50508035926020909101359150565b634e487b7160e01b600052601160045260246000fd5b8082018082111561018f5761018f611246565b8181038181111561018f5761018f611246565b634e487b7160e01b600052603260045260246000fd5b6000826112b557634e487b7160e01b600052601260045260246000fd5b500690565b6000600182016112cc576112cc611246565b506001019056fea26469706673582212204f7b244ea28d85ab14e6ad3719ae7eb4888396c46f7edb6a8a22609e5111e1cc64736f6c63430008100033",
  "linkReferences": {},
  "deployedLinkReferences": {}
}