{
  "_format": "hh-sol-artifact-1",
  "contractName": "FixedPriceFlow",
  "sourceName": "contracts/dataFlow/FixedPriceFlow.sol",
  "abi": [
    {
      "inputs": [
        {
          "internalType": "address",
          "name": "book_",
          "type": "address"
        },
        {
          "internalType": "uint256",
          "name": "blocksPerEpoch_",
          "type": "uint256"
        },
        {
          "internalType": "uint256",
          "name": "deployDelay_",
          "type": "uint256"
        }
      ],
      "stateMutability": "nonpayable",
      "type": "constructor"
    },
    {
      "inputs": [],
      "name": "InvalidSubmission",
      "type": "error"
    },
    {
      "anonymous": false,
      "inputs": [
        {
          "indexed": true,
          "internalType": "address",
          "name": "sender",
          "type": "address"
        },
        {
          "indexed": true,
          "internalType": "uint256",
          "name": "index",
          "type": "uint256"
        },
        {
          "indexed": false,
          "internalType": "bytes32",
          "name": "startMerkleRoot",
          "type": "bytes32"
        },
        {
          "indexed": false,
          "internalType": "uint256",
          "name": "submissionIndex",
          "type": "uint256"
        },
        {
          "indexed": false,
          "internalType": "uint256",
          "name": "flowLength",
          "type": "uint256"
        },
        {
          "indexed": false,
          "internalType": "bytes32",
          "name": "context",
          "type": "bytes32"
        }
      ],
      "name": "NewEpoch",
      "type": "event"
    },
    {
      "anonymous": false,
      "inputs": [
        {
          "indexed": false,
          "internalType": "address",
          "name": "account",
          "type": "address"
        }
      ],
      "name": "Paused",
      "type": "event"
    },
    {
      "anonymous": false,
      "inputs": [
        {
          "indexed": true,
          "internalType": "address",
          "name": "sender",
          "type": "address"
        },
        {
          "indexed": true,
          "internalType": "bytes32",
          "name": "identity",
          "type": "bytes32"
        },
        {
          "indexed": false,
          "internalType": "uint256",
          "name": "submissionIndex",
          "type": "uint256"
        },
        {
          "indexed": false,
          "internalType": "uint256",
          "name": "startPos",
          "type": "uint256"
        },
        {
          "indexed": false,
          "internalType": "uint256",
          "name": "length",
          "type": "uint256"
        },
        {
          "components": [
            {
              "internalType": "uint256",
              "name": "length",
              "type": "uint256"
            },
            {
              "internalType": "bytes",
              "name": "tags",
              "type": "bytes"
            },
            {
              "components": [
                {
                  "internalType": "bytes32",
                  "name": "root",
                  "type": "bytes32"
                },
                {
                  "internalType": "uint256",
                  "name": "height",
                  "type": "uint256"
                }
              ],
              "internalType": "struct SubmissionNode[]",
              "name": "nodes",
              "type": "tuple[]"
            }
          ],
          "indexed": false,
          "internalType": "struct Submission",
          "name": "submission",
          "type": "tuple"
        }
      ],
      "name": "Submit",
      "type": "event"
    },
    {
      "anonymous": false,
      "inputs": [
        {
          "indexed": false,
          "internalType": "address",
          "name": "account",
          "type": "address"
        }
      ],
      "name": "Unpaused",
      "type": "event"
    },
    {
      "inputs": [
        {
          "components": [
            {
              "internalType": "uint256",
              "name": "length",
              "type": "uint256"
            },
            {
              "internalType": "bytes",
              "name": "tags",
              "type": "bytes"
            },
            {
              "components": [
                {
                  "internalType": "bytes32",
                  "name": "root",
                  "type": "bytes32"
                },
                {
                  "internalType": "uint256",
                  "name": "height",
                  "type": "uint256"
                }
              ],
              "internalType": "struct SubmissionNode[]",
              "name": "nodes",
              "type": "tuple[]"
            }
          ],
          "internalType": "struct Submission[]",
          "name": "submissions",
          "type": "tuple[]"
        }
      ],
      "name": "batchSubmit",
      "outputs": [
        {
          "internalType": "uint256[]",
          "name": "indexes",
          "type": "uint256[]"
        },
        {
          "internalType": "bytes32[]",
          "name": "digests",
          "type": "bytes32[]"
        },
        {
          "internalType": "uint256[]",
          "name": "startIndexes",
          "type": "uint256[]"
        },
        {
          "internalType": "uint256[]",
          "name": "lengths",
          "type": "uint256[]"
        }
      ],
      "stateMutability": "payable",
      "type": "function"
    },
    {
      "inputs": [],
      "name": "blocksPerEpoch",
      "outputs": [
        {
          "internalType": "uint256",
          "name": "",
          "type": "uint256"
        }
      ],
      "stateMutability": "view",
      "type": "function"
    },
    {
      "inputs": [],
      "name": "book",
      "outputs": [
        {
          "internalType": "contract AddressBook",
          "name": "",
          "type": "address"
        }
      ],
      "stateMutability": "view",
      "type": "function"
    },
    {
      "inputs": [],
      "name": "commitRoot",
      "outputs": [],
      "stateMutability": "nonpayable",
      "type": "function"
    },
    {
      "inputs": [],
      "name": "currentLength",
      "outputs": [
        {
          "internalType": "uint256",
          "name": "",
          "type": "uint256"
        }
      ],
      "stateMutability": "view",
      "type": "function"
    },
    {
      "inputs": [],
      "name": "epoch",
      "outputs": [
        {
          "internalType": "uint256",
          "name": "",
          "type": "uint256"
        }
      ],
      "stateMutability": "view",
      "type": "function"
    },
    {
      "inputs": [],
      "name": "epochStartPosition",
      "outputs": [
        {
          "internalType": "uint256",
          "name": "",
          "type": "uint256"
        }
      ],
      "stateMutability": "view",
      "type": "function"
    },
    {
      "inputs": [],
      "name": "firstBlock",
      "outputs": [
        {
          "internalType": "uint256",
          "name": "",
          "type": "uint256"
        }
      ],
      "stateMutability": "view",
      "type": "function"
    },
    {
      "inputs": [],
      "name": "getContext",
      "outputs": [
        {
          "components": [
            {
              "internalType": "uint256",
              "name": "epoch",
              "type": "uint256"
            },
            {
              "internalType": "uint256",
              "name": "mineStart",
              "type": "uint256"
            },
            {
              "internalType": "bytes32",
              "name": "flowRoot",
              "type": "bytes32"
            },
            {
              "internalType": "uint256",
              "name": "flowLength",
              "type": "uint256"
            },
            {
              "internalType": "bytes32",
              "name": "blockDigest",
              "type": "bytes32"
            },
            {
              "internalType": "bytes32",
              "name": "digest",
              "type": "bytes32"
            }
          ],
          "internalType": "struct MineContext",
          "name": "",
          "type": "tuple"
        }
      ],
      "stateMutability": "view",
      "type": "function"
    },
    {
      "inputs": [
        {
          "internalType": "bytes32",
          "name": "digest",
          "type": "bytes32"
        }
      ],
      "name": "getEpochRange",
      "outputs": [
        {
          "components": [
            {
              "internalType": "uint128",
              "name": "start",
              "type": "uint128"
            },
            {
              "internalType": "uint128",
              "name": "end",
              "type": "uint128"
            }
          ],
          "internalType": "struct EpochRange",
          "name": "",
          "type": "tuple"
        }
      ],
      "stateMutability": "view",
      "type": "function"
    },
    {
      "inputs": [],
      "name": "makeContext",
      "outputs": [],
      "stateMutability": "nonpayable",
      "type": "function"
    },
    {
      "inputs": [],
      "name": "makeContextWithResult",
      "outputs": [
        {
          "components": [
            {
              "internalType": "uint256",
              "name": "epoch",
              "type": "uint256"
            },
            {
              "internalType": "uint256",
              "name": "mineStart",
              "type": "uint256"
            },
            {
              "internalType": "bytes32",
              "name": "flowRoot",
              "type": "bytes32"
            },
            {
              "internalType": "uint256",
              "name": "flowLength",
              "type": "uint256"
            },
            {
              "internalType": "bytes32",
              "name": "blockDigest",
              "type": "bytes32"
            },
            {
              "internalType": "bytes32",
              "name": "digest",
              "type": "bytes32"
            }
          ],
          "internalType": "struct MineContext",
          "name": "",
          "type": "tuple"
        }
      ],
      "stateMutability": "nonpayable",
      "type": "function"
    },
    {
      "inputs": [],
      "name": "market",
      "outputs": [
        {
          "internalType": "contract FixedPrice",
          "name": "",
          "type": "address"
        }
      ],
      "stateMutability": "view",
      "type": "function"
    },
    {
      "inputs": [
        {
          "internalType": "uint256",
          "name": "_length",
          "type": "uint256"
        },
        {
          "internalType": "uint256",
          "name": "alignExp",
          "type": "uint256"
        }
      ],
      "name": "nextAlign",
      "outputs": [
        {
          "internalType": "uint256",
          "name": "",
          "type": "uint256"
        }
      ],
      "stateMutability": "pure",
      "type": "function"
    },
    {
      "inputs": [
        {
          "internalType": "uint256",
          "name": "_length",
          "type": "uint256"
        }
      ],
      "name": "nextPow2",
      "outputs": [
        {
          "internalType": "uint256",
          "name": "",
          "type": "uint256"
        }
      ],
      "stateMutability": "pure",
      "type": "function"
    },
    {
      "inputs": [],
      "name": "numSubmissions",
      "outputs": [
        {
          "internalType": "uint256",
          "name": "",
          "type": "uint256"
        }
      ],
      "stateMutability": "view",
      "type": "function"
    },
    {
      "inputs": [],
      "name": "paused",
      "outputs": [
        {
          "internalType": "bool",
          "name": "",
          "type": "bool"
        }
      ],
      "stateMutability": "view",
      "type": "function"
    },
    {
      "inputs": [
        {
          "internalType": "uint128",
          "name": "targetPosition",
          "type": "uint128"
        }
      ],
      "name": "queryContextAtPosition",
      "outputs": [
        {
          "components": [
            {
              "internalType": "uint128",
              "name": "start",
              "type": "uint128"
            },
            {
              "internalType": "uint128",
              "name": "end",
              "type": "uint128"
            },
            {
              "internalType": "bytes32",
              "name": "digest",
              "type": "bytes32"
            }
          ],
          "internalType": "struct EpochRangeWithContextDigest",
          "name": "range",
          "type": "tuple"
        }
      ],
      "stateMutability": "nonpayable",
      "type": "function"
    },
    {
      "inputs": [],
      "name": "root",
      "outputs": [
        {
          "internalType": "bytes32",
          "name": "",
          "type": "bytes32"
        }
      ],
      "stateMutability": "view",
      "type": "function"
    },
    {
      "inputs": [],
      "name": "rootHistory",
      "outputs": [
        {
          "internalType": "contract IDigestHistory",
          "name": "",
          "type": "address"
        }
      ],
      "stateMutability": "view",
      "type": "function"
    },
    {
      "inputs": [],
      "name": "submissionIndex",
      "outputs": [
        {
          "internalType": "uint256",
          "name": "",
          "type": "uint256"
        }
      ],
      "stateMutability": "view",
      "type": "function"
    },
    {
      "inputs": [
        {
          "components": [
            {
              "internalType": "uint256",
              "name": "length",
              "type": "uint256"
            },
            {
              "internalType": "bytes",
              "name": "tags",
              "type": "bytes"
            },
            {
              "components": [
                {
                  "internalType": "bytes32",
                  "name": "root",
                  "type": "bytes32"
                },
                {
                  "internalType": "uint256",
                  "name": "height",
                  "type": "uint256"
                }
              ],
              "internalType": "struct SubmissionNode[]",
              "name": "nodes",
              "type": "tuple[]"
            }
          ],
          "internalType": "struct Submission",
          "name": "submission",
          "type": "tuple"
        }
      ],
      "name": "submit",
      "outputs": [
        {
          "internalType": "uint256",
          "name": "",
          "type": "uint256"
        },
        {
          "internalType": "bytes32",
          "name": "",
          "type": "bytes32"
        },
        {
          "internalType": "uint256",
          "name": "",
          "type": "uint256"
        },
        {
          "internalType": "uint256",
          "name": "",
          "type": "uint256"
        }
      ],
      "stateMutability": "payable",
      "type": "function"
    },
    {
      "inputs": [],
      "name": "unstagedHeight",
      "outputs": [
        {
          "internalType": "uint256",
          "name": "",
          "type": "uint256"
        }
      ],
      "stateMutability": "view",
      "type": "function"
    },
    {
      "inputs": [
        {
          "internalType": "uint256",
          "name": "height",
          "type": "uint256"
        }
      ],
      "name": "zeros",
      "outputs": [
        {
          "internalType": "bytes32",
          "name": "",
          "type": "bytes32"
        }
      ],
      "stateMutability": "pure",
      "type": "function"
    }
  ],
  "bytecode": "0x6101206040523480156200001257600080fd5b5060405162003580380380620035808339810160408190526200003591620002e4565b6000805460ff191681556001805560408051828152602081019182905251859284928692620000679160029162000256565b50600280546001818101835560009283527f405787fa12a823e0f2b7631cc41b3ba8828b3321ca811111fa75cd3aa3bb5ace9091019290925560039190915560055560c0829052604051601490620000bf90620002a6565b908152602001604051809103906000f080158015620000e2573d6000803e3d6000fd5b506001600160a01b031660a052620000fb814362000334565b60e09081526001600160a01b0384166080526040805160c081018252600081529151602083015281016200012e6200021d565b815260016020808301919091527fc5d2460186f7233c927e7db2dcc703c0e500b653ca82273b7bfad8045d85a47060408084018290526060938401919091528351600755838201516008558381015160095591830151600a55608080840151600b5560a090930151600c55915181516380f5560560e01b815291516001600160a01b0390911695506380f5560594506004828101945090918290030181865afa158015620001e0573d6000803e3d6000fd5b505050506040513d601f19601f8201168201806040525081019062000206919062000350565b6001600160a01b03166101005250620003a3915050565b6002805460009190620002339060019062000377565b815481106200024657620002466200038d565b9060005260206000200154905090565b82805482825590600052602060002090810192821562000294579160200282015b828111156200029457825182559160200191906001019062000277565b50620002a2929150620002b4565b5090565b6106718062002f0f83390190565b5b80821115620002a25760008155600101620002b5565b6001600160a01b0381168114620002e157600080fd5b50565b600080600060608486031215620002fa57600080fd5b83516200030781620002cb565b602085015160409095015190969495509392505050565b634e487b7160e01b600052601160045260246000fd5b808201808211156200034a576200034a6200031e565b92915050565b6000602082840312156200036357600080fd5b81516200037081620002cb565b9392505050565b818103818111156200034a576200034a6200031e565b634e487b7160e01b600052603260045260246000fd5b60805160a05160c05160e05161010051612aef6200042060003960006103da0152600081816102140152818161078a015281816107cd01528181610b7b01528181610dd80152611b8501526000818161054f01526107f301526000818161049e01526108540152600081816101620152611fbe0152612aef6000f3fe60806040526004361061014b5760003560e01c8063900cf0cf116100b6578063c7dd52211161006f578063c7dd52211461048c578063d34353c9146104c0578063e8295588146104d5578063ebf0c717146104f5578063ef3e12dc1461050a578063f06820541461053d57600080fd5b8063900cf0cf146103fc57806393e405a0146104125780639e62a38e14610428578063a3d35f361461044b578063b464b53e14610461578063b8a409ac1461047657600080fd5b80633d75d9c2116101085780633d75d9c2146102c1578063555430a1146102e15780635c975abb1461030157806377e19824146103245780637d5907081461033957806380f55605146103c857600080fd5b806305a8da7214610150578063127f0f07146101a1578063231b02681461020257806331bae17414610244578063364800ec1461029457806338d45e10146102aa575b600080fd5b34801561015c57600080fd5b506101847f000000000000000000000000000000000000000000000000000000000000000081565b6040516001600160a01b0390911681526020015b60405180910390f35b3480156101ad57600080fd5b506101b6610571565b6040516101989190600060c082019050825182526020830151602083015260408301516040830152606083015160608301526080830151608083015260a083015160a083015292915050565b34801561020e57600080fd5b506102367f000000000000000000000000000000000000000000000000000000000000000081565b604051908152602001610198565b34801561025057600080fd5b5061026461025f36600461245e565b6105e0565b6040805182516001600160801b039081168252602080850151909116908201529181015190820152606001610198565b3480156102a057600080fd5b5061023660035481565b3480156102b657600080fd5b506102bf610788565b005b3480156102cd57600080fd5b506102366102dc366004612487565b610ae5565b3480156102ed57600080fd5b506102366102fc3660046124a0565b610b31565b34801561030d57600080fd5b5060005460ff166040519015158152602001610198565b34801561033057600080fd5b50600454610236565b34801561034557600080fd5b506103a1610354366004612487565b6040805180820190915260008082526020820152506000908152600d60209081526040918290208251808401909352546001600160801b038082168452600160801b909104169082015290565b6040805182516001600160801b039081168252602093840151169281019290925201610198565b3480156103d457600080fd5b506101847f000000000000000000000000000000000000000000000000000000000000000081565b34801561040857600080fd5b5061023660055481565b34801561041e57600080fd5b5061023660065481565b61043b6104363660046126d5565b610b6b565b60405161019894939291906127c1565b34801561045757600080fd5b5061023660015481565b34801561046d57600080fd5b506101b6610da4565b34801561048257600080fd5b5061023660045481565b34801561049857600080fd5b506101847f000000000000000000000000000000000000000000000000000000000000000081565b3480156104cc57600080fd5b506102bf610e2b565b3480156104e157600080fd5b506102366104f0366004612487565b610f42565b34801561050157600080fd5b50610236611b41565b61051d610518366004612840565b611b75565b604080519485526020850193909352918301526060820152608001610198565b34801561054957600080fd5b506102367f000000000000000000000000000000000000000000000000000000000000000081565b6040805160c081018252600080825260208201819052918101829052606081018290526080810182905260a0810191909152506040805160c0810182526007548152600854602082015260095491810191909152600a546060820152600b546080820152600c5460a082015290565b6040805160608101825260008082526020820181905291810191909152610605610788565b600154826001600160801b0316106106705760405162461bcd60e51b8152602060048201526024808201527f5175657269656420706f736974696f6e206578636565647320757070657220626044820152631bdd5b9960e21b60648201526084015b60405180910390fd5b600e546000905b81811115610740576000600261068d8484612893565b61069791906128bc565b9050600e81815481106106ac576106ac6128d0565b600091825260209182902060408051606081018252600290930290910180546001600160801b038082168552600160801b9091048116948401859052600190910154918301919091529095508616106107115761070a816001612893565b925061073a565b83600001516001600160801b0316856001600160801b03161061073657505050919050565b8091505b50610677565b60405162461bcd60e51b815260206004820152601b60248201527f43616e206e6f742066696e642070726f70657220636f6e7465787400000000006044820152606401610667565b7f00000000000000000000000000000000000000000000000000000000000000004310156107c85760405162461bcd60e51b8152600401610667906128e6565b6005547f000000000000000000000000000000000000000000000000000000000000000060019091017f0000000000000000000000000000000000000000000000000000000000000000020143811061081e5750565b610826610e2b565b6000610830611b41565b604051632d287e4360e01b8152600481018290529091506000906001600160a01b037f00000000000000000000000000000000000000000000000000000000000000001690632d287e43906024016020604051808303816000875af115801561089d573d6000803e3d6000fd5b505050506040513d601f19601f820116820180604052508101906108c1919061291d565b905060055481146108d4576108d4612936565b600080436108e486610100612893565b101561091457507fc5d2460186f7233c927e7db2dcc703c0e500b653ca82273b7bfad8045d85a470905080610a22565b506001546040805186406020820181905291810186905260608101929092529060800160408051808303601f190181528282528051602091820120600680546001805487870187526001600160801b039283168089529083168689018181526000878152600d89528981209a519151918616600160801b928716830217909a558851606081018a52928352968201908152968101858152600e8054808501825599529051965196831696909216909402949094177fbb7b4a454dc3493923482f07822329ed19e8244eff582cc204f8554c3620c3fd60029096029586015592517fbb7b4a454dc3493923482f07822329ed19e8244eff582cc204f8554c3620c3fe9094019390935554905591505b600160056000828254610a359190612893565b90915550506040805160c08101825260055480825260208083018990528284018890526001546060808501829052608080860188905260a0909501889052600784905560088b905560098a9055600a829055600b879055600c88905560045486518b815293840152948201529283018590529133917fbc8a3fd82465d43f1709e44ed882f7e1af0147274196ef1ec009f5d52ff4e993910160405180910390a3610add610788565b50505050505b565b600081808203610af85750600092915050565b600181811c909117600281901c17600481901c17600881901c17601081901c17602081901c1790610b2a908290612893565b9392505050565b600082808203610b45576000915050610b65565b610b5060018261294c565b831c9050610b5f600182612893565b831b9150505b92915050565b606080606080610b79611cad565b7f0000000000000000000000000000000000000000000000000000000000000000431015610bb95760405162461bcd60e51b8152600401610667906128e6565b84518067ffffffffffffffff811115610bd457610bd46124c2565b604051908082528060200260200182016040528015610bfd578160200160208202803683370190505b5094508067ffffffffffffffff811115610c1957610c196124c2565b604051908082528060200260200182016040528015610c42578160200160208202803683370190505b5093508067ffffffffffffffff811115610c5e57610c5e6124c2565b604051908082528060200260200182016040528015610c87578160200160208202803683370190505b5092508067ffffffffffffffff811115610ca357610ca36124c2565b604051908082528060200260200182016040528015610ccc578160200160208202803683370190505b50915060005b81811015610d9b57600080600080610d028b8681518110610cf557610cf56128d0565b6020026020010151611b75565b9350935093509350838a8681518110610d1d57610d1d6128d0565b60200260200101818152505082898681518110610d3c57610d3c6128d0565b60200260200101818152505081888681518110610d5b57610d5b6128d0565b60200260200101818152505080878681518110610d7a57610d7a6128d0565b6020026020010181815250505050505080610d949061295f565b9050610cd2565b50509193509193565b6040805160c081018252600080825260208201819052918101829052606081018290526080810182905260a08101919091527f0000000000000000000000000000000000000000000000000000000000000000431015610e165760405162461bcd60e51b8152600401610667906128e6565b610e1e610788565b610e26610571565b905090565b60025460035403610e3857565b600280546003549091600091610e509060019061294c565b81548110610e6057610e606128d0565b906000526020600020015490506000610e8160016003546104f0919061294c565b6003549091505b83811015610f3a5760408051602080820186905281830185905282518083038401815260609092019092528051910120600154610ec990600290841c612978565b600003610f0357809350610edc82610f42565b92508060028381548110610ef257610ef26128d0565b600091825260209091200155610f27565b60028281548110610f1657610f166128d0565b906000526020600020015493508092505b5080610f328161295f565b915050610e88565b505050600355565b600081600003610f7357507fd397b3b043d87fcd6fad1291ff0bfd16401c274896d8c63a923727f077b8e0b5919050565b81600103610fa257507ff73e6947d7d1628b9976a6e40d7b278a8a16405e96324a68df45b12a51b7cfde919050565b81600203610fd157507fa1520264ae93cac619e22e8718fc4fa7ebdd23f493cad602434d2a58ff4868fb919050565b8160030361100057507fde5747106ac1194a1fa9071dbd6cf19dc2bc7964497ef0afec7e4bdbcf08c47e919050565b8160040361102f57507f09c7082879180d28c789c05fafe7030871c76cedbe82c948b165d6a1d66ac15b919050565b8160050361105e57507faa7a02bcf29fba687f84123c808b5b48834ff5395abe98e622fadc14e4180c95919050565b8160060361108d57507f7608fd46b710b589e0f2ee5a13cd9c41d432858a30d524f84c6d5db37f66273a919050565b816007036110bc57507fa5d9a2f7f3573ac9a1366bc484688b4daf934b87ea9b3bf2e703da8fd9f09708919050565b816008036110eb57507f6c1779477f4c3fca26b4607398859a43b90a286ce8062500744bd4949981757f919050565b8160090361111a57507f45c22df3d952c33d5edce122eed85e5cda3fd61939e7ad7b3e03b6927bb598ea919050565b81600a0361114957507fe68d02859bb6211cec64f52368b77d422de3b8eac34bf615942b814b643301b5919050565b81600b0361117857507f62d78399b954d51cb9728601738ad13ddc43b2300064660716bb661d2f4d686f919050565b81600c036111a757507f6e250d9abdbbb3993fce08de0395cdb56f0483e67d8762a798de011f6a50866a919050565b81600d036111d657507f1d1a3a74062fd94078617e33eb901eaf16a830f67c387d8eed342db2ac5e2cc5919050565b81600e0361120557507f19b3b3886526917eae8650223d0be20a0301be960eb339696e673ad8a804440f919050565b81600f0361123457507fee9e05df53f10e62a897e5140a3f58732dd849e69cd1d62b21ed80ead711a014919050565b8160100361126357507f2cc7aa6e611a113a34505dc1c96b220f14909b70e2c2c7b1a74655da21013c5e919050565b8160110361129257507f949b52dfece7ca3bad3cb27f7750ecaee64cedb6243a275c35984e92956c530a919050565b816012036112c157507fb2680d060b763b932c150434c3812ba9fbc50937e0ebcf5758de884be81bab65919050565b816013036112f057507f523aebf4a085edbc9c8cdc99c83f46262e5f029b395ff7bf561a48a3f387e6b8919050565b8160140361131f57507fc9ab73827ab33c0cedb7ecf0ed2e6e32583c0fe887133a7f381ea4ba84d95b76919050565b8160150361134e57507f23eb397dec7e564ebe97f160a5e1081a77d9861f316807079b6be4731beb331e919050565b8160160361137d57507fdfa44a274c60f090df034aaf75539fd40e94cfd6362dd53d26ed20c8ad529563919050565b816017036113ac57507f15b13ee358e1044a53381243c094e54bf7aceb9b5325a0313d6b85fd44e8b3a5919050565b816018036113db57507f1a7a93871e2daa0f1860aa91d4ece4ccd012dac5fe581176a21b155cfeca6d40919050565b8160190361140a57507fb12665fd0b884a7c7d1e0294d369170d7e672d9e125eb87784556305f98292df919050565b81601a0361143957507f2a5543b0b2f8cf550524390291774f4d6c8c0a25ff5393b09c44d75c92a5bd8e919050565b81601b0361146857507ff9df1841a6e7164b67a1242f1c74975137085ffd9721831f6c469d3a4d5ba42e919050565b81601c0361149757507fba24736b1b48246c1f7803be967be43ca0dddc9c2c0687a2957952249bc89371919050565b81601d036114c657507ff3f706b73790c73ca0a8f0460ac3a2a102e280415586b520e70cd5e8264388b4919050565b81601e036114f557507fc1f5a9a9f357e1c37814688cf7290c87a264ed3d6174a12b978da1c586f53825919050565b81601f0361152457507f766f7702e19ce23d426cdad03e4292a5a42c4669420101fed74400ec7cda3ac6919050565b8160200361155357507f070fec213e105b3e4d9b0434ac2fc7ca721d35093dc741fb9419797003e2394a919050565b8160210361158257507f9a7aade05b49e43f5fd3782571cc8c90eadacd5d660b53842b4e5b63d675ae0c919050565b816022036115b157507fb27b35a8236d0f9b6692820429c025ed58ed378dc98d316b762f0c865c68be6f919050565b816023036115e057507fdc567ad38d9b90cc9bea4e0f82ec05eca10b3aa94eddc7b63c4fd20c001bb53b919050565b8160240361160f57507fb208dfc457c8b30661ae49544c8e57399818095aab8dd7a426fb8dd56bb8c559919050565b8160250361163e57507fc4a72e1ff84f7a22631f3f95c61c392f98f52050360215a9d7e75d79b0bcd2ca919050565b8160260361166d57507fbb093ec8c0d7defb1de668b5b5dd4f2619e5cd92d29cc144862364a83ab993a8919050565b8160270361169c57507fe341796f2fe3975012c1e6badfa2e9c4523e43f911dc845082c3f4d7b4ff871d919050565b816028036116cb57507f42d356a11a0b39243eca3c3263299cb6f8c3e9728af6d9d8b0ddb6d354f1890d919050565b816029036116fa57507f0ce506e834e3a50a33f80074bc7fa16cf3c0712b36a41b69699177ea25de6c30919050565b81602a0361172957507fd8fa5bf130aeb7756b1ed09090cc80ed78dae0617978540f0fabd06dfb978938919050565b81602b0361175857507feed69a20fe36eb604f2153efa3b01c0e143cdf02229a1b8f741c9c2719059eb0919050565b81602c0361178757507f303c9c566ebf5bfe252796e5c131a99801226152a514688b5ca6883e99031d88919050565b81602d036117b657507fc7c3765ba96cfbccf3ae718393fa89791070cc8cd85f280b6ac46aea10d96042919050565b81602e036117e557507f1ca65b0a2b8034ee6bfb1fa4526832304e393af835c2c42b4dace58048746800919050565b81602f0361181457507f957add5e02350fd47de3a8e1da38fd774ceb31214d5897ed6315740a83cd634a919050565b8160300361184357507f787892cb439d5d358870774e163557cf02ec3cb87be6fde11abf1acee14eeaa4919050565b8160310361187257507f047c0962d4f5c8f60692c587de07739528c4d2059240d61dd34d2a547a438ee6919050565b816032036118a157507fc18727efc9e4df63020dcd90edc17dfd2ad14f02328c912b13898e0b53735556919050565b816033036118d057507fe38b9218987e451effe1648c3c9851ad03b64b052a5a3f5ca30f4d7b1ecf7120919050565b816034036118ff57507f0e48ecb1a5418e6218289acc8cf723e67ac6eae3ecb80f644336ab4365a2f2b2919050565b8160350361192e57507fd60e66f5b8cd08d71a1a4d7798952a7afa5a6e93a886c587a46a5500ebef4a60919050565b8160360361195d57507f5162aa9c31d9105f689cf6e71e19548bc9f0218b7d0f99ff7fa8bc2f19c68462919050565b8160370361198c57507f6fa8519b4b0e8fb97a9b618e97627d97b9b9d29d04521fd96472e9c502700568919050565b816038036119bb57507f41f5dcf0cdee270a2ad9a5f8130aaaab94b237463e09757c28b0321f09e24eb0919050565b816039036119ea57507f87a119239fa90732197108adfd029938b4743874d959d3da79b3a30f4832899e919050565b81603a03611a1957507f8e96dbaa5c72e84a5297b040ccc1a60750a3201166e3b7740d352837233608a1919050565b81603b03611a4857507f01605058d167ce967af8c475d2f6c341c3e0b437babf899c9da73a520aa4ecb5919050565b81603c03611a7757507f04529eb80532c5118949d700d8dfd2aa86850b1c6479b26276b9486784a145ff919050565b81603d03611aa657507fd191814ad13f27361ae20a46cbac8f6e76c10ebe9af0806d6720492ee2f296f0919050565b81603e03611ad557507fa28df63f78821060570da371c0be1312188346b92a7965cc4b980b26c134a4d7919050565b81603f03611b0457507fb48a92d40b61dc995ceecee4cded6415050dcece448b1e0b5e5b6a0e6981f3ef919050565b60405162461bcd60e51b8152602060048201526012602482015271125b99195e081bdd5d081bd988189bdd5b9960721b6044820152606401610667565b6002805460009190611b559060019061294c565b81548110611b6557611b656128d0565b9060005260206000200154905090565b600080600080611b83611cad565b7f0000000000000000000000000000000000000000000000000000000000000000431015611bc35760405162461bcd60e51b8152600401610667906128e6565b611bcc85611cf3565b611c0d5760405162461bcd60e51b815260206004820152601260248201527124b73b30b634b21039bab136b4b9b9b4b7b760711b6044820152606401610667565b611c15610788565b6000611c2086611f0a565b90506000611c2d876120b0565b90506000611c3a8861210e565b600480549192506001906000611c508385612893565b9250508190555081336001600160a01b03167f167ce04d2aa1981994d3a31695da0d785373335b1078cec239a1a3a2c76755558387878e604051611c9794939291906129c7565b60405180910390a3989097509195509350915050565b60005460ff1615610ae35760405162461bcd60e51b815260206004820152601060248201526f14185d5cd8589b194e881c185d5cd95960821b6044820152606401610667565b6000816040015151600003611d0a57506000919050565b6040820151805160049190611d219060019061294c565b81518110611d3157611d316128d0565b6020026020010151602001518360400151600081518110611d5457611d546128d0565b602002602001015160200151611d6a919061294c565b10611d7757506000919050565b60408260400151600081518110611d9057611d906128d0565b60200260200101516020015110611da957506000919050565b60005b6001836040015151611dbe919061294c565b811015611e355782604001518181518110611ddb57611ddb6128d0565b6020026020010151602001518360400151826001611df99190612893565b81518110611e0957611e096128d0565b60200260200101516020015110611e235750600092915050565b80611e2d8161295f565b915050611dac565b506000611e41836120b0565b9050611e4f61010082612a5e565b83511115611e605750600092915050565b60006010821015611e7d57611e7660018361294c565b9050611ee3565b836040015151600103611e9857611e76600483901c8361294c565b60048460400151600081518110611eb157611eb16128d0565b602002602001015160200151611ec7919061294c565b611ed2906001612893565b611ee0906001901b8361294c565b90505b611eef61010082612a5e565b845111611f00575060009392505050565b5060019392505050565b600154600090815b836040015151811015611f9b57600084604001518281518110611f3757611f376128d0565b6020026020010151600001519050600085604001518381518110611f5d57611f5d6128d0565b60200260200101516020015190506000611f778383612142565b905083600003611f85578095505b5050508080611f939061295f565b915050611f12565b506000611fa8828461294c565b9050600083600154611fba919061294c565b90507f00000000000000000000000000000000000000000000000000000000000000006001600160a01b03166380f556056040518163ffffffff1660e01b8152600401602060405180830381865afa15801561201a573d6000803e3d6000fd5b505050506040513d601f19601f8201168201806040525081019061203e9190612a7d565b604051636d3759b560e11b81526004810185905260248101839052604481018490526001600160a01b03919091169063da6eb36a90606401600060405180830381600087803b15801561209057600080fd5b505af11580156120a4573d6000803e3d6000fd5b50505050505050919050565b600080805b83604001515181101561210757836040015181815181106120d8576120d86128d0565b6020026020010151602001516001901b826120f39190612893565b9150806120ff8161295f565b9150506120b5565b5092915050565b600081604001516040516020016121259190612aa6565b604051602081830303815290604052805190602001209050919050565b60008061215160015484610b31565b905060006121626001851b83612893565b6002549091506121749060019061294c565b6001901b8111156121bd57612187610e2b565b61218f6122b2565b60025461219e9060019061294c565b6001901b8111156121b6576121b16122b2565b61218f565b6002546003555b6002546121c985612340565b60008087875b84811015612294576121e4600288831c612978565b60000361222a5781600282815481106121ff576121ff6128d0565b600091825260209091200155612216816001612893565b60035561222460018661294c565b50612294565b6002818154811061223d5761223d6128d0565b906000526020600020015493508192508383604051602001612269929190918252602082015260400190565b604051602081830303815290604052805190602001209150808061228c9061295f565b9150506121cf565b506122a26001891b87612893565b6001555093979650505050505050565b60028054906000906122c560018461294c565b815481106122d5576122d56128d0565b600091825260208220015491506122f06104f060018561294c565b905060028282604051602001612310929190918252602082015260400190565b60408051601f19818403018152919052805160209182012082546001810184556000938452919092200155505050565b80600354111561234d5750565b6002805460035490916000916123659060019061294c565b81548110612375576123756128d0565b90600052602060002001549050600061239660016003546104f0919061294c565b6003549091505b83811015610add57604080516020808201869052818301859052825180830384018152606090920190925280519101206001546123de90600290841c612978565b600003612427578093506123f182610f42565b925085821061242257806002838154811061240e5761240e6128d0565b600091825260209091200155505050505050565b61244b565b6002828154811061243a5761243a6128d0565b906000526020600020015493508092505b50806124568161295f565b91505061239d565b60006020828403121561247057600080fd5b81356001600160801b0381168114610b2a57600080fd5b60006020828403121561249957600080fd5b5035919050565b600080604083850312156124b357600080fd5b50508035926020909101359150565b634e487b7160e01b600052604160045260246000fd5b6040805190810167ffffffffffffffff811182821017156124fb576124fb6124c2565b60405290565b6040516060810167ffffffffffffffff811182821017156124fb576124fb6124c2565b604051601f8201601f1916810167ffffffffffffffff8111828210171561254d5761254d6124c2565b604052919050565b600067ffffffffffffffff82111561256f5761256f6124c2565b5060051b60200190565b600082601f83011261258a57600080fd5b8135602061259f61259a83612555565b612524565b82815260069290921b840181019181810190868411156125be57600080fd5b8286015b848110156125fd57604081890312156125db5760008081fd5b6125e36124d8565b8135815284820135858201528352918301916040016125c2565b509695505050505050565b60006060828403121561261a57600080fd5b612622612501565b90508135815260208083013567ffffffffffffffff8082111561264457600080fd5b818501915085601f83011261265857600080fd5b81358181111561266a5761266a6124c2565b61267c601f8201601f19168501612524565b818152878583860101111561269057600080fd5b818585018683013760008583830101528085870152505060408501359250808311156126bb57600080fd5b50506126c984828501612579565b60408301525092915050565b600060208083850312156126e857600080fd5b823567ffffffffffffffff8082111561270057600080fd5b818501915085601f83011261271457600080fd5b813561272261259a82612555565b81815260059190911b8301840190848101908883111561274157600080fd5b8585015b838110156127795780358581111561275d5760008081fd5b61276b8b89838a0101612608565b845250918601918601612745565b5098975050505050505050565b600081518084526020808501945080840160005b838110156127b65781518752958201959082019060010161279a565b509495945050505050565b6080815260006127d46080830187612786565b82810360208481019190915286518083528782019282019060005b8181101561280b578451835293830193918301916001016127ef565b5050848103604086015261281f8188612786565b9250505082810360608401526128358185612786565b979650505050505050565b60006020828403121561285257600080fd5b813567ffffffffffffffff81111561286957600080fd5b61287584828501612608565b949350505050565b634e487b7160e01b600052601160045260246000fd5b80820180821115610b6557610b6561287d565b634e487b7160e01b600052601260045260246000fd5b6000826128cb576128cb6128a6565b500490565b634e487b7160e01b600052603260045260246000fd5b6020808252601a908201527f436f6e747261637420686173206e6f74206c61756e636865642e000000000000604082015260600190565b60006020828403121561292f57600080fd5b5051919050565b634e487b7160e01b600052600160045260246000fd5b81810381811115610b6557610b6561287d565b6000600182016129715761297161287d565b5060010190565b600082612987576129876128a6565b500690565b600081518084526020808501945080840160005b838110156127b65781518051885283015183880152604090960195908201906001016129a0565b848152600060208581840152846040840152608060608401528351608084015280840151606060a085015280518060e086015260005b81811015612a1a57828101840151868201610100015283016129fd565b5061010092506000838287010152601f19601f8201168501915050604085015160808583030160c0860152612a518383018261298c565b9998505050505050505050565b6000816000190483118215151615612a7857612a7861287d565b500290565b600060208284031215612a8f57600080fd5b81516001600160a01b0381168114610b2a57600080fd5b602081526000610b2a602083018461298c56fea26469706673582212206b327cdee0a5697f8e042b9e5c0c71b1ef261ccf735fd4cd12905df36142bec864736f6c63430008100033608060405234801561001057600080fd5b5060405161067138038061067183398101604081905261002f9161014a565b6100383361009a565b806001600160401b0381111561005057610050610163565b604051908082528060200260200182016040528015610079578160200160208202803683370190505b50805161008e916001916020909101906100ea565b50506000600255610179565b600080546001600160a01b038381166001600160a01b0319831681178455604051919092169283917f8be0079c531659141344cd1fd0a4f28419497f9722a3daafe3b4186f6b6457e09190a35050565b828054828255906000526020600020908101928215610125579160200282015b8281111561012557825182559160200191906001019061010a565b50610131929150610135565b5090565b5b808211156101315760008155600101610136565b60006020828403121561015c57600080fd5b5051919050565b634e487b7160e01b600052604160045260246000fd5b6104e9806101886000396000f3fe608060405234801561001057600080fd5b506004361061007d5760003560e01c80638da5cb5b1161005b5780638da5cb5b146100d557806396e494e8146100f0578063e0886f9014610103578063f2fde38b1461011657600080fd5b80631d1a696d146100825780632d287e43146100aa578063715018a6146100cb575b600080fd5b6100956100903660046103e4565b610129565b60405190151581526020015b60405180910390f35b6100bd6100b83660046103e4565b610194565b6040519081526020016100a1565b6100d36101ee565b005b6000546040516001600160a01b0390911681526020016100a1565b6100956100fe3660046103e4565b610202565b6100bd6101113660046103e4565b610237565b6100d36101243660046103fd565b610297565b60008061013d600254600180549050610310565b905060005b8181101561018a57836001828154811061015e5761015e610426565b906000526020600020015403610178575060019392505050565b8061018281610452565b915050610142565b5060009392505050565b6002546001546000919082906101aa908361046b565b905083600182815481106101c0576101c0610426565b90600052602060002001819055506001600260008282546101e1919061048d565b9091555091949350505050565b6101f661032a565b6102006000610384565b565b6001546002546000919083108015610230575080610222600254836103d4565b61022c91906104a0565b8310155b9392505050565b600061024282610202565b6102675760405163b52d71f360e01b8152600481018390526024015b60405180910390fd5b60018054610275908461046b565b8154811061028557610285610426565b90600052602060002001549050919050565b61029f61032a565b6001600160a01b0381166103045760405162461bcd60e51b815260206004820152602660248201527f4f776e61626c653a206e6577206f776e657220697320746865207a65726f206160448201526564647265737360d01b606482015260840161025e565b61030d81610384565b50565b600081831061031f5781610321565b825b90505b92915050565b6000546001600160a01b031633146102005760405162461bcd60e51b815260206004820181905260248201527f4f776e61626c653a2063616c6c6572206973206e6f7420746865206f776e6572604482015260640161025e565b600080546001600160a01b038381166001600160a01b0319831681178455604051919092169283917f8be0079c531659141344cd1fd0a4f28419497f9722a3daafe3b4186f6b6457e09190a35050565b60008183101561031f5781610321565b6000602082840312156103f657600080fd5b5035919050565b60006020828403121561040f57600080fd5b81356001600160a01b038116811461023057600080fd5b634e487b7160e01b600052603260045260246000fd5b634e487b7160e01b600052601160045260246000fd5b6000600182016104645761046461043c565b5060010190565b60008261048857634e487b7160e01b600052601260045260246000fd5b500690565b808201808211156103245761032461043c565b818103818111156103245761032461043c56fea26469706673582212202d7a75b8d01477d7b0dfd4de81e732d9f919a499a532643d0950277377b9966e64736f6c63430008100033",
  "linkReferences": {},
  "deployedLinkReferences": {}
}