{
  "_format": "hh-sol-artifact-1",
  "contractName": "FixedPriceFlow",
  "sourceName": "contracts/dataFlow/FixedPriceFlow.sol",
  "abi": [
    {
      "inputs": [
        {
          "internalType": "address",
          "name": "book_",
          "type": "address"
        },
        {
          "internalType": "uint256",
          "name": "blocksPerEpoch_",
          "type": "uint256"
        },
        {
          "internalType": "uint256",
          "name": "deployDelay_",
          "type": "uint256"
        }
      ],
      "stateMutability": "nonpayable",
      "type": "constructor"
    },
    {
      "inputs": [],
      "name": "InvalidSubmission",
      "type": "error"
    },
    {
      "inputs": [
        {
          "internalType": "uint256",
          "name": "price",
          "type": "uint256"
        },
        {
          "internalType": "uint256",
          "name": "amount",
          "type": "uint256"
        },
        {
          "internalType": "uint256",
          "name": "paid",
          "type": "uint256"
        }
      ],
      "name": "NotEnoughFee",
      "type": "error"
    },
    {
      "anonymous": false,
      "inputs": [
        {
          "indexed": true,
          "internalType": "address",
          "name": "sender",
          "type": "address"
        },
        {
          "indexed": true,
          "internalType": "uint256",
          "name": "index",
          "type": "uint256"
        },
        {
          "indexed": false,
          "internalType": "bytes32",
          "name": "startMerkleRoot",
          "type": "bytes32"
        },
        {
          "indexed": false,
          "internalType": "uint256",
          "name": "submissionIndex",
          "type": "uint256"
        },
        {
          "indexed": false,
          "internalType": "uint256",
          "name": "flowLength",
          "type": "uint256"
        },
        {
          "indexed": false,
          "internalType": "bytes32",
          "name": "context",
          "type": "bytes32"
        }
      ],
      "name": "NewEpoch",
      "type": "event"
    },
    {
      "anonymous": false,
      "inputs": [
        {
          "indexed": false,
          "internalType": "address",
          "name": "account",
          "type": "address"
        }
      ],
      "name": "Paused",
      "type": "event"
    },
    {
      "anonymous": false,
      "inputs": [
        {
          "indexed": true,
          "internalType": "address",
          "name": "sender",
          "type": "address"
        },
        {
          "indexed": true,
          "internalType": "bytes32",
          "name": "identity",
          "type": "bytes32"
        },
        {
          "indexed": false,
          "internalType": "uint256",
          "name": "submissionIndex",
          "type": "uint256"
        },
        {
          "indexed": false,
          "internalType": "uint256",
          "name": "startPos",
          "type": "uint256"
        },
        {
          "indexed": false,
          "internalType": "uint256",
          "name": "length",
          "type": "uint256"
        },
        {
          "components": [
            {
              "internalType": "uint256",
              "name": "length",
              "type": "uint256"
            },
            {
              "internalType": "bytes",
              "name": "tags",
              "type": "bytes"
            },
            {
              "components": [
                {
                  "internalType": "bytes32",
                  "name": "root",
                  "type": "bytes32"
                },
                {
                  "internalType": "uint256",
                  "name": "height",
                  "type": "uint256"
                }
              ],
              "internalType": "struct SubmissionNode[]",
              "name": "nodes",
              "type": "tuple[]"
            }
          ],
          "indexed": false,
          "internalType": "struct Submission",
          "name": "submission",
          "type": "tuple"
        }
      ],
      "name": "Submit",
      "type": "event"
    },
    {
      "anonymous": false,
      "inputs": [
        {
          "indexed": false,
          "internalType": "address",
          "name": "account",
          "type": "address"
        }
      ],
      "name": "Unpaused",
      "type": "event"
    },
    {
      "inputs": [
        {
          "components": [
            {
              "internalType": "uint256",
              "name": "length",
              "type": "uint256"
            },
            {
              "internalType": "bytes",
              "name": "tags",
              "type": "bytes"
            },
            {
              "components": [
                {
                  "internalType": "bytes32",
                  "name": "root",
                  "type": "bytes32"
                },
                {
                  "internalType": "uint256",
                  "name": "height",
                  "type": "uint256"
                }
              ],
              "internalType": "struct SubmissionNode[]",
              "name": "nodes",
              "type": "tuple[]"
            }
          ],
          "internalType": "struct Submission[]",
          "name": "submissions",
          "type": "tuple[]"
        }
      ],
      "name": "batchSubmit",
      "outputs": [
        {
          "internalType": "uint256[]",
          "name": "indexes",
          "type": "uint256[]"
        },
        {
          "internalType": "bytes32[]",
          "name": "digests",
          "type": "bytes32[]"
        },
        {
          "internalType": "uint256[]",
          "name": "startIndexes",
          "type": "uint256[]"
        },
        {
          "internalType": "uint256[]",
          "name": "lengths",
          "type": "uint256[]"
        }
      ],
      "stateMutability": "payable",
      "type": "function"
    },
    {
      "inputs": [],
      "name": "blocksPerEpoch",
      "outputs": [
        {
          "internalType": "uint256",
          "name": "",
          "type": "uint256"
        }
      ],
      "stateMutability": "view",
      "type": "function"
    },
    {
      "inputs": [],
      "name": "book",
      "outputs": [
        {
          "internalType": "contract AddressBook",
          "name": "",
          "type": "address"
        }
      ],
      "stateMutability": "view",
      "type": "function"
    },
    {
      "inputs": [],
      "name": "commitRoot",
      "outputs": [],
      "stateMutability": "nonpayable",
      "type": "function"
    },
    {
      "inputs": [],
      "name": "currentLength",
      "outputs": [
        {
          "internalType": "uint256",
          "name": "",
          "type": "uint256"
        }
      ],
      "stateMutability": "view",
      "type": "function"
    },
    {
      "inputs": [],
      "name": "epoch",
      "outputs": [
        {
          "internalType": "uint256",
          "name": "",
          "type": "uint256"
        }
      ],
      "stateMutability": "view",
      "type": "function"
    },
    {
      "inputs": [],
      "name": "epochStartPosition",
      "outputs": [
        {
          "internalType": "uint256",
          "name": "",
          "type": "uint256"
        }
      ],
      "stateMutability": "view",
      "type": "function"
    },
    {
      "inputs": [],
      "name": "firstBlock",
      "outputs": [
        {
          "internalType": "uint256",
          "name": "",
          "type": "uint256"
        }
      ],
      "stateMutability": "view",
      "type": "function"
    },
    {
      "inputs": [],
      "name": "getContext",
      "outputs": [
        {
          "components": [
            {
              "internalType": "uint256",
              "name": "epoch",
              "type": "uint256"
            },
            {
              "internalType": "uint256",
              "name": "mineStart",
              "type": "uint256"
            },
            {
              "internalType": "bytes32",
              "name": "flowRoot",
              "type": "bytes32"
            },
            {
              "internalType": "uint256",
              "name": "flowLength",
              "type": "uint256"
            },
            {
              "internalType": "bytes32",
              "name": "blockDigest",
              "type": "bytes32"
            },
            {
              "internalType": "bytes32",
              "name": "digest",
              "type": "bytes32"
            }
          ],
          "internalType": "struct MineContext",
          "name": "",
          "type": "tuple"
        }
      ],
      "stateMutability": "view",
      "type": "function"
    },
    {
      "inputs": [
        {
          "internalType": "bytes32",
          "name": "digest",
          "type": "bytes32"
        }
      ],
      "name": "getEpochRange",
      "outputs": [
        {
          "components": [
            {
              "internalType": "uint128",
              "name": "start",
              "type": "uint128"
            },
            {
              "internalType": "uint128",
              "name": "end",
              "type": "uint128"
            }
          ],
          "internalType": "struct EpochRange",
          "name": "",
          "type": "tuple"
        }
      ],
      "stateMutability": "view",
      "type": "function"
    },
    {
      "inputs": [],
      "name": "makeContext",
      "outputs": [],
      "stateMutability": "nonpayable",
      "type": "function"
    },
    {
      "inputs": [
        {
          "internalType": "uint256",
          "name": "cnt",
          "type": "uint256"
        }
      ],
      "name": "makeContextFixedTimes",
      "outputs": [],
      "stateMutability": "nonpayable",
      "type": "function"
    },
    {
      "inputs": [],
      "name": "makeContextWithResult",
      "outputs": [
        {
          "components": [
            {
              "internalType": "uint256",
              "name": "epoch",
              "type": "uint256"
            },
            {
              "internalType": "uint256",
              "name": "mineStart",
              "type": "uint256"
            },
            {
              "internalType": "bytes32",
              "name": "flowRoot",
              "type": "bytes32"
            },
            {
              "internalType": "uint256",
              "name": "flowLength",
              "type": "uint256"
            },
            {
              "internalType": "bytes32",
              "name": "blockDigest",
              "type": "bytes32"
            },
            {
              "internalType": "bytes32",
              "name": "digest",
              "type": "bytes32"
            }
          ],
          "internalType": "struct MineContext",
          "name": "",
          "type": "tuple"
        }
      ],
      "stateMutability": "nonpayable",
      "type": "function"
    },
    {
      "inputs": [],
      "name": "market",
      "outputs": [
        {
          "internalType": "contract FixedPrice",
          "name": "",
          "type": "address"
        }
      ],
      "stateMutability": "view",
      "type": "function"
    },
    {
      "inputs": [
        {
          "internalType": "uint256",
          "name": "_length",
          "type": "uint256"
        },
        {
          "internalType": "uint256",
          "name": "alignExp",
          "type": "uint256"
        }
      ],
      "name": "nextAlign",
      "outputs": [
        {
          "internalType": "uint256",
          "name": "",
          "type": "uint256"
        }
      ],
      "stateMutability": "pure",
      "type": "function"
    },
    {
      "inputs": [
        {
          "internalType": "uint256",
          "name": "_length",
          "type": "uint256"
        }
      ],
      "name": "nextPow2",
      "outputs": [
        {
          "internalType": "uint256",
          "name": "",
          "type": "uint256"
        }
      ],
      "stateMutability": "pure",
      "type": "function"
    },
    {
      "inputs": [],
      "name": "numSubmissions",
      "outputs": [
        {
          "internalType": "uint256",
          "name": "",
          "type": "uint256"
        }
      ],
      "stateMutability": "view",
      "type": "function"
    },
    {
      "inputs": [],
      "name": "paused",
      "outputs": [
        {
          "internalType": "bool",
          "name": "",
          "type": "bool"
        }
      ],
      "stateMutability": "view",
      "type": "function"
    },
    {
      "inputs": [
        {
          "internalType": "uint128",
          "name": "targetPosition",
          "type": "uint128"
        }
      ],
      "name": "queryContextAtPosition",
      "outputs": [
        {
          "components": [
            {
              "internalType": "uint128",
              "name": "start",
              "type": "uint128"
            },
            {
              "internalType": "uint128",
              "name": "end",
              "type": "uint128"
            },
            {
              "internalType": "bytes32",
              "name": "digest",
              "type": "bytes32"
            }
          ],
          "internalType": "struct EpochRangeWithContextDigest",
          "name": "range",
          "type": "tuple"
        }
      ],
      "stateMutability": "nonpayable",
      "type": "function"
    },
    {
      "inputs": [],
      "name": "root",
      "outputs": [
        {
          "internalType": "bytes32",
          "name": "",
          "type": "bytes32"
        }
      ],
      "stateMutability": "view",
      "type": "function"
    },
    {
      "inputs": [],
      "name": "rootHistory",
      "outputs": [
        {
          "internalType": "contract IDigestHistory",
          "name": "",
          "type": "address"
        }
      ],
      "stateMutability": "view",
      "type": "function"
    },
    {
      "inputs": [],
      "name": "submissionIndex",
      "outputs": [
        {
          "internalType": "uint256",
          "name": "",
          "type": "uint256"
        }
      ],
      "stateMutability": "view",
      "type": "function"
    },
    {
      "inputs": [
        {
          "components": [
            {
              "internalType": "uint256",
              "name": "length",
              "type": "uint256"
            },
            {
              "internalType": "bytes",
              "name": "tags",
              "type": "bytes"
            },
            {
              "components": [
                {
                  "internalType": "bytes32",
                  "name": "root",
                  "type": "bytes32"
                },
                {
                  "internalType": "uint256",
                  "name": "height",
                  "type": "uint256"
                }
              ],
              "internalType": "struct SubmissionNode[]",
              "name": "nodes",
              "type": "tuple[]"
            }
          ],
          "internalType": "struct Submission",
          "name": "submission",
          "type": "tuple"
        }
      ],
      "name": "submit",
      "outputs": [
        {
          "internalType": "uint256",
          "name": "",
          "type": "uint256"
        },
        {
          "internalType": "bytes32",
          "name": "",
          "type": "bytes32"
        },
        {
          "internalType": "uint256",
          "name": "",
          "type": "uint256"
        },
        {
          "internalType": "uint256",
          "name": "",
          "type": "uint256"
        }
      ],
      "stateMutability": "payable",
      "type": "function"
    },
    {
      "inputs": [],
      "name": "unstagedHeight",
      "outputs": [
        {
          "internalType": "uint256",
          "name": "",
          "type": "uint256"
        }
      ],
      "stateMutability": "view",
      "type": "function"
    },
    {
      "inputs": [
        {
          "internalType": "uint256",
          "name": "height",
          "type": "uint256"
        }
      ],
      "name": "zeros",
      "outputs": [
        {
          "internalType": "bytes32",
          "name": "",
          "type": "bytes32"
        }
      ],
      "stateMutability": "pure",
      "type": "function"
    }
  ],
  "bytecode": "0x6101206040523480156200001257600080fd5b5060405162003783380380620037838339810160408190526200003591620002e4565b6000805460ff191681556001805560408051828152602081019182905251859285928592620000679160029162000256565b50600280546001818101835560009283527f405787fa12a823e0f2b7631cc41b3ba8828b3321ca811111fa75cd3aa3bb5ace9091019290925560039190915560055560c0829052604051601490620000bf90620002a6565b908152602001604051809103906000f080158015620000e2573d6000803e3d6000fd5b506001600160a01b031660a052620000fb814362000334565b60e09081526001600160a01b0384166080526040805160c081018252600081529151602083015281016200012e6200021d565b815260016020808301919091527fc5d2460186f7233c927e7db2dcc703c0e500b653ca82273b7bfad8045d85a47060408084018290526060938401919091528351600755838201516008558381015160095591830151600a55608080840151600b5560a090930151600c55915181516380f5560560e01b815291516001600160a01b0390911695506380f5560594506004828101945090918290030181865afa158015620001e0573d6000803e3d6000fd5b505050506040513d601f19601f8201168201806040525081019062000206919062000350565b6001600160a01b03166101005250620003a3915050565b6002805460009190620002339060019062000377565b815481106200024657620002466200038d565b9060005260206000200154905090565b82805482825590600052602060002090810192821562000294579160200282015b828111156200029457825182559160200191906001019062000277565b50620002a2929150620002b4565b5090565b610671806200311283390190565b5b80821115620002a25760008155600101620002b5565b6001600160a01b0381168114620002e157600080fd5b50565b600080600060608486031215620002fa57600080fd5b83516200030781620002cb565b602085015160409095015190969495509392505050565b634e487b7160e01b600052601160045260246000fd5b808201808211156200034a576200034a6200031e565b92915050565b6000602082840312156200036357600080fd5b81516200037081620002cb565b9392505050565b818103818111156200034a576200034a6200031e565b634e487b7160e01b600052603260045260246000fd5b60805160a05160c05160e05161010051612cdd62000435600039600081816104150152818161203601526121060152600081816102510152818161061d015281816108370152818161091a01528181610b77015281816119240152611a8301526000818161058a0152611a5b0152600081816104d90152611aea01526000818161017d015261220a0152612cdd6000f3fe6080604052600436106101665760003560e01c806380f55605116100d1578063b8a409ac1161008a578063e829558811610064578063e829558814610510578063ebf0c71714610530578063ef3e12dc14610545578063f06820541461057857600080fd5b8063b8a409ac146104b1578063c7dd5221146104c7578063d34353c9146104fb57600080fd5b806380f5560514610403578063900cf0cf1461043757806393e405a01461044d5780639e62a38e14610463578063a3d35f3614610486578063b464b53e1461049c57600080fd5b806338d45e101161012357806338d45e10146102e75780633d75d9c2146102fc578063555430a11461031c5780635c975abb1461033c57806377e198241461035f5780637d5907081461037457600080fd5b806305a8da721461016b578063127f0f07146101bc57806318a641ef1461021d578063231b02681461023f57806331bae17414610281578063364800ec146102d1575b600080fd5b34801561017757600080fd5b5061019f7f000000000000000000000000000000000000000000000000000000000000000081565b6040516001600160a01b0390911681526020015b60405180910390f35b3480156101c857600080fd5b506101d16105ac565b6040516101b39190600060c082019050825182526020830151602083015260408301516040830152606083015160608301526080830151608083015260a083015160a083015292915050565b34801561022957600080fd5b5061023d61023836600461264c565b61061b565b005b34801561024b57600080fd5b506102737f000000000000000000000000000000000000000000000000000000000000000081565b6040519081526020016101b3565b34801561028d57600080fd5b506102a161029c366004612665565b610692565b6040805182516001600160801b0390811682526020808501519091169082015291810151908201526060016101b3565b3480156102dd57600080fd5b5061027360035481565b3480156102f357600080fd5b5061023d610835565b34801561030857600080fd5b5061027361031736600461264c565b610884565b34801561032857600080fd5b5061027361033736600461268e565b6108d0565b34801561034857600080fd5b5060005460ff1660405190151581526020016101b3565b34801561036b57600080fd5b50600454610273565b34801561038057600080fd5b506103dc61038f36600461264c565b6040805180820190915260008082526020820152506000908152600d60209081526040918290208251808401909352546001600160801b038082168452600160801b909104169082015290565b6040805182516001600160801b0390811682526020938401511692810192909252016101b3565b34801561040f57600080fd5b5061019f7f000000000000000000000000000000000000000000000000000000000000000081565b34801561044357600080fd5b5061027360055481565b34801561045957600080fd5b5061027360065481565b6104766104713660046128c3565b61090a565b6040516101b394939291906129af565b34801561049257600080fd5b5061027360015481565b3480156104a857600080fd5b506101d1610b43565b3480156104bd57600080fd5b5061027360045481565b3480156104d357600080fd5b5061019f7f000000000000000000000000000000000000000000000000000000000000000081565b34801561050757600080fd5b5061023d610bca565b34801561051c57600080fd5b5061027361052b36600461264c565b610ce1565b34801561053c57600080fd5b506102736118e0565b610558610553366004612a2e565b611914565b6040805194855260208501939093529183015260608201526080016101b3565b34801561058457600080fd5b506102737f000000000000000000000000000000000000000000000000000000000000000081565b6040805160c081018252600080825260208201819052918101829052606081018290526080810182905260a0810191909152506040805160c0810182526007548152600854602082015260095491810191909152600a546060820152600b546080820152600c5460a082015290565b7f00000000000000000000000000000000000000000000000000000000000000004310156106645760405162461bcd60e51b815260040161065b90612a6b565b60405180910390fd5b60005b81811161068e57610676611a56565b61067e575050565b61068781612ab8565b9050610667565b5050565b60408051606081018252600080825260208201819052918101919091526106b7610835565b600154826001600160801b03161061071d5760405162461bcd60e51b8152602060048201526024808201527f5175657269656420706f736974696f6e206578636565647320757070657220626044820152631bdd5b9960e21b606482015260840161065b565b600e546000905b818111156107ed576000600261073a8484612ad1565b6107449190612afa565b9050600e818154811061075957610759612b0e565b600091825260209182902060408051606081018252600290930290910180546001600160801b038082168552600160801b9091048116948401859052600190910154918301919091529095508616106107be576107b7816001612ad1565b92506107e7565b83600001516001600160801b0316856001600160801b0316106107e357505050919050565b8091505b50610724565b60405162461bcd60e51b815260206004820152601b60248201527f43616e206e6f742066696e642070726f70657220636f6e746578740000000000604482015260640161065b565b7f00000000000000000000000000000000000000000000000000000000000000004310156108755760405162461bcd60e51b815260040161065b90612a6b565b61087d611a56565b610875575b565b6000818082036108975750600092915050565b600181811c909117600281901c17600481901c17600881901c17601081901c17602081901c17906108c9908290612ad1565b9392505050565b6000828082036108e4576000915050610904565b6108ef600182612b24565b831c90506108fe600182612ad1565b831b9150505b92915050565b606080606080610918611d77565b7f00000000000000000000000000000000000000000000000000000000000000004310156109585760405162461bcd60e51b815260040161065b90612a6b565b84518067ffffffffffffffff811115610973576109736126b0565b60405190808252806020026020018201604052801561099c578160200160208202803683370190505b5094508067ffffffffffffffff8111156109b8576109b86126b0565b6040519080825280602002602001820160405280156109e1578160200160208202803683370190505b5093508067ffffffffffffffff8111156109fd576109fd6126b0565b604051908082528060200260200182016040528015610a26578160200160208202803683370190505b5092508067ffffffffffffffff811115610a4257610a426126b0565b604051908082528060200260200182016040528015610a6b578160200160208202803683370190505b50915060005b81811015610b3a57600080600080610aa18b8681518110610a9457610a94612b0e565b6020026020010151611914565b9350935093509350838a8681518110610abc57610abc612b0e565b60200260200101818152505082898681518110610adb57610adb612b0e565b60200260200101818152505081888681518110610afa57610afa612b0e565b60200260200101818152505080878681518110610b1957610b19612b0e565b6020026020010181815250505050505080610b3390612ab8565b9050610a71565b50509193509193565b6040805160c081018252600080825260208201819052918101829052606081018290526080810182905260a08101919091527f0000000000000000000000000000000000000000000000000000000000000000431015610bb55760405162461bcd60e51b815260040161065b90612a6b565b610bbd610835565b610bc56105ac565b905090565b60025460035403610bd757565b600280546003549091600091610bef90600190612b24565b81548110610bff57610bff612b0e565b906000526020600020015490506000610c20600160035461052b9190612b24565b6003549091505b83811015610cd95760408051602080820186905281830185905282518083038401815260609092019092528051910120600154610c6890600290841c612b37565b600003610ca257809350610c7b82610ce1565b92508060028381548110610c9157610c91612b0e565b600091825260209091200155610cc6565b60028281548110610cb557610cb5612b0e565b906000526020600020015493508092505b5080610cd181612ab8565b915050610c27565b505050600355565b600081600003610d1257507fd397b3b043d87fcd6fad1291ff0bfd16401c274896d8c63a923727f077b8e0b5919050565b81600103610d4157507ff73e6947d7d1628b9976a6e40d7b278a8a16405e96324a68df45b12a51b7cfde919050565b81600203610d7057507fa1520264ae93cac619e22e8718fc4fa7ebdd23f493cad602434d2a58ff4868fb919050565b81600303610d9f57507fde5747106ac1194a1fa9071dbd6cf19dc2bc7964497ef0afec7e4bdbcf08c47e919050565b81600403610dce57507f09c7082879180d28c789c05fafe7030871c76cedbe82c948b165d6a1d66ac15b919050565b81600503610dfd57507faa7a02bcf29fba687f84123c808b5b48834ff5395abe98e622fadc14e4180c95919050565b81600603610e2c57507f7608fd46b710b589e0f2ee5a13cd9c41d432858a30d524f84c6d5db37f66273a919050565b81600703610e5b57507fa5d9a2f7f3573ac9a1366bc484688b4daf934b87ea9b3bf2e703da8fd9f09708919050565b81600803610e8a57507f6c1779477f4c3fca26b4607398859a43b90a286ce8062500744bd4949981757f919050565b81600903610eb957507f45c22df3d952c33d5edce122eed85e5cda3fd61939e7ad7b3e03b6927bb598ea919050565b81600a03610ee857507fe68d02859bb6211cec64f52368b77d422de3b8eac34bf615942b814b643301b5919050565b81600b03610f1757507f62d78399b954d51cb9728601738ad13ddc43b2300064660716bb661d2f4d686f919050565b81600c03610f4657507f6e250d9abdbbb3993fce08de0395cdb56f0483e67d8762a798de011f6a50866a919050565b81600d03610f7557507f1d1a3a74062fd94078617e33eb901eaf16a830f67c387d8eed342db2ac5e2cc5919050565b81600e03610fa457507f19b3b3886526917eae8650223d0be20a0301be960eb339696e673ad8a804440f919050565b81600f03610fd357507fee9e05df53f10e62a897e5140a3f58732dd849e69cd1d62b21ed80ead711a014919050565b8160100361100257507f2cc7aa6e611a113a34505dc1c96b220f14909b70e2c2c7b1a74655da21013c5e919050565b8160110361103157507f949b52dfece7ca3bad3cb27f7750ecaee64cedb6243a275c35984e92956c530a919050565b8160120361106057507fb2680d060b763b932c150434c3812ba9fbc50937e0ebcf5758de884be81bab65919050565b8160130361108f57507f523aebf4a085edbc9c8cdc99c83f46262e5f029b395ff7bf561a48a3f387e6b8919050565b816014036110be57507fc9ab73827ab33c0cedb7ecf0ed2e6e32583c0fe887133a7f381ea4ba84d95b76919050565b816015036110ed57507f23eb397dec7e564ebe97f160a5e1081a77d9861f316807079b6be4731beb331e919050565b8160160361111c57507fdfa44a274c60f090df034aaf75539fd40e94cfd6362dd53d26ed20c8ad529563919050565b8160170361114b57507f15b13ee358e1044a53381243c094e54bf7aceb9b5325a0313d6b85fd44e8b3a5919050565b8160180361117a57507f1a7a93871e2daa0f1860aa91d4ece4ccd012dac5fe581176a21b155cfeca6d40919050565b816019036111a957507fb12665fd0b884a7c7d1e0294d369170d7e672d9e125eb87784556305f98292df919050565b81601a036111d857507f2a5543b0b2f8cf550524390291774f4d6c8c0a25ff5393b09c44d75c92a5bd8e919050565b81601b0361120757507ff9df1841a6e7164b67a1242f1c74975137085ffd9721831f6c469d3a4d5ba42e919050565b81601c0361123657507fba24736b1b48246c1f7803be967be43ca0dddc9c2c0687a2957952249bc89371919050565b81601d0361126557507ff3f706b73790c73ca0a8f0460ac3a2a102e280415586b520e70cd5e8264388b4919050565b81601e0361129457507fc1f5a9a9f357e1c37814688cf7290c87a264ed3d6174a12b978da1c586f53825919050565b81601f036112c357507f766f7702e19ce23d426cdad03e4292a5a42c4669420101fed74400ec7cda3ac6919050565b816020036112f257507f070fec213e105b3e4d9b0434ac2fc7ca721d35093dc741fb9419797003e2394a919050565b8160210361132157507f9a7aade05b49e43f5fd3782571cc8c90eadacd5d660b53842b4e5b63d675ae0c919050565b8160220361135057507fb27b35a8236d0f9b6692820429c025ed58ed378dc98d316b762f0c865c68be6f919050565b8160230361137f57507fdc567ad38d9b90cc9bea4e0f82ec05eca10b3aa94eddc7b63c4fd20c001bb53b919050565b816024036113ae57507fb208dfc457c8b30661ae49544c8e57399818095aab8dd7a426fb8dd56bb8c559919050565b816025036113dd57507fc4a72e1ff84f7a22631f3f95c61c392f98f52050360215a9d7e75d79b0bcd2ca919050565b8160260361140c57507fbb093ec8c0d7defb1de668b5b5dd4f2619e5cd92d29cc144862364a83ab993a8919050565b8160270361143b57507fe341796f2fe3975012c1e6badfa2e9c4523e43f911dc845082c3f4d7b4ff871d919050565b8160280361146a57507f42d356a11a0b39243eca3c3263299cb6f8c3e9728af6d9d8b0ddb6d354f1890d919050565b8160290361149957507f0ce506e834e3a50a33f80074bc7fa16cf3c0712b36a41b69699177ea25de6c30919050565b81602a036114c857507fd8fa5bf130aeb7756b1ed09090cc80ed78dae0617978540f0fabd06dfb978938919050565b81602b036114f757507feed69a20fe36eb604f2153efa3b01c0e143cdf02229a1b8f741c9c2719059eb0919050565b81602c0361152657507f303c9c566ebf5bfe252796e5c131a99801226152a514688b5ca6883e99031d88919050565b81602d0361155557507fc7c3765ba96cfbccf3ae718393fa89791070cc8cd85f280b6ac46aea10d96042919050565b81602e0361158457507f1ca65b0a2b8034ee6bfb1fa4526832304e393af835c2c42b4dace58048746800919050565b81602f036115b357507f957add5e02350fd47de3a8e1da38fd774ceb31214d5897ed6315740a83cd634a919050565b816030036115e257507f787892cb439d5d358870774e163557cf02ec3cb87be6fde11abf1acee14eeaa4919050565b8160310361161157507f047c0962d4f5c8f60692c587de07739528c4d2059240d61dd34d2a547a438ee6919050565b8160320361164057507fc18727efc9e4df63020dcd90edc17dfd2ad14f02328c912b13898e0b53735556919050565b8160330361166f57507fe38b9218987e451effe1648c3c9851ad03b64b052a5a3f5ca30f4d7b1ecf7120919050565b8160340361169e57507f0e48ecb1a5418e6218289acc8cf723e67ac6eae3ecb80f644336ab4365a2f2b2919050565b816035036116cd57507fd60e66f5b8cd08d71a1a4d7798952a7afa5a6e93a886c587a46a5500ebef4a60919050565b816036036116fc57507f5162aa9c31d9105f689cf6e71e19548bc9f0218b7d0f99ff7fa8bc2f19c68462919050565b8160370361172b57507f6fa8519b4b0e8fb97a9b618e97627d97b9b9d29d04521fd96472e9c502700568919050565b8160380361175a57507f41f5dcf0cdee270a2ad9a5f8130aaaab94b237463e09757c28b0321f09e24eb0919050565b8160390361178957507f87a119239fa90732197108adfd029938b4743874d959d3da79b3a30f4832899e919050565b81603a036117b857507f8e96dbaa5c72e84a5297b040ccc1a60750a3201166e3b7740d352837233608a1919050565b81603b036117e757507f01605058d167ce967af8c475d2f6c341c3e0b437babf899c9da73a520aa4ecb5919050565b81603c0361181657507f04529eb80532c5118949d700d8dfd2aa86850b1c6479b26276b9486784a145ff919050565b81603d0361184557507fd191814ad13f27361ae20a46cbac8f6e76c10ebe9af0806d6720492ee2f296f0919050565b81603e0361187457507fa28df63f78821060570da371c0be1312188346b92a7965cc4b980b26c134a4d7919050565b81603f036118a357507fb48a92d40b61dc995ceecee4cded6415050dcece448b1e0b5e5b6a0e6981f3ef919050565b60405162461bcd60e51b8152602060048201526012602482015271125b99195e081bdd5d081bd988189bdd5b9960721b604482015260640161065b565b60028054600091906118f490600190612b24565b8154811061190457611904612b0e565b9060005260206000200154905090565b600080600080611922611d77565b7f00000000000000000000000000000000000000000000000000000000000000004310156119625760405162461bcd60e51b815260040161065b90612a6b565b61196b85611dbd565b6119ac5760405162461bcd60e51b815260206004820152601260248201527124b73b30b634b21039bab136b4b9b9b4b7b760711b604482015260640161065b565b60006119b786611fd4565b90506119c281612032565b6119ca610835565b60006119d587612156565b905060006119e2886122fc565b6004805491925060019060006119f88385612ad1565b9250508190555081336001600160a01b03167f167ce04d2aa1981994d3a31695da0d785373335b1078cec239a1a3a2c76755558386888e604051611a3f9493929190612b86565b60405180910390a396509450925090509193509193565b6000807f0000000000000000000000000000000000000000000000000000000000000000600554600101027f0000000000000000000000000000000000000000000000000000000000000000019050438110611ab457600091505090565b611abc610bca565b6000611ac66118e0565b604051632d287e4360e01b8152600481018290529091506000906001600160a01b037f00000000000000000000000000000000000000000000000000000000000000001690632d287e43906024016020604051808303816000875af1158015611b33573d6000803e3d6000fd5b505050506040513d601f19601f82011682018060405250810190611b579190612c1d565b90506005548114611b6a57611b6a612c36565b60008043611b7a86610100612ad1565b1015611baa57507fc5d2460186f7233c927e7db2dcc703c0e500b653ca82273b7bfad8045d85a470905080611cb8565b506001546040805186406020820181905291810186905260608101929092529060800160408051808303601f190181528282528051602091820120600680546001805487870187526001600160801b039283168089529083168689018181526000878152600d89528981209a519151918616600160801b928716830217909a558851606081018a52928352968201908152968101858152600e8054808501825599529051965196831696909216909402949094177fbb7b4a454dc3493923482f07822329ed19e8244eff582cc204f8554c3620c3fd60029096029586015592517fbb7b4a454dc3493923482f07822329ed19e8244eff582cc204f8554c3620c3fe9094019390935554905591505b600160056000828254611ccb9190612ad1565b90915550506040805160c08101825260055480825260208083018990528284018890526001546060808501829052608080860188905260a0909501889052600784905560088b905560098a9055600a829055600b879055600c88905560045486518b815293840152948201529283018590529133917fbc8a3fd82465d43f1709e44ed882f7e1af0147274196ef1ec009f5d52ff4e993910160405180910390a360019550505050505090565b60005460ff16156108825760405162461bcd60e51b815260206004820152601060248201526f14185d5cd8589b194e881c185d5cd95960821b604482015260640161065b565b6000816040015151600003611dd457506000919050565b6040820151805160049190611deb90600190612b24565b81518110611dfb57611dfb612b0e565b6020026020010151602001518360400151600081518110611e1e57611e1e612b0e565b602002602001015160200151611e349190612b24565b10611e4157506000919050565b60408260400151600081518110611e5a57611e5a612b0e565b60200260200101516020015110611e7357506000919050565b60005b6001836040015151611e889190612b24565b811015611eff5782604001518181518110611ea557611ea5612b0e565b6020026020010151602001518360400151826001611ec39190612ad1565b81518110611ed357611ed3612b0e565b60200260200101516020015110611eed5750600092915050565b80611ef781612ab8565b915050611e76565b506000611f0b83611fd4565b9050611f1961010082612c4c565b83511115611f2a5750600092915050565b60006010821015611f4757611f40600183612b24565b9050611fad565b836040015151600103611f6257611f40600483901c83612b24565b60048460400151600081518110611f7b57611f7b612b0e565b602002602001015160200151611f919190612b24565b611f9c906001612ad1565b611faa906001901b83612b24565b90505b611fb961010082612c4c565b845111611fca575060009392505050565b5060019392505050565b600080805b83604001515181101561202b5783604001518181518110611ffc57611ffc612b0e565b6020026020010151602001516001901b826120179190612ad1565b91508061202381612ab8565b915050611fd9565b5092915050565b60007f00000000000000000000000000000000000000000000000000000000000000006001600160a01b03166361ec50826040518163ffffffff1660e01b8152600401602060405180830381865afa158015612092573d6000803e3d6000fd5b505050506040513d601f19601f820116820180604052508101906120b69190612c1d565b905060006120c48284612c4c565b905047478211156120f957604051637c2e324160e11b815260048101849052602481018590526044810182905260640161065b565b6040516001600160a01b037f0000000000000000000000000000000000000000000000000000000000000000169083156108fc029084906000818181858888f1935050505015801561214f573d6000803e3d6000fd5b5050505050565b600154600090815b8360400151518110156121e75760008460400151828151811061218357612183612b0e565b60200260200101516000015190506000856040015183815181106121a9576121a9612b0e565b602002602001015160200151905060006121c38383612330565b9050836000036121d1578095505b50505080806121df90612ab8565b91505061215e565b5060006121f48284612b24565b90506000836001546122069190612b24565b90507f00000000000000000000000000000000000000000000000000000000000000006001600160a01b03166380f556056040518163ffffffff1660e01b8152600401602060405180830381865afa158015612266573d6000803e3d6000fd5b505050506040513d601f19601f8201168201806040525081019061228a9190612c6b565b604051636d3759b560e11b81526004810185905260248101839052604481018490526001600160a01b03919091169063da6eb36a90606401600060405180830381600087803b1580156122dc57600080fd5b505af11580156122f0573d6000803e3d6000fd5b50505050505050919050565b600081604001516040516020016123139190612c94565b604051602081830303815290604052805190602001209050919050565b60008061233f600154846108d0565b905060006123506001851b83612ad1565b60025490915061236290600190612b24565b6001901b8111156123ab57612375610bca565b61237d6124a0565b60025461238c90600190612b24565b6001901b8111156123a45761239f6124a0565b61237d565b6002546003555b6002546123b78561252e565b60008087875b84811015612482576123d2600288831c612b37565b6000036124185781600282815481106123ed576123ed612b0e565b600091825260209091200155612404816001612ad1565b600355612412600186612b24565b50612482565b6002818154811061242b5761242b612b0e565b906000526020600020015493508192508383604051602001612457929190918252602082015260400190565b604051602081830303815290604052805190602001209150808061247a90612ab8565b9150506123bd565b506124906001891b87612ad1565b6001555093979650505050505050565b60028054906000906124b3600184612b24565b815481106124c3576124c3612b0e565b600091825260208220015491506124de61052b600185612b24565b9050600282826040516020016124fe929190918252602082015260400190565b60408051601f19818403018152919052805160209182012082546001810184556000938452919092200155505050565b80600354111561253b5750565b60028054600354909160009161255390600190612b24565b8154811061256357612563612b0e565b906000526020600020015490506000612584600160035461052b9190612b24565b6003549091505b8381101561214f57604080516020808201869052818301859052825180830384018152606090920190925280519101206001546125cc90600290841c612b37565b600003612615578093506125df82610ce1565b92508582106126105780600283815481106125fc576125fc612b0e565b600091825260209091200155505050505050565b612639565b6002828154811061262857612628612b0e565b906000526020600020015493508092505b508061264481612ab8565b91505061258b565b60006020828403121561265e57600080fd5b5035919050565b60006020828403121561267757600080fd5b81356001600160801b03811681146108c957600080fd5b600080604083850312156126a157600080fd5b50508035926020909101359150565b634e487b7160e01b600052604160045260246000fd5b6040805190810167ffffffffffffffff811182821017156126e9576126e96126b0565b60405290565b6040516060810167ffffffffffffffff811182821017156126e9576126e96126b0565b604051601f8201601f1916810167ffffffffffffffff8111828210171561273b5761273b6126b0565b604052919050565b600067ffffffffffffffff82111561275d5761275d6126b0565b5060051b60200190565b600082601f83011261277857600080fd5b8135602061278d61278883612743565b612712565b82815260069290921b840181019181810190868411156127ac57600080fd5b8286015b848110156127eb57604081890312156127c95760008081fd5b6127d16126c6565b8135815284820135858201528352918301916040016127b0565b509695505050505050565b60006060828403121561280857600080fd5b6128106126ef565b90508135815260208083013567ffffffffffffffff8082111561283257600080fd5b818501915085601f83011261284657600080fd5b813581811115612858576128586126b0565b61286a601f8201601f19168501612712565b818152878583860101111561287e57600080fd5b818585018683013760008583830101528085870152505060408501359250808311156128a957600080fd5b50506128b784828501612767565b60408301525092915050565b600060208083850312156128d657600080fd5b823567ffffffffffffffff808211156128ee57600080fd5b818501915085601f83011261290257600080fd5b813561291061278882612743565b81815260059190911b8301840190848101908883111561292f57600080fd5b8585015b838110156129675780358581111561294b5760008081fd5b6129598b89838a01016127f6565b845250918601918601612933565b5098975050505050505050565b600081518084526020808501945080840160005b838110156129a457815187529582019590820190600101612988565b509495945050505050565b6080815260006129c26080830187612974565b82810360208481019190915286518083528782019282019060005b818110156129f9578451835293830193918301916001016129dd565b50508481036040860152612a0d8188612974565b925050508281036060840152612a238185612974565b979650505050505050565b600060208284031215612a4057600080fd5b813567ffffffffffffffff811115612a5757600080fd5b612a63848285016127f6565b949350505050565b6020808252601a908201527f436f6e747261637420686173206e6f74206c61756e636865642e000000000000604082015260600190565b634e487b7160e01b600052601160045260246000fd5b600060018201612aca57612aca612aa2565b5060010190565b8082018082111561090457610904612aa2565b634e487b7160e01b600052601260045260246000fd5b600082612b0957612b09612ae4565b500490565b634e487b7160e01b600052603260045260246000fd5b8181038181111561090457610904612aa2565b600082612b4657612b46612ae4565b500690565b600081518084526020808501945080840160005b838110156129a4578151805188528301518388015260409096019590820190600101612b5f565b848152600060208581840152846040840152608060608401528351608084015280840151606060a085015280518060e086015260005b81811015612bd95782810184015186820161010001528301612bbc565b5061010092506000838287010152601f19601f8201168501915050604085015160808583030160c0860152612c1083830182612b4b565b9998505050505050505050565b600060208284031215612c2f57600080fd5b5051919050565b634e487b7160e01b600052600160045260246000fd5b6000816000190483118215151615612c6657612c66612aa2565b500290565b600060208284031215612c7d57600080fd5b81516001600160a01b03811681146108c957600080fd5b6020815260006108c96020830184612b4b56fea26469706673582212202e56342b995457ffcc2c62b31ad906b06f6a34984259e5b4921b45a892334d1864736f6c63430008100033608060405234801561001057600080fd5b5060405161067138038061067183398101604081905261002f9161014a565b6100383361009a565b806001600160401b0381111561005057610050610163565b604051908082528060200260200182016040528015610079578160200160208202803683370190505b50805161008e916001916020909101906100ea565b50506000600255610179565b600080546001600160a01b038381166001600160a01b0319831681178455604051919092169283917f8be0079c531659141344cd1fd0a4f28419497f9722a3daafe3b4186f6b6457e09190a35050565b828054828255906000526020600020908101928215610125579160200282015b8281111561012557825182559160200191906001019061010a565b50610131929150610135565b5090565b5b808211156101315760008155600101610136565b60006020828403121561015c57600080fd5b5051919050565b634e487b7160e01b600052604160045260246000fd5b6104e9806101886000396000f3fe608060405234801561001057600080fd5b506004361061007d5760003560e01c80638da5cb5b1161005b5780638da5cb5b146100d557806396e494e8146100f0578063e0886f9014610103578063f2fde38b1461011657600080fd5b80631d1a696d146100825780632d287e43146100aa578063715018a6146100cb575b600080fd5b6100956100903660046103e4565b610129565b60405190151581526020015b60405180910390f35b6100bd6100b83660046103e4565b610194565b6040519081526020016100a1565b6100d36101ee565b005b6000546040516001600160a01b0390911681526020016100a1565b6100956100fe3660046103e4565b610202565b6100bd6101113660046103e4565b610237565b6100d36101243660046103fd565b610297565b60008061013d600254600180549050610310565b905060005b8181101561018a57836001828154811061015e5761015e610426565b906000526020600020015403610178575060019392505050565b8061018281610452565b915050610142565b5060009392505050565b6002546001546000919082906101aa908361046b565b905083600182815481106101c0576101c0610426565b90600052602060002001819055506001600260008282546101e1919061048d565b9091555091949350505050565b6101f661032a565b6102006000610384565b565b6001546002546000919083108015610230575080610222600254836103d4565b61022c91906104a0565b8310155b9392505050565b600061024282610202565b6102675760405163b52d71f360e01b8152600481018390526024015b60405180910390fd5b60018054610275908461046b565b8154811061028557610285610426565b90600052602060002001549050919050565b61029f61032a565b6001600160a01b0381166103045760405162461bcd60e51b815260206004820152602660248201527f4f776e61626c653a206e6577206f776e657220697320746865207a65726f206160448201526564647265737360d01b606482015260840161025e565b61030d81610384565b50565b600081831061031f5781610321565b825b90505b92915050565b6000546001600160a01b031633146102005760405162461bcd60e51b815260206004820181905260248201527f4f776e61626c653a2063616c6c6572206973206e6f7420746865206f776e6572604482015260640161025e565b600080546001600160a01b038381166001600160a01b0319831681178455604051919092169283917f8be0079c531659141344cd1fd0a4f28419497f9722a3daafe3b4186f6b6457e09190a35050565b60008183101561031f5781610321565b6000602082840312156103f657600080fd5b5035919050565b60006020828403121561040f57600080fd5b81356001600160a01b038116811461023057600080fd5b634e487b7160e01b600052603260045260246000fd5b634e487b7160e01b600052601160045260246000fd5b6000600182016104645761046461043c565b5060010190565b60008261048857634e487b7160e01b600052601260045260246000fd5b500690565b808201808211156103245761032461043c565b818103818111156103245761032461043c56fea26469706673582212202d7a75b8d01477d7b0dfd4de81e732d9f919a499a532643d0950277377b9966e64736f6c63430008100033",
  "linkReferences": {},
  "deployedLinkReferences": {}
}