{
  "_format": "hh-sol-artifact-1",
  "contractName": "Coupon",
  "sourceName": "contracts/cashier/token/Coupon.sol",
  "abi": [
    {
      "inputs": [
        {
          "internalType": "address",
          "name": "zgsToken_",
          "type": "address"
        },
        {
          "internalType": "address",
          "name": "cashier_",
          "type": "address"
        }
      ],
      "stateMutability": "nonpayable",
      "type": "constructor"
    },
    {
      "anonymous": false,
      "inputs": [
        {
          "indexed": true,
          "internalType": "address",
          "name": "owner",
          "type": "address"
        },
        {
          "indexed": true,
          "internalType": "address",
          "name": "approved",
          "type": "address"
        },
        {
          "indexed": true,
          "internalType": "uint256",
          "name": "tokenId",
          "type": "uint256"
        }
      ],
      "name": "Approval",
      "type": "event"
    },
    {
      "anonymous": false,
      "inputs": [
        {
          "indexed": true,
          "internalType": "address",
          "name": "owner",
          "type": "address"
        },
        {
          "indexed": true,
          "internalType": "address",
          "name": "operator",
          "type": "address"
        },
        {
          "indexed": false,
          "internalType": "bool",
          "name": "approved",
          "type": "bool"
        }
      ],
      "name": "ApprovalForAll",
      "type": "event"
    },
    {
      "anonymous": false,
      "inputs": [
        {
          "indexed": true,
          "internalType": "uint256",
          "name": "tokenId",
          "type": "uint256"
        },
        {
          "indexed": true,
          "internalType": "address",
          "name": "user",
          "type": "address"
        },
        {
          "indexed": false,
          "internalType": "uint256",
          "name": "amount",
          "type": "uint256"
        }
      ],
      "name": "Consume",
      "type": "event"
    },
    {
      "anonymous": false,
      "inputs": [
        {
          "indexed": true,
          "internalType": "uint256",
          "name": "tokenId",
          "type": "uint256"
        },
        {
          "indexed": false,
          "internalType": "uint256",
          "name": "amount",
          "type": "uint256"
        }
      ],
      "name": "Fuel",
      "type": "event"
    },
    {
      "anonymous": false,
      "inputs": [
        {
          "indexed": true,
          "internalType": "address",
          "name": "previousOwner",
          "type": "address"
        },
        {
          "indexed": true,
          "internalType": "address",
          "name": "newOwner",
          "type": "address"
        }
      ],
      "name": "OwnershipTransferred",
      "type": "event"
    },
    {
      "anonymous": false,
      "inputs": [
        {
          "indexed": true,
          "internalType": "uint256",
          "name": "tokenId",
          "type": "uint256"
        },
        {
          "indexed": false,
          "internalType": "uint256",
          "name": "amount",
          "type": "uint256"
        }
      ],
      "name": "Revoke",
      "type": "event"
    },
    {
      "anonymous": false,
      "inputs": [
        {
          "indexed": true,
          "internalType": "address",
          "name": "from",
          "type": "address"
        },
        {
          "indexed": true,
          "internalType": "address",
          "name": "to",
          "type": "address"
        },
        {
          "indexed": true,
          "internalType": "uint256",
          "name": "tokenId",
          "type": "uint256"
        }
      ],
      "name": "Transfer",
      "type": "event"
    },
    {
      "inputs": [
        {
          "internalType": "address",
          "name": "to",
          "type": "address"
        },
        {
          "internalType": "uint256",
          "name": "tokenId",
          "type": "uint256"
        }
      ],
      "name": "approve",
      "outputs": [],
      "stateMutability": "nonpayable",
      "type": "function"
    },
    {
      "inputs": [
        {
          "internalType": "address",
          "name": "owner",
          "type": "address"
        }
      ],
      "name": "balanceOf",
      "outputs": [
        {
          "internalType": "uint256",
          "name": "",
          "type": "uint256"
        }
      ],
      "stateMutability": "view",
      "type": "function"
    },
    {
      "inputs": [],
      "name": "cashier",
      "outputs": [
        {
          "internalType": "address",
          "name": "",
          "type": "address"
        }
      ],
      "stateMutability": "view",
      "type": "function"
    },
    {
      "inputs": [
        {
          "internalType": "uint256",
          "name": "tokenId",
          "type": "uint256"
        },
        {
          "internalType": "uint256",
          "name": "amount",
          "type": "uint256"
        }
      ],
      "name": "fuel",
      "outputs": [],
      "stateMutability": "nonpayable",
      "type": "function"
    },
    {
      "inputs": [
        {
          "internalType": "uint256",
          "name": "tokenId",
          "type": "uint256"
        }
      ],
      "name": "getApproved",
      "outputs": [
        {
          "internalType": "address",
          "name": "",
          "type": "address"
        }
      ],
      "stateMutability": "view",
      "type": "function"
    },
    {
      "inputs": [
        {
          "internalType": "address",
          "name": "owner",
          "type": "address"
        },
        {
          "internalType": "address",
          "name": "operator",
          "type": "address"
        }
      ],
      "name": "isApprovedForAll",
      "outputs": [
        {
          "internalType": "bool",
          "name": "",
          "type": "bool"
        }
      ],
      "stateMutability": "view",
      "type": "function"
    },
    {
      "inputs": [
        {
          "internalType": "address",
          "name": "to",
          "type": "address"
        }
      ],
      "name": "mint",
      "outputs": [
        {
          "internalType": "uint256",
          "name": "",
          "type": "uint256"
        }
      ],
      "stateMutability": "nonpayable",
      "type": "function"
    },
    {
      "inputs": [],
      "name": "name",
      "outputs": [
        {
          "internalType": "string",
          "name": "",
          "type": "string"
        }
      ],
      "stateMutability": "view",
      "type": "function"
    },
    {
      "inputs": [],
      "name": "nextTokenId",
      "outputs": [
        {
          "internalType": "uint256",
          "name": "",
          "type": "uint256"
        }
      ],
      "stateMutability": "view",
      "type": "function"
    },
    {
      "inputs": [],
      "name": "owner",
      "outputs": [
        {
          "internalType": "address",
          "name": "",
          "type": "address"
        }
      ],
      "stateMutability": "view",
      "type": "function"
    },
    {
      "inputs": [
        {
          "internalType": "uint256",
          "name": "tokenId",
          "type": "uint256"
        }
      ],
      "name": "ownerOf",
      "outputs": [
        {
          "internalType": "address",
          "name": "",
          "type": "address"
        }
      ],
      "stateMutability": "view",
      "type": "function"
    },
    {
      "inputs": [
        {
          "internalType": "address",
          "name": "requester",
          "type": "address"
        },
        {
          "internalType": "uint256",
          "name": "tokenId",
          "type": "uint256"
        },
        {
          "internalType": "uint256",
          "name": "amount",
          "type": "uint256"
        }
      ],
      "name": "pay",
      "outputs": [],
      "stateMutability": "nonpayable",
      "type": "function"
    },
    {
      "inputs": [],
      "name": "renounceOwnership",
      "outputs": [],
      "stateMutability": "nonpayable",
      "type": "function"
    },
    {
      "inputs": [
        {
          "internalType": "uint256",
          "name": "tokenId",
          "type": "uint256"
        }
      ],
      "name": "revoke",
      "outputs": [],
      "stateMutability": "nonpayable",
      "type": "function"
    },
    {
      "inputs": [
        {
          "internalType": "address",
          "name": "from",
          "type": "address"
        },
        {
          "internalType": "address",
          "name": "to",
          "type": "address"
        },
        {
          "internalType": "uint256",
          "name": "tokenId",
          "type": "uint256"
        }
      ],
      "name": "safeTransferFrom",
      "outputs": [],
      "stateMutability": "nonpayable",
      "type": "function"
    },
    {
      "inputs": [
        {
          "internalType": "address",
          "name": "from",
          "type": "address"
        },
        {
          "internalType": "address",
          "name": "to",
          "type": "address"
        },
        {
          "internalType": "uint256",
          "name": "tokenId",
          "type": "uint256"
        },
        {
          "internalType": "bytes",
          "name": "data",
          "type": "bytes"
        }
      ],
      "name": "safeTransferFrom",
      "outputs": [],
      "stateMutability": "nonpayable",
      "type": "function"
    },
    {
      "inputs": [
        {
          "internalType": "address",
          "name": "operator",
          "type": "address"
        },
        {
          "internalType": "bool",
          "name": "approved",
          "type": "bool"
        }
      ],
      "name": "setApprovalForAll",
      "outputs": [],
      "stateMutability": "nonpayable",
      "type": "function"
    },
    {
      "inputs": [
        {
          "internalType": "bytes4",
          "name": "interfaceId",
          "type": "bytes4"
        }
      ],
      "name": "supportsInterface",
      "outputs": [
        {
          "internalType": "bool",
          "name": "",
          "type": "bool"
        }
      ],
      "stateMutability": "view",
      "type": "function"
    },
    {
      "inputs": [],
      "name": "symbol",
      "outputs": [
        {
          "internalType": "string",
          "name": "",
          "type": "string"
        }
      ],
      "stateMutability": "view",
      "type": "function"
    },
    {
      "inputs": [
        {
          "internalType": "uint256",
          "name": "tokenId",
          "type": "uint256"
        }
      ],
      "name": "tokenURI",
      "outputs": [
        {
          "internalType": "string",
          "name": "",
          "type": "string"
        }
      ],
      "stateMutability": "view",
      "type": "function"
    },
    {
      "inputs": [],
      "name": "totalUnusedBalance",
      "outputs": [
        {
          "internalType": "uint256",
          "name": "",
          "type": "uint256"
        }
      ],
      "stateMutability": "view",
      "type": "function"
    },
    {
      "inputs": [
        {
          "internalType": "address",
          "name": "from",
          "type": "address"
        },
        {
          "internalType": "address",
          "name": "to",
          "type": "address"
        },
        {
          "internalType": "uint256",
          "name": "tokenId",
          "type": "uint256"
        }
      ],
      "name": "transferFrom",
      "outputs": [],
      "stateMutability": "nonpayable",
      "type": "function"
    },
    {
      "inputs": [
        {
          "internalType": "address",
          "name": "newOwner",
          "type": "address"
        }
      ],
      "name": "transferOwnership",
      "outputs": [],
      "stateMutability": "nonpayable",
      "type": "function"
    },
    {
      "inputs": [
        {
          "internalType": "uint256",
          "name": "",
          "type": "uint256"
        }
      ],
      "name": "uploadBalance",
      "outputs": [
        {
          "internalType": "uint256",
          "name": "",
          "type": "uint256"
        }
      ],
      "stateMutability": "view",
      "type": "function"
    },
    {
      "inputs": [],
      "name": "zgsToken",
      "outputs": [
        {
          "internalType": "contract ISafeERC20",
          "name": "",
          "type": "address"
        }
      ],
      "stateMutability": "view",
      "type": "function"
    }
  ],
  "bytecode": "0x60c06040523480156200001157600080fd5b5060405162001e6038038062001e6083398101604081905262000034916200014c565b604051806040016040528060128152602001712d32b937a3a9ba37b930b3b2a1b7bab837b760711b815250604051806040016040528060078152602001662d23a996a1a82760c91b815250816000908162000090919062000229565b5060016200009f828262000229565b505050620000bc620000b6620000d960201b60201c565b620000dd565b6001600160a01b039182166080521660a0526001600955620002f5565b3390565b600680546001600160a01b038381166001600160a01b0319831681179093556040519116919082907f8be0079c531659141344cd1fd0a4f28419497f9722a3daafe3b4186f6b6457e090600090a35050565b80516001600160a01b03811681146200014757600080fd5b919050565b600080604083850312156200016057600080fd5b6200016b836200012f565b91506200017b602084016200012f565b90509250929050565b634e487b7160e01b600052604160045260246000fd5b600181811c90821680620001af57607f821691505b602082108103620001d057634e487b7160e01b600052602260045260246000fd5b50919050565b601f8211156200022457600081815260208120601f850160051c81016020861015620001ff5750805b601f850160051c820191505b8181101562000220578281556001016200020b565b5050505b505050565b81516001600160401b0381111562000245576200024562000184565b6200025d816200025684546200019a565b84620001d6565b602080601f8311600181146200029557600084156200027c5750858301515b600019600386901b1c1916600185901b17855562000220565b600085815260208120601f198616915b82811015620002c657888601518255948401946001909101908401620002a5565b5085821015620002e55787850151600019600388901b60f8161c191681555b5050505050600190811b01905550565b60805160a051611b226200033e60003960008181610366015281816106640152818161088901526109a80152600081816102200152818161063d01526108610152611b226000f3fe608060405234801561001057600080fd5b50600436106101735760003560e01c80636a627842116100de57806395d89b4111610097578063c87b56dd11610071578063c87b56dd1461033b578063e985e9c51461034e578063ed740e9714610361578063f2fde38b1461038857600080fd5b806395d89b411461030d578063a22cb46514610315578063b88d4fde1461032857600080fd5b80636a627842146102a557806370a08231146102b8578063715018a6146102cb57806375794a3c146102d35780638da5cb5b146102dc5780639550c7ca146102ed57600080fd5b80632782f579116101305780632782f5791461021b578063321bd4571461024257806342842e0e146102555780635d425ef5146102685780635f0653461461027f5780636352211e1461029257600080fd5b806301ffc9a71461017857806306fdde03146101a0578063081812fc146101b5578063095ea7b3146101e057806320c5429b146101f557806323b872dd14610208575b600080fd5b61018b6101863660046115dd565b61039b565b60405190151581526020015b60405180910390f35b6101a86103ed565b604051610197919061164a565b6101c86101c336600461165d565b61047f565b6040516001600160a01b039091168152602001610197565b6101f36101ee36600461168d565b6104a6565b005b6101f361020336600461165d565b6105c0565b6101f36102163660046116b7565b61076b565b6101c87f000000000000000000000000000000000000000000000000000000000000000081565b6101f36102503660046116f3565b61079c565b6101f36102633660046116b7565b610982565b61027160085481565b604051908152602001610197565b6101f361028d366004611715565b61099d565b6101c86102a036600461165d565b610af8565b6102716102b3366004611748565b610b58565b6102716102c6366004611748565b610b90565b6101f3610c16565b61027160095481565b6006546001600160a01b03166101c8565b6102716102fb36600461165d565b60076020526000908152604090205481565b6101a8610c2a565b6101f3610323366004611771565b610c39565b6101f36103363660046117be565b610c48565b6101a861034936600461165d565b610c80565b61018b61035c36600461189a565b610cf4565b6101c87f000000000000000000000000000000000000000000000000000000000000000081565b6101f3610396366004611748565b610d22565b60006001600160e01b031982166380ac58cd60e01b14806103cc57506001600160e01b03198216635b5e139f60e01b145b806103e757506301ffc9a760e01b6001600160e01b03198316145b92915050565b6060600080546103fc906118cd565b80601f0160208091040260200160405190810160405280929190818152602001828054610428906118cd565b80156104755780601f1061044a57610100808354040283529160200191610475565b820191906000526020600020905b81548152906001019060200180831161045857829003601f168201915b5050505050905090565b600061048a82610d9b565b506000908152600460205260409020546001600160a01b031690565b60006104b182610af8565b9050806001600160a01b0316836001600160a01b0316036105235760405162461bcd60e51b815260206004820152602160248201527f4552433732313a20617070726f76616c20746f2063757272656e74206f776e656044820152603960f91b60648201526084015b60405180910390fd5b336001600160a01b038216148061053f575061053f8133610cf4565b6105b15760405162461bcd60e51b815260206004820152603d60248201527f4552433732313a20617070726f76652063616c6c6572206973206e6f7420746f60448201527f6b656e206f776e6572206f7220617070726f76656420666f7220616c6c000000606482015260840161051a565b6105bb8383610dfa565b505050565b6105c8610e68565b6000818152600260205260409020546001600160a01b03166106245760405162461bcd60e51b815260206004820152601560248201527418dbdd5c1bdb88191bd95cc81b9bdd08195e1a5cdd605a1b604482015260640161051a565b6000818152600760205260409020546001600160a01b037f0000000000000000000000000000000000000000000000000000000000000000166323b872dd7f0000000000000000000000000000000000000000000000000000000000000000336106906103e88661191d565b6040516001600160e01b031960e086901b1681526001600160a01b03938416600482015292909116602483015260448201526064016020604051808303816000875af11580156106e4573d6000803e3d6000fd5b505050506040513d601f19601f82011682018060405250810190610708919061193c565b5060008281526007602052604081208190556008805483929061072c908490611959565b909155505060405181815282907f0c806788a396310de038bbf64c839ba26aa421c8b2673c79911c3b32be6f9d4d906020015b60405180910390a25050565b6107753382610ec2565b6107915760405162461bcd60e51b815260040161051a9061196c565b6105bb838383610f21565b6107a4610e68565b6000828152600260205260409020546001600160a01b03166108005760405162461bcd60e51b815260206004820152601560248201527418dbdd5c1bdb88191bd95cc81b9bdd08195e1a5cdd605a1b604482015260640161051a565b6008548111156108405760405162461bcd60e51b815260206004820152600b60248201526a6e6f20636170616369747960a81b604482015260640161051a565b806008600082825461085291906119b9565b90915550506001600160a01b037f0000000000000000000000000000000000000000000000000000000000000000166323b872dd337f00000000000000000000000000000000000000000000000000000000000000006108b46103e88661191d565b6040516001600160e01b031960e086901b1681526001600160a01b03938416600482015292909116602483015260448201526064016020604051808303816000875af1158015610908573d6000803e3d6000fd5b505050506040513d601f19601f8201168201806040525081019061092c919061193c565b506000828152600760205260408120805483929061094b908490611959565b909155505060405181815282907f877c2292ac9b26c308d9c6cc7488882b82202e7042f390f166d853575be3a6ec9060200161075f565b6105bb83838360405180602001604052806000815250610c48565b336001600160a01b037f00000000000000000000000000000000000000000000000000000000000000001614610a0d5760405162461bcd60e51b815260206004820152601560248201527413db9b1e4818d85cda1a595c8818d85b8818d85b1b605a1b604482015260640161051a565b826001600160a01b0316610a2083610af8565b6001600160a01b031614610a765760405162461bcd60e51b815260206004820152601c60248201527f526571756573746572206e6f74206f776e207468697320746f6b656e00000000604482015260640161051a565b60008281526007602052604081208054839290610a949084906119b9565b925050819055508060086000828254610aad9190611959565b90915550506040518181526001600160a01b0384169083907f6ac47eec4a8fc9b3e6e12662e91bd8cda0932ab18d04e5b40ddbeea6826ae064906020015b60405180910390a3505050565b6000818152600260205260408120546001600160a01b0316806103e75760405162461bcd60e51b8152602060048201526018602482015277115490cdcc8c4e881a5b9d985b1a59081d1bdad95b88125160421b604482015260640161051a565b6000610b62610e68565b600954610b6f8382611085565b600160096000828254610b829190611959565b90915550909150505b919050565b60006001600160a01b038216610bfa5760405162461bcd60e51b815260206004820152602960248201527f4552433732313a2061646472657373207a65726f206973206e6f7420612076616044820152683634b21037bbb732b960b91b606482015260840161051a565b506001600160a01b031660009081526003602052604090205490565b610c1e610e68565b610c286000611210565b565b6060600180546103fc906118cd565b610c44338383611262565b5050565b610c523383610ec2565b610c6e5760405162461bcd60e51b815260040161051a9061196c565b610c7a84848484611328565b50505050565b6060610c8b82610d9b565b6000610ca260408051602081019091526000815290565b90506000815111610cc25760405180602001604052806000815250610ced565b80610ccc8461135b565b604051602001610cdd9291906119cc565b6040516020818303038152906040525b9392505050565b6001600160a01b03918216600090815260056020908152604080832093909416825291909152205460ff1690565b610d2a610e68565b6001600160a01b038116610d8f5760405162461bcd60e51b815260206004820152602660248201527f4f776e61626c653a206e6577206f776e657220697320746865207a65726f206160448201526564647265737360d01b606482015260840161051a565b610d9881611210565b50565b6000818152600260205260409020546001600160a01b0316610d985760405162461bcd60e51b8152602060048201526018602482015277115490cdcc8c4e881a5b9d985b1a59081d1bdad95b88125160421b604482015260640161051a565b600081815260046020526040902080546001600160a01b0319166001600160a01b0384169081179091558190610e2f82610af8565b6001600160a01b03167f8c5be1e5ebec7d5bd14f71427d1e84f3dd0314c0f7b2291e5b200ac8c7c3b92560405160405180910390a45050565b6006546001600160a01b03163314610c285760405162461bcd60e51b815260206004820181905260248201527f4f776e61626c653a2063616c6c6572206973206e6f7420746865206f776e6572604482015260640161051a565b600080610ece83610af8565b9050806001600160a01b0316846001600160a01b03161480610ef55750610ef58185610cf4565b80610f195750836001600160a01b0316610f0e8461047f565b6001600160a01b0316145b949350505050565b826001600160a01b0316610f3482610af8565b6001600160a01b031614610f5a5760405162461bcd60e51b815260040161051a906119fb565b6001600160a01b038216610fbc5760405162461bcd60e51b8152602060048201526024808201527f4552433732313a207472616e7366657220746f20746865207a65726f206164646044820152637265737360e01b606482015260840161051a565b826001600160a01b0316610fcf82610af8565b6001600160a01b031614610ff55760405162461bcd60e51b815260040161051a906119fb565b600081815260046020908152604080832080546001600160a01b03199081169091556001600160a01b0387811680865260038552838620805460001901905590871680865283862080546001019055868652600290945282852080549092168417909155905184937fddf252ad1be2c89b69c2b068fc378daa952ba7f163c4a11628f55a4df523b3ef91a4505050565b6001600160a01b0382166110db5760405162461bcd60e51b815260206004820181905260248201527f4552433732313a206d696e7420746f20746865207a65726f2061646472657373604482015260640161051a565b6000818152600260205260409020546001600160a01b0316156111405760405162461bcd60e51b815260206004820152601c60248201527f4552433732313a20746f6b656e20616c7265616479206d696e74656400000000604482015260640161051a565b6000818152600260205260409020546001600160a01b0316156111a55760405162461bcd60e51b815260206004820152601c60248201527f4552433732313a20746f6b656e20616c7265616479206d696e74656400000000604482015260640161051a565b6001600160a01b038216600081815260036020908152604080832080546001019055848352600290915280822080546001600160a01b0319168417905551839291907fddf252ad1be2c89b69c2b068fc378daa952ba7f163c4a11628f55a4df523b3ef908290a45050565b600680546001600160a01b038381166001600160a01b0319831681179093556040519116919082907f8be0079c531659141344cd1fd0a4f28419497f9722a3daafe3b4186f6b6457e090600090a35050565b816001600160a01b0316836001600160a01b0316036112c35760405162461bcd60e51b815260206004820152601960248201527f4552433732313a20617070726f766520746f2063616c6c657200000000000000604482015260640161051a565b6001600160a01b03838116600081815260056020908152604080832094871680845294825291829020805460ff191686151590811790915591519182527f17307eab39ab6107e8899845ad3d59bd9653f200f220920489ca2b5937696c319101610aeb565b611333848484610f21565b61133f848484846113ee565b610c7a5760405162461bcd60e51b815260040161051a90611a40565b60606000611368836114ef565b600101905060008167ffffffffffffffff811115611388576113886117a8565b6040519080825280601f01601f1916602001820160405280156113b2576020820181803683370190505b5090508181016020015b600019016f181899199a1a9b1b9c1cb0b131b232b360811b600a86061a8153600a85049450846113bc57509392505050565b60006001600160a01b0384163b156114e457604051630a85bd0160e11b81526001600160a01b0385169063150b7a0290611432903390899088908890600401611a92565b6020604051808303816000875af192505050801561146d575060408051601f3d908101601f1916820190925261146a91810190611acf565b60015b6114ca573d80801561149b576040519150601f19603f3d011682016040523d82523d6000602084013e6114a0565b606091505b5080516000036114c25760405162461bcd60e51b815260040161051a90611a40565b805181602001fd5b6001600160e01b031916630a85bd0160e11b149050610f19565b506001949350505050565b60008072184f03e93ff9f4daa797ed6e38ed64bf6a1f0160401b831061152e5772184f03e93ff9f4daa797ed6e38ed64bf6a1f0160401b830492506040015b6d04ee2d6d415b85acef8100000000831061155a576d04ee2d6d415b85acef8100000000830492506020015b662386f26fc10000831061157857662386f26fc10000830492506010015b6305f5e1008310611590576305f5e100830492506008015b61271083106115a457612710830492506004015b606483106115b6576064830492506002015b600a83106103e75760010192915050565b6001600160e01b031981168114610d9857600080fd5b6000602082840312156115ef57600080fd5b8135610ced816115c7565b60005b838110156116155781810151838201526020016115fd565b50506000910152565b600081518084526116368160208601602086016115fa565b601f01601f19169290920160200192915050565b602081526000610ced602083018461161e565b60006020828403121561166f57600080fd5b5035919050565b80356001600160a01b0381168114610b8b57600080fd5b600080604083850312156116a057600080fd5b6116a983611676565b946020939093013593505050565b6000806000606084860312156116cc57600080fd5b6116d584611676565b92506116e360208501611676565b9150604084013590509250925092565b6000806040838503121561170657600080fd5b50508035926020909101359150565b60008060006060848603121561172a57600080fd5b61173384611676565b95602085013595506040909401359392505050565b60006020828403121561175a57600080fd5b610ced82611676565b8015158114610d9857600080fd5b6000806040838503121561178457600080fd5b61178d83611676565b9150602083013561179d81611763565b809150509250929050565b634e487b7160e01b600052604160045260246000fd5b600080600080608085870312156117d457600080fd5b6117dd85611676565b93506117eb60208601611676565b925060408501359150606085013567ffffffffffffffff8082111561180f57600080fd5b818701915087601f83011261182357600080fd5b813581811115611835576118356117a8565b604051601f8201601f19908116603f0116810190838211818310171561185d5761185d6117a8565b816040528281528a602084870101111561187657600080fd5b82602086016020830137600060208483010152809550505050505092959194509250565b600080604083850312156118ad57600080fd5b6118b683611676565b91506118c460208401611676565b90509250929050565b600181811c908216806118e157607f821691505b60208210810361190157634e487b7160e01b600052602260045260246000fd5b50919050565b634e487b7160e01b600052601160045260246000fd5b600081600019048311821515161561193757611937611907565b500290565b60006020828403121561194e57600080fd5b8151610ced81611763565b808201808211156103e7576103e7611907565b6020808252602d908201527f4552433732313a2063616c6c6572206973206e6f7420746f6b656e206f776e6560408201526c1c881bdc88185c1c1c9bdd9959609a1b606082015260800190565b818103818111156103e7576103e7611907565b600083516119de8184602088016115fa565b8351908301906119f28183602088016115fa565b01949350505050565b60208082526025908201527f4552433732313a207472616e736665722066726f6d20696e636f72726563742060408201526437bbb732b960d91b606082015260800190565b60208082526032908201527f4552433732313a207472616e7366657220746f206e6f6e20455243373231526560408201527131b2b4bb32b91034b6b83632b6b2b73a32b960711b606082015260800190565b6001600160a01b0385811682528416602082015260408101839052608060608201819052600090611ac59083018461161e565b9695505050505050565b600060208284031215611ae157600080fd5b8151610ced816115c756fea2646970667358221220d691fba1b6c6778b1b887b392868e0466d06aa903aef772ffc748993bf03ceea64736f6c63430008100033",
  "linkReferences": {},
  "deployedLinkReferences": {}
}