{
  "_format": "hh-sol-artifact-1",
  "contractName": "Coupon",
  "sourceName": "contracts/cashier/token/Coupon.sol",
  "abi": [
    {
      "inputs": [
        {
          "internalType": "address",
          "name": "zgsToken_",
          "type": "address"
        },
        {
          "internalType": "address",
          "name": "cashier_",
          "type": "address"
        }
      ],
      "stateMutability": "nonpayable",
      "type": "constructor"
    },
    {
      "anonymous": false,
      "inputs": [
        {
          "indexed": true,
          "internalType": "address",
          "name": "owner",
          "type": "address"
        },
        {
          "indexed": true,
          "internalType": "address",
          "name": "approved",
          "type": "address"
        },
        {
          "indexed": true,
          "internalType": "uint256",
          "name": "tokenId",
          "type": "uint256"
        }
      ],
      "name": "Approval",
      "type": "event"
    },
    {
      "anonymous": false,
      "inputs": [
        {
          "indexed": true,
          "internalType": "address",
          "name": "owner",
          "type": "address"
        },
        {
          "indexed": true,
          "internalType": "address",
          "name": "operator",
          "type": "address"
        },
        {
          "indexed": false,
          "internalType": "bool",
          "name": "approved",
          "type": "bool"
        }
      ],
      "name": "ApprovalForAll",
      "type": "event"
    },
    {
      "anonymous": false,
      "inputs": [
        {
          "indexed": true,
          "internalType": "uint256",
          "name": "tokenId",
          "type": "uint256"
        },
        {
          "indexed": true,
          "internalType": "address",
          "name": "user",
          "type": "address"
        },
        {
          "indexed": false,
          "internalType": "uint256",
          "name": "amount",
          "type": "uint256"
        }
      ],
      "name": "Consume",
      "type": "event"
    },
    {
      "anonymous": false,
      "inputs": [
        {
          "indexed": true,
          "internalType": "uint256",
          "name": "tokenId",
          "type": "uint256"
        },
        {
          "indexed": false,
          "internalType": "uint256",
          "name": "amount",
          "type": "uint256"
        }
      ],
      "name": "Fuel",
      "type": "event"
    },
    {
      "anonymous": false,
      "inputs": [
        {
          "indexed": true,
          "internalType": "address",
          "name": "previousOwner",
          "type": "address"
        },
        {
          "indexed": true,
          "internalType": "address",
          "name": "newOwner",
          "type": "address"
        }
      ],
      "name": "OwnershipTransferred",
      "type": "event"
    },
    {
      "anonymous": false,
      "inputs": [
        {
          "indexed": true,
          "internalType": "uint256",
          "name": "tokenId",
          "type": "uint256"
        },
        {
          "indexed": false,
          "internalType": "uint256",
          "name": "amount",
          "type": "uint256"
        }
      ],
      "name": "Revoke",
      "type": "event"
    },
    {
      "anonymous": false,
      "inputs": [
        {
          "indexed": true,
          "internalType": "address",
          "name": "from",
          "type": "address"
        },
        {
          "indexed": true,
          "internalType": "address",
          "name": "to",
          "type": "address"
        },
        {
          "indexed": true,
          "internalType": "uint256",
          "name": "tokenId",
          "type": "uint256"
        }
      ],
      "name": "Transfer",
      "type": "event"
    },
    {
      "inputs": [
        {
          "internalType": "address",
          "name": "to",
          "type": "address"
        },
        {
          "internalType": "uint256",
          "name": "tokenId",
          "type": "uint256"
        }
      ],
      "name": "approve",
      "outputs": [],
      "stateMutability": "nonpayable",
      "type": "function"
    },
    {
      "inputs": [
        {
          "internalType": "address",
          "name": "owner",
          "type": "address"
        }
      ],
      "name": "balanceOf",
      "outputs": [
        {
          "internalType": "uint256",
          "name": "",
          "type": "uint256"
        }
      ],
      "stateMutability": "view",
      "type": "function"
    },
    {
      "inputs": [],
      "name": "cashier",
      "outputs": [
        {
          "internalType": "address",
          "name": "",
          "type": "address"
        }
      ],
      "stateMutability": "view",
      "type": "function"
    },
    {
      "inputs": [
        {
          "internalType": "uint256",
          "name": "tokenId",
          "type": "uint256"
        },
        {
          "internalType": "uint256",
          "name": "amount",
          "type": "uint256"
        }
      ],
      "name": "fuel",
      "outputs": [],
      "stateMutability": "nonpayable",
      "type": "function"
    },
    {
      "inputs": [
        {
          "internalType": "uint256",
          "name": "tokenId",
          "type": "uint256"
        }
      ],
      "name": "getApproved",
      "outputs": [
        {
          "internalType": "address",
          "name": "",
          "type": "address"
        }
      ],
      "stateMutability": "view",
      "type": "function"
    },
    {
      "inputs": [
        {
          "internalType": "address",
          "name": "owner",
          "type": "address"
        },
        {
          "internalType": "address",
          "name": "operator",
          "type": "address"
        }
      ],
      "name": "isApprovedForAll",
      "outputs": [
        {
          "internalType": "bool",
          "name": "",
          "type": "bool"
        }
      ],
      "stateMutability": "view",
      "type": "function"
    },
    {
      "inputs": [
        {
          "internalType": "address",
          "name": "to",
          "type": "address"
        }
      ],
      "name": "mint",
      "outputs": [
        {
          "internalType": "uint256",
          "name": "",
          "type": "uint256"
        }
      ],
      "stateMutability": "nonpayable",
      "type": "function"
    },
    {
      "inputs": [],
      "name": "name",
      "outputs": [
        {
          "internalType": "string",
          "name": "",
          "type": "string"
        }
      ],
      "stateMutability": "view",
      "type": "function"
    },
    {
      "inputs": [],
      "name": "nextTokenId",
      "outputs": [
        {
          "internalType": "uint256",
          "name": "",
          "type": "uint256"
        }
      ],
      "stateMutability": "view",
      "type": "function"
    },
    {
      "inputs": [],
      "name": "owner",
      "outputs": [
        {
          "internalType": "address",
          "name": "",
          "type": "address"
        }
      ],
      "stateMutability": "view",
      "type": "function"
    },
    {
      "inputs": [
        {
          "internalType": "uint256",
          "name": "tokenId",
          "type": "uint256"
        }
      ],
      "name": "ownerOf",
      "outputs": [
        {
          "internalType": "address",
          "name": "",
          "type": "address"
        }
      ],
      "stateMutability": "view",
      "type": "function"
    },
    {
      "inputs": [
        {
          "internalType": "address",
          "name": "requester",
          "type": "address"
        },
        {
          "internalType": "uint256",
          "name": "tokenId",
          "type": "uint256"
        },
        {
          "internalType": "uint256",
          "name": "amount",
          "type": "uint256"
        }
      ],
      "name": "pay",
      "outputs": [],
      "stateMutability": "nonpayable",
      "type": "function"
    },
    {
      "inputs": [],
      "name": "renounceOwnership",
      "outputs": [],
      "stateMutability": "nonpayable",
      "type": "function"
    },
    {
      "inputs": [
        {
          "internalType": "uint256",
          "name": "tokenId",
          "type": "uint256"
        }
      ],
      "name": "revoke",
      "outputs": [],
      "stateMutability": "nonpayable",
      "type": "function"
    },
    {
      "inputs": [
        {
          "internalType": "address",
          "name": "from",
          "type": "address"
        },
        {
          "internalType": "address",
          "name": "to",
          "type": "address"
        },
        {
          "internalType": "uint256",
          "name": "tokenId",
          "type": "uint256"
        }
      ],
      "name": "safeTransferFrom",
      "outputs": [],
      "stateMutability": "nonpayable",
      "type": "function"
    },
    {
      "inputs": [
        {
          "internalType": "address",
          "name": "from",
          "type": "address"
        },
        {
          "internalType": "address",
          "name": "to",
          "type": "address"
        },
        {
          "internalType": "uint256",
          "name": "tokenId",
          "type": "uint256"
        },
        {
          "internalType": "bytes",
          "name": "data",
          "type": "bytes"
        }
      ],
      "name": "safeTransferFrom",
      "outputs": [],
      "stateMutability": "nonpayable",
      "type": "function"
    },
    {
      "inputs": [
        {
          "internalType": "address",
          "name": "operator",
          "type": "address"
        },
        {
          "internalType": "bool",
          "name": "approved",
          "type": "bool"
        }
      ],
      "name": "setApprovalForAll",
      "outputs": [],
      "stateMutability": "nonpayable",
      "type": "function"
    },
    {
      "inputs": [
        {
          "internalType": "bytes4",
          "name": "interfaceId",
          "type": "bytes4"
        }
      ],
      "name": "supportsInterface",
      "outputs": [
        {
          "internalType": "bool",
          "name": "",
          "type": "bool"
        }
      ],
      "stateMutability": "view",
      "type": "function"
    },
    {
      "inputs": [],
      "name": "symbol",
      "outputs": [
        {
          "internalType": "string",
          "name": "",
          "type": "string"
        }
      ],
      "stateMutability": "view",
      "type": "function"
    },
    {
      "inputs": [
        {
          "internalType": "uint256",
          "name": "tokenId",
          "type": "uint256"
        }
      ],
      "name": "tokenURI",
      "outputs": [
        {
          "internalType": "string",
          "name": "",
          "type": "string"
        }
      ],
      "stateMutability": "view",
      "type": "function"
    },
    {
      "inputs": [],
      "name": "totalUnusedBalance",
      "outputs": [
        {
          "internalType": "uint256",
          "name": "",
          "type": "uint256"
        }
      ],
      "stateMutability": "view",
      "type": "function"
    },
    {
      "inputs": [
        {
          "internalType": "address",
          "name": "from",
          "type": "address"
        },
        {
          "internalType": "address",
          "name": "to",
          "type": "address"
        },
        {
          "internalType": "uint256",
          "name": "tokenId",
          "type": "uint256"
        }
      ],
      "name": "transferFrom",
      "outputs": [],
      "stateMutability": "nonpayable",
      "type": "function"
    },
    {
      "inputs": [
        {
          "internalType": "address",
          "name": "newOwner",
          "type": "address"
        }
      ],
      "name": "transferOwnership",
      "outputs": [],
      "stateMutability": "nonpayable",
      "type": "function"
    },
    {
      "inputs": [
        {
          "internalType": "uint256",
          "name": "",
          "type": "uint256"
        }
      ],
      "name": "uploadBalance",
      "outputs": [
        {
          "internalType": "uint256",
          "name": "",
          "type": "uint256"
        }
      ],
      "stateMutability": "view",
      "type": "function"
    },
    {
      "inputs": [],
      "name": "zgsToken",
      "outputs": [
        {
          "internalType": "contract ISafeERC20",
          "name": "",
          "type": "address"
        }
      ],
      "stateMutability": "view",
      "type": "function"
    }
  ],
  "bytecode": "0x60c06040523480156200001157600080fd5b5060405162001e0e38038062001e0e83398101604081905262000034916200014c565b604051806040016040528060128152602001712d32b937a3a9ba37b930b3b2a1b7bab837b760711b815250604051806040016040528060078152602001662d23a996a1a82760c91b815250816000908162000090919062000229565b5060016200009f828262000229565b505050620000bc620000b6620000d960201b60201c565b620000dd565b6001600160a01b039182166080521660a0526001600955620002f5565b3390565b600680546001600160a01b038381166001600160a01b0319831681179093556040519116919082907f8be0079c531659141344cd1fd0a4f28419497f9722a3daafe3b4186f6b6457e090600090a35050565b80516001600160a01b03811681146200014757600080fd5b919050565b600080604083850312156200016057600080fd5b6200016b836200012f565b91506200017b602084016200012f565b90509250929050565b634e487b7160e01b600052604160045260246000fd5b600181811c90821680620001af57607f821691505b602082108103620001d057634e487b7160e01b600052602260045260246000fd5b50919050565b601f8211156200022457600081815260208120601f850160051c81016020861015620001ff5750805b601f850160051c820191505b8181101562000220578281556001016200020b565b5050505b505050565b81516001600160401b0381111562000245576200024562000184565b6200025d816200025684546200019a565b84620001d6565b602080601f8311600181146200029557600084156200027c5750858301515b600019600386901b1c1916600185901b17855562000220565b600085815260208120601f198616915b82811015620002c657888601518255948401946001909101908401620002a5565b5085821015620002e55787850151600019600388901b60f8161c191681555b5050505050600190811b01905550565b60805160a051611ad06200033e60003960008181610366015281816106640152818161088901526109a80152600081816102200152818161063d01526108610152611ad06000f3fe608060405234801561001057600080fd5b50600436106101735760003560e01c80636a627842116100de57806395d89b4111610097578063c87b56dd11610071578063c87b56dd1461033b578063e985e9c51461034e578063ed740e9714610361578063f2fde38b1461038857600080fd5b806395d89b411461030d578063a22cb46514610315578063b88d4fde1461032857600080fd5b80636a627842146102a557806370a08231146102b8578063715018a6146102cb57806375794a3c146102d35780638da5cb5b146102dc5780639550c7ca146102ed57600080fd5b80632782f579116101305780632782f5791461021b578063321bd4571461024257806342842e0e146102555780635d425ef5146102685780635f0653461461027f5780636352211e1461029257600080fd5b806301ffc9a71461017857806306fdde03146101a0578063081812fc146101b5578063095ea7b3146101e057806320c5429b146101f557806323b872dd14610208575b600080fd5b61018b610186366004611562565b61039b565b60405190151581526020015b60405180910390f35b6101a86103ed565b60405161019791906115cf565b6101c86101c33660046115e2565b61047f565b6040516001600160a01b039091168152602001610197565b6101f36101ee366004611612565b6104a6565b005b6101f36102033660046115e2565b6105c0565b6101f361021636600461163c565b61076b565b6101c87f000000000000000000000000000000000000000000000000000000000000000081565b6101f3610250366004611678565b61079c565b6101f361026336600461163c565b610982565b61027160085481565b604051908152602001610197565b6101f361028d36600461169a565b61099d565b6101c86102a03660046115e2565b610af8565b6102716102b33660046116cd565b610b58565b6102716102c63660046116cd565b610b90565b6101f3610c16565b61027160095481565b6006546001600160a01b03166101c8565b6102716102fb3660046115e2565b60076020526000908152604090205481565b6101a8610c2a565b6101f36103233660046116f6565b610c39565b6101f3610336366004611743565b610c48565b6101a86103493660046115e2565b610c80565b61018b61035c36600461181f565b610cf4565b6101c87f000000000000000000000000000000000000000000000000000000000000000081565b6101f36103963660046116cd565b610d22565b60006001600160e01b031982166380ac58cd60e01b14806103cc57506001600160e01b03198216635b5e139f60e01b145b806103e757506301ffc9a760e01b6001600160e01b03198316145b92915050565b6060600080546103fc90611852565b80601f016020809104026020016040519081016040528092919081815260200182805461042890611852565b80156104755780601f1061044a57610100808354040283529160200191610475565b820191906000526020600020905b81548152906001019060200180831161045857829003601f168201915b5050505050905090565b600061048a82610d9b565b506000908152600460205260409020546001600160a01b031690565b60006104b182610af8565b9050806001600160a01b0316836001600160a01b0316036105235760405162461bcd60e51b815260206004820152602160248201527f4552433732313a20617070726f76616c20746f2063757272656e74206f776e656044820152603960f91b60648201526084015b60405180910390fd5b336001600160a01b038216148061053f575061053f8133610cf4565b6105b15760405162461bcd60e51b815260206004820152603e60248201527f4552433732313a20617070726f76652063616c6c6572206973206e6f7420746f60448201527f6b656e206f776e6572206e6f7220617070726f76656420666f7220616c6c0000606482015260840161051a565b6105bb8383610dfa565b505050565b6105c8610e68565b6000818152600260205260409020546001600160a01b03166106245760405162461bcd60e51b815260206004820152601560248201527418dbdd5c1bdb88191bd95cc81b9bdd08195e1a5cdd605a1b604482015260640161051a565b6000818152600760205260409020546001600160a01b037f0000000000000000000000000000000000000000000000000000000000000000166323b872dd7f0000000000000000000000000000000000000000000000000000000000000000336106906103e8866118a2565b6040516001600160e01b031960e086901b1681526001600160a01b03938416600482015292909116602483015260448201526064016020604051808303816000875af11580156106e4573d6000803e3d6000fd5b505050506040513d601f19601f8201168201806040525081019061070891906118c1565b5060008281526007602052604081208190556008805483929061072c9084906118de565b909155505060405181815282907f0c806788a396310de038bbf64c839ba26aa421c8b2673c79911c3b32be6f9d4d906020015b60405180910390a25050565b6107753382610ec2565b6107915760405162461bcd60e51b815260040161051a906118f1565b6105bb838383610f21565b6107a4610e68565b6000828152600260205260409020546001600160a01b03166108005760405162461bcd60e51b815260206004820152601560248201527418dbdd5c1bdb88191bd95cc81b9bdd08195e1a5cdd605a1b604482015260640161051a565b6008548111156108405760405162461bcd60e51b815260206004820152600b60248201526a6e6f20636170616369747960a81b604482015260640161051a565b8060086000828254610852919061193f565b90915550506001600160a01b037f0000000000000000000000000000000000000000000000000000000000000000166323b872dd337f00000000000000000000000000000000000000000000000000000000000000006108b46103e8866118a2565b6040516001600160e01b031960e086901b1681526001600160a01b03938416600482015292909116602483015260448201526064016020604051808303816000875af1158015610908573d6000803e3d6000fd5b505050506040513d601f19601f8201168201806040525081019061092c91906118c1565b506000828152600760205260408120805483929061094b9084906118de565b909155505060405181815282907f877c2292ac9b26c308d9c6cc7488882b82202e7042f390f166d853575be3a6ec9060200161075f565b6105bb83838360405180602001604052806000815250610c48565b336001600160a01b037f00000000000000000000000000000000000000000000000000000000000000001614610a0d5760405162461bcd60e51b815260206004820152601560248201527413db9b1e4818d85cda1a595c8818d85b8818d85b1b605a1b604482015260640161051a565b826001600160a01b0316610a2083610af8565b6001600160a01b031614610a765760405162461bcd60e51b815260206004820152601c60248201527f526571756573746572206e6f74206f776e207468697320746f6b656e00000000604482015260640161051a565b60008281526007602052604081208054839290610a9490849061193f565b925050819055508060086000828254610aad91906118de565b90915550506040518181526001600160a01b0384169083907f6ac47eec4a8fc9b3e6e12662e91bd8cda0932ab18d04e5b40ddbeea6826ae064906020015b60405180910390a3505050565b6000818152600260205260408120546001600160a01b0316806103e75760405162461bcd60e51b8152602060048201526018602482015277115490cdcc8c4e881a5b9d985b1a59081d1bdad95b88125160421b604482015260640161051a565b6000610b62610e68565b600954610b6f83826110bd565b600160096000828254610b8291906118de565b90915550909150505b919050565b60006001600160a01b038216610bfa5760405162461bcd60e51b815260206004820152602960248201527f4552433732313a2061646472657373207a65726f206973206e6f7420612076616044820152683634b21037bbb732b960b91b606482015260840161051a565b506001600160a01b031660009081526003602052604090205490565b610c1e610e68565b610c2860006111ff565b565b6060600180546103fc90611852565b610c44338383611251565b5050565b610c523383610ec2565b610c6e5760405162461bcd60e51b815260040161051a906118f1565b610c7a84848484611317565b50505050565b6060610c8b82610d9b565b6000610ca260408051602081019091526000815290565b90506000815111610cc25760405180602001604052806000815250610ced565b80610ccc8461134a565b604051602001610cdd929190611952565b6040516020818303038152906040525b9392505050565b6001600160a01b03918216600090815260056020908152604080832093909416825291909152205460ff1690565b610d2a610e68565b6001600160a01b038116610d8f5760405162461bcd60e51b815260206004820152602660248201527f4f776e61626c653a206e6577206f776e657220697320746865207a65726f206160448201526564647265737360d01b606482015260840161051a565b610d98816111ff565b50565b6000818152600260205260409020546001600160a01b0316610d985760405162461bcd60e51b8152602060048201526018602482015277115490cdcc8c4e881a5b9d985b1a59081d1bdad95b88125160421b604482015260640161051a565b600081815260046020526040902080546001600160a01b0319166001600160a01b0384169081179091558190610e2f82610af8565b6001600160a01b03167f8c5be1e5ebec7d5bd14f71427d1e84f3dd0314c0f7b2291e5b200ac8c7c3b92560405160405180910390a45050565b6006546001600160a01b03163314610c285760405162461bcd60e51b815260206004820181905260248201527f4f776e61626c653a2063616c6c6572206973206e6f7420746865206f776e6572604482015260640161051a565b600080610ece83610af8565b9050806001600160a01b0316846001600160a01b03161480610ef55750610ef58185610cf4565b80610f195750836001600160a01b0316610f0e8461047f565b6001600160a01b0316145b949350505050565b826001600160a01b0316610f3482610af8565b6001600160a01b031614610f985760405162461bcd60e51b815260206004820152602560248201527f4552433732313a207472616e736665722066726f6d20696e636f72726563742060448201526437bbb732b960d91b606482015260840161051a565b6001600160a01b038216610ffa5760405162461bcd60e51b8152602060048201526024808201527f4552433732313a207472616e7366657220746f20746865207a65726f206164646044820152637265737360e01b606482015260840161051a565b611005600082610dfa565b6001600160a01b038316600090815260036020526040812080546001929061102e90849061193f565b90915550506001600160a01b038216600090815260036020526040812080546001929061105c9084906118de565b909155505060008181526002602052604080822080546001600160a01b0319166001600160a01b0386811691821790925591518493918716917fddf252ad1be2c89b69c2b068fc378daa952ba7f163c4a11628f55a4df523b3ef91a4505050565b6001600160a01b0382166111135760405162461bcd60e51b815260206004820181905260248201527f4552433732313a206d696e7420746f20746865207a65726f2061646472657373604482015260640161051a565b6000818152600260205260409020546001600160a01b0316156111785760405162461bcd60e51b815260206004820152601c60248201527f4552433732313a20746f6b656e20616c7265616479206d696e74656400000000604482015260640161051a565b6001600160a01b03821660009081526003602052604081208054600192906111a19084906118de565b909155505060008181526002602052604080822080546001600160a01b0319166001600160a01b03861690811790915590518392907fddf252ad1be2c89b69c2b068fc378daa952ba7f163c4a11628f55a4df523b3ef908290a45050565b600680546001600160a01b038381166001600160a01b0319831681179093556040519116919082907f8be0079c531659141344cd1fd0a4f28419497f9722a3daafe3b4186f6b6457e090600090a35050565b816001600160a01b0316836001600160a01b0316036112b25760405162461bcd60e51b815260206004820152601960248201527f4552433732313a20617070726f766520746f2063616c6c657200000000000000604482015260640161051a565b6001600160a01b03838116600081815260056020908152604080832094871680845294825291829020805460ff191686151590811790915591519182527f17307eab39ab6107e8899845ad3d59bd9653f200f220920489ca2b5937696c319101610aeb565b611322848484610f21565b61132e8484848461144b565b610c7a5760405162461bcd60e51b815260040161051a90611981565b6060816000036113715750506040805180820190915260018152600360fc1b602082015290565b8160005b811561139b5780611385816119d3565b91506113949050600a83611a02565b9150611375565b60008167ffffffffffffffff8111156113b6576113b661172d565b6040519080825280601f01601f1916602001820160405280156113e0576020820181803683370190505b5090505b8415610f19576113f560018361193f565b9150611402600a86611a16565b61140d9060306118de565b60f81b81838151811061142257611422611a2a565b60200101906001600160f81b031916908160001a905350611444600a86611a02565b94506113e4565b60006001600160a01b0384163b1561154157604051630a85bd0160e11b81526001600160a01b0385169063150b7a029061148f903390899088908890600401611a40565b6020604051808303816000875af19250505080156114ca575060408051601f3d908101601f191682019092526114c791810190611a7d565b60015b611527573d8080156114f8576040519150601f19603f3d011682016040523d82523d6000602084013e6114fd565b606091505b50805160000361151f5760405162461bcd60e51b815260040161051a90611981565b805181602001fd5b6001600160e01b031916630a85bd0160e11b149050610f19565b506001949350505050565b6001600160e01b031981168114610d9857600080fd5b60006020828403121561157457600080fd5b8135610ced8161154c565b60005b8381101561159a578181015183820152602001611582565b50506000910152565b600081518084526115bb81602086016020860161157f565b601f01601f19169290920160200192915050565b602081526000610ced60208301846115a3565b6000602082840312156115f457600080fd5b5035919050565b80356001600160a01b0381168114610b8b57600080fd5b6000806040838503121561162557600080fd5b61162e836115fb565b946020939093013593505050565b60008060006060848603121561165157600080fd5b61165a846115fb565b9250611668602085016115fb565b9150604084013590509250925092565b6000806040838503121561168b57600080fd5b50508035926020909101359150565b6000806000606084860312156116af57600080fd5b6116b8846115fb565b95602085013595506040909401359392505050565b6000602082840312156116df57600080fd5b610ced826115fb565b8015158114610d9857600080fd5b6000806040838503121561170957600080fd5b611712836115fb565b91506020830135611722816116e8565b809150509250929050565b634e487b7160e01b600052604160045260246000fd5b6000806000806080858703121561175957600080fd5b611762856115fb565b9350611770602086016115fb565b925060408501359150606085013567ffffffffffffffff8082111561179457600080fd5b818701915087601f8301126117a857600080fd5b8135818111156117ba576117ba61172d565b604051601f8201601f19908116603f011681019083821181831017156117e2576117e261172d565b816040528281528a60208487010111156117fb57600080fd5b82602086016020830137600060208483010152809550505050505092959194509250565b6000806040838503121561183257600080fd5b61183b836115fb565b9150611849602084016115fb565b90509250929050565b600181811c9082168061186657607f821691505b60208210810361188657634e487b7160e01b600052602260045260246000fd5b50919050565b634e487b7160e01b600052601160045260246000fd5b60008160001904831182151516156118bc576118bc61188c565b500290565b6000602082840312156118d357600080fd5b8151610ced816116e8565b808201808211156103e7576103e761188c565b6020808252602e908201527f4552433732313a2063616c6c6572206973206e6f7420746f6b656e206f776e6560408201526d1c881b9bdc88185c1c1c9bdd995960921b606082015260800190565b818103818111156103e7576103e761188c565b6000835161196481846020880161157f565b83519083019061197881836020880161157f565b01949350505050565b60208082526032908201527f4552433732313a207472616e7366657220746f206e6f6e20455243373231526560408201527131b2b4bb32b91034b6b83632b6b2b73a32b960711b606082015260800190565b6000600182016119e5576119e561188c565b5060010190565b634e487b7160e01b600052601260045260246000fd5b600082611a1157611a116119ec565b500490565b600082611a2557611a256119ec565b500690565b634e487b7160e01b600052603260045260246000fd5b6001600160a01b0385811682528416602082015260408101839052608060608201819052600090611a73908301846115a3565b9695505050505050565b600060208284031215611a8f57600080fd5b8151610ced8161154c56fea2646970667358221220173920da88888b58889d3158b7c9c29551f71aaee2001f7060f961b99a16f9ac64736f6c63430008100033",
  "linkReferences": {},
  "deployedLinkReferences": {}
}