{
  "_format": "hh-sol-artifact-1",
  "contractName": "Flow",
  "sourceName": "contracts/dataFlow/Flow.sol",
  "abi": [
    {
      "inputs": [
        {
          "internalType": "address",
          "name": "cashier_",
          "type": "address"
        },
        {
          "internalType": "uint256",
          "name": "blocksPerEpoch_",
          "type": "uint256"
        },
        {
          "internalType": "uint256",
          "name": "deployDelay_",
          "type": "uint256"
        }
      ],
      "stateMutability": "nonpayable",
      "type": "constructor"
    },
    {
      "inputs": [],
      "name": "InvalidSubmission",
      "type": "error"
    },
    {
      "anonymous": false,
      "inputs": [
        {
          "indexed": true,
          "internalType": "address",
          "name": "sender",
          "type": "address"
        },
        {
          "indexed": true,
          "internalType": "uint256",
          "name": "index",
          "type": "uint256"
        },
        {
          "indexed": false,
          "internalType": "bytes32",
          "name": "startMerkleRoot",
          "type": "bytes32"
        },
        {
          "indexed": false,
          "internalType": "uint256",
          "name": "submissionIndex",
          "type": "uint256"
        },
        {
          "indexed": false,
          "internalType": "uint256",
          "name": "flowLength",
          "type": "uint256"
        },
        {
          "indexed": false,
          "internalType": "bytes32",
          "name": "context",
          "type": "bytes32"
        }
      ],
      "name": "NewEpoch",
      "type": "event"
    },
    {
      "anonymous": false,
      "inputs": [
        {
          "indexed": false,
          "internalType": "address",
          "name": "account",
          "type": "address"
        }
      ],
      "name": "Paused",
      "type": "event"
    },
    {
      "anonymous": false,
      "inputs": [
        {
          "indexed": true,
          "internalType": "address",
          "name": "sender",
          "type": "address"
        },
        {
          "indexed": true,
          "internalType": "bytes32",
          "name": "identity",
          "type": "bytes32"
        },
        {
          "indexed": false,
          "internalType": "uint256",
          "name": "submissionIndex",
          "type": "uint256"
        },
        {
          "indexed": false,
          "internalType": "uint256",
          "name": "startPos",
          "type": "uint256"
        },
        {
          "indexed": false,
          "internalType": "uint256",
          "name": "length",
          "type": "uint256"
        },
        {
          "components": [
            {
              "internalType": "uint256",
              "name": "length",
              "type": "uint256"
            },
            {
              "internalType": "bytes",
              "name": "tags",
              "type": "bytes"
            },
            {
              "components": [
                {
                  "internalType": "bytes32",
                  "name": "root",
                  "type": "bytes32"
                },
                {
                  "internalType": "uint256",
                  "name": "height",
                  "type": "uint256"
                }
              ],
              "internalType": "struct SubmissionNode[]",
              "name": "nodes",
              "type": "tuple[]"
            }
          ],
          "indexed": false,
          "internalType": "struct Submission",
          "name": "submission",
          "type": "tuple"
        }
      ],
      "name": "Submit",
      "type": "event"
    },
    {
      "anonymous": false,
      "inputs": [
        {
          "indexed": false,
          "internalType": "address",
          "name": "account",
          "type": "address"
        }
      ],
      "name": "Unpaused",
      "type": "event"
    },
    {
      "inputs": [],
      "name": "blocksPerEpoch",
      "outputs": [
        {
          "internalType": "uint256",
          "name": "",
          "type": "uint256"
        }
      ],
      "stateMutability": "view",
      "type": "function"
    },
    {
      "inputs": [],
      "name": "cashier",
      "outputs": [
        {
          "internalType": "contract ICashier",
          "name": "",
          "type": "address"
        }
      ],
      "stateMutability": "view",
      "type": "function"
    },
    {
      "inputs": [],
      "name": "commitRoot",
      "outputs": [],
      "stateMutability": "nonpayable",
      "type": "function"
    },
    {
      "inputs": [],
      "name": "currentLength",
      "outputs": [
        {
          "internalType": "uint256",
          "name": "",
          "type": "uint256"
        }
      ],
      "stateMutability": "view",
      "type": "function"
    },
    {
      "inputs": [],
      "name": "epoch",
      "outputs": [
        {
          "internalType": "uint256",
          "name": "",
          "type": "uint256"
        }
      ],
      "stateMutability": "view",
      "type": "function"
    },
    {
      "inputs": [],
      "name": "epochStartPosition",
      "outputs": [
        {
          "internalType": "uint256",
          "name": "",
          "type": "uint256"
        }
      ],
      "stateMutability": "view",
      "type": "function"
    },
    {
      "inputs": [],
      "name": "firstBlock",
      "outputs": [
        {
          "internalType": "uint256",
          "name": "",
          "type": "uint256"
        }
      ],
      "stateMutability": "view",
      "type": "function"
    },
    {
      "inputs": [],
      "name": "getContext",
      "outputs": [
        {
          "components": [
            {
              "internalType": "uint256",
              "name": "epoch",
              "type": "uint256"
            },
            {
              "internalType": "uint256",
              "name": "mineStart",
              "type": "uint256"
            },
            {
              "internalType": "bytes32",
              "name": "flowRoot",
              "type": "bytes32"
            },
            {
              "internalType": "uint256",
              "name": "flowLength",
              "type": "uint256"
            },
            {
              "internalType": "bytes32",
              "name": "blockDigest",
              "type": "bytes32"
            },
            {
              "internalType": "bytes32",
              "name": "digest",
              "type": "bytes32"
            }
          ],
          "internalType": "struct MineContext",
          "name": "",
          "type": "tuple"
        }
      ],
      "stateMutability": "view",
      "type": "function"
    },
    {
      "inputs": [
        {
          "internalType": "bytes32",
          "name": "digest",
          "type": "bytes32"
        }
      ],
      "name": "getEpochRange",
      "outputs": [
        {
          "components": [
            {
              "internalType": "uint128",
              "name": "start",
              "type": "uint128"
            },
            {
              "internalType": "uint128",
              "name": "end",
              "type": "uint128"
            }
          ],
          "internalType": "struct EpochRange",
          "name": "",
          "type": "tuple"
        }
      ],
      "stateMutability": "view",
      "type": "function"
    },
    {
      "inputs": [],
      "name": "makeContext",
      "outputs": [],
      "stateMutability": "nonpayable",
      "type": "function"
    },
    {
      "inputs": [],
      "name": "makeContextWithResult",
      "outputs": [
        {
          "components": [
            {
              "internalType": "uint256",
              "name": "epoch",
              "type": "uint256"
            },
            {
              "internalType": "uint256",
              "name": "mineStart",
              "type": "uint256"
            },
            {
              "internalType": "bytes32",
              "name": "flowRoot",
              "type": "bytes32"
            },
            {
              "internalType": "uint256",
              "name": "flowLength",
              "type": "uint256"
            },
            {
              "internalType": "bytes32",
              "name": "blockDigest",
              "type": "bytes32"
            },
            {
              "internalType": "bytes32",
              "name": "digest",
              "type": "bytes32"
            }
          ],
          "internalType": "struct MineContext",
          "name": "",
          "type": "tuple"
        }
      ],
      "stateMutability": "nonpayable",
      "type": "function"
    },
    {
      "inputs": [
        {
          "internalType": "uint256",
          "name": "_length",
          "type": "uint256"
        },
        {
          "internalType": "uint256",
          "name": "alignExp",
          "type": "uint256"
        }
      ],
      "name": "nextAlign",
      "outputs": [
        {
          "internalType": "uint256",
          "name": "",
          "type": "uint256"
        }
      ],
      "stateMutability": "pure",
      "type": "function"
    },
    {
      "inputs": [
        {
          "internalType": "uint256",
          "name": "_length",
          "type": "uint256"
        }
      ],
      "name": "nextPow2",
      "outputs": [
        {
          "internalType": "uint256",
          "name": "",
          "type": "uint256"
        }
      ],
      "stateMutability": "pure",
      "type": "function"
    },
    {
      "inputs": [],
      "name": "numSubmissions",
      "outputs": [
        {
          "internalType": "uint256",
          "name": "",
          "type": "uint256"
        }
      ],
      "stateMutability": "view",
      "type": "function"
    },
    {
      "inputs": [],
      "name": "paused",
      "outputs": [
        {
          "internalType": "bool",
          "name": "",
          "type": "bool"
        }
      ],
      "stateMutability": "view",
      "type": "function"
    },
    {
      "inputs": [
        {
          "internalType": "uint128",
          "name": "targetPosition",
          "type": "uint128"
        }
      ],
      "name": "queryContextAtPosition",
      "outputs": [
        {
          "components": [
            {
              "internalType": "uint128",
              "name": "start",
              "type": "uint128"
            },
            {
              "internalType": "uint128",
              "name": "end",
              "type": "uint128"
            },
            {
              "internalType": "bytes32",
              "name": "digest",
              "type": "bytes32"
            }
          ],
          "internalType": "struct EpochRangeWithContextDigest",
          "name": "range",
          "type": "tuple"
        }
      ],
      "stateMutability": "nonpayable",
      "type": "function"
    },
    {
      "inputs": [],
      "name": "root",
      "outputs": [
        {
          "internalType": "bytes32",
          "name": "",
          "type": "bytes32"
        }
      ],
      "stateMutability": "view",
      "type": "function"
    },
    {
      "inputs": [],
      "name": "rootHistory",
      "outputs": [
        {
          "internalType": "contract IDigestHistory",
          "name": "",
          "type": "address"
        }
      ],
      "stateMutability": "view",
      "type": "function"
    },
    {
      "inputs": [],
      "name": "submissionIndex",
      "outputs": [
        {
          "internalType": "uint256",
          "name": "",
          "type": "uint256"
        }
      ],
      "stateMutability": "view",
      "type": "function"
    },
    {
      "inputs": [
        {
          "components": [
            {
              "internalType": "uint256",
              "name": "length",
              "type": "uint256"
            },
            {
              "internalType": "bytes",
              "name": "tags",
              "type": "bytes"
            },
            {
              "components": [
                {
                  "internalType": "bytes32",
                  "name": "root",
                  "type": "bytes32"
                },
                {
                  "internalType": "uint256",
                  "name": "height",
                  "type": "uint256"
                }
              ],
              "internalType": "struct SubmissionNode[]",
              "name": "nodes",
              "type": "tuple[]"
            }
          ],
          "internalType": "struct Submission",
          "name": "submission",
          "type": "tuple"
        }
      ],
      "name": "submit",
      "outputs": [
        {
          "internalType": "uint256",
          "name": "",
          "type": "uint256"
        },
        {
          "internalType": "bytes32",
          "name": "",
          "type": "bytes32"
        },
        {
          "internalType": "uint256",
          "name": "",
          "type": "uint256"
        },
        {
          "internalType": "uint256",
          "name": "",
          "type": "uint256"
        }
      ],
      "stateMutability": "nonpayable",
      "type": "function"
    },
    {
      "inputs": [],
      "name": "totalRewards",
      "outputs": [
        {
          "internalType": "uint256",
          "name": "",
          "type": "uint256"
        }
      ],
      "stateMutability": "view",
      "type": "function"
    },
    {
      "inputs": [],
      "name": "unstagedHeight",
      "outputs": [
        {
          "internalType": "uint256",
          "name": "",
          "type": "uint256"
        }
      ],
      "stateMutability": "view",
      "type": "function"
    },
    {
      "inputs": [
        {
          "internalType": "uint256",
          "name": "height",
          "type": "uint256"
        }
      ],
      "name": "zeros",
      "outputs": [
        {
          "internalType": "bytes32",
          "name": "",
          "type": "bytes32"
        }
      ],
      "stateMutability": "pure",
      "type": "function"
    }
  ],
  "bytecode": "0x6101006040523480156200001257600080fd5b506040516200304038038062003040833981016040819052620000359162000246565b6000805460ff1916815560018055604080518281526020810191829052516200006191600291620001d1565b50600280546001818101835560009283527f405787fa12a823e0f2b7631cc41b3ba8828b3321ca811111fa75cd3aa3bb5ace9091019290925560039190915560055560c0829052604051601490620000b99062000221565b908152602001604051809103906000f080158015620000dc573d6000803e3d6000fd5b506001600160a01b031660a052620000f58143620002a1565b60e09081526001600160a01b0384166080526040805160c081018252600081529151602083015281016200012862000198565b815260016020808301919091527fc5d2460186f7233c927e7db2dcc703c0e500b653ca82273b7bfad8045d85a4706040808401829052606093840191909152835160085590830151600955820151600a55810151600b556080810151600c5560a00151600d5550620002e9915050565b6002805460009190620001ae90600190620002bd565b81548110620001c157620001c1620002d3565b9060005260206000200154905090565b8280548282559060005260206000209081019282156200020f579160200282015b828111156200020f578251825591602001919060010190620001f2565b506200021d9291506200022f565b5090565b61067180620029cf83390190565b5b808211156200021d576000815560010162000230565b6000806000606084860312156200025c57600080fd5b83516001600160a01b03811681146200027457600080fd5b602085015160409095015190969495509392505050565b634e487b7160e01b600052601160045260246000fd5b80820180821115620002b757620002b76200028b565b92915050565b81810381811115620002b757620002b76200028b565b634e487b7160e01b600052603260045260246000fd5b60805160a05160c05160e05161267b62000354600039600081816101c70152818161062d0152818161067001528181610a4201526117ef0152600081816103f2015261069601526000818161033601526106f70152600081816103980152611c72015261267b6000f3fe608060405234801561001057600080fd5b506004361061014d5760003560e01c8063900cf0cf116100c3578063d34353c91161007c578063d34353c914610370578063e829558814610378578063ebf0c7171461038b578063ed740e9714610393578063ef3e12dc146103ba578063f0682054146103ed57600080fd5b8063900cf0cf1461030557806393e405a01461030e578063a3d35f3614610317578063b464b53e14610320578063b8a409ac14610328578063c7dd52211461033157600080fd5b806338d45e101161011557806338d45e10146102355780633d75d9c21461023f578063555430a1146102525780635c975abb1461026557806377e198241461027b5780637d5907081461028357600080fd5b80630e15561a14610152578063127f0f071461016e578063231b0268146101c257806331bae174146101e9578063364800ec1461022c575b600080fd5b61015b60075481565b6040519081526020015b60405180910390f35b610176610414565b6040516101659190600060c082019050825182526020830151602083015260408301516040830152606083015160608301526080830151608083015260a083015160a083015292915050565b61015b7f000000000000000000000000000000000000000000000000000000000000000081565b6101fc6101f736600461208c565b610483565b6040805182516001600160801b039081168252602080850151909116908201529181015190820152606001610165565b61015b60035481565b61023d61062b565b005b61015b61024d3660046120b5565b610988565b61015b6102603660046120ce565b6109d4565b60005460ff166040519015158152602001610165565b60045461015b565b6102de6102913660046120b5565b6040805180820190915260008082526020820152506000908152600e60209081526040918290208251808401909352546001600160801b038082168452600160801b909104169082015290565b6040805182516001600160801b039081168252602093840151169281019290925201610165565b61015b60055481565b61015b60065481565b61015b60015481565b610176610a0e565b61015b60045481565b6103587f000000000000000000000000000000000000000000000000000000000000000081565b6040516001600160a01b039091168152602001610165565b61023d610a95565b61015b6103863660046120b5565b610bac565b61015b6117ab565b6103587f000000000000000000000000000000000000000000000000000000000000000081565b6103cd6103c83660046120f0565b6117df565b604080519485526020850193909352918301526060820152608001610165565b61015b7f000000000000000000000000000000000000000000000000000000000000000081565b6040805160c081018252600080825260208201819052918101829052606081018290526080810182905260a0810191909152506040805160c08101825260085481526009546020820152600a5491810191909152600b546060820152600c546080820152600d5460a082015290565b60408051606081018252600080825260208201819052918101919091526104a861062b565b600154826001600160801b0316106105135760405162461bcd60e51b8152602060048201526024808201527f5175657269656420706f736974696f6e206578636565647320757070657220626044820152631bdd5b9960e21b60648201526084015b60405180910390fd5b600f546000905b818111156105e357600060026105308484612141565b61053a919061216a565b9050600f818154811061054f5761054f61217e565b600091825260209182902060408051606081018252600290930290910180546001600160801b038082168552600160801b9091048116948401859052600190910154918301919091529095508616106105b4576105ad816001612141565b92506105dd565b83600001516001600160801b0316856001600160801b0316106105d957505050919050565b8091505b5061051a565b60405162461bcd60e51b815260206004820152601b60248201527f43616e206e6f742066696e642070726f70657220636f6e746578740000000000604482015260640161050a565b7f000000000000000000000000000000000000000000000000000000000000000043101561066b5760405162461bcd60e51b815260040161050a90612194565b6005547f000000000000000000000000000000000000000000000000000000000000000060019091017f000000000000000000000000000000000000000000000000000000000000000002014381106106c15750565b6106c9610a95565b60006106d36117ab565b604051632d287e4360e01b8152600481018290529091506000906001600160a01b037f00000000000000000000000000000000000000000000000000000000000000001690632d287e43906024016020604051808303816000875af1158015610740573d6000803e3d6000fd5b505050506040513d601f19601f8201168201806040525081019061076491906121cb565b90506005548114610777576107776121e4565b6000804361078786610100612141565b10156107b757507fc5d2460186f7233c927e7db2dcc703c0e500b653ca82273b7bfad8045d85a4709050806108c5565b506001546040805186406020820181905291810186905260608101929092529060800160408051808303601f190181528282528051602091820120600680546001805487870187526001600160801b039283168089529083168689018181526000878152600e89528981209a519151918616600160801b928716830217909a558851606081018a52928352968201908152968101858152600f8054808501825599529051965196831696909216909402949094177f8d1108e10bcb7c27dddfc02ed9d693a074039d026cf4ea4240b40f7d581ac80260029096029586015592517f8d1108e10bcb7c27dddfc02ed9d693a074039d026cf4ea4240b40f7d581ac8039094019390935554905591505b6001600560008282546108d89190612141565b90915550506040805160c08101825260055480825260208083018990528284018890526001546060808501829052608080860188905260a0909501889052600884905560098b9055600a8a9055600b829055600c879055600d88905560045486518b815293840152948201529283018590529133917fbc8a3fd82465d43f1709e44ed882f7e1af0147274196ef1ec009f5d52ff4e993910160405180910390a361098061062b565b50505050505b565b60008180820361099b5750600092915050565b600181811c909117600281901c17600481901c17600881901c17601081901c17602081901c17906109cd908290612141565b9392505050565b6000828082036109e8576000915050610a08565b6109f36001826121fa565b831c9050610a02600182612141565b831b9150505b92915050565b6040805160c081018252600080825260208201819052918101829052606081018290526080810182905260a08101919091527f0000000000000000000000000000000000000000000000000000000000000000431015610a805760405162461bcd60e51b815260040161050a90612194565b610a8861062b565b610a90610414565b905090565b60025460035403610aa257565b600280546003549091600091610aba906001906121fa565b81548110610aca57610aca61217e565b906000526020600020015490506000610aeb600160035461038691906121fa565b6003549091505b83811015610ba45760408051602080820186905281830185905282518083038401815260609092019092528051910120600154610b3390600290841c61220d565b600003610b6d57809350610b4682610bac565b92508060028381548110610b5c57610b5c61217e565b600091825260209091200155610b91565b60028281548110610b8057610b8061217e565b906000526020600020015493508092505b5080610b9c81612221565b915050610af2565b505050600355565b600081600003610bdd57507fd397b3b043d87fcd6fad1291ff0bfd16401c274896d8c63a923727f077b8e0b5919050565b81600103610c0c57507ff73e6947d7d1628b9976a6e40d7b278a8a16405e96324a68df45b12a51b7cfde919050565b81600203610c3b57507fa1520264ae93cac619e22e8718fc4fa7ebdd23f493cad602434d2a58ff4868fb919050565b81600303610c6a57507fde5747106ac1194a1fa9071dbd6cf19dc2bc7964497ef0afec7e4bdbcf08c47e919050565b81600403610c9957507f09c7082879180d28c789c05fafe7030871c76cedbe82c948b165d6a1d66ac15b919050565b81600503610cc857507faa7a02bcf29fba687f84123c808b5b48834ff5395abe98e622fadc14e4180c95919050565b81600603610cf757507f7608fd46b710b589e0f2ee5a13cd9c41d432858a30d524f84c6d5db37f66273a919050565b81600703610d2657507fa5d9a2f7f3573ac9a1366bc484688b4daf934b87ea9b3bf2e703da8fd9f09708919050565b81600803610d5557507f6c1779477f4c3fca26b4607398859a43b90a286ce8062500744bd4949981757f919050565b81600903610d8457507f45c22df3d952c33d5edce122eed85e5cda3fd61939e7ad7b3e03b6927bb598ea919050565b81600a03610db357507fe68d02859bb6211cec64f52368b77d422de3b8eac34bf615942b814b643301b5919050565b81600b03610de257507f62d78399b954d51cb9728601738ad13ddc43b2300064660716bb661d2f4d686f919050565b81600c03610e1157507f6e250d9abdbbb3993fce08de0395cdb56f0483e67d8762a798de011f6a50866a919050565b81600d03610e4057507f1d1a3a74062fd94078617e33eb901eaf16a830f67c387d8eed342db2ac5e2cc5919050565b81600e03610e6f57507f19b3b3886526917eae8650223d0be20a0301be960eb339696e673ad8a804440f919050565b81600f03610e9e57507fee9e05df53f10e62a897e5140a3f58732dd849e69cd1d62b21ed80ead711a014919050565b81601003610ecd57507f2cc7aa6e611a113a34505dc1c96b220f14909b70e2c2c7b1a74655da21013c5e919050565b81601103610efc57507f949b52dfece7ca3bad3cb27f7750ecaee64cedb6243a275c35984e92956c530a919050565b81601203610f2b57507fb2680d060b763b932c150434c3812ba9fbc50937e0ebcf5758de884be81bab65919050565b81601303610f5a57507f523aebf4a085edbc9c8cdc99c83f46262e5f029b395ff7bf561a48a3f387e6b8919050565b81601403610f8957507fc9ab73827ab33c0cedb7ecf0ed2e6e32583c0fe887133a7f381ea4ba84d95b76919050565b81601503610fb857507f23eb397dec7e564ebe97f160a5e1081a77d9861f316807079b6be4731beb331e919050565b81601603610fe757507fdfa44a274c60f090df034aaf75539fd40e94cfd6362dd53d26ed20c8ad529563919050565b8160170361101657507f15b13ee358e1044a53381243c094e54bf7aceb9b5325a0313d6b85fd44e8b3a5919050565b8160180361104557507f1a7a93871e2daa0f1860aa91d4ece4ccd012dac5fe581176a21b155cfeca6d40919050565b8160190361107457507fb12665fd0b884a7c7d1e0294d369170d7e672d9e125eb87784556305f98292df919050565b81601a036110a357507f2a5543b0b2f8cf550524390291774f4d6c8c0a25ff5393b09c44d75c92a5bd8e919050565b81601b036110d257507ff9df1841a6e7164b67a1242f1c74975137085ffd9721831f6c469d3a4d5ba42e919050565b81601c0361110157507fba24736b1b48246c1f7803be967be43ca0dddc9c2c0687a2957952249bc89371919050565b81601d0361113057507ff3f706b73790c73ca0a8f0460ac3a2a102e280415586b520e70cd5e8264388b4919050565b81601e0361115f57507fc1f5a9a9f357e1c37814688cf7290c87a264ed3d6174a12b978da1c586f53825919050565b81601f0361118e57507f766f7702e19ce23d426cdad03e4292a5a42c4669420101fed74400ec7cda3ac6919050565b816020036111bd57507f070fec213e105b3e4d9b0434ac2fc7ca721d35093dc741fb9419797003e2394a919050565b816021036111ec57507f9a7aade05b49e43f5fd3782571cc8c90eadacd5d660b53842b4e5b63d675ae0c919050565b8160220361121b57507fb27b35a8236d0f9b6692820429c025ed58ed378dc98d316b762f0c865c68be6f919050565b8160230361124a57507fdc567ad38d9b90cc9bea4e0f82ec05eca10b3aa94eddc7b63c4fd20c001bb53b919050565b8160240361127957507fb208dfc457c8b30661ae49544c8e57399818095aab8dd7a426fb8dd56bb8c559919050565b816025036112a857507fc4a72e1ff84f7a22631f3f95c61c392f98f52050360215a9d7e75d79b0bcd2ca919050565b816026036112d757507fbb093ec8c0d7defb1de668b5b5dd4f2619e5cd92d29cc144862364a83ab993a8919050565b8160270361130657507fe341796f2fe3975012c1e6badfa2e9c4523e43f911dc845082c3f4d7b4ff871d919050565b8160280361133557507f42d356a11a0b39243eca3c3263299cb6f8c3e9728af6d9d8b0ddb6d354f1890d919050565b8160290361136457507f0ce506e834e3a50a33f80074bc7fa16cf3c0712b36a41b69699177ea25de6c30919050565b81602a0361139357507fd8fa5bf130aeb7756b1ed09090cc80ed78dae0617978540f0fabd06dfb978938919050565b81602b036113c257507feed69a20fe36eb604f2153efa3b01c0e143cdf02229a1b8f741c9c2719059eb0919050565b81602c036113f157507f303c9c566ebf5bfe252796e5c131a99801226152a514688b5ca6883e99031d88919050565b81602d0361142057507fc7c3765ba96cfbccf3ae718393fa89791070cc8cd85f280b6ac46aea10d96042919050565b81602e0361144f57507f1ca65b0a2b8034ee6bfb1fa4526832304e393af835c2c42b4dace58048746800919050565b81602f0361147e57507f957add5e02350fd47de3a8e1da38fd774ceb31214d5897ed6315740a83cd634a919050565b816030036114ad57507f787892cb439d5d358870774e163557cf02ec3cb87be6fde11abf1acee14eeaa4919050565b816031036114dc57507f047c0962d4f5c8f60692c587de07739528c4d2059240d61dd34d2a547a438ee6919050565b8160320361150b57507fc18727efc9e4df63020dcd90edc17dfd2ad14f02328c912b13898e0b53735556919050565b8160330361153a57507fe38b9218987e451effe1648c3c9851ad03b64b052a5a3f5ca30f4d7b1ecf7120919050565b8160340361156957507f0e48ecb1a5418e6218289acc8cf723e67ac6eae3ecb80f644336ab4365a2f2b2919050565b8160350361159857507fd60e66f5b8cd08d71a1a4d7798952a7afa5a6e93a886c587a46a5500ebef4a60919050565b816036036115c757507f5162aa9c31d9105f689cf6e71e19548bc9f0218b7d0f99ff7fa8bc2f19c68462919050565b816037036115f657507f6fa8519b4b0e8fb97a9b618e97627d97b9b9d29d04521fd96472e9c502700568919050565b8160380361162557507f41f5dcf0cdee270a2ad9a5f8130aaaab94b237463e09757c28b0321f09e24eb0919050565b8160390361165457507f87a119239fa90732197108adfd029938b4743874d959d3da79b3a30f4832899e919050565b81603a0361168357507f8e96dbaa5c72e84a5297b040ccc1a60750a3201166e3b7740d352837233608a1919050565b81603b036116b257507f01605058d167ce967af8c475d2f6c341c3e0b437babf899c9da73a520aa4ecb5919050565b81603c036116e157507f04529eb80532c5118949d700d8dfd2aa86850b1c6479b26276b9486784a145ff919050565b81603d0361171057507fd191814ad13f27361ae20a46cbac8f6e76c10ebe9af0806d6720492ee2f296f0919050565b81603e0361173f57507fa28df63f78821060570da371c0be1312188346b92a7965cc4b980b26c134a4d7919050565b81603f0361176e57507fb48a92d40b61dc995ceecee4cded6415050dcece448b1e0b5e5b6a0e6981f3ef919050565b60405162461bcd60e51b8152602060048201526012602482015271125b99195e081bdd5d081bd988189bdd5b9960721b604482015260640161050a565b60028054600091906117bf906001906121fa565b815481106117cf576117cf61217e565b9060005260206000200154905090565b6000806000806117ed61192f565b7f000000000000000000000000000000000000000000000000000000000000000043101561182d5760405162461bcd60e51b815260040161050a90612194565b61183e61183986612371565b611975565b61187f5760405162461bcd60e51b815260206004820152601260248201527124b73b30b634b21039bab136b4b9b9b4b7b760711b604482015260640161050a565b61188761062b565b600061189286611b8c565b905060006118a76118a288612371565b611cde565b905060006118bc6118b789612371565b611d3c565b6004805491925060019060006118d28385612141565b9250508190555081336001600160a01b03167f167ce04d2aa1981994d3a31695da0d785373335b1078cec239a1a3a2c76755558387878e60405161191994939291906124cc565b60405180910390a3989097509195509350915050565b60005460ff16156109865760405162461bcd60e51b815260206004820152601060248201526f14185d5cd8589b194e881c185d5cd95960821b604482015260640161050a565b600081604001515160000361198c57506000919050565b60408201518051600491906119a3906001906121fa565b815181106119b3576119b361217e565b60200260200101516020015183604001516000815181106119d6576119d661217e565b6020026020010151602001516119ec91906121fa565b106119f957506000919050565b60408260400151600081518110611a1257611a1261217e565b60200260200101516020015110611a2b57506000919050565b60005b6001836040015151611a4091906121fa565b811015611ab75782604001518181518110611a5d57611a5d61217e565b6020026020010151602001518360400151826001611a7b9190612141565b81518110611a8b57611a8b61217e565b60200260200101516020015110611aa55750600092915050565b80611aaf81612221565b915050611a2e565b506000611ac383611cde565b9050611ad16101008261258d565b83511115611ae25750600092915050565b60006010821015611aff57611af86001836121fa565b9050611b65565b836040015151600103611b1a57611af8600483901c836121fa565b60048460400151600081518110611b3357611b3361217e565b602002602001015160200151611b4991906121fa565b611b54906001612141565b611b62906001901b836121fa565b90505b611b716101008261258d565b845111611b82575060009392505050565b5060019392505050565b600154600090815b611ba160408501856125ac565b9050811015611c33576000611bb960408601866125ac565b83818110611bc957611bc961217e565b9050604002016000013590506000858060400190611be791906125ac565b84818110611bf757611bf761217e565b9050604002016020013590506000611c0f8383611d70565b905083600003611c1d578095505b5050508080611c2b90612221565b915050611b94565b506000611c4082846121fa565b9050600083600154611c5291906121fa565b604051632207e80f60e21b815260048101829052602481018490529091507f00000000000000000000000000000000000000000000000000000000000000006001600160a01b03169063881fa03c90604401600060405180830381600087803b158015611cbe57600080fd5b505af1158015611cd2573d6000803e3d6000fd5b50505050505050919050565b600080805b836040015151811015611d355783604001518181518110611d0657611d0661217e565b6020026020010151602001516001901b82611d219190612141565b915080611d2d81612221565b915050611ce3565b5092915050565b60008160400151604051602001611d5391906125f6565b604051602081830303815290604052805190602001209050919050565b600080611d7f600154846109d4565b90506000611d906001851b83612141565b600254909150611da2906001906121fa565b6001901b811115611deb57611db5610a95565b611dbd611ee0565b600254611dcc906001906121fa565b6001901b811115611de457611ddf611ee0565b611dbd565b6002546003555b600254611df785611f6e565b60008087875b84811015611ec257611e12600288831c61220d565b600003611e58578160028281548110611e2d57611e2d61217e565b600091825260209091200155611e44816001612141565b600355611e526001866121fa565b50611ec2565b60028181548110611e6b57611e6b61217e565b906000526020600020015493508192508383604051602001611e97929190918252602082015260400190565b6040516020818303038152906040528051906020012091508080611eba90612221565b915050611dfd565b50611ed06001891b87612141565b6001555093979650505050505050565b6002805490600090611ef36001846121fa565b81548110611f0357611f0361217e565b60009182526020822001549150611f1e6103866001856121fa565b905060028282604051602001611f3e929190918252602082015260400190565b60408051601f19818403018152919052805160209182012082546001810184556000938452919092200155505050565b806003541115611f7b5750565b600280546003549091600091611f93906001906121fa565b81548110611fa357611fa361217e565b906000526020600020015490506000611fc4600160035461038691906121fa565b6003549091505b83811015610980576040805160208082018690528183018590528251808303840181526060909201909252805191012060015461200c90600290841c61220d565b6000036120555780935061201f82610bac565b925085821061205057806002838154811061203c5761203c61217e565b600091825260209091200155505050505050565b612079565b600282815481106120685761206861217e565b906000526020600020015493508092505b508061208481612221565b915050611fcb565b60006020828403121561209e57600080fd5b81356001600160801b03811681146109cd57600080fd5b6000602082840312156120c757600080fd5b5035919050565b600080604083850312156120e157600080fd5b50508035926020909101359150565b60006020828403121561210257600080fd5b813567ffffffffffffffff81111561211957600080fd5b8201606081850312156109cd57600080fd5b634e487b7160e01b600052601160045260246000fd5b80820180821115610a0857610a0861212b565b634e487b7160e01b600052601260045260246000fd5b60008261217957612179612154565b500490565b634e487b7160e01b600052603260045260246000fd5b6020808252601a908201527f436f6e747261637420686173206e6f74206c61756e636865642e000000000000604082015260600190565b6000602082840312156121dd57600080fd5b5051919050565b634e487b7160e01b600052600160045260246000fd5b81810381811115610a0857610a0861212b565b60008261221c5761221c612154565b500690565b6000600182016122335761223361212b565b5060010190565b634e487b7160e01b600052604160045260246000fd5b6040805190810167ffffffffffffffff811182821017156122735761227361223a565b60405290565b6040516060810167ffffffffffffffff811182821017156122735761227361223a565b604051601f8201601f1916810167ffffffffffffffff811182821017156122c5576122c561223a565b604052919050565b600082601f8301126122de57600080fd5b8135602067ffffffffffffffff8211156122fa576122fa61223a565b612308818360051b0161229c565b82815260069290921b8401810191818101908684111561232757600080fd5b8286015b8481101561236657604081890312156123445760008081fd5b61234c612250565b81358152848201358582015283529183019160400161232b565b509695505050505050565b60006060823603121561238357600080fd5b61238b612279565b8235815260208084013567ffffffffffffffff808211156123ab57600080fd5b9085019036601f8301126123be57600080fd5b8135818111156123d0576123d061223a565b6123e2601f8201601f1916850161229c565b81815236858386010111156123f657600080fd5b8185850186830137600085838301015280858701525050604086013592508083111561242157600080fd5b505061242f368286016122cd565b60408301525092915050565b6000808335601e1984360301811261245257600080fd5b830160208101925035905067ffffffffffffffff81111561247257600080fd5b8060061b360382131561248457600080fd5b9250929050565b8183526000602080850194508260005b858110156124c1578135875282820135838801526040968701969091019060010161249b565b509495945050505050565b848152836020820152826040820152608060608201528135608082015260006020830135601e1984360301811261250257600080fd5b830160208101903567ffffffffffffffff81111561251f57600080fd5b80360382131561252e57600080fd5b606060a08501528060e08501526101008183828701376000858301820152601f8201601f191685019250612565604087018761243b565b925060808685030160c087015261257f828501848361248b565b9a9950505050505050505050565b60008160001904831182151516156125a7576125a761212b565b500290565b6000808335601e198436030181126125c357600080fd5b83018035915067ffffffffffffffff8211156125de57600080fd5b6020019150600681901b360382131561248457600080fd5b602080825282518282018190526000919060409081850190868401855b8281101561263857815180518552860151868501529284019290850190600101612613565b509197965050505050505056fea2646970667358221220306d499ed8c8aef0a9537fa7e7e29c94fa278f11c943f2ccec812cae121d821d64736f6c63430008100033608060405234801561001057600080fd5b5060405161067138038061067183398101604081905261002f9161014a565b6100383361009a565b806001600160401b0381111561005057610050610163565b604051908082528060200260200182016040528015610079578160200160208202803683370190505b50805161008e916001916020909101906100ea565b50506000600255610179565b600080546001600160a01b038381166001600160a01b0319831681178455604051919092169283917f8be0079c531659141344cd1fd0a4f28419497f9722a3daafe3b4186f6b6457e09190a35050565b828054828255906000526020600020908101928215610125579160200282015b8281111561012557825182559160200191906001019061010a565b50610131929150610135565b5090565b5b808211156101315760008155600101610136565b60006020828403121561015c57600080fd5b5051919050565b634e487b7160e01b600052604160045260246000fd5b6104e9806101886000396000f3fe608060405234801561001057600080fd5b506004361061007d5760003560e01c80638da5cb5b1161005b5780638da5cb5b146100d557806396e494e8146100f0578063e0886f9014610103578063f2fde38b1461011657600080fd5b80631d1a696d146100825780632d287e43146100aa578063715018a6146100cb575b600080fd5b6100956100903660046103e4565b610129565b60405190151581526020015b60405180910390f35b6100bd6100b83660046103e4565b610194565b6040519081526020016100a1565b6100d36101ee565b005b6000546040516001600160a01b0390911681526020016100a1565b6100956100fe3660046103e4565b610202565b6100bd6101113660046103e4565b610237565b6100d36101243660046103fd565b610297565b60008061013d600254600180549050610310565b905060005b8181101561018a57836001828154811061015e5761015e610426565b906000526020600020015403610178575060019392505050565b8061018281610452565b915050610142565b5060009392505050565b6002546001546000919082906101aa908361046b565b905083600182815481106101c0576101c0610426565b90600052602060002001819055506001600260008282546101e1919061048d565b9091555091949350505050565b6101f661032a565b6102006000610384565b565b6001546002546000919083108015610230575080610222600254836103d4565b61022c91906104a0565b8310155b9392505050565b600061024282610202565b6102675760405163b52d71f360e01b8152600481018390526024015b60405180910390fd5b60018054610275908461046b565b8154811061028557610285610426565b90600052602060002001549050919050565b61029f61032a565b6001600160a01b0381166103045760405162461bcd60e51b815260206004820152602660248201527f4f776e61626c653a206e6577206f776e657220697320746865207a65726f206160448201526564647265737360d01b606482015260840161025e565b61030d81610384565b50565b600081831061031f5781610321565b825b90505b92915050565b6000546001600160a01b031633146102005760405162461bcd60e51b815260206004820181905260248201527f4f776e61626c653a2063616c6c6572206973206e6f7420746865206f776e6572604482015260640161025e565b600080546001600160a01b038381166001600160a01b0319831681178455604051919092169283917f8be0079c531659141344cd1fd0a4f28419497f9722a3daafe3b4186f6b6457e09190a35050565b60008183101561031f5781610321565b6000602082840312156103f657600080fd5b5035919050565b60006020828403121561040f57600080fd5b81356001600160a01b038116811461023057600080fd5b634e487b7160e01b600052603260045260246000fd5b634e487b7160e01b600052601160045260246000fd5b6000600182016104645761046461043c565b5060010190565b60008261048857634e487b7160e01b600052601260045260246000fd5b500690565b808201808211156103245761032461043c565b818103818111156103245761032461043c56fea26469706673582212208963ab889e466aab330d9eb79eab7fc2df64a680d19252b321438f6a55defd4b64736f6c63430008100033",
  "linkReferences": {},
  "deployedLinkReferences": {}
}