{
  "_format": "hh-sol-artifact-1",
  "contractName": "Flow",
  "sourceName": "contracts/dataFlow/Flow.sol",
  "abi": [
    {
      "inputs": [
        {
          "internalType": "address",
          "name": "book_",
          "type": "address"
        },
        {
          "internalType": "uint256",
          "name": "blocksPerEpoch_",
          "type": "uint256"
        },
        {
          "internalType": "uint256",
          "name": "deployDelay_",
          "type": "uint256"
        }
      ],
      "stateMutability": "nonpayable",
      "type": "constructor"
    },
    {
      "inputs": [],
      "name": "InvalidSubmission",
      "type": "error"
    },
    {
      "anonymous": false,
      "inputs": [
        {
          "indexed": true,
          "internalType": "address",
          "name": "sender",
          "type": "address"
        },
        {
          "indexed": true,
          "internalType": "uint256",
          "name": "index",
          "type": "uint256"
        },
        {
          "indexed": false,
          "internalType": "bytes32",
          "name": "startMerkleRoot",
          "type": "bytes32"
        },
        {
          "indexed": false,
          "internalType": "uint256",
          "name": "submissionIndex",
          "type": "uint256"
        },
        {
          "indexed": false,
          "internalType": "uint256",
          "name": "flowLength",
          "type": "uint256"
        },
        {
          "indexed": false,
          "internalType": "bytes32",
          "name": "context",
          "type": "bytes32"
        }
      ],
      "name": "NewEpoch",
      "type": "event"
    },
    {
      "anonymous": false,
      "inputs": [
        {
          "indexed": false,
          "internalType": "address",
          "name": "account",
          "type": "address"
        }
      ],
      "name": "Paused",
      "type": "event"
    },
    {
      "anonymous": false,
      "inputs": [
        {
          "indexed": true,
          "internalType": "address",
          "name": "sender",
          "type": "address"
        },
        {
          "indexed": true,
          "internalType": "bytes32",
          "name": "identity",
          "type": "bytes32"
        },
        {
          "indexed": false,
          "internalType": "uint256",
          "name": "submissionIndex",
          "type": "uint256"
        },
        {
          "indexed": false,
          "internalType": "uint256",
          "name": "startPos",
          "type": "uint256"
        },
        {
          "indexed": false,
          "internalType": "uint256",
          "name": "length",
          "type": "uint256"
        },
        {
          "components": [
            {
              "internalType": "uint256",
              "name": "length",
              "type": "uint256"
            },
            {
              "internalType": "bytes",
              "name": "tags",
              "type": "bytes"
            },
            {
              "components": [
                {
                  "internalType": "bytes32",
                  "name": "root",
                  "type": "bytes32"
                },
                {
                  "internalType": "uint256",
                  "name": "height",
                  "type": "uint256"
                }
              ],
              "internalType": "struct SubmissionNode[]",
              "name": "nodes",
              "type": "tuple[]"
            }
          ],
          "indexed": false,
          "internalType": "struct Submission",
          "name": "submission",
          "type": "tuple"
        }
      ],
      "name": "Submit",
      "type": "event"
    },
    {
      "anonymous": false,
      "inputs": [
        {
          "indexed": false,
          "internalType": "address",
          "name": "account",
          "type": "address"
        }
      ],
      "name": "Unpaused",
      "type": "event"
    },
    {
      "inputs": [
        {
          "components": [
            {
              "internalType": "uint256",
              "name": "length",
              "type": "uint256"
            },
            {
              "internalType": "bytes",
              "name": "tags",
              "type": "bytes"
            },
            {
              "components": [
                {
                  "internalType": "bytes32",
                  "name": "root",
                  "type": "bytes32"
                },
                {
                  "internalType": "uint256",
                  "name": "height",
                  "type": "uint256"
                }
              ],
              "internalType": "struct SubmissionNode[]",
              "name": "nodes",
              "type": "tuple[]"
            }
          ],
          "internalType": "struct Submission[]",
          "name": "submissions",
          "type": "tuple[]"
        }
      ],
      "name": "batchSubmit",
      "outputs": [
        {
          "internalType": "uint256[]",
          "name": "indexes",
          "type": "uint256[]"
        },
        {
          "internalType": "bytes32[]",
          "name": "digests",
          "type": "bytes32[]"
        },
        {
          "internalType": "uint256[]",
          "name": "startIndexes",
          "type": "uint256[]"
        },
        {
          "internalType": "uint256[]",
          "name": "lengths",
          "type": "uint256[]"
        }
      ],
      "stateMutability": "payable",
      "type": "function"
    },
    {
      "inputs": [],
      "name": "blocksPerEpoch",
      "outputs": [
        {
          "internalType": "uint256",
          "name": "",
          "type": "uint256"
        }
      ],
      "stateMutability": "view",
      "type": "function"
    },
    {
      "inputs": [],
      "name": "book",
      "outputs": [
        {
          "internalType": "contract AddressBook",
          "name": "",
          "type": "address"
        }
      ],
      "stateMutability": "view",
      "type": "function"
    },
    {
      "inputs": [],
      "name": "commitRoot",
      "outputs": [],
      "stateMutability": "nonpayable",
      "type": "function"
    },
    {
      "inputs": [],
      "name": "currentLength",
      "outputs": [
        {
          "internalType": "uint256",
          "name": "",
          "type": "uint256"
        }
      ],
      "stateMutability": "view",
      "type": "function"
    },
    {
      "inputs": [],
      "name": "epoch",
      "outputs": [
        {
          "internalType": "uint256",
          "name": "",
          "type": "uint256"
        }
      ],
      "stateMutability": "view",
      "type": "function"
    },
    {
      "inputs": [],
      "name": "epochStartPosition",
      "outputs": [
        {
          "internalType": "uint256",
          "name": "",
          "type": "uint256"
        }
      ],
      "stateMutability": "view",
      "type": "function"
    },
    {
      "inputs": [],
      "name": "firstBlock",
      "outputs": [
        {
          "internalType": "uint256",
          "name": "",
          "type": "uint256"
        }
      ],
      "stateMutability": "view",
      "type": "function"
    },
    {
      "inputs": [],
      "name": "getContext",
      "outputs": [
        {
          "components": [
            {
              "internalType": "uint256",
              "name": "epoch",
              "type": "uint256"
            },
            {
              "internalType": "uint256",
              "name": "mineStart",
              "type": "uint256"
            },
            {
              "internalType": "bytes32",
              "name": "flowRoot",
              "type": "bytes32"
            },
            {
              "internalType": "uint256",
              "name": "flowLength",
              "type": "uint256"
            },
            {
              "internalType": "bytes32",
              "name": "blockDigest",
              "type": "bytes32"
            },
            {
              "internalType": "bytes32",
              "name": "digest",
              "type": "bytes32"
            }
          ],
          "internalType": "struct MineContext",
          "name": "",
          "type": "tuple"
        }
      ],
      "stateMutability": "view",
      "type": "function"
    },
    {
      "inputs": [
        {
          "internalType": "bytes32",
          "name": "digest",
          "type": "bytes32"
        }
      ],
      "name": "getEpochRange",
      "outputs": [
        {
          "components": [
            {
              "internalType": "uint128",
              "name": "start",
              "type": "uint128"
            },
            {
              "internalType": "uint128",
              "name": "end",
              "type": "uint128"
            }
          ],
          "internalType": "struct EpochRange",
          "name": "",
          "type": "tuple"
        }
      ],
      "stateMutability": "view",
      "type": "function"
    },
    {
      "inputs": [],
      "name": "makeContext",
      "outputs": [],
      "stateMutability": "nonpayable",
      "type": "function"
    },
    {
      "inputs": [
        {
          "internalType": "uint256",
          "name": "cnt",
          "type": "uint256"
        }
      ],
      "name": "makeContextFixedTimes",
      "outputs": [],
      "stateMutability": "nonpayable",
      "type": "function"
    },
    {
      "inputs": [],
      "name": "makeContextWithResult",
      "outputs": [
        {
          "components": [
            {
              "internalType": "uint256",
              "name": "epoch",
              "type": "uint256"
            },
            {
              "internalType": "uint256",
              "name": "mineStart",
              "type": "uint256"
            },
            {
              "internalType": "bytes32",
              "name": "flowRoot",
              "type": "bytes32"
            },
            {
              "internalType": "uint256",
              "name": "flowLength",
              "type": "uint256"
            },
            {
              "internalType": "bytes32",
              "name": "blockDigest",
              "type": "bytes32"
            },
            {
              "internalType": "bytes32",
              "name": "digest",
              "type": "bytes32"
            }
          ],
          "internalType": "struct MineContext",
          "name": "",
          "type": "tuple"
        }
      ],
      "stateMutability": "nonpayable",
      "type": "function"
    },
    {
      "inputs": [
        {
          "internalType": "uint256",
          "name": "_length",
          "type": "uint256"
        },
        {
          "internalType": "uint256",
          "name": "alignExp",
          "type": "uint256"
        }
      ],
      "name": "nextAlign",
      "outputs": [
        {
          "internalType": "uint256",
          "name": "",
          "type": "uint256"
        }
      ],
      "stateMutability": "pure",
      "type": "function"
    },
    {
      "inputs": [
        {
          "internalType": "uint256",
          "name": "_length",
          "type": "uint256"
        }
      ],
      "name": "nextPow2",
      "outputs": [
        {
          "internalType": "uint256",
          "name": "",
          "type": "uint256"
        }
      ],
      "stateMutability": "pure",
      "type": "function"
    },
    {
      "inputs": [],
      "name": "numSubmissions",
      "outputs": [
        {
          "internalType": "uint256",
          "name": "",
          "type": "uint256"
        }
      ],
      "stateMutability": "view",
      "type": "function"
    },
    {
      "inputs": [],
      "name": "paused",
      "outputs": [
        {
          "internalType": "bool",
          "name": "",
          "type": "bool"
        }
      ],
      "stateMutability": "view",
      "type": "function"
    },
    {
      "inputs": [
        {
          "internalType": "uint128",
          "name": "targetPosition",
          "type": "uint128"
        }
      ],
      "name": "queryContextAtPosition",
      "outputs": [
        {
          "components": [
            {
              "internalType": "uint128",
              "name": "start",
              "type": "uint128"
            },
            {
              "internalType": "uint128",
              "name": "end",
              "type": "uint128"
            },
            {
              "internalType": "bytes32",
              "name": "digest",
              "type": "bytes32"
            }
          ],
          "internalType": "struct EpochRangeWithContextDigest",
          "name": "range",
          "type": "tuple"
        }
      ],
      "stateMutability": "nonpayable",
      "type": "function"
    },
    {
      "inputs": [],
      "name": "root",
      "outputs": [
        {
          "internalType": "bytes32",
          "name": "",
          "type": "bytes32"
        }
      ],
      "stateMutability": "view",
      "type": "function"
    },
    {
      "inputs": [],
      "name": "rootHistory",
      "outputs": [
        {
          "internalType": "contract IDigestHistory",
          "name": "",
          "type": "address"
        }
      ],
      "stateMutability": "view",
      "type": "function"
    },
    {
      "inputs": [],
      "name": "submissionIndex",
      "outputs": [
        {
          "internalType": "uint256",
          "name": "",
          "type": "uint256"
        }
      ],
      "stateMutability": "view",
      "type": "function"
    },
    {
      "inputs": [
        {
          "components": [
            {
              "internalType": "uint256",
              "name": "length",
              "type": "uint256"
            },
            {
              "internalType": "bytes",
              "name": "tags",
              "type": "bytes"
            },
            {
              "components": [
                {
                  "internalType": "bytes32",
                  "name": "root",
                  "type": "bytes32"
                },
                {
                  "internalType": "uint256",
                  "name": "height",
                  "type": "uint256"
                }
              ],
              "internalType": "struct SubmissionNode[]",
              "name": "nodes",
              "type": "tuple[]"
            }
          ],
          "internalType": "struct Submission",
          "name": "submission",
          "type": "tuple"
        }
      ],
      "name": "submit",
      "outputs": [
        {
          "internalType": "uint256",
          "name": "",
          "type": "uint256"
        },
        {
          "internalType": "bytes32",
          "name": "",
          "type": "bytes32"
        },
        {
          "internalType": "uint256",
          "name": "",
          "type": "uint256"
        },
        {
          "internalType": "uint256",
          "name": "",
          "type": "uint256"
        }
      ],
      "stateMutability": "payable",
      "type": "function"
    },
    {
      "inputs": [],
      "name": "unstagedHeight",
      "outputs": [
        {
          "internalType": "uint256",
          "name": "",
          "type": "uint256"
        }
      ],
      "stateMutability": "view",
      "type": "function"
    },
    {
      "inputs": [
        {
          "internalType": "uint256",
          "name": "height",
          "type": "uint256"
        }
      ],
      "name": "zeros",
      "outputs": [
        {
          "internalType": "bytes32",
          "name": "",
          "type": "bytes32"
        }
      ],
      "stateMutability": "pure",
      "type": "function"
    }
  ],
  "bytecode": "0x6101006040523480156200001257600080fd5b506040516200353b3803806200353b833981016040819052620000359162000246565b6000805460ff1916815560018055604080518281526020810191829052516200006191600291620001d1565b50600280546001818101835560009283527f405787fa12a823e0f2b7631cc41b3ba8828b3321ca811111fa75cd3aa3bb5ace9091019290925560039190915560055560c0829052604051601490620000b99062000221565b908152602001604051809103906000f080158015620000dc573d6000803e3d6000fd5b506001600160a01b031660a052620000f58143620002a1565b60e09081526001600160a01b0384166080526040805160c081018252600081529151602083015281016200012862000198565b815260016020808301919091527fc5d2460186f7233c927e7db2dcc703c0e500b653ca82273b7bfad8045d85a4706040808401829052606093840191909152835160075590830151600855820151600955810151600a556080810151600b5560a00151600c5550620002e9915050565b6002805460009190620001ae90600190620002bd565b81548110620001c157620001c1620002d3565b9060005260206000200154905090565b8280548282559060005260206000209081019282156200020f579160200282015b828111156200020f578251825591602001919060010190620001f2565b506200021d9291506200022f565b5090565b6106718062002eca83390190565b5b808211156200021d576000815560010162000230565b6000806000606084860312156200025c57600080fd5b83516001600160a01b03811681146200027457600080fd5b602085015160409095015190969495509392505050565b634e487b7160e01b600052601160045260246000fd5b80820180821115620002b757620002b76200028b565b92915050565b81810381811115620002b757620002b76200028b565b634e487b7160e01b600052603260045260246000fd5b60805160a05160c05160e051612b686200036260003960008181610236015281816105ce015281816107e8015281816108cb01528181610b28015281816118d50152611a2b01526000818161053b0152611a0301526000818161048a0152611a92015260008181610162015261208e0152612b686000f3fe60806040526004361061014b5760003560e01c8063900cf0cf116100b6578063c7dd52211161006f578063c7dd522114610478578063d34353c9146104ac578063e8295588146104c1578063ebf0c717146104e1578063ef3e12dc146104f6578063f06820541461052957600080fd5b8063900cf0cf146103e857806393e405a0146103fe5780639e62a38e14610414578063a3d35f3614610437578063b464b53e1461044d578063b8a409ac1461046257600080fd5b806338d45e101161010857806338d45e10146102cc5780633d75d9c2146102e1578063555430a1146103015780635c975abb1461032157806377e19824146103445780637d5907081461035957600080fd5b806305a8da7214610150578063127f0f07146101a157806318a641ef14610202578063231b02681461022457806331bae17414610266578063364800ec146102b6575b600080fd5b34801561015c57600080fd5b506101847f000000000000000000000000000000000000000000000000000000000000000081565b6040516001600160a01b0390911681526020015b60405180910390f35b3480156101ad57600080fd5b506101b661055d565b6040516101989190600060c082019050825182526020830151602083015260408301516040830152606083015160608301526080830151608083015260a083015160a083015292915050565b34801561020e57600080fd5b5061022261021d3660046124d7565b6105cc565b005b34801561023057600080fd5b506102587f000000000000000000000000000000000000000000000000000000000000000081565b604051908152602001610198565b34801561027257600080fd5b506102866102813660046124f0565b610643565b6040805182516001600160801b039081168252602080850151909116908201529181015190820152606001610198565b3480156102c257600080fd5b5061025860035481565b3480156102d857600080fd5b506102226107e6565b3480156102ed57600080fd5b506102586102fc3660046124d7565b610835565b34801561030d57600080fd5b5061025861031c366004612519565b610881565b34801561032d57600080fd5b5060005460ff166040519015158152602001610198565b34801561035057600080fd5b50600454610258565b34801561036557600080fd5b506103c16103743660046124d7565b6040805180820190915260008082526020820152506000908152600d60209081526040918290208251808401909352546001600160801b038082168452600160801b909104169082015290565b6040805182516001600160801b039081168252602093840151169281019290925201610198565b3480156103f457600080fd5b5061025860055481565b34801561040a57600080fd5b5061025860065481565b61042761042236600461274e565b6108bb565b604051610198949392919061283a565b34801561044357600080fd5b5061025860015481565b34801561045957600080fd5b506101b6610af4565b34801561046e57600080fd5b5061025860045481565b34801561048457600080fd5b506101847f000000000000000000000000000000000000000000000000000000000000000081565b3480156104b857600080fd5b50610222610b7b565b3480156104cd57600080fd5b506102586104dc3660046124d7565b610c92565b3480156104ed57600080fd5b50610258611891565b6105096105043660046128b9565b6118c5565b604080519485526020850193909352918301526060820152608001610198565b34801561053557600080fd5b506102587f000000000000000000000000000000000000000000000000000000000000000081565b6040805160c081018252600080825260208201819052918101829052606081018290526080810182905260a0810191909152506040805160c0810182526007548152600854602082015260095491810191909152600a546060820152600b546080820152600c5460a082015290565b7f00000000000000000000000000000000000000000000000000000000000000004310156106155760405162461bcd60e51b815260040161060c906128f6565b60405180910390fd5b60005b81811161063f576106276119fe565b61062f575050565b61063881612943565b9050610618565b5050565b60408051606081018252600080825260208201819052918101919091526106686107e6565b600154826001600160801b0316106106ce5760405162461bcd60e51b8152602060048201526024808201527f5175657269656420706f736974696f6e206578636565647320757070657220626044820152631bdd5b9960e21b606482015260840161060c565b600e546000905b8181111561079e57600060026106eb848461295c565b6106f59190612985565b9050600e818154811061070a5761070a612999565b600091825260209182902060408051606081018252600290930290910180546001600160801b038082168552600160801b90910481169484018590526001909101549183019190915290955086161061076f5761076881600161295c565b9250610798565b83600001516001600160801b0316856001600160801b03161061079457505050919050565b8091505b506106d5565b60405162461bcd60e51b815260206004820152601b60248201527f43616e206e6f742066696e642070726f70657220636f6e746578740000000000604482015260640161060c565b7f00000000000000000000000000000000000000000000000000000000000000004310156108265760405162461bcd60e51b815260040161060c906128f6565b61082e6119fe565b610826575b565b6000818082036108485750600092915050565b600181811c909117600281901c17600481901c17600881901c17601081901c17602081901c179061087a90829061295c565b9392505050565b6000828082036108955760009150506108b5565b6108a06001826129af565b831c90506108af60018261295c565b831b9150505b92915050565b6060806060806108c9611d1f565b7f00000000000000000000000000000000000000000000000000000000000000004310156109095760405162461bcd60e51b815260040161060c906128f6565b84518067ffffffffffffffff8111156109245761092461253b565b60405190808252806020026020018201604052801561094d578160200160208202803683370190505b5094508067ffffffffffffffff8111156109695761096961253b565b604051908082528060200260200182016040528015610992578160200160208202803683370190505b5093508067ffffffffffffffff8111156109ae576109ae61253b565b6040519080825280602002602001820160405280156109d7578160200160208202803683370190505b5092508067ffffffffffffffff8111156109f3576109f361253b565b604051908082528060200260200182016040528015610a1c578160200160208202803683370190505b50915060005b81811015610aeb57600080600080610a528b8681518110610a4557610a45612999565b60200260200101516118c5565b9350935093509350838a8681518110610a6d57610a6d612999565b60200260200101818152505082898681518110610a8c57610a8c612999565b60200260200101818152505081888681518110610aab57610aab612999565b60200260200101818152505080878681518110610aca57610aca612999565b6020026020010181815250505050505080610ae490612943565b9050610a22565b50509193509193565b6040805160c081018252600080825260208201819052918101829052606081018290526080810182905260a08101919091527f0000000000000000000000000000000000000000000000000000000000000000431015610b665760405162461bcd60e51b815260040161060c906128f6565b610b6e6107e6565b610b7661055d565b905090565b60025460035403610b8857565b600280546003549091600091610ba0906001906129af565b81548110610bb057610bb0612999565b906000526020600020015490506000610bd160016003546104dc91906129af565b6003549091505b83811015610c8a5760408051602080820186905281830185905282518083038401815260609092019092528051910120600154610c1990600290841c6129c2565b600003610c5357809350610c2c82610c92565b92508060028381548110610c4257610c42612999565b600091825260209091200155610c77565b60028281548110610c6657610c66612999565b906000526020600020015493508092505b5080610c8281612943565b915050610bd8565b505050600355565b600081600003610cc357507fd397b3b043d87fcd6fad1291ff0bfd16401c274896d8c63a923727f077b8e0b5919050565b81600103610cf257507ff73e6947d7d1628b9976a6e40d7b278a8a16405e96324a68df45b12a51b7cfde919050565b81600203610d2157507fa1520264ae93cac619e22e8718fc4fa7ebdd23f493cad602434d2a58ff4868fb919050565b81600303610d5057507fde5747106ac1194a1fa9071dbd6cf19dc2bc7964497ef0afec7e4bdbcf08c47e919050565b81600403610d7f57507f09c7082879180d28c789c05fafe7030871c76cedbe82c948b165d6a1d66ac15b919050565b81600503610dae57507faa7a02bcf29fba687f84123c808b5b48834ff5395abe98e622fadc14e4180c95919050565b81600603610ddd57507f7608fd46b710b589e0f2ee5a13cd9c41d432858a30d524f84c6d5db37f66273a919050565b81600703610e0c57507fa5d9a2f7f3573ac9a1366bc484688b4daf934b87ea9b3bf2e703da8fd9f09708919050565b81600803610e3b57507f6c1779477f4c3fca26b4607398859a43b90a286ce8062500744bd4949981757f919050565b81600903610e6a57507f45c22df3d952c33d5edce122eed85e5cda3fd61939e7ad7b3e03b6927bb598ea919050565b81600a03610e9957507fe68d02859bb6211cec64f52368b77d422de3b8eac34bf615942b814b643301b5919050565b81600b03610ec857507f62d78399b954d51cb9728601738ad13ddc43b2300064660716bb661d2f4d686f919050565b81600c03610ef757507f6e250d9abdbbb3993fce08de0395cdb56f0483e67d8762a798de011f6a50866a919050565b81600d03610f2657507f1d1a3a74062fd94078617e33eb901eaf16a830f67c387d8eed342db2ac5e2cc5919050565b81600e03610f5557507f19b3b3886526917eae8650223d0be20a0301be960eb339696e673ad8a804440f919050565b81600f03610f8457507fee9e05df53f10e62a897e5140a3f58732dd849e69cd1d62b21ed80ead711a014919050565b81601003610fb357507f2cc7aa6e611a113a34505dc1c96b220f14909b70e2c2c7b1a74655da21013c5e919050565b81601103610fe257507f949b52dfece7ca3bad3cb27f7750ecaee64cedb6243a275c35984e92956c530a919050565b8160120361101157507fb2680d060b763b932c150434c3812ba9fbc50937e0ebcf5758de884be81bab65919050565b8160130361104057507f523aebf4a085edbc9c8cdc99c83f46262e5f029b395ff7bf561a48a3f387e6b8919050565b8160140361106f57507fc9ab73827ab33c0cedb7ecf0ed2e6e32583c0fe887133a7f381ea4ba84d95b76919050565b8160150361109e57507f23eb397dec7e564ebe97f160a5e1081a77d9861f316807079b6be4731beb331e919050565b816016036110cd57507fdfa44a274c60f090df034aaf75539fd40e94cfd6362dd53d26ed20c8ad529563919050565b816017036110fc57507f15b13ee358e1044a53381243c094e54bf7aceb9b5325a0313d6b85fd44e8b3a5919050565b8160180361112b57507f1a7a93871e2daa0f1860aa91d4ece4ccd012dac5fe581176a21b155cfeca6d40919050565b8160190361115a57507fb12665fd0b884a7c7d1e0294d369170d7e672d9e125eb87784556305f98292df919050565b81601a0361118957507f2a5543b0b2f8cf550524390291774f4d6c8c0a25ff5393b09c44d75c92a5bd8e919050565b81601b036111b857507ff9df1841a6e7164b67a1242f1c74975137085ffd9721831f6c469d3a4d5ba42e919050565b81601c036111e757507fba24736b1b48246c1f7803be967be43ca0dddc9c2c0687a2957952249bc89371919050565b81601d0361121657507ff3f706b73790c73ca0a8f0460ac3a2a102e280415586b520e70cd5e8264388b4919050565b81601e0361124557507fc1f5a9a9f357e1c37814688cf7290c87a264ed3d6174a12b978da1c586f53825919050565b81601f0361127457507f766f7702e19ce23d426cdad03e4292a5a42c4669420101fed74400ec7cda3ac6919050565b816020036112a357507f070fec213e105b3e4d9b0434ac2fc7ca721d35093dc741fb9419797003e2394a919050565b816021036112d257507f9a7aade05b49e43f5fd3782571cc8c90eadacd5d660b53842b4e5b63d675ae0c919050565b8160220361130157507fb27b35a8236d0f9b6692820429c025ed58ed378dc98d316b762f0c865c68be6f919050565b8160230361133057507fdc567ad38d9b90cc9bea4e0f82ec05eca10b3aa94eddc7b63c4fd20c001bb53b919050565b8160240361135f57507fb208dfc457c8b30661ae49544c8e57399818095aab8dd7a426fb8dd56bb8c559919050565b8160250361138e57507fc4a72e1ff84f7a22631f3f95c61c392f98f52050360215a9d7e75d79b0bcd2ca919050565b816026036113bd57507fbb093ec8c0d7defb1de668b5b5dd4f2619e5cd92d29cc144862364a83ab993a8919050565b816027036113ec57507fe341796f2fe3975012c1e6badfa2e9c4523e43f911dc845082c3f4d7b4ff871d919050565b8160280361141b57507f42d356a11a0b39243eca3c3263299cb6f8c3e9728af6d9d8b0ddb6d354f1890d919050565b8160290361144a57507f0ce506e834e3a50a33f80074bc7fa16cf3c0712b36a41b69699177ea25de6c30919050565b81602a0361147957507fd8fa5bf130aeb7756b1ed09090cc80ed78dae0617978540f0fabd06dfb978938919050565b81602b036114a857507feed69a20fe36eb604f2153efa3b01c0e143cdf02229a1b8f741c9c2719059eb0919050565b81602c036114d757507f303c9c566ebf5bfe252796e5c131a99801226152a514688b5ca6883e99031d88919050565b81602d0361150657507fc7c3765ba96cfbccf3ae718393fa89791070cc8cd85f280b6ac46aea10d96042919050565b81602e0361153557507f1ca65b0a2b8034ee6bfb1fa4526832304e393af835c2c42b4dace58048746800919050565b81602f0361156457507f957add5e02350fd47de3a8e1da38fd774ceb31214d5897ed6315740a83cd634a919050565b8160300361159357507f787892cb439d5d358870774e163557cf02ec3cb87be6fde11abf1acee14eeaa4919050565b816031036115c257507f047c0962d4f5c8f60692c587de07739528c4d2059240d61dd34d2a547a438ee6919050565b816032036115f157507fc18727efc9e4df63020dcd90edc17dfd2ad14f02328c912b13898e0b53735556919050565b8160330361162057507fe38b9218987e451effe1648c3c9851ad03b64b052a5a3f5ca30f4d7b1ecf7120919050565b8160340361164f57507f0e48ecb1a5418e6218289acc8cf723e67ac6eae3ecb80f644336ab4365a2f2b2919050565b8160350361167e57507fd60e66f5b8cd08d71a1a4d7798952a7afa5a6e93a886c587a46a5500ebef4a60919050565b816036036116ad57507f5162aa9c31d9105f689cf6e71e19548bc9f0218b7d0f99ff7fa8bc2f19c68462919050565b816037036116dc57507f6fa8519b4b0e8fb97a9b618e97627d97b9b9d29d04521fd96472e9c502700568919050565b8160380361170b57507f41f5dcf0cdee270a2ad9a5f8130aaaab94b237463e09757c28b0321f09e24eb0919050565b8160390361173a57507f87a119239fa90732197108adfd029938b4743874d959d3da79b3a30f4832899e919050565b81603a0361176957507f8e96dbaa5c72e84a5297b040ccc1a60750a3201166e3b7740d352837233608a1919050565b81603b0361179857507f01605058d167ce967af8c475d2f6c341c3e0b437babf899c9da73a520aa4ecb5919050565b81603c036117c757507f04529eb80532c5118949d700d8dfd2aa86850b1c6479b26276b9486784a145ff919050565b81603d036117f657507fd191814ad13f27361ae20a46cbac8f6e76c10ebe9af0806d6720492ee2f296f0919050565b81603e0361182557507fa28df63f78821060570da371c0be1312188346b92a7965cc4b980b26c134a4d7919050565b81603f0361185457507fb48a92d40b61dc995ceecee4cded6415050dcece448b1e0b5e5b6a0e6981f3ef919050565b60405162461bcd60e51b8152602060048201526012602482015271125b99195e081bdd5d081bd988189bdd5b9960721b604482015260640161060c565b60028054600091906118a5906001906129af565b815481106118b5576118b5612999565b9060005260206000200154905090565b6000806000806118d3611d1f565b7f00000000000000000000000000000000000000000000000000000000000000004310156119135760405162461bcd60e51b815260040161060c906128f6565b61191c85611d65565b61195d5760405162461bcd60e51b815260206004820152601260248201527124b73b30b634b21039bab136b4b9b9b4b7b760711b604482015260640161060c565b600061196886611f7c565b90506119726107e6565b600061197d87611fda565b9050600061198a88612180565b6004805491925060019060006119a0838561295c565b9250508190555081336001600160a01b03167f167ce04d2aa1981994d3a31695da0d785373335b1078cec239a1a3a2c76755558386888e6040516119e79493929190612a11565b60405180910390a396509450925090509193509193565b6000807f0000000000000000000000000000000000000000000000000000000000000000600554600101027f0000000000000000000000000000000000000000000000000000000000000000019050438110611a5c57600091505090565b611a64610b7b565b6000611a6e611891565b604051632d287e4360e01b8152600481018290529091506000906001600160a01b037f00000000000000000000000000000000000000000000000000000000000000001690632d287e43906024016020604051808303816000875af1158015611adb573d6000803e3d6000fd5b505050506040513d601f19601f82011682018060405250810190611aff9190612aa8565b90506005548114611b1257611b12612ac1565b60008043611b228661010061295c565b1015611b5257507fc5d2460186f7233c927e7db2dcc703c0e500b653ca82273b7bfad8045d85a470905080611c60565b506001546040805186406020820181905291810186905260608101929092529060800160408051808303601f190181528282528051602091820120600680546001805487870187526001600160801b039283168089529083168689018181526000878152600d89528981209a519151918616600160801b928716830217909a558851606081018a52928352968201908152968101858152600e8054808501825599529051965196831696909216909402949094177fbb7b4a454dc3493923482f07822329ed19e8244eff582cc204f8554c3620c3fd60029096029586015592517fbb7b4a454dc3493923482f07822329ed19e8244eff582cc204f8554c3620c3fe9094019390935554905591505b600160056000828254611c73919061295c565b90915550506040805160c08101825260055480825260208083018990528284018890526001546060808501829052608080860188905260a0909501889052600784905560088b905560098a9055600a829055600b879055600c88905560045486518b815293840152948201529283018590529133917fbc8a3fd82465d43f1709e44ed882f7e1af0147274196ef1ec009f5d52ff4e993910160405180910390a360019550505050505090565b60005460ff16156108335760405162461bcd60e51b815260206004820152601060248201526f14185d5cd8589b194e881c185d5cd95960821b604482015260640161060c565b6000816040015151600003611d7c57506000919050565b6040820151805160049190611d93906001906129af565b81518110611da357611da3612999565b6020026020010151602001518360400151600081518110611dc657611dc6612999565b602002602001015160200151611ddc91906129af565b10611de957506000919050565b60408260400151600081518110611e0257611e02612999565b60200260200101516020015110611e1b57506000919050565b60005b6001836040015151611e3091906129af565b811015611ea75782604001518181518110611e4d57611e4d612999565b6020026020010151602001518360400151826001611e6b919061295c565b81518110611e7b57611e7b612999565b60200260200101516020015110611e955750600092915050565b80611e9f81612943565b915050611e1e565b506000611eb383611f7c565b9050611ec161010082612ad7565b83511115611ed25750600092915050565b60006010821015611eef57611ee86001836129af565b9050611f55565b836040015151600103611f0a57611ee8600483901c836129af565b60048460400151600081518110611f2357611f23612999565b602002602001015160200151611f3991906129af565b611f4490600161295c565b611f52906001901b836129af565b90505b611f6161010082612ad7565b845111611f72575060009392505050565b5060019392505050565b600080805b836040015151811015611fd35783604001518181518110611fa457611fa4612999565b6020026020010151602001516001901b82611fbf919061295c565b915080611fcb81612943565b915050611f81565b5092915050565b600154600090815b83604001515181101561206b5760008460400151828151811061200757612007612999565b602002602001015160000151905060008560400151838151811061202d5761202d612999565b6020026020010151602001519050600061204783836121b4565b905083600003612055578095505b505050808061206390612943565b915050611fe2565b50600061207882846129af565b905060008360015461208a91906129af565b90507f00000000000000000000000000000000000000000000000000000000000000006001600160a01b03166380f556056040518163ffffffff1660e01b8152600401602060405180830381865afa1580156120ea573d6000803e3d6000fd5b505050506040513d601f19601f8201168201806040525081019061210e9190612af6565b604051636d3759b560e11b81526004810185905260248101839052604481018490526001600160a01b03919091169063da6eb36a90606401600060405180830381600087803b15801561216057600080fd5b505af1158015612174573d6000803e3d6000fd5b50505050505050919050565b600081604001516040516020016121979190612b1f565b604051602081830303815290604052805190602001209050919050565b6000806121c360015484610881565b905060006121d46001851b8361295c565b6002549091506121e6906001906129af565b6001901b81111561222f576121f9610b7b565b612201612324565b600254612210906001906129af565b6001901b81111561222857612223612324565b612201565b6002546003555b60025461223b856123b2565b60008087875b8481101561230657612256600288831c6129c2565b60000361229c57816002828154811061227157612271612999565b60009182526020909120015561228881600161295c565b6003556122966001866129af565b50612306565b600281815481106122af576122af612999565b9060005260206000200154935081925083836040516020016122db929190918252602082015260400190565b60405160208183030381529060405280519060200120915080806122fe90612943565b915050612241565b506123146001891b8761295c565b6001555093979650505050505050565b60028054906000906123376001846129af565b8154811061234757612347612999565b600091825260208220015491506123626104dc6001856129af565b905060028282604051602001612382929190918252602082015260400190565b60408051601f19818403018152919052805160209182012082546001810184556000938452919092200155505050565b8060035411156123bf5750565b6002805460035490916000916123d7906001906129af565b815481106123e7576123e7612999565b90600052602060002001549050600061240860016003546104dc91906129af565b6003549091505b838110156124d0576040805160208082018690528183018590528251808303840181526060909201909252805191012060015461245090600290841c6129c2565b6000036124995780935061246382610c92565b925085821061249457806002838154811061248057612480612999565b600091825260209091200155505050505050565b6124bd565b600282815481106124ac576124ac612999565b906000526020600020015493508092505b50806124c881612943565b91505061240f565b5050505050565b6000602082840312156124e957600080fd5b5035919050565b60006020828403121561250257600080fd5b81356001600160801b038116811461087a57600080fd5b6000806040838503121561252c57600080fd5b50508035926020909101359150565b634e487b7160e01b600052604160045260246000fd5b6040805190810167ffffffffffffffff811182821017156125745761257461253b565b60405290565b6040516060810167ffffffffffffffff811182821017156125745761257461253b565b604051601f8201601f1916810167ffffffffffffffff811182821017156125c6576125c661253b565b604052919050565b600067ffffffffffffffff8211156125e8576125e861253b565b5060051b60200190565b600082601f83011261260357600080fd5b81356020612618612613836125ce565b61259d565b82815260069290921b8401810191818101908684111561263757600080fd5b8286015b8481101561267657604081890312156126545760008081fd5b61265c612551565b81358152848201358582015283529183019160400161263b565b509695505050505050565b60006060828403121561269357600080fd5b61269b61257a565b90508135815260208083013567ffffffffffffffff808211156126bd57600080fd5b818501915085601f8301126126d157600080fd5b8135818111156126e3576126e361253b565b6126f5601f8201601f1916850161259d565b818152878583860101111561270957600080fd5b8185850186830137600085838301015280858701525050604085013592508083111561273457600080fd5b5050612742848285016125f2565b60408301525092915050565b6000602080838503121561276157600080fd5b823567ffffffffffffffff8082111561277957600080fd5b818501915085601f83011261278d57600080fd5b813561279b612613826125ce565b81815260059190911b830184019084810190888311156127ba57600080fd5b8585015b838110156127f2578035858111156127d65760008081fd5b6127e48b89838a0101612681565b8452509186019186016127be565b5098975050505050505050565b600081518084526020808501945080840160005b8381101561282f57815187529582019590820190600101612813565b509495945050505050565b60808152600061284d60808301876127ff565b82810360208481019190915286518083528782019282019060005b8181101561288457845183529383019391830191600101612868565b5050848103604086015261289881886127ff565b9250505082810360608401526128ae81856127ff565b979650505050505050565b6000602082840312156128cb57600080fd5b813567ffffffffffffffff8111156128e257600080fd5b6128ee84828501612681565b949350505050565b6020808252601a908201527f436f6e747261637420686173206e6f74206c61756e636865642e000000000000604082015260600190565b634e487b7160e01b600052601160045260246000fd5b6000600182016129555761295561292d565b5060010190565b808201808211156108b5576108b561292d565b634e487b7160e01b600052601260045260246000fd5b6000826129945761299461296f565b500490565b634e487b7160e01b600052603260045260246000fd5b818103818111156108b5576108b561292d565b6000826129d1576129d161296f565b500690565b600081518084526020808501945080840160005b8381101561282f5781518051885283015183880152604090960195908201906001016129ea565b848152600060208581840152846040840152608060608401528351608084015280840151606060a085015280518060e086015260005b81811015612a645782810184015186820161010001528301612a47565b5061010092506000838287010152601f19601f8201168501915050604085015160808583030160c0860152612a9b838301826129d6565b9998505050505050505050565b600060208284031215612aba57600080fd5b5051919050565b634e487b7160e01b600052600160045260246000fd5b6000816000190483118215151615612af157612af161292d565b500290565b600060208284031215612b0857600080fd5b81516001600160a01b038116811461087a57600080fd5b60208152600061087a60208301846129d656fea2646970667358221220e377cee588fd799febc8e15969a547b0a21cc3e04618ae49bf1350bd131c5f7d64736f6c63430008100033608060405234801561001057600080fd5b5060405161067138038061067183398101604081905261002f9161014a565b6100383361009a565b806001600160401b0381111561005057610050610163565b604051908082528060200260200182016040528015610079578160200160208202803683370190505b50805161008e916001916020909101906100ea565b50506000600255610179565b600080546001600160a01b038381166001600160a01b0319831681178455604051919092169283917f8be0079c531659141344cd1fd0a4f28419497f9722a3daafe3b4186f6b6457e09190a35050565b828054828255906000526020600020908101928215610125579160200282015b8281111561012557825182559160200191906001019061010a565b50610131929150610135565b5090565b5b808211156101315760008155600101610136565b60006020828403121561015c57600080fd5b5051919050565b634e487b7160e01b600052604160045260246000fd5b6104e9806101886000396000f3fe608060405234801561001057600080fd5b506004361061007d5760003560e01c80638da5cb5b1161005b5780638da5cb5b146100d557806396e494e8146100f0578063e0886f9014610103578063f2fde38b1461011657600080fd5b80631d1a696d146100825780632d287e43146100aa578063715018a6146100cb575b600080fd5b6100956100903660046103e4565b610129565b60405190151581526020015b60405180910390f35b6100bd6100b83660046103e4565b610194565b6040519081526020016100a1565b6100d36101ee565b005b6000546040516001600160a01b0390911681526020016100a1565b6100956100fe3660046103e4565b610202565b6100bd6101113660046103e4565b610237565b6100d36101243660046103fd565b610297565b60008061013d600254600180549050610310565b905060005b8181101561018a57836001828154811061015e5761015e610426565b906000526020600020015403610178575060019392505050565b8061018281610452565b915050610142565b5060009392505050565b6002546001546000919082906101aa908361046b565b905083600182815481106101c0576101c0610426565b90600052602060002001819055506001600260008282546101e1919061048d565b9091555091949350505050565b6101f661032a565b6102006000610384565b565b6001546002546000919083108015610230575080610222600254836103d4565b61022c91906104a0565b8310155b9392505050565b600061024282610202565b6102675760405163b52d71f360e01b8152600481018390526024015b60405180910390fd5b60018054610275908461046b565b8154811061028557610285610426565b90600052602060002001549050919050565b61029f61032a565b6001600160a01b0381166103045760405162461bcd60e51b815260206004820152602660248201527f4f776e61626c653a206e6577206f776e657220697320746865207a65726f206160448201526564647265737360d01b606482015260840161025e565b61030d81610384565b50565b600081831061031f5781610321565b825b90505b92915050565b6000546001600160a01b031633146102005760405162461bcd60e51b815260206004820181905260248201527f4f776e61626c653a2063616c6c6572206973206e6f7420746865206f776e6572604482015260640161025e565b600080546001600160a01b038381166001600160a01b0319831681178455604051919092169283917f8be0079c531659141344cd1fd0a4f28419497f9722a3daafe3b4186f6b6457e09190a35050565b60008183101561031f5781610321565b6000602082840312156103f657600080fd5b5035919050565b60006020828403121561040f57600080fd5b81356001600160a01b038116811461023057600080fd5b634e487b7160e01b600052603260045260246000fd5b634e487b7160e01b600052601160045260246000fd5b6000600182016104645761046461043c565b5060010190565b60008261048857634e487b7160e01b600052601260045260246000fd5b500690565b808201808211156103245761032461043c565b818103818111156103245761032461043c56fea26469706673582212202d7a75b8d01477d7b0dfd4de81e732d9f919a499a532643d0950277377b9966e64736f6c63430008100033",
  "linkReferences": {},
  "deployedLinkReferences": {}
}