{
  "_format": "hh-sol-artifact-1",
  "contractName": "Flow",
  "sourceName": "contracts/dataFlow/Flow.sol",
  "abi": [
    {
      "inputs": [
        {
          "internalType": "address",
          "name": "cashier_",
          "type": "address"
        },
        {
          "internalType": "uint256",
          "name": "blocksPerEpoch_",
          "type": "uint256"
        },
        {
          "internalType": "uint256",
          "name": "deployDelay_",
          "type": "uint256"
        }
      ],
      "stateMutability": "nonpayable",
      "type": "constructor"
    },
    {
      "inputs": [],
      "name": "InvalidSubmission",
      "type": "error"
    },
    {
      "anonymous": false,
      "inputs": [
        {
          "indexed": true,
          "internalType": "address",
          "name": "sender",
          "type": "address"
        },
        {
          "indexed": true,
          "internalType": "uint256",
          "name": "index",
          "type": "uint256"
        },
        {
          "indexed": false,
          "internalType": "bytes32",
          "name": "startMerkleRoot",
          "type": "bytes32"
        },
        {
          "indexed": false,
          "internalType": "uint256",
          "name": "submissionIndex",
          "type": "uint256"
        },
        {
          "indexed": false,
          "internalType": "uint256",
          "name": "flowLength",
          "type": "uint256"
        },
        {
          "indexed": false,
          "internalType": "bytes32",
          "name": "context",
          "type": "bytes32"
        }
      ],
      "name": "NewEpoch",
      "type": "event"
    },
    {
      "anonymous": false,
      "inputs": [
        {
          "indexed": false,
          "internalType": "address",
          "name": "account",
          "type": "address"
        }
      ],
      "name": "Paused",
      "type": "event"
    },
    {
      "anonymous": false,
      "inputs": [
        {
          "indexed": true,
          "internalType": "address",
          "name": "sender",
          "type": "address"
        },
        {
          "indexed": true,
          "internalType": "bytes32",
          "name": "identity",
          "type": "bytes32"
        },
        {
          "indexed": false,
          "internalType": "uint256",
          "name": "submissionIndex",
          "type": "uint256"
        },
        {
          "indexed": false,
          "internalType": "uint256",
          "name": "startPos",
          "type": "uint256"
        },
        {
          "indexed": false,
          "internalType": "uint256",
          "name": "length",
          "type": "uint256"
        },
        {
          "components": [
            {
              "internalType": "uint256",
              "name": "length",
              "type": "uint256"
            },
            {
              "internalType": "bytes",
              "name": "tags",
              "type": "bytes"
            },
            {
              "components": [
                {
                  "internalType": "bytes32",
                  "name": "root",
                  "type": "bytes32"
                },
                {
                  "internalType": "uint256",
                  "name": "height",
                  "type": "uint256"
                }
              ],
              "internalType": "struct SubmissionNode[]",
              "name": "nodes",
              "type": "tuple[]"
            }
          ],
          "indexed": false,
          "internalType": "struct Submission",
          "name": "submission",
          "type": "tuple"
        }
      ],
      "name": "Submit",
      "type": "event"
    },
    {
      "anonymous": false,
      "inputs": [
        {
          "indexed": false,
          "internalType": "address",
          "name": "account",
          "type": "address"
        }
      ],
      "name": "Unpaused",
      "type": "event"
    },
    {
      "inputs": [
        {
          "components": [
            {
              "internalType": "uint256",
              "name": "length",
              "type": "uint256"
            },
            {
              "internalType": "bytes",
              "name": "tags",
              "type": "bytes"
            },
            {
              "components": [
                {
                  "internalType": "bytes32",
                  "name": "root",
                  "type": "bytes32"
                },
                {
                  "internalType": "uint256",
                  "name": "height",
                  "type": "uint256"
                }
              ],
              "internalType": "struct SubmissionNode[]",
              "name": "nodes",
              "type": "tuple[]"
            }
          ],
          "internalType": "struct Submission[]",
          "name": "submissions",
          "type": "tuple[]"
        }
      ],
      "name": "batchSubmit",
      "outputs": [
        {
          "internalType": "uint256[]",
          "name": "indexes",
          "type": "uint256[]"
        },
        {
          "internalType": "bytes32[]",
          "name": "digests",
          "type": "bytes32[]"
        },
        {
          "internalType": "uint256[]",
          "name": "startIndexes",
          "type": "uint256[]"
        },
        {
          "internalType": "uint256[]",
          "name": "lengths",
          "type": "uint256[]"
        }
      ],
      "stateMutability": "nonpayable",
      "type": "function"
    },
    {
      "inputs": [],
      "name": "blocksPerEpoch",
      "outputs": [
        {
          "internalType": "uint256",
          "name": "",
          "type": "uint256"
        }
      ],
      "stateMutability": "view",
      "type": "function"
    },
    {
      "inputs": [],
      "name": "cashier",
      "outputs": [
        {
          "internalType": "contract ICashier",
          "name": "",
          "type": "address"
        }
      ],
      "stateMutability": "view",
      "type": "function"
    },
    {
      "inputs": [],
      "name": "commitRoot",
      "outputs": [],
      "stateMutability": "nonpayable",
      "type": "function"
    },
    {
      "inputs": [],
      "name": "currentLength",
      "outputs": [
        {
          "internalType": "uint256",
          "name": "",
          "type": "uint256"
        }
      ],
      "stateMutability": "view",
      "type": "function"
    },
    {
      "inputs": [],
      "name": "epoch",
      "outputs": [
        {
          "internalType": "uint256",
          "name": "",
          "type": "uint256"
        }
      ],
      "stateMutability": "view",
      "type": "function"
    },
    {
      "inputs": [],
      "name": "epochStartPosition",
      "outputs": [
        {
          "internalType": "uint256",
          "name": "",
          "type": "uint256"
        }
      ],
      "stateMutability": "view",
      "type": "function"
    },
    {
      "inputs": [],
      "name": "firstBlock",
      "outputs": [
        {
          "internalType": "uint256",
          "name": "",
          "type": "uint256"
        }
      ],
      "stateMutability": "view",
      "type": "function"
    },
    {
      "inputs": [],
      "name": "getContext",
      "outputs": [
        {
          "components": [
            {
              "internalType": "uint256",
              "name": "epoch",
              "type": "uint256"
            },
            {
              "internalType": "uint256",
              "name": "mineStart",
              "type": "uint256"
            },
            {
              "internalType": "bytes32",
              "name": "flowRoot",
              "type": "bytes32"
            },
            {
              "internalType": "uint256",
              "name": "flowLength",
              "type": "uint256"
            },
            {
              "internalType": "bytes32",
              "name": "blockDigest",
              "type": "bytes32"
            },
            {
              "internalType": "bytes32",
              "name": "digest",
              "type": "bytes32"
            }
          ],
          "internalType": "struct MineContext",
          "name": "",
          "type": "tuple"
        }
      ],
      "stateMutability": "view",
      "type": "function"
    },
    {
      "inputs": [
        {
          "internalType": "bytes32",
          "name": "digest",
          "type": "bytes32"
        }
      ],
      "name": "getEpochRange",
      "outputs": [
        {
          "components": [
            {
              "internalType": "uint128",
              "name": "start",
              "type": "uint128"
            },
            {
              "internalType": "uint128",
              "name": "end",
              "type": "uint128"
            }
          ],
          "internalType": "struct EpochRange",
          "name": "",
          "type": "tuple"
        }
      ],
      "stateMutability": "view",
      "type": "function"
    },
    {
      "inputs": [],
      "name": "makeContext",
      "outputs": [],
      "stateMutability": "nonpayable",
      "type": "function"
    },
    {
      "inputs": [],
      "name": "makeContextWithResult",
      "outputs": [
        {
          "components": [
            {
              "internalType": "uint256",
              "name": "epoch",
              "type": "uint256"
            },
            {
              "internalType": "uint256",
              "name": "mineStart",
              "type": "uint256"
            },
            {
              "internalType": "bytes32",
              "name": "flowRoot",
              "type": "bytes32"
            },
            {
              "internalType": "uint256",
              "name": "flowLength",
              "type": "uint256"
            },
            {
              "internalType": "bytes32",
              "name": "blockDigest",
              "type": "bytes32"
            },
            {
              "internalType": "bytes32",
              "name": "digest",
              "type": "bytes32"
            }
          ],
          "internalType": "struct MineContext",
          "name": "",
          "type": "tuple"
        }
      ],
      "stateMutability": "nonpayable",
      "type": "function"
    },
    {
      "inputs": [
        {
          "internalType": "uint256",
          "name": "_length",
          "type": "uint256"
        },
        {
          "internalType": "uint256",
          "name": "alignExp",
          "type": "uint256"
        }
      ],
      "name": "nextAlign",
      "outputs": [
        {
          "internalType": "uint256",
          "name": "",
          "type": "uint256"
        }
      ],
      "stateMutability": "pure",
      "type": "function"
    },
    {
      "inputs": [
        {
          "internalType": "uint256",
          "name": "_length",
          "type": "uint256"
        }
      ],
      "name": "nextPow2",
      "outputs": [
        {
          "internalType": "uint256",
          "name": "",
          "type": "uint256"
        }
      ],
      "stateMutability": "pure",
      "type": "function"
    },
    {
      "inputs": [],
      "name": "numSubmissions",
      "outputs": [
        {
          "internalType": "uint256",
          "name": "",
          "type": "uint256"
        }
      ],
      "stateMutability": "view",
      "type": "function"
    },
    {
      "inputs": [],
      "name": "paused",
      "outputs": [
        {
          "internalType": "bool",
          "name": "",
          "type": "bool"
        }
      ],
      "stateMutability": "view",
      "type": "function"
    },
    {
      "inputs": [
        {
          "internalType": "uint128",
          "name": "targetPosition",
          "type": "uint128"
        }
      ],
      "name": "queryContextAtPosition",
      "outputs": [
        {
          "components": [
            {
              "internalType": "uint128",
              "name": "start",
              "type": "uint128"
            },
            {
              "internalType": "uint128",
              "name": "end",
              "type": "uint128"
            },
            {
              "internalType": "bytes32",
              "name": "digest",
              "type": "bytes32"
            }
          ],
          "internalType": "struct EpochRangeWithContextDigest",
          "name": "range",
          "type": "tuple"
        }
      ],
      "stateMutability": "nonpayable",
      "type": "function"
    },
    {
      "inputs": [],
      "name": "root",
      "outputs": [
        {
          "internalType": "bytes32",
          "name": "",
          "type": "bytes32"
        }
      ],
      "stateMutability": "view",
      "type": "function"
    },
    {
      "inputs": [],
      "name": "rootHistory",
      "outputs": [
        {
          "internalType": "contract IDigestHistory",
          "name": "",
          "type": "address"
        }
      ],
      "stateMutability": "view",
      "type": "function"
    },
    {
      "inputs": [],
      "name": "submissionIndex",
      "outputs": [
        {
          "internalType": "uint256",
          "name": "",
          "type": "uint256"
        }
      ],
      "stateMutability": "view",
      "type": "function"
    },
    {
      "inputs": [
        {
          "components": [
            {
              "internalType": "uint256",
              "name": "length",
              "type": "uint256"
            },
            {
              "internalType": "bytes",
              "name": "tags",
              "type": "bytes"
            },
            {
              "components": [
                {
                  "internalType": "bytes32",
                  "name": "root",
                  "type": "bytes32"
                },
                {
                  "internalType": "uint256",
                  "name": "height",
                  "type": "uint256"
                }
              ],
              "internalType": "struct SubmissionNode[]",
              "name": "nodes",
              "type": "tuple[]"
            }
          ],
          "internalType": "struct Submission",
          "name": "submission",
          "type": "tuple"
        }
      ],
      "name": "submit",
      "outputs": [
        {
          "internalType": "uint256",
          "name": "",
          "type": "uint256"
        },
        {
          "internalType": "bytes32",
          "name": "",
          "type": "bytes32"
        },
        {
          "internalType": "uint256",
          "name": "",
          "type": "uint256"
        },
        {
          "internalType": "uint256",
          "name": "",
          "type": "uint256"
        }
      ],
      "stateMutability": "nonpayable",
      "type": "function"
    },
    {
      "inputs": [],
      "name": "totalRewards",
      "outputs": [
        {
          "internalType": "uint256",
          "name": "",
          "type": "uint256"
        }
      ],
      "stateMutability": "view",
      "type": "function"
    },
    {
      "inputs": [],
      "name": "unstagedHeight",
      "outputs": [
        {
          "internalType": "uint256",
          "name": "",
          "type": "uint256"
        }
      ],
      "stateMutability": "view",
      "type": "function"
    },
    {
      "inputs": [
        {
          "internalType": "uint256",
          "name": "height",
          "type": "uint256"
        }
      ],
      "name": "zeros",
      "outputs": [
        {
          "internalType": "bytes32",
          "name": "",
          "type": "bytes32"
        }
      ],
      "stateMutability": "pure",
      "type": "function"
    }
  ],
  "bytecode": "0x6101006040523480156200001257600080fd5b506040516200332f3803806200332f833981016040819052620000359162000246565b6000805460ff1916815560018055604080518281526020810191829052516200006191600291620001d1565b50600280546001818101835560009283527f405787fa12a823e0f2b7631cc41b3ba8828b3321ca811111fa75cd3aa3bb5ace9091019290925560039190915560055560c0829052604051601490620000b99062000221565b908152602001604051809103906000f080158015620000dc573d6000803e3d6000fd5b506001600160a01b031660a052620000f58143620002a1565b60e09081526001600160a01b0384166080526040805160c081018252600081529151602083015281016200012862000198565b815260016020808301919091527fc5d2460186f7233c927e7db2dcc703c0e500b653ca82273b7bfad8045d85a4706040808401829052606093840191909152835160085590830151600955820151600a55810151600b556080810151600c5560a00151600d5550620002e9915050565b6002805460009190620001ae90600190620002bd565b81548110620001c157620001c1620002d3565b9060005260206000200154905090565b8280548282559060005260206000209081019282156200020f579160200282015b828111156200020f578251825591602001919060010190620001f2565b506200021d9291506200022f565b5090565b6106718062002cbe83390190565b5b808211156200021d576000815560010162000230565b6000806000606084860312156200025c57600080fd5b83516001600160a01b03811681146200027457600080fd5b602085015160409095015190969495509392505050565b634e487b7160e01b600052601160045260246000fd5b80820180821115620002b757620002b76200028b565b92915050565b81810381811115620002b757620002b76200028b565b634e487b7160e01b600052603260045260246000fd5b60805160a05160c05160e05161295c62000362600039600081816101d20152818161065b0152818161069e01528181610a4c01528181610ca90152611a5601526000818161042001526106c401526000818161036401526107250152600081816103c601528181611e8f0152611ed9015261295c6000f3fe608060405234801561001057600080fd5b50600436106101585760003560e01c806393e405a0116100c3578063d34353c91161007c578063d34353c91461039e578063e8295588146103a6578063ebf0c717146103b9578063ed740e97146103c1578063ef3e12dc146103e8578063f06820541461041b57600080fd5b806393e405a0146103195780639e62a38e14610322578063a3d35f3614610345578063b464b53e1461034e578063b8a409ac14610356578063c7dd52211461035f57600080fd5b80633d75d9c2116101155780633d75d9c21461024a578063555430a11461025d5780635c975abb1461027057806377e19824146102865780637d5907081461028e578063900cf0cf1461031057600080fd5b80630e15561a1461015d578063127f0f0714610179578063231b0268146101cd57806331bae174146101f4578063364800ec1461023757806338d45e1014610240575b600080fd5b61016660075481565b6040519081526020015b60405180910390f35b610181610442565b6040516101709190600060c082019050825182526020830151602083015260408301516040830152606083015160608301526080830151608083015260a083015160a083015292915050565b6101667f000000000000000000000000000000000000000000000000000000000000000081565b6102076102023660046122f4565b6104b1565b6040805182516001600160801b039081168252602080850151909116908201529181015190820152606001610170565b61016660035481565b610248610659565b005b61016661025836600461231d565b6109b6565b61016661026b366004612336565b610a02565b60005460ff166040519015158152602001610170565b600454610166565b6102e961029c36600461231d565b6040805180820190915260008082526020820152506000908152600e60209081526040918290208251808401909352546001600160801b038082168452600160801b909104169082015290565b6040805182516001600160801b039081168252602093840151169281019290925201610170565b61016660055481565b61016660065481565b61033561033036600461256b565b610a3c565b6040516101709493929190612657565b61016660015481565b610181610c75565b61016660045481565b6103867f000000000000000000000000000000000000000000000000000000000000000081565b6040516001600160a01b039091168152602001610170565b610248610cfc565b6101666103b436600461231d565b610e13565b610166611a12565b6103867f000000000000000000000000000000000000000000000000000000000000000081565b6103fb6103f63660046126d6565b611a46565b604080519485526020850193909352918301526060820152608001610170565b6101667f000000000000000000000000000000000000000000000000000000000000000081565b6040805160c081018252600080825260208201819052918101829052606081018290526080810182905260a0810191909152506040805160c08101825260085481526009546020820152600a5491810191909152600b546060820152600c546080820152600d5460a082015290565b60408051606081018252600080825260208201819052918101919091526104d6610659565b600154826001600160801b0316106105415760405162461bcd60e51b8152602060048201526024808201527f5175657269656420706f736974696f6e206578636565647320757070657220626044820152631bdd5b9960e21b60648201526084015b60405180910390fd5b600f546000905b81811115610611576000600261055e8484612729565b6105689190612752565b9050600f818154811061057d5761057d612766565b600091825260209182902060408051606081018252600290930290910180546001600160801b038082168552600160801b9091048116948401859052600190910154918301919091529095508616106105e2576105db816001612729565b925061060b565b83600001516001600160801b0316856001600160801b03161061060757505050919050565b8091505b50610548565b60405162461bcd60e51b815260206004820152601b60248201527f43616e206e6f742066696e642070726f70657220636f6e7465787400000000006044820152606401610538565b7f00000000000000000000000000000000000000000000000000000000000000004310156106995760405162461bcd60e51b81526004016105389061277c565b6005547f000000000000000000000000000000000000000000000000000000000000000060019091017f000000000000000000000000000000000000000000000000000000000000000002014381106106ef5750565b6106f7610cfc565b6000610701611a12565b604051632d287e4360e01b8152600481018290529091506000906001600160a01b037f00000000000000000000000000000000000000000000000000000000000000001690632d287e43906024016020604051808303816000875af115801561076e573d6000803e3d6000fd5b505050506040513d601f19601f8201168201806040525081019061079291906127b3565b905060055481146107a5576107a56127cc565b600080436107b586610100612729565b10156107e557507fc5d2460186f7233c927e7db2dcc703c0e500b653ca82273b7bfad8045d85a4709050806108f3565b506001546040805186406020820181905291810186905260608101929092529060800160408051808303601f190181528282528051602091820120600680546001805487870187526001600160801b039283168089529083168689018181526000878152600e89528981209a519151918616600160801b928716830217909a558851606081018a52928352968201908152968101858152600f8054808501825599529051965196831696909216909402949094177f8d1108e10bcb7c27dddfc02ed9d693a074039d026cf4ea4240b40f7d581ac80260029096029586015592517f8d1108e10bcb7c27dddfc02ed9d693a074039d026cf4ea4240b40f7d581ac8039094019390935554905591505b6001600560008282546109069190612729565b90915550506040805160c08101825260055480825260208083018990528284018890526001546060808501829052608080860188905260a0909501889052600884905560098b9055600a8a9055600b829055600c879055600d88905560045486518b815293840152948201529283018590529133917fbc8a3fd82465d43f1709e44ed882f7e1af0147274196ef1ec009f5d52ff4e993910160405180910390a36109ae610659565b50505050505b565b6000818082036109c95750600092915050565b600181811c909117600281901c17600481901c17600881901c17601081901c17602081901c17906109fb908290612729565b9392505050565b600082808203610a16576000915050610a36565b610a216001826127e2565b831c9050610a30600182612729565b831b9150505b92915050565b606080606080610a4a611b7e565b7f0000000000000000000000000000000000000000000000000000000000000000431015610a8a5760405162461bcd60e51b81526004016105389061277c565b84518067ffffffffffffffff811115610aa557610aa5612358565b604051908082528060200260200182016040528015610ace578160200160208202803683370190505b5094508067ffffffffffffffff811115610aea57610aea612358565b604051908082528060200260200182016040528015610b13578160200160208202803683370190505b5093508067ffffffffffffffff811115610b2f57610b2f612358565b604051908082528060200260200182016040528015610b58578160200160208202803683370190505b5092508067ffffffffffffffff811115610b7457610b74612358565b604051908082528060200260200182016040528015610b9d578160200160208202803683370190505b50915060005b81811015610c6c57600080600080610bd38b8681518110610bc657610bc6612766565b6020026020010151611a46565b9350935093509350838a8681518110610bee57610bee612766565b60200260200101818152505082898681518110610c0d57610c0d612766565b60200260200101818152505081888681518110610c2c57610c2c612766565b60200260200101818152505080878681518110610c4b57610c4b612766565b6020026020010181815250505050505080610c65906127f5565b9050610ba3565b50509193509193565b6040805160c081018252600080825260208201819052918101829052606081018290526080810182905260a08101919091527f0000000000000000000000000000000000000000000000000000000000000000431015610ce75760405162461bcd60e51b81526004016105389061277c565b610cef610659565b610cf7610442565b905090565b60025460035403610d0957565b600280546003549091600091610d21906001906127e2565b81548110610d3157610d31612766565b906000526020600020015490506000610d5260016003546103b491906127e2565b6003549091505b83811015610e0b5760408051602080820186905281830185905282518083038401815260609092019092528051910120600154610d9a90600290841c61280e565b600003610dd457809350610dad82610e13565b92508060028381548110610dc357610dc3612766565b600091825260209091200155610df8565b60028281548110610de757610de7612766565b906000526020600020015493508092505b5080610e03816127f5565b915050610d59565b505050600355565b600081600003610e4457507fd397b3b043d87fcd6fad1291ff0bfd16401c274896d8c63a923727f077b8e0b5919050565b81600103610e7357507ff73e6947d7d1628b9976a6e40d7b278a8a16405e96324a68df45b12a51b7cfde919050565b81600203610ea257507fa1520264ae93cac619e22e8718fc4fa7ebdd23f493cad602434d2a58ff4868fb919050565b81600303610ed157507fde5747106ac1194a1fa9071dbd6cf19dc2bc7964497ef0afec7e4bdbcf08c47e919050565b81600403610f0057507f09c7082879180d28c789c05fafe7030871c76cedbe82c948b165d6a1d66ac15b919050565b81600503610f2f57507faa7a02bcf29fba687f84123c808b5b48834ff5395abe98e622fadc14e4180c95919050565b81600603610f5e57507f7608fd46b710b589e0f2ee5a13cd9c41d432858a30d524f84c6d5db37f66273a919050565b81600703610f8d57507fa5d9a2f7f3573ac9a1366bc484688b4daf934b87ea9b3bf2e703da8fd9f09708919050565b81600803610fbc57507f6c1779477f4c3fca26b4607398859a43b90a286ce8062500744bd4949981757f919050565b81600903610feb57507f45c22df3d952c33d5edce122eed85e5cda3fd61939e7ad7b3e03b6927bb598ea919050565b81600a0361101a57507fe68d02859bb6211cec64f52368b77d422de3b8eac34bf615942b814b643301b5919050565b81600b0361104957507f62d78399b954d51cb9728601738ad13ddc43b2300064660716bb661d2f4d686f919050565b81600c0361107857507f6e250d9abdbbb3993fce08de0395cdb56f0483e67d8762a798de011f6a50866a919050565b81600d036110a757507f1d1a3a74062fd94078617e33eb901eaf16a830f67c387d8eed342db2ac5e2cc5919050565b81600e036110d657507f19b3b3886526917eae8650223d0be20a0301be960eb339696e673ad8a804440f919050565b81600f0361110557507fee9e05df53f10e62a897e5140a3f58732dd849e69cd1d62b21ed80ead711a014919050565b8160100361113457507f2cc7aa6e611a113a34505dc1c96b220f14909b70e2c2c7b1a74655da21013c5e919050565b8160110361116357507f949b52dfece7ca3bad3cb27f7750ecaee64cedb6243a275c35984e92956c530a919050565b8160120361119257507fb2680d060b763b932c150434c3812ba9fbc50937e0ebcf5758de884be81bab65919050565b816013036111c157507f523aebf4a085edbc9c8cdc99c83f46262e5f029b395ff7bf561a48a3f387e6b8919050565b816014036111f057507fc9ab73827ab33c0cedb7ecf0ed2e6e32583c0fe887133a7f381ea4ba84d95b76919050565b8160150361121f57507f23eb397dec7e564ebe97f160a5e1081a77d9861f316807079b6be4731beb331e919050565b8160160361124e57507fdfa44a274c60f090df034aaf75539fd40e94cfd6362dd53d26ed20c8ad529563919050565b8160170361127d57507f15b13ee358e1044a53381243c094e54bf7aceb9b5325a0313d6b85fd44e8b3a5919050565b816018036112ac57507f1a7a93871e2daa0f1860aa91d4ece4ccd012dac5fe581176a21b155cfeca6d40919050565b816019036112db57507fb12665fd0b884a7c7d1e0294d369170d7e672d9e125eb87784556305f98292df919050565b81601a0361130a57507f2a5543b0b2f8cf550524390291774f4d6c8c0a25ff5393b09c44d75c92a5bd8e919050565b81601b0361133957507ff9df1841a6e7164b67a1242f1c74975137085ffd9721831f6c469d3a4d5ba42e919050565b81601c0361136857507fba24736b1b48246c1f7803be967be43ca0dddc9c2c0687a2957952249bc89371919050565b81601d0361139757507ff3f706b73790c73ca0a8f0460ac3a2a102e280415586b520e70cd5e8264388b4919050565b81601e036113c657507fc1f5a9a9f357e1c37814688cf7290c87a264ed3d6174a12b978da1c586f53825919050565b81601f036113f557507f766f7702e19ce23d426cdad03e4292a5a42c4669420101fed74400ec7cda3ac6919050565b8160200361142457507f070fec213e105b3e4d9b0434ac2fc7ca721d35093dc741fb9419797003e2394a919050565b8160210361145357507f9a7aade05b49e43f5fd3782571cc8c90eadacd5d660b53842b4e5b63d675ae0c919050565b8160220361148257507fb27b35a8236d0f9b6692820429c025ed58ed378dc98d316b762f0c865c68be6f919050565b816023036114b157507fdc567ad38d9b90cc9bea4e0f82ec05eca10b3aa94eddc7b63c4fd20c001bb53b919050565b816024036114e057507fb208dfc457c8b30661ae49544c8e57399818095aab8dd7a426fb8dd56bb8c559919050565b8160250361150f57507fc4a72e1ff84f7a22631f3f95c61c392f98f52050360215a9d7e75d79b0bcd2ca919050565b8160260361153e57507fbb093ec8c0d7defb1de668b5b5dd4f2619e5cd92d29cc144862364a83ab993a8919050565b8160270361156d57507fe341796f2fe3975012c1e6badfa2e9c4523e43f911dc845082c3f4d7b4ff871d919050565b8160280361159c57507f42d356a11a0b39243eca3c3263299cb6f8c3e9728af6d9d8b0ddb6d354f1890d919050565b816029036115cb57507f0ce506e834e3a50a33f80074bc7fa16cf3c0712b36a41b69699177ea25de6c30919050565b81602a036115fa57507fd8fa5bf130aeb7756b1ed09090cc80ed78dae0617978540f0fabd06dfb978938919050565b81602b0361162957507feed69a20fe36eb604f2153efa3b01c0e143cdf02229a1b8f741c9c2719059eb0919050565b81602c0361165857507f303c9c566ebf5bfe252796e5c131a99801226152a514688b5ca6883e99031d88919050565b81602d0361168757507fc7c3765ba96cfbccf3ae718393fa89791070cc8cd85f280b6ac46aea10d96042919050565b81602e036116b657507f1ca65b0a2b8034ee6bfb1fa4526832304e393af835c2c42b4dace58048746800919050565b81602f036116e557507f957add5e02350fd47de3a8e1da38fd774ceb31214d5897ed6315740a83cd634a919050565b8160300361171457507f787892cb439d5d358870774e163557cf02ec3cb87be6fde11abf1acee14eeaa4919050565b8160310361174357507f047c0962d4f5c8f60692c587de07739528c4d2059240d61dd34d2a547a438ee6919050565b8160320361177257507fc18727efc9e4df63020dcd90edc17dfd2ad14f02328c912b13898e0b53735556919050565b816033036117a157507fe38b9218987e451effe1648c3c9851ad03b64b052a5a3f5ca30f4d7b1ecf7120919050565b816034036117d057507f0e48ecb1a5418e6218289acc8cf723e67ac6eae3ecb80f644336ab4365a2f2b2919050565b816035036117ff57507fd60e66f5b8cd08d71a1a4d7798952a7afa5a6e93a886c587a46a5500ebef4a60919050565b8160360361182e57507f5162aa9c31d9105f689cf6e71e19548bc9f0218b7d0f99ff7fa8bc2f19c68462919050565b8160370361185d57507f6fa8519b4b0e8fb97a9b618e97627d97b9b9d29d04521fd96472e9c502700568919050565b8160380361188c57507f41f5dcf0cdee270a2ad9a5f8130aaaab94b237463e09757c28b0321f09e24eb0919050565b816039036118bb57507f87a119239fa90732197108adfd029938b4743874d959d3da79b3a30f4832899e919050565b81603a036118ea57507f8e96dbaa5c72e84a5297b040ccc1a60750a3201166e3b7740d352837233608a1919050565b81603b0361191957507f01605058d167ce967af8c475d2f6c341c3e0b437babf899c9da73a520aa4ecb5919050565b81603c0361194857507f04529eb80532c5118949d700d8dfd2aa86850b1c6479b26276b9486784a145ff919050565b81603d0361197757507fd191814ad13f27361ae20a46cbac8f6e76c10ebe9af0806d6720492ee2f296f0919050565b81603e036119a657507fa28df63f78821060570da371c0be1312188346b92a7965cc4b980b26c134a4d7919050565b81603f036119d557507fb48a92d40b61dc995ceecee4cded6415050dcece448b1e0b5e5b6a0e6981f3ef919050565b60405162461bcd60e51b8152602060048201526012602482015271125b99195e081bdd5d081bd988189bdd5b9960721b6044820152606401610538565b6002805460009190611a26906001906127e2565b81548110611a3657611a36612766565b9060005260206000200154905090565b600080600080611a54611b7e565b7f0000000000000000000000000000000000000000000000000000000000000000431015611a945760405162461bcd60e51b81526004016105389061277c565b611a9d85611bc4565b611ade5760405162461bcd60e51b815260206004820152601260248201527124b73b30b634b21039bab136b4b9b9b4b7b760711b6044820152606401610538565b611ae6610659565b6000611af186611ddb565b90506000611afe87611f46565b90506000611b0b88611fa4565b600480549192506001906000611b218385612729565b9250508190555081336001600160a01b03167f167ce04d2aa1981994d3a31695da0d785373335b1078cec239a1a3a2c76755558387878e604051611b68949392919061285d565b60405180910390a3989097509195509350915050565b60005460ff16156109b45760405162461bcd60e51b815260206004820152601060248201526f14185d5cd8589b194e881c185d5cd95960821b6044820152606401610538565b6000816040015151600003611bdb57506000919050565b6040820151805160049190611bf2906001906127e2565b81518110611c0257611c02612766565b6020026020010151602001518360400151600081518110611c2557611c25612766565b602002602001015160200151611c3b91906127e2565b10611c4857506000919050565b60408260400151600081518110611c6157611c61612766565b60200260200101516020015110611c7a57506000919050565b60005b6001836040015151611c8f91906127e2565b811015611d065782604001518181518110611cac57611cac612766565b6020026020010151602001518360400151826001611cca9190612729565b81518110611cda57611cda612766565b60200260200101516020015110611cf45750600092915050565b80611cfe816127f5565b915050611c7d565b506000611d1283611f46565b9050611d20610100826128f4565b83511115611d315750600092915050565b60006010821015611d4e57611d476001836127e2565b9050611db4565b836040015151600103611d6957611d47600483901c836127e2565b60048460400151600081518110611d8257611d82612766565b602002602001015160200151611d9891906127e2565b611da3906001612729565b611db1906001901b836127e2565b90505b611dc0610100826128f4565b845111611dd1575060009392505050565b5060019392505050565b600154600090815b836040015151811015611e6c57600084604001518281518110611e0857611e08612766565b6020026020010151600001519050600085604001518381518110611e2e57611e2e612766565b60200260200101516020015190506000611e488383611fd8565b905083600003611e56578095505b5050508080611e64906127f5565b915050611de3565b506000611e7982846127e2565b9050600083600154611e8b91906127e2565b90507f00000000000000000000000000000000000000000000000000000000000000006001600160a01b031615611f3e57604051632207e80f60e21b815260048101829052602481018390527f00000000000000000000000000000000000000000000000000000000000000006001600160a01b03169063881fa03c90604401600060405180830381600087803b158015611f2557600080fd5b505af1158015611f39573d6000803e3d6000fd5b505050505b505050919050565b600080805b836040015151811015611f9d5783604001518181518110611f6e57611f6e612766565b6020026020010151602001516001901b82611f899190612729565b915080611f95816127f5565b915050611f4b565b5092915050565b60008160400151604051602001611fbb9190612913565b604051602081830303815290604052805190602001209050919050565b600080611fe760015484610a02565b90506000611ff86001851b83612729565b60025490915061200a906001906127e2565b6001901b8111156120535761201d610cfc565b612025612148565b600254612034906001906127e2565b6001901b81111561204c57612047612148565b612025565b6002546003555b60025461205f856121d6565b60008087875b8481101561212a5761207a600288831c61280e565b6000036120c057816002828154811061209557612095612766565b6000918252602090912001556120ac816001612729565b6003556120ba6001866127e2565b5061212a565b600281815481106120d3576120d3612766565b9060005260206000200154935081925083836040516020016120ff929190918252602082015260400190565b6040516020818303038152906040528051906020012091508080612122906127f5565b915050612065565b506121386001891b87612729565b6001555093979650505050505050565b600280549060009061215b6001846127e2565b8154811061216b5761216b612766565b600091825260208220015491506121866103b46001856127e2565b9050600282826040516020016121a6929190918252602082015260400190565b60408051601f19818403018152919052805160209182012082546001810184556000938452919092200155505050565b8060035411156121e35750565b6002805460035490916000916121fb906001906127e2565b8154811061220b5761220b612766565b90600052602060002001549050600061222c60016003546103b491906127e2565b6003549091505b838110156109ae576040805160208082018690528183018590528251808303840181526060909201909252805191012060015461227490600290841c61280e565b6000036122bd5780935061228782610e13565b92508582106122b85780600283815481106122a4576122a4612766565b600091825260209091200155505050505050565b6122e1565b600282815481106122d0576122d0612766565b906000526020600020015493508092505b50806122ec816127f5565b915050612233565b60006020828403121561230657600080fd5b81356001600160801b03811681146109fb57600080fd5b60006020828403121561232f57600080fd5b5035919050565b6000806040838503121561234957600080fd5b50508035926020909101359150565b634e487b7160e01b600052604160045260246000fd5b6040805190810167ffffffffffffffff8111828210171561239157612391612358565b60405290565b6040516060810167ffffffffffffffff8111828210171561239157612391612358565b604051601f8201601f1916810167ffffffffffffffff811182821017156123e3576123e3612358565b604052919050565b600067ffffffffffffffff82111561240557612405612358565b5060051b60200190565b600082601f83011261242057600080fd5b81356020612435612430836123eb565b6123ba565b82815260069290921b8401810191818101908684111561245457600080fd5b8286015b8481101561249357604081890312156124715760008081fd5b61247961236e565b813581528482013585820152835291830191604001612458565b509695505050505050565b6000606082840312156124b057600080fd5b6124b8612397565b90508135815260208083013567ffffffffffffffff808211156124da57600080fd5b818501915085601f8301126124ee57600080fd5b81358181111561250057612500612358565b612512601f8201601f191685016123ba565b818152878583860101111561252657600080fd5b8185850186830137600085838301015280858701525050604085013592508083111561255157600080fd5b505061255f8482850161240f565b60408301525092915050565b6000602080838503121561257e57600080fd5b823567ffffffffffffffff8082111561259657600080fd5b818501915085601f8301126125aa57600080fd5b81356125b8612430826123eb565b81815260059190911b830184019084810190888311156125d757600080fd5b8585015b8381101561260f578035858111156125f35760008081fd5b6126018b89838a010161249e565b8452509186019186016125db565b5098975050505050505050565b600081518084526020808501945080840160005b8381101561264c57815187529582019590820190600101612630565b509495945050505050565b60808152600061266a608083018761261c565b82810360208481019190915286518083528782019282019060005b818110156126a157845183529383019391830191600101612685565b505084810360408601526126b5818861261c565b9250505082810360608401526126cb818561261c565b979650505050505050565b6000602082840312156126e857600080fd5b813567ffffffffffffffff8111156126ff57600080fd5b61270b8482850161249e565b949350505050565b634e487b7160e01b600052601160045260246000fd5b80820180821115610a3657610a36612713565b634e487b7160e01b600052601260045260246000fd5b6000826127615761276161273c565b500490565b634e487b7160e01b600052603260045260246000fd5b6020808252601a908201527f436f6e747261637420686173206e6f74206c61756e636865642e000000000000604082015260600190565b6000602082840312156127c557600080fd5b5051919050565b634e487b7160e01b600052600160045260246000fd5b81810381811115610a3657610a36612713565b60006001820161280757612807612713565b5060010190565b60008261281d5761281d61273c565b500690565b600081518084526020808501945080840160005b8381101561264c578151805188528301518388015260409096019590820190600101612836565b848152600060208581840152846040840152608060608401528351608084015280840151606060a085015280518060e086015260005b818110156128b05782810184015186820161010001528301612893565b5061010092506000838287010152601f19601f8201168501915050604085015160808583030160c08601526128e783830182612822565b9998505050505050505050565b600081600019048311821515161561290e5761290e612713565b500290565b6020815260006109fb602083018461282256fea264697066735822122020d2097ea3cb7cc22c168ce127d050196255cc8219798eced268776c38200cf064736f6c63430008100033608060405234801561001057600080fd5b5060405161067138038061067183398101604081905261002f9161014a565b6100383361009a565b806001600160401b0381111561005057610050610163565b604051908082528060200260200182016040528015610079578160200160208202803683370190505b50805161008e916001916020909101906100ea565b50506000600255610179565b600080546001600160a01b038381166001600160a01b0319831681178455604051919092169283917f8be0079c531659141344cd1fd0a4f28419497f9722a3daafe3b4186f6b6457e09190a35050565b828054828255906000526020600020908101928215610125579160200282015b8281111561012557825182559160200191906001019061010a565b50610131929150610135565b5090565b5b808211156101315760008155600101610136565b60006020828403121561015c57600080fd5b5051919050565b634e487b7160e01b600052604160045260246000fd5b6104e9806101886000396000f3fe608060405234801561001057600080fd5b506004361061007d5760003560e01c80638da5cb5b1161005b5780638da5cb5b146100d557806396e494e8146100f0578063e0886f9014610103578063f2fde38b1461011657600080fd5b80631d1a696d146100825780632d287e43146100aa578063715018a6146100cb575b600080fd5b6100956100903660046103e4565b610129565b60405190151581526020015b60405180910390f35b6100bd6100b83660046103e4565b610194565b6040519081526020016100a1565b6100d36101ee565b005b6000546040516001600160a01b0390911681526020016100a1565b6100956100fe3660046103e4565b610202565b6100bd6101113660046103e4565b610237565b6100d36101243660046103fd565b610297565b60008061013d600254600180549050610310565b905060005b8181101561018a57836001828154811061015e5761015e610426565b906000526020600020015403610178575060019392505050565b8061018281610452565b915050610142565b5060009392505050565b6002546001546000919082906101aa908361046b565b905083600182815481106101c0576101c0610426565b90600052602060002001819055506001600260008282546101e1919061048d565b9091555091949350505050565b6101f661032a565b6102006000610384565b565b6001546002546000919083108015610230575080610222600254836103d4565b61022c91906104a0565b8310155b9392505050565b600061024282610202565b6102675760405163b52d71f360e01b8152600481018390526024015b60405180910390fd5b60018054610275908461046b565b8154811061028557610285610426565b90600052602060002001549050919050565b61029f61032a565b6001600160a01b0381166103045760405162461bcd60e51b815260206004820152602660248201527f4f776e61626c653a206e6577206f776e657220697320746865207a65726f206160448201526564647265737360d01b606482015260840161025e565b61030d81610384565b50565b600081831061031f5781610321565b825b90505b92915050565b6000546001600160a01b031633146102005760405162461bcd60e51b815260206004820181905260248201527f4f776e61626c653a2063616c6c6572206973206e6f7420746865206f776e6572604482015260640161025e565b600080546001600160a01b038381166001600160a01b0319831681178455604051919092169283917f8be0079c531659141344cd1fd0a4f28419497f9722a3daafe3b4186f6b6457e09190a35050565b60008183101561031f5781610321565b6000602082840312156103f657600080fd5b5035919050565b60006020828403121561040f57600080fd5b81356001600160a01b038116811461023057600080fd5b634e487b7160e01b600052603260045260246000fd5b634e487b7160e01b600052601160045260246000fd5b6000600182016104645761046461043c565b5060010190565b60008261048857634e487b7160e01b600052601260045260246000fd5b500690565b808201808211156103245761032461043c565b818103818111156103245761032461043c56fea26469706673582212202d7a75b8d01477d7b0dfd4de81e732d9f919a499a532643d0950277377b9966e64736f6c63430008100033",
  "linkReferences": {},
  "deployedLinkReferences": {}
}