{
  "_format": "hh-sol-artifact-1",
  "contractName": "ChunkDecayReward",
  "sourceName": "contracts/reward/ChunkDecayReward.sol",
  "abi": [
    {
      "inputs": [
        {
          "internalType": "uint16",
          "name": "annualMilliDecayRate_",
          "type": "uint16"
        }
      ],
      "stateMutability": "nonpayable",
      "type": "constructor"
    },
    {
      "anonymous": false,
      "inputs": [
        {
          "indexed": true,
          "internalType": "uint256",
          "name": "pricingIndex",
          "type": "uint256"
        },
        {
          "indexed": true,
          "internalType": "address",
          "name": "beneficiary",
          "type": "address"
        },
        {
          "indexed": false,
          "internalType": "uint256",
          "name": "amount",
          "type": "uint256"
        }
      ],
      "name": "DistributeReward",
      "type": "event"
    },
    {
      "inputs": [],
      "name": "annualMilliDecayRate",
      "outputs": [
        {
          "internalType": "uint16",
          "name": "",
          "type": "uint16"
        }
      ],
      "stateMutability": "view",
      "type": "function"
    },
    {
      "inputs": [
        {
          "internalType": "uint256",
          "name": "pricingIndex",
          "type": "uint256"
        },
        {
          "internalType": "address payable",
          "name": "beneficiary",
          "type": "address"
        },
        {
          "internalType": "bytes32",
          "name": "",
          "type": "bytes32"
        }
      ],
      "name": "claimMineReward",
      "outputs": [],
      "stateMutability": "nonpayable",
      "type": "function"
    },
    {
      "inputs": [
        {
          "internalType": "uint256",
          "name": "beforeLength",
          "type": "uint256"
        },
        {
          "internalType": "uint256",
          "name": "chargedSectors",
          "type": "uint256"
        }
      ],
      "name": "fillReward",
      "outputs": [],
      "stateMutability": "payable",
      "type": "function"
    },
    {
      "inputs": [
        {
          "internalType": "address",
          "name": "market_",
          "type": "address"
        },
        {
          "internalType": "address",
          "name": "mine_",
          "type": "address"
        }
      ],
      "name": "initialize",
      "outputs": [],
      "stateMutability": "nonpayable",
      "type": "function"
    },
    {
      "inputs": [],
      "name": "initialized",
      "outputs": [
        {
          "internalType": "bool",
          "name": "",
          "type": "bool"
        }
      ],
      "stateMutability": "view",
      "type": "function"
    },
    {
      "inputs": [],
      "name": "market",
      "outputs": [
        {
          "internalType": "address",
          "name": "",
          "type": "address"
        }
      ],
      "stateMutability": "view",
      "type": "function"
    },
    {
      "inputs": [],
      "name": "mine",
      "outputs": [
        {
          "internalType": "address",
          "name": "",
          "type": "address"
        }
      ],
      "stateMutability": "view",
      "type": "function"
    },
    {
      "inputs": [
        {
          "internalType": "uint256",
          "name": "",
          "type": "uint256"
        }
      ],
      "name": "rewards",
      "outputs": [
        {
          "internalType": "uint128",
          "name": "lockedReward",
          "type": "uint128"
        },
        {
          "internalType": "uint128",
          "name": "claimableReward",
          "type": "uint128"
        },
        {
          "internalType": "uint128",
          "name": "distributedReward",
          "type": "uint128"
        },
        {
          "internalType": "uint40",
          "name": "startTime",
          "type": "uint40"
        },
        {
          "internalType": "uint40",
          "name": "lastUpdate",
          "type": "uint40"
        }
      ],
      "stateMutability": "view",
      "type": "function"
    }
  ],
  "bytecode": "0x60a060405234801561001057600080fd5b5060405161111d38038061111d83398101604081905261002f9161003b565b61ffff16608052610066565b60006020828403121561004d57600080fd5b815161ffff8116811461005f57600080fd5b9392505050565b608051611095610088600039600081816101730152610a1a01526110956000f3fe60806040526004361061007b5760003560e01c806399f4b2511161004e57806399f4b25114610121578063b7a3c04c14610141578063d1f4e3e314610161578063f301af42146101a857600080fd5b8063158ef93e14610080578063485cc955146100af57806359e96700146100d157806380f55605146100e4575b600080fd5b34801561008c57600080fd5b5060005461009a9060ff1681565b60405190151581526020015b60405180910390f35b3480156100bb57600080fd5b506100cf6100ca366004610e78565b61024f565b005b6100cf6100df366004610eb1565b6102ed565b3480156100f057600080fd5b506000546101099061010090046001600160a01b031681565b6040516001600160a01b0390911681526020016100a6565b34801561012d57600080fd5b50600154610109906001600160a01b031681565b34801561014d57600080fd5b506100cf61015c366004610ed3565b6106dd565b34801561016d57600080fd5b506101957f000000000000000000000000000000000000000000000000000000000000000081565b60405161ffff90911681526020016100a6565b3480156101b457600080fd5b5061020d6101c3366004610f0b565b600260205260009081526040902080546001909101546001600160801b0380831692600160801b908190048216929182169164ffffffffff918104821691600160a81b9091041685565b604080516001600160801b0396871681529486166020860152929094169183019190915264ffffffffff9081166060830152909116608082015260a0016100a6565b60005460ff16156102b25760405162461bcd60e51b815260206004820152602260248201527f496e697469616c697a61626c653a20616c726561647920696e697469616c697a604482015261195960f21b60648201526084015b60405180910390fd5b600080546001600160a81b0319166101006001600160a01b039485160217600190811790915580546001600160a01b03191691909216179055565b60005461010090046001600160a01b0316336001600160a01b0316146103555760405162461bcd60e51b815260206004820152601f60248201527f53656e64657220646f6573206e6f742068617665207065726d697373696f6e0060448201526064016102a9565b8060008161010061036861040080610f3a565b61037490610400610f3a565b61037f906008610f3a565b6103899190610f6f565b6103939034610f3a565b61039d9190610f6f565b905060006103ab8386610f83565b905060006101006103be61040080610f3a565b6103ca90610400610f3a565b6103d5906008610f3a565b6103df9190610f6f565b6103e99087610f96565b6101006103f861040080610f3a565b61040490610400610f3a565b61040f906008610f3a565b6104199190610f6f565b6104239190610faa565b90506000600161010061043861040080610f3a565b61044490610400610f3a565b61044f906008610f3a565b6104599190610f6f565b610463848a610f83565b61046d9190610f6f565b6104779190610faa565b9050600061010061048a61040080610f3a565b61049690610400610f3a565b6104a1906008610f3a565b6104ab9190610f6f565b6104b6600186610faa565b6104c09190610f96565b6104cb906001610f83565b905060006101006104de61040080610f3a565b6104ea90610400610f3a565b6104f5906008610f3a565b6104ff9190610f6f565b6105098387610faa565b6105139190610f6f565b9050600061010061052661040080610f3a565b61053290610400610f3a565b61053d906008610f3a565b6105479190610f6f565b610552836001610f83565b61055c9190610f3a565b861490508184036105d2576105cd61010061057961040080610f3a565b61058590610400610f3a565b610590906008610f3a565b61059a9190610f6f565b6105a48c89610faa565b6105ae908a610f3a565b6105b89190610f6f565b600086815260026020526040902090836108d8565b6106d1565b61062f6101006105e461040080610f3a565b6105f090610400610f3a565b6105fb906008610f3a565b6106059190610f6f565b61060f878a610f3a565b6106199190610f6f565b60008681526002602052604090209060016108d8565b61068b61010061064161040080610f3a565b61064d90610400610f3a565b610658906008610f3a565b6106629190610f6f565b61066c858a610f3a565b6106769190610f6f565b600084815260026020526040902090836108d8565b6000610698856001610f83565b90505b828110156106cf5760008181526002602052604090206106bd908960016108d8565b806106c781610fbd565b91505061069b565b505b50505050505050505050565b6001546001600160a01b0316336001600160a01b0316146107405760405162461bcd60e51b815260206004820152601f60248201527f53656e64657220646f6573206e6f742068617665207065726d697373696f6e0060448201526064016102a9565b6000838152600260209081526040808320815160a08101835281546001600160801b038082168352600160801b918290048116958301959095526001909201549384169281019290925264ffffffffff90830481166060830152600160a81b9092049091166080820152906107b482610a0f565b90506107c08282610a45565b60006107cb83610a94565b6000878152600260209081526040918290208651918701516001600160801b03928316600160801b91841682021782559287015160019091018054606089015160808a0151939094166001600160a81b03199091161764ffffffffff9384169094029390931764ffffffffff60a81b1916600160a81b9290911691909102179055905080156108d0576040516001600160a01b0386169082156108fc029083906000818181858888f1935050505015801561088a573d6000803e3d6000fd5b50846001600160a01b0316867f83617a1b0f847971f005bd162dde513cfe93df96e6293c3bbb5fe9c40629dd4c836040516108c791815260200190565b60405180910390a35b505050505050565b6001600160801b038211156109215760405162461bcd60e51b815260206004820152600f60248201526e526577617264206f766572666c6f7760881b60448201526064016102a9565b6001830154600160801b900464ffffffffff16156109815760405162461bcd60e51b815260206004820181905260248201527f526577617264206974656d20686173206265656e20696e697469616c697a656460448201526064016102a9565b82548290849060009061099e9084906001600160801b0316610fd6565b92506101000a8154816001600160801b0302191690836001600160801b031602179055508015610a0a5760018301805469ffffffffffffffffffff60801b1916600160801b4264ffffffffff1690810264ffffffffff60a81b191691909117600160a81b919091021790555b505050565b6000610a3f8261ffff7f000000000000000000000000000000000000000000000000000000000000000016610af5565b92915050565b8082600001818151610a579190610ffd565b6001600160801b0316905250602082018051829190610a77908390610fd6565b6001600160801b03169052505064ffffffffff4216608090910152565b60008060028360200151610aa8919061101d565b90508083602001818151610abc9190610ffd565b6001600160801b0316905250604083018051829190610adc908390610fd6565b6001600160801b03908116909152919091169392505050565b6000826060015164ffffffffff16600003610b1257506000610a3f565b6000836080015164ffffffffff1642610b2b9190610faa565b610b37906103e8610f3a565b905060006103e8610b4a601f600c610f3a565b610b579062015180610f3a565b610b63906103e8610f3a565b6801000000000000000086610b89700171547652b82fe1777d0ffda0d23a7d1187610f3a565b610b939190610f3a565b610b9d9190610f6f565b610ba79190610f6f565b610bb19190610f6f565b90506000610bbe82610bfe565b610bcc90600160601b610faa565b8651909150600160601b90610bea906001600160801b031683610f3a565b610bf49190610f6f565b9695505050505050565b6000663fffffffffffff821667ffc00000000000008316604084901c83610c2c610c2785611043565b610dbd565b90506640000000000000831615610c53576fffd3a751c0f7e10bd3b9f8ae012fbe060260801c5b6680000000000000831615610c78576fffa756521c8daed19f3a1b48fb94c5890260801c5b670100000000000000831615610c9e576fff4ecb59511ec8a5301ba217ef18dd7c0260801c5b670200000000000000831615610cc4576ffe9e115c7b8f884badd25995e79d2f090260801c5b670400000000000000831615610cea576ffd3e0c0cf486c174853f3a5931e0ee030260801c5b670800000000000000831615610d10576ffa83b2db722a033a7c25bb14315d7fcc0260801c5b671000000000000000831615610d36576ff5257d152486cc2c7b9d0c7aed980fc30260801c5b672000000000000000831615610d5c576feac0c6e7dd24392ed02d75b3706e54fa0260801c5b674000000000000000831615610d82576fd744fccad69d6af439a68bb9902d3fde0260801c5b678000000000000000831615610da8576fb504f333f9de6484597d89b3754abe9f0260801c5b610db382601f610f83565b1c95945050505050565b600081600003610dd257506001607f1b919050565b603f82901b808002607f90811d90818302811d90818402811d906f7afef7fe0b163aa1bc5ac1bb25cd7f2a840260801d6fb17217f7d1cf79abc9e3b39803f2f6af8602821d01600160801b01906006906f55411a850de23ea19af62831983789cb8502901d050160186f3b18024f2eeb657d6633a21fbcc04f158302607f1d050160011c9695505050505050565b6001600160a01b0381168114610e7557600080fd5b50565b60008060408385031215610e8b57600080fd5b8235610e9681610e60565b91506020830135610ea681610e60565b809150509250929050565b60008060408385031215610ec457600080fd5b50508035926020909101359150565b600080600060608486031215610ee857600080fd5b833592506020840135610efa81610e60565b929592945050506040919091013590565b600060208284031215610f1d57600080fd5b5035919050565b634e487b7160e01b600052601160045260246000fd5b6000816000190483118215151615610f5457610f54610f24565b500290565b634e487b7160e01b600052601260045260246000fd5b600082610f7e57610f7e610f59565b500490565b80820180821115610a3f57610a3f610f24565b600082610fa557610fa5610f59565b500690565b81810381811115610a3f57610a3f610f24565b600060018201610fcf57610fcf610f24565b5060010190565b6001600160801b03818116838216019080821115610ff657610ff6610f24565b5092915050565b6001600160801b03828116828216039080821115610ff657610ff6610f24565b60006001600160801b038084168061103757611037610f59565b92169190910492915050565b6000600160ff1b820161105857611058610f24565b506000039056fea2646970667358221220afe63a1ab160eba4289a5dc0e2f71edbb83e826eef60c2a434b49f0e37ff9eb264736f6c63430008100033",
  "linkReferences": {},
  "deployedLinkReferences": {}
}