{
  "_format": "hh-sol-artifact-1",
  "contractName": "ChunkDecayReward",
  "sourceName": "contracts/reward/ChunkDecayReward.sol",
  "abi": [
    {
      "inputs": [
        {
          "internalType": "uint16",
          "name": "annualMilliDecayRate_",
          "type": "uint16"
        }
      ],
      "stateMutability": "nonpayable",
      "type": "constructor"
    },
    {
      "anonymous": false,
      "inputs": [
        {
          "indexed": true,
          "internalType": "uint256",
          "name": "pricingIndex",
          "type": "uint256"
        },
        {
          "indexed": true,
          "internalType": "address",
          "name": "beneficiary",
          "type": "address"
        },
        {
          "indexed": false,
          "internalType": "uint256",
          "name": "amount",
          "type": "uint256"
        }
      ],
      "name": "DistributeReward",
      "type": "event"
    },
    {
      "anonymous": false,
      "inputs": [
        {
          "indexed": true,
          "internalType": "bytes32",
          "name": "role",
          "type": "bytes32"
        },
        {
          "indexed": true,
          "internalType": "bytes32",
          "name": "previousAdminRole",
          "type": "bytes32"
        },
        {
          "indexed": true,
          "internalType": "bytes32",
          "name": "newAdminRole",
          "type": "bytes32"
        }
      ],
      "name": "RoleAdminChanged",
      "type": "event"
    },
    {
      "anonymous": false,
      "inputs": [
        {
          "indexed": true,
          "internalType": "bytes32",
          "name": "role",
          "type": "bytes32"
        },
        {
          "indexed": true,
          "internalType": "address",
          "name": "account",
          "type": "address"
        },
        {
          "indexed": true,
          "internalType": "address",
          "name": "sender",
          "type": "address"
        }
      ],
      "name": "RoleGranted",
      "type": "event"
    },
    {
      "anonymous": false,
      "inputs": [
        {
          "indexed": true,
          "internalType": "bytes32",
          "name": "role",
          "type": "bytes32"
        },
        {
          "indexed": true,
          "internalType": "address",
          "name": "account",
          "type": "address"
        },
        {
          "indexed": true,
          "internalType": "address",
          "name": "sender",
          "type": "address"
        }
      ],
      "name": "RoleRevoked",
      "type": "event"
    },
    {
      "inputs": [],
      "name": "DEFAULT_ADMIN_ROLE",
      "outputs": [
        {
          "internalType": "bytes32",
          "name": "",
          "type": "bytes32"
        }
      ],
      "stateMutability": "view",
      "type": "function"
    },
    {
      "inputs": [],
      "name": "PARAMS_ADMIN_ROLE",
      "outputs": [
        {
          "internalType": "bytes32",
          "name": "",
          "type": "bytes32"
        }
      ],
      "stateMutability": "view",
      "type": "function"
    },
    {
      "inputs": [],
      "name": "annualMilliDecayRate",
      "outputs": [
        {
          "internalType": "uint16",
          "name": "",
          "type": "uint16"
        }
      ],
      "stateMutability": "view",
      "type": "function"
    },
    {
      "inputs": [],
      "name": "baseReward",
      "outputs": [
        {
          "internalType": "uint256",
          "name": "",
          "type": "uint256"
        }
      ],
      "stateMutability": "view",
      "type": "function"
    },
    {
      "inputs": [
        {
          "internalType": "uint256",
          "name": "pricingIndex",
          "type": "uint256"
        },
        {
          "internalType": "address payable",
          "name": "beneficiary",
          "type": "address"
        },
        {
          "internalType": "bytes32",
          "name": "",
          "type": "bytes32"
        }
      ],
      "name": "claimMineReward",
      "outputs": [],
      "stateMutability": "nonpayable",
      "type": "function"
    },
    {
      "inputs": [],
      "name": "donate",
      "outputs": [],
      "stateMutability": "payable",
      "type": "function"
    },
    {
      "inputs": [
        {
          "internalType": "uint256",
          "name": "beforeLength",
          "type": "uint256"
        },
        {
          "internalType": "uint256",
          "name": "chargedSectors",
          "type": "uint256"
        }
      ],
      "name": "fillReward",
      "outputs": [],
      "stateMutability": "payable",
      "type": "function"
    },
    {
      "inputs": [
        {
          "internalType": "bytes32",
          "name": "role",
          "type": "bytes32"
        }
      ],
      "name": "getRoleAdmin",
      "outputs": [
        {
          "internalType": "bytes32",
          "name": "",
          "type": "bytes32"
        }
      ],
      "stateMutability": "view",
      "type": "function"
    },
    {
      "inputs": [
        {
          "internalType": "bytes32",
          "name": "role",
          "type": "bytes32"
        },
        {
          "internalType": "uint256",
          "name": "index",
          "type": "uint256"
        }
      ],
      "name": "getRoleMember",
      "outputs": [
        {
          "internalType": "address",
          "name": "",
          "type": "address"
        }
      ],
      "stateMutability": "view",
      "type": "function"
    },
    {
      "inputs": [
        {
          "internalType": "bytes32",
          "name": "role",
          "type": "bytes32"
        }
      ],
      "name": "getRoleMemberCount",
      "outputs": [
        {
          "internalType": "uint256",
          "name": "",
          "type": "uint256"
        }
      ],
      "stateMutability": "view",
      "type": "function"
    },
    {
      "inputs": [
        {
          "internalType": "bytes32",
          "name": "role",
          "type": "bytes32"
        },
        {
          "internalType": "address",
          "name": "account",
          "type": "address"
        }
      ],
      "name": "grantRole",
      "outputs": [],
      "stateMutability": "nonpayable",
      "type": "function"
    },
    {
      "inputs": [
        {
          "internalType": "bytes32",
          "name": "role",
          "type": "bytes32"
        },
        {
          "internalType": "address",
          "name": "account",
          "type": "address"
        }
      ],
      "name": "hasRole",
      "outputs": [
        {
          "internalType": "bool",
          "name": "",
          "type": "bool"
        }
      ],
      "stateMutability": "view",
      "type": "function"
    },
    {
      "inputs": [
        {
          "internalType": "address",
          "name": "market_",
          "type": "address"
        },
        {
          "internalType": "address",
          "name": "mine_",
          "type": "address"
        }
      ],
      "name": "initialize",
      "outputs": [],
      "stateMutability": "nonpayable",
      "type": "function"
    },
    {
      "inputs": [],
      "name": "initialized",
      "outputs": [
        {
          "internalType": "bool",
          "name": "",
          "type": "bool"
        }
      ],
      "stateMutability": "view",
      "type": "function"
    },
    {
      "inputs": [],
      "name": "market",
      "outputs": [
        {
          "internalType": "address",
          "name": "",
          "type": "address"
        }
      ],
      "stateMutability": "view",
      "type": "function"
    },
    {
      "inputs": [],
      "name": "mine",
      "outputs": [
        {
          "internalType": "address",
          "name": "",
          "type": "address"
        }
      ],
      "stateMutability": "view",
      "type": "function"
    },
    {
      "inputs": [
        {
          "internalType": "address",
          "name": "dest",
          "type": "address"
        }
      ],
      "name": "payments",
      "outputs": [
        {
          "internalType": "uint256",
          "name": "",
          "type": "uint256"
        }
      ],
      "stateMutability": "view",
      "type": "function"
    },
    {
      "inputs": [
        {
          "internalType": "bytes32",
          "name": "role",
          "type": "bytes32"
        },
        {
          "internalType": "address",
          "name": "account",
          "type": "address"
        }
      ],
      "name": "renounceRole",
      "outputs": [],
      "stateMutability": "nonpayable",
      "type": "function"
    },
    {
      "inputs": [
        {
          "internalType": "bytes32",
          "name": "role",
          "type": "bytes32"
        },
        {
          "internalType": "address",
          "name": "account",
          "type": "address"
        }
      ],
      "name": "revokeRole",
      "outputs": [],
      "stateMutability": "nonpayable",
      "type": "function"
    },
    {
      "inputs": [
        {
          "internalType": "uint256",
          "name": "",
          "type": "uint256"
        }
      ],
      "name": "rewards",
      "outputs": [
        {
          "internalType": "uint128",
          "name": "lockedReward",
          "type": "uint128"
        },
        {
          "internalType": "uint128",
          "name": "claimableReward",
          "type": "uint128"
        },
        {
          "internalType": "uint128",
          "name": "distributedReward",
          "type": "uint128"
        },
        {
          "internalType": "uint40",
          "name": "startTime",
          "type": "uint40"
        },
        {
          "internalType": "uint40",
          "name": "lastUpdate",
          "type": "uint40"
        }
      ],
      "stateMutability": "view",
      "type": "function"
    },
    {
      "inputs": [],
      "name": "serviceFeeRateBps",
      "outputs": [
        {
          "internalType": "uint256",
          "name": "",
          "type": "uint256"
        }
      ],
      "stateMutability": "view",
      "type": "function"
    },
    {
      "inputs": [
        {
          "internalType": "uint256",
          "name": "baseReward_",
          "type": "uint256"
        }
      ],
      "name": "setBaseReward",
      "outputs": [],
      "stateMutability": "nonpayable",
      "type": "function"
    },
    {
      "inputs": [
        {
          "internalType": "uint256",
          "name": "bps",
          "type": "uint256"
        }
      ],
      "name": "setServiceFeeRate",
      "outputs": [],
      "stateMutability": "nonpayable",
      "type": "function"
    },
    {
      "inputs": [
        {
          "internalType": "address",
          "name": "treasury_",
          "type": "address"
        }
      ],
      "name": "setTreasury",
      "outputs": [],
      "stateMutability": "nonpayable",
      "type": "function"
    },
    {
      "inputs": [
        {
          "internalType": "bytes4",
          "name": "interfaceId",
          "type": "bytes4"
        }
      ],
      "name": "supportsInterface",
      "outputs": [
        {
          "internalType": "bool",
          "name": "",
          "type": "bool"
        }
      ],
      "stateMutability": "view",
      "type": "function"
    },
    {
      "inputs": [],
      "name": "totalBaseReward",
      "outputs": [
        {
          "internalType": "uint256",
          "name": "",
          "type": "uint256"
        }
      ],
      "stateMutability": "view",
      "type": "function"
    },
    {
      "inputs": [],
      "name": "treasury",
      "outputs": [
        {
          "internalType": "address",
          "name": "",
          "type": "address"
        }
      ],
      "stateMutability": "view",
      "type": "function"
    },
    {
      "inputs": [
        {
          "internalType": "address payable",
          "name": "payee",
          "type": "address"
        }
      ],
      "name": "withdrawPayments",
      "outputs": [],
      "stateMutability": "nonpayable",
      "type": "function"
    }
  ],
  "bytecode": "0x60c06040523480156200001157600080fd5b506040516200263938038062002639833981016040819052620000349162000087565b604051620000429062000079565b604051809103906000f0801580156200005f573d6000803e3d6000fd5b506001600160a01b031660805261ffff1660a052620000b4565b61058c80620020ad83390190565b6000602082840312156200009a57600080fd5b815161ffff81168114620000ad57600080fd5b9392505050565b60805160a051611fbe620000ef600039600081816104a2015261128801526000818161067901528181610edd015261137c0152611fbe6000f3fe6080604052600436106101b75760003560e01c806391d14854116100ec578063ca15c8731161008a578063e2982c2111610064578063e2982c21146104f7578063ed88c68e14610517578063f0f442601461051f578063f301af421461053f57600080fd5b8063ca15c87314610470578063d1f4e3e314610490578063d547741f146104d757600080fd5b8063a217fddf116100c6578063a217fddf14610403578063b15d20da14610418578063b7a3c04c1461043a578063c05751111461045a57600080fd5b806391d14854146103a357806399f4b251146103c35780639b1d3091146103e357600080fd5b8063485cc9551161015957806376ad03bc1161013357806376ad03bc146103375780637f1b5e431461034d57806380f55605146103635780639010d07c1461038357600080fd5b8063485cc955146102cc57806359e96700146102ec57806361d027b3146102ff57600080fd5b8063248a9ca311610195578063248a9ca31461022d5780632f2ff15d1461026c57806331b3eb941461028c57806336568abe146102ac57600080fd5b806301ffc9a7146101bc5780630373a23a146101f1578063158ef93e14610213575b600080fd5b3480156101c857600080fd5b506101dc6101d7366004611bc9565b6105e6565b60405190151581526020015b60405180910390f35b3480156101fd57600080fd5b5061021161020c366004611bf3565b610611565b005b34801561021f57600080fd5b506000546101dc9060ff1681565b34801561023957600080fd5b5061025e610248366004611bf3565b6000908152600160208190526040909120015490565b6040519081526020016101e8565b34801561027857600080fd5b50610211610287366004611c21565b61062f565b34801561029857600080fd5b506102116102a7366004611c51565b61065a565b3480156102b857600080fd5b506102116102c7366004611c21565b6106d8565b3480156102d857600080fd5b506102116102e7366004611c6e565b61075b565b6102116102fa366004611c9c565b61081d565b34801561030b57600080fd5b5060095461031f906001600160a01b031681565b6040516001600160a01b0390911681526020016101e8565b34801561034357600080fd5b5061025e60075481565b34801561035957600080fd5b5061025e60065481565b34801561036f57600080fd5b5060035461031f906001600160a01b031681565b34801561038f57600080fd5b5061031f61039e366004611c9c565b610c05565b3480156103af57600080fd5b506101dc6103be366004611c21565b610c24565b3480156103cf57600080fd5b5060045461031f906001600160a01b031681565b3480156103ef57600080fd5b506102116103fe366004611bf3565b610c4f565b34801561040f57600080fd5b5061025e600081565b34801561042457600080fd5b5061025e600080516020611f6983398151915281565b34801561044657600080fd5b50610211610455366004611cbe565b610c6d565b34801561046657600080fd5b5061025e60085481565b34801561047c57600080fd5b5061025e61048b366004611bf3565b610e7e565b34801561049c57600080fd5b506104c47f000000000000000000000000000000000000000000000000000000000000000081565b60405161ffff90911681526020016101e8565b3480156104e357600080fd5b506102116104f2366004611c21565b610e95565b34801561050357600080fd5b5061025e610512366004611c51565b610ebb565b610211610f4a565b34801561052b57600080fd5b5061021161053a366004611c51565b610f63565b34801561054b57600080fd5b506105a461055a366004611bf3565b600560205260009081526040902080546001909101546001600160801b0380831692600160801b908190048216929182169164ffffffffff918104821691600160a81b9091041685565b604080516001600160801b0396871681529486166020860152929094169183019190915264ffffffffff9081166060830152909116608082015260a0016101e8565b60006001600160e01b03198216635a05180f60e01b148061060b575061060b82610f9e565b92915050565b600080516020611f6983398151915261062981610fd3565b50600755565b6000828152600160208190526040909120015461064b81610fd3565b6106558383610fe0565b505050565b6040516351cff8d960e01b81526001600160a01b0382811660048301527f000000000000000000000000000000000000000000000000000000000000000016906351cff8d990602401600060405180830381600087803b1580156106bd57600080fd5b505af11580156106d1573d6000803e3d6000fd5b5050505050565b6001600160a01b038116331461074d5760405162461bcd60e51b815260206004820152602f60248201527f416363657373436f6e74726f6c3a2063616e206f6e6c792072656e6f756e636560448201526e103937b632b9903337b91039b2b63360891b60648201526084015b60405180910390fd5b6107578282611002565b5050565b60005460ff16156107ba5760405162461bcd60e51b8152602060048201526024808201527f5a67496e697469616c697a61626c653a20616c726561647920696e697469616c6044820152631a5e995960e21b6064820152608401610744565b6000805460ff191660011781556107d7906107d23390565b610fe0565b6107ef600080516020611f6983398151915233610fe0565b600380546001600160a01b039384166001600160a01b03199182161790915560048054929093169116179055565b6003546001600160a01b0316336001600160a01b0316146108805760405162461bcd60e51b815260206004820152601f60248201527f53656e64657220646f6573206e6f742068617665207065726d697373696f6e006044820152606401610744565b6000612710600854346108939190611d0c565b61089d9190611d41565b905080156108bb576009546108bb906001600160a01b031682611024565b60006108c78234611d55565b9050826000816101006108dc61040080611d0c565b6108e890610400611d0c565b6108f3906008611d0c565b6108fd9190611d41565b6109079085611d0c565b6109119190611d41565b9050600061091f8388611d68565b9050600061010061093261040080611d0c565b61093e90610400611d0c565b610949906008611d0c565b6109539190611d41565b61095d9089611d7b565b61010061096c61040080611d0c565b61097890610400611d0c565b610983906008611d0c565b61098d9190611d41565b6109979190611d55565b9050600060016101006109ac61040080611d0c565b6109b890610400611d0c565b6109c3906008611d0c565b6109cd9190611d41565b6109d7848c611d68565b6109e19190611d41565b6109eb9190611d55565b905060006101006109fe61040080611d0c565b610a0a90610400611d0c565b610a15906008611d0c565b610a1f9190611d41565b610a2a600186611d55565b610a349190611d7b565b610a3f906001611d68565b90506000610100610a5261040080611d0c565b610a5e90610400611d0c565b610a69906008611d0c565b610a739190611d41565b610a7d8387611d55565b610a879190611d41565b90506000610100610a9a61040080611d0c565b610aa690610400611d0c565b610ab1906008611d0c565b610abb9190611d41565b610ac6836001611d68565b610ad09190611d0c565b86149050818403610af9576000848152600560205260409020610af490348361113d565b610bf7565b610b56610100610b0b61040080611d0c565b610b1790610400611d0c565b610b22906008611d0c565b610b2c9190611d41565b610b36878a611d0c565b610b409190611d41565b600086815260056020526040902090600161113d565b6000610b63856001611d68565b90505b82811015610b9a576000818152600560205260409020610b889089600161113d565b80610b9281611d8f565b915050610b66565b50610bf7610100610bad61040080611d0c565b610bb990610400611d0c565b610bc4906008611d0c565b610bce9190611d41565b610bd8858a611d0c565b610be29190611d41565b6000848152600560205260409020908361113d565b505050505050505050505050565b6000828152600260205260408120610c1d9083611271565b9392505050565b60009182526001602090815260408084206001600160a01b0393909316845291905290205460ff1690565b600080516020611f69833981519152610c6781610fd3565b50600855565b6004546001600160a01b0316336001600160a01b031614610cd05760405162461bcd60e51b815260206004820152601f60248201527f53656e64657220646f6573206e6f742068617665207065726d697373696f6e006044820152606401610744565b6000838152600560209081526040808320815160a08101835281546001600160801b038082168352600160801b918290048116958301959095526001909201549384169281019290925264ffffffffff90830481166060830152600160a81b909204909116608082015290610d448261127d565b9050610d5082826112ad565b6000610d5b836112fc565b60008781526005602090815260408083208751928801516001600160801b03938416600160801b9185168202178255918801516001909101805460608a015160808b0151939095166001600160a81b03199091161764ffffffffff9485169093029290921764ffffffffff60a81b1916600160a81b93909116929092029190911790556007549192505060008160065411610df857600654610dfa565b815b9050610e068184611d68565b92508060066000828254610e1a9190611d55565b90915550508215610e7457610e2f878461135d565b866001600160a01b0316887f83617a1b0f847971f005bd162dde513cfe93df96e6293c3bbb5fe9c40629dd4c85604051610e6b91815260200190565b60405180910390a35b5050505050505050565b600081815260026020526040812061060b906113de565b60008281526001602081905260409091200154610eb181610fd3565b6106558383611002565b6040516371d4ed8d60e11b81526001600160a01b0382811660048301526000917f00000000000000000000000000000000000000000000000000000000000000009091169063e3a9db1a90602401602060405180830381865afa158015610f26573d6000803e3d6000fd5b505050506040513d601f19601f8201168201806040525081019061060b9190611da8565b3460066000828254610f5c9190611d68565b9091555050565b600080516020611f69833981519152610f7b81610fd3565b50600980546001600160a01b0319166001600160a01b0392909216919091179055565b60006001600160e01b03198216637965db0b60e01b148061060b57506301ffc9a760e01b6001600160e01b031983161461060b565b610fdd81336113e8565b50565b610fea8282611441565b600082815260026020526040902061065590826114ac565b61100c82826114c1565b60008281526002602052604090206106559082611528565b804710156110745760405162461bcd60e51b815260206004820152601d60248201527f416464726573733a20696e73756666696369656e742062616c616e63650000006044820152606401610744565b6000826001600160a01b03168260405160006040518083038185875af1925050503d80600081146110c1576040519150601f19603f3d011682016040523d82523d6000602084013e6110c6565b606091505b50509050806106555760405162461bcd60e51b815260206004820152603a60248201527f416464726573733a20756e61626c6520746f2073656e642076616c75652c207260448201527f6563697069656e74206d617920686176652072657665727465640000000000006064820152608401610744565b6001600160801b038211156111865760405162461bcd60e51b815260206004820152600f60248201526e526577617264206f766572666c6f7760881b6044820152606401610744565b6001830154600160801b900464ffffffffff16156111e65760405162461bcd60e51b815260206004820181905260248201527f526577617264206974656d20686173206265656e20696e697469616c697a65646044820152606401610744565b8254829084906000906112039084906001600160801b0316611dc1565b92506101000a8154816001600160801b0302191690836001600160801b031602179055508015610655575050600101805469ffffffffffffffffffff60801b1916600160801b4264ffffffffff1690810264ffffffffff60a81b191691909117600160a81b91909102179055565b6000610c1d838361153d565b600061060b8261ffff7f000000000000000000000000000000000000000000000000000000000000000016611567565b80826000018181516112bf9190611de1565b6001600160801b03169052506020820180518291906112df908390611dc1565b6001600160801b03169052505064ffffffffff4216608090910152565b600080600283602001516113109190611e01565b905080836020018181516113249190611de1565b6001600160801b0316905250604083018051829190611344908390611dc1565b6001600160801b03908116909152919091169392505050565b60405163f340fa0160e01b81526001600160a01b0383811660048301527f0000000000000000000000000000000000000000000000000000000000000000169063f340fa019083906024016000604051808303818588803b1580156113c157600080fd5b505af11580156113d5573d6000803e3d6000fd5b50505050505050565b600061060b825490565b6113f28282610c24565b610757576113ff81611670565b61140a836020611682565b60405160200161141b929190611e4b565b60408051601f198184030181529082905262461bcd60e51b825261074491600401611ec0565b61144b8282610c24565b6107575760008281526001602081815260408084206001600160a01b0386168086529252808420805460ff19169093179092559051339285917f2f8788117e7eff1d82e926ec794901d17c78024a50270940304540a733656f0d9190a45050565b6000610c1d836001600160a01b03841661181e565b6114cb8282610c24565b156107575760008281526001602090815260408083206001600160a01b0385168085529252808320805460ff1916905551339285917ff6391f5c32d9c69d2a47ea670b442974b53935d1edc7fd64eb21e047a839171b9190a45050565b6000610c1d836001600160a01b03841661186d565b600082600001828154811061155457611554611ef3565b9060005260206000200154905092915050565b6000826060015164ffffffffff166000036115845750600061060b565b6000836080015164ffffffffff164261159d9190611d55565b6115a9906103e8611d0c565b905060006103e86115bc601f600c611d0c565b6115c99062015180611d0c565b6115d5906103e8611d0c565b68010000000000000000866115fb700171547652b82fe1777d0ffda0d23a7d1187611d0c565b6116059190611d0c565b61160f9190611d41565b6116199190611d41565b6116239190611d41565b9050600061163082611967565b61163e90600160601b611d55565b8651909150600160601b9061165c906001600160801b031683611d0c565b6116669190611d41565b9695505050505050565b606061060b6001600160a01b03831660145b60606000611691836002611d0c565b61169c906002611d68565b67ffffffffffffffff8111156116b4576116b4611f09565b6040519080825280601f01601f1916602001820160405280156116de576020820181803683370190505b509050600360fc1b816000815181106116f9576116f9611ef3565b60200101906001600160f81b031916908160001a905350600f60fb1b8160018151811061172857611728611ef3565b60200101906001600160f81b031916908160001a905350600061174c846002611d0c565b611757906001611d68565b90505b60018111156117cf576f181899199a1a9b1b9c1cb0b131b232b360811b85600f166010811061178b5761178b611ef3565b1a60f81b8282815181106117a1576117a1611ef3565b60200101906001600160f81b031916908160001a90535060049490941c936117c881611f1f565b905061175a565b508315610c1d5760405162461bcd60e51b815260206004820181905260248201527f537472696e67733a20686578206c656e67746820696e73756666696369656e746044820152606401610744565b60008181526001830160205260408120546118655750815460018181018455600084815260208082209093018490558454848252828601909352604090209190915561060b565b50600061060b565b60008181526001830160205260408120548015611956576000611891600183611d55565b85549091506000906118a590600190611d55565b905081811461190a5760008660000182815481106118c5576118c5611ef3565b90600052602060002001549050808760000184815481106118e8576118e8611ef3565b6000918252602080832090910192909255918252600188019052604090208390555b855486908061191b5761191b611f36565b60019003818190600052602060002001600090559055856001016000868152602001908152602001600020600090556001935050505061060b565b600091505061060b565b5092915050565b6000663fffffffffffff821667ffc00000000000008316604084901c8361199561199085611f4c565b611b26565b905066400000000000008316156119bc576fffd3a751c0f7e10bd3b9f8ae012fbe060260801c5b66800000000000008316156119e1576fffa756521c8daed19f3a1b48fb94c5890260801c5b670100000000000000831615611a07576fff4ecb59511ec8a5301ba217ef18dd7c0260801c5b670200000000000000831615611a2d576ffe9e115c7b8f884badd25995e79d2f090260801c5b670400000000000000831615611a53576ffd3e0c0cf486c174853f3a5931e0ee030260801c5b670800000000000000831615611a79576ffa83b2db722a033a7c25bb14315d7fcc0260801c5b671000000000000000831615611a9f576ff5257d152486cc2c7b9d0c7aed980fc30260801c5b672000000000000000831615611ac5576feac0c6e7dd24392ed02d75b3706e54fa0260801c5b674000000000000000831615611aeb576fd744fccad69d6af439a68bb9902d3fde0260801c5b678000000000000000831615611b11576fb504f333f9de6484597d89b3754abe9f0260801c5b611b1c82601f611d68565b1c95945050505050565b600081600003611b3b57506001607f1b919050565b603f82901b808002607f90811d90818302811d90818402811d906f7afef7fe0b163aa1bc5ac1bb25cd7f2a840260801d6fb17217f7d1cf79abc9e3b39803f2f6af8602821d01600160801b01906006906f55411a850de23ea19af62831983789cb8502901d050160186f3b18024f2eeb657d6633a21fbcc04f158302607f1d050160011c9695505050505050565b600060208284031215611bdb57600080fd5b81356001600160e01b031981168114610c1d57600080fd5b600060208284031215611c0557600080fd5b5035919050565b6001600160a01b0381168114610fdd57600080fd5b60008060408385031215611c3457600080fd5b823591506020830135611c4681611c0c565b809150509250929050565b600060208284031215611c6357600080fd5b8135610c1d81611c0c565b60008060408385031215611c8157600080fd5b8235611c8c81611c0c565b91506020830135611c4681611c0c565b60008060408385031215611caf57600080fd5b50508035926020909101359150565b600080600060608486031215611cd357600080fd5b833592506020840135611ce581611c0c565b929592945050506040919091013590565b634e487b7160e01b600052601160045260246000fd5b6000816000190483118215151615611d2657611d26611cf6565b500290565b634e487b7160e01b600052601260045260246000fd5b600082611d5057611d50611d2b565b500490565b8181038181111561060b5761060b611cf6565b8082018082111561060b5761060b611cf6565b600082611d8a57611d8a611d2b565b500690565b600060018201611da157611da1611cf6565b5060010190565b600060208284031215611dba57600080fd5b5051919050565b6001600160801b0381811683821601908082111561196057611960611cf6565b6001600160801b0382811682821603908082111561196057611960611cf6565b60006001600160801b0380841680611e1b57611e1b611d2b565b92169190910492915050565b60005b83811015611e42578181015183820152602001611e2a565b50506000910152565b7f416363657373436f6e74726f6c3a206163636f756e7420000000000000000000815260008351611e83816017850160208801611e27565b7001034b99036b4b9b9b4b733903937b6329607d1b6017918401918201528351611eb4816028840160208801611e27565b01602801949350505050565b6020815260008251806020840152611edf816040850160208701611e27565b601f01601f19169190910160400192915050565b634e487b7160e01b600052603260045260246000fd5b634e487b7160e01b600052604160045260246000fd5b600081611f2e57611f2e611cf6565b506000190190565b634e487b7160e01b600052603160045260246000fd5b6000600160ff1b8201611f6157611f61611cf6565b506000039056feb9d69e0ca90be54a40811e436234a7f7908b87ff2bec27e64f878b166da8e8e5a264697066735822122003fd097de1d3e0621464bd96594a2a25465e3f46f65c26d969387ec341485cd364736f6c63430008100033608060405234801561001057600080fd5b5061001a3361001f565b61006f565b600080546001600160a01b038381166001600160a01b0319831681178455604051919092169283917f8be0079c531659141344cd1fd0a4f28419497f9722a3daafe3b4186f6b6457e09190a35050565b61050e8061007e6000396000f3fe6080604052600436106100555760003560e01c806351cff8d91461005a578063715018a61461007c5780638da5cb5b14610091578063e3a9db1a146100be578063f2fde38b14610102578063f340fa0114610122575b600080fd5b34801561006657600080fd5b5061007a61007536600461048d565b610135565b005b34801561008857600080fd5b5061007a6101ac565b34801561009d57600080fd5b506000546040516001600160a01b0390911681526020015b60405180910390f35b3480156100ca57600080fd5b506100f46100d936600461048d565b6001600160a01b031660009081526001602052604090205490565b6040519081526020016100b5565b34801561010e57600080fd5b5061007a61011d36600461048d565b6101c0565b61007a61013036600461048d565b61023e565b61013d6102b0565b6001600160a01b0381166000818152600160205260408120805491905590610165908261030a565b816001600160a01b03167f7084f5476618d8e60b11ef0d7d3f06914655adb8793e28ff7f018d4c76d505d5826040516101a091815260200190565b60405180910390a25050565b6101b46102b0565b6101be6000610428565b565b6101c86102b0565b6001600160a01b0381166102325760405162461bcd60e51b815260206004820152602660248201527f4f776e61626c653a206e6577206f776e657220697320746865207a65726f206160448201526564647265737360d01b60648201526084015b60405180910390fd5b61023b81610428565b50565b6102466102b0565b6001600160a01b0381166000908152600160205260408120805434928392916102709084906104b1565b90915550506040518181526001600160a01b038316907f2da466a7b24304f47e87fa2e1e5a81b9831ce54fec19055ce277ca2f39ba42c4906020016101a0565b6000546001600160a01b031633146101be5760405162461bcd60e51b815260206004820181905260248201527f4f776e61626c653a2063616c6c6572206973206e6f7420746865206f776e65726044820152606401610229565b8047101561035a5760405162461bcd60e51b815260206004820152601d60248201527f416464726573733a20696e73756666696369656e742062616c616e63650000006044820152606401610229565b6000826001600160a01b03168260405160006040518083038185875af1925050503d80600081146103a7576040519150601f19603f3d011682016040523d82523d6000602084013e6103ac565b606091505b50509050806104235760405162461bcd60e51b815260206004820152603a60248201527f416464726573733a20756e61626c6520746f2073656e642076616c75652c207260448201527f6563697069656e74206d617920686176652072657665727465640000000000006064820152608401610229565b505050565b600080546001600160a01b038381166001600160a01b0319831681178455604051919092169283917f8be0079c531659141344cd1fd0a4f28419497f9722a3daafe3b4186f6b6457e09190a35050565b6001600160a01b038116811461023b57600080fd5b60006020828403121561049f57600080fd5b81356104aa81610478565b9392505050565b808201808211156104d257634e487b7160e01b600052601160045260246000fd5b9291505056fea2646970667358221220e52cf2b51f0a8d14b10d6c445edb47884f6fbd6d5fbaed7572ef106f818cf48064736f6c63430008100033",
  "linkReferences": {},
  "deployedLinkReferences": {}
}