{
  "_format": "hh-sol-artifact-1",
  "contractName": "ChunkDecayReward",
  "sourceName": "contracts/reward/ChunkDecayReward.sol",
  "abi": [
    {
      "inputs": [
        {
          "internalType": "address",
          "name": "book_",
          "type": "address"
        },
        {
          "internalType": "uint16",
          "name": "annualMilliDecayRate_",
          "type": "uint16"
        }
      ],
      "stateMutability": "nonpayable",
      "type": "constructor"
    },
    {
      "anonymous": false,
      "inputs": [
        {
          "indexed": true,
          "internalType": "uint256",
          "name": "pricingIndex",
          "type": "uint256"
        },
        {
          "indexed": true,
          "internalType": "address",
          "name": "beneficiary",
          "type": "address"
        },
        {
          "indexed": false,
          "internalType": "uint256",
          "name": "amount",
          "type": "uint256"
        }
      ],
      "name": "DistributeReward",
      "type": "event"
    },
    {
      "inputs": [],
      "name": "annualMilliDecayRate",
      "outputs": [
        {
          "internalType": "uint16",
          "name": "",
          "type": "uint16"
        }
      ],
      "stateMutability": "view",
      "type": "function"
    },
    {
      "inputs": [],
      "name": "book",
      "outputs": [
        {
          "internalType": "contract AddressBook",
          "name": "",
          "type": "address"
        }
      ],
      "stateMutability": "view",
      "type": "function"
    },
    {
      "inputs": [
        {
          "internalType": "uint256",
          "name": "pricingIndex",
          "type": "uint256"
        },
        {
          "internalType": "address payable",
          "name": "beneficiary",
          "type": "address"
        },
        {
          "internalType": "bytes32",
          "name": "",
          "type": "bytes32"
        }
      ],
      "name": "claimMineReward",
      "outputs": [],
      "stateMutability": "nonpayable",
      "type": "function"
    },
    {
      "inputs": [
        {
          "internalType": "uint256",
          "name": "beforeLength",
          "type": "uint256"
        },
        {
          "internalType": "uint256",
          "name": "chargedSectors",
          "type": "uint256"
        }
      ],
      "name": "fillReward",
      "outputs": [],
      "stateMutability": "payable",
      "type": "function"
    },
    {
      "inputs": [
        {
          "internalType": "uint256",
          "name": "",
          "type": "uint256"
        }
      ],
      "name": "rewards",
      "outputs": [
        {
          "internalType": "uint128",
          "name": "lockedReward",
          "type": "uint128"
        },
        {
          "internalType": "uint128",
          "name": "claimableReward",
          "type": "uint128"
        },
        {
          "internalType": "uint128",
          "name": "distributedReward",
          "type": "uint128"
        },
        {
          "internalType": "uint40",
          "name": "startTime",
          "type": "uint40"
        },
        {
          "internalType": "uint40",
          "name": "lastUpdate",
          "type": "uint40"
        }
      ],
      "stateMutability": "view",
      "type": "function"
    }
  ],
  "bytecode": "0x60c060405234801561001057600080fd5b5060405161111e38038061111e83398101604081905261002f91610049565b6001600160a01b0390911660805261ffff1660a052610096565b6000806040838503121561005c57600080fd5b82516001600160a01b038116811461007357600080fd5b602084015190925061ffff8116811461008b57600080fd5b809150509250929050565b60805160a0516110506100ce6000396000818160e701526109ea0152600081816061015281816101c5015261063401526110506000f3fe60806040526004361061004a5760003560e01c806305a8da721461004f57806359e96700146100a0578063b7a3c04c146100b5578063d1f4e3e3146100d5578063f301af421461011c575b600080fd5b34801561005b57600080fd5b506100837f000000000000000000000000000000000000000000000000000000000000000081565b6040516001600160a01b0390911681526020015b60405180910390f35b6100b36100ae366004610e30565b6101c3565b005b3480156100c157600080fd5b506100b36100d0366004610e6a565b610632565b3480156100e157600080fd5b506101097f000000000000000000000000000000000000000000000000000000000000000081565b60405161ffff9091168152602001610097565b34801561012857600080fd5b50610181610137366004610ea2565b600060208190529081526040902080546001909101546001600160801b0380831692600160801b908190048216929182169164ffffffffff918104821691600160a81b9091041685565b604080516001600160801b0396871681529486166020860152929094169183019190915264ffffffffff9081166060830152909116608082015260a001610097565b7f00000000000000000000000000000000000000000000000000000000000000006001600160a01b03166380f556056040518163ffffffff1660e01b8152600401602060405180830381865afa158015610221573d6000803e3d6000fd5b505050506040513d601f19601f820116820180604052508101906102459190610ebb565b6001600160a01b0316336001600160a01b0316146102aa5760405162461bcd60e51b815260206004820152601f60248201527f53656e64657220646f6573206e6f742068617665207065726d697373696f6e0060448201526064015b60405180910390fd5b806000816101006102bd61040080610ef5565b6102c990610400610ef5565b6102d4906008610ef5565b6102de9190610f2a565b6102e89034610ef5565b6102f29190610f2a565b905060006103008386610f3e565b9050600061010061031361040080610ef5565b61031f90610400610ef5565b61032a906008610ef5565b6103349190610f2a565b61033e9087610f51565b61010061034d61040080610ef5565b61035990610400610ef5565b610364906008610ef5565b61036e9190610f2a565b6103789190610f65565b90506000600161010061038d61040080610ef5565b61039990610400610ef5565b6103a4906008610ef5565b6103ae9190610f2a565b6103b8848a610f3e565b6103c29190610f2a565b6103cc9190610f65565b905060006101006103df61040080610ef5565b6103eb90610400610ef5565b6103f6906008610ef5565b6104009190610f2a565b61040b600186610f65565b6104159190610f51565b610420906001610f3e565b9050600061010061043361040080610ef5565b61043f90610400610ef5565b61044a906008610ef5565b6104549190610f2a565b61045e8387610f65565b6104689190610f2a565b9050600061010061047b61040080610ef5565b61048790610400610ef5565b610492906008610ef5565b61049c9190610f2a565b6104a7836001610f3e565b6104b19190610ef5565b86149050818403610527576105226101006104ce61040080610ef5565b6104da90610400610ef5565b6104e5906008610ef5565b6104ef9190610f2a565b6104f98c89610f65565b610503908a610ef5565b61050d9190610f2a565b600086815260208190526040902090836108a8565b610626565b61058461010061053961040080610ef5565b61054590610400610ef5565b610550906008610ef5565b61055a9190610f2a565b610564878a610ef5565b61056e9190610f2a565b60008681526020819052604090209060016108a8565b6105e061010061059661040080610ef5565b6105a290610400610ef5565b6105ad906008610ef5565b6105b79190610f2a565b6105c1858a610ef5565b6105cb9190610f2a565b600084815260208190526040902090836108a8565b60006105ed856001610f3e565b90505b82811015610624576000818152602081905260409020610612908960016108a8565b8061061c81610f78565b9150506105f0565b505b50505050505050505050565b7f00000000000000000000000000000000000000000000000000000000000000006001600160a01b03166399f4b2516040518163ffffffff1660e01b8152600401602060405180830381865afa158015610690573d6000803e3d6000fd5b505050506040513d601f19601f820116820180604052508101906106b49190610ebb565b6001600160a01b0316336001600160a01b0316146107145760405162461bcd60e51b815260206004820152601f60248201527f53656e64657220646f6573206e6f742068617665207065726d697373696f6e0060448201526064016102a1565b600083815260208181526040808320815160a08101835281546001600160801b038082168352600160801b918290048116958301959095526001909201549384169281019290925264ffffffffff90830481166060830152600160a81b909204909116608082015290610786826109df565b90506107928282610a15565b600061079d83610a64565b600087815260208181526040918290208651918701516001600160801b03928316600160801b91841682021782559287015160019091018054606089015160808a0151939094166001600160a81b03199091161764ffffffffff9384169094029390931764ffffffffff60a81b1916600160a81b9290911691909102179055905080156108a0576040516001600160a01b0386169082156108fc029083906000818181858888f1935050505015801561085a573d6000803e3d6000fd5b50846001600160a01b0316867f83617a1b0f847971f005bd162dde513cfe93df96e6293c3bbb5fe9c40629dd4c8360405161089791815260200190565b60405180910390a35b505050505050565b6001600160801b038211156108f15760405162461bcd60e51b815260206004820152600f60248201526e526577617264206f766572666c6f7760881b60448201526064016102a1565b6001830154600160801b900464ffffffffff16156109515760405162461bcd60e51b815260206004820181905260248201527f526577617264206974656d20686173206265656e20696e697469616c697a656460448201526064016102a1565b82548290849060009061096e9084906001600160801b0316610f91565b92506101000a8154816001600160801b0302191690836001600160801b0316021790555080156109da5760018301805469ffffffffffffffffffff60801b1916600160801b4264ffffffffff1690810264ffffffffff60a81b191691909117600160a81b919091021790555b505050565b6000610a0f8261ffff7f000000000000000000000000000000000000000000000000000000000000000016610ac5565b92915050565b8082600001818151610a279190610fb8565b6001600160801b0316905250602082018051829190610a47908390610f91565b6001600160801b03169052505064ffffffffff4216608090910152565b60008060028360200151610a789190610fd8565b90508083602001818151610a8c9190610fb8565b6001600160801b0316905250604083018051829190610aac908390610f91565b6001600160801b03908116909152919091169392505050565b6000826060015164ffffffffff16600003610ae257506000610a0f565b6000836080015164ffffffffff1642610afb9190610f65565b610b07906103e8610ef5565b905060006103e8610b1a601f600c610ef5565b610b279062015180610ef5565b610b33906103e8610ef5565b6801000000000000000086610b59700171547652b82fe1777d0ffda0d23a7d1187610ef5565b610b639190610ef5565b610b6d9190610f2a565b610b779190610f2a565b610b819190610f2a565b90506000610b8e82610bce565b610b9c90600160601b610f65565b8651909150600160601b90610bba906001600160801b031683610ef5565b610bc49190610f2a565b9695505050505050565b6000663fffffffffffff821667ffc00000000000008316604084901c83610bfc610bf785610ffe565b610d8d565b90506640000000000000831615610c23576fffd3a751c0f7e10bd3b9f8ae012fbe060260801c5b6680000000000000831615610c48576fffa756521c8daed19f3a1b48fb94c5890260801c5b670100000000000000831615610c6e576fff4ecb59511ec8a5301ba217ef18dd7c0260801c5b670200000000000000831615610c94576ffe9e115c7b8f884badd25995e79d2f090260801c5b670400000000000000831615610cba576ffd3e0c0cf486c174853f3a5931e0ee030260801c5b670800000000000000831615610ce0576ffa83b2db722a033a7c25bb14315d7fcc0260801c5b671000000000000000831615610d06576ff5257d152486cc2c7b9d0c7aed980fc30260801c5b672000000000000000831615610d2c576feac0c6e7dd24392ed02d75b3706e54fa0260801c5b674000000000000000831615610d52576fd744fccad69d6af439a68bb9902d3fde0260801c5b678000000000000000831615610d78576fb504f333f9de6484597d89b3754abe9f0260801c5b610d8382601f610f3e565b1c95945050505050565b600081600003610da257506001607f1b919050565b603f82901b808002607f90811d90818302811d90818402811d906f7afef7fe0b163aa1bc5ac1bb25cd7f2a840260801d6fb17217f7d1cf79abc9e3b39803f2f6af8602821d01600160801b01906006906f55411a850de23ea19af62831983789cb8502901d050160186f3b18024f2eeb657d6633a21fbcc04f158302607f1d050160011c9695505050505050565b60008060408385031215610e4357600080fd5b50508035926020909101359150565b6001600160a01b0381168114610e6757600080fd5b50565b600080600060608486031215610e7f57600080fd5b833592506020840135610e9181610e52565b929592945050506040919091013590565b600060208284031215610eb457600080fd5b5035919050565b600060208284031215610ecd57600080fd5b8151610ed881610e52565b9392505050565b634e487b7160e01b600052601160045260246000fd5b6000816000190483118215151615610f0f57610f0f610edf565b500290565b634e487b7160e01b600052601260045260246000fd5b600082610f3957610f39610f14565b500490565b80820180821115610a0f57610a0f610edf565b600082610f6057610f60610f14565b500690565b81810381811115610a0f57610a0f610edf565b600060018201610f8a57610f8a610edf565b5060010190565b6001600160801b03818116838216019080821115610fb157610fb1610edf565b5092915050565b6001600160801b03828116828216039080821115610fb157610fb1610edf565b60006001600160801b0380841680610ff257610ff2610f14565b92169190910492915050565b6000600160ff1b820161101357611013610edf565b506000039056fea2646970667358221220489a0dab95436535193680b8336f985d2842231ec983aa5c032e0014c2e8d4d964736f6c63430008100033",
  "linkReferences": {},
  "deployedLinkReferences": {}
}