{
  "_format": "hh-sol-artifact-1",
  "contractName": "ChunkDecayReward",
  "sourceName": "contracts/reward/ChunkDecayReward.sol",
  "abi": [
    {
      "inputs": [
        {
          "internalType": "address",
          "name": "book_",
          "type": "address"
        },
        {
          "internalType": "uint16",
          "name": "annualMilliDecayRate_",
          "type": "uint16"
        }
      ],
      "stateMutability": "nonpayable",
      "type": "constructor"
    },
    {
      "anonymous": false,
      "inputs": [
        {
          "indexed": true,
          "internalType": "uint256",
          "name": "pricingIndex",
          "type": "uint256"
        },
        {
          "indexed": true,
          "internalType": "address",
          "name": "beneficiary",
          "type": "address"
        },
        {
          "indexed": false,
          "internalType": "uint256",
          "name": "amount",
          "type": "uint256"
        }
      ],
      "name": "DistributeReward",
      "type": "event"
    },
    {
      "inputs": [],
      "name": "annualMilliDecayRate",
      "outputs": [
        {
          "internalType": "uint16",
          "name": "",
          "type": "uint16"
        }
      ],
      "stateMutability": "view",
      "type": "function"
    },
    {
      "inputs": [],
      "name": "book",
      "outputs": [
        {
          "internalType": "contract AddressBook",
          "name": "",
          "type": "address"
        }
      ],
      "stateMutability": "view",
      "type": "function"
    },
    {
      "inputs": [
        {
          "internalType": "uint256",
          "name": "pricingIndex",
          "type": "uint256"
        },
        {
          "internalType": "address payable",
          "name": "beneficiary",
          "type": "address"
        }
      ],
      "name": "claimMineReward",
      "outputs": [],
      "stateMutability": "nonpayable",
      "type": "function"
    },
    {
      "inputs": [
        {
          "internalType": "uint256",
          "name": "beforeLength",
          "type": "uint256"
        },
        {
          "internalType": "uint256",
          "name": "chargedSectors",
          "type": "uint256"
        }
      ],
      "name": "fillReward",
      "outputs": [],
      "stateMutability": "payable",
      "type": "function"
    },
    {
      "inputs": [
        {
          "internalType": "uint256",
          "name": "",
          "type": "uint256"
        }
      ],
      "name": "rewards",
      "outputs": [
        {
          "internalType": "uint128",
          "name": "lockedReward",
          "type": "uint128"
        },
        {
          "internalType": "uint128",
          "name": "claimableReward",
          "type": "uint128"
        },
        {
          "internalType": "uint128",
          "name": "distributedReward",
          "type": "uint128"
        },
        {
          "internalType": "uint40",
          "name": "startTime",
          "type": "uint40"
        },
        {
          "internalType": "uint40",
          "name": "lastUpdate",
          "type": "uint40"
        }
      ],
      "stateMutability": "view",
      "type": "function"
    }
  ],
  "bytecode": "0x60c060405234801561001057600080fd5b5060405161111538038061111583398101604081905261002f91610049565b6001600160a01b0390911660805261ffff1660a052610096565b6000806040838503121561005c57600080fd5b82516001600160a01b038116811461007357600080fd5b602084015190925061ffff8116811461008b57600080fd5b809150509250929050565b60805160a0516110476100ce6000396000818160e701526109e90152600081816061015281816101c5015261063401526110476000f3fe60806040526004361061004a5760003560e01c806305a8da721461004f57806359e96700146100a0578063ccec92c4146100b5578063d1f4e3e3146100d5578063f301af421461011c575b600080fd5b34801561005b57600080fd5b506100837f000000000000000000000000000000000000000000000000000000000000000081565b6040516001600160a01b0390911681526020015b60405180910390f35b6100b36100ae366004610e2f565b6101c3565b005b3480156100c157600080fd5b506100b36100d0366004610e69565b610632565b3480156100e157600080fd5b506101097f000000000000000000000000000000000000000000000000000000000000000081565b60405161ffff9091168152602001610097565b34801561012857600080fd5b50610181610137366004610e99565b600060208190529081526040902080546001909101546001600160801b0380831692600160801b908190048216929182169164ffffffffff918104821691600160a81b9091041685565b604080516001600160801b0396871681529486166020860152929094169183019190915264ffffffffff9081166060830152909116608082015260a001610097565b7f00000000000000000000000000000000000000000000000000000000000000006001600160a01b03166380f556056040518163ffffffff1660e01b8152600401602060405180830381865afa158015610221573d6000803e3d6000fd5b505050506040513d601f19601f820116820180604052508101906102459190610eb2565b6001600160a01b0316336001600160a01b0316146102aa5760405162461bcd60e51b815260206004820152601f60248201527f53656e64657220646f6573206e6f742068617665207065726d697373696f6e0060448201526064015b60405180910390fd5b806000816101006102bd61040080610eec565b6102c990610400610eec565b6102d4906008610eec565b6102de9190610f21565b6102e89034610eec565b6102f29190610f21565b905060006103008386610f35565b9050600061010061031361040080610eec565b61031f90610400610eec565b61032a906008610eec565b6103349190610f21565b61033e9087610f48565b61010061034d61040080610eec565b61035990610400610eec565b610364906008610eec565b61036e9190610f21565b6103789190610f5c565b90506000600161010061038d61040080610eec565b61039990610400610eec565b6103a4906008610eec565b6103ae9190610f21565b6103b8848a610f35565b6103c29190610f21565b6103cc9190610f5c565b905060006101006103df61040080610eec565b6103eb90610400610eec565b6103f6906008610eec565b6104009190610f21565b61040b600186610f5c565b6104159190610f48565b610420906001610f35565b9050600061010061043361040080610eec565b61043f90610400610eec565b61044a906008610eec565b6104549190610f21565b61045e8387610f5c565b6104689190610f21565b9050600061010061047b61040080610eec565b61048790610400610eec565b610492906008610eec565b61049c9190610f21565b6104a7836001610f35565b6104b19190610eec565b86149050818403610527576105226101006104ce61040080610eec565b6104da90610400610eec565b6104e5906008610eec565b6104ef9190610f21565b6104f98c89610f5c565b610503908a610eec565b61050d9190610f21565b600086815260208190526040902090836108a7565b610626565b61058461010061053961040080610eec565b61054590610400610eec565b610550906008610eec565b61055a9190610f21565b610564878a610eec565b61056e9190610f21565b60008681526020819052604090209060016108a7565b6105e061010061059661040080610eec565b6105a290610400610eec565b6105ad906008610eec565b6105b79190610f21565b6105c1858a610eec565b6105cb9190610f21565b600084815260208190526040902090836108a7565b60006105ed856001610f35565b90505b82811015610624576000818152602081905260409020610612908960016108a7565b8061061c81610f6f565b9150506105f0565b505b50505050505050505050565b7f00000000000000000000000000000000000000000000000000000000000000006001600160a01b03166399f4b2516040518163ffffffff1660e01b8152600401602060405180830381865afa158015610690573d6000803e3d6000fd5b505050506040513d601f19601f820116820180604052508101906106b49190610eb2565b6001600160a01b0316336001600160a01b0316146107145760405162461bcd60e51b815260206004820152601f60248201527f53656e64657220646f6573206e6f742068617665207065726d697373696f6e0060448201526064016102a1565b600082815260208181526040808320815160a08101835281546001600160801b038082168352600160801b918290048116958301959095526001909201549384169281019290925264ffffffffff90830481166060830152600160a81b909204909116608082015290610786826109de565b90506107928282610a14565b600061079d83610a63565b600086815260208181526040918290208651918701516001600160801b03928316600160801b91841682021782559287015160019091018054606089015160808a0151939094166001600160a81b03199091161764ffffffffff9384169094029390931764ffffffffff60a81b1916600160a81b9290911691909102179055905080156108a0576040516001600160a01b0385169082156108fc029083906000818181858888f1935050505015801561085a573d6000803e3d6000fd5b50836001600160a01b0316857f83617a1b0f847971f005bd162dde513cfe93df96e6293c3bbb5fe9c40629dd4c8360405161089791815260200190565b60405180910390a35b5050505050565b6001600160801b038211156108f05760405162461bcd60e51b815260206004820152600f60248201526e526577617264206f766572666c6f7760881b60448201526064016102a1565b6001830154600160801b900464ffffffffff16156109505760405162461bcd60e51b815260206004820181905260248201527f526577617264206974656d20686173206265656e20696e697469616c697a656460448201526064016102a1565b82548290849060009061096d9084906001600160801b0316610f88565b92506101000a8154816001600160801b0302191690836001600160801b0316021790555080156109d95760018301805469ffffffffffffffffffff60801b1916600160801b4264ffffffffff1690810264ffffffffff60a81b191691909117600160a81b919091021790555b505050565b6000610a0e8261ffff7f000000000000000000000000000000000000000000000000000000000000000016610ac4565b92915050565b8082600001818151610a269190610faf565b6001600160801b0316905250602082018051829190610a46908390610f88565b6001600160801b03169052505064ffffffffff4216608090910152565b60008060028360200151610a779190610fcf565b90508083602001818151610a8b9190610faf565b6001600160801b0316905250604083018051829190610aab908390610f88565b6001600160801b03908116909152919091169392505050565b6000826060015164ffffffffff16600003610ae157506000610a0e565b6000836080015164ffffffffff1642610afa9190610f5c565b610b06906103e8610eec565b905060006103e8610b19601f600c610eec565b610b269062015180610eec565b610b32906103e8610eec565b6801000000000000000086610b58700171547652b82fe1777d0ffda0d23a7d1187610eec565b610b629190610eec565b610b6c9190610f21565b610b769190610f21565b610b809190610f21565b90506000610b8d82610bcd565b610b9b90600160601b610f5c565b8651909150600160601b90610bb9906001600160801b031683610eec565b610bc39190610f21565b9695505050505050565b6000663fffffffffffff821667ffc00000000000008316604084901c83610bfb610bf685610ff5565b610d8c565b90506640000000000000831615610c22576fffd3a751c0f7e10bd3b9f8ae012fbe060260801c5b6680000000000000831615610c47576fffa756521c8daed19f3a1b48fb94c5890260801c5b670100000000000000831615610c6d576fff4ecb59511ec8a5301ba217ef18dd7c0260801c5b670200000000000000831615610c93576ffe9e115c7b8f884badd25995e79d2f090260801c5b670400000000000000831615610cb9576ffd3e0c0cf486c174853f3a5931e0ee030260801c5b670800000000000000831615610cdf576ffa83b2db722a033a7c25bb14315d7fcc0260801c5b671000000000000000831615610d05576ff5257d152486cc2c7b9d0c7aed980fc30260801c5b672000000000000000831615610d2b576feac0c6e7dd24392ed02d75b3706e54fa0260801c5b674000000000000000831615610d51576fd744fccad69d6af439a68bb9902d3fde0260801c5b678000000000000000831615610d77576fb504f333f9de6484597d89b3754abe9f0260801c5b610d8282601f610f35565b1c95945050505050565b600081600003610da157506001607f1b919050565b603f82901b808002607f90811d90818302811d90818402811d906f7afef7fe0b163aa1bc5ac1bb25cd7f2a840260801d6fb17217f7d1cf79abc9e3b39803f2f6af8602821d01600160801b01906006906f55411a850de23ea19af62831983789cb8502901d050160186f3b18024f2eeb657d6633a21fbcc04f158302607f1d050160011c9695505050505050565b60008060408385031215610e4257600080fd5b50508035926020909101359150565b6001600160a01b0381168114610e6657600080fd5b50565b60008060408385031215610e7c57600080fd5b823591506020830135610e8e81610e51565b809150509250929050565b600060208284031215610eab57600080fd5b5035919050565b600060208284031215610ec457600080fd5b8151610ecf81610e51565b9392505050565b634e487b7160e01b600052601160045260246000fd5b6000816000190483118215151615610f0657610f06610ed6565b500290565b634e487b7160e01b600052601260045260246000fd5b600082610f3057610f30610f0b565b500490565b80820180821115610a0e57610a0e610ed6565b600082610f5757610f57610f0b565b500690565b81810381811115610a0e57610a0e610ed6565b600060018201610f8157610f81610ed6565b5060010190565b6001600160801b03818116838216019080821115610fa857610fa8610ed6565b5092915050565b6001600160801b03828116828216039080821115610fa857610fa8610ed6565b60006001600160801b0380841680610fe957610fe9610f0b565b92169190910492915050565b6000600160ff1b820161100a5761100a610ed6565b506000039056fea2646970667358221220a2e20d610757245e1a4af27058d50f51ecb525c9de479a9fe0867977ecdf5f8064736f6c63430008100033",
  "linkReferences": {},
  "deployedLinkReferences": {}
}