{
  "_format": "hh-sol-artifact-1",
  "contractName": "Cashier",
  "sourceName": "contracts/cashier/Cashier.sol",
  "abi": [
    {
      "inputs": [
        {
          "internalType": "uint256",
          "name": "beforeLength",
          "type": "uint256"
        },
        {
          "internalType": "uint256",
          "name": "uploadSectors",
          "type": "uint256"
        },
        {
          "internalType": "uint256",
          "name": "paddingSectors",
          "type": "uint256"
        }
      ],
      "name": "chargeFee",
      "outputs": [],
      "stateMutability": "nonpayable",
      "type": "function"
    },
    {
      "inputs": [
        {
          "internalType": "uint256",
          "name": "purchaseBytes",
          "type": "uint256"
        }
      ],
      "name": "computePriorityFee",
      "outputs": [
        {
          "internalType": "uint256",
          "name": "",
          "type": "uint256"
        }
      ],
      "stateMutability": "view",
      "type": "function"
    },
    {
      "inputs": [
        {
          "internalType": "uint256",
          "name": "sectors",
          "type": "uint256"
        }
      ],
      "name": "consumeUploadToken",
      "outputs": [],
      "stateMutability": "nonpayable",
      "type": "function"
    },
    {
      "inputs": [],
      "name": "drippingRate",
      "outputs": [
        {
          "internalType": "uint256",
          "name": "",
          "type": "uint256"
        }
      ],
      "stateMutability": "view",
      "type": "function"
    },
    {
      "inputs": [],
      "name": "flow",
      "outputs": [
        {
          "internalType": "address",
          "name": "",
          "type": "address"
        }
      ],
      "stateMutability": "view",
      "type": "function"
    },
    {
      "inputs": [],
      "name": "gauge",
      "outputs": [
        {
          "internalType": "int256",
          "name": "",
          "type": "int256"
        }
      ],
      "stateMutability": "view",
      "type": "function"
    },
    {
      "inputs": [
        {
          "internalType": "address",
          "name": "flow_",
          "type": "address"
        },
        {
          "internalType": "address",
          "name": "mine_",
          "type": "address"
        },
        {
          "internalType": "address",
          "name": "reward_",
          "type": "address"
        },
        {
          "internalType": "address",
          "name": "uploadToken_",
          "type": "address"
        },
        {
          "internalType": "address",
          "name": "stake_",
          "type": "address"
        }
      ],
      "name": "initialize",
      "outputs": [],
      "stateMutability": "payable",
      "type": "function"
    },
    {
      "inputs": [],
      "name": "initialized",
      "outputs": [
        {
          "internalType": "bool",
          "name": "",
          "type": "bool"
        }
      ],
      "stateMutability": "view",
      "type": "function"
    },
    {
      "inputs": [],
      "name": "lastUpdate",
      "outputs": [
        {
          "internalType": "uint256",
          "name": "",
          "type": "uint256"
        }
      ],
      "stateMutability": "view",
      "type": "function"
    },
    {
      "inputs": [],
      "name": "mine",
      "outputs": [
        {
          "internalType": "address",
          "name": "",
          "type": "address"
        }
      ],
      "stateMutability": "view",
      "type": "function"
    },
    {
      "inputs": [],
      "name": "paidFee",
      "outputs": [
        {
          "internalType": "uint256",
          "name": "",
          "type": "uint256"
        }
      ],
      "stateMutability": "view",
      "type": "function"
    },
    {
      "inputs": [],
      "name": "paidUploadAmount",
      "outputs": [
        {
          "internalType": "uint256",
          "name": "",
          "type": "uint256"
        }
      ],
      "stateMutability": "view",
      "type": "function"
    },
    {
      "inputs": [
        {
          "internalType": "uint256",
          "name": "sectors",
          "type": "uint256"
        },
        {
          "internalType": "uint256",
          "name": "maxPrice",
          "type": "uint256"
        },
        {
          "internalType": "uint256",
          "name": "maxTipPrice",
          "type": "uint256"
        }
      ],
      "name": "purchase",
      "outputs": [],
      "stateMutability": "payable",
      "type": "function"
    },
    {
      "inputs": [],
      "name": "refreshGauge",
      "outputs": [],
      "stateMutability": "nonpayable",
      "type": "function"
    },
    {
      "inputs": [],
      "name": "reward",
      "outputs": [
        {
          "internalType": "contract IReward",
          "name": "",
          "type": "address"
        }
      ],
      "stateMutability": "view",
      "type": "function"
    },
    {
      "inputs": [],
      "name": "stake",
      "outputs": [
        {
          "internalType": "address",
          "name": "",
          "type": "address"
        }
      ],
      "stateMutability": "view",
      "type": "function"
    },
    {
      "inputs": [],
      "name": "uploadToken",
      "outputs": [
        {
          "internalType": "contract IUploadToken",
          "name": "",
          "type": "address"
        }
      ],
      "stateMutability": "view",
      "type": "function"
    }
  ],
  "bytecode": "0x608060405234801561001057600080fd5b50610ff4806100206000396000f3fe6080604052600436106100fe5760003560e01c80636e00da9411610095578063a6f19c8411610064578063a6f19c8414610281578063ab378cb714610297578063c0463711146102b7578063d6713eb1146102cd578063da6eb36a146102e357600080fd5b80636e00da9414610222578063709e5fed1461023857806399f4b2511461024e5780639b8b93051461026e57600080fd5b8063343aad82116100d1578063343aad82146101945780633a4b66f1146101b457806346d5b97d146101d457806347e0a8751461020257600080fd5b80631459457a14610103578063158ef93e14610118578063228cb7331461014757806329ada1211461017f575b600080fd5b610116610111366004610e2c565b610303565b005b34801561012457600080fd5b506001546101329060ff1681565b60405190151581526020015b60405180910390f35b34801561015357600080fd5b50603954610167906001600160a01b031681565b6040516001600160a01b03909116815260200161013e565b34801561018b57600080fd5b50610116610387565b3480156101a057600080fd5b50603b54610167906001600160a01b031681565b3480156101c057600080fd5b50603d54610167906001600160a01b031681565b3480156101e057600080fd5b506101f46101ef366004610e91565b610421565b60405190815260200161013e565b34801561020e57600080fd5b50603a54610167906001600160a01b031681565b34801561022e57600080fd5b506101f460355481565b34801561024457600080fd5b506101f460375481565b34801561025a57600080fd5b50603c54610167906001600160a01b031681565b61011661027c366004610eaa565b610604565b34801561028d57600080fd5b506101f460345481565b3480156102a357600080fd5b506101166102b2366004610e91565b610705565b3480156102c357600080fd5b506101f460365481565b3480156102d957600080fd5b506101f460385481565b3480156102ef57600080fd5b506101166102fe366004610eaa565b61079d565b60015460ff16156103675760405162461bcd60e51b8152602060048201526024808201527f5a67496e697469616c697a61626c653a20616c726561647920696e697469616c6044820152631a5e995960e21b60648201526084015b60405180910390fd5b6001805460ff191681179055610380858585858561092d565b5050505050565b6000610391610993565b905060006103e8603554836103a69190610eec565b6103b09190610f0b565b905080603460008282546103c49190610f2d565b909155506103d6905061040080610eec565b6103e290610400610eec565b6103ed90601e610eec565b603454131561041d5761040261040080610eec565b61040e90610400610eec565b61041990601e610eec565b6034555b5050565b6000806000806034541261045a5760345484811061044457506000949350505050565b600092506104528186610f55565b91505061047b565b600060345461046890610f68565b92508290506104778582610f84565b9150505b61048761040080610eec565b61049390610400610eec565b61049e906064610eec565b8111156104df5760405162461bcd60e51b815260206004820152600f60248201526e476175676520756e646572666c6f7760881b604482015260640161035e565b60006104ed61040080610eec565b6104f990610384610eec565b61050790604085901b610f0b565b9050600061051761040080610eec565b61052390610384610eec565b61053190604085901b610f0b565b90506000600160601b61054c6105478585610f55565b6109ae565b6105569190610f55565b90506000610563846109ae565b90506000600160681b82111561058857610581604083901c84610eec565b90506105b3565b600160681b8311156105a25761058182604085901c610eec565b60406105ae8385610eec565b901c90505b602081901c606060646105c861040080610eec565b6105d490610384610eec565b6105e06103e885610eec565b6105ea9190610eec565b6105f49190610f0b565b901c9a9950505050505050505050565b61060c610387565b600061061a61010085610eec565b9050600061062a6103e883610eec565b9050600061063783610421565b905060006106458486610eec565b905060006106538786610eec565b9050806106608486610f84565b11156106a35760405162461bcd60e51b8152602060048201526012602482015271115e18d95959081c1c9a58d9481b1a5b5a5d60721b604482015260640161035e565b60006106c382846106b48789610f84565b6106be9190610f84565b610b9d565b90506106cf8185610bb7565b85603460008282546106e19190610f97565b909155506106fa9050896106f58684610f55565b610cef565b505050505050505050565b6000610719670de0b6b3a764000083610eec565b603a54604051631125ae3960e11b8152336004820152602481018390529192506001600160a01b03169063224b5c7290604401600060405180830381600087803b15801561076657600080fd5b505af115801561077a573d6000803e3d6000fd5b5050505061041d826103e8610100856107939190610eec565b6106f59190610eec565b603b546001600160a01b03163381146107f85760405162461bcd60e51b815260206004820152601f60248201527f53656e64657220646f6573206e6f742068617665207065726d697373696f6e00604482015260640161035e565b82603754101561084a5760405162461bcd60e51b815260206004820152601b60248201527f44617461207375626d697373696f6e206973206e6f7420706169640000000000604482015260640161035e565b60006108568385610f84565b905060006108648287610f84565b905061086f81610d23565b6000603754603854876108829190610eec565b61088c9190610f0b565b905080603860008282546108a09190610f55565b9250508190555085603760008282546108b99190610f55565b90915550506039546040516259e96760e81b815260048101899052602481018590526001600160a01b03909116906359e967009083906044016000604051808303818588803b15801561090b57600080fd5b505af115801561091f573d6000803e3d6000fd5b505050505050505050505050565b603b80546001600160a01b03199081166001600160a01b0388811691909117909255603c80548216878416179055603980548216868416179055603a80548216858416179055603d805490911691831691909117905561098b610993565b505050505050565b600080546109a19042610f55565b426000556103e802919050565b6000663fffffffffffff821667ffc00000000000008316604084901c60a081106109de5750600019949350505050565b60006109e984610d6d565b90506640000000000000831615610a10576f8016302f174676283690dfe44d11d00802607f1c5b6680000000000000831615610a35576f802c6436d0e04f50ff8ce94a6797b3ce02607f1c5b670100000000000000831615610a5b576f8058d7d2d5e5f6b094d589f608ee4aa202607f1c5b670200000000000000831615610a81576f80b1ed4fd999ab6c25335719b6e6fd2002607f1c5b670400000000000000831615610aa7576f8164d1f3bc0307737be56527bd14def402607f1c5b670800000000000000831615610acd576f82cd8698ac2ba1d73e2a475b46520bff02607f1c5b671000000000000000831615610af3576f85aac367cc487b14c5c95b8c2154c1b202607f1c5b672000000000000000831615610b19576f8b95c1e3ea8bd6e6fbe4628758a53c9002607f1c5b674000000000000000831615610b3f576f9837f0518db8a96f46ad23182e42f6f602607f1c5b678000000000000000831615610b65576fb504f333f9de6484597d89b3754abe9f02607f1c5b601f821015610b8357610b7982601f610f55565b81901c9450610b94565b610b8e601f83610f55565b81901b94505b50505050919050565b6000818310610bac5781610bae565b825b90505b92915050565b3481831115610c215780610bcb8385610f55565b1115610c0a5760405162461bcd60e51b815260206004820152600e60248201526d4e6f7420656e6f7567682066656560901b604482015260640161035e565b610c148284610f55565b610c1e9082610f55565b90505b8115610cb55780821115610c6e5760405162461bcd60e51b81526020600482015260146024820152734e6f7420656e6f756768207072696f722066656560601b604482015260640161035e565b610c788282610f55565b603d546040519192506001600160a01b03169083156108fc029084906000818181858888f19350505050158015610cb3573d6000803e3d6000fd5b505b8015610cea57604051339082156108fc029083906000818181858888f19350505050158015610ce8573d6000803e3d6000fd5b505b505050565b8160376000828254610d019190610f84565b925050819055508060386000828254610d1a9190610f84565b90915550505050565b610d2b610387565b610d67610d3a61040080610eec565b610d45906003610eec565b610d5161040080610eec565b610d5d61010085610eec565b6106be9190610f0b565b60355550565b600081600003610d8257506001607f1b919050565b603f82901b808002607f90811d90818302811d90818402811d906f7afef7fe0b163aa1bc5ac1bb25cd7f2a840260801d6fb17217f7d1cf79abc9e3b39803f2f6af8602821d01600160801b01906006906f55411a850de23ea19af62831983789cb8502901d050160186f3b18024f2eeb657d6633a21fbcc04f158302607f1d050160011c9695505050505050565b80356001600160a01b0381168114610e2757600080fd5b919050565b600080600080600060a08688031215610e4457600080fd5b610e4d86610e10565b9450610e5b60208701610e10565b9350610e6960408701610e10565b9250610e7760608701610e10565b9150610e8560808701610e10565b90509295509295909350565b600060208284031215610ea357600080fd5b5035919050565b600080600060608486031215610ebf57600080fd5b505081359360208301359350604090920135919050565b634e487b7160e01b600052601160045260246000fd5b6000816000190483118215151615610f0657610f06610ed6565b500290565b600082610f2857634e487b7160e01b600052601260045260246000fd5b500490565b8082018281126000831280158216821582161715610f4d57610f4d610ed6565b505092915050565b81810381811115610bb157610bb1610ed6565b6000600160ff1b8201610f7d57610f7d610ed6565b5060000390565b80820180821115610bb157610bb1610ed6565b8181036000831280158383131683831282161715610fb757610fb7610ed6565b509291505056fea2646970667358221220689669cbe3e51a4743912f5c5eb694fc95d8677fff8b4d187c71dc11ee006c6c64736f6c63430008100033",
  "linkReferences": {},
  "deployedLinkReferences": {}
}