{
  "_format": "hh-sol-artifact-1",
  "contractName": "Cashier",
  "sourceName": "contracts/cashier/Cashier.sol",
  "abi": [
    {
      "inputs": [
        {
          "internalType": "address",
          "name": "book_",
          "type": "address"
        },
        {
          "internalType": "address",
          "name": "uploadToken_",
          "type": "address"
        },
        {
          "internalType": "address",
          "name": "stake_",
          "type": "address"
        }
      ],
      "stateMutability": "nonpayable",
      "type": "constructor"
    },
    {
      "inputs": [
        {
          "internalType": "uint256",
          "name": "uploadSectors",
          "type": "uint256"
        },
        {
          "internalType": "uint256",
          "name": "paddingSectors",
          "type": "uint256"
        }
      ],
      "name": "chargeFee",
      "outputs": [],
      "stateMutability": "nonpayable",
      "type": "function"
    },
    {
      "inputs": [
        {
          "internalType": "uint256",
          "name": "purchaseBytes",
          "type": "uint256"
        }
      ],
      "name": "computePriorityFee",
      "outputs": [
        {
          "internalType": "uint256",
          "name": "",
          "type": "uint256"
        }
      ],
      "stateMutability": "view",
      "type": "function"
    },
    {
      "inputs": [
        {
          "internalType": "uint256",
          "name": "sectors",
          "type": "uint256"
        }
      ],
      "name": "consumeUploadToken",
      "outputs": [],
      "stateMutability": "nonpayable",
      "type": "function"
    },
    {
      "inputs": [],
      "name": "drippingRate",
      "outputs": [
        {
          "internalType": "uint256",
          "name": "",
          "type": "uint256"
        }
      ],
      "stateMutability": "view",
      "type": "function"
    },
    {
      "inputs": [],
      "name": "flow",
      "outputs": [
        {
          "internalType": "address",
          "name": "",
          "type": "address"
        }
      ],
      "stateMutability": "view",
      "type": "function"
    },
    {
      "inputs": [],
      "name": "flowLength",
      "outputs": [
        {
          "internalType": "uint256",
          "name": "",
          "type": "uint256"
        }
      ],
      "stateMutability": "view",
      "type": "function"
    },
    {
      "inputs": [],
      "name": "gauge",
      "outputs": [
        {
          "internalType": "int256",
          "name": "",
          "type": "int256"
        }
      ],
      "stateMutability": "view",
      "type": "function"
    },
    {
      "inputs": [],
      "name": "getFlowLength",
      "outputs": [
        {
          "internalType": "uint256",
          "name": "",
          "type": "uint256"
        }
      ],
      "stateMutability": "view",
      "type": "function"
    },
    {
      "inputs": [],
      "name": "lastUpdate",
      "outputs": [
        {
          "internalType": "uint256",
          "name": "",
          "type": "uint256"
        }
      ],
      "stateMutability": "view",
      "type": "function"
    },
    {
      "inputs": [],
      "name": "mine",
      "outputs": [
        {
          "internalType": "address",
          "name": "",
          "type": "address"
        }
      ],
      "stateMutability": "view",
      "type": "function"
    },
    {
      "inputs": [],
      "name": "paidFee",
      "outputs": [
        {
          "internalType": "uint256",
          "name": "",
          "type": "uint256"
        }
      ],
      "stateMutability": "view",
      "type": "function"
    },
    {
      "inputs": [],
      "name": "paidUploadAmount",
      "outputs": [
        {
          "internalType": "uint256",
          "name": "",
          "type": "uint256"
        }
      ],
      "stateMutability": "view",
      "type": "function"
    },
    {
      "inputs": [
        {
          "internalType": "uint256",
          "name": "sectors",
          "type": "uint256"
        },
        {
          "internalType": "uint256",
          "name": "maxPrice",
          "type": "uint256"
        },
        {
          "internalType": "uint256",
          "name": "maxTipPrice",
          "type": "uint256"
        }
      ],
      "name": "purchase",
      "outputs": [],
      "stateMutability": "payable",
      "type": "function"
    },
    {
      "inputs": [],
      "name": "reward",
      "outputs": [
        {
          "internalType": "contract IReward",
          "name": "",
          "type": "address"
        }
      ],
      "stateMutability": "view",
      "type": "function"
    },
    {
      "inputs": [],
      "name": "stake",
      "outputs": [
        {
          "internalType": "address",
          "name": "",
          "type": "address"
        }
      ],
      "stateMutability": "view",
      "type": "function"
    },
    {
      "inputs": [],
      "name": "updateGauge",
      "outputs": [],
      "stateMutability": "nonpayable",
      "type": "function"
    },
    {
      "inputs": [],
      "name": "uploadToken",
      "outputs": [
        {
          "internalType": "contract IUploadToken",
          "name": "",
          "type": "address"
        }
      ],
      "stateMutability": "view",
      "type": "function"
    }
  ],
  "bytecode": "0x6101206040523480156200001257600080fd5b506040516200129238038062001292833981016040819052620000359162000205565b6000839050806001600160a01b031663343aad826040518163ffffffff1660e01b8152600401602060405180830381865afa15801562000079573d6000803e3d6000fd5b505050506040513d601f19601f820116820180604052508101906200009f919062000259565b6001600160a01b031660c0816001600160a01b031681525050806001600160a01b03166399f4b2516040518163ffffffff1660e01b8152600401602060405180830381865afa158015620000f7573d6000803e3d6000fd5b505050506040513d601f19601f820116820180604052508101906200011d919062000259565b6001600160a01b031660e0816001600160a01b031681525050806001600160a01b031663228cb7336040518163ffffffff1660e01b8152600401602060405180830381865afa15801562000175573d6000803e3d6000fd5b505050506040513d601f19601f820116820180604052508101906200019b919062000259565b6001600160a01b0390811660805283811660a0528216610100526001600455620001c4620001cf565b5050505050620002a8565b60008054620001df904262000280565b426000556103e802919050565b6001600160a01b03811681146200020257600080fd5b50565b6000806000606084860312156200021b57600080fd5b83516200022881620001ec565b60208501519093506200023b81620001ec565b60408501519092506200024e81620001ec565b809150509250925092565b6000602082840312156200026c57600080fd5b81516200027981620001ec565b9392505050565b81810381811115620002a257634e487b7160e01b600052601160045260246000fd5b92915050565b60805160a05160c05160e05161010051610f8962000309600039600081816101be0152610ca8015260006102be01526000818161018a01526105d901526000818161021201526108ca01526000818161013e01526107280152610f896000f3fe6080604052600436106100fe5760003560e01c806379c79707116100955780639b8b9305116100645780639b8b9305146102e0578063a6f19c84146102f3578063ab378cb714610309578063c046371114610329578063d6713eb11461033f57600080fd5b806379c79707146102605780637fdeaa8514610277578063881fa03c1461028c57806399f4b251146102ac57600080fd5b806346d5b97d116100d157806346d5b97d146101e057806347e0a875146102005780636e00da9414610234578063709e5fed1461024a57600080fd5b8063178bb4e214610103578063228cb7331461012c578063343aad82146101785780633a4b66f1146101ac575b600080fd5b34801561010f57600080fd5b5061011960045481565b6040519081526020015b60405180910390f35b34801561013857600080fd5b506101607f000000000000000000000000000000000000000000000000000000000000000081565b6040516001600160a01b039091168152602001610123565b34801561018457600080fd5b506101607f000000000000000000000000000000000000000000000000000000000000000081565b3480156101b857600080fd5b506101607f000000000000000000000000000000000000000000000000000000000000000081565b3480156101ec57600080fd5b506101196101fb366004610e04565b610355565b34801561020c57600080fd5b506101607f000000000000000000000000000000000000000000000000000000000000000081565b34801561024057600080fd5b5061011960025481565b34801561025657600080fd5b5061011960055481565b34801561026c57600080fd5b5061027561053d565b005b34801561028357600080fd5b50600454610119565b34801561029857600080fd5b506102756102a7366004610e1d565b6105d7565b3480156102b857600080fd5b506101607f000000000000000000000000000000000000000000000000000000000000000081565b6102756102ee366004610e3f565b610796565b3480156102ff57600080fd5b5061011960015481565b34801561031557600080fd5b50610275610324366004610e04565b610897565b34801561033557600080fd5b5061011960035481565b34801561034b57600080fd5b5061011960065481565b6000806000806001541261038e5760015484811061037857506000949350505050565b600092506103868186610e81565b9150506103af565b600060015461039c90610e94565b92508290506103ab8582610eb0565b9150505b6103bb61040080610ec3565b6103c790610400610ec3565b6103d2906064610ec3565b8111156104185760405162461bcd60e51b815260206004820152600f60248201526e476175676520756e646572666c6f7760881b60448201526064015b60405180910390fd5b600061042661040080610ec3565b61043290610384610ec3565b61044090604085901b610ee2565b9050600061045061040080610ec3565b61045c90610384610ec3565b61046a90604085901b610ee2565b90506000600160601b6104856104808585610e81565b61094d565b61048f9190610e81565b9050600061049c8461094d565b90506000600160681b8211156104c1576104ba604083901c84610ec3565b90506104ec565b600160681b8311156104db576104ba82604085901c610ec3565b60406104e78385610ec3565b901c90505b602081901c6060606461050161040080610ec3565b61050d90610384610ec3565b6105196103e885610ec3565b6105239190610ec3565b61052d9190610ee2565b901c9a9950505050505050505050565b6000610547610b3c565b905060006103e86002548361055c9190610ec3565b6105669190610ee2565b9050806001600082825461057a9190610f04565b9091555061058c905061040080610ec3565b61059890610400610ec3565b6105a390601e610ec3565b60015413156105d3576105b861040080610ec3565b6105c490610400610ec3565b6105cf90601e610ec3565b6001555b5050565b7f0000000000000000000000000000000000000000000000000000000000000000336001600160a01b038216146106505760405162461bcd60e51b815260206004820152601f60248201527f53656e64657220646f6573206e6f742068617665207065726d697373696f6e00604482015260640161040f565b8260055410156106a25760405162461bcd60e51b815260206004820152601b60248201527f44617461207375626d697373696f6e206973206e6f7420706169640000000000604482015260640161040f565b60006106ae8385610eb0565b6004549091506106bd82610b57565b6000600554600654876106d09190610ec3565b6106da9190610ee2565b905080600660008282546106ee9190610e81565b9250508190555085600560008282546107079190610e81565b90915550506040516259e96760e81b815260048101839052602481018490527f00000000000000000000000000000000000000000000000000000000000000006001600160a01b0316906359e967009083906044016000604051808303818588803b15801561077557600080fd5b505af1158015610789573d6000803e3d6000fd5b5050505050505050505050565b61079e61053d565b60006107ac61010085610ec3565b905060006107bc6103e883610ec3565b905060006107c983610355565b905060006107d78486610ec3565b905060006107e58786610ec3565b9050806107f28486610eb0565b11156108355760405162461bcd60e51b8152602060048201526012602482015271115e18d95959081c1c9a58d9481b1a5b5a5d60721b604482015260640161040f565b600061085582846108468789610eb0565b6108509190610eb0565b610bbd565b90506108618185610bd7565b85600160008282546108739190610f2c565b9091555061088c9050896108878684610e81565b610d2d565b505050505050505050565b60006108ab670de0b6b3a764000083610ec3565b604051631125ae3960e11b8152336004820152602481018290529091507f00000000000000000000000000000000000000000000000000000000000000006001600160a01b03169063224b5c7290604401600060405180830381600087803b15801561091657600080fd5b505af115801561092a573d6000803e3d6000fd5b505050506105d3826103e8610100856109439190610ec3565b6108879190610ec3565b6000663fffffffffffff821667ffc00000000000008316604084901c60a0811061097d5750600019949350505050565b600061098884610d61565b905066400000000000008316156109af576f8016302f174676283690dfe44d11d00802607f1c5b66800000000000008316156109d4576f802c6436d0e04f50ff8ce94a6797b3ce02607f1c5b6701000000000000008316156109fa576f8058d7d2d5e5f6b094d589f608ee4aa202607f1c5b670200000000000000831615610a20576f80b1ed4fd999ab6c25335719b6e6fd2002607f1c5b670400000000000000831615610a46576f8164d1f3bc0307737be56527bd14def402607f1c5b670800000000000000831615610a6c576f82cd8698ac2ba1d73e2a475b46520bff02607f1c5b671000000000000000831615610a92576f85aac367cc487b14c5c95b8c2154c1b202607f1c5b672000000000000000831615610ab8576f8b95c1e3ea8bd6e6fbe4628758a53c9002607f1c5b674000000000000000831615610ade576f9837f0518db8a96f46ad23182e42f6f602607f1c5b678000000000000000831615610b04576fb504f333f9de6484597d89b3754abe9f02607f1c5b601f821015610b2257610b1882601f610e81565b81901c9450610b33565b610b2d601f83610e81565b81901b94505b50505050919050565b60008054610b4a9042610e81565b426000556103e802919050565b610b5f61053d565b8060046000828254610b719190610eb0565b90915550610bb79050610b8661040080610ec3565b610b91906003610ec3565b610b9d61040080610ec3565b610100600454610bad9190610ec3565b6108509190610ee2565b60025550565b6000818310610bcc5781610bce565b825b90505b92915050565b3481831115610c415780610beb8385610e81565b1115610c2a5760405162461bcd60e51b815260206004820152600e60248201526d4e6f7420656e6f7567682066656560901b604482015260640161040f565b610c348284610e81565b610c3e9082610e81565b90505b8115610cf35780821115610c8e5760405162461bcd60e51b81526020600482015260146024820152734e6f7420656e6f756768207072696f722066656560601b604482015260640161040f565b610c988282610e81565b6040519091506001600160a01b037f0000000000000000000000000000000000000000000000000000000000000000169083156108fc029084906000818181858888f19350505050158015610cf1573d6000803e3d6000fd5b505b8015610d2857604051339082156108fc029083906000818181858888f19350505050158015610d26573d6000803e3d6000fd5b505b505050565b8160056000828254610d3f9190610eb0565b925050819055508060066000828254610d589190610eb0565b90915550505050565b600081600003610d7657506001607f1b919050565b603f82901b808002607f90811d90818302811d90818402811d906f7afef7fe0b163aa1bc5ac1bb25cd7f2a840260801d6fb17217f7d1cf79abc9e3b39803f2f6af8602821d01600160801b01906006906f55411a850de23ea19af62831983789cb8502901d050160186f3b18024f2eeb657d6633a21fbcc04f158302607f1d050160011c9695505050505050565b600060208284031215610e1657600080fd5b5035919050565b60008060408385031215610e3057600080fd5b50508035926020909101359150565b600080600060608486031215610e5457600080fd5b505081359360208301359350604090920135919050565b634e487b7160e01b600052601160045260246000fd5b81810381811115610bd157610bd1610e6b565b6000600160ff1b8201610ea957610ea9610e6b565b5060000390565b80820180821115610bd157610bd1610e6b565b6000816000190483118215151615610edd57610edd610e6b565b500290565b600082610eff57634e487b7160e01b600052601260045260246000fd5b500490565b8082018281126000831280158216821582161715610f2457610f24610e6b565b505092915050565b8181036000831280158383131683831282161715610f4c57610f4c610e6b565b509291505056fea2646970667358221220911cd274151d83080769c7665bc8b42bf3d2bbfbb33123a49b120d4c81eed53064736f6c63430008100033",
  "linkReferences": {},
  "deployedLinkReferences": {}
}