{
  "_format": "hh-sol-artifact-1",
  "contractName": "Cashier",
  "sourceName": "contracts/cashier/Cashier.sol",
  "abi": [
    {
      "inputs": [
        {
          "internalType": "address",
          "name": "book_",
          "type": "address"
        },
        {
          "internalType": "address",
          "name": "uploadToken_",
          "type": "address"
        },
        {
          "internalType": "address",
          "name": "stake_",
          "type": "address"
        }
      ],
      "stateMutability": "nonpayable",
      "type": "constructor"
    },
    {
      "inputs": [
        {
          "internalType": "uint256",
          "name": "beforeLength",
          "type": "uint256"
        },
        {
          "internalType": "uint256",
          "name": "uploadSectors",
          "type": "uint256"
        },
        {
          "internalType": "uint256",
          "name": "paddingSectors",
          "type": "uint256"
        }
      ],
      "name": "chargeFee",
      "outputs": [],
      "stateMutability": "nonpayable",
      "type": "function"
    },
    {
      "inputs": [
        {
          "internalType": "uint256",
          "name": "purchaseBytes",
          "type": "uint256"
        }
      ],
      "name": "computePriorityFee",
      "outputs": [
        {
          "internalType": "uint256",
          "name": "",
          "type": "uint256"
        }
      ],
      "stateMutability": "view",
      "type": "function"
    },
    {
      "inputs": [
        {
          "internalType": "uint256",
          "name": "sectors",
          "type": "uint256"
        }
      ],
      "name": "consumeUploadToken",
      "outputs": [],
      "stateMutability": "nonpayable",
      "type": "function"
    },
    {
      "inputs": [],
      "name": "drippingRate",
      "outputs": [
        {
          "internalType": "uint256",
          "name": "",
          "type": "uint256"
        }
      ],
      "stateMutability": "view",
      "type": "function"
    },
    {
      "inputs": [],
      "name": "flow",
      "outputs": [
        {
          "internalType": "address",
          "name": "",
          "type": "address"
        }
      ],
      "stateMutability": "view",
      "type": "function"
    },
    {
      "inputs": [],
      "name": "gauge",
      "outputs": [
        {
          "internalType": "int256",
          "name": "",
          "type": "int256"
        }
      ],
      "stateMutability": "view",
      "type": "function"
    },
    {
      "inputs": [],
      "name": "lastUpdate",
      "outputs": [
        {
          "internalType": "uint256",
          "name": "",
          "type": "uint256"
        }
      ],
      "stateMutability": "view",
      "type": "function"
    },
    {
      "inputs": [],
      "name": "mine",
      "outputs": [
        {
          "internalType": "address",
          "name": "",
          "type": "address"
        }
      ],
      "stateMutability": "view",
      "type": "function"
    },
    {
      "inputs": [],
      "name": "paidFee",
      "outputs": [
        {
          "internalType": "uint256",
          "name": "",
          "type": "uint256"
        }
      ],
      "stateMutability": "view",
      "type": "function"
    },
    {
      "inputs": [],
      "name": "paidUploadAmount",
      "outputs": [
        {
          "internalType": "uint256",
          "name": "",
          "type": "uint256"
        }
      ],
      "stateMutability": "view",
      "type": "function"
    },
    {
      "inputs": [
        {
          "internalType": "uint256",
          "name": "sectors",
          "type": "uint256"
        },
        {
          "internalType": "uint256",
          "name": "maxPrice",
          "type": "uint256"
        },
        {
          "internalType": "uint256",
          "name": "maxTipPrice",
          "type": "uint256"
        }
      ],
      "name": "purchase",
      "outputs": [],
      "stateMutability": "payable",
      "type": "function"
    },
    {
      "inputs": [],
      "name": "refreshGauge",
      "outputs": [],
      "stateMutability": "nonpayable",
      "type": "function"
    },
    {
      "inputs": [],
      "name": "reward",
      "outputs": [
        {
          "internalType": "contract IReward",
          "name": "",
          "type": "address"
        }
      ],
      "stateMutability": "view",
      "type": "function"
    },
    {
      "inputs": [],
      "name": "stake",
      "outputs": [
        {
          "internalType": "address",
          "name": "",
          "type": "address"
        }
      ],
      "stateMutability": "view",
      "type": "function"
    },
    {
      "inputs": [],
      "name": "uploadToken",
      "outputs": [
        {
          "internalType": "contract IUploadToken",
          "name": "",
          "type": "address"
        }
      ],
      "stateMutability": "view",
      "type": "function"
    }
  ],
  "bytecode": "0x6101206040523480156200001257600080fd5b506040516200121838038062001218833981016040819052620000359162000200565b6000839050806001600160a01b031663343aad826040518163ffffffff1660e01b8152600401602060405180830381865afa15801562000079573d6000803e3d6000fd5b505050506040513d601f19601f820116820180604052508101906200009f919062000254565b6001600160a01b031660c0816001600160a01b031681525050806001600160a01b03166399f4b2516040518163ffffffff1660e01b8152600401602060405180830381865afa158015620000f7573d6000803e3d6000fd5b505050506040513d601f19601f820116820180604052508101906200011d919062000254565b6001600160a01b031660e0816001600160a01b031681525050806001600160a01b031663228cb7336040518163ffffffff1660e01b8152600401602060405180830381865afa15801562000175573d6000803e3d6000fd5b505050506040513d601f19601f820116820180604052508101906200019b919062000254565b6001600160a01b0390811660805283811660a052821661010052620001bf620001ca565b5050505050620002a3565b60008054620001da90426200027b565b426000556103e802919050565b6001600160a01b0381168114620001fd57600080fd5b50565b6000806000606084860312156200021657600080fd5b83516200022381620001e7565b60208501519093506200023681620001e7565b60408501519092506200024981620001e7565b809150509250925092565b6000602082840312156200026757600080fd5b81516200027481620001e7565b9392505050565b818103818111156200029d57634e487b7160e01b600052601160045260246000fd5b92915050565b60805160a05160c05160e05161010051610f15620003036000396000818161019b0152610c0c0152600061025d015260008181610167015261074f0152600081816101fd01526106ca01526000818160ff01526108a80152610f156000f3fe6080604052600436106100e85760003560e01c8063709e5fed1161008a578063ab378cb711610059578063ab378cb7146102a8578063c0463711146102c8578063d6713eb1146102de578063da6eb36a146102f457600080fd5b8063709e5fed1461023557806399f4b2511461024b5780639b8b93051461027f578063a6f19c841461029257600080fd5b80633a4b66f1116100c65780633a4b66f11461018957806346d5b97d146101bd57806347e0a875146101eb5780636e00da941461021f57600080fd5b8063228cb733146100ed57806329ada1211461013e578063343aad8214610155575b600080fd5b3480156100f957600080fd5b506101217f000000000000000000000000000000000000000000000000000000000000000081565b6040516001600160a01b0390911681526020015b60405180910390f35b34801561014a57600080fd5b50610153610314565b005b34801561016157600080fd5b506101217f000000000000000000000000000000000000000000000000000000000000000081565b34801561019557600080fd5b506101217f000000000000000000000000000000000000000000000000000000000000000081565b3480156101c957600080fd5b506101dd6101d8366004610db2565b6103ae565b604051908152602001610135565b3480156101f757600080fd5b506101217f000000000000000000000000000000000000000000000000000000000000000081565b34801561022b57600080fd5b506101dd60025481565b34801561024157600080fd5b506101dd60045481565b34801561025757600080fd5b506101217f000000000000000000000000000000000000000000000000000000000000000081565b61015361028d366004610dcb565b610596565b34801561029e57600080fd5b506101dd60015481565b3480156102b457600080fd5b506101536102c3366004610db2565b610697565b3480156102d457600080fd5b506101dd60035481565b3480156102ea57600080fd5b506101dd60055481565b34801561030057600080fd5b5061015361030f366004610dcb565b61074d565b600061031e610917565b905060006103e8600254836103339190610e0d565b61033d9190610e2c565b905080600160008282546103519190610e4e565b90915550610363905061040080610e0d565b61036f90610400610e0d565b61037a90601e610e0d565b60015413156103aa5761038f61040080610e0d565b61039b90610400610e0d565b6103a690601e610e0d565b6001555b5050565b600080600080600154126103e7576001548481106103d157506000949350505050565b600092506103df8186610e76565b915050610408565b60006001546103f590610e89565b92508290506104048582610ea5565b9150505b61041461040080610e0d565b61042090610400610e0d565b61042b906064610e0d565b8111156104715760405162461bcd60e51b815260206004820152600f60248201526e476175676520756e646572666c6f7760881b60448201526064015b60405180910390fd5b600061047f61040080610e0d565b61048b90610384610e0d565b61049990604085901b610e2c565b905060006104a961040080610e0d565b6104b590610384610e0d565b6104c390604085901b610e2c565b90506000600160601b6104de6104d98585610e76565b610932565b6104e89190610e76565b905060006104f584610932565b90506000600160681b82111561051a57610513604083901c84610e0d565b9050610545565b600160681b8311156105345761051382604085901c610e0d565b60406105408385610e0d565b901c90505b602081901c6060606461055a61040080610e0d565b61056690610384610e0d565b6105726103e885610e0d565b61057c9190610e0d565b6105869190610e2c565b901c9a9950505050505050505050565b61059e610314565b60006105ac61010085610e0d565b905060006105bc6103e883610e0d565b905060006105c9836103ae565b905060006105d78486610e0d565b905060006105e58786610e0d565b9050806105f28486610ea5565b11156106355760405162461bcd60e51b8152602060048201526012602482015271115e18d95959081c1c9a58d9481b1a5b5a5d60721b6044820152606401610468565b600061065582846106468789610ea5565b6106509190610ea5565b610b21565b90506106618185610b3b565b85600160008282546106739190610eb8565b9091555061068c9050896106878684610e76565b610c91565b505050505050505050565b60006106ab670de0b6b3a764000083610e0d565b604051631125ae3960e11b8152336004820152602481018290529091507f00000000000000000000000000000000000000000000000000000000000000006001600160a01b03169063224b5c7290604401600060405180830381600087803b15801561071657600080fd5b505af115801561072a573d6000803e3d6000fd5b505050506103aa826103e8610100856107439190610e0d565b6106879190610e0d565b7f0000000000000000000000000000000000000000000000000000000000000000336001600160a01b038216146107c65760405162461bcd60e51b815260206004820152601f60248201527f53656e64657220646f6573206e6f742068617665207065726d697373696f6e006044820152606401610468565b8260045410156108185760405162461bcd60e51b815260206004820152601b60248201527f44617461207375626d697373696f6e206973206e6f74207061696400000000006044820152606401610468565b60006108248385610ea5565b905060006108328287610ea5565b905061083d81610cc5565b6000600454600554876108509190610e0d565b61085a9190610e2c565b9050806005600082825461086e9190610e76565b9250508190555085600460008282546108879190610e76565b90915550506040516259e96760e81b815260048101889052602481018490527f00000000000000000000000000000000000000000000000000000000000000006001600160a01b0316906359e967009083906044016000604051808303818588803b1580156108f557600080fd5b505af1158015610909573d6000803e3d6000fd5b505050505050505050505050565b600080546109259042610e76565b426000556103e802919050565b6000663fffffffffffff821667ffc00000000000008316604084901c60a081106109625750600019949350505050565b600061096d84610d0f565b90506640000000000000831615610994576f8016302f174676283690dfe44d11d00802607f1c5b66800000000000008316156109b9576f802c6436d0e04f50ff8ce94a6797b3ce02607f1c5b6701000000000000008316156109df576f8058d7d2d5e5f6b094d589f608ee4aa202607f1c5b670200000000000000831615610a05576f80b1ed4fd999ab6c25335719b6e6fd2002607f1c5b670400000000000000831615610a2b576f8164d1f3bc0307737be56527bd14def402607f1c5b670800000000000000831615610a51576f82cd8698ac2ba1d73e2a475b46520bff02607f1c5b671000000000000000831615610a77576f85aac367cc487b14c5c95b8c2154c1b202607f1c5b672000000000000000831615610a9d576f8b95c1e3ea8bd6e6fbe4628758a53c9002607f1c5b674000000000000000831615610ac3576f9837f0518db8a96f46ad23182e42f6f602607f1c5b678000000000000000831615610ae9576fb504f333f9de6484597d89b3754abe9f02607f1c5b601f821015610b0757610afd82601f610e76565b81901c9450610b18565b610b12601f83610e76565b81901b94505b50505050919050565b6000818310610b305781610b32565b825b90505b92915050565b3481831115610ba55780610b4f8385610e76565b1115610b8e5760405162461bcd60e51b815260206004820152600e60248201526d4e6f7420656e6f7567682066656560901b6044820152606401610468565b610b988284610e76565b610ba29082610e76565b90505b8115610c575780821115610bf25760405162461bcd60e51b81526020600482015260146024820152734e6f7420656e6f756768207072696f722066656560601b6044820152606401610468565b610bfc8282610e76565b6040519091506001600160a01b037f0000000000000000000000000000000000000000000000000000000000000000169083156108fc029084906000818181858888f19350505050158015610c55573d6000803e3d6000fd5b505b8015610c8c57604051339082156108fc029083906000818181858888f19350505050158015610c8a573d6000803e3d6000fd5b505b505050565b8160046000828254610ca39190610ea5565b925050819055508060056000828254610cbc9190610ea5565b90915550505050565b610ccd610314565b610d09610cdc61040080610e0d565b610ce7906003610e0d565b610cf361040080610e0d565b610cff61010085610e0d565b6106509190610e2c565b60025550565b600081600003610d2457506001607f1b919050565b603f82901b808002607f90811d90818302811d90818402811d906f7afef7fe0b163aa1bc5ac1bb25cd7f2a840260801d6fb17217f7d1cf79abc9e3b39803f2f6af8602821d01600160801b01906006906f55411a850de23ea19af62831983789cb8502901d050160186f3b18024f2eeb657d6633a21fbcc04f158302607f1d050160011c9695505050505050565b600060208284031215610dc457600080fd5b5035919050565b600080600060608486031215610de057600080fd5b505081359360208301359350604090920135919050565b634e487b7160e01b600052601160045260246000fd5b6000816000190483118215151615610e2757610e27610df7565b500290565b600082610e4957634e487b7160e01b600052601260045260246000fd5b500490565b8082018281126000831280158216821582161715610e6e57610e6e610df7565b505092915050565b81810381811115610b3557610b35610df7565b6000600160ff1b8201610e9e57610e9e610df7565b5060000390565b80820180821115610b3557610b35610df7565b8181036000831280158383131683831282161715610ed857610ed8610df7565b509291505056fea2646970667358221220abbd2a1c615b4d5b4239336ca407be3927fa55497de8f4202e0701ae8a4a41b164736f6c63430008100033",
  "linkReferences": {},
  "deployedLinkReferences": {}
}