{
  "_format": "hh-sol-artifact-1",
  "contractName": "ExponentTest",
  "sourceName": "contracts/test/ExponentTest.sol",
  "abi": [
    {
      "inputs": [
        {
          "internalType": "uint256",
          "name": "exponentX64",
          "type": "uint256"
        }
      ],
      "name": "powHalf",
      "outputs": [
        {
          "internalType": "uint256",
          "name": "",
          "type": "uint256"
        }
      ],
      "stateMutability": "pure",
      "type": "function"
    },
    {
      "inputs": [
        {
          "internalType": "uint256",
          "name": "exponentX64",
          "type": "uint256"
        }
      ],
      "name": "powTwo",
      "outputs": [
        {
          "internalType": "uint256",
          "name": "",
          "type": "uint256"
        }
      ],
      "stateMutability": "pure",
      "type": "function"
    }
  ],
  "bytecode": "0x608060405234801561001057600080fd5b50610547806100206000396000f3fe608060405234801561001057600080fd5b50600436106100365760003560e01c806336ff893e1461003b578063dfff1a6f14610060575b600080fd5b61004e6100493660046104a0565b610073565b60405190815260200160405180910390f35b61004e61006e3660046104a0565b610084565b600061007e8261008f565b92915050565b600061007e8261022e565b6000663fffffffffffff821667ffc00000000000008316604084901c836100bd6100b8856104cf565b6103fd565b905066400000000000008316156100e4576fffd3a751c0f7e10bd3b9f8ae012fbe060260801c5b6680000000000000831615610109576fffa756521c8daed19f3a1b48fb94c5890260801c5b600160381b83161561012b576fff4ecb59511ec8a5301ba217ef18dd7c0260801c5b600160391b83161561014d576ffe9e115c7b8f884badd25995e79d2f090260801c5b6001603a1b83161561016f576ffd3e0c0cf486c174853f3a5931e0ee030260801c5b6001603b1b831615610191576ffa83b2db722a033a7c25bb14315d7fcc0260801c5b6001603c1b8316156101b3576ff5257d152486cc2c7b9d0c7aed980fc30260801c5b6001603d1b8316156101d5576feac0c6e7dd24392ed02d75b3706e54fa0260801c5b6001603e1b8316156101f7576fd744fccad69d6af439a68bb9902d3fde0260801c5b6001603f1b831615610219576fb504f333f9de6484597d89b3754abe9f0260801c5b61022482601f6104eb565b1c95945050505050565b6000663fffffffffffff821667ffc00000000000008316604084901c60a0811061025e5750600019949350505050565b6000610269846103fd565b90506640000000000000831615610290576f8016302f174676283690dfe44d11d00802607f1c5b66800000000000008316156102b5576f802c6436d0e04f50ff8ce94a6797b3ce02607f1c5b600160381b8316156102d7576f8058d7d2d5e5f6b094d589f608ee4aa202607f1c5b600160391b8316156102f9576f80b1ed4fd999ab6c25335719b6e6fd2002607f1c5b6001603a1b83161561031b576f8164d1f3bc0307737be56527bd14def402607f1c5b6001603b1b83161561033d576f82cd8698ac2ba1d73e2a475b46520bff02607f1c5b6001603c1b83161561035f576f85aac367cc487b14c5c95b8c2154c1b202607f1c5b6001603d1b831615610381576f8b95c1e3ea8bd6e6fbe4628758a53c9002607f1c5b6001603e1b8316156103a3576f9837f0518db8a96f46ad23182e42f6f602607f1c5b6001603f1b8316156103c5576fb504f333f9de6484597d89b3754abe9f02607f1c5b601f8210156103e3576103d982601f6104fe565b81901c94506103f4565b6103ee601f836104fe565b81901b94505b50505050919050565b60008160000361041257506001607f1b919050565b603f82901b808002607f90811d90818302811d90818402811d906f7afef7fe0b163aa1bc5ac1bb25cd7f2a840260801d6fb17217f7d1cf79abc9e3b39803f2f6af8602821d01600160801b01906006906f55411a850de23ea19af62831983789cb8502901d050160186f3b18024f2eeb657d6633a21fbcc04f158302607f1d050160011c9695505050505050565b6000602082840312156104b257600080fd5b5035919050565b634e487b7160e01b600052601160045260246000fd5b6000600160ff1b82016104e4576104e46104b9565b5060000390565b8082018082111561007e5761007e6104b9565b8181038181111561007e5761007e6104b956fea264697066735822122019603e8b2ae6a223ec97019c2d74a10dea2e5279ca7f9438a404dd742774957864736f6c63430008100033",
  "linkReferences": {},
  "deployedLinkReferences": {}
}