{
  "_format": "hh-sol-artifact-1",
  "contractName": "UploadToken",
  "sourceName": "contracts/token/UploadToken.sol",
  "abi": [
    {
      "inputs": [
        {
          "internalType": "address",
          "name": "battery_",
          "type": "address"
        },
        {
          "internalType": "address",
          "name": "peakSwap_",
          "type": "address"
        },
        {
          "internalType": "address",
          "name": "cashier_",
          "type": "address"
        },
        {
          "internalType": "uint256",
          "name": "blockInterval_",
          "type": "uint256"
        }
      ],
      "stateMutability": "nonpayable",
      "type": "constructor"
    },
    {
      "anonymous": false,
      "inputs": [
        {
          "indexed": true,
          "internalType": "address",
          "name": "owner",
          "type": "address"
        },
        {
          "indexed": true,
          "internalType": "address",
          "name": "spender",
          "type": "address"
        },
        {
          "indexed": false,
          "internalType": "uint256",
          "name": "value",
          "type": "uint256"
        }
      ],
      "name": "Approval",
      "type": "event"
    },
    {
      "anonymous": false,
      "inputs": [
        {
          "indexed": true,
          "internalType": "address",
          "name": "from",
          "type": "address"
        },
        {
          "indexed": true,
          "internalType": "address",
          "name": "to",
          "type": "address"
        },
        {
          "indexed": false,
          "internalType": "uint256",
          "name": "value",
          "type": "uint256"
        }
      ],
      "name": "Transfer",
      "type": "event"
    },
    {
      "inputs": [
        {
          "internalType": "address",
          "name": "owner",
          "type": "address"
        },
        {
          "internalType": "address",
          "name": "spender",
          "type": "address"
        }
      ],
      "name": "allowance",
      "outputs": [
        {
          "internalType": "uint256",
          "name": "",
          "type": "uint256"
        }
      ],
      "stateMutability": "view",
      "type": "function"
    },
    {
      "inputs": [
        {
          "internalType": "address",
          "name": "spender",
          "type": "address"
        },
        {
          "internalType": "uint256",
          "name": "amount",
          "type": "uint256"
        }
      ],
      "name": "approve",
      "outputs": [
        {
          "internalType": "bool",
          "name": "",
          "type": "bool"
        }
      ],
      "stateMutability": "nonpayable",
      "type": "function"
    },
    {
      "inputs": [
        {
          "internalType": "address",
          "name": "account",
          "type": "address"
        }
      ],
      "name": "balanceOf",
      "outputs": [
        {
          "internalType": "uint256",
          "name": "",
          "type": "uint256"
        }
      ],
      "stateMutability": "view",
      "type": "function"
    },
    {
      "inputs": [],
      "name": "battery",
      "outputs": [
        {
          "internalType": "address",
          "name": "",
          "type": "address"
        }
      ],
      "stateMutability": "view",
      "type": "function"
    },
    {
      "inputs": [],
      "name": "blockInterval",
      "outputs": [
        {
          "internalType": "uint256",
          "name": "",
          "type": "uint256"
        }
      ],
      "stateMutability": "view",
      "type": "function"
    },
    {
      "inputs": [],
      "name": "cashier",
      "outputs": [
        {
          "internalType": "address",
          "name": "",
          "type": "address"
        }
      ],
      "stateMutability": "view",
      "type": "function"
    },
    {
      "inputs": [
        {
          "internalType": "address",
          "name": "consumer",
          "type": "address"
        },
        {
          "internalType": "uint256",
          "name": "amount",
          "type": "uint256"
        }
      ],
      "name": "consume",
      "outputs": [],
      "stateMutability": "nonpayable",
      "type": "function"
    },
    {
      "inputs": [],
      "name": "decimals",
      "outputs": [
        {
          "internalType": "uint8",
          "name": "",
          "type": "uint8"
        }
      ],
      "stateMutability": "view",
      "type": "function"
    },
    {
      "inputs": [
        {
          "internalType": "address",
          "name": "spender",
          "type": "address"
        },
        {
          "internalType": "uint256",
          "name": "subtractedValue",
          "type": "uint256"
        }
      ],
      "name": "decreaseAllowance",
      "outputs": [
        {
          "internalType": "bool",
          "name": "",
          "type": "bool"
        }
      ],
      "stateMutability": "nonpayable",
      "type": "function"
    },
    {
      "inputs": [
        {
          "internalType": "address",
          "name": "spender",
          "type": "address"
        },
        {
          "internalType": "uint256",
          "name": "addedValue",
          "type": "uint256"
        }
      ],
      "name": "increaseAllowance",
      "outputs": [
        {
          "internalType": "bool",
          "name": "",
          "type": "bool"
        }
      ],
      "stateMutability": "nonpayable",
      "type": "function"
    },
    {
      "inputs": [
        {
          "internalType": "address",
          "name": "",
          "type": "address"
        }
      ],
      "name": "lastUpdate",
      "outputs": [
        {
          "internalType": "uint256",
          "name": "",
          "type": "uint256"
        }
      ],
      "stateMutability": "view",
      "type": "function"
    },
    {
      "inputs": [
        {
          "internalType": "uint256",
          "name": "amount",
          "type": "uint256"
        }
      ],
      "name": "mintForMarket",
      "outputs": [],
      "stateMutability": "nonpayable",
      "type": "function"
    },
    {
      "inputs": [],
      "name": "name",
      "outputs": [
        {
          "internalType": "string",
          "name": "",
          "type": "string"
        }
      ],
      "stateMutability": "view",
      "type": "function"
    },
    {
      "inputs": [],
      "name": "peakSwap",
      "outputs": [
        {
          "internalType": "address",
          "name": "",
          "type": "address"
        }
      ],
      "stateMutability": "view",
      "type": "function"
    },
    {
      "inputs": [
        {
          "internalType": "address",
          "name": "account",
          "type": "address"
        }
      ],
      "name": "realBalanceOf",
      "outputs": [
        {
          "internalType": "uint256",
          "name": "realBalance",
          "type": "uint256"
        }
      ],
      "stateMutability": "view",
      "type": "function"
    },
    {
      "inputs": [],
      "name": "symbol",
      "outputs": [
        {
          "internalType": "string",
          "name": "",
          "type": "string"
        }
      ],
      "stateMutability": "view",
      "type": "function"
    },
    {
      "inputs": [],
      "name": "totalSupply",
      "outputs": [
        {
          "internalType": "uint256",
          "name": "",
          "type": "uint256"
        }
      ],
      "stateMutability": "view",
      "type": "function"
    },
    {
      "inputs": [
        {
          "internalType": "address",
          "name": "to",
          "type": "address"
        },
        {
          "internalType": "uint256",
          "name": "amount",
          "type": "uint256"
        }
      ],
      "name": "transfer",
      "outputs": [
        {
          "internalType": "bool",
          "name": "",
          "type": "bool"
        }
      ],
      "stateMutability": "nonpayable",
      "type": "function"
    },
    {
      "inputs": [
        {
          "internalType": "address",
          "name": "from",
          "type": "address"
        },
        {
          "internalType": "address",
          "name": "to",
          "type": "address"
        },
        {
          "internalType": "uint256",
          "name": "amount",
          "type": "uint256"
        }
      ],
      "name": "transferFrom",
      "outputs": [
        {
          "internalType": "bool",
          "name": "",
          "type": "bool"
        }
      ],
      "stateMutability": "nonpayable",
      "type": "function"
    },
    {
      "inputs": [
        {
          "internalType": "address",
          "name": "account",
          "type": "address"
        }
      ],
      "name": "updateBalance",
      "outputs": [],
      "stateMutability": "nonpayable",
      "type": "function"
    }
  ],
  "bytecode": "0x6101006040523480156200001257600080fd5b50604051620015aa380380620015aa8339810160408190526200003591620000ec565b6040518060400160405280601981526020017f5a65726f4753746f726167652055706c6f616420546f6b656e00000000000000815250604051806040016040528060078152602001661691d4cb55541360ca1b81525081600390816200009c9190620001e3565b506004620000ab8282620001e3565b5050506080526001600160a01b0392831660a05290821660c0521660e052620002af565b80516001600160a01b0381168114620000e757600080fd5b919050565b600080600080608085870312156200010357600080fd5b6200010e85620000cf565b93506200011e60208601620000cf565b92506200012e60408601620000cf565b6060959095015193969295505050565b634e487b7160e01b600052604160045260246000fd5b600181811c908216806200016957607f821691505b6020821081036200018a57634e487b7160e01b600052602260045260246000fd5b50919050565b601f821115620001de57600081815260208120601f850160051c81016020861015620001b95750805b601f850160051c820191505b81811015620001da57828155600101620001c5565b5050505b505050565b81516001600160401b03811115620001ff57620001ff6200013e565b620002178162000210845462000154565b8462000190565b602080601f8311600181146200024f5760008415620002365750858301515b600019600386901b1c1916600185901b178555620001da565b600085815260208120601f198616915b8281101562000280578886015182559484019460019091019084016200025f565b50858210156200029f5787850151600019600388901b60f8161c191681555b5050505050600190811b01905550565b60805160a05160c05160e0516112906200031a600039600081816102e601528181610489015261050601526000818161024d015281816103dd0152818161045e0152610d8901526000818161030d0152610d4d01526000818161028c015261065901526112906000f3fe608060405234801561001057600080fd5b506004361061012c5760003560e01c806395d89b41116100ad578063c4c22e9811610071578063c4c22e9814610287578063cb03fb1e146102ae578063dd62ed3e146102ce578063ed740e97146102e1578063f8674f731461030857600080fd5b806395d89b411461020757806399a03c701461020f578063a457c2d714610222578063a9059cbb14610235578063bf0fa3301461024857600080fd5b806323b872dd116100f457806323b872dd146101ac578063313ce567146101bf57806339509351146101ce57806340b8405a146101e157806370a08231146101f457600080fd5b806306fdde0314610131578063095ea7b31461014f5780630c8277971461017257806318160ddd14610187578063224b5c7214610199575b600080fd5b61013961032f565b6040516101469190611049565b60405180910390f35b61016261015d3660046110b3565b6103c1565b6040519015158152602001610146565b6101856101803660046110dd565b6103db565b005b6002545b604051908152602001610146565b6101856101a73660046110b3565b610487565b6101626101ba3660046110f6565b61053a565b60405160128152602001610146565b6101626101dc3660046110b3565b61055e565b6101856101ef366004611132565b610580565b61018b610202366004611132565b6105d5565b6101396105e0565b61018b61021d366004611132565b6105ef565b6101626102303660046110b3565b6106c8565b6101626102433660046110b3565b610743565b61026f7f000000000000000000000000000000000000000000000000000000000000000081565b6040516001600160a01b039091168152602001610146565b61018b7f000000000000000000000000000000000000000000000000000000000000000081565b61018b6102bc366004611132565b60056020526000908152604090205481565b61018b6102dc366004611154565b610751565b61026f7f000000000000000000000000000000000000000000000000000000000000000081565b61026f7f000000000000000000000000000000000000000000000000000000000000000081565b60606003805461033e90611187565b80601f016020809104026020016040519081016040528092919081815260200182805461036a90611187565b80156103b75780601f1061038c576101008083540402835291602001916103b7565b820191906000526020600020905b81548152906001019060200180831161039a57829003601f168201915b5050505050905090565b6000336103cf81858561077c565b60019150505b92915050565b7f0000000000000000000000000000000000000000000000000000000000000000336001600160a01b038216146104595760405162461bcd60e51b815260206004820152601f60248201527f53656e64657220646f6573206e6f742068617665207065726d697373696f6e0060448201526064015b60405180910390fd5b6104837f0000000000000000000000000000000000000000000000000000000000000000836108a0565b5050565b7f0000000000000000000000000000000000000000000000000000000000000000336001600160a01b038216146105005760405162461bcd60e51b815260206004820152601f60248201527f53656e64657220646f6573206e6f742068617665207065726d697373696f6e006044820152606401610450565b61052b837f00000000000000000000000000000000000000000000000000000000000000008461098b565b6105358383610a05565b505050565b60003361054885828561098b565b610553858585610b5f565b506001949350505050565b6000336103cf8185856105718383610751565b61057b91906111d7565b61077c565b61058981610d38565b156105915750565b6001600160a01b038116600090815260208190526040812054906105b4836105ef565b90508082036105c257505050565b610535836105d083856111ea565b610a05565b60006103d5826105ef565b60606004805461033e90611187565b6001600160a01b038116600090815260208190526040812054806000036106195750600092915050565b61062283610d38565b1561062d5792915050565b6001600160a01b03831660009081526005602052604081205490439061065383836111ea565b61067d907f00000000000000000000000000000000000000000000000000000000000000006111fd565b9050600063240c840061069983680100000000000000006111fd565b6106a3919061121c565b90506060856106b183610dc2565b6106bb91906111fd565b901c979650505050505050565b600033816106d68286610751565b9050838110156107365760405162461bcd60e51b815260206004820152602560248201527f45524332303a2064656372656173656420616c6c6f77616e63652062656c6f77604482015264207a65726f60d81b6064820152608401610450565b610553828686840361077c565b6000336103cf818585610b5f565b6001600160a01b03918216600090815260016020908152604080832093909416825291909152205490565b6001600160a01b0383166107de5760405162461bcd60e51b8152602060048201526024808201527f45524332303a20617070726f76652066726f6d20746865207a65726f206164646044820152637265737360e01b6064820152608401610450565b6001600160a01b03821661083f5760405162461bcd60e51b815260206004820152602260248201527f45524332303a20617070726f766520746f20746865207a65726f206164647265604482015261737360f01b6064820152608401610450565b6001600160a01b0383811660008181526001602090815260408083209487168084529482529182902085905590518481527f8c5be1e5ebec7d5bd14f71427d1e84f3dd0314c0f7b2291e5b200ac8c7c3b925910160405180910390a3505050565b6001600160a01b0382166108f65760405162461bcd60e51b815260206004820152601f60248201527f45524332303a206d696e7420746f20746865207a65726f2061646472657373006044820152606401610450565b61090260008383610f81565b806002600082825461091491906111d7565b90915550506001600160a01b038216600090815260208190526040812080548392906109419084906111d7565b90915550506040518181526001600160a01b038316906000907fddf252ad1be2c89b69c2b068fc378daa952ba7f163c4a11628f55a4df523b3ef9060200160405180910390a35050565b60006109978484610751565b905060001981146109ff57818110156109f25760405162461bcd60e51b815260206004820152601d60248201527f45524332303a20696e73756666696369656e7420616c6c6f77616e63650000006044820152606401610450565b6109ff848484840361077c565b50505050565b6001600160a01b038216610a655760405162461bcd60e51b815260206004820152602160248201527f45524332303a206275726e2066726f6d20746865207a65726f206164647265736044820152607360f81b6064820152608401610450565b610a7182600083610f81565b6001600160a01b03821660009081526020819052604090205481811015610ae55760405162461bcd60e51b815260206004820152602260248201527f45524332303a206275726e20616d6f756e7420657863656564732062616c616e604482015261636560f01b6064820152608401610450565b6001600160a01b0383166000908152602081905260408120838303905560028054849290610b149084906111ea565b90915550506040518281526000906001600160a01b038516907fddf252ad1be2c89b69c2b068fc378daa952ba7f163c4a11628f55a4df523b3ef9060200160405180910390a3505050565b6001600160a01b038316610bc35760405162461bcd60e51b815260206004820152602560248201527f45524332303a207472616e736665722066726f6d20746865207a65726f206164604482015264647265737360d81b6064820152608401610450565b6001600160a01b038216610c255760405162461bcd60e51b815260206004820152602360248201527f45524332303a207472616e7366657220746f20746865207a65726f206164647260448201526265737360e81b6064820152608401610450565b610c30838383610f81565b6001600160a01b03831660009081526020819052604090205481811015610ca85760405162461bcd60e51b815260206004820152602660248201527f45524332303a207472616e7366657220616d6f756e7420657863656564732062604482015265616c616e636560d01b6064820152608401610450565b6001600160a01b03808516600090815260208190526040808220858503905591851681529081208054849290610cdf9084906111d7565b92505081905550826001600160a01b0316846001600160a01b03167fddf252ad1be2c89b69c2b068fc378daa952ba7f163c4a11628f55a4df523b3ef84604051610d2b91815260200190565b60405180910390a36109ff565b60006001600160a01b0382161580610d8157507f00000000000000000000000000000000000000000000000000000000000000006001600160a01b0316826001600160a01b0316145b806103d557507f00000000000000000000000000000000000000000000000000000000000000006001600160a01b0316826001600160a01b03161492915050565b6000663fffffffffffff821667ffc00000000000008316604084901c83610df0610deb8561123e565b610fa6565b90506640000000000000831615610e17576fffd3a751c0f7e10bd3b9f8ae012fbe060260801c5b6680000000000000831615610e3c576fffa756521c8daed19f3a1b48fb94c5890260801c5b670100000000000000831615610e62576fff4ecb59511ec8a5301ba217ef18dd7c0260801c5b670200000000000000831615610e88576ffe9e115c7b8f884badd25995e79d2f090260801c5b670400000000000000831615610eae576ffd3e0c0cf486c174853f3a5931e0ee030260801c5b670800000000000000831615610ed4576ffa83b2db722a033a7c25bb14315d7fcc0260801c5b671000000000000000831615610efa576ff5257d152486cc2c7b9d0c7aed980fc30260801c5b672000000000000000831615610f20576feac0c6e7dd24392ed02d75b3706e54fa0260801c5b674000000000000000831615610f46576fd744fccad69d6af439a68bb9902d3fde0260801c5b678000000000000000831615610f6c576fb504f333f9de6484597d89b3754abe9f0260801c5b610f7782601f6111d7565b1c95945050505050565b6001600160a01b038216610f9457505050565b610f9d83610580565b61053582610580565b600081600003610fbb57506001607f1b919050565b603f82901b808002607f90811d90818302811d90818402811d906f7afef7fe0b163aa1bc5ac1bb25cd7f2a840260801d6fb17217f7d1cf79abc9e3b39803f2f6af8602821d01600160801b01906006906f55411a850de23ea19af62831983789cb8502901d050160186f3b18024f2eeb657d6633a21fbcc04f158302607f1d050160011c9695505050505050565b600060208083528351808285015260005b818110156110765785810183015185820160400152820161105a565b506000604082860101526040601f19601f8301168501019250505092915050565b80356001600160a01b03811681146110ae57600080fd5b919050565b600080604083850312156110c657600080fd5b6110cf83611097565b946020939093013593505050565b6000602082840312156110ef57600080fd5b5035919050565b60008060006060848603121561110b57600080fd5b61111484611097565b925061112260208501611097565b9150604084013590509250925092565b60006020828403121561114457600080fd5b61114d82611097565b9392505050565b6000806040838503121561116757600080fd5b61117083611097565b915061117e60208401611097565b90509250929050565b600181811c9082168061119b57607f821691505b6020821081036111bb57634e487b7160e01b600052602260045260246000fd5b50919050565b634e487b7160e01b600052601160045260246000fd5b808201808211156103d5576103d56111c1565b818103818111156103d5576103d56111c1565b6000816000190483118215151615611217576112176111c1565b500290565b60008261123957634e487b7160e01b600052601260045260246000fd5b500490565b6000600160ff1b8201611253576112536111c1565b506000039056fea2646970667358221220caa1a3723996458bdf0d097aebb105cd999f16a0a7c384ebae8448c59dc181cc64736f6c63430008100033",
  "linkReferences": {},
  "deployedLinkReferences": {}
}