{
  "_format": "hh-sol-artifact-1",
  "contractName": "PeakSwap",
  "sourceName": "contracts/cashier/PeakSwap.sol",
  "abi": [
    {
      "inputs": [
        {
          "internalType": "address",
          "name": "zgsToken",
          "type": "address"
        },
        {
          "internalType": "address",
          "name": "uploadToken",
          "type": "address"
        },
        {
          "internalType": "address",
          "name": "stake_",
          "type": "address"
        },
        {
          "internalType": "address",
          "name": "cashier_",
          "type": "address"
        }
      ],
      "stateMutability": "nonpayable",
      "type": "constructor"
    },
    {
      "anonymous": false,
      "inputs": [
        {
          "indexed": true,
          "internalType": "address",
          "name": "sender",
          "type": "address"
        },
        {
          "indexed": false,
          "internalType": "uint256",
          "name": "amount0In",
          "type": "uint256"
        },
        {
          "indexed": false,
          "internalType": "uint256",
          "name": "amount1In",
          "type": "uint256"
        },
        {
          "indexed": false,
          "internalType": "uint256",
          "name": "amount0Out",
          "type": "uint256"
        },
        {
          "indexed": false,
          "internalType": "uint256",
          "name": "amount1Out",
          "type": "uint256"
        },
        {
          "indexed": true,
          "internalType": "address",
          "name": "to",
          "type": "address"
        }
      ],
      "name": "Swap",
      "type": "event"
    },
    {
      "anonymous": false,
      "inputs": [
        {
          "indexed": false,
          "internalType": "uint112",
          "name": "reserve0",
          "type": "uint112"
        },
        {
          "indexed": false,
          "internalType": "uint112",
          "name": "reserve1",
          "type": "uint112"
        }
      ],
      "name": "Sync",
      "type": "event"
    },
    {
      "inputs": [],
      "name": "BOUNDARY_PRICE",
      "outputs": [
        {
          "internalType": "uint256",
          "name": "",
          "type": "uint256"
        }
      ],
      "stateMutability": "view",
      "type": "function"
    },
    {
      "inputs": [],
      "name": "TOKENS_PER_BLOCK",
      "outputs": [
        {
          "internalType": "uint256",
          "name": "",
          "type": "uint256"
        }
      ],
      "stateMutability": "view",
      "type": "function"
    },
    {
      "inputs": [],
      "name": "cashier",
      "outputs": [
        {
          "internalType": "address",
          "name": "",
          "type": "address"
        }
      ],
      "stateMutability": "view",
      "type": "function"
    },
    {
      "inputs": [],
      "name": "lastDripBlockNumber",
      "outputs": [
        {
          "internalType": "uint256",
          "name": "",
          "type": "uint256"
        }
      ],
      "stateMutability": "view",
      "type": "function"
    },
    {
      "inputs": [
        {
          "internalType": "address",
          "name": "to",
          "type": "address"
        }
      ],
      "name": "skim",
      "outputs": [],
      "stateMutability": "nonpayable",
      "type": "function"
    },
    {
      "inputs": [],
      "name": "stake",
      "outputs": [
        {
          "internalType": "address",
          "name": "",
          "type": "address"
        }
      ],
      "stateMutability": "view",
      "type": "function"
    },
    {
      "inputs": [
        {
          "internalType": "uint256",
          "name": "amountIn",
          "type": "uint256"
        },
        {
          "internalType": "uint256",
          "name": "amountOutMin",
          "type": "uint256"
        },
        {
          "internalType": "bool",
          "name": "direction",
          "type": "bool"
        },
        {
          "internalType": "address",
          "name": "to",
          "type": "address"
        },
        {
          "internalType": "uint256",
          "name": "deadline",
          "type": "uint256"
        }
      ],
      "name": "swapExactTokensForTokens",
      "outputs": [
        {
          "internalType": "uint256",
          "name": "amountOut",
          "type": "uint256"
        }
      ],
      "stateMutability": "nonpayable",
      "type": "function"
    },
    {
      "inputs": [
        {
          "internalType": "uint256",
          "name": "amountOut",
          "type": "uint256"
        },
        {
          "internalType": "uint256",
          "name": "amountInMax",
          "type": "uint256"
        },
        {
          "internalType": "bool",
          "name": "direction",
          "type": "bool"
        },
        {
          "internalType": "address",
          "name": "to",
          "type": "address"
        },
        {
          "internalType": "uint256",
          "name": "deadline",
          "type": "uint256"
        }
      ],
      "name": "swapTokensForExactTokens",
      "outputs": [
        {
          "internalType": "uint256",
          "name": "amountIn",
          "type": "uint256"
        }
      ],
      "stateMutability": "nonpayable",
      "type": "function"
    },
    {
      "inputs": [],
      "name": "token0",
      "outputs": [
        {
          "internalType": "contract ISafeERC20",
          "name": "",
          "type": "address"
        }
      ],
      "stateMutability": "view",
      "type": "function"
    },
    {
      "inputs": [],
      "name": "token1",
      "outputs": [
        {
          "internalType": "contract IUploadToken",
          "name": "",
          "type": "address"
        }
      ],
      "stateMutability": "view",
      "type": "function"
    },
    {
      "inputs": [],
      "name": "updateMarket",
      "outputs": [
        {
          "internalType": "uint256",
          "name": "amount1In",
          "type": "uint256"
        },
        {
          "internalType": "uint256",
          "name": "amount0Out",
          "type": "uint256"
        }
      ],
      "stateMutability": "nonpayable",
      "type": "function"
    }
  ],
  "bytecode": "0x6101006040523480156200001257600080fd5b50604051620016d7380380620016d7833981016040819052620000359162000075565b6001600160a01b0393841660805291831660a052821660c0521660e052620000d2565b80516001600160a01b03811681146200007057600080fd5b919050565b600080600080608085870312156200008c57600080fd5b620000978562000058565b9350620000a76020860162000058565b9250620000b76040860162000058565b9150620000c76060860162000058565b905092959194509250565b60805160a05160c05160e05161156462000173600039600081816101bc015261041b01526000818160f70152818161039e01526103f30152600081816101710152818161030e015281816105f101528181610c1a01528181610eac01528181610fec015261110901526000818160b30152818161044a015281816104d801528181610bdb01528181610e6f01528181610f51015261107301526115646000f3fe608060405234801561001057600080fd5b50600436106100a95760003560e01c8063d21220a711610071578063d21220a71461016c578063e4c52a5d14610193578063e889835a1461019b578063e8f44459146101ae578063ed740e97146101b7578063f76eccb51461019357600080fd5b80630dfe1681146100ae5780633a4b66f1146100f25780638ae2ffcc14610119578063bc25cf7714610136578063c8a04c911461014b575b600080fd5b6100d57f000000000000000000000000000000000000000000000000000000000000000081565b6040516001600160a01b0390911681526020015b60405180910390f35b6100d57f000000000000000000000000000000000000000000000000000000000000000081565b6101216101de565b604080519283526020830191909152016100e9565b610149610144366004611372565b6104c0565b005b61015e61015936600461139e565b6106fc565b6040519081526020016100e9565b6100d57f000000000000000000000000000000000000000000000000000000000000000081565b61015e600181565b61015e6101a936600461139e565b610865565b61015e60015481565b6100d57f000000000000000000000000000000000000000000000000000000000000000081565b6000805481906001600160701b03161580159061020c5750600054600160701b90046001600160701b031615155b6102315760405162461bcd60e51b8152600401610228906113ee565b60405180910390fd5b43600154036102435750600091829150565b600080546102829060019061026a906001600160701b03600160701b82048116911661144c565b6001600160701b031661027d9190611491565b6109c5565b600054909150600160701b90046001600160701b03168110156102aa57506000928392509050565b600080546102c890600160701b90046001600160701b0316836114b3565b9050600060018054436102db91906114b3565b6102e591906114c6565b4360015590506102f58282610ab4565b604051630c82779760e01b8152600481018290529095507f00000000000000000000000000000000000000000000000000000000000000006001600160a01b031690630c82779790602401600060405180830381600087803b15801561035a57600080fd5b505af115801561036e573d6000803e3d6000fd5b505060005461039392508791506001600160701b03600160701b820481169116610ace565b93506103c2600085877f0000000000000000000000000000000000000000000000000000000000000000610b85565b60006103cf6001876114c6565b9050848111156103dc5750835b6040516323b872dd60e01b81526001600160a01b037f0000000000000000000000000000000000000000000000000000000000000000811660048301527f000000000000000000000000000000000000000000000000000000000000000081166024830152604482018390527f000000000000000000000000000000000000000000000000000000000000000016906323b872dd906064016020604051808303816000875af1158015610493573d6000803e3d6000fd5b505050506040513d601f19601f820116820180604052508101906104b791906114e5565b50505050509091565b6000546040516370a0823160e01b81523060048201527f00000000000000000000000000000000000000000000000000000000000000006001600160a01b03169163a9059cbb9184916001600160701b03169084906370a0823190602401602060405180830381865afa15801561053b573d6000803e3d6000fd5b505050506040513d601f19601f8201168201806040525081019061055f9190611502565b61056991906114b3565b6040516001600160e01b031960e085901b1681526001600160a01b03909216600483015260248201526044016020604051808303816000875af11580156105b4573d6000803e3d6000fd5b505050506040513d601f19601f820116820180604052508101906105d891906114e5565b506000546040516370a0823160e01b81523060048201527f00000000000000000000000000000000000000000000000000000000000000006001600160a01b03169163a9059cbb918491600160701b90046001600160701b03169084906370a0823190602401602060405180830381865afa15801561065b573d6000803e3d6000fd5b505050506040513d601f19601f8201168201806040525081019061067f9190611502565b61068991906114b3565b6040516001600160e01b031960e085901b1681526001600160a01b03909216600483015260248201526044016020604051808303816000875af11580156106d4573d6000803e3d6000fd5b505050506040513d601f19601f820116820180604052508101906106f891906114e5565b5050565b6000814281101561074a5760405162461bcd60e51b8152602060048201526018602482015277155b9a5cddd85c158c949bdd5d195c8e881156141254915160421b6044820152606401610228565b6107526101de565b5050600080600061076288610bb3565b925092509250610773858484610ace565b50888511156107d45760405162461bcd60e51b815260206004820152602760248201527f556e69737761705632526f757465723a204558434553534956455f494e50555460448201526617d05353d5539560ca1b6064820152608401610228565b6040516323b872dd60e01b8152336004820152306024820152604481018690526001600160a01b038216906323b872dd906064016020604051808303816000875af1158015610827573d6000803e3d6000fd5b505050506040513d601f19601f8201168201806040525081019061084b91906114e5565b50610858888b878a610b85565b5050505095945050505050565b600081428110156108b35760405162461bcd60e51b8152602060048201526018602482015277155b9a5cddd85c158c949bdd5d195c8e881156141254915160421b6044820152606401610228565b6108bb6101de565b505060008060006108cb88610bb3565b9250925092506108dc858484610c41565b50888510156109415760405162461bcd60e51b815260206004820152602b60248201527f556e69737761705632526f757465723a20494e53554646494349454e545f4f5560448201526a1514155517d05353d5539560aa1b6064820152608401610228565b6040516323b872dd60e01b8152336004820152306024820152604481018b90526001600160a01b038216906323b872dd906064016020604051808303816000875af1158015610994573d6000803e3d6000fd5b505050506040513d601f19601f820116820180604052508101906109b891906114e5565b5061085888868c8a610b85565b6000816000036109d757506000919050565b600060016109e484610cef565b901c6001901b905060018184816109fd576109fd61147b565b048201901c90506001818481610a1557610a1561147b565b048201901c90506001818481610a2d57610a2d61147b565b048201901c90506001818481610a4557610a4561147b565b048201901c90506001818481610a5d57610a5d61147b565b048201901c90506001818481610a7557610a7561147b565b048201901c90506001818481610a8d57610a8d61147b565b048201901c9050610aad81828581610aa757610aa761147b565b04610ab4565b9392505050565b6000818310610ac35781610ac5565b825b90505b92915050565b6000808411610b335760405162461bcd60e51b815260206004820152602b60248201527f556e697377617056324c6962726172793a20494e53554646494349454e545f4960448201526a1394155517d05353d5539560aa1b6064820152608401610228565b600083118015610b435750600082115b610b5f5760405162461bcd60e51b8152600401610228906113ee565b610b69848461151b565b610b7383866114c6565b610b7d9190611491565b949350505050565b8315610b9f57610b9a60008484600085610d83565b610bad565b610bad836000808585610d83565b50505050565b60008060008315610bff5750506000546001600160701b038082169250600160701b909104167f0000000000000000000000000000000000000000000000000000000000000000610c3a565b50506000546001600160701b03600160701b820481169250167f00000000000000000000000000000000000000000000000000000000000000005b9193909250565b6000808411610ca75760405162461bcd60e51b815260206004820152602c60248201527f556e697377617056324c6962726172793a20494e53554646494349454e545f4f60448201526b155514155517d05353d5539560a21b6064820152608401610228565b600083118015610cb75750600082115b610cd35760405162461bcd60e51b8152600401610228906113ee565b610b7d610ce085856114c6565b610cea86856114b3565b61124e565b600080608083901c15610d0457608092831c92015b604083901c15610d1657604092831c92015b602083901c15610d2857602092831c92015b601083901c15610d3a57601092831c92015b600883901c15610d4c57600892831c92015b600483901c15610d5e57600492831c92015b600283901c15610d7057600292831c92015b600183901c15610ac85760010192915050565b6000851180610d925750600084115b610dec5760405162461bcd60e51b815260206004820152602560248201527f556e697377617056323a20494e53554646494349454e545f4f55545055545f416044820152641353d5539560da1b6064820152608401610228565b6000546001600160701b031685108015610e175750600054600160701b90046001600160701b031684105b610e6d5760405162461bcd60e51b815260206004820152602160248201527f556e697377617056323a20494e53554646494349454e545f4c495155494449546044820152605960f81b6064820152608401610228565b7f00000000000000000000000000000000000000000000000000000000000000006001600160a01b0316816001600160a01b031614158015610ee157507f00000000000000000000000000000000000000000000000000000000000000006001600160a01b0316816001600160a01b031614155b610f255760405162461bcd60e51b8152602060048201526015602482015274556e697377617056323a20494e56414c49445f544f60581b6044820152606401610228565b8415610fc05760405163a9059cbb60e01b81526001600160a01b038281166004830152602482018790527f0000000000000000000000000000000000000000000000000000000000000000169063a9059cbb906044016020604051808303816000875af1158015610f9a573d6000803e3d6000fd5b505050506040513d601f19601f82011682018060405250810190610fbe91906114e5565b505b831561105b5760405163a9059cbb60e01b81526001600160a01b038281166004830152602482018690527f0000000000000000000000000000000000000000000000000000000000000000169063a9059cbb906044016020604051808303816000875af1158015611035573d6000803e3d6000fd5b505050506040513d601f19601f8201168201806040525081019061105991906114e5565b505b6040516370a0823160e01b81523060048201526000907f00000000000000000000000000000000000000000000000000000000000000006001600160a01b0316906370a0823190602401602060405180830381865afa1580156110c2573d6000803e3d6000fd5b505050506040513d601f19601f820116820180604052508101906110e69190611502565b6040516370a0823160e01b81523060048201529091506000906001600160a01b037f000000000000000000000000000000000000000000000000000000000000000016906370a0823190602401602060405180830381865afa158015611150573d6000803e3d6000fd5b505050506040513d601f19601f820116820180604052508101906111749190611502565b600054909150611196906001600160701b03600160701b82048116911661144c565b6001600160701b03166111a982846114c6565b10156111e65760405162461bcd60e51b815260206004820152600c60248201526b556e697377617056323a204b60a01b6044820152606401610228565b6111f08282611285565b6040805186815260208101869052908101889052606081018790526001600160a01b0384169033907fd78ad95fa46c994b6551d0da85fc275fe613ce37657fb8d5e3d130840159d8229060800160405180910390a350505050505050565b6000821561127c57816112626001856114b3565b61126c9190611491565b61127790600161151b565b610ac5565b50600092915050565b6001600160701b0382118015906112a357506001600160701b038111155b6112e55760405162461bcd60e51b8152602060048201526013602482015272556e697377617056323a204f564552464c4f5760681b6044820152606401610228565b600080546001600160701b03838116600160701b9081026001600160e01b0319909316868316179290921792839055604080518483168152929093041660208201527f1c411e9a96e071241c2f21f7726b17ae89e3cab4c78be50e062b03a9fffbbad1910160405180910390a15050565b80356001600160a01b038116811461136d57600080fd5b919050565b60006020828403121561138457600080fd5b610ac582611356565b801515811461139b57600080fd5b50565b600080600080600060a086880312156113b657600080fd5b853594506020860135935060408601356113cf8161138d565b92506113dd60608701611356565b949793965091946080013592915050565b60208082526028908201527f556e697377617056324c6962726172793a20494e53554646494349454e545f4c604082015267495155494449545960c01b606082015260800190565b634e487b7160e01b600052601160045260246000fd5b60006001600160701b038083168185168183048111821515161561147257611472611436565b02949350505050565b634e487b7160e01b600052601260045260246000fd5b6000826114ae57634e487b7160e01b600052601260045260246000fd5b500490565b81810381811115610ac857610ac8611436565b60008160001904831182151516156114e0576114e0611436565b500290565b6000602082840312156114f757600080fd5b8151610aad8161138d565b60006020828403121561151457600080fd5b5051919050565b80820180821115610ac857610ac861143656fea26469706673582212204cceedb31a7e128d2abf16a7e53433c956027a4987ad6712a2cae7b5600851d564736f6c63430008100033",
  "linkReferences": {},
  "deployedLinkReferences": {}
}