{
  "_format": "hh-sol-artifact-1",
  "contractName": "PoraMineTest",
  "sourceName": "contracts/test/PoraMineTest.sol",
  "abi": [
    {
      "inputs": [
        {
          "internalType": "address",
          "name": "book",
          "type": "address"
        },
        {
          "internalType": "uint256",
          "name": "settings",
          "type": "uint256"
        }
      ],
      "stateMutability": "nonpayable",
      "type": "constructor"
    },
    {
      "inputs": [],
      "name": "adjustRatio",
      "outputs": [
        {
          "internalType": "uint256",
          "name": "",
          "type": "uint256"
        }
      ],
      "stateMutability": "view",
      "type": "function"
    },
    {
      "inputs": [
        {
          "components": [
            {
              "internalType": "bytes32",
              "name": "contextDigest",
              "type": "bytes32"
            },
            {
              "internalType": "bytes32",
              "name": "nonce",
              "type": "bytes32"
            },
            {
              "internalType": "bytes32",
              "name": "minerId",
              "type": "bytes32"
            },
            {
              "internalType": "uint256",
              "name": "startPosition",
              "type": "uint256"
            },
            {
              "internalType": "uint256",
              "name": "mineLength",
              "type": "uint256"
            },
            {
              "internalType": "uint256",
              "name": "recallPosition",
              "type": "uint256"
            },
            {
              "internalType": "uint256",
              "name": "sealOffset",
              "type": "uint256"
            },
            {
              "internalType": "bytes32",
              "name": "sealedContextDigest",
              "type": "bytes32"
            },
            {
              "internalType": "bytes32[128]",
              "name": "sealedData",
              "type": "bytes32[128]"
            },
            {
              "internalType": "bytes32[]",
              "name": "merkleProof",
              "type": "bytes32[]"
            }
          ],
          "internalType": "struct PoraMine.PoraAnswer",
          "name": "answer",
          "type": "tuple"
        },
        {
          "components": [
            {
              "internalType": "uint256",
              "name": "epoch",
              "type": "uint256"
            },
            {
              "internalType": "uint256",
              "name": "mineStart",
              "type": "uint256"
            },
            {
              "internalType": "bytes32",
              "name": "flowRoot",
              "type": "bytes32"
            },
            {
              "internalType": "uint256",
              "name": "flowLength",
              "type": "uint256"
            },
            {
              "internalType": "bytes32",
              "name": "blockDigest",
              "type": "bytes32"
            },
            {
              "internalType": "bytes32",
              "name": "digest",
              "type": "bytes32"
            }
          ],
          "internalType": "struct MineContext",
          "name": "context",
          "type": "tuple"
        }
      ],
      "name": "basicCheck",
      "outputs": [],
      "stateMutability": "view",
      "type": "function"
    },
    {
      "inputs": [],
      "name": "book",
      "outputs": [
        {
          "internalType": "contract AddressBook",
          "name": "",
          "type": "address"
        }
      ],
      "stateMutability": "view",
      "type": "function"
    },
    {
      "inputs": [],
      "name": "dataProofEnabled",
      "outputs": [
        {
          "internalType": "bool",
          "name": "",
          "type": "bool"
        }
      ],
      "stateMutability": "view",
      "type": "function"
    },
    {
      "inputs": [],
      "name": "fixedQuality",
      "outputs": [
        {
          "internalType": "bool",
          "name": "",
          "type": "bool"
        }
      ],
      "stateMutability": "view",
      "type": "function"
    },
    {
      "inputs": [],
      "name": "lastMinedEpoch",
      "outputs": [
        {
          "internalType": "uint256",
          "name": "",
          "type": "uint256"
        }
      ],
      "stateMutability": "view",
      "type": "function"
    },
    {
      "inputs": [
        {
          "internalType": "address",
          "name": "",
          "type": "address"
        }
      ],
      "name": "minerIds",
      "outputs": [
        {
          "internalType": "bytes32",
          "name": "",
          "type": "bytes32"
        }
      ],
      "stateMutability": "view",
      "type": "function"
    },
    {
      "inputs": [
        {
          "components": [
            {
              "internalType": "bytes32",
              "name": "contextDigest",
              "type": "bytes32"
            },
            {
              "internalType": "bytes32",
              "name": "nonce",
              "type": "bytes32"
            },
            {
              "internalType": "bytes32",
              "name": "minerId",
              "type": "bytes32"
            },
            {
              "internalType": "uint256",
              "name": "startPosition",
              "type": "uint256"
            },
            {
              "internalType": "uint256",
              "name": "mineLength",
              "type": "uint256"
            },
            {
              "internalType": "uint256",
              "name": "recallPosition",
              "type": "uint256"
            },
            {
              "internalType": "uint256",
              "name": "sealOffset",
              "type": "uint256"
            },
            {
              "internalType": "bytes32",
              "name": "sealedContextDigest",
              "type": "bytes32"
            },
            {
              "internalType": "bytes32[128]",
              "name": "sealedData",
              "type": "bytes32[128]"
            },
            {
              "internalType": "bytes32[]",
              "name": "merkleProof",
              "type": "bytes32[]"
            }
          ],
          "internalType": "struct PoraMine.PoraAnswer",
          "name": "answer",
          "type": "tuple"
        }
      ],
      "name": "pora",
      "outputs": [
        {
          "internalType": "bytes32",
          "name": "",
          "type": "bytes32"
        }
      ],
      "stateMutability": "view",
      "type": "function"
    },
    {
      "inputs": [
        {
          "components": [
            {
              "internalType": "bytes32",
              "name": "contextDigest",
              "type": "bytes32"
            },
            {
              "internalType": "bytes32",
              "name": "nonce",
              "type": "bytes32"
            },
            {
              "internalType": "bytes32",
              "name": "minerId",
              "type": "bytes32"
            },
            {
              "internalType": "uint256",
              "name": "startPosition",
              "type": "uint256"
            },
            {
              "internalType": "uint256",
              "name": "mineLength",
              "type": "uint256"
            },
            {
              "internalType": "uint256",
              "name": "recallPosition",
              "type": "uint256"
            },
            {
              "internalType": "uint256",
              "name": "sealOffset",
              "type": "uint256"
            },
            {
              "internalType": "bytes32",
              "name": "sealedContextDigest",
              "type": "bytes32"
            },
            {
              "internalType": "bytes32[128]",
              "name": "sealedData",
              "type": "bytes32[128]"
            },
            {
              "internalType": "bytes32[]",
              "name": "merkleProof",
              "type": "bytes32[]"
            }
          ],
          "internalType": "struct PoraMine.PoraAnswer",
          "name": "answer",
          "type": "tuple"
        },
        {
          "internalType": "bytes32[128]",
          "name": "unsealedData",
          "type": "bytes32[128]"
        }
      ],
      "name": "recoverMerkleRoot",
      "outputs": [
        {
          "internalType": "bytes32",
          "name": "",
          "type": "bytes32"
        }
      ],
      "stateMutability": "pure",
      "type": "function"
    },
    {
      "inputs": [
        {
          "internalType": "bytes32",
          "name": "minerId",
          "type": "bytes32"
        }
      ],
      "name": "registMiner",
      "outputs": [],
      "stateMutability": "nonpayable",
      "type": "function"
    },
    {
      "inputs": [],
      "name": "sealDataEnabled",
      "outputs": [
        {
          "internalType": "bool",
          "name": "",
          "type": "bool"
        }
      ],
      "stateMutability": "view",
      "type": "function"
    },
    {
      "inputs": [
        {
          "internalType": "bytes32",
          "name": "minerId",
          "type": "bytes32"
        }
      ],
      "name": "setMiner",
      "outputs": [],
      "stateMutability": "nonpayable",
      "type": "function"
    },
    {
      "inputs": [
        {
          "internalType": "uint256",
          "name": "_targetQuality",
          "type": "uint256"
        }
      ],
      "name": "setQuality",
      "outputs": [],
      "stateMutability": "nonpayable",
      "type": "function"
    },
    {
      "inputs": [
        {
          "components": [
            {
              "internalType": "bytes32",
              "name": "contextDigest",
              "type": "bytes32"
            },
            {
              "internalType": "bytes32",
              "name": "nonce",
              "type": "bytes32"
            },
            {
              "internalType": "bytes32",
              "name": "minerId",
              "type": "bytes32"
            },
            {
              "internalType": "uint256",
              "name": "startPosition",
              "type": "uint256"
            },
            {
              "internalType": "uint256",
              "name": "mineLength",
              "type": "uint256"
            },
            {
              "internalType": "uint256",
              "name": "recallPosition",
              "type": "uint256"
            },
            {
              "internalType": "uint256",
              "name": "sealOffset",
              "type": "uint256"
            },
            {
              "internalType": "bytes32",
              "name": "sealedContextDigest",
              "type": "bytes32"
            },
            {
              "internalType": "bytes32[128]",
              "name": "sealedData",
              "type": "bytes32[128]"
            },
            {
              "internalType": "bytes32[]",
              "name": "merkleProof",
              "type": "bytes32[]"
            }
          ],
          "internalType": "struct PoraMine.PoraAnswer",
          "name": "answer",
          "type": "tuple"
        }
      ],
      "name": "submit",
      "outputs": [],
      "stateMutability": "nonpayable",
      "type": "function"
    },
    {
      "inputs": [],
      "name": "targetQuality",
      "outputs": [
        {
          "internalType": "uint256",
          "name": "",
          "type": "uint256"
        }
      ],
      "stateMutability": "view",
      "type": "function"
    },
    {
      "inputs": [
        {
          "components": [
            {
              "internalType": "bytes32",
              "name": "contextDigest",
              "type": "bytes32"
            },
            {
              "internalType": "bytes32",
              "name": "nonce",
              "type": "bytes32"
            },
            {
              "internalType": "bytes32",
              "name": "minerId",
              "type": "bytes32"
            },
            {
              "internalType": "uint256",
              "name": "startPosition",
              "type": "uint256"
            },
            {
              "internalType": "uint256",
              "name": "mineLength",
              "type": "uint256"
            },
            {
              "internalType": "uint256",
              "name": "recallPosition",
              "type": "uint256"
            },
            {
              "internalType": "uint256",
              "name": "sealOffset",
              "type": "uint256"
            },
            {
              "internalType": "bytes32",
              "name": "sealedContextDigest",
              "type": "bytes32"
            },
            {
              "internalType": "bytes32[128]",
              "name": "sealedData",
              "type": "bytes32[128]"
            },
            {
              "internalType": "bytes32[]",
              "name": "merkleProof",
              "type": "bytes32[]"
            }
          ],
          "internalType": "struct PoraMine.PoraAnswer",
          "name": "answer",
          "type": "tuple"
        }
      ],
      "name": "unseal",
      "outputs": [
        {
          "internalType": "bytes32[128]",
          "name": "unsealedData",
          "type": "bytes32[128]"
        }
      ],
      "stateMutability": "pure",
      "type": "function"
    }
  ],
  "bytecode": "0x61010060405260006001553480156200001757600080fd5b506040516200232c3803806200232c8339810160408190526200003a91620000a5565b816001806004841761012c6200005383600019620000e1565b6200005f9190620000e1565b60029081556000839055600182161560805281161560a0526004811615801560c0526200008d576000196002555b5050506001600160a01b031660e05250620001049050565b60008060408385031215620000b957600080fd5b82516001600160a01b0381168114620000d157600080fd5b6020939093015192949293505050565b600082620000ff57634e487b7160e01b600052601260045260246000fd5b500490565b60805160a05160c05160e0516121bd6200016f6000396000818161010a0152818161034c015281816107100152610ba201526000818161028301526106e20152600081816101f201526105ef015260008181610229015281816102cd01526105b101526121bd6000f3fe608060405234801561001057600080fd5b50600436106101005760003560e01c806382532afd11610097578063e058455d11610066578063e058455d1461026b578063e0ba72801461027e578063e1498cf9146102a5578063fe65947f146102b857600080fd5b806382532afd146101da57806382975fe7146101ed578063adaa7a0f14610224578063b51e03971461024b57600080fd5b806359b4a3f3116100d357806359b4a3f314610188578063609a3280146101915780636c397850146101b157806380884dc6146101ba57600080fd5b806305a8da721461010557806311c2f7c61461014957806331223ba71461015e5780633e97c51014610175575b600080fd5b61012c7f000000000000000000000000000000000000000000000000000000000000000081565b6040516001600160a01b0390911681526020015b60405180910390f35b61015c610157366004611bea565b6102cb565b005b61016760015481565b604051908152602001610140565b61015c610183366004611e1d565b610348565b61016760005481565b6101a461019f366004611e1d565b61083b565b6040516101409190611e5a565b61016760025481565b6101676101c8366004611ea1565b60036020526000908152604090205481565b61015c6101e8366004611ebe565b61094b565b6102147f000000000000000000000000000000000000000000000000000000000000000081565b6040519015158152602001610140565b6102147f000000000000000000000000000000000000000000000000000000000000000081565b61015c610259366004611bea565b33600090815260036020526040902055565b610167610279366004611f57565b610d3f565b6102147f000000000000000000000000000000000000000000000000000000000000000081565b61015c6102b3366004611bea565b600255565b6101676102c6366004611e1d565b610fb4565b7f00000000000000000000000000000000000000000000000000000000000000006103025733600090815260036020526040902055565b60405162461bcd60e51b8152602060048201526013602482015272139bdd081a5b5c1b195b595b9d1959081e595d606a1b60448201526064015b60405180910390fd5b50565b60007f00000000000000000000000000000000000000000000000000000000000000006001600160a01b031663343aad826040518163ffffffff1660e01b8152600401602060405180830381865afa1580156103a8573d6000803e3d6000fd5b505050506040513d601f19601f820116820180604052508101906103cc9190611fa7565b9050806001600160a01b03166338d45e106040518163ffffffff1660e01b8152600401600060405180830381600087803b15801561040957600080fd5b505af115801561041d573d6000803e3d6000fd5b505050506000816001600160a01b031663127f0f076040518163ffffffff1660e01b815260040160c060405180830381865afa158015610461573d6000803e3d6000fd5b505050506040513d601f19601f820116820180604052508101906104859190611fc4565b835160a0820151919250146104dc5760405162461bcd60e51b815260206004820152601a60248201527f496e636f6e73697374656e74206d696e696e6720646967657374000000000000604482015260640161033c565b7fc5d2460186f7233c927e7db2dcc703c0e500b653ca82273b7bfad8045d85a4708160a001510361054f5760405162461bcd60e51b815260206004820152601960248201527f456d707479206469676573742063616e206e6f74206d696e6500000000000000604482015260640161033c565b6001548151116105985760405162461bcd60e51b8152602060048201526014602482015273115c1bd8da081a185cc81899595b881b5a5b995960621b604482015260640161033c565b80516001556105a7838261094b565b6105af611bad565b7f0000000000000000000000000000000000000000000000000000000000000000156105e5576105de8461083b565b90506105ed565b506101008301515b7f00000000000000000000000000000000000000000000000000000000000000001561067657600061061f8583610d3f565b9050826040015181146106745760405162461bcd60e51b815260206004820152601860248201527f496e636f6e73697374656e74206d65726b6c6520726f6f740000000000000000604482015260640161033c565b505b61067e611bad565b9050600061068b85610fb4565b6002549091508111156106e05760405162461bcd60e51b815260206004820152601b60248201527f446f206e6f7420726561636820746172676574207175616c6974790000000000604482015260640161033c565b7f000000000000000000000000000000000000000000000000000000000000000061070e5761070e836116c6565b7f00000000000000000000000000000000000000000000000000000000000000006001600160a01b031663228cb7336040518163ffffffff1660e01b8152600401602060405180830381865afa15801561076c573d6000803e3d6000fd5b505050506040513d601f19601f820116820180604052508101906107909190611fa7565b6001600160a01b031663ccec92c46101006107ad61040080612054565b6107b990610400612054565b6107c4906008612054565b6107ce9190612089565b8760a001516107dd9190612089565b6040516001600160e01b031960e084901b1681526004810191909152336024820152604401600060405180830381600087803b15801561081c57600080fd5b505af1158015610830573d6000803e3d6000fd5b505050505050505050565b610843611bad565b60408281015160e084015160a08501518351602081019390935292820152606081019190915260800160408051808303601f1901815291905280516020909101206101008301515118815260015b60206108a06104006004612054565b6108aa9190612089565b811015610945576101008301516108c26001836120b3565b608081106108d2576108d261209d565b60200201516040516020016108e991815260200190565b6040516020818303038152906040528051906020012083610100015182608081106109165761091661209d565b60200201511882826080811061092e5761092e61209d565b602002015261093e6001826120c6565b9050610891565b50919050565b600061010061095c61040082612054565b6109669190612089565b61010061097561040082612054565b61097f9190612089565b836060015161098e9190612089565b6109989190612054565b905080836080015184606001516109af91906120c6565b11156109f55760405162461bcd60e51b81526020600482015260156024820152744d696e696e672072616e6765206f766572666c6f7760581b604482015260640161033c565b610100610a0461040080612054565b610a1090610400612054565b610a1c90610400612054565b610a27906008612054565b610a319190612089565b83608001511115610a7c5760405162461bcd60e51b81526020600482015260156024820152744d696e696e672072616e676520746f6f206c6f6e6760581b604482015260640161033c565b610100610a8b61040080612054565b610a9790610400612054565b610aa2906008612054565b610aac9190612089565b8360600151610abb91906120d9565b15610b085760405162461bcd60e51b815260206004820152601d60248201527f537461727420706f736974696f6e206973206e6f7420616c69676e6564000000604482015260640161033c565b6000610b4f82610100610b1d61040080612054565b610b2990610400612054565b610b3590610400612054565b610b40906008612054565b610b4a9190612089565b611789565b90508084608001511015610b9e5760405162461bcd60e51b8152602060048201526016602482015275135a5b9a5b99c81c985b99d9481d1bdbc81cda1bdc9d60521b604482015260640161033c565b60007f00000000000000000000000000000000000000000000000000000000000000006001600160a01b031663343aad826040518163ffffffff1660e01b8152600401602060405180830381865afa158015610bfe573d6000803e3d6000fd5b505050506040513d601f19601f82011682018060405250810190610c229190611fa7565b6001600160a01b0316637d5907088660e001516040518263ffffffff1660e01b8152600401610c5391815260200190565b6040805180830381865afa158015610c6f573d6000803e3d6000fd5b505050506040513d601f19601f82011682018060405250810190610c939190612104565b90506000610100610ca76104006004612054565b610cb19190612089565b8660a00151610cc091906120c6565b90508082600001516001600160801b0316108015610ceb57508082602001516001600160801b031610155b610d375760405162461bcd60e51b815260206004820152601d60248201527f496e76616c6964207365616c656420636f6e7465787420646967657374000000604482015260640161033c565b505050505050565b6000805b6020610d526104006004612054565b610d5c9190612089565b811015610daa576101006020820284012080848360808110610d8057610d8061209d565b602002018181525050506020610100610d999190612089565b610da390826120c6565b9050610d43565b506000610dba6020610100612089565b90505b6020610dcc6104006004612054565b610dd69190612089565b811015610ea95760005b6020610def6104006004612054565b610df99190612089565b811015610ea0576000848260808110610e1457610e1461209d565b60200201519050600085610e2885856120c6565b60808110610e3857610e3861209d565b602002015190508181604051602001610e5b929190918252602082015260400190565b60405160208183030381529060405280519060200120868460808110610e8357610e8361209d565b602002015250610e999050600183901b826120c6565b9050610de0565b5060011b610dbd565b508151610eb4611bad565b92506000610100610ec86104006004612054565b610ed29190612089565b8560a00151610ee19190612089565b905060005b85610120015151811015610fa857600080610f026002856120d9565b600003610f32578491508761012001518381518110610f2357610f2361209d565b60200260200101519050610f57565b8761012001518381518110610f4957610f4961209d565b602002602001015191508490505b6040805160208101849052908101829052606001604051602081830303815290604052805190602001209450600284610f909190612089565b93505050600181610fa191906120c6565b9050610ee6565b50909150505b92915050565b3360009081526003602052604080822054908301516110155760405162461bcd60e51b815260206004820152601760248201527f4d696e657220494420646f6573206e6f74206578697374000000000000000000604482015260640161033c565b808360400151146110685760405162461bcd60e51b815260206004820152601860248201527f4d696e657220494420697320696e636f6e73697374656e740000000000000000604482015260640161033c565b6040805160a08101825282815260208581015190820152845191810191909152606080850151908201526080808501519082015260006110a7826117a1565b905060006110b86104006040612054565b6110c6610400610100612054565b6110d09190612089565b6110dd6104006004612054565b6110eb610400610100612054565b6110f59190612089565b6110ff9190612089565b8660c0015161110e91906120d9565b9050611118611bad565b60005b828110156111765760005b60406111356104006004612054565b61113f9190612089565b8110156111635761114f85611834565b945061115c6001826120c6565b9050611126565b5061116f6001826120c6565b905061111b565b5060005b60206111896104006004612054565b6111939190612089565b81101561123d576111a384611834565b935087610100015181608081106111bc576111bc61209d565b60200201518451188282608081106111d6576111d661209d565b60200201526101008801516111ec8260016120c6565b608081106111fc576111fc61209d565b6020020151846001602002015118826112168360016120c6565b608081106112265761122661209d565b60200201526112366002826120c6565b905061117a565b50600061124b8360016120c6565b90505b61125b6104006040612054565b611269610400610100612054565b6112739190612089565b6112806104006004612054565b61128e610400610100612054565b6112989190612089565b6112a29190612089565b8110156112fc5760005b60406112bb6104006004612054565b6112c59190612089565b8110156112e9576112d585611834565b94506112e26001826120c6565b90506112ac565b506112f56001826120c6565b905061124e565b50600061010061130e61040082612054565b6113189190612089565b88608001516113279190612089565b84604051602001611338919061215f565b6040516020818303038152906040528051906020012060001c61135b91906120d9565b905061010061136d6104006004612054565b6113779190612089565b8860c001516113869190612054565b61010061139561040082612054565b61139f9190612089565b6113a99083612054565b89606001516113b891906120c6565b6113c291906120c6565b8860a00151146114145760405162461bcd60e51b815260206004820152601960248201527f496e636f727265637420726563616c6c20706f736974696f6e00000000000000604482015260640161033c565b61141c611bcc565b7f48c9bdf267e6096a3ba7ca8485ae67bb2bf894fe72f36e3cf1361d5f3af54fa581527fd182e6ad7f520e511f6c3e2b8c68059b6bbd41fbabd9831f79217e1319cde05b60208083019190915260c08a0151908a01518a5161148892849290918b91906080600061189d565b60608a015160808b01519192506114a8918391906000806101008161189d565b905060005b600460206114bd61040083612054565b6114c79190612089565b6114d191906120b3565b81101561157f576101006020600483010201611569838684608081106114f9576114f961209d565b60200201518761150a8660016120c6565b6080811061151a5761151a61209d565b60200201518861152b8760026120c6565b6080811061153b5761153b61209d565b60200201518961154c8860036120c6565b6080811061155c5761155c61209d565b602002015186600061189d565b925061157890506004826120c6565b90506114ad565b506116ae81846004602061159561040083612054565b61159f9190612089565b6115a991906120b3565b608081106115b9576115b961209d565b6020020151856003602061040060046115d29190612054565b6115dc9190612089565b6115e691906120b3565b608081106115f6576115f661209d565b60200201518660026020610400600461160f9190612054565b6116199190612089565b61162391906120b3565b608081106116335761163361209d565b60200201518760016020610400600461164c9190612054565b6116569190612089565b61166091906120b3565b608081106116705761167061209d565b6020020151602061040060046116869190612054565b6116909190612089565b61169b906020612054565b6116a7906101006120c6565b600161189d565b90506116b8611bad565b505198975050505050505050565b60008160200151436116d891906120b3565b60025490915060101c60006116f0828461012c61195c565b90506014600081836117036001836120b3565b61170d9087612054565b61171791906120c6565b6117219190612089565b905061172e846002612054565b81111561174357611740846002612054565b90505b61174e600285612089565b81101561176357611760600285612089565b90505b6001600160f01b0381111561177c57506001600160f01b035b60101b6002555050505050565b6000818310611798578161179a565b825b9392505050565b6117a9611bcc565b7f48c9bdf267e6096a3ba7ca8485ae67bb2bf894fe72f36e3cf1361d5f3af54fa581527fd182e6ad7f520e511f6c3e2b8c68059b6bbd41fbabd9831f79217e1319cde05b60208083019190915282519083015160408401516060850151611819938593909290916080600061189d565b9050610fae8183600460200201516000808060a0600161189d565b61183c611bcc565b7f48c9bdf267e6096a3ba7ca8485ae67bb2bf894fe72f36e3cf1361d5f3af54fa581527fd182e6ad7f520e511f6c3e2b8c68059b6bbd41fbabd9831f79217e1319cde05b602080830191909152825190830151610fae918391600080604060015b6118a5611bcc565b600c60006118b285611a0a565b8a516020808d0151835184830151604080516001600160e01b031960e08b901b168187015260248101969096526044860193909352606485018f9052608485018e905260a485018d905260c485018c90526001600160c01b031991821660e48601521660ec84015287151560f81b60f4840152805160d58185038101825260f5909401825293945091869184016009600019fa61194e57600080fd5b505050979650505050505050565b60008080600019858709858702925082811083820303915050806000036119965783828161198c5761198c612073565b049250505061179a565b8084116119a257600080fd5b600084868809600260036001881981018916988990049182028318808302840302808302840302808302840302808302840302808302840302918202909203026000889003889004909101858311909403939093029303949094049190911702949350505050565b611a12611bcc565b62010000821015611a5657600882811c66ffffffffffffff169083901b67ffffffffffffff00161760f01b5b6001600160c01b031916815260006020820152919050565b640100000000821015611a9657600882811b63ff00ff001662ff00ff9184901c9190911617601081811b91901c1760e01b6001600160e01b031916611a3e565b68010000000000000000821015611ab057611a3e82611b47565b600160801b821015611b015767ffffffffffffffff8216604083901c611ad582611b47565b6001600160c01b0319168352611aea81611b47565b6001600160c01b031916602084015250611b429050565b60405162461bcd60e51b8152602060048201526016602482015275626c616b65326220696e70757420746f6f206c6f6e6760501b604482015260640161033c565b919050565b65ff000000ff00600882811b91821664ff000000ff9390911c92831617601090811b67ff000000ff0000009290921666ff000000ff0000939093169290921790911c17602081811b6bffffffffffffffff000000001691901c63ffffffff161760c01b90565b6040518061100001604052806080906020820280368337509192915050565b60405180604001604052806002906020820280368337509192915050565b600060208284031215611bfc57600080fd5b5035919050565b634e487b7160e01b600052604160045260246000fd5b604051610140810167ffffffffffffffff81118282101715611c3d57611c3d611c03565b60405290565b60405160c0810167ffffffffffffffff81118282101715611c3d57611c3d611c03565b600082601f830112611c7757600080fd5b60405161100080820182811067ffffffffffffffff82111715611c9c57611c9c611c03565b60405283018185821115611caf57600080fd5b845b82811015611cc9578035825260209182019101611cb1565b509195945050505050565b600082601f830112611ce557600080fd5b8135602067ffffffffffffffff80831115611d0257611d02611c03565b8260051b604051601f19603f83011681018181108482111715611d2757611d27611c03565b604052938452858101830193838101925087851115611d4557600080fd5b83870191505b84821015611d6457813583529183019190830190611d4b565b979650505050505050565b60006111208284031215611d8257600080fd5b611d8a611c19565b9050813581526020820135602082015260408201356040820152606082013560608201526080820135608082015260a082013560a082015260c082013560c082015260e082013560e0820152610100611de584828501611c66565b9082015261110082013567ffffffffffffffff811115611e0457600080fd5b611e1084828501611cd4565b6101208301525092915050565b600060208284031215611e2f57600080fd5b813567ffffffffffffffff811115611e4657600080fd5b611e5284828501611d6f565b949350505050565b6110008101818360005b6080811015611e83578151835260209283019290910190600101611e64565b50505092915050565b6001600160a01b038116811461034557600080fd5b600060208284031215611eb357600080fd5b813561179a81611e8c565b60008082840360e0811215611ed257600080fd5b833567ffffffffffffffff811115611ee957600080fd5b611ef586828701611d6f565b93505060c0601f1982011215611f0a57600080fd5b50611f13611c43565b6020840135815260408401356020820152606084013560408201526080840135606082015260a0840135608082015260c084013560a0820152809150509250929050565b6000806110208385031215611f6b57600080fd5b823567ffffffffffffffff811115611f8257600080fd5b611f8e85828601611d6f565b925050611f9e8460208501611c66565b90509250929050565b600060208284031215611fb957600080fd5b815161179a81611e8c565b600060c08284031215611fd657600080fd5b60405160c0810181811067ffffffffffffffff82111715611ff957611ff9611c03565b8060405250825181526020830151602082015260408301516040820152606083015160608201526080830151608082015260a083015160a08201528091505092915050565b634e487b7160e01b600052601160045260246000fd5b600081600019048311821515161561206e5761206e61203e565b500290565b634e487b7160e01b600052601260045260246000fd5b60008261209857612098612073565b500490565b634e487b7160e01b600052603260045260246000fd5b81810381811115610fae57610fae61203e565b80820180821115610fae57610fae61203e565b6000826120e8576120e8612073565b500690565b80516001600160801b0381168114611b4257600080fd5b60006040828403121561211657600080fd5b6040516040810181811067ffffffffffffffff8211171561213957612139611c03565b604052612145836120ed565b8152612153602084016120ed565b60208201529392505050565b60408101818360005b6002811015611e8357815183526020928301929091019060010161216856fea2646970667358221220d179e24135ae9a08565bbc67f85790c2656a13953711f8fb7b6d71ad4851cea264736f6c63430008100033",
  "linkReferences": {},
  "deployedLinkReferences": {}
}