{
  "_format": "hh-sol-artifact-1",
  "contractName": "PoraMineTest",
  "sourceName": "contracts/test/PoraMineTest.sol",
  "abi": [
    {
      "inputs": [
        {
          "internalType": "address",
          "name": "flow",
          "type": "address"
        },
        {
          "internalType": "address",
          "name": "cashier",
          "type": "address"
        },
        {
          "internalType": "uint256",
          "name": "settings",
          "type": "uint256"
        }
      ],
      "stateMutability": "nonpayable",
      "type": "constructor"
    },
    {
      "inputs": [
        {
          "components": [
            {
              "internalType": "bytes32",
              "name": "contextDigest",
              "type": "bytes32"
            },
            {
              "internalType": "bytes32",
              "name": "nonce",
              "type": "bytes32"
            },
            {
              "internalType": "bytes32",
              "name": "minerId",
              "type": "bytes32"
            },
            {
              "internalType": "uint256",
              "name": "startPosition",
              "type": "uint256"
            },
            {
              "internalType": "uint256",
              "name": "mineLength",
              "type": "uint256"
            },
            {
              "internalType": "uint256",
              "name": "recallPosition",
              "type": "uint256"
            },
            {
              "internalType": "uint256",
              "name": "sealOffset",
              "type": "uint256"
            },
            {
              "internalType": "bytes32",
              "name": "sealedContextDigest",
              "type": "bytes32"
            },
            {
              "internalType": "bytes32[128]",
              "name": "sealedData",
              "type": "bytes32[128]"
            },
            {
              "internalType": "bytes32[]",
              "name": "merkleProof",
              "type": "bytes32[]"
            }
          ],
          "internalType": "struct PoraMine.PoraAnswer",
          "name": "answer",
          "type": "tuple"
        },
        {
          "components": [
            {
              "internalType": "uint256",
              "name": "epoch",
              "type": "uint256"
            },
            {
              "internalType": "uint256",
              "name": "mineStart",
              "type": "uint256"
            },
            {
              "internalType": "bytes32",
              "name": "flowRoot",
              "type": "bytes32"
            },
            {
              "internalType": "uint256",
              "name": "flowLength",
              "type": "uint256"
            },
            {
              "internalType": "bytes32",
              "name": "blockDigest",
              "type": "bytes32"
            },
            {
              "internalType": "bytes32",
              "name": "digest",
              "type": "bytes32"
            }
          ],
          "internalType": "struct MineContext",
          "name": "context",
          "type": "tuple"
        }
      ],
      "name": "basicCheck",
      "outputs": [],
      "stateMutability": "view",
      "type": "function"
    },
    {
      "inputs": [],
      "name": "cashier",
      "outputs": [
        {
          "internalType": "contract ICashier",
          "name": "",
          "type": "address"
        }
      ],
      "stateMutability": "view",
      "type": "function"
    },
    {
      "inputs": [],
      "name": "dataProofEnabled",
      "outputs": [
        {
          "internalType": "bool",
          "name": "",
          "type": "bool"
        }
      ],
      "stateMutability": "view",
      "type": "function"
    },
    {
      "inputs": [],
      "name": "flow",
      "outputs": [
        {
          "internalType": "contract IFlow",
          "name": "",
          "type": "address"
        }
      ],
      "stateMutability": "view",
      "type": "function"
    },
    {
      "inputs": [],
      "name": "lastMinedEpoch",
      "outputs": [
        {
          "internalType": "uint256",
          "name": "",
          "type": "uint256"
        }
      ],
      "stateMutability": "view",
      "type": "function"
    },
    {
      "inputs": [],
      "name": "marketEnabled",
      "outputs": [
        {
          "internalType": "bool",
          "name": "",
          "type": "bool"
        }
      ],
      "stateMutability": "view",
      "type": "function"
    },
    {
      "inputs": [
        {
          "internalType": "address",
          "name": "",
          "type": "address"
        }
      ],
      "name": "minerIds",
      "outputs": [
        {
          "internalType": "bytes32",
          "name": "",
          "type": "bytes32"
        }
      ],
      "stateMutability": "view",
      "type": "function"
    },
    {
      "inputs": [
        {
          "components": [
            {
              "internalType": "bytes32",
              "name": "contextDigest",
              "type": "bytes32"
            },
            {
              "internalType": "bytes32",
              "name": "nonce",
              "type": "bytes32"
            },
            {
              "internalType": "bytes32",
              "name": "minerId",
              "type": "bytes32"
            },
            {
              "internalType": "uint256",
              "name": "startPosition",
              "type": "uint256"
            },
            {
              "internalType": "uint256",
              "name": "mineLength",
              "type": "uint256"
            },
            {
              "internalType": "uint256",
              "name": "recallPosition",
              "type": "uint256"
            },
            {
              "internalType": "uint256",
              "name": "sealOffset",
              "type": "uint256"
            },
            {
              "internalType": "bytes32",
              "name": "sealedContextDigest",
              "type": "bytes32"
            },
            {
              "internalType": "bytes32[128]",
              "name": "sealedData",
              "type": "bytes32[128]"
            },
            {
              "internalType": "bytes32[]",
              "name": "merkleProof",
              "type": "bytes32[]"
            }
          ],
          "internalType": "struct PoraMine.PoraAnswer",
          "name": "answer",
          "type": "tuple"
        }
      ],
      "name": "pora",
      "outputs": [
        {
          "internalType": "bytes32",
          "name": "",
          "type": "bytes32"
        }
      ],
      "stateMutability": "view",
      "type": "function"
    },
    {
      "inputs": [
        {
          "components": [
            {
              "internalType": "bytes32",
              "name": "contextDigest",
              "type": "bytes32"
            },
            {
              "internalType": "bytes32",
              "name": "nonce",
              "type": "bytes32"
            },
            {
              "internalType": "bytes32",
              "name": "minerId",
              "type": "bytes32"
            },
            {
              "internalType": "uint256",
              "name": "startPosition",
              "type": "uint256"
            },
            {
              "internalType": "uint256",
              "name": "mineLength",
              "type": "uint256"
            },
            {
              "internalType": "uint256",
              "name": "recallPosition",
              "type": "uint256"
            },
            {
              "internalType": "uint256",
              "name": "sealOffset",
              "type": "uint256"
            },
            {
              "internalType": "bytes32",
              "name": "sealedContextDigest",
              "type": "bytes32"
            },
            {
              "internalType": "bytes32[128]",
              "name": "sealedData",
              "type": "bytes32[128]"
            },
            {
              "internalType": "bytes32[]",
              "name": "merkleProof",
              "type": "bytes32[]"
            }
          ],
          "internalType": "struct PoraMine.PoraAnswer",
          "name": "answer",
          "type": "tuple"
        },
        {
          "internalType": "bytes32[128]",
          "name": "unsealedData",
          "type": "bytes32[128]"
        }
      ],
      "name": "recoverMerkleRoot",
      "outputs": [
        {
          "internalType": "bytes32",
          "name": "",
          "type": "bytes32"
        }
      ],
      "stateMutability": "pure",
      "type": "function"
    },
    {
      "inputs": [],
      "name": "sealDataEnabled",
      "outputs": [
        {
          "internalType": "bool",
          "name": "",
          "type": "bool"
        }
      ],
      "stateMutability": "view",
      "type": "function"
    },
    {
      "inputs": [
        {
          "internalType": "bytes32",
          "name": "minerId",
          "type": "bytes32"
        }
      ],
      "name": "setMiner",
      "outputs": [],
      "stateMutability": "nonpayable",
      "type": "function"
    },
    {
      "inputs": [
        {
          "internalType": "uint256",
          "name": "_targetQuality",
          "type": "uint256"
        }
      ],
      "name": "setQuality",
      "outputs": [],
      "stateMutability": "nonpayable",
      "type": "function"
    },
    {
      "inputs": [
        {
          "components": [
            {
              "internalType": "bytes32",
              "name": "contextDigest",
              "type": "bytes32"
            },
            {
              "internalType": "bytes32",
              "name": "nonce",
              "type": "bytes32"
            },
            {
              "internalType": "bytes32",
              "name": "minerId",
              "type": "bytes32"
            },
            {
              "internalType": "uint256",
              "name": "startPosition",
              "type": "uint256"
            },
            {
              "internalType": "uint256",
              "name": "mineLength",
              "type": "uint256"
            },
            {
              "internalType": "uint256",
              "name": "recallPosition",
              "type": "uint256"
            },
            {
              "internalType": "uint256",
              "name": "sealOffset",
              "type": "uint256"
            },
            {
              "internalType": "bytes32",
              "name": "sealedContextDigest",
              "type": "bytes32"
            },
            {
              "internalType": "bytes32[128]",
              "name": "sealedData",
              "type": "bytes32[128]"
            },
            {
              "internalType": "bytes32[]",
              "name": "merkleProof",
              "type": "bytes32[]"
            }
          ],
          "internalType": "struct PoraMine.PoraAnswer",
          "name": "answer",
          "type": "tuple"
        }
      ],
      "name": "submit",
      "outputs": [],
      "stateMutability": "nonpayable",
      "type": "function"
    },
    {
      "inputs": [],
      "name": "targetQuality",
      "outputs": [
        {
          "internalType": "uint256",
          "name": "",
          "type": "uint256"
        }
      ],
      "stateMutability": "view",
      "type": "function"
    },
    {
      "inputs": [],
      "name": "totalMiningTime",
      "outputs": [
        {
          "internalType": "uint256",
          "name": "",
          "type": "uint256"
        }
      ],
      "stateMutability": "view",
      "type": "function"
    },
    {
      "inputs": [],
      "name": "totalSubmission",
      "outputs": [
        {
          "internalType": "uint256",
          "name": "",
          "type": "uint256"
        }
      ],
      "stateMutability": "view",
      "type": "function"
    },
    {
      "inputs": [
        {
          "components": [
            {
              "internalType": "bytes32",
              "name": "contextDigest",
              "type": "bytes32"
            },
            {
              "internalType": "bytes32",
              "name": "nonce",
              "type": "bytes32"
            },
            {
              "internalType": "bytes32",
              "name": "minerId",
              "type": "bytes32"
            },
            {
              "internalType": "uint256",
              "name": "startPosition",
              "type": "uint256"
            },
            {
              "internalType": "uint256",
              "name": "mineLength",
              "type": "uint256"
            },
            {
              "internalType": "uint256",
              "name": "recallPosition",
              "type": "uint256"
            },
            {
              "internalType": "uint256",
              "name": "sealOffset",
              "type": "uint256"
            },
            {
              "internalType": "bytes32",
              "name": "sealedContextDigest",
              "type": "bytes32"
            },
            {
              "internalType": "bytes32[128]",
              "name": "sealedData",
              "type": "bytes32[128]"
            },
            {
              "internalType": "bytes32[]",
              "name": "merkleProof",
              "type": "bytes32[]"
            }
          ],
          "internalType": "struct PoraMine.PoraAnswer",
          "name": "answer",
          "type": "tuple"
        }
      ],
      "name": "unseal",
      "outputs": [
        {
          "internalType": "bytes32[128]",
          "name": "unsealedData",
          "type": "bytes32[128]"
        }
      ],
      "stateMutability": "pure",
      "type": "function"
    }
  ],
  "bytecode": "0x610120604052600080553480156200001657600080fd5b506040516200208738038062002087833981016040819052620000399162000108565b6000196001908155811615608052600281161560a052600481161560c0528282826001600160a01b03821615158062000072575060c051155b620000cd5760405162461bcd60e51b815260206004820152602160248201527f4361736869657220646f6573206e6f7420696e6974656420636f72726563746c6044820152607960f81b606482015260840160405180910390fd5b506001600160a01b0391821660e05216610100525062000149915050565b80516001600160a01b03811681146200010357600080fd5b919050565b6000806000606084860312156200011e57600080fd5b6200012984620000eb565b92506200013960208501620000eb565b9150604084015190509250925092565b60805160a05160c05160e05161010051611ec8620001bf600039600081816102be015261067a015260008181610168015281816102f50152818161036a0152610abe015260008181610115015261064c01526000818161022a0152610559015260008181610251015261051b0152611ec86000f3fe608060405234801561001057600080fd5b506004361061010b5760003560e01c806380884dc6116100a2578063b51e039711610071578063b51e039714610273578063e058455d14610293578063e1498cf9146102a6578063ed740e97146102b9578063fe65947f146102e057600080fd5b806380884dc6146101f257806382532afd1461021257806382975fe714610225578063adaa7a0f1461024c57600080fd5b80633e97c510116100de5780633e97c510146101ab578063609a3280146101c05780636c397850146101e0578063755d0c63146101e957600080fd5b80631ef261ba1461011057806331223ba71461014c578063343aad8214610163578063362a5389146101a2575b600080fd5b6101377f000000000000000000000000000000000000000000000000000000000000000081565b60405190151581526020015b60405180910390f35b61015560005481565b604051908152602001610143565b61018a7f000000000000000000000000000000000000000000000000000000000000000081565b6040516001600160a01b039091168152602001610143565b61015560035481565b6101be6101b9366004611b35565b6102f3565b005b6101d36101ce366004611b35565b61073c565b6040516101439190611b72565b61015560015481565b61015560045481565b610155610200366004611ba4565b60026020526000908152604090205481565b6101be610220366004611bcd565b61084c565b6101377f000000000000000000000000000000000000000000000000000000000000000081565b6101377f000000000000000000000000000000000000000000000000000000000000000081565b6101be610281366004611c66565b33600090815260026020526040902055565b6101556102a1366004611c7f565b610be1565b6101be6102b4366004611c66565b600155565b61018a7f000000000000000000000000000000000000000000000000000000000000000081565b6101556102ee366004611b35565b610e56565b7f00000000000000000000000000000000000000000000000000000000000000006001600160a01b03166338d45e106040518163ffffffff1660e01b8152600401600060405180830381600087803b15801561034e57600080fd5b505af1158015610362573d6000803e3d6000fd5b5050505060007f00000000000000000000000000000000000000000000000000000000000000006001600160a01b031663127f0f076040518163ffffffff1660e01b815260040160c060405180830381865afa1580156103c6573d6000803e3d6000fd5b505050506040513d601f19601f820116820180604052508101906103ea9190611ccf565b825160a0820151919250146104465760405162461bcd60e51b815260206004820152601a60248201527f496e636f6e73697374656e74206d696e696e672064696765737400000000000060448201526064015b60405180910390fd5b7fc5d2460186f7233c927e7db2dcc703c0e500b653ca82273b7bfad8045d85a4708160a00151036104b95760405162461bcd60e51b815260206004820152601960248201527f456d707479206469676573742063616e206e6f74206d696e6500000000000000604482015260640161043d565b6000548151116105025760405162461bcd60e51b8152602060048201526014602482015273115c1bd8da081a185cc81899595b881b5a5b995960621b604482015260640161043d565b8051600055610511828261084c565b6105196118de565b7f00000000000000000000000000000000000000000000000000000000000000001561054f576105488361073c565b9050610557565b506101008201515b7f0000000000000000000000000000000000000000000000000000000000000000156105e05760006105898483610be1565b9050826040015181146105de5760405162461bcd60e51b815260206004820152601860248201527f496e636f6e73697374656e74206d65726b6c6520726f6f740000000000000000604482015260640161043d565b505b6105e86118de565b905060006105f584610e56565b60015490915081111561064a5760405162461bcd60e51b815260206004820152601b60248201527f446f206e6f7420726561636820746172676574207175616c6974790000000000604482015260640161043d565b7f000000000000000000000000000000000000000000000000000000000000000015610736576001600160a01b037f00000000000000000000000000000000000000000000000000000000000000001663ccec92c46101006106ae61040080611d5f565b6106ba90610400611d5f565b6106c5906008611d5f565b6106cf9190611d94565b8660a001516106de9190611d94565b6040516001600160e01b031960e084901b1681526004810191909152336024820152604401600060405180830381600087803b15801561071d57600080fd5b505af1158015610731573d6000803e3d6000fd5b505050505b50505050565b6107446118de565b60408281015160e084015160a08501518351602081019390935292820152606081019190915260800160408051808303601f1901815291905280516020909101206101008301515118815260015b60206107a16104006004611d5f565b6107ab9190611d94565b811015610846576101008301516107c3600183611dbe565b608081106107d3576107d3611da8565b60200201516040516020016107ea91815260200190565b60405160208183030381529060405280519060200120836101000151826080811061081757610817611da8565b60200201511882826080811061082f5761082f611da8565b602002015261083f600182611dd1565b9050610792565b50919050565b600061010061085d61040082611d5f565b6108679190611d94565b61010061087661040082611d5f565b6108809190611d94565b836060015161088f9190611d94565b6108999190611d5f565b905080836080015184606001516108b09190611dd1565b11156108f65760405162461bcd60e51b81526020600482015260156024820152744d696e696e672072616e6765206f766572666c6f7760581b604482015260640161043d565b61010061090561040080611d5f565b61091190610400611d5f565b61091d90610400611d5f565b610928906008611d5f565b6109329190611d94565b8360800151111561097d5760405162461bcd60e51b81526020600482015260156024820152744d696e696e672072616e676520746f6f206c6f6e6760581b604482015260640161043d565b61010061098c61040080611d5f565b61099890610400611d5f565b6109a3906008611d5f565b6109ad9190611d94565b83606001516109bc9190611de4565b15610a095760405162461bcd60e51b815260206004820152601d60248201527f537461727420706f736974696f6e206973206e6f7420616c69676e6564000000604482015260640161043d565b6000610a5082610100610a1e61040080611d5f565b610a2a90610400611d5f565b610a3690610400611d5f565b610a41906008611d5f565b610a4b9190611d94565b611568565b90508084608001511015610a9f5760405162461bcd60e51b8152602060048201526016602482015275135a5b9a5b99c81c985b99d9481d1bdbc81cda1bdc9d60521b604482015260640161043d565b60e0840151604051630fab20e160e31b81526000916001600160a01b037f00000000000000000000000000000000000000000000000000000000000000001691637d59070891610af59160040190815260200190565b6040805180830381865afa158015610b11573d6000803e3d6000fd5b505050506040513d601f19601f82011682018060405250810190610b359190611e0f565b90506000610100610b496104006004611d5f565b610b539190611d94565b8660a00151610b629190611dd1565b90508082600001516001600160801b0316108015610b8d57508082602001516001600160801b031610155b610bd95760405162461bcd60e51b815260206004820152601d60248201527f496e76616c6964207365616c656420636f6e7465787420646967657374000000604482015260640161043d565b505050505050565b6000805b6020610bf46104006004611d5f565b610bfe9190611d94565b811015610c4c576101006020820284012080848360808110610c2257610c22611da8565b602002018181525050506020610100610c3b9190611d94565b610c459082611dd1565b9050610be5565b506000610c5c6020610100611d94565b90505b6020610c6e6104006004611d5f565b610c789190611d94565b811015610d4b5760005b6020610c916104006004611d5f565b610c9b9190611d94565b811015610d42576000848260808110610cb657610cb6611da8565b60200201519050600085610cca8585611dd1565b60808110610cda57610cda611da8565b602002015190508181604051602001610cfd929190918252602082015260400190565b60405160208183030381529060405280519060200120868460808110610d2557610d25611da8565b602002015250610d3b9050600183901b82611dd1565b9050610c82565b5060011b610c5f565b508151610d566118de565b92506000610100610d6a6104006004611d5f565b610d749190611d94565b8560a00151610d839190611d94565b905060005b85610120015151811015610e4a57600080610da4600285611de4565b600003610dd4578491508761012001518381518110610dc557610dc5611da8565b60200260200101519050610df9565b8761012001518381518110610deb57610deb611da8565b602002602001015191508490505b6040805160208101849052908101829052606001604051602081830303815290604052805190602001209450600284610e329190611d94565b93505050600181610e439190611dd1565b9050610d88565b50909150505b92915050565b336000908152600260205260408082205490830151610eb75760405162461bcd60e51b815260206004820152601760248201527f4d696e657220494420646f6573206e6f74206578697374000000000000000000604482015260640161043d565b80836040015114610f0a5760405162461bcd60e51b815260206004820152601860248201527f4d696e657220494420697320696e636f6e73697374656e740000000000000000604482015260640161043d565b6040805160a0810182528281526020858101519082015284519181019190915260608085015190820152608080850151908201526000610f4982611580565b90506000610f5a6104006040611d5f565b610f68610400610100611d5f565b610f729190611d94565b610f7f6104006004611d5f565b610f8d610400610100611d5f565b610f979190611d94565b610fa19190611d94565b8660c00151610fb09190611de4565b9050610fba6118de565b60005b828110156110185760005b6040610fd76104006004611d5f565b610fe19190611d94565b81101561100557610ff185611613565b9450610ffe600182611dd1565b9050610fc8565b50611011600182611dd1565b9050610fbd565b5060005b602061102b6104006004611d5f565b6110359190611d94565b8110156110df5761104584611613565b9350876101000151816080811061105e5761105e611da8565b602002015184511882826080811061107857611078611da8565b602002015261010088015161108e826001611dd1565b6080811061109e5761109e611da8565b6020020151846001602002015118826110b8836001611dd1565b608081106110c8576110c8611da8565b60200201526110d8600282611dd1565b905061101c565b5060006110ed836001611dd1565b90505b6110fd6104006040611d5f565b61110b610400610100611d5f565b6111159190611d94565b6111226104006004611d5f565b611130610400610100611d5f565b61113a9190611d94565b6111449190611d94565b81101561119e5760005b604061115d6104006004611d5f565b6111679190611d94565b81101561118b5761117785611613565b9450611184600182611dd1565b905061114e565b50611197600182611dd1565b90506110f0565b5060006101006111b061040082611d5f565b6111ba9190611d94565b88608001516111c99190611d94565b846040516020016111da9190611e6a565b6040516020818303038152906040528051906020012060001c6111fd9190611de4565b905061010061120f6104006004611d5f565b6112199190611d94565b8860c001516112289190611d5f565b61010061123761040082611d5f565b6112419190611d94565b61124b9083611d5f565b896060015161125a9190611dd1565b6112649190611dd1565b8860a00151146112b65760405162461bcd60e51b815260206004820152601960248201527f496e636f727265637420726563616c6c20706f736974696f6e00000000000000604482015260640161043d565b6112be6118fd565b7f48c9bdf267e6096a3ba7ca8485ae67bb2bf894fe72f36e3cf1361d5f3af54fa581527fd182e6ad7f520e511f6c3e2b8c68059b6bbd41fbabd9831f79217e1319cde05b60208083019190915260c08a0151908a01518a5161132a92849290918b91906080600061167c565b60608a015160808b015191925061134a918391906000806101008161167c565b905060005b6004602061135f61040083611d5f565b6113699190611d94565b6113739190611dbe565b81101561142157610100602060048301020161140b8386846080811061139b5761139b611da8565b6020020151876113ac866001611dd1565b608081106113bc576113bc611da8565b6020020151886113cd876002611dd1565b608081106113dd576113dd611da8565b6020020151896113ee886003611dd1565b608081106113fe576113fe611da8565b602002015186600061167c565b925061141a9050600482611dd1565b905061134f565b5061155081846004602061143761040083611d5f565b6114419190611d94565b61144b9190611dbe565b6080811061145b5761145b611da8565b6020020151856003602061040060046114749190611d5f565b61147e9190611d94565b6114889190611dbe565b6080811061149857611498611da8565b6020020151866002602061040060046114b19190611d5f565b6114bb9190611d94565b6114c59190611dbe565b608081106114d5576114d5611da8565b6020020151876001602061040060046114ee9190611d5f565b6114f89190611d94565b6115029190611dbe565b6080811061151257611512611da8565b6020020151602061040060046115289190611d5f565b6115329190611d94565b61153d906020611d5f565b61154990610100611dd1565b600161167c565b905061155a6118de565b505198975050505050505050565b60008183106115775781611579565b825b9392505050565b6115886118fd565b7f48c9bdf267e6096a3ba7ca8485ae67bb2bf894fe72f36e3cf1361d5f3af54fa581527fd182e6ad7f520e511f6c3e2b8c68059b6bbd41fbabd9831f79217e1319cde05b602080830191909152825190830151604084015160608501516115f8938593909290916080600061167c565b9050610e508183600460200201516000808060a0600161167c565b61161b6118fd565b7f48c9bdf267e6096a3ba7ca8485ae67bb2bf894fe72f36e3cf1361d5f3af54fa581527fd182e6ad7f520e511f6c3e2b8c68059b6bbd41fbabd9831f79217e1319cde05b602080830191909152825190830151610e50918391600080604060015b6116846118fd565b600c60006116918561173b565b8a516020808d0151835184830151604080516001600160e01b031960e08b901b168187015260248101969096526044860193909352606485018f9052608485018e905260a485018d905260c485018c90526001600160c01b031991821660e48601521660ec84015287151560f81b60f4840152805160d58185038101825260f5909401825293945091869184016009600019fa61172d57600080fd5b505050979650505050505050565b6117436118fd565b6201000082101561178757600882811c66ffffffffffffff169083901b67ffffffffffffff00161760f01b5b6001600160c01b031916815260006020820152919050565b6401000000008210156117c757600882811b63ff00ff001662ff00ff9184901c9190911617601081811b91901c1760e01b6001600160e01b03191661176f565b680100000000000000008210156117e15761176f82611878565b600160801b8210156118325767ffffffffffffffff8216604083901c61180682611878565b6001600160c01b031916835261181b81611878565b6001600160c01b0319166020840152506118739050565b60405162461bcd60e51b8152602060048201526016602482015275626c616b65326220696e70757420746f6f206c6f6e6760501b604482015260640161043d565b919050565b65ff000000ff00600882811b91821664ff000000ff9390911c92831617601090811b67ff000000ff0000009290921666ff000000ff0000939093169290921790911c17602081811b6bffffffffffffffff000000001691901c63ffffffff161760c01b90565b6040518061100001604052806080906020820280368337509192915050565b60405180604001604052806002906020820280368337509192915050565b634e487b7160e01b600052604160045260246000fd5b604051610140810167ffffffffffffffff811182821017156119555761195561191b565b60405290565b60405160c0810167ffffffffffffffff811182821017156119555761195561191b565b600082601f83011261198f57600080fd5b60405161100080820182811067ffffffffffffffff821117156119b4576119b461191b565b604052830181858211156119c757600080fd5b845b828110156119e15780358252602091820191016119c9565b509195945050505050565b600082601f8301126119fd57600080fd5b8135602067ffffffffffffffff80831115611a1a57611a1a61191b565b8260051b604051601f19603f83011681018181108482111715611a3f57611a3f61191b565b604052938452858101830193838101925087851115611a5d57600080fd5b83870191505b84821015611a7c57813583529183019190830190611a63565b979650505050505050565b60006111208284031215611a9a57600080fd5b611aa2611931565b9050813581526020820135602082015260408201356040820152606082013560608201526080820135608082015260a082013560a082015260c082013560c082015260e082013560e0820152610100611afd8482850161197e565b9082015261110082013567ffffffffffffffff811115611b1c57600080fd5b611b28848285016119ec565b6101208301525092915050565b600060208284031215611b4757600080fd5b813567ffffffffffffffff811115611b5e57600080fd5b611b6a84828501611a87565b949350505050565b6110008101818360005b6080811015611b9b578151835260209283019290910190600101611b7c565b50505092915050565b600060208284031215611bb657600080fd5b81356001600160a01b038116811461157957600080fd5b60008082840360e0811215611be157600080fd5b833567ffffffffffffffff811115611bf857600080fd5b611c0486828701611a87565b93505060c0601f1982011215611c1957600080fd5b50611c2261195b565b6020840135815260408401356020820152606084013560408201526080840135606082015260a0840135608082015260c084013560a0820152809150509250929050565b600060208284031215611c7857600080fd5b5035919050565b6000806110208385031215611c9357600080fd5b823567ffffffffffffffff811115611caa57600080fd5b611cb685828601611a87565b925050611cc6846020850161197e565b90509250929050565b600060c08284031215611ce157600080fd5b60405160c0810181811067ffffffffffffffff82111715611d0457611d0461191b565b8060405250825181526020830151602082015260408301516040820152606083015160608201526080830151608082015260a083015160a08201528091505092915050565b634e487b7160e01b600052601160045260246000fd5b6000816000190483118215151615611d7957611d79611d49565b500290565b634e487b7160e01b600052601260045260246000fd5b600082611da357611da3611d7e565b500490565b634e487b7160e01b600052603260045260246000fd5b81810381811115610e5057610e50611d49565b80820180821115610e5057610e50611d49565b600082611df357611df3611d7e565b500690565b80516001600160801b038116811461187357600080fd5b600060408284031215611e2157600080fd5b6040516040810181811067ffffffffffffffff82111715611e4457611e4461191b565b604052611e5083611df8565b8152611e5e60208401611df8565b60208201529392505050565b60408101818360005b6002811015611b9b578151835260209283019290910190600101611e7356fea2646970667358221220e8773c9781390a32dab5d3d6066b5eb72cbb712fdba514cbae74d8fb4b45f35564736f6c63430008100033",
  "linkReferences": {},
  "deployedLinkReferences": {}
}