{
  "_format": "hh-sol-artifact-1",
  "contractName": "PoraMineTest",
  "sourceName": "contracts/test/PoraMineTest.sol",
  "abi": [
    {
      "inputs": [
        {
          "internalType": "uint256",
          "name": "settings",
          "type": "uint256"
        }
      ],
      "stateMutability": "nonpayable",
      "type": "constructor"
    },
    {
      "anonymous": false,
      "inputs": [
        {
          "indexed": true,
          "internalType": "bytes32",
          "name": "minerId",
          "type": "bytes32"
        },
        {
          "indexed": true,
          "internalType": "address",
          "name": "beneficiary",
          "type": "address"
        }
      ],
      "name": "NewMinerId",
      "type": "event"
    },
    {
      "anonymous": false,
      "inputs": [
        {
          "indexed": true,
          "internalType": "bytes32",
          "name": "minerId",
          "type": "bytes32"
        },
        {
          "indexed": true,
          "internalType": "address",
          "name": "from",
          "type": "address"
        },
        {
          "indexed": true,
          "internalType": "address",
          "name": "to",
          "type": "address"
        }
      ],
      "name": "UpdateMinerId",
      "type": "event"
    },
    {
      "inputs": [],
      "name": "adjustRatio",
      "outputs": [
        {
          "internalType": "uint256",
          "name": "",
          "type": "uint256"
        }
      ],
      "stateMutability": "view",
      "type": "function"
    },
    {
      "inputs": [
        {
          "components": [
            {
              "internalType": "bytes32",
              "name": "contextDigest",
              "type": "bytes32"
            },
            {
              "internalType": "bytes32",
              "name": "nonce",
              "type": "bytes32"
            },
            {
              "internalType": "bytes32",
              "name": "minerId",
              "type": "bytes32"
            },
            {
              "components": [
                {
                  "internalType": "uint256",
                  "name": "startPosition",
                  "type": "uint256"
                },
                {
                  "internalType": "uint256",
                  "name": "mineLength",
                  "type": "uint256"
                },
                {
                  "internalType": "uint64",
                  "name": "shardId",
                  "type": "uint64"
                },
                {
                  "internalType": "uint64",
                  "name": "shardMask",
                  "type": "uint64"
                }
              ],
              "internalType": "struct RecallRange",
              "name": "range",
              "type": "tuple"
            },
            {
              "internalType": "uint256",
              "name": "recallPosition",
              "type": "uint256"
            },
            {
              "internalType": "uint256",
              "name": "sealOffset",
              "type": "uint256"
            },
            {
              "internalType": "bytes32",
              "name": "sealedContextDigest",
              "type": "bytes32"
            },
            {
              "internalType": "bytes32[128]",
              "name": "sealedData",
              "type": "bytes32[128]"
            },
            {
              "internalType": "bytes32[]",
              "name": "merkleProof",
              "type": "bytes32[]"
            }
          ],
          "internalType": "struct PoraMine.PoraAnswer",
          "name": "answer",
          "type": "tuple"
        },
        {
          "components": [
            {
              "internalType": "uint256",
              "name": "epoch",
              "type": "uint256"
            },
            {
              "internalType": "uint256",
              "name": "mineStart",
              "type": "uint256"
            },
            {
              "internalType": "bytes32",
              "name": "flowRoot",
              "type": "bytes32"
            },
            {
              "internalType": "uint256",
              "name": "flowLength",
              "type": "uint256"
            },
            {
              "internalType": "bytes32",
              "name": "blockDigest",
              "type": "bytes32"
            },
            {
              "internalType": "bytes32",
              "name": "digest",
              "type": "bytes32"
            }
          ],
          "internalType": "struct MineContext",
          "name": "context",
          "type": "tuple"
        }
      ],
      "name": "basicCheck",
      "outputs": [],
      "stateMutability": "view",
      "type": "function"
    },
    {
      "inputs": [
        {
          "internalType": "bytes32",
          "name": "",
          "type": "bytes32"
        }
      ],
      "name": "beneficiaries",
      "outputs": [
        {
          "internalType": "address",
          "name": "",
          "type": "address"
        }
      ],
      "stateMutability": "view",
      "type": "function"
    },
    {
      "inputs": [],
      "name": "dataProofEnabled",
      "outputs": [
        {
          "internalType": "bool",
          "name": "",
          "type": "bool"
        }
      ],
      "stateMutability": "view",
      "type": "function"
    },
    {
      "inputs": [],
      "name": "fixedQuality",
      "outputs": [
        {
          "internalType": "bool",
          "name": "",
          "type": "bool"
        }
      ],
      "stateMutability": "view",
      "type": "function"
    },
    {
      "inputs": [],
      "name": "flow",
      "outputs": [
        {
          "internalType": "address",
          "name": "",
          "type": "address"
        }
      ],
      "stateMutability": "view",
      "type": "function"
    },
    {
      "inputs": [
        {
          "internalType": "uint256",
          "name": "initRate",
          "type": "uint256"
        },
        {
          "internalType": "uint256",
          "name": "adjustRatio_",
          "type": "uint256"
        },
        {
          "internalType": "address",
          "name": "flow_",
          "type": "address"
        },
        {
          "internalType": "address",
          "name": "reward_",
          "type": "address"
        }
      ],
      "name": "initialize",
      "outputs": [],
      "stateMutability": "nonpayable",
      "type": "function"
    },
    {
      "inputs": [],
      "name": "initialized",
      "outputs": [
        {
          "internalType": "bool",
          "name": "",
          "type": "bool"
        }
      ],
      "stateMutability": "view",
      "type": "function"
    },
    {
      "inputs": [],
      "name": "lastMinedEpoch",
      "outputs": [
        {
          "internalType": "uint256",
          "name": "",
          "type": "uint256"
        }
      ],
      "stateMutability": "view",
      "type": "function"
    },
    {
      "inputs": [
        {
          "components": [
            {
              "internalType": "bytes32",
              "name": "contextDigest",
              "type": "bytes32"
            },
            {
              "internalType": "bytes32",
              "name": "nonce",
              "type": "bytes32"
            },
            {
              "internalType": "bytes32",
              "name": "minerId",
              "type": "bytes32"
            },
            {
              "components": [
                {
                  "internalType": "uint256",
                  "name": "startPosition",
                  "type": "uint256"
                },
                {
                  "internalType": "uint256",
                  "name": "mineLength",
                  "type": "uint256"
                },
                {
                  "internalType": "uint64",
                  "name": "shardId",
                  "type": "uint64"
                },
                {
                  "internalType": "uint64",
                  "name": "shardMask",
                  "type": "uint64"
                }
              ],
              "internalType": "struct RecallRange",
              "name": "range",
              "type": "tuple"
            },
            {
              "internalType": "uint256",
              "name": "recallPosition",
              "type": "uint256"
            },
            {
              "internalType": "uint256",
              "name": "sealOffset",
              "type": "uint256"
            },
            {
              "internalType": "bytes32",
              "name": "sealedContextDigest",
              "type": "bytes32"
            },
            {
              "internalType": "bytes32[128]",
              "name": "sealedData",
              "type": "bytes32[128]"
            },
            {
              "internalType": "bytes32[]",
              "name": "merkleProof",
              "type": "bytes32[]"
            }
          ],
          "internalType": "struct PoraMine.PoraAnswer",
          "name": "answer",
          "type": "tuple"
        }
      ],
      "name": "pora",
      "outputs": [
        {
          "internalType": "bytes32",
          "name": "",
          "type": "bytes32"
        }
      ],
      "stateMutability": "view",
      "type": "function"
    },
    {
      "inputs": [
        {
          "components": [
            {
              "internalType": "bytes32",
              "name": "contextDigest",
              "type": "bytes32"
            },
            {
              "internalType": "bytes32",
              "name": "nonce",
              "type": "bytes32"
            },
            {
              "internalType": "bytes32",
              "name": "minerId",
              "type": "bytes32"
            },
            {
              "components": [
                {
                  "internalType": "uint256",
                  "name": "startPosition",
                  "type": "uint256"
                },
                {
                  "internalType": "uint256",
                  "name": "mineLength",
                  "type": "uint256"
                },
                {
                  "internalType": "uint64",
                  "name": "shardId",
                  "type": "uint64"
                },
                {
                  "internalType": "uint64",
                  "name": "shardMask",
                  "type": "uint64"
                }
              ],
              "internalType": "struct RecallRange",
              "name": "range",
              "type": "tuple"
            },
            {
              "internalType": "uint256",
              "name": "recallPosition",
              "type": "uint256"
            },
            {
              "internalType": "uint256",
              "name": "sealOffset",
              "type": "uint256"
            },
            {
              "internalType": "bytes32",
              "name": "sealedContextDigest",
              "type": "bytes32"
            },
            {
              "internalType": "bytes32[128]",
              "name": "sealedData",
              "type": "bytes32[128]"
            },
            {
              "internalType": "bytes32[]",
              "name": "merkleProof",
              "type": "bytes32[]"
            }
          ],
          "internalType": "struct PoraMine.PoraAnswer",
          "name": "answer",
          "type": "tuple"
        },
        {
          "internalType": "bytes32[128]",
          "name": "unsealedData",
          "type": "bytes32[128]"
        }
      ],
      "name": "recoverMerkleRoot",
      "outputs": [
        {
          "internalType": "bytes32",
          "name": "",
          "type": "bytes32"
        }
      ],
      "stateMutability": "pure",
      "type": "function"
    },
    {
      "inputs": [
        {
          "internalType": "address",
          "name": "beneficiary",
          "type": "address"
        },
        {
          "internalType": "uint64",
          "name": "seed",
          "type": "uint64"
        }
      ],
      "name": "requestMinerId",
      "outputs": [],
      "stateMutability": "nonpayable",
      "type": "function"
    },
    {
      "inputs": [],
      "name": "reward",
      "outputs": [
        {
          "internalType": "address",
          "name": "",
          "type": "address"
        }
      ],
      "stateMutability": "view",
      "type": "function"
    },
    {
      "inputs": [],
      "name": "sealDataEnabled",
      "outputs": [
        {
          "internalType": "bool",
          "name": "",
          "type": "bool"
        }
      ],
      "stateMutability": "view",
      "type": "function"
    },
    {
      "inputs": [
        {
          "internalType": "bytes32",
          "name": "minerId",
          "type": "bytes32"
        }
      ],
      "name": "setMiner",
      "outputs": [],
      "stateMutability": "nonpayable",
      "type": "function"
    },
    {
      "inputs": [
        {
          "internalType": "uint256",
          "name": "_targetQuality",
          "type": "uint256"
        }
      ],
      "name": "setQuality",
      "outputs": [],
      "stateMutability": "nonpayable",
      "type": "function"
    },
    {
      "inputs": [
        {
          "components": [
            {
              "internalType": "bytes32",
              "name": "contextDigest",
              "type": "bytes32"
            },
            {
              "internalType": "bytes32",
              "name": "nonce",
              "type": "bytes32"
            },
            {
              "internalType": "bytes32",
              "name": "minerId",
              "type": "bytes32"
            },
            {
              "components": [
                {
                  "internalType": "uint256",
                  "name": "startPosition",
                  "type": "uint256"
                },
                {
                  "internalType": "uint256",
                  "name": "mineLength",
                  "type": "uint256"
                },
                {
                  "internalType": "uint64",
                  "name": "shardId",
                  "type": "uint64"
                },
                {
                  "internalType": "uint64",
                  "name": "shardMask",
                  "type": "uint64"
                }
              ],
              "internalType": "struct RecallRange",
              "name": "range",
              "type": "tuple"
            },
            {
              "internalType": "uint256",
              "name": "recallPosition",
              "type": "uint256"
            },
            {
              "internalType": "uint256",
              "name": "sealOffset",
              "type": "uint256"
            },
            {
              "internalType": "bytes32",
              "name": "sealedContextDigest",
              "type": "bytes32"
            },
            {
              "internalType": "bytes32[128]",
              "name": "sealedData",
              "type": "bytes32[128]"
            },
            {
              "internalType": "bytes32[]",
              "name": "merkleProof",
              "type": "bytes32[]"
            }
          ],
          "internalType": "struct PoraMine.PoraAnswer",
          "name": "answer",
          "type": "tuple"
        }
      ],
      "name": "submit",
      "outputs": [],
      "stateMutability": "nonpayable",
      "type": "function"
    },
    {
      "inputs": [],
      "name": "targetQuality",
      "outputs": [
        {
          "internalType": "uint256",
          "name": "",
          "type": "uint256"
        }
      ],
      "stateMutability": "view",
      "type": "function"
    },
    {
      "inputs": [
        {
          "internalType": "address",
          "name": "to",
          "type": "address"
        },
        {
          "internalType": "bytes32",
          "name": "minerId",
          "type": "bytes32"
        }
      ],
      "name": "transferBeneficial",
      "outputs": [],
      "stateMutability": "nonpayable",
      "type": "function"
    },
    {
      "inputs": [
        {
          "components": [
            {
              "internalType": "bytes32",
              "name": "contextDigest",
              "type": "bytes32"
            },
            {
              "internalType": "bytes32",
              "name": "nonce",
              "type": "bytes32"
            },
            {
              "internalType": "bytes32",
              "name": "minerId",
              "type": "bytes32"
            },
            {
              "components": [
                {
                  "internalType": "uint256",
                  "name": "startPosition",
                  "type": "uint256"
                },
                {
                  "internalType": "uint256",
                  "name": "mineLength",
                  "type": "uint256"
                },
                {
                  "internalType": "uint64",
                  "name": "shardId",
                  "type": "uint64"
                },
                {
                  "internalType": "uint64",
                  "name": "shardMask",
                  "type": "uint64"
                }
              ],
              "internalType": "struct RecallRange",
              "name": "range",
              "type": "tuple"
            },
            {
              "internalType": "uint256",
              "name": "recallPosition",
              "type": "uint256"
            },
            {
              "internalType": "uint256",
              "name": "sealOffset",
              "type": "uint256"
            },
            {
              "internalType": "bytes32",
              "name": "sealedContextDigest",
              "type": "bytes32"
            },
            {
              "internalType": "bytes32[128]",
              "name": "sealedData",
              "type": "bytes32[128]"
            },
            {
              "internalType": "bytes32[]",
              "name": "merkleProof",
              "type": "bytes32[]"
            }
          ],
          "internalType": "struct PoraMine.PoraAnswer",
          "name": "answer",
          "type": "tuple"
        }
      ],
      "name": "unseal",
      "outputs": [
        {
          "internalType": "bytes32[128]",
          "name": "unsealedData",
          "type": "bytes32[128]"
        }
      ],
      "stateMutability": "pure",
      "type": "function"
    }
  ],
  "bytecode": "0x60e0604052600060035534801561001557600080fd5b50604051620026d2380380620026d283398101604081905261003691610053565b60016004909117818116156080526002161560a05260c05261006c565b60006020828403121561006557600080fd5b5051919050565b60805160a05160c05161261a620000b860003960008181610310015281816103d80152610df601526000818161025b0152610ced0152600081816102820152610cb0015261261a6000f3fe608060405234801561001057600080fd5b506004361061012c5760003560e01c80636c397850116100ad578063aed7522411610071578063aed75224146102b7578063b0628ee0146102ca578063b51e0397146102dd578063e0ba72801461030b578063e1498cf91461033257600080fd5b80636c3978501461023a5780636e9bb60b1461024357806382975fe714610256578063adaa7a0f1461027d578063ae722e82146102a457600080fd5b8063343aad82116100f4578063343aad82146101bd57806339cd53ee146101d55780633baebb75146101fe57806359b4a3f31461021157806359e7b5be1461021a57600080fd5b8063019e272914610131578063047c13f514610146578063158ef93e14610159578063228cb7331461017b57806331223ba7146101a6575b600080fd5b61014461013f366004611f41565b610345565b005b610144610154366004611f9e565b61043d565b6000546101669060ff1681565b60405190151581526020015b60405180910390f35b60015461018e906001600160a01b031681565b6040516001600160a01b039091168152602001610172565b6101af60035481565b604051908152602001610172565b60005461018e9061010090046001600160a01b031681565b61018e6101e3366004611fd1565b6005602052600090815260409020546001600160a01b031681565b61014461020c366004612267565b610554565b6101af60025481565b61022d6102283660046122ff565b6107e5565b604051610172919061233b565b6101af60045481565b6101af61025136600461236d565b6108f9565b6101667f000000000000000000000000000000000000000000000000000000000000000081565b6101667f000000000000000000000000000000000000000000000000000000000000000081565b6101446102b23660046122ff565b610b6e565b6101af6102c53660046122ff565b610ee7565b6101446102d83660046123b3565b6110ea565b6101446102eb366004611fd1565b600090815260056020526040902080546001600160a01b03191633179055565b6101667f000000000000000000000000000000000000000000000000000000000000000081565b610144610340366004611fd1565b600455565b60005460ff16156103a85760405162461bcd60e51b815260206004820152602260248201527f496e697469616c697a61626c653a20616c726561647920696e697469616c697a604482015261195960f21b60648201526084015b60405180910390fd5b6000805460ff1916600117905561012c6103c485600019612409565b6103ce9190612409565b60045560028390557f000000000000000000000000000000000000000000000000000000000000000015610403576000196004555b60008054610100600160a81b0319166101006001600160a01b0394851602179055600180546001600160a01b031916919092161790555050565b600061044a60014361241d565b60408051914060208301526bffffffffffffffffffffffff193360601b16908201526001600160c01b031960c084901b166054820152605c0160408051601f198184030181529181528151602092830120600081815260059093529120549091506001600160a01b0316156104fa5760405162461bcd60e51b8152602060048201526016602482015275135a5b995c9259081a185cc81c9959da5cdd195c995960521b604482015260640161039f565b60008181526005602052604080822080546001600160a01b0319166001600160a01b0387169081179091559051909183917fbfeb006f16aca8eb3d9953cf44db6b11b6f3041a313875dfa18f2e9d71bd309e9190a3505050565b815160a0820151146105a85760405162461bcd60e51b815260206004820152601a60248201527f496e636f6e73697374656e74206d696e696e6720646967657374000000000000604482015260640161039f565b7fc5d2460186f7233c927e7db2dcc703c0e500b653ca82273b7bfad8045d85a4708160a001510361061b5760405162461bcd60e51b815260206004820152601960248201527f456d707479206469676573742063616e206e6f74206d696e6500000000000000604482015260640161039f565b6003548151116106645760405162461bcd60e51b8152602060048201526014602482015273115c1bd8da081a185cc81899595b881b5a5b995960621b604482015260640161039f565b600061010061067561040082612430565b61067f9190612409565b61010061068e61040082612430565b6106989190612409565b83606001516106a79190612409565b6106b19190612430565b60608401519091506106c390826111aa565b6000805460c0850151604051630fab20e160e31b815260048101919091526101009091046001600160a01b031690637d590708906024016040805180830381865afa158015610716573d6000803e3d6000fd5b505050506040513d601f19601f8201168201806040525081019061073a9190612466565b9050600061010061074e6104006004612430565b6107589190612409565b856080015161076791906124c0565b90508082600001516001600160801b031610801561079257508082602001516001600160801b031610155b6107de5760405162461bcd60e51b815260206004820152601d60248201527f496e76616c6964207365616c656420636f6e7465787420646967657374000000604482015260640161039f565b5050505050565b6107ed611eed565b60408083015160c08401516080850151925161081d93906020019283526020830191909152604082015260600190565b60408051808303601f19018152919052805160209091012060e08301515118815260015b60206108506104006004612430565b61085a9190612409565b8110156108f35760e083015161087160018361241d565b60808110610881576108816124d3565b602002015160405160200161089891815260200190565b604051602081830303815290604052805190602001208360e0015182608081106108c4576108c46124d3565b6020020151188282608081106108dc576108dc6124d3565b60200201526108ec6001826124c0565b9050610841565b50919050565b6000805b602061090c6104006004612430565b6109169190612409565b81101561096457610100602082028401208084836080811061093a5761093a6124d3565b6020020181815250505060206101006109539190612409565b61095d90826124c0565b90506108fd565b5060006109746020610100612409565b90505b60206109866104006004612430565b6109909190612409565b811015610a635760005b60206109a96104006004612430565b6109b39190612409565b811015610a5a5760008482608081106109ce576109ce6124d3565b602002015190506000856109e285856124c0565b608081106109f2576109f26124d3565b602002015190508181604051602001610a15929190918252602082015260400190565b60405160208183030381529060405280519060200120868460808110610a3d57610a3d6124d3565b602002015250610a539050600183901b826124c0565b905061099a565b5060011b610977565b508151610a6e611eed565b92506000610100610a826104006004612430565b610a8c9190612409565b8560800151610a9b9190612409565b905060005b85610100015151811015610b6257600080610abc6002856124e9565b600003610aec578491508761010001518381518110610add57610add6124d3565b60200260200101519050610b11565b8761010001518381518110610b0357610b036124d3565b602002602001015191508490505b6040805160208101849052908101829052606001604051602081830303815290604052805190602001209450600284610b4a9190612409565b93505050600181610b5b91906124c0565b9050610aa0565b50909150505b92915050565b6040810151610bb85760405162461bcd60e51b81526020600482015260166024820152754d696e657249642063616e6e6f74206265207a65726f60501b604482015260640161039f565b6040808201516000908152600560205220546001600160a01b031680610c205760405162461bcd60e51b815260206004820152601b60248201527f4d696e6572496420646f6573206e6f7420726567697374657265640000000000604482015260640161039f565b60008060019054906101000a90046001600160a01b03166001600160a01b031663b464b53e6040518163ffffffff1660e01b815260040160c0604051808303816000875af1158015610c76573d6000803e3d6000fd5b505050506040513d601f19601f82011682018060405250810190610c9a91906124fd565b9050610ca68382610554565b610cae611eed565b7f000000000000000000000000000000000000000000000000000000000000000015610ce457610cdd846107e5565b9050610ceb565b5060e08301515b7f000000000000000000000000000000000000000000000000000000000000000015610d74576000610d1d85836108f9565b905082604001518114610d725760405162461bcd60e51b815260206004820152601860248201527f496e636f6e73697374656e74206d65726b6c6520726f6f740000000000000000604482015260640161039f565b505b610d7c611eed565b90506000610d8985610ee7565b9050610d9885606001516113ee565b600454610da59190612409565b811115610df45760405162461bcd60e51b815260206004820152601b60248201527f446f206e6f7420726561636820746172676574207175616c6974790000000000604482015260640161039f565b7f0000000000000000000000000000000000000000000000000000000000000000610e2257610e2283611438565b6001546001600160a01b031663b7a3c04c610100610e4261040080612430565b610e4e90610400612430565b610e59906008612430565b610e639190612409565b8760800151610e729190612409565b60408089015190516001600160e01b031960e085901b16815260048101929092526001600160a01b03881660248301526044820152606401600060405180830381600087803b158015610ec457600080fd5b505af1158015610ed8573d6000803e3d6000fd5b50509351600355505050505050565b6040810151600090610f3b5760405162461bcd60e51b815260206004820152601860248201527f4d696e65722049442063616e6e6f7420626520656d7074790000000000000000604482015260640161039f565b60006040518060800160405280846040015181526020018460200151815260200184600001518152602001610f7385606001516114fa565b905290506000610f8282611562565b90506000610f936104006040612430565b610fa1610400610100612430565b610fab9190612409565b610fb86104006004612430565b610fc6610400610100612430565b610fd09190612409565b610fda9190612409565b8560a00151610fe991906124e9565b9050610ff3611eed565b610ffb611f0c565b61100a8760e0015184866115da565b9250905061010061101e6104006004612430565b6110289190612409565b8760a001516110379190612430565b6110748260405160200161104b9190612576565b6040516020818303038152906040528051906020012089606001516117d090919063ffffffff16565b61107e91906124c0565b8760800151146110d05760405162461bcd60e51b815260206004820152601960248201527f496e636f727265637420726563616c6c20706f736974696f6e00000000000000604482015260640161039f565b6110df8760a0015185846118d6565b979650505050505050565b6000818152600560205260409020546001600160a01b031633146111505760405162461bcd60e51b815260206004820152601b60248201527f53656e64657220646f6573206e6f74206f776e206d696e657249640000000000604482015260640161039f565b60008181526005602052604080822080546001600160a01b0319166001600160a01b03861690811790915590519091339184917f9a26a8e7fd42c501b452c02016def8048e3ea28c2bf15127a9b5e2029d989bf191a45050565b6101006111b961040080612430565b6111c590610400612430565b6111d0906008612430565b6111da9190612409565b82516111e691906124e9565b156112335760405162461bcd60e51b815260206004820152601d60248201527f537461727420706f736974696f6e206973206e6f7420616c69676e6564000000604482015260640161039f565b602082015182518291611245916124c0565b111561128b5760405162461bcd60e51b81526020600482015260156024820152744d696e696e672072616e6765206f766572666c6f7760581b604482015260640161039f565b6000611296836113ee565b6101006112a561040080612430565b6112b190610400612430565b6112bd90610400612430565b6112c8906008612430565b6112d29190612409565b6112dc9190612430565b9050808360200151111561132a5760405162461bcd60e51b81526020600482015260156024820152744d696e696e672072616e676520746f6f206c6f6e6760581b604482015260640161039f565b60006113368383611b5a565b905080846020015110156113855760405162461bcd60e51b8152602060048201526016602482015275135a5b9a5b99c81c985b99d9481d1bdbc81cda1bdc9d60521b604482015260640161039f565b83606001518460400151166001600160401b03166000146113e85760405162461bcd60e51b815260206004820152601a60248201527f4d61736b656420626974732073686f756c64206265207a65726f000000000000604482015260640161039f565b50505050565b606081015160009019815b6001600160401b038216156114295761141360018361259e565b9091169080611421816125c5565b9150506113f9565b600160ff9091161b9392505050565b600081602001514361144a919061241d565b60045490915060101c600061146182846064611b70565b905060146000818361147460018361241d565b61147e9087612430565b61148891906124c0565b6114929190612409565b905061149f846002612430565b8111156114b4576114b1846002612430565b90505b6114bf600285612409565b8110156114d4576114d1600285612409565b90505b6001600160f01b038111156114ed57506001600160f01b035b60101b6004555050505050565b60008160000151826020015183604001518460600151604051602001611545949392919093845260208401929092526001600160401b03908116604084015216606082015260800190565b604051602081830303815290604052805190602001209050919050565b61156a611f0c565b7f48c9bdf267e6096a3ba7ca8485ae67bb2bf894fe72f36e3cf1361d5f3af54fa581527fd182e6ad7f520e511f6c3e2b8c68059b6bbd41fbabd9831f79217e1319cde05b60208083019190915282519083015160408401516060850151610b689385939092909160806001611c1f565b6115e2611f0c565b6115ea611eed565b60005b848110156116485760005b60406116076104006004612430565b6116119190612409565b8110156116355761162185611cde565b945061162e6001826124c0565b90506115f8565b506116416001826124c0565b90506115ed565b5060005b602061165b6104006004612430565b6116659190612409565b8110156117055761167584611cde565b9350858160808110611689576116896124d3565b60200201518451188282608081106116a3576116a36124d3565b6020020152856116b48260016124c0565b608081106116c4576116c46124d3565b6020020151846001602002015118826116de8360016124c0565b608081106116ee576116ee6124d3565b60200201526116fe6002826124c0565b905061164c565b5060006117138560016124c0565b90505b6117236104006040612430565b611731610400610100612430565b61173b9190612409565b6117486104006004612430565b611756610400610100612430565b6117609190612409565b61176a9190612409565b8110156117c45760005b60406117836104006004612430565b61178d9190612409565b8110156117b15761179d85611cde565b94506117aa6001826124c0565b9050611774565b506117bd6001826124c0565b9050611716565b50829150935093915050565b6000806101006117e261040082612430565b6117ec9190612409565b84602001516117fb9190612409565b61180590846124e9565b6040850151606086015160208701519293508316179061010061182a61040082612430565b6118349190612409565b611847906001600160401b038416612430565b11156118955760405162461bcd60e51b815260206004820152601c60248201527f526563616c6c20706f736974696f6e206f7574206f6620626f756e6400000000604482015260640161039f565b6101006118a461040082612430565b6118ae9190612409565b6118c1906001600160401b038316612430565b85516118cd91906124c0565b95945050505050565b60006118e0611f0c565b7f48c9bdf267e6096a3ba7ca8485ae67bb2bf894fe72f36e3cf1361d5f3af54fa581527fd182e6ad7f520e511f6c3e2b8c68059b6bbd41fbabd9831f79217e1319cde05b6020808301919091528451908501516119469183918891906000608081611c1f565b905060005b6004602061195b61040083612430565b6119659190612409565b61196f919061241d565b811015611a20576000816004016020026080019050611a0a8386846080811061199a5761199a6124d3565b6020020151876119ab8660016124c0565b608081106119bb576119bb6124d3565b6020020151886119cc8760026124c0565b608081106119dc576119dc6124d3565b6020020151896119ed8860036124c0565b608081106119fd576119fd6124d3565b6020020151866000611c1f565b9250611a1990506004826124c0565b905061194b565b50611b4e818460046020611a3661040083612430565b611a409190612409565b611a4a919061241d565b60808110611a5a57611a5a6124d3565b602002015185600360206104006004611a739190612430565b611a7d9190612409565b611a87919061241d565b60808110611a9757611a976124d3565b602002015186600260206104006004611ab09190612430565b611aba9190612409565b611ac4919061241d565b60808110611ad457611ad46124d3565b602002015187600160206104006004611aed9190612430565b611af79190612409565b611b01919061241d565b60808110611b1157611b116124d3565b602002015160206104006004611b279190612430565b611b319190612409565b611b3c906020612430565b611b479060806124c0565b6001611c1f565b519150505b9392505050565b6000818310611b695781611b53565b5090919050565b6000808060001985870985870292508281108382030391505080600003611baa57838281611ba057611ba06123dd565b0492505050611b53565b808411611bb657600080fd5b60008486880960026001871981018816978890046003810283188082028403028082028403028082028403028082028403028082028403029081029092039091026000889003889004909101858311909403939093029303949094049190911702949350505050565b611c27611f0c565b600c6000611c3485611d4b565b8a516020808d0151835184830151604080516001600160e01b031960e08b901b168187015260248101969096526044860193909352606485018f9052608485018e905260a485018d905260c485018c90526001600160c01b031991821660e48601521660ec84015287151560f81b60f4840152805160d58185038101825260f5909401825293945091869184016009600019fa611cd057600080fd5b505050979650505050505050565b611ce6611f0c565b7f48c9bdf267e6096a3ba7ca8485ae67bb2bf894fe72f36e3cf1361d5f3af54fa581527fd182e6ad7f520e511f6c3e2b8c68059b6bbd41fbabd9831f79217e1319cde05b602080830191909152825190830151610b6891839160008060406001611c1f565b611d53611f0c565b62010000821015611d9757600882811c66ffffffffffffff169083901b67ffffffffffffff00161760f01b5b6001600160c01b031916815260006020820152919050565b640100000000821015611dd757600882811b63ff00ff001662ff00ff9184901c9190911617601081811b91901c1760e01b6001600160e01b031916611d7f565b68010000000000000000821015611df157611d7f82611e87565b600160801b821015611e41576001600160401b038216604083901c611e1582611e87565b6001600160c01b0319168352611e2a81611e87565b6001600160c01b031916602084015250611e829050565b60405162461bcd60e51b8152602060048201526016602482015275626c616b65326220696e70757420746f6f206c6f6e6760501b604482015260640161039f565b919050565b65ff000000ff00600882811b91821664ff000000ff9390911c92831617601090811b67ff000000ff0000009290921666ff000000ff0000939093169290921790911c17602081811b6bffffffffffffffff000000001691901c63ffffffff161760c01b90565b6040518061100001604052806080906020820280368337509192915050565b60405180604001604052806002906020820280368337509192915050565b80356001600160a01b0381168114611e8257600080fd5b60008060008060808587031215611f5757600080fd5b8435935060208501359250611f6e60408601611f2a565b9150611f7c60608601611f2a565b905092959194509250565b80356001600160401b0381168114611e8257600080fd5b60008060408385031215611fb157600080fd5b611fba83611f2a565b9150611fc860208401611f87565b90509250929050565b600060208284031215611fe357600080fd5b5035919050565b634e487b7160e01b600052604160045260246000fd5b60405161012081016001600160401b038111828210171561202357612023611fea565b60405290565b60405160c081016001600160401b038111828210171561202357612023611fea565b60006080828403121561205d57600080fd5b604051608081018181106001600160401b038211171561207f5761207f611fea565b806040525080915082358152602083013560208201526120a160408401611f87565b60408201526120b260608401611f87565b60608201525092915050565b600082601f8301126120cf57600080fd5b6040516110008082018281106001600160401b03821117156120f3576120f3611fea565b6040528301818582111561210657600080fd5b845b82811015612120578035825260209182019101612108565b509195945050505050565b600082601f83011261213c57600080fd5b813560206001600160401b038083111561215857612158611fea565b8260051b604051601f19603f8301168101818110848211171561217d5761217d611fea565b60405293845285810183019383810192508785111561219b57600080fd5b83870191505b848210156110df578135835291830191908301906121a1565b600061116082840312156121cd57600080fd5b6121d5612000565b90508135815260208201356020820152604082013560408201526121fc836060840161204b565b606082015260e082013560808201526101008083013560a083015261012083013560c08301526122308461014085016120be565b60e08301526111408301356001600160401b0381111561224f57600080fd5b61225b8582860161212b565b82840152505092915050565b60008082840360e081121561227b57600080fd5b83356001600160401b0381111561229157600080fd5b61229d868287016121ba565b93505060c0601f19820112156122b257600080fd5b506122bb612029565b6020840135815260408401356020820152606084013560408201526080840135606082015260a0840135608082015260c084013560a0820152809150509250929050565b60006020828403121561231157600080fd5b81356001600160401b0381111561232757600080fd5b612333848285016121ba565b949350505050565b6110008101818360005b6080811015612364578151835260209283019290910190600101612345565b50505092915050565b600080611020838503121561238157600080fd5b82356001600160401b0381111561239757600080fd5b6123a3858286016121ba565b925050611fc884602085016120be565b600080604083850312156123c657600080fd5b6123cf83611f2a565b946020939093013593505050565b634e487b7160e01b600052601260045260246000fd5b634e487b7160e01b600052601160045260246000fd5b600082612418576124186123dd565b500490565b81810381811115610b6857610b686123f3565b600081600019048311821515161561244a5761244a6123f3565b500290565b80516001600160801b0381168114611e8257600080fd5b60006040828403121561247857600080fd5b604051604081018181106001600160401b038211171561249a5761249a611fea565b6040526124a68361244f565b81526124b46020840161244f565b60208201529392505050565b80820180821115610b6857610b686123f3565b634e487b7160e01b600052603260045260246000fd5b6000826124f8576124f86123dd565b500690565b600060c0828403121561250f57600080fd5b60405160c081018181106001600160401b038211171561253157612531611fea565b8060405250825181526020830151602082015260408301516040820152606083015160608201526080830151608082015260a083015160a08201528091505092915050565b60408101818360005b600281101561236457815183526020928301929091019060010161257f565b6001600160401b038281168282160390808211156125be576125be6123f3565b5092915050565b600060ff821660ff81036125db576125db6123f3565b6001019291505056fea26469706673582212202c411eef857a38e0a760313be27e0ef4f5e9f973f1bc71f5eeba356fd719ccd864736f6c63430008100033",
  "linkReferences": {},
  "deployedLinkReferences": {}
}