{
  "_format": "hh-sol-artifact-1",
  "contractName": "PoraMineTest",
  "sourceName": "contracts/test/PoraMineTest.sol",
  "abi": [
    {
      "inputs": [
        {
          "internalType": "address",
          "name": "book",
          "type": "address"
        },
        {
          "internalType": "uint256",
          "name": "settings",
          "type": "uint256"
        }
      ],
      "stateMutability": "nonpayable",
      "type": "constructor"
    },
    {
      "anonymous": false,
      "inputs": [
        {
          "indexed": true,
          "internalType": "bytes32",
          "name": "minerId",
          "type": "bytes32"
        },
        {
          "indexed": true,
          "internalType": "address",
          "name": "beneficiary",
          "type": "address"
        }
      ],
      "name": "NewMinerId",
      "type": "event"
    },
    {
      "anonymous": false,
      "inputs": [
        {
          "indexed": true,
          "internalType": "bytes32",
          "name": "minerId",
          "type": "bytes32"
        },
        {
          "indexed": true,
          "internalType": "address",
          "name": "from",
          "type": "address"
        },
        {
          "indexed": true,
          "internalType": "address",
          "name": "to",
          "type": "address"
        }
      ],
      "name": "UpdateMinerId",
      "type": "event"
    },
    {
      "inputs": [],
      "name": "adjustRatio",
      "outputs": [
        {
          "internalType": "uint256",
          "name": "",
          "type": "uint256"
        }
      ],
      "stateMutability": "view",
      "type": "function"
    },
    {
      "inputs": [
        {
          "components": [
            {
              "internalType": "bytes32",
              "name": "contextDigest",
              "type": "bytes32"
            },
            {
              "internalType": "bytes32",
              "name": "nonce",
              "type": "bytes32"
            },
            {
              "internalType": "bytes32",
              "name": "minerId",
              "type": "bytes32"
            },
            {
              "components": [
                {
                  "internalType": "uint256",
                  "name": "startPosition",
                  "type": "uint256"
                },
                {
                  "internalType": "uint256",
                  "name": "mineLength",
                  "type": "uint256"
                },
                {
                  "internalType": "uint64",
                  "name": "shardId",
                  "type": "uint64"
                },
                {
                  "internalType": "uint64",
                  "name": "shardMask",
                  "type": "uint64"
                }
              ],
              "internalType": "struct RecallRange",
              "name": "range",
              "type": "tuple"
            },
            {
              "internalType": "uint256",
              "name": "recallPosition",
              "type": "uint256"
            },
            {
              "internalType": "uint256",
              "name": "sealOffset",
              "type": "uint256"
            },
            {
              "internalType": "bytes32",
              "name": "sealedContextDigest",
              "type": "bytes32"
            },
            {
              "internalType": "bytes32[128]",
              "name": "sealedData",
              "type": "bytes32[128]"
            },
            {
              "internalType": "bytes32[]",
              "name": "merkleProof",
              "type": "bytes32[]"
            }
          ],
          "internalType": "struct PoraMine.PoraAnswer",
          "name": "answer",
          "type": "tuple"
        },
        {
          "components": [
            {
              "internalType": "uint256",
              "name": "epoch",
              "type": "uint256"
            },
            {
              "internalType": "uint256",
              "name": "mineStart",
              "type": "uint256"
            },
            {
              "internalType": "bytes32",
              "name": "flowRoot",
              "type": "bytes32"
            },
            {
              "internalType": "uint256",
              "name": "flowLength",
              "type": "uint256"
            },
            {
              "internalType": "bytes32",
              "name": "blockDigest",
              "type": "bytes32"
            },
            {
              "internalType": "bytes32",
              "name": "digest",
              "type": "bytes32"
            }
          ],
          "internalType": "struct MineContext",
          "name": "context",
          "type": "tuple"
        }
      ],
      "name": "basicCheck",
      "outputs": [],
      "stateMutability": "view",
      "type": "function"
    },
    {
      "inputs": [
        {
          "internalType": "bytes32",
          "name": "",
          "type": "bytes32"
        }
      ],
      "name": "beneficiaries",
      "outputs": [
        {
          "internalType": "address",
          "name": "",
          "type": "address"
        }
      ],
      "stateMutability": "view",
      "type": "function"
    },
    {
      "inputs": [],
      "name": "book",
      "outputs": [
        {
          "internalType": "contract AddressBook",
          "name": "",
          "type": "address"
        }
      ],
      "stateMutability": "view",
      "type": "function"
    },
    {
      "inputs": [],
      "name": "dataProofEnabled",
      "outputs": [
        {
          "internalType": "bool",
          "name": "",
          "type": "bool"
        }
      ],
      "stateMutability": "view",
      "type": "function"
    },
    {
      "inputs": [],
      "name": "fixedQuality",
      "outputs": [
        {
          "internalType": "bool",
          "name": "",
          "type": "bool"
        }
      ],
      "stateMutability": "view",
      "type": "function"
    },
    {
      "inputs": [],
      "name": "lastMinedEpoch",
      "outputs": [
        {
          "internalType": "uint256",
          "name": "",
          "type": "uint256"
        }
      ],
      "stateMutability": "view",
      "type": "function"
    },
    {
      "inputs": [
        {
          "components": [
            {
              "internalType": "bytes32",
              "name": "contextDigest",
              "type": "bytes32"
            },
            {
              "internalType": "bytes32",
              "name": "nonce",
              "type": "bytes32"
            },
            {
              "internalType": "bytes32",
              "name": "minerId",
              "type": "bytes32"
            },
            {
              "components": [
                {
                  "internalType": "uint256",
                  "name": "startPosition",
                  "type": "uint256"
                },
                {
                  "internalType": "uint256",
                  "name": "mineLength",
                  "type": "uint256"
                },
                {
                  "internalType": "uint64",
                  "name": "shardId",
                  "type": "uint64"
                },
                {
                  "internalType": "uint64",
                  "name": "shardMask",
                  "type": "uint64"
                }
              ],
              "internalType": "struct RecallRange",
              "name": "range",
              "type": "tuple"
            },
            {
              "internalType": "uint256",
              "name": "recallPosition",
              "type": "uint256"
            },
            {
              "internalType": "uint256",
              "name": "sealOffset",
              "type": "uint256"
            },
            {
              "internalType": "bytes32",
              "name": "sealedContextDigest",
              "type": "bytes32"
            },
            {
              "internalType": "bytes32[128]",
              "name": "sealedData",
              "type": "bytes32[128]"
            },
            {
              "internalType": "bytes32[]",
              "name": "merkleProof",
              "type": "bytes32[]"
            }
          ],
          "internalType": "struct PoraMine.PoraAnswer",
          "name": "answer",
          "type": "tuple"
        }
      ],
      "name": "pora",
      "outputs": [
        {
          "internalType": "bytes32",
          "name": "",
          "type": "bytes32"
        }
      ],
      "stateMutability": "view",
      "type": "function"
    },
    {
      "inputs": [
        {
          "components": [
            {
              "internalType": "bytes32",
              "name": "contextDigest",
              "type": "bytes32"
            },
            {
              "internalType": "bytes32",
              "name": "nonce",
              "type": "bytes32"
            },
            {
              "internalType": "bytes32",
              "name": "minerId",
              "type": "bytes32"
            },
            {
              "components": [
                {
                  "internalType": "uint256",
                  "name": "startPosition",
                  "type": "uint256"
                },
                {
                  "internalType": "uint256",
                  "name": "mineLength",
                  "type": "uint256"
                },
                {
                  "internalType": "uint64",
                  "name": "shardId",
                  "type": "uint64"
                },
                {
                  "internalType": "uint64",
                  "name": "shardMask",
                  "type": "uint64"
                }
              ],
              "internalType": "struct RecallRange",
              "name": "range",
              "type": "tuple"
            },
            {
              "internalType": "uint256",
              "name": "recallPosition",
              "type": "uint256"
            },
            {
              "internalType": "uint256",
              "name": "sealOffset",
              "type": "uint256"
            },
            {
              "internalType": "bytes32",
              "name": "sealedContextDigest",
              "type": "bytes32"
            },
            {
              "internalType": "bytes32[128]",
              "name": "sealedData",
              "type": "bytes32[128]"
            },
            {
              "internalType": "bytes32[]",
              "name": "merkleProof",
              "type": "bytes32[]"
            }
          ],
          "internalType": "struct PoraMine.PoraAnswer",
          "name": "answer",
          "type": "tuple"
        },
        {
          "internalType": "bytes32[128]",
          "name": "unsealedData",
          "type": "bytes32[128]"
        }
      ],
      "name": "recoverMerkleRoot",
      "outputs": [
        {
          "internalType": "bytes32",
          "name": "",
          "type": "bytes32"
        }
      ],
      "stateMutability": "pure",
      "type": "function"
    },
    {
      "inputs": [
        {
          "internalType": "address",
          "name": "beneficiary",
          "type": "address"
        },
        {
          "internalType": "uint64",
          "name": "seed",
          "type": "uint64"
        }
      ],
      "name": "requestMinerId",
      "outputs": [],
      "stateMutability": "nonpayable",
      "type": "function"
    },
    {
      "inputs": [],
      "name": "sealDataEnabled",
      "outputs": [
        {
          "internalType": "bool",
          "name": "",
          "type": "bool"
        }
      ],
      "stateMutability": "view",
      "type": "function"
    },
    {
      "inputs": [
        {
          "internalType": "bytes32",
          "name": "minerId",
          "type": "bytes32"
        }
      ],
      "name": "setMiner",
      "outputs": [],
      "stateMutability": "nonpayable",
      "type": "function"
    },
    {
      "inputs": [
        {
          "internalType": "uint256",
          "name": "_targetQuality",
          "type": "uint256"
        }
      ],
      "name": "setQuality",
      "outputs": [],
      "stateMutability": "nonpayable",
      "type": "function"
    },
    {
      "inputs": [
        {
          "components": [
            {
              "internalType": "bytes32",
              "name": "contextDigest",
              "type": "bytes32"
            },
            {
              "internalType": "bytes32",
              "name": "nonce",
              "type": "bytes32"
            },
            {
              "internalType": "bytes32",
              "name": "minerId",
              "type": "bytes32"
            },
            {
              "components": [
                {
                  "internalType": "uint256",
                  "name": "startPosition",
                  "type": "uint256"
                },
                {
                  "internalType": "uint256",
                  "name": "mineLength",
                  "type": "uint256"
                },
                {
                  "internalType": "uint64",
                  "name": "shardId",
                  "type": "uint64"
                },
                {
                  "internalType": "uint64",
                  "name": "shardMask",
                  "type": "uint64"
                }
              ],
              "internalType": "struct RecallRange",
              "name": "range",
              "type": "tuple"
            },
            {
              "internalType": "uint256",
              "name": "recallPosition",
              "type": "uint256"
            },
            {
              "internalType": "uint256",
              "name": "sealOffset",
              "type": "uint256"
            },
            {
              "internalType": "bytes32",
              "name": "sealedContextDigest",
              "type": "bytes32"
            },
            {
              "internalType": "bytes32[128]",
              "name": "sealedData",
              "type": "bytes32[128]"
            },
            {
              "internalType": "bytes32[]",
              "name": "merkleProof",
              "type": "bytes32[]"
            }
          ],
          "internalType": "struct PoraMine.PoraAnswer",
          "name": "answer",
          "type": "tuple"
        }
      ],
      "name": "submit",
      "outputs": [],
      "stateMutability": "nonpayable",
      "type": "function"
    },
    {
      "inputs": [],
      "name": "targetQuality",
      "outputs": [
        {
          "internalType": "uint256",
          "name": "",
          "type": "uint256"
        }
      ],
      "stateMutability": "view",
      "type": "function"
    },
    {
      "inputs": [
        {
          "internalType": "address",
          "name": "to",
          "type": "address"
        },
        {
          "internalType": "bytes32",
          "name": "minerId",
          "type": "bytes32"
        }
      ],
      "name": "transferBeneficial",
      "outputs": [],
      "stateMutability": "nonpayable",
      "type": "function"
    },
    {
      "inputs": [
        {
          "components": [
            {
              "internalType": "bytes32",
              "name": "contextDigest",
              "type": "bytes32"
            },
            {
              "internalType": "bytes32",
              "name": "nonce",
              "type": "bytes32"
            },
            {
              "internalType": "bytes32",
              "name": "minerId",
              "type": "bytes32"
            },
            {
              "components": [
                {
                  "internalType": "uint256",
                  "name": "startPosition",
                  "type": "uint256"
                },
                {
                  "internalType": "uint256",
                  "name": "mineLength",
                  "type": "uint256"
                },
                {
                  "internalType": "uint64",
                  "name": "shardId",
                  "type": "uint64"
                },
                {
                  "internalType": "uint64",
                  "name": "shardMask",
                  "type": "uint64"
                }
              ],
              "internalType": "struct RecallRange",
              "name": "range",
              "type": "tuple"
            },
            {
              "internalType": "uint256",
              "name": "recallPosition",
              "type": "uint256"
            },
            {
              "internalType": "uint256",
              "name": "sealOffset",
              "type": "uint256"
            },
            {
              "internalType": "bytes32",
              "name": "sealedContextDigest",
              "type": "bytes32"
            },
            {
              "internalType": "bytes32[128]",
              "name": "sealedData",
              "type": "bytes32[128]"
            },
            {
              "internalType": "bytes32[]",
              "name": "merkleProof",
              "type": "bytes32[]"
            }
          ],
          "internalType": "struct PoraMine.PoraAnswer",
          "name": "answer",
          "type": "tuple"
        }
      ],
      "name": "unseal",
      "outputs": [
        {
          "internalType": "bytes32[128]",
          "name": "unsealedData",
          "type": "bytes32[128]"
        }
      ],
      "stateMutability": "pure",
      "type": "function"
    }
  ],
  "bytecode": "0x61010060405260006001553480156200001757600080fd5b5060405162002790380380620027908339810160408190526200003a91620000a5565b816001806004841761012c6200005383600019620000e1565b6200005f9190620000e1565b60029081556000839055600182161560805281161560a0526004811615801560c0526200008d576000196002555b5050506001600160a01b031660e05250620001049050565b60008060408385031215620000b957600080fd5b82516001600160a01b0381168114620000d157600080fd5b6020939093015192949293505050565b600082620000ff57634e487b7160e01b600052601260045260246000fd5b500490565b60805160a05160c05160e051612628620001686000396000818161012a0152818161058f01528181610b6a0152610dd70152600081816102cb0152610da90152600081816102060152610ca001526000818161023d0152610c6301526126286000f3fe608060405234801561001057600080fd5b506004361061010b5760003560e01c80636e9bb60b116100a2578063aed7522411610071578063aed7522414610272578063b0628ee014610285578063b51e039714610298578063e0ba7280146102c6578063e1498cf9146102ed57600080fd5b80636e9bb60b146101ee57806382975fe714610201578063adaa7a0f14610238578063ae722e821461025f57600080fd5b80633baebb75116100de5780633baebb75146101a957806359b4a3f3146101bc57806359e7b5be146101c55780636c397850146101e557600080fd5b8063047c13f51461011057806305a8da721461012557806331223ba71461016957806339cd53ee14610180575b600080fd5b61012361011e366004611f8b565b610300565b005b61014c7f000000000000000000000000000000000000000000000000000000000000000081565b6040516001600160a01b0390911681526020015b60405180910390f35b61017260015481565b604051908152602001610160565b61014c61018e366004611fc0565b6003602052600090815260409020546001600160a01b031681565b6101236101b7366004612256565b61041c565b61017260005481565b6101d86101d33660046122ee565b61072b565b604051610160919061232a565b61017260025481565b6101726101fc36600461235c565b61083f565b6102287f000000000000000000000000000000000000000000000000000000000000000081565b6040519015158152602001610160565b6102287f000000000000000000000000000000000000000000000000000000000000000081565b61012361026d3660046122ee565b610ab4565b6101726102803660046122ee565b610f19565b6101236102933660046123a2565b61111c565b6101236102a6366004611fc0565b600090815260036020526040902080546001600160a01b03191633179055565b6102287f000000000000000000000000000000000000000000000000000000000000000081565b6101236102fb366004611fc0565b600255565b600061030d6001436123e4565b60408051914060208301526bffffffffffffffffffffffff193360601b16908201526001600160c01b031960c084901b166054820152605c0160408051601f198184030181529181528151602092830120600081815260039093529120549091506001600160a01b0316156103c25760405162461bcd60e51b8152602060048201526016602482015275135a5b995c9259081a185cc81c9959da5cdd195c995960521b60448201526064015b60405180910390fd5b60008181526003602052604080822080546001600160a01b0319166001600160a01b0387169081179091559051909183917fbfeb006f16aca8eb3d9953cf44db6b11b6f3041a313875dfa18f2e9d71bd309e9190a3505050565b815160a0820151146104705760405162461bcd60e51b815260206004820152601a60248201527f496e636f6e73697374656e74206d696e696e672064696765737400000000000060448201526064016103b9565b7fc5d2460186f7233c927e7db2dcc703c0e500b653ca82273b7bfad8045d85a4708160a00151036104e35760405162461bcd60e51b815260206004820152601960248201527f456d707479206469676573742063616e206e6f74206d696e650000000000000060448201526064016103b9565b60015481511161052c5760405162461bcd60e51b8152602060048201526014602482015273115c1bd8da081a185cc81899595b881b5a5b995960621b60448201526064016103b9565b600061010061053d610400826123f7565b610547919061242c565b610100610556610400826123f7565b610560919061242c565b836060015161056f919061242c565b61057991906123f7565b606084015190915061058b90826111dc565b60007f00000000000000000000000000000000000000000000000000000000000000006001600160a01b031663343aad826040518163ffffffff1660e01b8152600401602060405180830381865afa1580156105eb573d6000803e3d6000fd5b505050506040513d601f19601f8201168201806040525081019061060f9190612440565b6001600160a01b0316637d5907088560c001516040518263ffffffff1660e01b815260040161064091815260200190565b6040805180830381865afa15801561065c573d6000803e3d6000fd5b505050506040513d601f19601f820116820180604052508101906106809190612474565b9050600061010061069461040060046123f7565b61069e919061242c565b85608001516106ad91906124ce565b90508082600001516001600160801b03161080156106d857508082602001516001600160801b031610155b6107245760405162461bcd60e51b815260206004820152601d60248201527f496e76616c6964207365616c656420636f6e746578742064696765737400000060448201526064016103b9565b5050505050565b610733611f1f565b60408083015160c08401516080850151925161076393906020019283526020830191909152604082015260600190565b60408051808303601f19018152919052805160209091012060e08301515118815260015b602061079661040060046123f7565b6107a0919061242c565b8110156108395760e08301516107b76001836123e4565b608081106107c7576107c76124e1565b60200201516040516020016107de91815260200190565b604051602081830303815290604052805190602001208360e00151826080811061080a5761080a6124e1565b602002015118828260808110610822576108226124e1565b60200201526108326001826124ce565b9050610787565b50919050565b6000805b602061085261040060046123f7565b61085c919061242c565b8110156108aa576101006020820284012080848360808110610880576108806124e1565b602002018181525050506020610100610899919061242c565b6108a390826124ce565b9050610843565b5060006108ba602061010061242c565b90505b60206108cc61040060046123f7565b6108d6919061242c565b8110156109a95760005b60206108ef61040060046123f7565b6108f9919061242c565b8110156109a0576000848260808110610914576109146124e1565b6020020151905060008561092885856124ce565b60808110610938576109386124e1565b60200201519050818160405160200161095b929190918252602082015260400190565b60405160208183030381529060405280519060200120868460808110610983576109836124e1565b6020020152506109999050600183901b826124ce565b90506108e0565b5060011b6108bd565b5081516109b4611f1f565b925060006101006109c861040060046123f7565b6109d2919061242c565b85608001516109e1919061242c565b905060005b85610100015151811015610aa857600080610a026002856124f7565b600003610a32578491508761010001518381518110610a2357610a236124e1565b60200260200101519050610a57565b8761010001518381518110610a4957610a496124e1565b602002602001015191508490505b6040805160208101849052908101829052606001604051602081830303815290604052805190602001209450600284610a90919061242c565b93505050600181610aa191906124ce565b90506109e6565b50909150505b92915050565b6040810151610afe5760405162461bcd60e51b81526020600482015260166024820152754d696e657249642063616e6e6f74206265207a65726f60501b60448201526064016103b9565b6040808201516000908152600360205220546001600160a01b031680610b665760405162461bcd60e51b815260206004820152601b60248201527f4d696e6572496420646f6573206e6f742072656769737465726564000000000060448201526064016103b9565b60007f00000000000000000000000000000000000000000000000000000000000000006001600160a01b031663343aad826040518163ffffffff1660e01b8152600401602060405180830381865afa158015610bc6573d6000803e3d6000fd5b505050506040513d601f19601f82011682018060405250810190610bea9190612440565b6001600160a01b031663b464b53e6040518163ffffffff1660e01b815260040160c0604051808303816000875af1158015610c29573d6000803e3d6000fd5b505050506040513d601f19601f82011682018060405250810190610c4d919061250b565b9050610c59838261041c565b610c61611f1f565b7f000000000000000000000000000000000000000000000000000000000000000015610c9757610c908461072b565b9050610c9e565b5060e08301515b7f000000000000000000000000000000000000000000000000000000000000000015610d27576000610cd0858361083f565b905082604001518114610d255760405162461bcd60e51b815260206004820152601860248201527f496e636f6e73697374656e74206d65726b6c6520726f6f74000000000000000060448201526064016103b9565b505b610d2f611f1f565b90506000610d3c85610f19565b9050610d4b8560600151611420565b600254610d58919061242c565b811115610da75760405162461bcd60e51b815260206004820152601b60248201527f446f206e6f7420726561636820746172676574207175616c697479000000000060448201526064016103b9565b7f0000000000000000000000000000000000000000000000000000000000000000610dd557610dd58361146a565b7f00000000000000000000000000000000000000000000000000000000000000006001600160a01b031663228cb7336040518163ffffffff1660e01b8152600401602060405180830381865afa158015610e33573d6000803e3d6000fd5b505050506040513d601f19601f82011682018060405250810190610e579190612440565b6001600160a01b031663b7a3c04c610100610e74610400806123f7565b610e80906104006123f7565b610e8b9060086123f7565b610e95919061242c565b8760800151610ea4919061242c565b60408089015190516001600160e01b031960e085901b16815260048101929092526001600160a01b03881660248301526044820152606401600060405180830381600087803b158015610ef657600080fd5b505af1158015610f0a573d6000803e3d6000fd5b50509351600155505050505050565b6040810151600090610f6d5760405162461bcd60e51b815260206004820152601860248201527f4d696e65722049442063616e6e6f7420626520656d707479000000000000000060448201526064016103b9565b60006040518060800160405280846040015181526020018460200151815260200184600001518152602001610fa5856060015161152c565b905290506000610fb482611594565b90506000610fc561040060406123f7565b610fd36104006101006123f7565b610fdd919061242c565b610fea61040060046123f7565b610ff86104006101006123f7565b611002919061242c565b61100c919061242c565b8560a0015161101b91906124f7565b9050611025611f1f565b61102d611f3e565b61103c8760e00151848661160c565b9250905061010061105061040060046123f7565b61105a919061242c565b8760a0015161106991906123f7565b6110a68260405160200161107d9190612584565b60405160208183030381529060405280519060200120896060015161180290919063ffffffff16565b6110b091906124ce565b8760800151146111025760405162461bcd60e51b815260206004820152601960248201527f496e636f727265637420726563616c6c20706f736974696f6e0000000000000060448201526064016103b9565b6111118760a001518584611908565b979650505050505050565b6000818152600360205260409020546001600160a01b031633146111825760405162461bcd60e51b815260206004820152601b60248201527f53656e64657220646f6573206e6f74206f776e206d696e65724964000000000060448201526064016103b9565b60008181526003602052604080822080546001600160a01b0319166001600160a01b03861690811790915590519091339184917f9a26a8e7fd42c501b452c02016def8048e3ea28c2bf15127a9b5e2029d989bf191a45050565b6101006111eb610400806123f7565b6111f7906104006123f7565b6112029060086123f7565b61120c919061242c565b825161121891906124f7565b156112655760405162461bcd60e51b815260206004820152601d60248201527f537461727420706f736974696f6e206973206e6f7420616c69676e656400000060448201526064016103b9565b602082015182518291611277916124ce565b11156112bd5760405162461bcd60e51b81526020600482015260156024820152744d696e696e672072616e6765206f766572666c6f7760581b60448201526064016103b9565b60006112c883611420565b6101006112d7610400806123f7565b6112e3906104006123f7565b6112ef906104006123f7565b6112fa9060086123f7565b611304919061242c565b61130e91906123f7565b9050808360200151111561135c5760405162461bcd60e51b81526020600482015260156024820152744d696e696e672072616e676520746f6f206c6f6e6760581b60448201526064016103b9565b60006113688383611b8c565b905080846020015110156113b75760405162461bcd60e51b8152602060048201526016602482015275135a5b9a5b99c81c985b99d9481d1bdbc81cda1bdc9d60521b60448201526064016103b9565b83606001518460400151166001600160401b031660001461141a5760405162461bcd60e51b815260206004820152601a60248201527f4d61736b656420626974732073686f756c64206265207a65726f00000000000060448201526064016103b9565b50505050565b606081015160009019815b6001600160401b0382161561145b576114456001836125ac565b9091169080611453816125d3565b91505061142b565b600160ff9091161b9392505050565b600081602001514361147c91906123e4565b60025490915060101c600061149382846064611ba2565b90506014600081836114a66001836123e4565b6114b090876123f7565b6114ba91906124ce565b6114c4919061242c565b90506114d18460026123f7565b8111156114e6576114e38460026123f7565b90505b6114f160028561242c565b8110156115065761150360028561242c565b90505b6001600160f01b0381111561151f57506001600160f01b035b60101b6002555050505050565b60008160000151826020015183604001518460600151604051602001611577949392919093845260208401929092526001600160401b03908116604084015216606082015260800190565b604051602081830303815290604052805190602001209050919050565b61159c611f3e565b7f48c9bdf267e6096a3ba7ca8485ae67bb2bf894fe72f36e3cf1361d5f3af54fa581527fd182e6ad7f520e511f6c3e2b8c68059b6bbd41fbabd9831f79217e1319cde05b60208083019190915282519083015160408401516060850151610aae9385939092909160806001611c51565b611614611f3e565b61161c611f1f565b60005b8481101561167a5760005b604061163961040060046123f7565b611643919061242c565b8110156116675761165385611d10565b94506116606001826124ce565b905061162a565b506116736001826124ce565b905061161f565b5060005b602061168d61040060046123f7565b611697919061242c565b811015611737576116a784611d10565b93508581608081106116bb576116bb6124e1565b60200201518451188282608081106116d5576116d56124e1565b6020020152856116e68260016124ce565b608081106116f6576116f66124e1565b6020020151846001602002015118826117108360016124ce565b60808110611720576117206124e1565b60200201526117306002826124ce565b905061167e565b5060006117458560016124ce565b90505b61175561040060406123f7565b6117636104006101006123f7565b61176d919061242c565b61177a61040060046123f7565b6117886104006101006123f7565b611792919061242c565b61179c919061242c565b8110156117f65760005b60406117b561040060046123f7565b6117bf919061242c565b8110156117e3576117cf85611d10565b94506117dc6001826124ce565b90506117a6565b506117ef6001826124ce565b9050611748565b50829150935093915050565b600080610100611814610400826123f7565b61181e919061242c565b846020015161182d919061242c565b61183790846124f7565b6040850151606086015160208701519293508316179061010061185c610400826123f7565b611866919061242c565b611879906001600160401b0384166123f7565b11156118c75760405162461bcd60e51b815260206004820152601c60248201527f526563616c6c20706f736974696f6e206f7574206f6620626f756e640000000060448201526064016103b9565b6101006118d6610400826123f7565b6118e0919061242c565b6118f3906001600160401b0383166123f7565b85516118ff91906124ce565b95945050505050565b6000611912611f3e565b7f48c9bdf267e6096a3ba7ca8485ae67bb2bf894fe72f36e3cf1361d5f3af54fa581527fd182e6ad7f520e511f6c3e2b8c68059b6bbd41fbabd9831f79217e1319cde05b6020808301919091528451908501516119789183918891906000608081611c51565b905060005b6004602061198d610400836123f7565b611997919061242c565b6119a191906123e4565b811015611a52576000816004016020026080019050611a3c838684608081106119cc576119cc6124e1565b6020020151876119dd8660016124ce565b608081106119ed576119ed6124e1565b6020020151886119fe8760026124ce565b60808110611a0e57611a0e6124e1565b602002015189611a1f8860036124ce565b60808110611a2f57611a2f6124e1565b6020020151866000611c51565b9250611a4b90506004826124ce565b905061197d565b50611b80818460046020611a68610400836123f7565b611a72919061242c565b611a7c91906123e4565b60808110611a8c57611a8c6124e1565b602002015185600360206104006004611aa591906123f7565b611aaf919061242c565b611ab991906123e4565b60808110611ac957611ac96124e1565b602002015186600260206104006004611ae291906123f7565b611aec919061242c565b611af691906123e4565b60808110611b0657611b066124e1565b602002015187600160206104006004611b1f91906123f7565b611b29919061242c565b611b3391906123e4565b60808110611b4357611b436124e1565b602002015160206104006004611b5991906123f7565b611b63919061242c565b611b6e9060206123f7565b611b799060806124ce565b6001611c51565b519150505b9392505050565b6000818310611b9b5781611b85565b5090919050565b6000808060001985870985870292508281108382030391505080600003611bdc57838281611bd257611bd2612416565b0492505050611b85565b808411611be857600080fd5b60008486880960026001871981018816978890046003810283188082028403028082028403028082028403028082028403028082028403029081029092039091026000889003889004909101858311909403939093029303949094049190911702949350505050565b611c59611f3e565b600c6000611c6685611d7d565b8a516020808d0151835184830151604080516001600160e01b031960e08b901b168187015260248101969096526044860193909352606485018f9052608485018e905260a485018d905260c485018c90526001600160c01b031991821660e48601521660ec84015287151560f81b60f4840152805160d58185038101825260f5909401825293945091869184016009600019fa611d0257600080fd5b505050979650505050505050565b611d18611f3e565b7f48c9bdf267e6096a3ba7ca8485ae67bb2bf894fe72f36e3cf1361d5f3af54fa581527fd182e6ad7f520e511f6c3e2b8c68059b6bbd41fbabd9831f79217e1319cde05b602080830191909152825190830151610aae91839160008060406001611c51565b611d85611f3e565b62010000821015611dc957600882811c66ffffffffffffff169083901b67ffffffffffffff00161760f01b5b6001600160c01b031916815260006020820152919050565b640100000000821015611e0957600882811b63ff00ff001662ff00ff9184901c9190911617601081811b91901c1760e01b6001600160e01b031916611db1565b68010000000000000000821015611e2357611db182611eb9565b600160801b821015611e73576001600160401b038216604083901c611e4782611eb9565b6001600160c01b0319168352611e5c81611eb9565b6001600160c01b031916602084015250611eb49050565b60405162461bcd60e51b8152602060048201526016602482015275626c616b65326220696e70757420746f6f206c6f6e6760501b60448201526064016103b9565b919050565b65ff000000ff00600882811b91821664ff000000ff9390911c92831617601090811b67ff000000ff0000009290921666ff000000ff0000939093169290921790911c17602081811b6bffffffffffffffff000000001691901c63ffffffff161760c01b90565b6040518061100001604052806080906020820280368337509192915050565b60405180604001604052806002906020820280368337509192915050565b6001600160a01b0381168114611f7157600080fd5b50565b80356001600160401b0381168114611eb457600080fd5b60008060408385031215611f9e57600080fd5b8235611fa981611f5c565b9150611fb760208401611f74565b90509250929050565b600060208284031215611fd257600080fd5b5035919050565b634e487b7160e01b600052604160045260246000fd5b60405161012081016001600160401b038111828210171561201257612012611fd9565b60405290565b60405160c081016001600160401b038111828210171561201257612012611fd9565b60006080828403121561204c57600080fd5b604051608081018181106001600160401b038211171561206e5761206e611fd9565b8060405250809150823581526020830135602082015261209060408401611f74565b60408201526120a160608401611f74565b60608201525092915050565b600082601f8301126120be57600080fd5b6040516110008082018281106001600160401b03821117156120e2576120e2611fd9565b604052830181858211156120f557600080fd5b845b8281101561210f5780358252602091820191016120f7565b509195945050505050565b600082601f83011261212b57600080fd5b813560206001600160401b038083111561214757612147611fd9565b8260051b604051601f19603f8301168101818110848211171561216c5761216c611fd9565b60405293845285810183019383810192508785111561218a57600080fd5b83870191505b8482101561111157813583529183019190830190612190565b600061116082840312156121bc57600080fd5b6121c4611fef565b90508135815260208201356020820152604082013560408201526121eb836060840161203a565b606082015260e082013560808201526101008083013560a083015261012083013560c083015261221f8461014085016120ad565b60e08301526111408301356001600160401b0381111561223e57600080fd5b61224a8582860161211a565b82840152505092915050565b60008082840360e081121561226a57600080fd5b83356001600160401b0381111561228057600080fd5b61228c868287016121a9565b93505060c0601f19820112156122a157600080fd5b506122aa612018565b6020840135815260408401356020820152606084013560408201526080840135606082015260a0840135608082015260c084013560a0820152809150509250929050565b60006020828403121561230057600080fd5b81356001600160401b0381111561231657600080fd5b612322848285016121a9565b949350505050565b6110008101818360005b6080811015612353578151835260209283019290910190600101612334565b50505092915050565b600080611020838503121561237057600080fd5b82356001600160401b0381111561238657600080fd5b612392858286016121a9565b925050611fb784602085016120ad565b600080604083850312156123b557600080fd5b82356123c081611f5c565b946020939093013593505050565b634e487b7160e01b600052601160045260246000fd5b81810381811115610aae57610aae6123ce565b6000816000190483118215151615612411576124116123ce565b500290565b634e487b7160e01b600052601260045260246000fd5b60008261243b5761243b612416565b500490565b60006020828403121561245257600080fd5b8151611b8581611f5c565b80516001600160801b0381168114611eb457600080fd5b60006040828403121561248657600080fd5b604051604081018181106001600160401b03821117156124a8576124a8611fd9565b6040526124b48361245d565b81526124c26020840161245d565b60208201529392505050565b80820180821115610aae57610aae6123ce565b634e487b7160e01b600052603260045260246000fd5b60008261250657612506612416565b500690565b600060c0828403121561251d57600080fd5b60405160c081018181106001600160401b038211171561253f5761253f611fd9565b8060405250825181526020830151602082015260408301516040820152606083015160608201526080830151608082015260a083015160a08201528091505092915050565b60408101818360005b600281101561235357815183526020928301929091019060010161258d565b6001600160401b038281168282160390808211156125cc576125cc6123ce565b5092915050565b600060ff821660ff81036125e9576125e96123ce565b6001019291505056fea26469706673582212203642b78c5f0f76e0b262abcfd5c2918f004168b172509388f0cc6faf4e8f93d264736f6c63430008100033",
  "linkReferences": {},
  "deployedLinkReferences": {}
}