{
  "_format": "hh-sol-artifact-1",
  "contractName": "PoraMineTest",
  "sourceName": "contracts/test/PoraMineTest.sol",
  "abi": [
    {
      "inputs": [
        {
          "internalType": "address",
          "name": "book",
          "type": "address"
        },
        {
          "internalType": "uint256",
          "name": "settings",
          "type": "uint256"
        }
      ],
      "stateMutability": "nonpayable",
      "type": "constructor"
    },
    {
      "anonymous": false,
      "inputs": [
        {
          "indexed": true,
          "internalType": "bytes32",
          "name": "minerId",
          "type": "bytes32"
        },
        {
          "indexed": true,
          "internalType": "address",
          "name": "beneficiary",
          "type": "address"
        }
      ],
      "name": "NewMinerId",
      "type": "event"
    },
    {
      "anonymous": false,
      "inputs": [
        {
          "indexed": true,
          "internalType": "bytes32",
          "name": "minerId",
          "type": "bytes32"
        },
        {
          "indexed": true,
          "internalType": "address",
          "name": "from",
          "type": "address"
        },
        {
          "indexed": true,
          "internalType": "address",
          "name": "to",
          "type": "address"
        }
      ],
      "name": "UpdateMinerId",
      "type": "event"
    },
    {
      "inputs": [],
      "name": "adjustRatio",
      "outputs": [
        {
          "internalType": "uint256",
          "name": "",
          "type": "uint256"
        }
      ],
      "stateMutability": "view",
      "type": "function"
    },
    {
      "inputs": [
        {
          "components": [
            {
              "internalType": "bytes32",
              "name": "contextDigest",
              "type": "bytes32"
            },
            {
              "internalType": "bytes32",
              "name": "nonce",
              "type": "bytes32"
            },
            {
              "internalType": "bytes32",
              "name": "minerId",
              "type": "bytes32"
            },
            {
              "internalType": "uint256",
              "name": "startPosition",
              "type": "uint256"
            },
            {
              "internalType": "uint256",
              "name": "mineLength",
              "type": "uint256"
            },
            {
              "internalType": "uint256",
              "name": "recallPosition",
              "type": "uint256"
            },
            {
              "internalType": "uint256",
              "name": "sealOffset",
              "type": "uint256"
            },
            {
              "internalType": "bytes32",
              "name": "sealedContextDigest",
              "type": "bytes32"
            },
            {
              "internalType": "bytes32[128]",
              "name": "sealedData",
              "type": "bytes32[128]"
            },
            {
              "internalType": "bytes32[]",
              "name": "merkleProof",
              "type": "bytes32[]"
            }
          ],
          "internalType": "struct PoraMine.PoraAnswer",
          "name": "answer",
          "type": "tuple"
        },
        {
          "components": [
            {
              "internalType": "uint256",
              "name": "epoch",
              "type": "uint256"
            },
            {
              "internalType": "uint256",
              "name": "mineStart",
              "type": "uint256"
            },
            {
              "internalType": "bytes32",
              "name": "flowRoot",
              "type": "bytes32"
            },
            {
              "internalType": "uint256",
              "name": "flowLength",
              "type": "uint256"
            },
            {
              "internalType": "bytes32",
              "name": "blockDigest",
              "type": "bytes32"
            },
            {
              "internalType": "bytes32",
              "name": "digest",
              "type": "bytes32"
            }
          ],
          "internalType": "struct MineContext",
          "name": "context",
          "type": "tuple"
        }
      ],
      "name": "basicCheck",
      "outputs": [],
      "stateMutability": "view",
      "type": "function"
    },
    {
      "inputs": [
        {
          "internalType": "bytes32",
          "name": "",
          "type": "bytes32"
        }
      ],
      "name": "beneficiaries",
      "outputs": [
        {
          "internalType": "address",
          "name": "",
          "type": "address"
        }
      ],
      "stateMutability": "view",
      "type": "function"
    },
    {
      "inputs": [],
      "name": "book",
      "outputs": [
        {
          "internalType": "contract AddressBook",
          "name": "",
          "type": "address"
        }
      ],
      "stateMutability": "view",
      "type": "function"
    },
    {
      "inputs": [],
      "name": "dataProofEnabled",
      "outputs": [
        {
          "internalType": "bool",
          "name": "",
          "type": "bool"
        }
      ],
      "stateMutability": "view",
      "type": "function"
    },
    {
      "inputs": [],
      "name": "fixedQuality",
      "outputs": [
        {
          "internalType": "bool",
          "name": "",
          "type": "bool"
        }
      ],
      "stateMutability": "view",
      "type": "function"
    },
    {
      "inputs": [],
      "name": "lastMinedEpoch",
      "outputs": [
        {
          "internalType": "uint256",
          "name": "",
          "type": "uint256"
        }
      ],
      "stateMutability": "view",
      "type": "function"
    },
    {
      "inputs": [
        {
          "components": [
            {
              "internalType": "bytes32",
              "name": "contextDigest",
              "type": "bytes32"
            },
            {
              "internalType": "bytes32",
              "name": "nonce",
              "type": "bytes32"
            },
            {
              "internalType": "bytes32",
              "name": "minerId",
              "type": "bytes32"
            },
            {
              "internalType": "uint256",
              "name": "startPosition",
              "type": "uint256"
            },
            {
              "internalType": "uint256",
              "name": "mineLength",
              "type": "uint256"
            },
            {
              "internalType": "uint256",
              "name": "recallPosition",
              "type": "uint256"
            },
            {
              "internalType": "uint256",
              "name": "sealOffset",
              "type": "uint256"
            },
            {
              "internalType": "bytes32",
              "name": "sealedContextDigest",
              "type": "bytes32"
            },
            {
              "internalType": "bytes32[128]",
              "name": "sealedData",
              "type": "bytes32[128]"
            },
            {
              "internalType": "bytes32[]",
              "name": "merkleProof",
              "type": "bytes32[]"
            }
          ],
          "internalType": "struct PoraMine.PoraAnswer",
          "name": "answer",
          "type": "tuple"
        }
      ],
      "name": "pora",
      "outputs": [
        {
          "internalType": "bytes32",
          "name": "",
          "type": "bytes32"
        }
      ],
      "stateMutability": "view",
      "type": "function"
    },
    {
      "inputs": [
        {
          "components": [
            {
              "internalType": "bytes32",
              "name": "contextDigest",
              "type": "bytes32"
            },
            {
              "internalType": "bytes32",
              "name": "nonce",
              "type": "bytes32"
            },
            {
              "internalType": "bytes32",
              "name": "minerId",
              "type": "bytes32"
            },
            {
              "internalType": "uint256",
              "name": "startPosition",
              "type": "uint256"
            },
            {
              "internalType": "uint256",
              "name": "mineLength",
              "type": "uint256"
            },
            {
              "internalType": "uint256",
              "name": "recallPosition",
              "type": "uint256"
            },
            {
              "internalType": "uint256",
              "name": "sealOffset",
              "type": "uint256"
            },
            {
              "internalType": "bytes32",
              "name": "sealedContextDigest",
              "type": "bytes32"
            },
            {
              "internalType": "bytes32[128]",
              "name": "sealedData",
              "type": "bytes32[128]"
            },
            {
              "internalType": "bytes32[]",
              "name": "merkleProof",
              "type": "bytes32[]"
            }
          ],
          "internalType": "struct PoraMine.PoraAnswer",
          "name": "answer",
          "type": "tuple"
        },
        {
          "internalType": "bytes32[128]",
          "name": "unsealedData",
          "type": "bytes32[128]"
        }
      ],
      "name": "recoverMerkleRoot",
      "outputs": [
        {
          "internalType": "bytes32",
          "name": "",
          "type": "bytes32"
        }
      ],
      "stateMutability": "pure",
      "type": "function"
    },
    {
      "inputs": [
        {
          "internalType": "address",
          "name": "beneficiary",
          "type": "address"
        },
        {
          "internalType": "uint64",
          "name": "seed",
          "type": "uint64"
        }
      ],
      "name": "requestMinerId",
      "outputs": [],
      "stateMutability": "nonpayable",
      "type": "function"
    },
    {
      "inputs": [],
      "name": "sealDataEnabled",
      "outputs": [
        {
          "internalType": "bool",
          "name": "",
          "type": "bool"
        }
      ],
      "stateMutability": "view",
      "type": "function"
    },
    {
      "inputs": [
        {
          "internalType": "bytes32",
          "name": "minerId",
          "type": "bytes32"
        }
      ],
      "name": "setMiner",
      "outputs": [],
      "stateMutability": "nonpayable",
      "type": "function"
    },
    {
      "inputs": [
        {
          "internalType": "uint256",
          "name": "_targetQuality",
          "type": "uint256"
        }
      ],
      "name": "setQuality",
      "outputs": [],
      "stateMutability": "nonpayable",
      "type": "function"
    },
    {
      "inputs": [
        {
          "components": [
            {
              "internalType": "bytes32",
              "name": "contextDigest",
              "type": "bytes32"
            },
            {
              "internalType": "bytes32",
              "name": "nonce",
              "type": "bytes32"
            },
            {
              "internalType": "bytes32",
              "name": "minerId",
              "type": "bytes32"
            },
            {
              "internalType": "uint256",
              "name": "startPosition",
              "type": "uint256"
            },
            {
              "internalType": "uint256",
              "name": "mineLength",
              "type": "uint256"
            },
            {
              "internalType": "uint256",
              "name": "recallPosition",
              "type": "uint256"
            },
            {
              "internalType": "uint256",
              "name": "sealOffset",
              "type": "uint256"
            },
            {
              "internalType": "bytes32",
              "name": "sealedContextDigest",
              "type": "bytes32"
            },
            {
              "internalType": "bytes32[128]",
              "name": "sealedData",
              "type": "bytes32[128]"
            },
            {
              "internalType": "bytes32[]",
              "name": "merkleProof",
              "type": "bytes32[]"
            }
          ],
          "internalType": "struct PoraMine.PoraAnswer",
          "name": "answer",
          "type": "tuple"
        }
      ],
      "name": "submit",
      "outputs": [],
      "stateMutability": "nonpayable",
      "type": "function"
    },
    {
      "inputs": [],
      "name": "targetQuality",
      "outputs": [
        {
          "internalType": "uint256",
          "name": "",
          "type": "uint256"
        }
      ],
      "stateMutability": "view",
      "type": "function"
    },
    {
      "inputs": [
        {
          "internalType": "address",
          "name": "to",
          "type": "address"
        },
        {
          "internalType": "bytes32",
          "name": "minerId",
          "type": "bytes32"
        }
      ],
      "name": "transferBeneficial",
      "outputs": [],
      "stateMutability": "nonpayable",
      "type": "function"
    },
    {
      "inputs": [
        {
          "components": [
            {
              "internalType": "bytes32",
              "name": "contextDigest",
              "type": "bytes32"
            },
            {
              "internalType": "bytes32",
              "name": "nonce",
              "type": "bytes32"
            },
            {
              "internalType": "bytes32",
              "name": "minerId",
              "type": "bytes32"
            },
            {
              "internalType": "uint256",
              "name": "startPosition",
              "type": "uint256"
            },
            {
              "internalType": "uint256",
              "name": "mineLength",
              "type": "uint256"
            },
            {
              "internalType": "uint256",
              "name": "recallPosition",
              "type": "uint256"
            },
            {
              "internalType": "uint256",
              "name": "sealOffset",
              "type": "uint256"
            },
            {
              "internalType": "bytes32",
              "name": "sealedContextDigest",
              "type": "bytes32"
            },
            {
              "internalType": "bytes32[128]",
              "name": "sealedData",
              "type": "bytes32[128]"
            },
            {
              "internalType": "bytes32[]",
              "name": "merkleProof",
              "type": "bytes32[]"
            }
          ],
          "internalType": "struct PoraMine.PoraAnswer",
          "name": "answer",
          "type": "tuple"
        }
      ],
      "name": "unseal",
      "outputs": [
        {
          "internalType": "bytes32[128]",
          "name": "unsealedData",
          "type": "bytes32[128]"
        }
      ],
      "stateMutability": "pure",
      "type": "function"
    }
  ],
  "bytecode": "0x61010060405260006001553480156200001757600080fd5b506040516200257b3803806200257b8339810160408190526200003a91620000a5565b816001806004841761012c6200005383600019620000e1565b6200005f9190620000e1565b60029081556000839055600182161560805281161560a0526004811615801560c0526200008d576000196002555b5050506001600160a01b031660e05250620001049050565b60008060408385031215620000b957600080fd5b82516001600160a01b0381168114620000d157600080fd5b6020939093015192949293505050565b600082620000ff57634e487b7160e01b600052601260045260246000fd5b500490565b60805160a05160c05160e051612413620001686000396000818161012a015281816104d2015281816108960152610d3c0152600081816102b80152610868015260008181610206015261077501526000818161023d015261073701526124136000f3fe608060405234801561001057600080fd5b506004361061010b5760003560e01c806382532afd116100a2578063b51e039711610071578063b51e039714610272578063e058455d146102a0578063e0ba7280146102b3578063e1498cf9146102da578063fe65947f146102ed57600080fd5b806382532afd146101ee57806382975fe714610201578063adaa7a0f14610238578063b0628ee01461025f57600080fd5b80633e97c510116100de5780633e97c510146101a957806359b4a3f3146101bc578063609a3280146101c55780636c397850146101e557600080fd5b8063047c13f51461011057806305a8da721461012557806331223ba71461016957806339cd53ee14610180575b600080fd5b61012361011e366004611e00565b610300565b005b61014c7f000000000000000000000000000000000000000000000000000000000000000081565b6040516001600160a01b0390911681526020015b60405180910390f35b61017260015481565b604051908152602001610160565b61014c61018e366004611e46565b6003602052600090815260409020546001600160a01b031681565b6101236101b7366004612079565b61041c565b61017260005481565b6101d86101d3366004612079565b6109d5565b60405161016091906120b6565b61017260025481565b6101236101fc3660046120e8565b610ae5565b6102287f000000000000000000000000000000000000000000000000000000000000000081565b6040519015158152602001610160565b6102287f000000000000000000000000000000000000000000000000000000000000000081565b61012361026d366004612181565b610ed9565b610123610280366004611e46565b600090815260036020526040902080546001600160a01b03191633179055565b6101726102ae3660046121ad565b610f99565b6102287f000000000000000000000000000000000000000000000000000000000000000081565b6101236102e8366004611e46565b600255565b6101726102fb366004612079565b61120e565b600061030d600143612213565b60408051914060208301526bffffffffffffffffffffffff193360601b16908201526001600160c01b031960c084901b166054820152605c0160408051601f198184030181529181528151602092830120600081815260039093529120549091506001600160a01b0316156103c25760405162461bcd60e51b8152602060048201526016602482015275135a5b995c9259081a185cc81c9959da5cdd195c995960521b60448201526064015b60405180910390fd5b60008181526003602052604080822080546001600160a01b0319166001600160a01b0387169081179091559051909183917fbfeb006f16aca8eb3d9953cf44db6b11b6f3041a313875dfa18f2e9d71bd309e9190a3505050565b60408101516104665760405162461bcd60e51b81526020600482015260166024820152754d696e657249642063616e6e6f74206265207a65726f60501b60448201526064016103b9565b6040808201516000908152600360205220546001600160a01b0316806104ce5760405162461bcd60e51b815260206004820152601b60248201527f4d696e6572496420646f6573206e6f742072656769737465726564000000000060448201526064016103b9565b60007f00000000000000000000000000000000000000000000000000000000000000006001600160a01b031663343aad826040518163ffffffff1660e01b8152600401602060405180830381865afa15801561052e573d6000803e3d6000fd5b505050506040513d601f19601f820116820180604052508101906105529190612226565b9050806001600160a01b03166338d45e106040518163ffffffff1660e01b8152600401600060405180830381600087803b15801561058f57600080fd5b505af11580156105a3573d6000803e3d6000fd5b505050506000816001600160a01b031663127f0f076040518163ffffffff1660e01b815260040160c060405180830381865afa1580156105e7573d6000803e3d6000fd5b505050506040513d601f19601f8201168201806040525081019061060b9190612243565b845160a0820151919250146106625760405162461bcd60e51b815260206004820152601a60248201527f496e636f6e73697374656e74206d696e696e672064696765737400000000000060448201526064016103b9565b7fc5d2460186f7233c927e7db2dcc703c0e500b653ca82273b7bfad8045d85a4708160a00151036106d55760405162461bcd60e51b815260206004820152601960248201527f456d707479206469676573742063616e206e6f74206d696e650000000000000060448201526064016103b9565b60015481511161071e5760405162461bcd60e51b8152602060048201526014602482015273115c1bd8da081a185cc81899595b881b5a5b995960621b60448201526064016103b9565b805160015561072d8482610ae5565b610735611dab565b7f00000000000000000000000000000000000000000000000000000000000000001561076b57610764856109d5565b9050610773565b506101008401515b7f0000000000000000000000000000000000000000000000000000000000000000156107fc5760006107a58683610f99565b9050826040015181146107fa5760405162461bcd60e51b815260206004820152601860248201527f496e636f6e73697374656e74206d65726b6c6520726f6f74000000000000000060448201526064016103b9565b505b610804611dab565b905060006108118661120e565b6002549091508111156108665760405162461bcd60e51b815260206004820152601b60248201527f446f206e6f7420726561636820746172676574207175616c697479000000000060448201526064016103b9565b7f000000000000000000000000000000000000000000000000000000000000000061089457610894836118c5565b7f00000000000000000000000000000000000000000000000000000000000000006001600160a01b031663228cb7336040518163ffffffff1660e01b8152600401602060405180830381865afa1580156108f2573d6000803e3d6000fd5b505050506040513d601f19601f820116820180604052508101906109169190612226565b6001600160a01b031663b7a3c04c610100610933610400806122bd565b61093f906104006122bd565b61094a9060086122bd565b61095491906122f2565b8860a0015161096391906122f2565b6040808a015190516001600160e01b031960e085901b16815260048101929092526001600160a01b03891660248301526044820152606401600060405180830381600087803b1580156109b557600080fd5b505af11580156109c9573d6000803e3d6000fd5b50505050505050505050565b6109dd611dab565b60408281015160e084015160a08501518351602081019390935292820152606081019190915260800160408051808303601f1901815291905280516020909101206101008301515118815260015b6020610a3a61040060046122bd565b610a4491906122f2565b811015610adf57610100830151610a5c600183612213565b60808110610a6c57610a6c612306565b6020020151604051602001610a8391815260200190565b604051602081830303815290604052805190602001208361010001518260808110610ab057610ab0612306565b602002015118828260808110610ac857610ac8612306565b6020020152610ad860018261231c565b9050610a2b565b50919050565b6000610100610af6610400826122bd565b610b0091906122f2565b610100610b0f610400826122bd565b610b1991906122f2565b8360600151610b2891906122f2565b610b3291906122bd565b90508083608001518460600151610b49919061231c565b1115610b8f5760405162461bcd60e51b81526020600482015260156024820152744d696e696e672072616e6765206f766572666c6f7760581b60448201526064016103b9565b610100610b9e610400806122bd565b610baa906104006122bd565b610bb6906104006122bd565b610bc19060086122bd565b610bcb91906122f2565b83608001511115610c165760405162461bcd60e51b81526020600482015260156024820152744d696e696e672072616e676520746f6f206c6f6e6760581b60448201526064016103b9565b610100610c25610400806122bd565b610c31906104006122bd565b610c3c9060086122bd565b610c4691906122f2565b8360600151610c55919061232f565b15610ca25760405162461bcd60e51b815260206004820152601d60248201527f537461727420706f736974696f6e206973206e6f7420616c69676e656400000060448201526064016103b9565b6000610ce982610100610cb7610400806122bd565b610cc3906104006122bd565b610ccf906104006122bd565b610cda9060086122bd565b610ce491906122f2565b611987565b90508084608001511015610d385760405162461bcd60e51b8152602060048201526016602482015275135a5b9a5b99c81c985b99d9481d1bdbc81cda1bdc9d60521b60448201526064016103b9565b60007f00000000000000000000000000000000000000000000000000000000000000006001600160a01b031663343aad826040518163ffffffff1660e01b8152600401602060405180830381865afa158015610d98573d6000803e3d6000fd5b505050506040513d601f19601f82011682018060405250810190610dbc9190612226565b6001600160a01b0316637d5907088660e001516040518263ffffffff1660e01b8152600401610ded91815260200190565b6040805180830381865afa158015610e09573d6000803e3d6000fd5b505050506040513d601f19601f82011682018060405250810190610e2d919061235a565b90506000610100610e4161040060046122bd565b610e4b91906122f2565b8660a00151610e5a919061231c565b90508082600001516001600160801b0316108015610e8557508082602001516001600160801b031610155b610ed15760405162461bcd60e51b815260206004820152601d60248201527f496e76616c6964207365616c656420636f6e746578742064696765737400000060448201526064016103b9565b505050505050565b6000818152600360205260409020546001600160a01b03163314610f3f5760405162461bcd60e51b815260206004820152601b60248201527f53656e64657220646f6573206e6f74206f776e206d696e65724964000000000060448201526064016103b9565b60008181526003602052604080822080546001600160a01b0319166001600160a01b03861690811790915590519091339184917f9a26a8e7fd42c501b452c02016def8048e3ea28c2bf15127a9b5e2029d989bf191a45050565b6000805b6020610fac61040060046122bd565b610fb691906122f2565b811015611004576101006020820284012080848360808110610fda57610fda612306565b602002018181525050506020610100610ff391906122f2565b610ffd908261231c565b9050610f9d565b50600061101460206101006122f2565b90505b602061102661040060046122bd565b61103091906122f2565b8110156111035760005b602061104961040060046122bd565b61105391906122f2565b8110156110fa57600084826080811061106e5761106e612306565b60200201519050600085611082858561231c565b6080811061109257611092612306565b6020020151905081816040516020016110b5929190918252602082015260400190565b604051602081830303815290604052805190602001208684608081106110dd576110dd612306565b6020020152506110f39050600183901b8261231c565b905061103a565b5060011b611017565b50815161110e611dab565b9250600061010061112261040060046122bd565b61112c91906122f2565b8560a0015161113b91906122f2565b905060005b856101200151518110156112025760008061115c60028561232f565b60000361118c57849150876101200151838151811061117d5761117d612306565b602002602001015190506111b1565b87610120015183815181106111a3576111a3612306565b602002602001015191508490505b60408051602081018490529081018290526060016040516020818303038152906040528051906020012094506002846111ea91906122f2565b935050506001816111fb919061231c565b9050611140565b50909150505b92915050565b60408101516000906112625760405162461bcd60e51b815260206004820152601860248201527f4d696e65722049442063616e6e6f7420626520656d707479000000000000000060448201526064016103b9565b6040805160a08101825283820151815260208085015190820152835191810191909152606080840151908201526080808401519082015260006112a48261199f565b905060006112b561040060406122bd565b6112c36104006101006122bd565b6112cd91906122f2565b6112da61040060046122bd565b6112e86104006101006122bd565b6112f291906122f2565b6112fc91906122f2565b8560c0015161130b919061232f565b9050611315611dab565b60005b828110156113735760005b604061133261040060046122bd565b61133c91906122f2565b8110156113605761134c85611a32565b945061135960018261231c565b9050611323565b5061136c60018261231c565b9050611318565b5060005b602061138661040060046122bd565b61139091906122f2565b81101561143a576113a084611a32565b935086610100015181608081106113b9576113b9612306565b60200201518451188282608081106113d3576113d3612306565b60200201526101008701516113e982600161231c565b608081106113f9576113f9612306565b60200201518460016020020151188261141383600161231c565b6080811061142357611423612306565b602002015261143360028261231c565b9050611377565b50600061144883600161231c565b90505b61145861040060406122bd565b6114666104006101006122bd565b61147091906122f2565b61147d61040060046122bd565b61148b6104006101006122bd565b61149591906122f2565b61149f91906122f2565b8110156114f95760005b60406114b861040060046122bd565b6114c291906122f2565b8110156114e6576114d285611a32565b94506114df60018261231c565b90506114a9565b506114f260018261231c565b905061144b565b50600061010061150b610400826122bd565b61151591906122f2565b876080015161152491906122f2565b8460405160200161153591906123b5565b6040516020818303038152906040528051906020012060001c611558919061232f565b905061010061156a61040060046122bd565b61157491906122f2565b8760c0015161158391906122bd565b610100611592610400826122bd565b61159c91906122f2565b6115a690836122bd565b88606001516115b5919061231c565b6115bf919061231c565b8760a00151146116115760405162461bcd60e51b815260206004820152601960248201527f496e636f727265637420726563616c6c20706f736974696f6e0000000000000060448201526064016103b9565b611619611dca565b7f48c9bdf267e6096a3ba7ca8485ae67bb2bf894fe72f36e3cf1361d5f3af54fa581527fd182e6ad7f520e511f6c3e2b8c68059b6bbd41fbabd9831f79217e1319cde05b60208083019190915260c089015160408a0151918a01518a5161168893859392909160806000611a9b565b606089015160808a01519192506116a89183919060008061010081611a9b565b905060005b600460206116bd610400836122bd565b6116c791906122f2565b6116d19190612213565b81101561177f576101006020600483010201611769838684608081106116f9576116f9612306565b60200201518761170a86600161231c565b6080811061171a5761171a612306565b60200201518861172b87600261231c565b6080811061173b5761173b612306565b60200201518961174c88600361231c565b6080811061175c5761175c612306565b6020020151866000611a9b565b9250611778905060048261231c565b90506116ad565b506118ae818460046020611795610400836122bd565b61179f91906122f2565b6117a99190612213565b608081106117b9576117b9612306565b6020020151856003602061040060046117d291906122bd565b6117dc91906122f2565b6117e69190612213565b608081106117f6576117f6612306565b60200201518660026020610400600461180f91906122bd565b61181991906122f2565b6118239190612213565b6080811061183357611833612306565b60200201518760016020610400600461184c91906122bd565b61185691906122f2565b6118609190612213565b6080811061187057611870612306565b60200201516020610400600461188691906122bd565b61189091906122f2565b61189b9060206122bd565b6118a79061010061231c565b6001611a9b565b90506118b8611dab565b5051979650505050505050565b60008160200151436118d79190612213565b60025490915060101c60006118ee82846064611b5a565b9050601460008183611901600183612213565b61190b90876122bd565b611915919061231c565b61191f91906122f2565b905061192c8460026122bd565b8111156119415761193e8460026122bd565b90505b61194c6002856122f2565b8110156119615761195e6002856122f2565b90505b6001600160f01b0381111561197a57506001600160f01b035b60101b6002555050505050565b60008183106119965781611998565b825b9392505050565b6119a7611dca565b7f48c9bdf267e6096a3ba7ca8485ae67bb2bf894fe72f36e3cf1361d5f3af54fa581527fd182e6ad7f520e511f6c3e2b8c68059b6bbd41fbabd9831f79217e1319cde05b60208083019190915282519083015160408401516060850151611a179385939092909160806000611a9b565b90506112088183600460200201516000808060a06001611a9b565b611a3a611dca565b7f48c9bdf267e6096a3ba7ca8485ae67bb2bf894fe72f36e3cf1361d5f3af54fa581527fd182e6ad7f520e511f6c3e2b8c68059b6bbd41fbabd9831f79217e1319cde05b602080830191909152825190830151611208918391600080604060015b611aa3611dca565b600c6000611ab085611c08565b8a516020808d0151835184830151604080516001600160e01b031960e08b901b168187015260248101969096526044860193909352606485018f9052608485018e905260a485018d905260c485018c90526001600160c01b031991821660e48601521660ec84015287151560f81b60f4840152805160d58185038101825260f5909401825293945091869184016009600019fa611b4c57600080fd5b505050979650505050505050565b6000808060001985870985870292508281108382030391505080600003611b9457838281611b8a57611b8a6122dc565b0492505050611998565b808411611ba057600080fd5b600084868809600260036001881981018916988990049182028318808302840302808302840302808302840302808302840302808302840302918202909203026000889003889004909101858311909403939093029303949094049190911702949350505050565b611c10611dca565b62010000821015611c5457600882811c66ffffffffffffff169083901b67ffffffffffffff00161760f01b5b6001600160c01b031916815260006020820152919050565b640100000000821015611c9457600882811b63ff00ff001662ff00ff9184901c9190911617601081811b91901c1760e01b6001600160e01b031916611c3c565b68010000000000000000821015611cae57611c3c82611d45565b600160801b821015611cff5767ffffffffffffffff8216604083901c611cd382611d45565b6001600160c01b0319168352611ce881611d45565b6001600160c01b031916602084015250611d409050565b60405162461bcd60e51b8152602060048201526016602482015275626c616b65326220696e70757420746f6f206c6f6e6760501b60448201526064016103b9565b919050565b65ff000000ff00600882811b91821664ff000000ff9390911c92831617601090811b67ff000000ff0000009290921666ff000000ff0000939093169290921790911c17602081811b6bffffffffffffffff000000001691901c63ffffffff161760c01b90565b6040518061100001604052806080906020820280368337509192915050565b60405180604001604052806002906020820280368337509192915050565b6001600160a01b0381168114611dfd57600080fd5b50565b60008060408385031215611e1357600080fd5b8235611e1e81611de8565b9150602083013567ffffffffffffffff81168114611e3b57600080fd5b809150509250929050565b600060208284031215611e5857600080fd5b5035919050565b634e487b7160e01b600052604160045260246000fd5b604051610140810167ffffffffffffffff81118282101715611e9957611e99611e5f565b60405290565b60405160c0810167ffffffffffffffff81118282101715611e9957611e99611e5f565b600082601f830112611ed357600080fd5b60405161100080820182811067ffffffffffffffff82111715611ef857611ef8611e5f565b60405283018185821115611f0b57600080fd5b845b82811015611f25578035825260209182019101611f0d565b509195945050505050565b600082601f830112611f4157600080fd5b8135602067ffffffffffffffff80831115611f5e57611f5e611e5f565b8260051b604051601f19603f83011681018181108482111715611f8357611f83611e5f565b604052938452858101830193838101925087851115611fa157600080fd5b83870191505b84821015611fc057813583529183019190830190611fa7565b979650505050505050565b60006111208284031215611fde57600080fd5b611fe6611e75565b9050813581526020820135602082015260408201356040820152606082013560608201526080820135608082015260a082013560a082015260c082013560c082015260e082013560e082015261010061204184828501611ec2565b9082015261110082013567ffffffffffffffff81111561206057600080fd5b61206c84828501611f30565b6101208301525092915050565b60006020828403121561208b57600080fd5b813567ffffffffffffffff8111156120a257600080fd5b6120ae84828501611fcb565b949350505050565b6110008101818360005b60808110156120df5781518352602092830192909101906001016120c0565b50505092915050565b60008082840360e08112156120fc57600080fd5b833567ffffffffffffffff81111561211357600080fd5b61211f86828701611fcb565b93505060c0601f198201121561213457600080fd5b5061213d611e9f565b6020840135815260408401356020820152606084013560408201526080840135606082015260a0840135608082015260c084013560a0820152809150509250929050565b6000806040838503121561219457600080fd5b823561219f81611de8565b946020939093013593505050565b60008061102083850312156121c157600080fd5b823567ffffffffffffffff8111156121d857600080fd5b6121e485828601611fcb565b9250506121f48460208501611ec2565b90509250929050565b634e487b7160e01b600052601160045260246000fd5b81810381811115611208576112086121fd565b60006020828403121561223857600080fd5b815161199881611de8565b600060c0828403121561225557600080fd5b60405160c0810181811067ffffffffffffffff8211171561227857612278611e5f565b8060405250825181526020830151602082015260408301516040820152606083015160608201526080830151608082015260a083015160a08201528091505092915050565b60008160001904831182151516156122d7576122d76121fd565b500290565b634e487b7160e01b600052601260045260246000fd5b600082612301576123016122dc565b500490565b634e487b7160e01b600052603260045260246000fd5b80820180821115611208576112086121fd565b60008261233e5761233e6122dc565b500690565b80516001600160801b0381168114611d4057600080fd5b60006040828403121561236c57600080fd5b6040516040810181811067ffffffffffffffff8211171561238f5761238f611e5f565b60405261239b83612343565b81526123a960208401612343565b60208201529392505050565b60408101818360005b60028110156120df5781518352602092830192909101906001016123be56fea2646970667358221220bf87a77304b5278b3a32abc7744d698bb05b2ca72de8f0c06dfa58ad4c47233a64736f6c63430008100033",
  "linkReferences": {},
  "deployedLinkReferences": {}
}