{
  "_format": "hh-sol-artifact-1",
  "contractName": "PoraMineTest",
  "sourceName": "contracts/test/PoraMineTest.sol",
  "abi": [
    {
      "inputs": [
        {
          "internalType": "address",
          "name": "book",
          "type": "address"
        },
        {
          "internalType": "uint256",
          "name": "settings",
          "type": "uint256"
        }
      ],
      "stateMutability": "nonpayable",
      "type": "constructor"
    },
    {
      "inputs": [
        {
          "components": [
            {
              "internalType": "bytes32",
              "name": "contextDigest",
              "type": "bytes32"
            },
            {
              "internalType": "bytes32",
              "name": "nonce",
              "type": "bytes32"
            },
            {
              "internalType": "bytes32",
              "name": "minerId",
              "type": "bytes32"
            },
            {
              "internalType": "uint256",
              "name": "startPosition",
              "type": "uint256"
            },
            {
              "internalType": "uint256",
              "name": "mineLength",
              "type": "uint256"
            },
            {
              "internalType": "uint256",
              "name": "recallPosition",
              "type": "uint256"
            },
            {
              "internalType": "uint256",
              "name": "sealOffset",
              "type": "uint256"
            },
            {
              "internalType": "bytes32",
              "name": "sealedContextDigest",
              "type": "bytes32"
            },
            {
              "internalType": "bytes32[128]",
              "name": "sealedData",
              "type": "bytes32[128]"
            },
            {
              "internalType": "bytes32[]",
              "name": "merkleProof",
              "type": "bytes32[]"
            }
          ],
          "internalType": "struct PoraMine.PoraAnswer",
          "name": "answer",
          "type": "tuple"
        },
        {
          "components": [
            {
              "internalType": "uint256",
              "name": "epoch",
              "type": "uint256"
            },
            {
              "internalType": "uint256",
              "name": "mineStart",
              "type": "uint256"
            },
            {
              "internalType": "bytes32",
              "name": "flowRoot",
              "type": "bytes32"
            },
            {
              "internalType": "uint256",
              "name": "flowLength",
              "type": "uint256"
            },
            {
              "internalType": "bytes32",
              "name": "blockDigest",
              "type": "bytes32"
            },
            {
              "internalType": "bytes32",
              "name": "digest",
              "type": "bytes32"
            }
          ],
          "internalType": "struct MineContext",
          "name": "context",
          "type": "tuple"
        }
      ],
      "name": "basicCheck",
      "outputs": [],
      "stateMutability": "view",
      "type": "function"
    },
    {
      "inputs": [],
      "name": "book",
      "outputs": [
        {
          "internalType": "contract AddressBook",
          "name": "",
          "type": "address"
        }
      ],
      "stateMutability": "view",
      "type": "function"
    },
    {
      "inputs": [],
      "name": "dataProofEnabled",
      "outputs": [
        {
          "internalType": "bool",
          "name": "",
          "type": "bool"
        }
      ],
      "stateMutability": "view",
      "type": "function"
    },
    {
      "inputs": [],
      "name": "lastMinedEpoch",
      "outputs": [
        {
          "internalType": "uint256",
          "name": "",
          "type": "uint256"
        }
      ],
      "stateMutability": "view",
      "type": "function"
    },
    {
      "inputs": [
        {
          "internalType": "address",
          "name": "",
          "type": "address"
        }
      ],
      "name": "minerIds",
      "outputs": [
        {
          "internalType": "bytes32",
          "name": "",
          "type": "bytes32"
        }
      ],
      "stateMutability": "view",
      "type": "function"
    },
    {
      "inputs": [
        {
          "components": [
            {
              "internalType": "bytes32",
              "name": "contextDigest",
              "type": "bytes32"
            },
            {
              "internalType": "bytes32",
              "name": "nonce",
              "type": "bytes32"
            },
            {
              "internalType": "bytes32",
              "name": "minerId",
              "type": "bytes32"
            },
            {
              "internalType": "uint256",
              "name": "startPosition",
              "type": "uint256"
            },
            {
              "internalType": "uint256",
              "name": "mineLength",
              "type": "uint256"
            },
            {
              "internalType": "uint256",
              "name": "recallPosition",
              "type": "uint256"
            },
            {
              "internalType": "uint256",
              "name": "sealOffset",
              "type": "uint256"
            },
            {
              "internalType": "bytes32",
              "name": "sealedContextDigest",
              "type": "bytes32"
            },
            {
              "internalType": "bytes32[128]",
              "name": "sealedData",
              "type": "bytes32[128]"
            },
            {
              "internalType": "bytes32[]",
              "name": "merkleProof",
              "type": "bytes32[]"
            }
          ],
          "internalType": "struct PoraMine.PoraAnswer",
          "name": "answer",
          "type": "tuple"
        }
      ],
      "name": "pora",
      "outputs": [
        {
          "internalType": "bytes32",
          "name": "",
          "type": "bytes32"
        }
      ],
      "stateMutability": "view",
      "type": "function"
    },
    {
      "inputs": [
        {
          "components": [
            {
              "internalType": "bytes32",
              "name": "contextDigest",
              "type": "bytes32"
            },
            {
              "internalType": "bytes32",
              "name": "nonce",
              "type": "bytes32"
            },
            {
              "internalType": "bytes32",
              "name": "minerId",
              "type": "bytes32"
            },
            {
              "internalType": "uint256",
              "name": "startPosition",
              "type": "uint256"
            },
            {
              "internalType": "uint256",
              "name": "mineLength",
              "type": "uint256"
            },
            {
              "internalType": "uint256",
              "name": "recallPosition",
              "type": "uint256"
            },
            {
              "internalType": "uint256",
              "name": "sealOffset",
              "type": "uint256"
            },
            {
              "internalType": "bytes32",
              "name": "sealedContextDigest",
              "type": "bytes32"
            },
            {
              "internalType": "bytes32[128]",
              "name": "sealedData",
              "type": "bytes32[128]"
            },
            {
              "internalType": "bytes32[]",
              "name": "merkleProof",
              "type": "bytes32[]"
            }
          ],
          "internalType": "struct PoraMine.PoraAnswer",
          "name": "answer",
          "type": "tuple"
        },
        {
          "internalType": "bytes32[128]",
          "name": "unsealedData",
          "type": "bytes32[128]"
        }
      ],
      "name": "recoverMerkleRoot",
      "outputs": [
        {
          "internalType": "bytes32",
          "name": "",
          "type": "bytes32"
        }
      ],
      "stateMutability": "pure",
      "type": "function"
    },
    {
      "inputs": [],
      "name": "sealDataEnabled",
      "outputs": [
        {
          "internalType": "bool",
          "name": "",
          "type": "bool"
        }
      ],
      "stateMutability": "view",
      "type": "function"
    },
    {
      "inputs": [
        {
          "internalType": "bytes32",
          "name": "minerId",
          "type": "bytes32"
        }
      ],
      "name": "setMiner",
      "outputs": [],
      "stateMutability": "nonpayable",
      "type": "function"
    },
    {
      "inputs": [
        {
          "internalType": "uint256",
          "name": "_targetQuality",
          "type": "uint256"
        }
      ],
      "name": "setQuality",
      "outputs": [],
      "stateMutability": "nonpayable",
      "type": "function"
    },
    {
      "inputs": [
        {
          "components": [
            {
              "internalType": "bytes32",
              "name": "contextDigest",
              "type": "bytes32"
            },
            {
              "internalType": "bytes32",
              "name": "nonce",
              "type": "bytes32"
            },
            {
              "internalType": "bytes32",
              "name": "minerId",
              "type": "bytes32"
            },
            {
              "internalType": "uint256",
              "name": "startPosition",
              "type": "uint256"
            },
            {
              "internalType": "uint256",
              "name": "mineLength",
              "type": "uint256"
            },
            {
              "internalType": "uint256",
              "name": "recallPosition",
              "type": "uint256"
            },
            {
              "internalType": "uint256",
              "name": "sealOffset",
              "type": "uint256"
            },
            {
              "internalType": "bytes32",
              "name": "sealedContextDigest",
              "type": "bytes32"
            },
            {
              "internalType": "bytes32[128]",
              "name": "sealedData",
              "type": "bytes32[128]"
            },
            {
              "internalType": "bytes32[]",
              "name": "merkleProof",
              "type": "bytes32[]"
            }
          ],
          "internalType": "struct PoraMine.PoraAnswer",
          "name": "answer",
          "type": "tuple"
        }
      ],
      "name": "submit",
      "outputs": [],
      "stateMutability": "nonpayable",
      "type": "function"
    },
    {
      "inputs": [],
      "name": "targetQuality",
      "outputs": [
        {
          "internalType": "uint256",
          "name": "",
          "type": "uint256"
        }
      ],
      "stateMutability": "view",
      "type": "function"
    },
    {
      "inputs": [],
      "name": "totalMiningTime",
      "outputs": [
        {
          "internalType": "uint256",
          "name": "",
          "type": "uint256"
        }
      ],
      "stateMutability": "view",
      "type": "function"
    },
    {
      "inputs": [],
      "name": "totalSubmission",
      "outputs": [
        {
          "internalType": "uint256",
          "name": "",
          "type": "uint256"
        }
      ],
      "stateMutability": "view",
      "type": "function"
    },
    {
      "inputs": [
        {
          "components": [
            {
              "internalType": "bytes32",
              "name": "contextDigest",
              "type": "bytes32"
            },
            {
              "internalType": "bytes32",
              "name": "nonce",
              "type": "bytes32"
            },
            {
              "internalType": "bytes32",
              "name": "minerId",
              "type": "bytes32"
            },
            {
              "internalType": "uint256",
              "name": "startPosition",
              "type": "uint256"
            },
            {
              "internalType": "uint256",
              "name": "mineLength",
              "type": "uint256"
            },
            {
              "internalType": "uint256",
              "name": "recallPosition",
              "type": "uint256"
            },
            {
              "internalType": "uint256",
              "name": "sealOffset",
              "type": "uint256"
            },
            {
              "internalType": "bytes32",
              "name": "sealedContextDigest",
              "type": "bytes32"
            },
            {
              "internalType": "bytes32[128]",
              "name": "sealedData",
              "type": "bytes32[128]"
            },
            {
              "internalType": "bytes32[]",
              "name": "merkleProof",
              "type": "bytes32[]"
            }
          ],
          "internalType": "struct PoraMine.PoraAnswer",
          "name": "answer",
          "type": "tuple"
        }
      ],
      "name": "unseal",
      "outputs": [
        {
          "internalType": "bytes32[128]",
          "name": "unsealedData",
          "type": "bytes32[128]"
        }
      ],
      "stateMutability": "pure",
      "type": "function"
    }
  ],
  "bytecode": "0x60e06040526000805534801561001457600080fd5b5060405161205138038061205183398101604081905261003391610059565b60001960019081558116156080526002161560a0526001600160a01b031660c052610093565b6000806040838503121561006c57600080fd5b82516001600160a01b038116811461008357600080fd5b6020939093015192949293505050565b60805160a05160c051611f6d6100e46000396000818160ff015281816102930152818161062e0152610ac00152600081816101dd015261053b01526000818161021401526104fd0152611f6d6000f3fe608060405234801561001057600080fd5b50600436106100f55760003560e01c806380884dc611610097578063b51e039711610066578063b51e039714610236578063e058455d14610256578063e1498cf914610269578063fe65947f1461027c57600080fd5b806380884dc6146101a557806382532afd146101c557806382975fe7146101d8578063adaa7a0f1461020f57600080fd5b80633e97c510116100d35780633e97c5101461015e578063609a3280146101735780636c39785014610193578063755d0c631461019c57600080fd5b806305a8da72146100fa57806331223ba71461013e578063362a538914610155575b600080fd5b6101217f000000000000000000000000000000000000000000000000000000000000000081565b6040516001600160a01b0390911681526020015b60405180910390f35b61014760005481565b604051908152602001610135565b61014760035481565b61017161016c366004611bb1565b61028f565b005b610186610181366004611bb1565b610759565b6040516101359190611bee565b61014760015481565b61014760045481565b6101476101b3366004611c38565b60026020526000908152604090205481565b6101716101d3366004611c55565b610869565b6101ff7f000000000000000000000000000000000000000000000000000000000000000081565b6040519015158152602001610135565b6101ff7f000000000000000000000000000000000000000000000000000000000000000081565b610171610244366004611cee565b33600090815260026020526040902055565b610147610264366004611d07565b610c5d565b610171610277366004611cee565b600155565b61014761028a366004611bb1565b610ed2565b60007f00000000000000000000000000000000000000000000000000000000000000006001600160a01b031663343aad826040518163ffffffff1660e01b8152600401602060405180830381865afa1580156102ef573d6000803e3d6000fd5b505050506040513d601f19601f820116820180604052508101906103139190611d57565b9050806001600160a01b03166338d45e106040518163ffffffff1660e01b8152600401600060405180830381600087803b15801561035057600080fd5b505af1158015610364573d6000803e3d6000fd5b505050506000816001600160a01b031663127f0f076040518163ffffffff1660e01b815260040160c060405180830381865afa1580156103a8573d6000803e3d6000fd5b505050506040513d601f19601f820116820180604052508101906103cc9190611d74565b835160a0820151919250146104285760405162461bcd60e51b815260206004820152601a60248201527f496e636f6e73697374656e74206d696e696e672064696765737400000000000060448201526064015b60405180910390fd5b7fc5d2460186f7233c927e7db2dcc703c0e500b653ca82273b7bfad8045d85a4708160a001510361049b5760405162461bcd60e51b815260206004820152601960248201527f456d707479206469676573742063616e206e6f74206d696e6500000000000000604482015260640161041f565b6000548151116104e45760405162461bcd60e51b8152602060048201526014602482015273115c1bd8da081a185cc81899595b881b5a5b995960621b604482015260640161041f565b80516000556104f38382610869565b6104fb61195a565b7f0000000000000000000000000000000000000000000000000000000000000000156105315761052a84610759565b9050610539565b506101008301515b7f0000000000000000000000000000000000000000000000000000000000000000156105c257600061056b8583610c5d565b9050826040015181146105c05760405162461bcd60e51b815260206004820152601860248201527f496e636f6e73697374656e74206d65726b6c6520726f6f740000000000000000604482015260640161041f565b505b6105ca61195a565b905060006105d785610ed2565b60015490915081111561062c5760405162461bcd60e51b815260206004820152601b60248201527f446f206e6f7420726561636820746172676574207175616c6974790000000000604482015260640161041f565b7f00000000000000000000000000000000000000000000000000000000000000006001600160a01b031663228cb7336040518163ffffffff1660e01b8152600401602060405180830381865afa15801561068a573d6000803e3d6000fd5b505050506040513d601f19601f820116820180604052508101906106ae9190611d57565b6001600160a01b031663ccec92c46101006106cb61040080611e04565b6106d790610400611e04565b6106e2906008611e04565b6106ec9190611e39565b8760a001516106fb9190611e39565b6040516001600160e01b031960e084901b1681526004810191909152336024820152604401600060405180830381600087803b15801561073a57600080fd5b505af115801561074e573d6000803e3d6000fd5b505050505050505050565b61076161195a565b60408281015160e084015160a08501518351602081019390935292820152606081019190915260800160408051808303601f1901815291905280516020909101206101008301515118815260015b60206107be6104006004611e04565b6107c89190611e39565b811015610863576101008301516107e0600183611e63565b608081106107f0576107f0611e4d565b602002015160405160200161080791815260200190565b60405160208183030381529060405280519060200120836101000151826080811061083457610834611e4d565b60200201511882826080811061084c5761084c611e4d565b602002015261085c600182611e76565b90506107af565b50919050565b600061010061087a61040082611e04565b6108849190611e39565b61010061089361040082611e04565b61089d9190611e39565b83606001516108ac9190611e39565b6108b69190611e04565b905080836080015184606001516108cd9190611e76565b11156109135760405162461bcd60e51b81526020600482015260156024820152744d696e696e672072616e6765206f766572666c6f7760581b604482015260640161041f565b61010061092261040080611e04565b61092e90610400611e04565b61093a90610400611e04565b610945906008611e04565b61094f9190611e39565b8360800151111561099a5760405162461bcd60e51b81526020600482015260156024820152744d696e696e672072616e676520746f6f206c6f6e6760581b604482015260640161041f565b6101006109a961040080611e04565b6109b590610400611e04565b6109c0906008611e04565b6109ca9190611e39565b83606001516109d99190611e89565b15610a265760405162461bcd60e51b815260206004820152601d60248201527f537461727420706f736974696f6e206973206e6f7420616c69676e6564000000604482015260640161041f565b6000610a6d82610100610a3b61040080611e04565b610a4790610400611e04565b610a5390610400611e04565b610a5e906008611e04565b610a689190611e39565b6115e4565b90508084608001511015610abc5760405162461bcd60e51b8152602060048201526016602482015275135a5b9a5b99c81c985b99d9481d1bdbc81cda1bdc9d60521b604482015260640161041f565b60007f00000000000000000000000000000000000000000000000000000000000000006001600160a01b031663343aad826040518163ffffffff1660e01b8152600401602060405180830381865afa158015610b1c573d6000803e3d6000fd5b505050506040513d601f19601f82011682018060405250810190610b409190611d57565b6001600160a01b0316637d5907088660e001516040518263ffffffff1660e01b8152600401610b7191815260200190565b6040805180830381865afa158015610b8d573d6000803e3d6000fd5b505050506040513d601f19601f82011682018060405250810190610bb19190611eb4565b90506000610100610bc56104006004611e04565b610bcf9190611e39565b8660a00151610bde9190611e76565b90508082600001516001600160801b0316108015610c0957508082602001516001600160801b031610155b610c555760405162461bcd60e51b815260206004820152601d60248201527f496e76616c6964207365616c656420636f6e7465787420646967657374000000604482015260640161041f565b505050505050565b6000805b6020610c706104006004611e04565b610c7a9190611e39565b811015610cc8576101006020820284012080848360808110610c9e57610c9e611e4d565b602002018181525050506020610100610cb79190611e39565b610cc19082611e76565b9050610c61565b506000610cd86020610100611e39565b90505b6020610cea6104006004611e04565b610cf49190611e39565b811015610dc75760005b6020610d0d6104006004611e04565b610d179190611e39565b811015610dbe576000848260808110610d3257610d32611e4d565b60200201519050600085610d468585611e76565b60808110610d5657610d56611e4d565b602002015190508181604051602001610d79929190918252602082015260400190565b60405160208183030381529060405280519060200120868460808110610da157610da1611e4d565b602002015250610db79050600183901b82611e76565b9050610cfe565b5060011b610cdb565b508151610dd261195a565b92506000610100610de66104006004611e04565b610df09190611e39565b8560a00151610dff9190611e39565b905060005b85610120015151811015610ec657600080610e20600285611e89565b600003610e50578491508761012001518381518110610e4157610e41611e4d565b60200260200101519050610e75565b8761012001518381518110610e6757610e67611e4d565b602002602001015191508490505b6040805160208101849052908101829052606001604051602081830303815290604052805190602001209450600284610eae9190611e39565b93505050600181610ebf9190611e76565b9050610e04565b50909150505b92915050565b336000908152600260205260408082205490830151610f335760405162461bcd60e51b815260206004820152601760248201527f4d696e657220494420646f6573206e6f74206578697374000000000000000000604482015260640161041f565b80836040015114610f865760405162461bcd60e51b815260206004820152601860248201527f4d696e657220494420697320696e636f6e73697374656e740000000000000000604482015260640161041f565b6040805160a0810182528281526020858101519082015284519181019190915260608085015190820152608080850151908201526000610fc5826115fc565b90506000610fd66104006040611e04565b610fe4610400610100611e04565b610fee9190611e39565b610ffb6104006004611e04565b611009610400610100611e04565b6110139190611e39565b61101d9190611e39565b8660c0015161102c9190611e89565b905061103661195a565b60005b828110156110945760005b60406110536104006004611e04565b61105d9190611e39565b8110156110815761106d8561168f565b945061107a600182611e76565b9050611044565b5061108d600182611e76565b9050611039565b5060005b60206110a76104006004611e04565b6110b19190611e39565b81101561115b576110c18461168f565b935087610100015181608081106110da576110da611e4d565b60200201518451188282608081106110f4576110f4611e4d565b602002015261010088015161110a826001611e76565b6080811061111a5761111a611e4d565b602002015184600160200201511882611134836001611e76565b6080811061114457611144611e4d565b6020020152611154600282611e76565b9050611098565b506000611169836001611e76565b90505b6111796104006040611e04565b611187610400610100611e04565b6111919190611e39565b61119e6104006004611e04565b6111ac610400610100611e04565b6111b69190611e39565b6111c09190611e39565b81101561121a5760005b60406111d96104006004611e04565b6111e39190611e39565b811015611207576111f38561168f565b9450611200600182611e76565b90506111ca565b50611213600182611e76565b905061116c565b50600061010061122c61040082611e04565b6112369190611e39565b88608001516112459190611e39565b846040516020016112569190611f0f565b6040516020818303038152906040528051906020012060001c6112799190611e89565b905061010061128b6104006004611e04565b6112959190611e39565b8860c001516112a49190611e04565b6101006112b361040082611e04565b6112bd9190611e39565b6112c79083611e04565b89606001516112d69190611e76565b6112e09190611e76565b8860a00151146113325760405162461bcd60e51b815260206004820152601960248201527f496e636f727265637420726563616c6c20706f736974696f6e00000000000000604482015260640161041f565b61133a611979565b7f48c9bdf267e6096a3ba7ca8485ae67bb2bf894fe72f36e3cf1361d5f3af54fa581527fd182e6ad7f520e511f6c3e2b8c68059b6bbd41fbabd9831f79217e1319cde05b60208083019190915260c08a0151908a01518a516113a692849290918b9190608060006116f8565b60608a015160808b01519192506113c691839190600080610100816116f8565b905060005b600460206113db61040083611e04565b6113e59190611e39565b6113ef9190611e63565b81101561149d5761010060206004830102016114878386846080811061141757611417611e4d565b602002015187611428866001611e76565b6080811061143857611438611e4d565b602002015188611449876002611e76565b6080811061145957611459611e4d565b60200201518961146a886003611e76565b6080811061147a5761147a611e4d565b60200201518660006116f8565b92506114969050600482611e76565b90506113cb565b506115cc8184600460206114b361040083611e04565b6114bd9190611e39565b6114c79190611e63565b608081106114d7576114d7611e4d565b6020020151856003602061040060046114f09190611e04565b6114fa9190611e39565b6115049190611e63565b6080811061151457611514611e4d565b60200201518660026020610400600461152d9190611e04565b6115379190611e39565b6115419190611e63565b6080811061155157611551611e4d565b60200201518760016020610400600461156a9190611e04565b6115749190611e39565b61157e9190611e63565b6080811061158e5761158e611e4d565b6020020151602061040060046115a49190611e04565b6115ae9190611e39565b6115b9906020611e04565b6115c590610100611e76565b60016116f8565b90506115d661195a565b505198975050505050505050565b60008183106115f357816115f5565b825b9392505050565b611604611979565b7f48c9bdf267e6096a3ba7ca8485ae67bb2bf894fe72f36e3cf1361d5f3af54fa581527fd182e6ad7f520e511f6c3e2b8c68059b6bbd41fbabd9831f79217e1319cde05b6020808301919091528251908301516040840151606085015161167493859390929091608060006116f8565b9050610ecc8183600460200201516000808060a060016116f8565b611697611979565b7f48c9bdf267e6096a3ba7ca8485ae67bb2bf894fe72f36e3cf1361d5f3af54fa581527fd182e6ad7f520e511f6c3e2b8c68059b6bbd41fbabd9831f79217e1319cde05b602080830191909152825190830151610ecc918391600080604060015b611700611979565b600c600061170d856117b7565b8a516020808d0151835184830151604080516001600160e01b031960e08b901b168187015260248101969096526044860193909352606485018f9052608485018e905260a485018d905260c485018c90526001600160c01b031991821660e48601521660ec84015287151560f81b60f4840152805160d58185038101825260f5909401825293945091869184016009600019fa6117a957600080fd5b505050979650505050505050565b6117bf611979565b6201000082101561180357600882811c66ffffffffffffff169083901b67ffffffffffffff00161760f01b5b6001600160c01b031916815260006020820152919050565b64010000000082101561184357600882811b63ff00ff001662ff00ff9184901c9190911617601081811b91901c1760e01b6001600160e01b0319166117eb565b6801000000000000000082101561185d576117eb826118f4565b600160801b8210156118ae5767ffffffffffffffff8216604083901c611882826118f4565b6001600160c01b0319168352611897816118f4565b6001600160c01b0319166020840152506118ef9050565b60405162461bcd60e51b8152602060048201526016602482015275626c616b65326220696e70757420746f6f206c6f6e6760501b604482015260640161041f565b919050565b65ff000000ff00600882811b91821664ff000000ff9390911c92831617601090811b67ff000000ff0000009290921666ff000000ff0000939093169290921790911c17602081811b6bffffffffffffffff000000001691901c63ffffffff161760c01b90565b6040518061100001604052806080906020820280368337509192915050565b60405180604001604052806002906020820280368337509192915050565b634e487b7160e01b600052604160045260246000fd5b604051610140810167ffffffffffffffff811182821017156119d1576119d1611997565b60405290565b60405160c0810167ffffffffffffffff811182821017156119d1576119d1611997565b600082601f830112611a0b57600080fd5b60405161100080820182811067ffffffffffffffff82111715611a3057611a30611997565b60405283018185821115611a4357600080fd5b845b82811015611a5d578035825260209182019101611a45565b509195945050505050565b600082601f830112611a7957600080fd5b8135602067ffffffffffffffff80831115611a9657611a96611997565b8260051b604051601f19603f83011681018181108482111715611abb57611abb611997565b604052938452858101830193838101925087851115611ad957600080fd5b83870191505b84821015611af857813583529183019190830190611adf565b979650505050505050565b60006111208284031215611b1657600080fd5b611b1e6119ad565b9050813581526020820135602082015260408201356040820152606082013560608201526080820135608082015260a082013560a082015260c082013560c082015260e082013560e0820152610100611b79848285016119fa565b9082015261110082013567ffffffffffffffff811115611b9857600080fd5b611ba484828501611a68565b6101208301525092915050565b600060208284031215611bc357600080fd5b813567ffffffffffffffff811115611bda57600080fd5b611be684828501611b03565b949350505050565b6110008101818360005b6080811015611c17578151835260209283019290910190600101611bf8565b50505092915050565b6001600160a01b0381168114611c3557600080fd5b50565b600060208284031215611c4a57600080fd5b81356115f581611c20565b60008082840360e0811215611c6957600080fd5b833567ffffffffffffffff811115611c8057600080fd5b611c8c86828701611b03565b93505060c0601f1982011215611ca157600080fd5b50611caa6119d7565b6020840135815260408401356020820152606084013560408201526080840135606082015260a0840135608082015260c084013560a0820152809150509250929050565b600060208284031215611d0057600080fd5b5035919050565b6000806110208385031215611d1b57600080fd5b823567ffffffffffffffff811115611d3257600080fd5b611d3e85828601611b03565b925050611d4e84602085016119fa565b90509250929050565b600060208284031215611d6957600080fd5b81516115f581611c20565b600060c08284031215611d8657600080fd5b60405160c0810181811067ffffffffffffffff82111715611da957611da9611997565b8060405250825181526020830151602082015260408301516040820152606083015160608201526080830151608082015260a083015160a08201528091505092915050565b634e487b7160e01b600052601160045260246000fd5b6000816000190483118215151615611e1e57611e1e611dee565b500290565b634e487b7160e01b600052601260045260246000fd5b600082611e4857611e48611e23565b500490565b634e487b7160e01b600052603260045260246000fd5b81810381811115610ecc57610ecc611dee565b80820180821115610ecc57610ecc611dee565b600082611e9857611e98611e23565b500690565b80516001600160801b03811681146118ef57600080fd5b600060408284031215611ec657600080fd5b6040516040810181811067ffffffffffffffff82111715611ee957611ee9611997565b604052611ef583611e9d565b8152611f0360208401611e9d565b60208201529392505050565b60408101818360005b6002811015611c17578151835260209283019290910190600101611f1856fea2646970667358221220053bcbc7d28b8528c517679c32409218c19eea6bbcfa881ae078ee4b377e67e664736f6c63430008100033",
  "linkReferences": {},
  "deployedLinkReferences": {}
}