{
  "_format": "hh-sol-artifact-1",
  "contractName": "PoraMineTest",
  "sourceName": "contracts/test/PoraMineTest.sol",
  "abi": [
    {
      "inputs": [
        {
          "internalType": "uint256",
          "name": "settings",
          "type": "uint256"
        }
      ],
      "stateMutability": "nonpayable",
      "type": "constructor"
    },
    {
      "anonymous": false,
      "inputs": [
        {
          "indexed": true,
          "internalType": "bytes32",
          "name": "minerId",
          "type": "bytes32"
        },
        {
          "indexed": true,
          "internalType": "address",
          "name": "beneficiary",
          "type": "address"
        }
      ],
      "name": "NewMinerId",
      "type": "event"
    },
    {
      "anonymous": false,
      "inputs": [
        {
          "indexed": true,
          "internalType": "uint256",
          "name": "epoch",
          "type": "uint256"
        },
        {
          "indexed": true,
          "internalType": "bytes32",
          "name": "minerId",
          "type": "bytes32"
        },
        {
          "indexed": false,
          "internalType": "uint256",
          "name": "epochIndex",
          "type": "uint256"
        },
        {
          "indexed": false,
          "internalType": "uint256",
          "name": "recallPosition",
          "type": "uint256"
        }
      ],
      "name": "NewSubmission",
      "type": "event"
    },
    {
      "anonymous": false,
      "inputs": [
        {
          "indexed": true,
          "internalType": "bytes32",
          "name": "role",
          "type": "bytes32"
        },
        {
          "indexed": true,
          "internalType": "bytes32",
          "name": "previousAdminRole",
          "type": "bytes32"
        },
        {
          "indexed": true,
          "internalType": "bytes32",
          "name": "newAdminRole",
          "type": "bytes32"
        }
      ],
      "name": "RoleAdminChanged",
      "type": "event"
    },
    {
      "anonymous": false,
      "inputs": [
        {
          "indexed": true,
          "internalType": "bytes32",
          "name": "role",
          "type": "bytes32"
        },
        {
          "indexed": true,
          "internalType": "address",
          "name": "account",
          "type": "address"
        },
        {
          "indexed": true,
          "internalType": "address",
          "name": "sender",
          "type": "address"
        }
      ],
      "name": "RoleGranted",
      "type": "event"
    },
    {
      "anonymous": false,
      "inputs": [
        {
          "indexed": true,
          "internalType": "bytes32",
          "name": "role",
          "type": "bytes32"
        },
        {
          "indexed": true,
          "internalType": "address",
          "name": "account",
          "type": "address"
        },
        {
          "indexed": true,
          "internalType": "address",
          "name": "sender",
          "type": "address"
        }
      ],
      "name": "RoleRevoked",
      "type": "event"
    },
    {
      "anonymous": false,
      "inputs": [
        {
          "indexed": true,
          "internalType": "bytes32",
          "name": "minerId",
          "type": "bytes32"
        },
        {
          "indexed": true,
          "internalType": "address",
          "name": "from",
          "type": "address"
        },
        {
          "indexed": true,
          "internalType": "address",
          "name": "to",
          "type": "address"
        }
      ],
      "name": "UpdateMinerId",
      "type": "event"
    },
    {
      "inputs": [],
      "name": "DEFAULT_ADMIN_ROLE",
      "outputs": [
        {
          "internalType": "bytes32",
          "name": "",
          "type": "bytes32"
        }
      ],
      "stateMutability": "view",
      "type": "function"
    },
    {
      "inputs": [],
      "name": "PARAMS_ADMIN_ROLE",
      "outputs": [
        {
          "internalType": "bytes32",
          "name": "",
          "type": "bytes32"
        }
      ],
      "stateMutability": "view",
      "type": "function"
    },
    {
      "inputs": [
        {
          "components": [
            {
              "internalType": "bytes32",
              "name": "contextDigest",
              "type": "bytes32"
            },
            {
              "internalType": "bytes32",
              "name": "nonce",
              "type": "bytes32"
            },
            {
              "internalType": "bytes32",
              "name": "minerId",
              "type": "bytes32"
            },
            {
              "components": [
                {
                  "internalType": "uint256",
                  "name": "startPosition",
                  "type": "uint256"
                },
                {
                  "internalType": "uint256",
                  "name": "mineLength",
                  "type": "uint256"
                },
                {
                  "internalType": "uint64",
                  "name": "shardId",
                  "type": "uint64"
                },
                {
                  "internalType": "uint64",
                  "name": "shardMask",
                  "type": "uint64"
                }
              ],
              "internalType": "struct RecallRange",
              "name": "range",
              "type": "tuple"
            },
            {
              "internalType": "uint256",
              "name": "recallPosition",
              "type": "uint256"
            },
            {
              "internalType": "uint256",
              "name": "sealOffset",
              "type": "uint256"
            },
            {
              "internalType": "bytes32",
              "name": "sealedContextDigest",
              "type": "bytes32"
            },
            {
              "internalType": "bytes32[128]",
              "name": "sealedData",
              "type": "bytes32[128]"
            },
            {
              "internalType": "bytes32[]",
              "name": "merkleProof",
              "type": "bytes32[]"
            }
          ],
          "internalType": "struct MineLib.PoraAnswer",
          "name": "answer",
          "type": "tuple"
        },
        {
          "components": [
            {
              "internalType": "uint256",
              "name": "epoch",
              "type": "uint256"
            },
            {
              "internalType": "uint256",
              "name": "mineStart",
              "type": "uint256"
            },
            {
              "internalType": "bytes32",
              "name": "flowRoot",
              "type": "bytes32"
            },
            {
              "internalType": "uint256",
              "name": "flowLength",
              "type": "uint256"
            },
            {
              "internalType": "bytes32",
              "name": "blockDigest",
              "type": "bytes32"
            },
            {
              "internalType": "bytes32",
              "name": "digest",
              "type": "bytes32"
            }
          ],
          "internalType": "struct MineContext",
          "name": "context",
          "type": "tuple"
        }
      ],
      "name": "basicCheck",
      "outputs": [],
      "stateMutability": "view",
      "type": "function"
    },
    {
      "inputs": [
        {
          "internalType": "bytes32",
          "name": "",
          "type": "bytes32"
        }
      ],
      "name": "beneficiaries",
      "outputs": [
        {
          "internalType": "address",
          "name": "",
          "type": "address"
        }
      ],
      "stateMutability": "view",
      "type": "function"
    },
    {
      "inputs": [],
      "name": "canSubmit",
      "outputs": [
        {
          "internalType": "bool",
          "name": "",
          "type": "bool"
        }
      ],
      "stateMutability": "nonpayable",
      "type": "function"
    },
    {
      "inputs": [],
      "name": "currentSubmissions",
      "outputs": [
        {
          "internalType": "uint256",
          "name": "",
          "type": "uint256"
        }
      ],
      "stateMutability": "view",
      "type": "function"
    },
    {
      "inputs": [],
      "name": "dataProofEnabled",
      "outputs": [
        {
          "internalType": "bool",
          "name": "",
          "type": "bool"
        }
      ],
      "stateMutability": "view",
      "type": "function"
    },
    {
      "inputs": [],
      "name": "difficultyAdjustRatio",
      "outputs": [
        {
          "internalType": "uint256",
          "name": "",
          "type": "uint256"
        }
      ],
      "stateMutability": "view",
      "type": "function"
    },
    {
      "inputs": [],
      "name": "fixedDifficulty",
      "outputs": [
        {
          "internalType": "bool",
          "name": "",
          "type": "bool"
        }
      ],
      "stateMutability": "view",
      "type": "function"
    },
    {
      "inputs": [],
      "name": "flow",
      "outputs": [
        {
          "internalType": "address",
          "name": "",
          "type": "address"
        }
      ],
      "stateMutability": "view",
      "type": "function"
    },
    {
      "inputs": [
        {
          "internalType": "bytes32",
          "name": "role",
          "type": "bytes32"
        }
      ],
      "name": "getRoleAdmin",
      "outputs": [
        {
          "internalType": "bytes32",
          "name": "",
          "type": "bytes32"
        }
      ],
      "stateMutability": "view",
      "type": "function"
    },
    {
      "inputs": [
        {
          "internalType": "bytes32",
          "name": "role",
          "type": "bytes32"
        },
        {
          "internalType": "uint256",
          "name": "index",
          "type": "uint256"
        }
      ],
      "name": "getRoleMember",
      "outputs": [
        {
          "internalType": "address",
          "name": "",
          "type": "address"
        }
      ],
      "stateMutability": "view",
      "type": "function"
    },
    {
      "inputs": [
        {
          "internalType": "bytes32",
          "name": "role",
          "type": "bytes32"
        }
      ],
      "name": "getRoleMemberCount",
      "outputs": [
        {
          "internalType": "uint256",
          "name": "",
          "type": "uint256"
        }
      ],
      "stateMutability": "view",
      "type": "function"
    },
    {
      "inputs": [
        {
          "internalType": "bytes32",
          "name": "role",
          "type": "bytes32"
        },
        {
          "internalType": "address",
          "name": "account",
          "type": "address"
        }
      ],
      "name": "grantRole",
      "outputs": [],
      "stateMutability": "nonpayable",
      "type": "function"
    },
    {
      "inputs": [
        {
          "internalType": "bytes32",
          "name": "role",
          "type": "bytes32"
        },
        {
          "internalType": "address",
          "name": "account",
          "type": "address"
        }
      ],
      "name": "hasRole",
      "outputs": [
        {
          "internalType": "bool",
          "name": "",
          "type": "bool"
        }
      ],
      "stateMutability": "view",
      "type": "function"
    },
    {
      "inputs": [
        {
          "internalType": "uint256",
          "name": "difficulty",
          "type": "uint256"
        },
        {
          "internalType": "address",
          "name": "flow_",
          "type": "address"
        },
        {
          "internalType": "address",
          "name": "reward_",
          "type": "address"
        }
      ],
      "name": "initialize",
      "outputs": [],
      "stateMutability": "nonpayable",
      "type": "function"
    },
    {
      "inputs": [],
      "name": "initialized",
      "outputs": [
        {
          "internalType": "bool",
          "name": "",
          "type": "bool"
        }
      ],
      "stateMutability": "view",
      "type": "function"
    },
    {
      "inputs": [],
      "name": "lastMinedEpoch",
      "outputs": [
        {
          "internalType": "uint256",
          "name": "",
          "type": "uint256"
        }
      ],
      "stateMutability": "view",
      "type": "function"
    },
    {
      "inputs": [
        {
          "components": [
            {
              "internalType": "bytes32",
              "name": "contextDigest",
              "type": "bytes32"
            },
            {
              "internalType": "bytes32",
              "name": "nonce",
              "type": "bytes32"
            },
            {
              "internalType": "bytes32",
              "name": "minerId",
              "type": "bytes32"
            },
            {
              "components": [
                {
                  "internalType": "uint256",
                  "name": "startPosition",
                  "type": "uint256"
                },
                {
                  "internalType": "uint256",
                  "name": "mineLength",
                  "type": "uint256"
                },
                {
                  "internalType": "uint64",
                  "name": "shardId",
                  "type": "uint64"
                },
                {
                  "internalType": "uint64",
                  "name": "shardMask",
                  "type": "uint64"
                }
              ],
              "internalType": "struct RecallRange",
              "name": "range",
              "type": "tuple"
            },
            {
              "internalType": "uint256",
              "name": "recallPosition",
              "type": "uint256"
            },
            {
              "internalType": "uint256",
              "name": "sealOffset",
              "type": "uint256"
            },
            {
              "internalType": "bytes32",
              "name": "sealedContextDigest",
              "type": "bytes32"
            },
            {
              "internalType": "bytes32[128]",
              "name": "sealedData",
              "type": "bytes32[128]"
            },
            {
              "internalType": "bytes32[]",
              "name": "merkleProof",
              "type": "bytes32[]"
            }
          ],
          "internalType": "struct MineLib.PoraAnswer",
          "name": "answer",
          "type": "tuple"
        }
      ],
      "name": "pora",
      "outputs": [
        {
          "internalType": "bytes32",
          "name": "",
          "type": "bytes32"
        }
      ],
      "stateMutability": "view",
      "type": "function"
    },
    {
      "inputs": [],
      "name": "poraTarget",
      "outputs": [
        {
          "internalType": "uint256",
          "name": "",
          "type": "uint256"
        }
      ],
      "stateMutability": "view",
      "type": "function"
    },
    {
      "inputs": [
        {
          "components": [
            {
              "internalType": "bytes32",
              "name": "contextDigest",
              "type": "bytes32"
            },
            {
              "internalType": "bytes32",
              "name": "nonce",
              "type": "bytes32"
            },
            {
              "internalType": "bytes32",
              "name": "minerId",
              "type": "bytes32"
            },
            {
              "components": [
                {
                  "internalType": "uint256",
                  "name": "startPosition",
                  "type": "uint256"
                },
                {
                  "internalType": "uint256",
                  "name": "mineLength",
                  "type": "uint256"
                },
                {
                  "internalType": "uint64",
                  "name": "shardId",
                  "type": "uint64"
                },
                {
                  "internalType": "uint64",
                  "name": "shardMask",
                  "type": "uint64"
                }
              ],
              "internalType": "struct RecallRange",
              "name": "range",
              "type": "tuple"
            },
            {
              "internalType": "uint256",
              "name": "recallPosition",
              "type": "uint256"
            },
            {
              "internalType": "uint256",
              "name": "sealOffset",
              "type": "uint256"
            },
            {
              "internalType": "bytes32",
              "name": "sealedContextDigest",
              "type": "bytes32"
            },
            {
              "internalType": "bytes32[128]",
              "name": "sealedData",
              "type": "bytes32[128]"
            },
            {
              "internalType": "bytes32[]",
              "name": "merkleProof",
              "type": "bytes32[]"
            }
          ],
          "internalType": "struct MineLib.PoraAnswer",
          "name": "answer",
          "type": "tuple"
        },
        {
          "internalType": "bytes32[128]",
          "name": "unsealedData",
          "type": "bytes32[128]"
        }
      ],
      "name": "recoverMerkleRoot",
      "outputs": [
        {
          "internalType": "bytes32",
          "name": "",
          "type": "bytes32"
        }
      ],
      "stateMutability": "pure",
      "type": "function"
    },
    {
      "inputs": [
        {
          "internalType": "bytes32",
          "name": "role",
          "type": "bytes32"
        },
        {
          "internalType": "address",
          "name": "account",
          "type": "address"
        }
      ],
      "name": "renounceRole",
      "outputs": [],
      "stateMutability": "nonpayable",
      "type": "function"
    },
    {
      "inputs": [
        {
          "internalType": "address",
          "name": "beneficiary",
          "type": "address"
        },
        {
          "internalType": "uint64",
          "name": "seed",
          "type": "uint64"
        }
      ],
      "name": "requestMinerId",
      "outputs": [],
      "stateMutability": "nonpayable",
      "type": "function"
    },
    {
      "inputs": [
        {
          "internalType": "bytes32",
          "name": "role",
          "type": "bytes32"
        },
        {
          "internalType": "address",
          "name": "account",
          "type": "address"
        }
      ],
      "name": "revokeRole",
      "outputs": [],
      "stateMutability": "nonpayable",
      "type": "function"
    },
    {
      "inputs": [],
      "name": "reward",
      "outputs": [
        {
          "internalType": "address",
          "name": "",
          "type": "address"
        }
      ],
      "stateMutability": "view",
      "type": "function"
    },
    {
      "inputs": [],
      "name": "sealDataEnabled",
      "outputs": [
        {
          "internalType": "bool",
          "name": "",
          "type": "bool"
        }
      ],
      "stateMutability": "view",
      "type": "function"
    },
    {
      "inputs": [
        {
          "internalType": "uint256",
          "name": "difficultyAdjustRatio_",
          "type": "uint256"
        }
      ],
      "name": "setDifficultyAdjustRatio",
      "outputs": [],
      "stateMutability": "nonpayable",
      "type": "function"
    },
    {
      "inputs": [
        {
          "internalType": "bytes32",
          "name": "minerId",
          "type": "bytes32"
        }
      ],
      "name": "setMiner",
      "outputs": [],
      "stateMutability": "nonpayable",
      "type": "function"
    },
    {
      "inputs": [
        {
          "internalType": "uint256",
          "name": "_targetQuality",
          "type": "uint256"
        }
      ],
      "name": "setQuality",
      "outputs": [],
      "stateMutability": "nonpayable",
      "type": "function"
    },
    {
      "inputs": [
        {
          "internalType": "uint256",
          "name": "targetMineBlocks_",
          "type": "uint256"
        }
      ],
      "name": "setTargetMineBlocks",
      "outputs": [],
      "stateMutability": "nonpayable",
      "type": "function"
    },
    {
      "inputs": [
        {
          "internalType": "uint256",
          "name": "targetSubmissions_",
          "type": "uint256"
        }
      ],
      "name": "setTargetSubmissions",
      "outputs": [],
      "stateMutability": "nonpayable",
      "type": "function"
    },
    {
      "inputs": [
        {
          "components": [
            {
              "internalType": "bytes32",
              "name": "contextDigest",
              "type": "bytes32"
            },
            {
              "internalType": "bytes32",
              "name": "nonce",
              "type": "bytes32"
            },
            {
              "internalType": "bytes32",
              "name": "minerId",
              "type": "bytes32"
            },
            {
              "components": [
                {
                  "internalType": "uint256",
                  "name": "startPosition",
                  "type": "uint256"
                },
                {
                  "internalType": "uint256",
                  "name": "mineLength",
                  "type": "uint256"
                },
                {
                  "internalType": "uint64",
                  "name": "shardId",
                  "type": "uint64"
                },
                {
                  "internalType": "uint64",
                  "name": "shardMask",
                  "type": "uint64"
                }
              ],
              "internalType": "struct RecallRange",
              "name": "range",
              "type": "tuple"
            },
            {
              "internalType": "uint256",
              "name": "recallPosition",
              "type": "uint256"
            },
            {
              "internalType": "uint256",
              "name": "sealOffset",
              "type": "uint256"
            },
            {
              "internalType": "bytes32",
              "name": "sealedContextDigest",
              "type": "bytes32"
            },
            {
              "internalType": "bytes32[128]",
              "name": "sealedData",
              "type": "bytes32[128]"
            },
            {
              "internalType": "bytes32[]",
              "name": "merkleProof",
              "type": "bytes32[]"
            }
          ],
          "internalType": "struct MineLib.PoraAnswer",
          "name": "answer",
          "type": "tuple"
        }
      ],
      "name": "submit",
      "outputs": [],
      "stateMutability": "nonpayable",
      "type": "function"
    },
    {
      "inputs": [
        {
          "internalType": "bytes4",
          "name": "interfaceId",
          "type": "bytes4"
        }
      ],
      "name": "supportsInterface",
      "outputs": [
        {
          "internalType": "bool",
          "name": "",
          "type": "bool"
        }
      ],
      "stateMutability": "view",
      "type": "function"
    },
    {
      "inputs": [],
      "name": "targetMineBlocks",
      "outputs": [
        {
          "internalType": "uint256",
          "name": "",
          "type": "uint256"
        }
      ],
      "stateMutability": "view",
      "type": "function"
    },
    {
      "inputs": [],
      "name": "targetSubmissions",
      "outputs": [
        {
          "internalType": "uint256",
          "name": "",
          "type": "uint256"
        }
      ],
      "stateMutability": "view",
      "type": "function"
    },
    {
      "inputs": [],
      "name": "targetSubmissionsNextEpoch",
      "outputs": [
        {
          "internalType": "uint256",
          "name": "",
          "type": "uint256"
        }
      ],
      "stateMutability": "view",
      "type": "function"
    },
    {
      "inputs": [
        {
          "internalType": "address",
          "name": "to",
          "type": "address"
        },
        {
          "internalType": "bytes32",
          "name": "minerId",
          "type": "bytes32"
        }
      ],
      "name": "transferBeneficial",
      "outputs": [],
      "stateMutability": "nonpayable",
      "type": "function"
    },
    {
      "inputs": [
        {
          "components": [
            {
              "internalType": "bytes32",
              "name": "contextDigest",
              "type": "bytes32"
            },
            {
              "internalType": "bytes32",
              "name": "nonce",
              "type": "bytes32"
            },
            {
              "internalType": "bytes32",
              "name": "minerId",
              "type": "bytes32"
            },
            {
              "components": [
                {
                  "internalType": "uint256",
                  "name": "startPosition",
                  "type": "uint256"
                },
                {
                  "internalType": "uint256",
                  "name": "mineLength",
                  "type": "uint256"
                },
                {
                  "internalType": "uint64",
                  "name": "shardId",
                  "type": "uint64"
                },
                {
                  "internalType": "uint64",
                  "name": "shardMask",
                  "type": "uint64"
                }
              ],
              "internalType": "struct RecallRange",
              "name": "range",
              "type": "tuple"
            },
            {
              "internalType": "uint256",
              "name": "recallPosition",
              "type": "uint256"
            },
            {
              "internalType": "uint256",
              "name": "sealOffset",
              "type": "uint256"
            },
            {
              "internalType": "bytes32",
              "name": "sealedContextDigest",
              "type": "bytes32"
            },
            {
              "internalType": "bytes32[128]",
              "name": "sealedData",
              "type": "bytes32[128]"
            },
            {
              "internalType": "bytes32[]",
              "name": "merkleProof",
              "type": "bytes32[]"
            }
          ],
          "internalType": "struct MineLib.PoraAnswer",
          "name": "answer",
          "type": "tuple"
        }
      ],
      "name": "unseal",
      "outputs": [
        {
          "internalType": "bytes32[128]",
          "name": "unsealedData",
          "type": "bytes32[128]"
        }
      ],
      "stateMutability": "pure",
      "type": "function"
    }
  ],
  "bytecode": "0x60e06040523480156200001157600080fd5b506040516200341738038062003417833981016040819052620000349162000052565b60016004909117818116156080526002161560a05260c0526200006c565b6000602082840312156200006557600080fd5b5051919050565b60805160a05160c05161335f620000b8600039600081816103df01528181610fdf015261137301526000818161040f0152610d2901526000818161046d0152610cec015261335f6000f3fe608060405234801561001057600080fd5b50600436106102325760003560e01c80637eca568811610130578063b0628ee0116100b8578063ca15c8731161007c578063ca15c87314610527578063d547741f1461053a578063dddc61a81461054d578063e1498cf914610556578063ffbc9bd01461056957600080fd5b8063b0628ee0146104b5578063b15d20da146104c8578063b4988fd0146104dd578063b51e0397146104f0578063b776a5121461051e57600080fd5b8063a217fddf116100ff578063a217fddf14610457578063a82791821461045f578063adaa7a0f14610468578063ae722e821461048f578063aed75224146104a257600080fd5b80637eca56881461040157806382975fe71461040a5780639010d07c1461043157806391d148541461044457600080fd5b8063343aad82116101be57806359e7b5be1161018257806359e7b5be146103815780635bdca855146103a15780636e9bb60b146103b4578063704d3c96146103c75780637bba7d61146103da57600080fd5b8063343aad821461031657806336568abe1461032957806339cd53ee1461033c5780633baebb751461036557806348f614411461037857600080fd5b8063228cb73311610205578063228cb73314610294578063248a9ca3146102bf5780632f2ff15d146102f157806331223ba714610304578063331f3b9c1461030d57600080fd5b806301ffc9a714610237578063047c13f51461025f578063158ef93e146102745780631600c62414610281575b600080fd5b61024a610245366004612af8565b610571565b60405190151581526020015b60405180910390f35b61027261026d366004612b50565b61059c565b005b60005461024a9060ff1681565b61027261028f366004612b83565b6106b8565b6004546102a7906001600160a01b031681565b6040516001600160a01b039091168152602001610256565b6102e36102cd366004612b83565b6000908152600160208190526040909120015490565b604051908152602001610256565b6102726102ff366004612b9c565b6106d6565b6102e3600a5481565b6102e360065481565b6003546102a7906001600160a01b031681565b610272610337366004612b9c565b610701565b6102a761034a366004612b83565b600d602052600090815260409020546001600160a01b031681565b610272610373366004612e3c565b61077f565b6102e3600c5481565b61039461038f366004612ed4565b610a16565b6040516102569190612f10565b6102726103af366004612b83565b610a27565b6102e36103c2366004612f42565b610a54565b6102726103d5366004612b83565b610a67565b61024a7f000000000000000000000000000000000000000000000000000000000000000081565b6102e360085481565b61024a7f000000000000000000000000000000000000000000000000000000000000000081565b6102a761043f366004612f88565b610ad5565b61024a610452366004612b9c565b610aed565b6102e3600081565b6102e3600b5481565b61024a7f000000000000000000000000000000000000000000000000000000000000000081565b61027261049d366004612ed4565b610b18565b6102e36104b0366004612ed4565b61100b565b6102726104c3366004612faa565b61120e565b6102e360008051602061330a83398151915281565b6102726104eb366004612fd4565b6112ce565b6102726104fe366004612b83565b6000908152600d6020526040902080546001600160a01b03191633179055565b6102e360075481565b6102e3610535366004612b83565b6113e1565b610272610548366004612b9c565b6113f8565b6102e360095481565b610272610564366004612b83565b600c55565b61024a61141e565b60006001600160e01b03198216635a05180f60e01b14806105965750610596826114b9565b92915050565b60006105a9600143613026565b60408051914060208301526bffffffffffffffffffffffff193360601b16908201526001600160c01b031960c084901b166054820152605c0160408051601f1981840301815291815281516020928301206000818152600d9093529120549091506001600160a01b03161561065e5760405162461bcd60e51b8152602060048201526016602482015275135a5b995c9259081a185cc81c9959da5cdd195c995960521b60448201526064015b60405180910390fd5b6000818152600d602052604080822080546001600160a01b0319166001600160a01b0387169081179091559051909183917fbfeb006f16aca8eb3d9953cf44db6b11b6f3041a313875dfa18f2e9d71bd309e9190a3505050565b60008051602061330a8339815191526106d0816114ee565b50600655565b600082815260016020819052604090912001546106f2816114ee565b6106fc83836114fb565b505050565b6001600160a01b03811633146107715760405162461bcd60e51b815260206004820152602f60248201527f416363657373436f6e74726f6c3a2063616e206f6e6c792072656e6f756e636560448201526e103937b632b9903337b91039b2b63360891b6064820152608401610655565b61077b828261151d565b5050565b815160a0820151146107d35760405162461bcd60e51b815260206004820152601a60248201527f496e636f6e73697374656e74206d696e696e67206469676573740000000000006044820152606401610655565b7fc5d2460186f7233c927e7db2dcc703c0e500b653ca82273b7bfad8045d85a4708160a00151036108465760405162461bcd60e51b815260206004820152601960248201527f456d707479206469676573742063616e206e6f74206d696e65000000000000006044820152606401610655565b600754600b54106108995760405162461bcd60e51b815260206004820152601c60248201527f45706f63682068617320656e6f756768207375626d697373696f6e73000000006044820152606401610655565b60006101006108aa61040082613039565b6108b4919061306e565b6101006108c361040082613039565b6108cd919061306e565b83606001516108dc919061306e565b6108e69190613039565b60608401519091506108f8908261153f565b60035460c0840151604051630fab20e160e31b815260048101919091526000916001600160a01b031690637d590708906024016040805180830381865afa158015610947573d6000803e3d6000fd5b505050506040513d601f19601f8201168201806040525081019061096b9190613099565b9050600061010061097f6104006004613039565b610989919061306e565b856080015161099891906130f3565b90508082600001516001600160801b03161080156109c357508082602001516001600160801b031610155b610a0f5760405162461bcd60e51b815260206004820152601d60248201527f496e76616c6964207365616c656420636f6e74657874206469676573740000006044820152606401610655565b5050505050565b610a1e612abb565b61059682611783565b60008051602061330a833981519152610a3f816114ee565b6008829055600a5460000361077b5750600755565b6000610a608383611897565b9392505050565b60008051602061330a833981519152610a7f816114ee565b60008211610acf5760405162461bcd60e51b815260206004820152601d60248201527f41646a75737420726174696f206d757374206265206e6f6e2d7a65726f0000006044820152606401610655565b50600955565b6000828152600260205260408120610a609083611b0a565b60009182526001602090815260408084206001600160a01b0393909316845291905290205460ff1690565b6040810151610b625760405162461bcd60e51b81526020600482015260166024820152754d696e657249642063616e6e6f74206265207a65726f60501b6044820152606401610655565b6040808201516000908152600d60205220546001600160a01b031680610bca5760405162461bcd60e51b815260206004820152601b60248201527f4d696e6572496420646f6573206e6f74207265676973746572656400000000006044820152606401610655565b60035460408051635a325a9f60e11b815290516000926001600160a01b03169163b464b53e9160048083019260c0929190829003018187875af1158015610c15573d6000803e3d6000fd5b505050506040513d601f19601f82011682018060405250810190610c399190613106565b9050600a5481600001511015610c9f5760405162461bcd60e51b815260206004820152602560248201527f496e7465726e616c206572726f723a2065706f6368206e756d62657220646563604482015264726561736560d81b6064820152608401610655565b600a548151118015610cb357506000600a54115b15610cd857600754600b541015610ccc57610ccc611b16565b6000600b556008546007555b610ce2838261077f565b610cea612abb565b7f000000000000000000000000000000000000000000000000000000000000000015610d2057610d1984611783565b9050610d27565b5060e08301515b7f000000000000000000000000000000000000000000000000000000000000000015610db0576000610d598583611897565b905082604001518114610dae5760405162461bcd60e51b815260206004820152601860248201527f496e636f6e73697374656e74206d65726b6c6520726f6f7400000000000000006044820152606401610655565b505b610db8612abb565b90506000610dc58561100b565b9050610dd48560600151611b28565b600c54610de1919061306e565b811115610e305760405162461bcd60e51b815260206004820152601b60248201527f446f206e6f7420726561636820746172676574207175616c69747900000000006044820152606401610655565b60008181526005602052604090205460ff1615610e8f5760405162461bcd60e51b815260206004820152601960248201527f416e7377657220686173206265656e207375626d6974746564000000000000006044820152606401610655565b6000818152600560205260409020805460ff191660011790556004546001600160a01b031663b7a3c04c610100610ec861040080613039565b610ed490610400613039565b610edf906008613039565b610ee9919061306e565b8760800151610ef8919061306e565b60408089015190516001600160e01b031960e085901b16815260048101929092526001600160a01b03881660248301526044820152606401600060405180830381600087803b158015610f4a57600080fd5b505af1158015610f5e573d6000803e3d6000fd5b5050506040808701518551600b5460808a015184519182526020820152919350917ffedd8f58059af8fd54b4394c01ea8d07cac041988be3b5a822fb779f9c8de3a4910160405180910390a38251600a55600b805460019190600090610fc59084906130f3565b9091555050600754600b541015610fdd575050505050565b7f0000000000000000000000000000000000000000000000000000000000000000610a0f57610a0f83611b72565b604081015160009061105f5760405162461bcd60e51b815260206004820152601860248201527f4d696e65722049442063616e6e6f7420626520656d70747900000000000000006044820152606401610655565b600060405180608001604052808460400151815260200184602001518152602001846000015181526020016110978560600151611bab565b9052905060006110a682611c13565b905060006110b76104006040613039565b6110c5610400610100613039565b6110cf919061306e565b6110dc6104006004613039565b6110ea610400610100613039565b6110f4919061306e565b6110fe919061306e565b8560a0015161110d919061317f565b9050611117612abb565b61111f612ada565b61112e8760e001518486611c8b565b925090506101006111426104006004613039565b61114c919061306e565b8760a0015161115b9190613039565b6111988260405160200161116f9190613193565b604051602081830303815290604052805190602001208960600151611e8190919063ffffffff16565b6111a291906130f3565b8760800151146111f45760405162461bcd60e51b815260206004820152601960248201527f496e636f727265637420726563616c6c20706f736974696f6e000000000000006044820152606401610655565b6112038760a001518584611f87565b979650505050505050565b6000818152600d60205260409020546001600160a01b031633146112745760405162461bcd60e51b815260206004820152601b60248201527f53656e64657220646f6573206e6f74206f776e206d696e6572496400000000006044820152606401610655565b6000818152600d602052604080822080546001600160a01b0319166001600160a01b03861690811790915590519091339184917f9a26a8e7fd42c501b452c02016def8048e3ea28c2bf15127a9b5e2029d989bf191a45050565b60005460ff161561132d5760405162461bcd60e51b8152602060048201526024808201527f5a67496e697469616c697a61626c653a20616c726561647920696e697469616c6044820152631a5e995960e21b6064820152608401610655565b6000805460ff1916600117815561134a906113453390565b6114fb565b61136260008051602061330a833981519152336114fb565b61136e8360001961306e565b600c557f00000000000000000000000000000000000000000000000000000000000000001561139e57600019600c555b600380546001600160a01b039384166001600160a01b03199182161790915560048054929093169116179055506064600655600a60078190556008556014600955565b600081815260026020526040812061059690612209565b60008281526001602081905260409091200154611414816114ee565b6106fc838361151d565b600080600360009054906101000a90046001600160a01b03166001600160a01b031663b464b53e6040518163ffffffff1660e01b815260040160c0604051808303816000875af1158015611476573d6000803e3d6000fd5b505050506040513d601f19601f8201168201806040525081019061149a9190613106565b9050600a54816000015111806114b35750600754600b54105b91505090565b60006001600160e01b03198216637965db0b60e01b148061059657506301ffc9a760e01b6001600160e01b0319831614610596565b6114f88133612213565b50565b611505828261226c565b60008281526002602052604090206106fc90826122d7565b61152782826122ec565b60008281526002602052604090206106fc9082612353565b61010061154e61040080613039565b61155a90610400613039565b611565906008613039565b61156f919061306e565b825161157b919061317f565b156115c85760405162461bcd60e51b815260206004820152601d60248201527f537461727420706f736974696f6e206973206e6f7420616c69676e65640000006044820152606401610655565b6020820151825182916115da916130f3565b11156116205760405162461bcd60e51b81526020600482015260156024820152744d696e696e672072616e6765206f766572666c6f7760581b6044820152606401610655565b600061162b83611b28565b61010061163a61040080613039565b61164690610400613039565b61165290610400613039565b61165d906008613039565b611667919061306e565b6116719190613039565b905080836020015111156116bf5760405162461bcd60e51b81526020600482015260156024820152744d696e696e672072616e676520746f6f206c6f6e6760581b6044820152606401610655565b60006116cb8383612368565b9050808460200151101561171a5760405162461bcd60e51b8152602060048201526016602482015275135a5b9a5b99c81c985b99d9481d1bdbc81cda1bdc9d60521b6044820152606401610655565b83606001518460400151166001600160401b031660001461177d5760405162461bcd60e51b815260206004820152601a60248201527f4d61736b656420626974732073686f756c64206265207a65726f0000000000006044820152606401610655565b50505050565b61178b612abb565b60408083015160c0840151608085015192516117bb93906020019283526020830191909152604082015260600190565b60408051808303601f19018152919052805160209091012060e08301515118815260015b60206117ee6104006004613039565b6117f8919061306e565b8110156118915760e083015161180f600183613026565b6080811061181f5761181f6131bb565b602002015160405160200161183691815260200190565b604051602081830303815290604052805190602001208360e001518260808110611862576118626131bb565b60200201511882826080811061187a5761187a6131bb565b602002015261188a6001826130f3565b90506117df565b50919050565b6000805b60206118aa6104006004613039565b6118b4919061306e565b8110156119025761010060208202840120808483608081106118d8576118d86131bb565b6020020181815250505060206101006118f1919061306e565b6118fb90826130f3565b905061189b565b506000611912602061010061306e565b90505b60206119246104006004613039565b61192e919061306e565b811015611a015760005b60206119476104006004613039565b611951919061306e565b8110156119f857600084826080811061196c5761196c6131bb565b6020020151905060008561198085856130f3565b60808110611990576119906131bb565b6020020151905081816040516020016119b3929190918252602082015260400190565b604051602081830303815290604052805190602001208684608081106119db576119db6131bb565b6020020152506119f19050600183901b826130f3565b9050611938565b5060011b611915565b508151611a0c612abb565b92506000610100611a206104006004613039565b611a2a919061306e565b8560800151611a39919061306e565b905060005b85610100015151811015611b0057600080611a5a60028561317f565b600003611a8a578491508761010001518381518110611a7b57611a7b6131bb565b60200260200101519050611aaf565b8761010001518381518110611aa157611aa16131bb565b602002602001015191508490505b6040805160208101849052908101829052606001604051602081830303815290604052805190602001209450600284611ae8919061306e565b93505050600181611af991906130f3565b9050611a3e565b5090949350505050565b6000610a60838361237e565b611b266001600160f01b036123a8565b565b606081015160009019815b6001600160401b03821615611b6357611b4d6001836131d1565b9091169080611b5b816131f1565b915050611b33565b600160ff9091161b9392505050565b6000816020015143611b849190613026565b905060006010600c54901c90506000611ba08284600654612448565b905061177d816123a8565b60008160000151826020015183604001518460600151604051602001611bf6949392919093845260208401929092526001600160401b03908116604084015216606082015260800190565b604051602081830303815290604052805190602001209050919050565b611c1b612ada565b7f48c9bdf267e6096a3ba7ca8485ae67bb2bf894fe72f36e3cf1361d5f3af54fa581527fd182e6ad7f520e511f6c3e2b8c68059b6bbd41fbabd9831f79217e1319cde05b6020808301919091528251908301516040840151606085015161059693859390929091608060016124f7565b611c93612ada565b611c9b612abb565b60005b84811015611cf95760005b6040611cb86104006004613039565b611cc2919061306e565b811015611ce657611cd2856125b6565b9450611cdf6001826130f3565b9050611ca9565b50611cf26001826130f3565b9050611c9e565b5060005b6020611d0c6104006004613039565b611d16919061306e565b811015611db657611d26846125b6565b9350858160808110611d3a57611d3a6131bb565b6020020151845118828260808110611d5457611d546131bb565b602002015285611d658260016130f3565b60808110611d7557611d756131bb565b602002015184600160200201511882611d8f8360016130f3565b60808110611d9f57611d9f6131bb565b6020020152611daf6002826130f3565b9050611cfd565b506000611dc48560016130f3565b90505b611dd46104006040613039565b611de2610400610100613039565b611dec919061306e565b611df96104006004613039565b611e07610400610100613039565b611e11919061306e565b611e1b919061306e565b811015611e755760005b6040611e346104006004613039565b611e3e919061306e565b811015611e6257611e4e856125b6565b9450611e5b6001826130f3565b9050611e25565b50611e6e6001826130f3565b9050611dc7565b50829150935093915050565b600080610100611e9361040082613039565b611e9d919061306e565b8460200151611eac919061306e565b611eb6908461317f565b60408501516060860151602087015192935083161790610100611edb61040082613039565b611ee5919061306e565b611ef8906001600160401b038416613039565b1115611f465760405162461bcd60e51b815260206004820152601c60248201527f526563616c6c20706f736974696f6e206f7574206f6620626f756e64000000006044820152606401610655565b610100611f5561040082613039565b611f5f919061306e565b611f72906001600160401b038316613039565b8551611f7e91906130f3565b95945050505050565b6000611f91612ada565b7f48c9bdf267e6096a3ba7ca8485ae67bb2bf894fe72f36e3cf1361d5f3af54fa581527fd182e6ad7f520e511f6c3e2b8c68059b6bbd41fbabd9831f79217e1319cde05b602080830191909152845190850151611ff791839188919060006080816124f7565b905060005b6004602061200c61040083613039565b612016919061306e565b6120209190613026565b8110156120d15760008160040160200260800190506120bb8386846080811061204b5761204b6131bb565b60200201518761205c8660016130f3565b6080811061206c5761206c6131bb565b60200201518861207d8760026130f3565b6080811061208d5761208d6131bb565b60200201518961209e8860036130f3565b608081106120ae576120ae6131bb565b60200201518660006124f7565b92506120ca90506004826130f3565b9050611ffc565b506121ff8184600460206120e761040083613039565b6120f1919061306e565b6120fb9190613026565b6080811061210b5761210b6131bb565b6020020151856003602061040060046121249190613039565b61212e919061306e565b6121389190613026565b60808110612148576121486131bb565b6020020151866002602061040060046121619190613039565b61216b919061306e565b6121759190613026565b60808110612185576121856131bb565b60200201518760016020610400600461219e9190613039565b6121a8919061306e565b6121b29190613026565b608081106121c2576121c26131bb565b6020020151602061040060046121d89190613039565b6121e2919061306e565b6121ed906020613039565b6121f89060806130f3565b60016124f7565b5195945050505050565b6000610596825490565b61221d8282610aed565b61077b5761222a81612623565b612235836020612635565b604051602001612246929190613234565b60408051601f198184030181529082905262461bcd60e51b8252610655916004016132a9565b6122768282610aed565b61077b5760008281526001602081815260408084206001600160a01b0386168086529252808420805460ff19169093179092559051339285917f2f8788117e7eff1d82e926ec794901d17c78024a50270940304540a733656f0d9190a45050565b6000610a60836001600160a01b0384166127d0565b6122f68282610aed565b1561077b5760008281526001602090815260408083206001600160a01b0385168085529252808320805460ff1916905551339285917ff6391f5c32d9c69d2a47ea670b442974b53935d1edc7fd64eb21e047a839171b9190a45050565b6000610a60836001600160a01b03841661281f565b60008183106123775781610a60565b5090919050565b6000826000018281548110612395576123956131bb565b9060005260206000200154905092915050565b600c5460095460109190911c90600081846123c4600183613026565b6123ce9086613039565b6123d891906130f3565b6123e2919061306e565b90506123ef836002613039565b81111561240457612401836002613039565b90505b61240f60028461306e565b8110156124245761242160028461306e565b90505b6001600160f01b0381111561243d57506001600160f01b035b60101b600c55505050565b60008080600019858709858702925082811083820303915050806000036124825783828161247857612478613058565b0492505050610a60565b80841161248e57600080fd5b60008486880960026001871981018816978890046003810283188082028403028082028403028082028403028082028403028082028403029081029092039091026000889003889004909101858311909403939093029303949094049190911702949350505050565b6124ff612ada565b600c600061250c85612919565b8a516020808d0151835184830151604080516001600160e01b031960e08b901b168187015260248101969096526044860193909352606485018f9052608485018e905260a485018d905260c485018c90526001600160c01b031991821660e48601521660ec84015287151560f81b60f4840152805160d58185038101825260f5909401825293945091869184016009600019fa6125a857600080fd5b505050979650505050505050565b6125be612ada565b7f48c9bdf267e6096a3ba7ca8485ae67bb2bf894fe72f36e3cf1361d5f3af54fa581527fd182e6ad7f520e511f6c3e2b8c68059b6bbd41fbabd9831f79217e1319cde05b602080830191909152825190830151610596918391600080604060016124f7565b60606105966001600160a01b03831660145b60606000612644836002613039565b61264f9060026130f3565b6001600160401b0381111561266657612666612bbf565b6040519080825280601f01601f191660200182016040528015612690576020820181803683370190505b509050600360fc1b816000815181106126ab576126ab6131bb565b60200101906001600160f81b031916908160001a905350600f60fb1b816001815181106126da576126da6131bb565b60200101906001600160f81b031916908160001a90535060006126fe846002613039565b6127099060016130f3565b90505b6001811115612781576f181899199a1a9b1b9c1cb0b131b232b360811b85600f166010811061273d5761273d6131bb565b1a60f81b828281518110612753576127536131bb565b60200101906001600160f81b031916908160001a90535060049490941c9361277a816132dc565b905061270c565b508315610a605760405162461bcd60e51b815260206004820181905260248201527f537472696e67733a20686578206c656e67746820696e73756666696369656e746044820152606401610655565b600081815260018301602052604081205461281757508154600181810184556000848152602080822090930184905584548482528286019093526040902091909155610596565b506000610596565b60008181526001830160205260408120548015612908576000612843600183613026565b855490915060009061285790600190613026565b90508181146128bc576000866000018281548110612877576128776131bb565b906000526020600020015490508087600001848154811061289a5761289a6131bb565b6000918252602080832090910192909255918252600188019052604090208390555b85548690806128cd576128cd6132f3565b600190038181906000526020600020016000905590558560010160008681526020019081526020016000206000905560019350505050610596565b6000915050610596565b5092915050565b612921612ada565b6201000082101561296557600882811c66ffffffffffffff169083901b67ffffffffffffff00161760f01b5b6001600160c01b031916815260006020820152919050565b6401000000008210156129a557600882811b63ff00ff001662ff00ff9184901c9190911617601081811b91901c1760e01b6001600160e01b03191661294d565b680100000000000000008210156129bf5761294d82612a55565b600160801b821015612a0f576001600160401b038216604083901c6129e382612a55565b6001600160c01b03191683526129f881612a55565b6001600160c01b031916602084015250612a509050565b60405162461bcd60e51b8152602060048201526016602482015275626c616b65326220696e70757420746f6f206c6f6e6760501b6044820152606401610655565b919050565b65ff000000ff00600882811b91821664ff000000ff9390911c92831617601090811b67ff000000ff0000009290921666ff000000ff0000939093169290921790911c17602081811b6bffffffffffffffff000000001691901c63ffffffff161760c01b90565b6040518061100001604052806080906020820280368337509192915050565b60405180604001604052806002906020820280368337509192915050565b600060208284031215612b0a57600080fd5b81356001600160e01b031981168114610a6057600080fd5b80356001600160a01b0381168114612a5057600080fd5b80356001600160401b0381168114612a5057600080fd5b60008060408385031215612b6357600080fd5b612b6c83612b22565b9150612b7a60208401612b39565b90509250929050565b600060208284031215612b9557600080fd5b5035919050565b60008060408385031215612baf57600080fd5b82359150612b7a60208401612b22565b634e487b7160e01b600052604160045260246000fd5b60405161012081016001600160401b0381118282101715612bf857612bf8612bbf565b60405290565b60405160c081016001600160401b0381118282101715612bf857612bf8612bbf565b600060808284031215612c3257600080fd5b604051608081018181106001600160401b0382111715612c5457612c54612bbf565b80604052508091508235815260208301356020820152612c7660408401612b39565b6040820152612c8760608401612b39565b60608201525092915050565b600082601f830112612ca457600080fd5b6040516110008082018281106001600160401b0382111715612cc857612cc8612bbf565b60405283018185821115612cdb57600080fd5b845b82811015612cf5578035825260209182019101612cdd565b509195945050505050565b600082601f830112612d1157600080fd5b813560206001600160401b0380831115612d2d57612d2d612bbf565b8260051b604051601f19603f83011681018181108482111715612d5257612d52612bbf565b604052938452858101830193838101925087851115612d7057600080fd5b83870191505b8482101561120357813583529183019190830190612d76565b60006111608284031215612da257600080fd5b612daa612bd5565b9050813581526020820135602082015260408201356040820152612dd18360608401612c20565b606082015260e082013560808201526101008083013560a083015261012083013560c0830152612e05846101408501612c93565b60e08301526111408301356001600160401b03811115612e2457600080fd5b612e3085828601612d00565b82840152505092915050565b60008082840360e0811215612e5057600080fd5b83356001600160401b03811115612e6657600080fd5b612e7286828701612d8f565b93505060c0601f1982011215612e8757600080fd5b50612e90612bfe565b6020840135815260408401356020820152606084013560408201526080840135606082015260a0840135608082015260c084013560a0820152809150509250929050565b600060208284031215612ee657600080fd5b81356001600160401b03811115612efc57600080fd5b612f0884828501612d8f565b949350505050565b6110008101818360005b6080811015612f39578151835260209283019290910190600101612f1a565b50505092915050565b6000806110208385031215612f5657600080fd5b82356001600160401b03811115612f6c57600080fd5b612f7885828601612d8f565b925050612b7a8460208501612c93565b60008060408385031215612f9b57600080fd5b50508035926020909101359150565b60008060408385031215612fbd57600080fd5b612fc683612b22565b946020939093013593505050565b600080600060608486031215612fe957600080fd5b83359250612ff960208501612b22565b915061300760408501612b22565b90509250925092565b634e487b7160e01b600052601160045260246000fd5b8181038181111561059657610596613010565b600081600019048311821515161561305357613053613010565b500290565b634e487b7160e01b600052601260045260246000fd5b60008261307d5761307d613058565b500490565b80516001600160801b0381168114612a5057600080fd5b6000604082840312156130ab57600080fd5b604051604081018181106001600160401b03821117156130cd576130cd612bbf565b6040526130d983613082565b81526130e760208401613082565b60208201529392505050565b8082018082111561059657610596613010565b600060c0828403121561311857600080fd5b60405160c081018181106001600160401b038211171561313a5761313a612bbf565b8060405250825181526020830151602082015260408301516040820152606083015160608201526080830151608082015260a083015160a08201528091505092915050565b60008261318e5761318e613058565b500690565b60408101818360005b6002811015612f3957815183526020928301929091019060010161319c565b634e487b7160e01b600052603260045260246000fd5b6001600160401b0382811682821603908082111561291257612912613010565b600060ff821660ff810361320757613207613010565b60010192915050565b60005b8381101561322b578181015183820152602001613213565b50506000910152565b7f416363657373436f6e74726f6c3a206163636f756e742000000000000000000081526000835161326c816017850160208801613210565b7001034b99036b4b9b9b4b733903937b6329607d1b601791840191820152835161329d816028840160208801613210565b01602801949350505050565b60208152600082518060208401526132c8816040850160208701613210565b601f01601f19169190910160400192915050565b6000816132eb576132eb613010565b506000190190565b634e487b7160e01b600052603160045260246000fdfeb9d69e0ca90be54a40811e436234a7f7908b87ff2bec27e64f878b166da8e8e5a2646970667358221220a3224cb14dda3515445cc5e0b6ea714a9e9f4855772356340a0fc792deaac0bf64736f6c63430008100033",
  "linkReferences": {},
  "deployedLinkReferences": {}
}