{
  "_format": "hh-sol-artifact-1",
  "contractName": "PoraMineTest",
  "sourceName": "contracts/test/PoraMineTest.sol",
  "abi": [
    {
      "inputs": [
        {
          "internalType": "address",
          "name": "flow",
          "type": "address"
        },
        {
          "internalType": "address",
          "name": "cashier",
          "type": "address"
        },
        {
          "internalType": "uint256",
          "name": "settings",
          "type": "uint256"
        }
      ],
      "stateMutability": "nonpayable",
      "type": "constructor"
    },
    {
      "inputs": [
        {
          "components": [
            {
              "internalType": "bytes32",
              "name": "contextDigest",
              "type": "bytes32"
            },
            {
              "internalType": "bytes32",
              "name": "nonce",
              "type": "bytes32"
            },
            {
              "internalType": "bytes32",
              "name": "minerId",
              "type": "bytes32"
            },
            {
              "internalType": "uint256",
              "name": "startPosition",
              "type": "uint256"
            },
            {
              "internalType": "uint256",
              "name": "mineLength",
              "type": "uint256"
            },
            {
              "internalType": "uint256",
              "name": "recallPosition",
              "type": "uint256"
            },
            {
              "internalType": "uint256",
              "name": "sealOffset",
              "type": "uint256"
            },
            {
              "internalType": "bytes32",
              "name": "sealedContextDigest",
              "type": "bytes32"
            },
            {
              "internalType": "bytes32[128]",
              "name": "sealedData",
              "type": "bytes32[128]"
            },
            {
              "internalType": "bytes32[]",
              "name": "merkleProof",
              "type": "bytes32[]"
            }
          ],
          "internalType": "struct PoraMine.PoraAnswer",
          "name": "answer",
          "type": "tuple"
        },
        {
          "components": [
            {
              "internalType": "uint256",
              "name": "epoch",
              "type": "uint256"
            },
            {
              "internalType": "uint256",
              "name": "mineStart",
              "type": "uint256"
            },
            {
              "internalType": "bytes32",
              "name": "flowRoot",
              "type": "bytes32"
            },
            {
              "internalType": "uint256",
              "name": "flowLength",
              "type": "uint256"
            },
            {
              "internalType": "bytes32",
              "name": "blockDigest",
              "type": "bytes32"
            },
            {
              "internalType": "bytes32",
              "name": "digest",
              "type": "bytes32"
            }
          ],
          "internalType": "struct MineContext",
          "name": "context",
          "type": "tuple"
        }
      ],
      "name": "basicCheck",
      "outputs": [],
      "stateMutability": "view",
      "type": "function"
    },
    {
      "inputs": [],
      "name": "cashier",
      "outputs": [
        {
          "internalType": "contract ICashier",
          "name": "",
          "type": "address"
        }
      ],
      "stateMutability": "view",
      "type": "function"
    },
    {
      "inputs": [],
      "name": "dataProofEnabled",
      "outputs": [
        {
          "internalType": "bool",
          "name": "",
          "type": "bool"
        }
      ],
      "stateMutability": "view",
      "type": "function"
    },
    {
      "inputs": [],
      "name": "flow",
      "outputs": [
        {
          "internalType": "contract IFlow",
          "name": "",
          "type": "address"
        }
      ],
      "stateMutability": "view",
      "type": "function"
    },
    {
      "inputs": [],
      "name": "lastMinedEpoch",
      "outputs": [
        {
          "internalType": "uint256",
          "name": "",
          "type": "uint256"
        }
      ],
      "stateMutability": "view",
      "type": "function"
    },
    {
      "inputs": [],
      "name": "marketEnabled",
      "outputs": [
        {
          "internalType": "bool",
          "name": "",
          "type": "bool"
        }
      ],
      "stateMutability": "view",
      "type": "function"
    },
    {
      "inputs": [
        {
          "internalType": "address",
          "name": "",
          "type": "address"
        }
      ],
      "name": "minerIds",
      "outputs": [
        {
          "internalType": "bytes32",
          "name": "",
          "type": "bytes32"
        }
      ],
      "stateMutability": "view",
      "type": "function"
    },
    {
      "inputs": [
        {
          "components": [
            {
              "internalType": "bytes32",
              "name": "contextDigest",
              "type": "bytes32"
            },
            {
              "internalType": "bytes32",
              "name": "nonce",
              "type": "bytes32"
            },
            {
              "internalType": "bytes32",
              "name": "minerId",
              "type": "bytes32"
            },
            {
              "internalType": "uint256",
              "name": "startPosition",
              "type": "uint256"
            },
            {
              "internalType": "uint256",
              "name": "mineLength",
              "type": "uint256"
            },
            {
              "internalType": "uint256",
              "name": "recallPosition",
              "type": "uint256"
            },
            {
              "internalType": "uint256",
              "name": "sealOffset",
              "type": "uint256"
            },
            {
              "internalType": "bytes32",
              "name": "sealedContextDigest",
              "type": "bytes32"
            },
            {
              "internalType": "bytes32[128]",
              "name": "sealedData",
              "type": "bytes32[128]"
            },
            {
              "internalType": "bytes32[]",
              "name": "merkleProof",
              "type": "bytes32[]"
            }
          ],
          "internalType": "struct PoraMine.PoraAnswer",
          "name": "answer",
          "type": "tuple"
        }
      ],
      "name": "pora",
      "outputs": [
        {
          "internalType": "bytes32",
          "name": "",
          "type": "bytes32"
        }
      ],
      "stateMutability": "view",
      "type": "function"
    },
    {
      "inputs": [
        {
          "components": [
            {
              "internalType": "bytes32",
              "name": "contextDigest",
              "type": "bytes32"
            },
            {
              "internalType": "bytes32",
              "name": "nonce",
              "type": "bytes32"
            },
            {
              "internalType": "bytes32",
              "name": "minerId",
              "type": "bytes32"
            },
            {
              "internalType": "uint256",
              "name": "startPosition",
              "type": "uint256"
            },
            {
              "internalType": "uint256",
              "name": "mineLength",
              "type": "uint256"
            },
            {
              "internalType": "uint256",
              "name": "recallPosition",
              "type": "uint256"
            },
            {
              "internalType": "uint256",
              "name": "sealOffset",
              "type": "uint256"
            },
            {
              "internalType": "bytes32",
              "name": "sealedContextDigest",
              "type": "bytes32"
            },
            {
              "internalType": "bytes32[128]",
              "name": "sealedData",
              "type": "bytes32[128]"
            },
            {
              "internalType": "bytes32[]",
              "name": "merkleProof",
              "type": "bytes32[]"
            }
          ],
          "internalType": "struct PoraMine.PoraAnswer",
          "name": "answer",
          "type": "tuple"
        },
        {
          "internalType": "bytes32[128]",
          "name": "unsealedData",
          "type": "bytes32[128]"
        }
      ],
      "name": "recoverMerkleRoot",
      "outputs": [
        {
          "internalType": "bytes32",
          "name": "",
          "type": "bytes32"
        }
      ],
      "stateMutability": "pure",
      "type": "function"
    },
    {
      "inputs": [],
      "name": "sealDataEnabled",
      "outputs": [
        {
          "internalType": "bool",
          "name": "",
          "type": "bool"
        }
      ],
      "stateMutability": "view",
      "type": "function"
    },
    {
      "inputs": [
        {
          "internalType": "bytes32",
          "name": "minerId",
          "type": "bytes32"
        }
      ],
      "name": "setMiner",
      "outputs": [],
      "stateMutability": "nonpayable",
      "type": "function"
    },
    {
      "inputs": [
        {
          "internalType": "uint256",
          "name": "_targetQuality",
          "type": "uint256"
        }
      ],
      "name": "setQuality",
      "outputs": [],
      "stateMutability": "nonpayable",
      "type": "function"
    },
    {
      "inputs": [
        {
          "components": [
            {
              "internalType": "bytes32",
              "name": "contextDigest",
              "type": "bytes32"
            },
            {
              "internalType": "bytes32",
              "name": "nonce",
              "type": "bytes32"
            },
            {
              "internalType": "bytes32",
              "name": "minerId",
              "type": "bytes32"
            },
            {
              "internalType": "uint256",
              "name": "startPosition",
              "type": "uint256"
            },
            {
              "internalType": "uint256",
              "name": "mineLength",
              "type": "uint256"
            },
            {
              "internalType": "uint256",
              "name": "recallPosition",
              "type": "uint256"
            },
            {
              "internalType": "uint256",
              "name": "sealOffset",
              "type": "uint256"
            },
            {
              "internalType": "bytes32",
              "name": "sealedContextDigest",
              "type": "bytes32"
            },
            {
              "internalType": "bytes32[128]",
              "name": "sealedData",
              "type": "bytes32[128]"
            },
            {
              "internalType": "bytes32[]",
              "name": "merkleProof",
              "type": "bytes32[]"
            }
          ],
          "internalType": "struct PoraMine.PoraAnswer",
          "name": "answer",
          "type": "tuple"
        }
      ],
      "name": "submit",
      "outputs": [],
      "stateMutability": "nonpayable",
      "type": "function"
    },
    {
      "inputs": [],
      "name": "targetQuality",
      "outputs": [
        {
          "internalType": "uint256",
          "name": "",
          "type": "uint256"
        }
      ],
      "stateMutability": "view",
      "type": "function"
    },
    {
      "inputs": [],
      "name": "totalMiningTime",
      "outputs": [
        {
          "internalType": "uint256",
          "name": "",
          "type": "uint256"
        }
      ],
      "stateMutability": "view",
      "type": "function"
    },
    {
      "inputs": [],
      "name": "totalSubmission",
      "outputs": [
        {
          "internalType": "uint256",
          "name": "",
          "type": "uint256"
        }
      ],
      "stateMutability": "view",
      "type": "function"
    },
    {
      "inputs": [
        {
          "components": [
            {
              "internalType": "bytes32",
              "name": "contextDigest",
              "type": "bytes32"
            },
            {
              "internalType": "bytes32",
              "name": "nonce",
              "type": "bytes32"
            },
            {
              "internalType": "bytes32",
              "name": "minerId",
              "type": "bytes32"
            },
            {
              "internalType": "uint256",
              "name": "startPosition",
              "type": "uint256"
            },
            {
              "internalType": "uint256",
              "name": "mineLength",
              "type": "uint256"
            },
            {
              "internalType": "uint256",
              "name": "recallPosition",
              "type": "uint256"
            },
            {
              "internalType": "uint256",
              "name": "sealOffset",
              "type": "uint256"
            },
            {
              "internalType": "bytes32",
              "name": "sealedContextDigest",
              "type": "bytes32"
            },
            {
              "internalType": "bytes32[128]",
              "name": "sealedData",
              "type": "bytes32[128]"
            },
            {
              "internalType": "bytes32[]",
              "name": "merkleProof",
              "type": "bytes32[]"
            }
          ],
          "internalType": "struct PoraMine.PoraAnswer",
          "name": "answer",
          "type": "tuple"
        }
      ],
      "name": "unseal",
      "outputs": [
        {
          "internalType": "bytes32[128]",
          "name": "unsealedData",
          "type": "bytes32[128]"
        }
      ],
      "stateMutability": "pure",
      "type": "function"
    }
  ],
  "bytecode": "0x610120604052600080553480156200001657600080fd5b5060405162001f8b38038062001f8b833981016040819052620000399162000108565b6000196001908155811615608052600281161560a052600481161560c0528282826001600160a01b03821615158062000072575060c051155b620000cd5760405162461bcd60e51b815260206004820152602160248201527f4361736869657220646f6573206e6f7420696e6974656420636f72726563746c6044820152607960f81b606482015260840160405180910390fd5b506001600160a01b0391821660e05216610100525062000149915050565b80516001600160a01b03811681146200010357600080fd5b919050565b6000806000606084860312156200011e57600080fd5b6200012984620000eb565b92506200013960208501620000eb565b9150604084015190509250925092565b60805160a05160c05160e05161010051611dcc620001bf600039600081816102be01526106a0015260008181610168015281816102f50152818161036a0152610ad7015260008181610115015261067201526000818161022a015261057f015260008181610251015261051b0152611dcc6000f3fe608060405234801561001057600080fd5b506004361061010b5760003560e01c806380884dc6116100a2578063b51e039711610071578063b51e039714610273578063e058455d14610293578063e1498cf9146102a6578063ed740e97146102b9578063fe65947f146102e057600080fd5b806380884dc6146101f257806382532afd1461021257806382975fe714610225578063adaa7a0f1461024c57600080fd5b80633e97c510116100de5780633e97c510146101ab578063609a3280146101c05780636c397850146101e0578063755d0c63146101e957600080fd5b80631ef261ba1461011057806331223ba71461014c578063343aad8214610163578063362a5389146101a2575b600080fd5b6101377f000000000000000000000000000000000000000000000000000000000000000081565b60405190151581526020015b60405180910390f35b61015560005481565b604051908152602001610143565b61018a7f000000000000000000000000000000000000000000000000000000000000000081565b6040516001600160a01b039091168152602001610143565b61015560035481565b6101be6101b936600461194e565b6102f3565b005b6101d36101ce36600461194e565b610761565b604051610143919061198b565b61015560015481565b61015560045481565b6101556102003660046119bd565b60026020526000908152604090205481565b6101be610220366004611a25565b61086b565b6101377f000000000000000000000000000000000000000000000000000000000000000081565b6101377f000000000000000000000000000000000000000000000000000000000000000081565b6101be610281366004611abe565b33600090815260026020526040902055565b6101556102a1366004611ad7565b610bf4565b6101be6102b4366004611abe565b600155565b61018a7f000000000000000000000000000000000000000000000000000000000000000081565b6101556102ee36600461194e565b610e7d565b7f00000000000000000000000000000000000000000000000000000000000000006001600160a01b03166338d45e106040518163ffffffff1660e01b8152600401600060405180830381600087803b15801561034e57600080fd5b505af1158015610362573d6000803e3d6000fd5b5050505060007f00000000000000000000000000000000000000000000000000000000000000006001600160a01b031663127f0f076040518163ffffffff1660e01b815260040160c060405180830381865afa1580156103c6573d6000803e3d6000fd5b505050506040513d601f19601f820116820180604052508101906103ea9190611b82565b60a08101519091508235146104465760405162461bcd60e51b815260206004820152601a60248201527f496e636f6e73697374656e74206d696e696e672064696765737400000000000060448201526064015b60405180910390fd5b7fc5d2460186f7233c927e7db2dcc703c0e500b653ca82273b7bfad8045d85a4708160a00151036104b95760405162461bcd60e51b815260206004820152601960248201527f456d707479206469676573742063616e206e6f74206d696e6500000000000000604482015260640161043d565b6000548151116105025760405162461bcd60e51b8152602060048201526014602482015273115c1bd8da081a185cc81899595b881b5a5b995960621b604482015260640161043d565b8051600055610511828261086b565b6105196118fe565b7f00000000000000000000000000000000000000000000000000000000000000001561054f5761054883610761565b905061057d565b6040805161100081810190925290610100850190608090839083908082843760009201919091525091925050505b7f0000000000000000000000000000000000000000000000000000000000000000156106065760006105af8483610bf4565b9050826040015181146106045760405162461bcd60e51b815260206004820152601860248201527f496e636f6e73697374656e74206d65726b6c6520726f6f740000000000000000604482015260640161043d565b505b61060e6118fe565b9050600061061b84610e7d565b6001549091508111156106705760405162461bcd60e51b815260206004820152601b60248201527f446f206e6f7420726561636820746172676574207175616c6974790000000000604482015260640161043d565b7f00000000000000000000000000000000000000000000000000000000000000001561075b576001600160a01b037f00000000000000000000000000000000000000000000000000000000000000001663ccec92c46101006106d461040080611c12565b6106e090610400611c12565b6106eb906008611c12565b6106f59190611c47565b6107039060a0880135611c47565b6040516001600160e01b031960e084901b1681526004810191909152336024820152604401600060405180830381600087803b15801561074257600080fd5b505af1158015610756573d6000803e3d6000fd5b505050505b50505050565b6107696118fe565b6040805181840135602082015260e08401359181019190915260a0830135606082015260800160408051808303601f19018152919052805160209091012061010083013518815260015b60206107c26104006004611c12565b6107cc9190611c47565b8110156108655761010083016107e3600183611c71565b608081106107f3576107f3611c5b565b602002013560405160200161080a91815260200190565b604051602081830303815290604052805190602001208361010001826080811061083657610836611c5b565b60200201351882826080811061084e5761084e611c5b565b602002015261085e600182611c84565b90506107b3565b50919050565b600061010061087c61040082611c12565b6108869190611c47565b61010061089561040082611c12565b61089f9190611c47565b83606001516108ae9190611c47565b6108b89190611c12565b9050806108cd60808501356060860135611c84565b11156109135760405162461bcd60e51b81526020600482015260156024820152744d696e696e672072616e6765206f766572666c6f7760581b604482015260640161043d565b61010061092261040080611c12565b61092e90610400611c12565b61093a90610400611c12565b610945906008611c12565b61094f9190611c47565b8360800135111561099a5760405162461bcd60e51b81526020600482015260156024820152744d696e696e672072616e676520746f6f206c6f6e6760581b604482015260640161043d565b6101006109a961040080611c12565b6109b590610400611c12565b6109c0906008611c12565b6109ca9190611c47565b6109d8906060850135611c97565b15610a255760405162461bcd60e51b815260206004820152601d60248201527f537461727420706f736974696f6e206973206e6f7420616c69676e6564000000604482015260640161043d565b6000610a6c82610100610a3a61040080611c12565b610a4690610400611c12565b610a5290610400611c12565b610a5d906008611c12565b610a679190611c47565b611588565b90508084608001351015610abb5760405162461bcd60e51b8152602060048201526016602482015275135a5b9a5b99c81c985b99d9481d1bdbc81cda1bdc9d60521b604482015260640161043d565b604051630fab20e160e31b815260e085013560048201526000907f00000000000000000000000000000000000000000000000000000000000000006001600160a01b031690637d590708906024016040805180830381865afa158015610b25573d6000803e3d6000fd5b505050506040513d601f19601f82011682018060405250810190610b499190611cc2565b90506000610100610b5d6104006004611c12565b610b679190611c47565b610b759060a0880135611c84565b90508082600001516001600160801b0316108015610ba057508082602001516001600160801b031610155b610bec5760405162461bcd60e51b815260206004820152601d60248201527f496e76616c6964207365616c656420636f6e7465787420646967657374000000604482015260640161043d565b505050505050565b6000805b6020610c076104006004611c12565b610c119190611c47565b811015610c5f576101006020820284012080848360808110610c3557610c35611c5b565b602002018181525050506020610100610c4e9190611c47565b610c589082611c84565b9050610bf8565b506000610c6f6020610100611c47565b90505b6020610c816104006004611c12565b610c8b9190611c47565b811015610d5e5760005b6020610ca46104006004611c12565b610cae9190611c47565b811015610d55576000848260808110610cc957610cc9611c5b565b60200201519050600085610cdd8585611c84565b60808110610ced57610ced611c5b565b602002015190508181604051602001610d10929190918252602082015260400190565b60405160208183030381529060405280519060200120868460808110610d3857610d38611c5b565b602002015250610d4e9050600183901b82611c84565b9050610c95565b5060011b610c72565b508151610d696118fe565b92506000610100610d7d6104006004611c12565b610d879190611c47565b610d959060a0870135611c47565b905060005b610da8611100870187611d1d565b9050811015610e7157600080610dbf600285611c97565b600003610df557849150610dd7611100890189611d1d565b84818110610de757610de7611c5b565b905060200201359050610e20565b610e03611100890189611d1d565b84818110610e1357610e13611c5b565b9050602002013591508490505b6040805160208101849052908101829052606001604051602081830303815290604052805190602001209450600284610e599190611c47565b93505050600181610e6a9190611c84565b9050610d9a565b50909150505b92915050565b336000908152600260205260408082205490830135610ede5760405162461bcd60e51b815260206004820152601760248201527f4d696e657220494420646f6573206e6f74206578697374000000000000000000604482015260640161043d565b80836040013514610f315760405162461bcd60e51b815260206004820152601860248201527f4d696e657220494420697320696e636f6e73697374656e740000000000000000604482015260640161043d565b6040805160a0810182528281526020858101359082015284359181019190915260608085013590820152608080850135908201526000610f70826115a0565b90506000610f816104006040611c12565b610f8f610400610100611c12565b610f999190611c47565b610fa66104006004611c12565b610fb4610400610100611c12565b610fbe9190611c47565b610fc89190611c47565b610fd69060c0880135611c97565b9050610fe06118fe565b60005b8281101561103e5760005b6040610ffd6104006004611c12565b6110079190611c47565b81101561102b5761101785611633565b9450611024600182611c84565b9050610fee565b50611037600182611c84565b9050610fe3565b5060005b60206110516104006004611c12565b61105b9190611c47565b8110156111095761106b84611633565b93508761010001816080811061108357611083611c5b565b60200201358460006020020151188282608081106110a3576110a3611c5b565b602002015261010088016110b8826001611c84565b608081106110c8576110c8611c5b565b6020020135846001602002015118826110e2836001611c84565b608081106110f2576110f2611c5b565b6020020152611102600282611c84565b9050611042565b506000611117836001611c84565b90505b6111276104006040611c12565b611135610400610100611c12565b61113f9190611c47565b61114c6104006004611c12565b61115a610400610100611c12565b6111649190611c47565b61116e9190611c47565b8110156111c85760005b60406111876104006004611c12565b6111919190611c47565b8110156111b5576111a185611633565b94506111ae600182611c84565b9050611178565b506111c1600182611c84565b905061111a565b5060006101006111da61040082611c12565b6111e49190611c47565b6111f29060808a0135611c47565b846040516020016112039190611d6e565b6040516020818303038152906040528051906020012060001c6112269190611c97565b90506101006112386104006004611c12565b6112429190611c47565b6112509060c08a0135611c12565b61010061125f61040082611c12565b6112699190611c47565b6112739083611c12565b6112819060608b0135611c84565b61128b9190611c84565b8860a00135146112dd5760405162461bcd60e51b815260206004820152601960248201527f496e636f727265637420726563616c6c20706f736974696f6e00000000000000604482015260640161043d565b6112e561191d565b7f48c9bdf267e6096a3ba7ca8485ae67bb2bf894fe72f36e3cf1361d5f3af54fa581527fd182e6ad7f520e511f6c3e2b8c68059b6bbd41fbabd9831f79217e1319cde05b60208083019190915261134e90829060c08c0135908a908d01358d356080600061169c565b905061136a8160608b013560808c01356000806101008161169c565b905060005b6004602061137f61040083611c12565b6113899190611c47565b6113939190611c71565b81101561144157610100602060048301020161142b838684608081106113bb576113bb611c5b565b6020020151876113cc866001611c84565b608081106113dc576113dc611c5b565b6020020151886113ed876002611c84565b608081106113fd576113fd611c5b565b60200201518961140e886003611c84565b6080811061141e5761141e611c5b565b602002015186600061169c565b925061143a9050600482611c84565b905061136f565b5061157081846004602061145761040083611c12565b6114619190611c47565b61146b9190611c71565b6080811061147b5761147b611c5b565b6020020151856003602061040060046114949190611c12565b61149e9190611c47565b6114a89190611c71565b608081106114b8576114b8611c5b565b6020020151866002602061040060046114d19190611c12565b6114db9190611c47565b6114e59190611c71565b608081106114f5576114f5611c5b565b60200201518760016020610400600461150e9190611c12565b6115189190611c47565b6115229190611c71565b6080811061153257611532611c5b565b6020020151602061040060046115489190611c12565b6115529190611c47565b61155d906020611c12565b61156990610100611c84565b600161169c565b905061157a6118fe565b505198975050505050505050565b60008183106115975781611599565b825b9392505050565b6115a861191d565b7f48c9bdf267e6096a3ba7ca8485ae67bb2bf894fe72f36e3cf1361d5f3af54fa581527fd182e6ad7f520e511f6c3e2b8c68059b6bbd41fbabd9831f79217e1319cde05b60208083019190915282519083015160408401516060850151611618938593909290916080600061169c565b9050610e778183600460200201516000808060a0600161169c565b61163b61191d565b7f48c9bdf267e6096a3ba7ca8485ae67bb2bf894fe72f36e3cf1361d5f3af54fa581527fd182e6ad7f520e511f6c3e2b8c68059b6bbd41fbabd9831f79217e1319cde05b602080830191909152825190830151610e77918391600080604060015b6116a461191d565b600c60006116b18561175b565b8a516020808d0151835184830151604080516001600160e01b031960e08b901b168187015260248101969096526044860193909352606485018f9052608485018e905260a485018d905260c485018c90526001600160c01b031991821660e48601521660ec84015287151560f81b60f4840152805160d58185038101825260f5909401825293945091869184016009600019fa61174d57600080fd5b505050979650505050505050565b61176361191d565b620100008210156117a757600882811c66ffffffffffffff169083901b67ffffffffffffff00161760f01b5b6001600160c01b031916815260006020820152919050565b6401000000008210156117e757600882811b63ff00ff001662ff00ff9184901c9190911617601081811b91901c1760e01b6001600160e01b03191661178f565b680100000000000000008210156118015761178f82611898565b600160801b8210156118525767ffffffffffffffff8216604083901c61182682611898565b6001600160c01b031916835261183b81611898565b6001600160c01b0319166020840152506118939050565b60405162461bcd60e51b8152602060048201526016602482015275626c616b65326220696e70757420746f6f206c6f6e6760501b604482015260640161043d565b919050565b65ff000000ff00600882811b91821664ff000000ff9390911c92831617601090811b67ff000000ff0000009290921666ff000000ff0000939093169290921790911c17602081811b6bffffffffffffffff000000001691901c63ffffffff161760c01b90565b6040518061100001604052806080906020820280368337509192915050565b60405180604001604052806002906020820280368337509192915050565b6000611120828403121561086557600080fd5b60006020828403121561196057600080fd5b813567ffffffffffffffff81111561197757600080fd5b6119838482850161193b565b949350505050565b6110008101818360005b60808110156119b4578151835260209283019290910190600101611995565b50505092915050565b6000602082840312156119cf57600080fd5b81356001600160a01b038116811461159957600080fd5b634e487b7160e01b600052604160045260246000fd5b60405160c0810167ffffffffffffffff81118282101715611a1f57611a1f6119e6565b60405290565b60008082840360e0811215611a3957600080fd5b833567ffffffffffffffff811115611a5057600080fd5b611a5c8682870161193b565b93505060c0601f1982011215611a7157600080fd5b50611a7a6119fc565b6020840135815260408401356020820152606084013560408201526080840135606082015260a0840135608082015260c084013560a0820152809150509250929050565b600060208284031215611ad057600080fd5b5035919050565b600080611020808486031215611aec57600080fd5b833567ffffffffffffffff80821115611b0457600080fd5b611b108783880161193b565b94506020915086603f870112611b2557600080fd5b60405161100081018181108382111715611b4157611b416119e6565b6040529286019290508087841115611b5857600080fd5b8287015b84811015611b735780358352918301918301611b5c565b50809450505050509250929050565b600060c08284031215611b9457600080fd5b60405160c0810181811067ffffffffffffffff82111715611bb757611bb76119e6565b8060405250825181526020830151602082015260408301516040820152606083015160608201526080830151608082015260a083015160a08201528091505092915050565b634e487b7160e01b600052601160045260246000fd5b6000816000190483118215151615611c2c57611c2c611bfc565b500290565b634e487b7160e01b600052601260045260246000fd5b600082611c5657611c56611c31565b500490565b634e487b7160e01b600052603260045260246000fd5b81810381811115610e7757610e77611bfc565b80820180821115610e7757610e77611bfc565b600082611ca657611ca6611c31565b500690565b80516001600160801b038116811461189357600080fd5b600060408284031215611cd457600080fd5b6040516040810181811067ffffffffffffffff82111715611cf757611cf76119e6565b604052611d0383611cab565b8152611d1160208401611cab565b60208201529392505050565b6000808335601e19843603018112611d3457600080fd5b83018035915067ffffffffffffffff821115611d4f57600080fd5b6020019150600581901b3603821315611d6757600080fd5b9250929050565b60408101818360005b60028110156119b4578151835260209283019290910190600101611d7756fea2646970667358221220c38eea354bd402821a042aef21b943afb45e7a421005fa12f3c2b46bd86637b864736f6c63430008100033",
  "linkReferences": {},
  "deployedLinkReferences": {}
}