{
  "_format": "hh-sol-artifact-1",
  "contractName": "SubmissionLibrary",
  "sourceName": "contracts/interfaces/Submission.sol",
  "abi": [
    {
      "inputs": [],
      "name": "ENTRY_SIZE",
      "outputs": [
        {
          "internalType": "uint256",
          "name": "",
          "type": "uint256"
        }
      ],
      "stateMutability": "view",
      "type": "function"
    },
    {
      "inputs": [],
      "name": "MAX_DEPTH",
      "outputs": [
        {
          "internalType": "uint256",
          "name": "",
          "type": "uint256"
        }
      ],
      "stateMutability": "view",
      "type": "function"
    },
    {
      "inputs": [],
      "name": "MAX_LENGTH",
      "outputs": [
        {
          "internalType": "uint256",
          "name": "",
          "type": "uint256"
        }
      ],
      "stateMutability": "view",
      "type": "function"
    }
  ],
  "bytecode": "0x60aa610039600b82828239805160001a60731461002c57634e487b7160e01b600052600060045260246000fd5b30600052607381538281f3fe730000000000000000000000000000000000000000301460806040526004361060475760003560e01c8063a27154ba14604c578063a6f9885c146065578063ad899d1214606c575b600080fd5b6053604081565b60405190815260200160405180910390f35b6053600481565b60536101008156fea26469706673582212207d27187ef212dc2d449c8d1fc7a789268322b4880509aaaf86d01ed636b4152664736f6c63430008100033",
  "linkReferences": {},
  "deployedLinkReferences": {}
}