{
  "_format": "hh-sol-artifact-1",
  "contractName": "Cashier",
  "sourceName": "contracts/uploadMarket/Cashier.sol",
  "abi": [
    {
      "inputs": [
        {
          "internalType": "address",
          "name": "zgsToken_",
          "type": "address"
        },
        {
          "internalType": "address",
          "name": "uploadToken_",
          "type": "address"
        },
        {
          "internalType": "address",
          "name": "flow_",
          "type": "address"
        },
        {
          "internalType": "address",
          "name": "mine_",
          "type": "address"
        },
        {
          "internalType": "address",
          "name": "stake_",
          "type": "address"
        }
      ],
      "stateMutability": "nonpayable",
      "type": "constructor"
    },
    {
      "inputs": [
        {
          "internalType": "uint256",
          "name": "uploadSectors",
          "type": "uint256"
        },
        {
          "internalType": "uint256",
          "name": "paddingSectors",
          "type": "uint256"
        }
      ],
      "name": "chargeFee",
      "outputs": [],
      "stateMutability": "nonpayable",
      "type": "function"
    },
    {
      "inputs": [
        {
          "internalType": "uint256",
          "name": "pricingIndex",
          "type": "uint256"
        },
        {
          "internalType": "address",
          "name": "beneficiary",
          "type": "address"
        }
      ],
      "name": "claimMineReward",
      "outputs": [],
      "stateMutability": "nonpayable",
      "type": "function"
    },
    {
      "inputs": [
        {
          "internalType": "uint256",
          "name": "purchaseBytes",
          "type": "uint256"
        }
      ],
      "name": "computePriorityFee",
      "outputs": [
        {
          "internalType": "uint256",
          "name": "",
          "type": "uint256"
        }
      ],
      "stateMutability": "view",
      "type": "function"
    },
    {
      "inputs": [
        {
          "internalType": "uint256",
          "name": "sectors",
          "type": "uint256"
        }
      ],
      "name": "consumeUploadToken",
      "outputs": [],
      "stateMutability": "nonpayable",
      "type": "function"
    },
    {
      "inputs": [],
      "name": "drippingRate",
      "outputs": [
        {
          "internalType": "uint256",
          "name": "",
          "type": "uint256"
        }
      ],
      "stateMutability": "view",
      "type": "function"
    },
    {
      "inputs": [],
      "name": "flow",
      "outputs": [
        {
          "internalType": "address",
          "name": "",
          "type": "address"
        }
      ],
      "stateMutability": "view",
      "type": "function"
    },
    {
      "inputs": [],
      "name": "flowLength",
      "outputs": [
        {
          "internalType": "uint256",
          "name": "",
          "type": "uint256"
        }
      ],
      "stateMutability": "view",
      "type": "function"
    },
    {
      "inputs": [],
      "name": "gauge",
      "outputs": [
        {
          "internalType": "int256",
          "name": "",
          "type": "int256"
        }
      ],
      "stateMutability": "view",
      "type": "function"
    },
    {
      "inputs": [],
      "name": "getFlowLength",
      "outputs": [
        {
          "internalType": "uint256",
          "name": "",
          "type": "uint256"
        }
      ],
      "stateMutability": "view",
      "type": "function"
    },
    {
      "inputs": [],
      "name": "lastUpdate",
      "outputs": [
        {
          "internalType": "uint256",
          "name": "",
          "type": "uint256"
        }
      ],
      "stateMutability": "view",
      "type": "function"
    },
    {
      "inputs": [],
      "name": "mine",
      "outputs": [
        {
          "internalType": "address",
          "name": "",
          "type": "address"
        }
      ],
      "stateMutability": "view",
      "type": "function"
    },
    {
      "inputs": [],
      "name": "paidFee",
      "outputs": [
        {
          "internalType": "uint256",
          "name": "",
          "type": "uint256"
        }
      ],
      "stateMutability": "view",
      "type": "function"
    },
    {
      "inputs": [],
      "name": "paidUploadAmount",
      "outputs": [
        {
          "internalType": "uint256",
          "name": "",
          "type": "uint256"
        }
      ],
      "stateMutability": "view",
      "type": "function"
    },
    {
      "inputs": [
        {
          "internalType": "uint256",
          "name": "sectors",
          "type": "uint256"
        },
        {
          "internalType": "uint256",
          "name": "maxPrice",
          "type": "uint256"
        },
        {
          "internalType": "uint256",
          "name": "maxTipPrice",
          "type": "uint256"
        }
      ],
      "name": "purchase",
      "outputs": [],
      "stateMutability": "nonpayable",
      "type": "function"
    },
    {
      "inputs": [
        {
          "internalType": "uint256",
          "name": "",
          "type": "uint256"
        }
      ],
      "name": "rewards",
      "outputs": [
        {
          "internalType": "uint104",
          "name": "lockedReward",
          "type": "uint104"
        },
        {
          "internalType": "uint104",
          "name": "claimableReward",
          "type": "uint104"
        },
        {
          "internalType": "uint48",
          "name": "timestamp",
          "type": "uint48"
        }
      ],
      "stateMutability": "view",
      "type": "function"
    },
    {
      "inputs": [],
      "name": "stake",
      "outputs": [
        {
          "internalType": "address",
          "name": "",
          "type": "address"
        }
      ],
      "stateMutability": "view",
      "type": "function"
    },
    {
      "inputs": [],
      "name": "updateGauge",
      "outputs": [],
      "stateMutability": "nonpayable",
      "type": "function"
    },
    {
      "inputs": [],
      "name": "uploadToken",
      "outputs": [
        {
          "internalType": "contract IUploadToken",
          "name": "",
          "type": "address"
        }
      ],
      "stateMutability": "view",
      "type": "function"
    },
    {
      "inputs": [],
      "name": "zgsToken",
      "outputs": [
        {
          "internalType": "contract ISafeERC20",
          "name": "",
          "type": "address"
        }
      ],
      "stateMutability": "view",
      "type": "function"
    }
  ],
  "bytecode": "0x6101206040523480156200001257600080fd5b5060405162001afb38038062001afb8339810160408190526200003591620000b0565b6001600160a01b0380861660805284811660a05283811660c05282811660e05281166101005260016004556200006a62000076565b50505050505062000148565b6000805462000086904262000120565b426000556103e802919050565b80516001600160a01b0381168114620000ab57600080fd5b919050565b600080600080600060a08688031215620000c957600080fd5b620000d48662000093565b9450620000e46020870162000093565b9350620000f46040870162000093565b9250620001046060870162000093565b9150620001146080870162000093565b90509295509295909350565b818103818111156200014257634e487b7160e01b600052601160045260246000fd5b92915050565b60805160a05160c05160e0516101005161193d620001be600039600081816101ad0152610c080152600081816102450152610d9401526000818161018601526105b30152600081816101e70152610d0f01526000818161014701528181610b3a01528181610c370152610e4b015261193d6000f3fe608060405234801561001057600080fd5b50600436106101215760003560e01c80637fdeaa85116100ad578063ab378cb711610071578063ab378cb714610283578063c046371114610296578063ccec92c41461029f578063d6713eb1146102b2578063f301af42146102bb57600080fd5b80637fdeaa8514610225578063881fa03c1461022d57806399f4b251146102405780639b8b930514610267578063a6f19c841461027a57600080fd5b806346d5b97d116100f457806346d5b97d146101cf57806347e0a875146101e25780636e00da9414610209578063709e5fed1461021257806379c797071461021b57600080fd5b8063178bb4e2146101265780632782f57914610142578063343aad82146101815780633a4b66f1146101a8575b600080fd5b61012f60045481565b6040519081526020015b60405180910390f35b6101697f000000000000000000000000000000000000000000000000000000000000000081565b6040516001600160a01b039091168152602001610139565b6101697f000000000000000000000000000000000000000000000000000000000000000081565b6101697f000000000000000000000000000000000000000000000000000000000000000081565b61012f6101dd3660046116b8565b61032f565b6101697f000000000000000000000000000000000000000000000000000000000000000081565b61012f60025481565b61012f60055481565b610223610517565b005b60045461012f565b61022361023b3660046116d1565b6105b1565b6101697f000000000000000000000000000000000000000000000000000000000000000081565b6102236102753660046116f3565b610a67565b61012f60015481565b6102236102913660046116b8565b610cdc565b61012f60035481565b6102236102ad36600461171f565b610d92565b61012f60065481565b6103016102c93660046116b8565b6007602052600090815260409020546001600160681b0380821691600160681b810490911690600160d01b900465ffffffffffff1683565b604080516001600160681b03948516815293909216602084015265ffffffffffff1690820152606001610139565b600080600080600154126103685760015484811061035257506000949350505050565b600092506103608186611771565b915050610389565b600060015461037690611784565b925082905061038585826117a0565b9150505b610395610400806117b3565b6103a1906104006117b3565b6103ac9060646117b3565b8111156103f25760405162461bcd60e51b815260206004820152600f60248201526e476175676520756e646572666c6f7760881b60448201526064015b60405180910390fd5b6000610400610400806117b3565b61040c906103846117b3565b61041a90604085901b6117e8565b9050600061042a610400806117b3565b610436906103846117b3565b61044490604085901b6117e8565b90506000600160601b61045f61045a8585611771565b610ec1565b6104699190611771565b9050600061047684610ec1565b90506000600160681b82111561049b57610494604083901c846117b3565b90506104c6565b600160681b8311156104b55761049482604085901c6117b3565b60406104c183856117b3565b901c90505b602081901c606060646104db610400806117b3565b6104e7906103846117b3565b6104f36103e8856117b3565b6104fd91906117b3565b61050791906117e8565b901c9a9950505050505050505050565b6000610521611090565b905060006103e86002548361053691906117b3565b61054091906117e8565b9050806001600082825461055491906117fc565b909155506105669050610400806117b3565b610572906104006117b3565b61057d90601e6117b3565b60015413156105ad57610592610400806117b3565b61059e906104006117b3565b6105a990601e6117b3565b6001555b5050565b7f0000000000000000000000000000000000000000000000000000000000000000336001600160a01b0382161461062a5760405162461bcd60e51b815260206004820152601f60248201527f53656e64657220646f6573206e6f742068617665207065726d697373696f6e0060448201526064016103e9565b82600554101561067c5760405162461bcd60e51b815260206004820152601b60248201527f44617461207375626d697373696f6e206973206e6f742070616964000000000060448201526064016103e9565b600061068883856117a0565b600454909150610697826110ab565b600454600554600654600091906106ae90896117b3565b6106b891906117e8565b905080600660008282546106cc9190611771565b9250508190555086600560008282546106e59190611771565b9091555060009050846101006106fd610400806117b3565b610709906104006117b3565b6107149060086117b3565b61071e91906117e8565b61072890846117b3565b61073291906117e8565b90506000610100610745610400806117b3565b610751906104006117b3565b61075c9060086117b3565b61076691906117e8565b6107709086611824565b61010061077f610400806117b3565b61078b906104006117b3565b6107969060086117b3565b6107a091906117e8565b6107aa9190611771565b9050600060016101006107bf610400806117b3565b6107cb906104006117b3565b6107d69060086117b3565b6107e091906117e8565b6107ea84896117a0565b6107f491906117e8565b6107fe9190611771565b90506000610100610811610400806117b3565b61081d906104006117b3565b6108289060086117b3565b61083291906117e8565b61083d600188611771565b6108479190611824565b6108529060016117a0565b90506000610100610865610400806117b3565b610871906104006117b3565b61087c9060086117b3565b61088691906117e8565b6108908389611771565b61089a91906117e8565b905060006101006108ad610400806117b3565b6108b9906104006117b3565b6108c49060086117b3565b6108ce91906117e8565b6108d98360016117a0565b6108e391906117b3565b8814905081840361095957610954610100610900610400806117b3565b61090c906104006117b3565b6109179060086117b3565b61092191906117e8565b61092b8b8b611771565b61093590896117b3565b61093f91906117e8565b60008681526007602052604090209083611111565b610a58565b6109b661010061096b610400806117b3565b610977906104006117b3565b6109829060086117b3565b61098c91906117e8565b61099687896117b3565b6109a091906117e8565b6000868152600760205260409020906001611111565b610a126101006109c8610400806117b3565b6109d4906104006117b3565b6109df9060086117b3565b6109e991906117e8565b6109f385896117b3565b6109fd91906117e8565b60008481526007602052604090209083611111565b6000610a1f8560016117a0565b90505b82811015610a56576000818152600760205260409020610a4490886001611111565b80610a4e81611838565b915050610a22565b505b50505050505050505050505050565b610a6f610517565b6000610a7d610100856117b3565b90506000610a8d6103e8836117b3565b90506000610a9a8361032f565b90506000610aa884866117b3565b90506000610ab687866117b3565b905080610ac384866117a0565b1115610b065760405162461bcd60e51b8152602060048201526012602482015271115e18d95959081c1c9a58d9481b1a5b5a5d60721b60448201526064016103e9565b6000610b268284610b1787896117a0565b610b2191906117a0565b611222565b905083811115610be5576001600160a01b037f0000000000000000000000000000000000000000000000000000000000000000166323b872dd3330610b6b8886611771565b6040516001600160e01b031960e086901b1681526001600160a01b03938416600482015292909116602483015260448201526064016020604051808303816000875af1158015610bbf573d6000803e3d6000fd5b505050506040513d601f19601f82011682018060405250810190610be39190611851565b505b8315610ca6576040516323b872dd60e01b81523360048201526001600160a01b037f000000000000000000000000000000000000000000000000000000000000000081166024830152604482018690527f000000000000000000000000000000000000000000000000000000000000000016906323b872dd906064016020604051808303816000875af1158015610c80573d6000803e3d6000fd5b505050506040513d601f19601f82011682018060405250810190610ca49190611851565b505b8560016000828254610cb8919061187a565b90915550610cd1905089610ccc8684611771565b61123c565b505050505050505050565b6000610cf0670de0b6b3a7640000836117b3565b604051631125ae3960e11b8152336004820152602481018290529091507f00000000000000000000000000000000000000000000000000000000000000006001600160a01b03169063224b5c7290604401600060405180830381600087803b158015610d5b57600080fd5b505af1158015610d6f573d6000803e3d6000fd5b505050506105ad826103e861010085610d8891906117b3565b610ccc91906117b3565b7f0000000000000000000000000000000000000000000000000000000000000000336001600160a01b03821614610e0b5760405162461bcd60e51b815260206004820152601f60248201527f53656e64657220646f6573206e6f742068617665207065726d697373696f6e0060448201526064016103e9565b6000838152600760205260408120610e2290611270565b60405163a9059cbb60e01b81526001600160a01b038581166004830152602482018390529192507f00000000000000000000000000000000000000000000000000000000000000009091169063a9059cbb906044016020604051808303816000875af1158015610e96573d6000803e3d6000fd5b505050506040513d601f19601f82011682018060405250810190610eba9190611851565b5050505050565b6000663fffffffffffff821667ffc00000000000008316604084901c60a08110610ef15750600019949350505050565b6000610efc84611476565b90506640000000000000831615610f23576f8016302f174676283690dfe44d11d00802607f1c5b6680000000000000831615610f48576f802c6436d0e04f50ff8ce94a6797b3ce02607f1c5b600160381b831615610f6a576f8058d7d2d5e5f6b094d589f608ee4aa202607f1c5b600160391b831615610f8c576f80b1ed4fd999ab6c25335719b6e6fd2002607f1c5b6001603a1b831615610fae576f8164d1f3bc0307737be56527bd14def402607f1c5b6001603b1b831615610fd0576f82cd8698ac2ba1d73e2a475b46520bff02607f1c5b6001603c1b831615610ff2576f85aac367cc487b14c5c95b8c2154c1b202607f1c5b6001603d1b831615611014576f8b95c1e3ea8bd6e6fbe4628758a53c9002607f1c5b6001603e1b831615611036576f9837f0518db8a96f46ad23182e42f6f602607f1c5b6001603f1b831615611058576fb504f333f9de6484597d89b3754abe9f02607f1c5b601f8210156110765761106c82601f611771565b81901c9450611087565b611081601f83611771565b81901b94505b50505050919050565b6000805461109e9042611771565b426000556103e802919050565b6110b3610517565b80600460008282546110c591906117a0565b9091555061110b90506110da610400806117b3565b6110e59060036117b3565b6110f1610400806117b3565b61010060045461110191906117b3565b610b2191906117e8565b60025550565b6001600160681b0382111561115a5760405162461bcd60e51b815260206004820152600f60248201526e526577617264206f766572666c6f7760881b60448201526064016103e9565b8254600160d01b900465ffffffffffff16156111b85760405162461bcd60e51b815260206004820152601960248201527f52657761726420686173206265656e2066696e616c697a65640000000000000060448201526064016103e9565b8254829084906000906111d59084906001600160681b03166118a1565b92506101000a8154816001600160681b0302191690836001600160681b03160217905550801561121d5782546001600160d01b0316600160d01b4265ffffffffffff16021783555b505050565b60008183106112315781611233565b825b90505b92915050565b816005600082825461124e91906117a0565b92505081905550806006600082825461126791906117a0565b90915550505050565b8054600090600160d01b900465ffffffffffff16810361129257506000919050565b81546000906112b090600160d01b900465ffffffffffff1642611771565b6112bc906103e86117b3565b9050600060646112d161016d620151806117b3565b6112dd906103e86117b3565b6112f084680100000000000000006117b3565b6112fb9060046117b3565b61130591906117e8565b61130f91906117e8565b9050600061131c82611519565b61132a90600160601b611771565b8554909150600090600160601b9061134b906001600160681b0316846117b3565b61135591906117e8565b8654909150819087906000906113759084906001600160681b03166118c1565b92506101000a8154816001600160681b0302191690836001600160681b031602179055508086600001600d8282829054906101000a90046001600160681b03166113bf91906118a1565b82546101009290920a6001600160681b0381810219909316918316021790915587546001600160d01b0316600160d01b4265ffffffffffff1602178089556000925061141591600291600160681b9004166118e1565b875490915081908890600d9061143c908490600160681b90046001600160681b03166118c1565b92506101000a8154816001600160681b0302191690836001600160681b03160217905550806001600160681b031695505050505050919050565b60008160000361148b57506001607f1b919050565b603f82901b808002607f90811d90818302811d90818402811d906f7afef7fe0b163aa1bc5ac1bb25cd7f2a840260801d6fb17217f7d1cf79abc9e3b39803f2f6af8602821d01600160801b01906006906f55411a850de23ea19af62831983789cb8502901d050160186f3b18024f2eeb657d6633a21fbcc04f158302607f1d050160011c9695505050505050565b6000663fffffffffffff821667ffc00000000000008316604084901c8361154761154285611784565b611476565b9050664000000000000083161561156e576fffd3a751c0f7e10bd3b9f8ae012fbe060260801c5b6680000000000000831615611593576fffa756521c8daed19f3a1b48fb94c5890260801c5b600160381b8316156115b5576fff4ecb59511ec8a5301ba217ef18dd7c0260801c5b600160391b8316156115d7576ffe9e115c7b8f884badd25995e79d2f090260801c5b6001603a1b8316156115f9576ffd3e0c0cf486c174853f3a5931e0ee030260801c5b6001603b1b83161561161b576ffa83b2db722a033a7c25bb14315d7fcc0260801c5b6001603c1b83161561163d576ff5257d152486cc2c7b9d0c7aed980fc30260801c5b6001603d1b83161561165f576feac0c6e7dd24392ed02d75b3706e54fa0260801c5b6001603e1b831615611681576fd744fccad69d6af439a68bb9902d3fde0260801c5b6001603f1b8316156116a3576fb504f333f9de6484597d89b3754abe9f0260801c5b6116ae82601f6117a0565b1c95945050505050565b6000602082840312156116ca57600080fd5b5035919050565b600080604083850312156116e457600080fd5b50508035926020909101359150565b60008060006060848603121561170857600080fd5b505081359360208301359350604090920135919050565b6000806040838503121561173257600080fd5b8235915060208301356001600160a01b038116811461175057600080fd5b809150509250929050565b634e487b7160e01b600052601160045260246000fd5b818103818111156112365761123661175b565b6000600160ff1b82016117995761179961175b565b5060000390565b808201808211156112365761123661175b565b60008160001904831182151516156117cd576117cd61175b565b500290565b634e487b7160e01b600052601260045260246000fd5b6000826117f7576117f76117d2565b500490565b808201828112600083128015821682158216171561181c5761181c61175b565b505092915050565b600082611833576118336117d2565b500690565b60006001820161184a5761184a61175b565b5060010190565b60006020828403121561186357600080fd5b8151801515811461187357600080fd5b9392505050565b818103600083128015838313168383128216171561189a5761189a61175b565b5092915050565b6001600160681b0381811683821601908082111561189a5761189a61175b565b6001600160681b0382811682821603908082111561189a5761189a61175b565b60006001600160681b03808416806118fb576118fb6117d2565b9216919091049291505056fea264697066735822122086c58d504b2c8b3b0b046d81dd81361d834f5ddd8bd5b558f65406c6238303a464736f6c63430008100033",
  "linkReferences": {},
  "deployedLinkReferences": {}
}