{
  "_format": "hh-sol-artifact-1",
  "contractName": "Blake2bTest",
  "sourceName": "contracts/test/Blake2bTest.sol",
  "abi": [
    {
      "inputs": [
        {
          "internalType": "bytes32[]",
          "name": "input",
          "type": "bytes32[]"
        }
      ],
      "name": "blake2b",
      "outputs": [
        {
          "internalType": "bytes32[2]",
          "name": "h",
          "type": "bytes32[2]"
        }
      ],
      "stateMutability": "view",
      "type": "function"
    },
    {
      "inputs": [
        {
          "internalType": "bytes32[5]",
          "name": "input",
          "type": "bytes32[5]"
        }
      ],
      "name": "blake2bFive",
      "outputs": [
        {
          "internalType": "bytes32[2]",
          "name": "h",
          "type": "bytes32[2]"
        }
      ],
      "stateMutability": "view",
      "type": "function"
    },
    {
      "inputs": [
        {
          "internalType": "bytes32[2]",
          "name": "input",
          "type": "bytes32[2]"
        }
      ],
      "name": "blake2bPair",
      "outputs": [
        {
          "internalType": "bytes32[2]",
          "name": "h",
          "type": "bytes32[2]"
        }
      ],
      "stateMutability": "view",
      "type": "function"
    },
    {
      "inputs": [
        {
          "internalType": "bytes32[3]",
          "name": "input",
          "type": "bytes32[3]"
        }
      ],
      "name": "blake2bTriple",
      "outputs": [
        {
          "internalType": "bytes32[2]",
          "name": "h",
          "type": "bytes32[2]"
        }
      ],
      "stateMutability": "view",
      "type": "function"
    }
  ],
  "bytecode": "0x608060405234801561001057600080fd5b506109c5806100206000396000f3fe608060405234801561001057600080fd5b506004361061004c5760003560e01c80630d6fecd9146100515780635ff170091461007a5780637d6d77761461008d578063f956e6a5146100a0575b600080fd5b61006461005f3660046106e8565b6100b3565b6040516100719190610768565b60405180910390f35b610064610088366004610799565b6100ca565b61006461009b36600461083f565b6100db565b6100646100ae366004610898565b6100ec565b6100bb610683565b6100c4826100fd565b92915050565b6100d2610683565b6100c482610146565b6100e3610683565b6100c482610363565b6100f4610683565b6100c4826103b2565b610105610683565b60008051602061097083398151915281526000805160206109508339815191526020808301919091528251908301516100c49183916000806040600161041d565b61014e610683565b6000805160206109708339815191528152600080516020610950833981519152602082015281516000036101905761018d81600080808080600161041d565b90505b60005b825181101561035d5760008382815181106101b0576101b06108f1565b602090810291909101015184519091506000908190819081906101d487600461091d565b1015905060006101e587600461091d565b6101f0906020610930565b905081610272578861020388600161091d565b81518110610213576102136108f1565b602002602001015194508887600261022b919061091d565b8151811061023b5761023b6108f1565b6020026020010151935088876003610253919061091d565b81518110610263576102636108f1565b60200260200101519250610332565b885161027f906020610930565b895190915061028f88600161091d565b101561033257886102a188600161091d565b815181106102b1576102b16108f1565b6020026020010151945088518760026102ca919061091d565b101561033257886102dc88600261091d565b815181106102ec576102ec6108f1565b602002602001015193508851876003610305919061091d565b1015610332578861031788600361091d565b81518110610327576103276108f1565b602002602001015192505b6103418887878787868861041d565b9750505050505050600481610356919061091d565b9050610193565b50919050565b61036b610683565b600080516020610970833981519152815260008051602061095083398151915260208083019190915282519083015160408401516100c4928492909160006060600161041d565b6103ba610683565b600080516020610970833981519152815260008051602061095083398151915260208083019190915282519083015160408401516060850151610406938593909290916080600061041d565b90506100c48183600460200201516000808060a060015b610425610683565b600c6000610432856104dc565b8a516020808d0151835184830151604080516001600160e01b031960e08b901b168187015260248101969096526044860193909352606485018f9052608485018e905260a485018d905260c485018c90526001600160c01b031991821660e48601521660ec84015287151560f81b60f4840152805160d58185038101825260f5909401825293945091869184016009600019fa6104ce57600080fd5b505050979650505050505050565b6104e4610683565b6201000082101561052857600882811c66ffffffffffffff169083901b67ffffffffffffff00161760f01b5b6001600160c01b031916815260006020820152919050565b64010000000082101561056857600882811b63ff00ff001662ff00ff9184901c9190911617601081811b91901c1760e01b6001600160e01b031916610510565b68010000000000000000821015610582576105108261061d565b600160801b8210156105d35767ffffffffffffffff8216604083901c6105a78261061d565b6001600160c01b03191683526105bc8161061d565b6001600160c01b0319166020840152506106189050565b60405162461bcd60e51b8152602060048201526016602482015275626c616b65326220696e70757420746f6f206c6f6e6760501b604482015260640160405180910390fd5b919050565b65ff000000ff00600882811b91821664ff000000ff9390911c92831617601090811b67ff000000ff0000009290921666ff000000ff0000939093169290921790911c17602081811b6bffffffffffffffff000000001691901c63ffffffff161760c01b90565b60405180604001604052806002906020820280368337509192915050565b634e487b7160e01b600052604160045260246000fd5b604051601f8201601f1916810167ffffffffffffffff811182821017156106e0576106e06106a1565b604052919050565b6000604082840312156106fa57600080fd5b82601f83011261070957600080fd5b6040516040810181811067ffffffffffffffff8211171561072c5761072c6106a1565b806040525080604084018581111561074357600080fd5b845b8181101561075d578035835260209283019201610745565b509195945050505050565b60408101818360005b6002811015610790578151835260209283019290910190600101610771565b50505092915050565b600060208083850312156107ac57600080fd5b823567ffffffffffffffff808211156107c457600080fd5b818501915085601f8301126107d857600080fd5b8135818111156107ea576107ea6106a1565b8060051b91506107fb8483016106b7565b818152918301840191848101908884111561081557600080fd5b938501935b838510156108335784358252938501939085019061081a565b98975050505050505050565b60006060828403121561085157600080fd5b82601f83011261086057600080fd5b6040516060810181811067ffffffffffffffff82111715610883576108836106a1565b60405280606084018581111561074357600080fd5b600060a082840312156108aa57600080fd5b82601f8301126108b957600080fd5b60405160a0810181811067ffffffffffffffff821117156108dc576108dc6106a1565b6040528060a084018581111561074357600080fd5b634e487b7160e01b600052603260045260246000fd5b634e487b7160e01b600052601160045260246000fd5b808201808211156100c4576100c4610907565b600081600019048311821515161561094a5761094a610907565b50029056fed182e6ad7f520e511f6c3e2b8c68059b6bbd41fbabd9831f79217e1319cde05b48c9bdf267e6096a3ba7ca8485ae67bb2bf894fe72f36e3cf1361d5f3af54fa5a264697066735822122017a21f33a5f6391b3c525c1d185e78535fe44005e8ccb3eef877b68189ee517464736f6c63430008100033",
  "linkReferences": {},
  "deployedLinkReferences": {}
}