{
  "_format": "hh-sol-artifact-1",
  "contractName": "BatteryToken",
  "sourceName": "contracts/cashier/token/BatteryToken.sol",
  "abi": [
    {
      "inputs": [
        {
          "internalType": "address",
          "name": "_uploadToken",
          "type": "address"
        },
        {
          "internalType": "string",
          "name": "name_",
          "type": "string"
        },
        {
          "internalType": "string",
          "name": "symbol_",
          "type": "string"
        }
      ],
      "stateMutability": "nonpayable",
      "type": "constructor"
    },
    {
      "anonymous": false,
      "inputs": [
        {
          "indexed": true,
          "internalType": "address",
          "name": "owner",
          "type": "address"
        },
        {
          "indexed": true,
          "internalType": "address",
          "name": "spender",
          "type": "address"
        },
        {
          "indexed": false,
          "internalType": "uint256",
          "name": "value",
          "type": "uint256"
        }
      ],
      "name": "Approval",
      "type": "event"
    },
    {
      "anonymous": false,
      "inputs": [
        {
          "indexed": true,
          "internalType": "address",
          "name": "from",
          "type": "address"
        },
        {
          "indexed": true,
          "internalType": "address",
          "name": "to",
          "type": "address"
        },
        {
          "indexed": false,
          "internalType": "uint256",
          "name": "value",
          "type": "uint256"
        }
      ],
      "name": "Transfer",
      "type": "event"
    },
    {
      "inputs": [
        {
          "internalType": "address",
          "name": "owner",
          "type": "address"
        },
        {
          "internalType": "address",
          "name": "spender",
          "type": "address"
        }
      ],
      "name": "allowance",
      "outputs": [
        {
          "internalType": "uint256",
          "name": "",
          "type": "uint256"
        }
      ],
      "stateMutability": "view",
      "type": "function"
    },
    {
      "inputs": [
        {
          "internalType": "address",
          "name": "spender",
          "type": "address"
        },
        {
          "internalType": "uint256",
          "name": "amount",
          "type": "uint256"
        }
      ],
      "name": "approve",
      "outputs": [
        {
          "internalType": "bool",
          "name": "",
          "type": "bool"
        }
      ],
      "stateMutability": "nonpayable",
      "type": "function"
    },
    {
      "inputs": [
        {
          "internalType": "address",
          "name": "account",
          "type": "address"
        }
      ],
      "name": "balanceOf",
      "outputs": [
        {
          "internalType": "uint256",
          "name": "",
          "type": "uint256"
        }
      ],
      "stateMutability": "view",
      "type": "function"
    },
    {
      "inputs": [
        {
          "internalType": "uint256",
          "name": "amount",
          "type": "uint256"
        }
      ],
      "name": "charge",
      "outputs": [],
      "stateMutability": "nonpayable",
      "type": "function"
    },
    {
      "inputs": [
        {
          "internalType": "address",
          "name": "beneficiary",
          "type": "address"
        },
        {
          "internalType": "uint256",
          "name": "amount",
          "type": "uint256"
        }
      ],
      "name": "chargeFor",
      "outputs": [],
      "stateMutability": "nonpayable",
      "type": "function"
    },
    {
      "inputs": [
        {
          "internalType": "address",
          "name": "",
          "type": "address"
        }
      ],
      "name": "chargedBalance",
      "outputs": [
        {
          "internalType": "uint256",
          "name": "",
          "type": "uint256"
        }
      ],
      "stateMutability": "view",
      "type": "function"
    },
    {
      "inputs": [],
      "name": "decimals",
      "outputs": [
        {
          "internalType": "uint8",
          "name": "",
          "type": "uint8"
        }
      ],
      "stateMutability": "view",
      "type": "function"
    },
    {
      "inputs": [
        {
          "internalType": "address",
          "name": "spender",
          "type": "address"
        },
        {
          "internalType": "uint256",
          "name": "subtractedValue",
          "type": "uint256"
        }
      ],
      "name": "decreaseAllowance",
      "outputs": [
        {
          "internalType": "bool",
          "name": "",
          "type": "bool"
        }
      ],
      "stateMutability": "nonpayable",
      "type": "function"
    },
    {
      "inputs": [
        {
          "internalType": "address",
          "name": "spender",
          "type": "address"
        },
        {
          "internalType": "uint256",
          "name": "addedValue",
          "type": "uint256"
        }
      ],
      "name": "increaseAllowance",
      "outputs": [
        {
          "internalType": "bool",
          "name": "",
          "type": "bool"
        }
      ],
      "stateMutability": "nonpayable",
      "type": "function"
    },
    {
      "inputs": [],
      "name": "name",
      "outputs": [
        {
          "internalType": "string",
          "name": "",
          "type": "string"
        }
      ],
      "stateMutability": "view",
      "type": "function"
    },
    {
      "inputs": [],
      "name": "symbol",
      "outputs": [
        {
          "internalType": "string",
          "name": "",
          "type": "string"
        }
      ],
      "stateMutability": "view",
      "type": "function"
    },
    {
      "inputs": [],
      "name": "totalSupply",
      "outputs": [
        {
          "internalType": "uint256",
          "name": "",
          "type": "uint256"
        }
      ],
      "stateMutability": "view",
      "type": "function"
    },
    {
      "inputs": [
        {
          "internalType": "address",
          "name": "to",
          "type": "address"
        },
        {
          "internalType": "uint256",
          "name": "amount",
          "type": "uint256"
        }
      ],
      "name": "transfer",
      "outputs": [
        {
          "internalType": "bool",
          "name": "",
          "type": "bool"
        }
      ],
      "stateMutability": "nonpayable",
      "type": "function"
    },
    {
      "inputs": [
        {
          "internalType": "address",
          "name": "from",
          "type": "address"
        },
        {
          "internalType": "address",
          "name": "to",
          "type": "address"
        },
        {
          "internalType": "uint256",
          "name": "amount",
          "type": "uint256"
        }
      ],
      "name": "transferFrom",
      "outputs": [
        {
          "internalType": "bool",
          "name": "",
          "type": "bool"
        }
      ],
      "stateMutability": "nonpayable",
      "type": "function"
    },
    {
      "inputs": [
        {
          "internalType": "uint256",
          "name": "amount",
          "type": "uint256"
        }
      ],
      "name": "uncharge",
      "outputs": [],
      "stateMutability": "nonpayable",
      "type": "function"
    },
    {
      "inputs": [
        {
          "internalType": "address",
          "name": "beneficiary",
          "type": "address"
        },
        {
          "internalType": "uint256",
          "name": "amount",
          "type": "uint256"
        }
      ],
      "name": "unchargeFor",
      "outputs": [],
      "stateMutability": "nonpayable",
      "type": "function"
    },
    {
      "inputs": [],
      "name": "uploadToken",
      "outputs": [
        {
          "internalType": "contract ISafeERC20",
          "name": "",
          "type": "address"
        }
      ],
      "stateMutability": "view",
      "type": "function"
    }
  ],
  "bytecode": "0x60806040523480156200001157600080fd5b5060405162000f8c38038062000f8c833981016040819052620000349162000145565b818160036200004483826200025e565b5060046200005382826200025e565b5050600580546001600160a01b0319166001600160a01b039590951694909417909355506200032a915050565b634e487b7160e01b600052604160045260246000fd5b600082601f830112620000a857600080fd5b81516001600160401b0380821115620000c557620000c562000080565b604051601f8301601f19908116603f01168101908282118183101715620000f057620000f062000080565b816040528381526020925086838588010111156200010d57600080fd5b600091505b8382101562000131578582018301518183018401529082019062000112565b600093810190920192909252949350505050565b6000806000606084860312156200015b57600080fd5b83516001600160a01b03811681146200017357600080fd5b60208501519093506001600160401b03808211156200019157600080fd5b6200019f8783880162000096565b93506040860151915080821115620001b657600080fd5b50620001c58682870162000096565b9150509250925092565b600181811c90821680620001e457607f821691505b6020821081036200020557634e487b7160e01b600052602260045260246000fd5b50919050565b601f8211156200025957600081815260208120601f850160051c81016020861015620002345750805b601f850160051c820191505b81811015620002555782815560010162000240565b5050505b505050565b81516001600160401b038111156200027a576200027a62000080565b62000292816200028b8454620001cf565b846200020b565b602080601f831160018114620002ca5760008415620002b15750858301515b600019600386901b1c1916600185901b17855562000255565b600085815260208120601f198616915b82811015620002fb57888601518255948401946001909101908401620002da565b50858210156200031a5787850151600019600388901b60f8161c191681555b5050505050600190811b01905550565b610c52806200033a6000396000f3fe608060405234801561001057600080fd5b506004361061010b5760003560e01c806347e0a875116100a2578063a457c2d711610071578063a457c2d71461022f578063a9059cbb14610242578063dd62ed3e14610255578063e457e1e514610268578063ec401d181461027b57600080fd5b806347e0a875146101c05780634b793ab1146101eb57806370a08231146101fe57806395d89b411461022757600080fd5b806323b872dd116100de57806323b872dd14610178578063313ce5671461018b578063395093511461019a5780634181d5da146101ad57600080fd5b806306fdde0314610110578063095ea7b31461012e5780631731558a1461015157806318160ddd14610166575b600080fd5b61011861029b565b6040516101259190610a61565b60405180910390f35b61014161013c366004610acb565b61032d565b6040519015158152602001610125565b61016461015f366004610af5565b610347565b005b6002545b604051908152602001610125565b610141610186366004610b0e565b610355565b60405160128152602001610125565b6101416101a8366004610acb565b610379565b6101646101bb366004610acb565b61039b565b6005546101d3906001600160a01b031681565b6040516001600160a01b039091168152602001610125565b6101646101f9366004610acb565b6103aa565b61016a61020c366004610b4a565b6001600160a01b031660009081526020819052604090205490565b6101186103b5565b61014161023d366004610acb565b6103c4565b610141610250366004610acb565b610444565b61016a610263366004610b6c565b610452565b610164610276366004610af5565b61047d565b61016a610289366004610b4a565b60066020526000908152604090205481565b6060600380546102aa90610b9f565b80601f01602080910402602001604051908101604052809291908181526020018280546102d690610b9f565b80156103235780601f106102f857610100808354040283529160200191610323565b820191906000526020600020905b81548152906001019060200180831161030657829003601f168201915b5050505050905090565b60003361033b818585610488565b60019150505b92915050565b6103523333836105ac565b50565b6000336103638582856106a9565b61036e85858561071d565b506001949350505050565b60003361033b81858561038c8383610452565b6103969190610bd9565b610488565b6103a63383836108cc565b5050565b6103a63383836105ac565b6060600480546102aa90610b9f565b600033816103d28286610452565b9050838110156104375760405162461bcd60e51b815260206004820152602560248201527f45524332303a2064656372656173656420616c6c6f77616e63652062656c6f77604482015264207a65726f60d81b60648201526084015b60405180910390fd5b61036e8286868403610488565b60003361033b81858561071d565b6001600160a01b03918216600090815260016020908152604080832093909416825291909152205490565b6103523333836108cc565b6001600160a01b0383166104ea5760405162461bcd60e51b8152602060048201526024808201527f45524332303a20617070726f76652066726f6d20746865207a65726f206164646044820152637265737360e01b606482015260840161042e565b6001600160a01b03821661054b5760405162461bcd60e51b815260206004820152602260248201527f45524332303a20617070726f766520746f20746865207a65726f206164647265604482015261737360f01b606482015260840161042e565b6001600160a01b0383811660008181526001602090815260408083209487168084529482529182902085905590518481527f8c5be1e5ebec7d5bd14f71427d1e84f3dd0314c0f7b2291e5b200ac8c7c3b925910160405180910390a3505050565b6001600160a01b0383166000908152600660205260409020548111156106145760405162461bcd60e51b815260206004820152601b60248201527f4e6f7420656e6f7567687420636861726765642062616c616e63650000000000604482015260640161042e565b6001600160a01b038381166000908152600660205260409081902080548490039055600554905163a9059cbb60e01b815284831660048201526024810184905291169063a9059cbb906044016020604051808303816000875af115801561067f573d6000803e3d6000fd5b505050506040513d601f19601f820116820180604052508101906106a39190610bfa565b50505050565b60006106b58484610452565b905060001981146106a357818110156107105760405162461bcd60e51b815260206004820152601d60248201527f45524332303a20696e73756666696369656e7420616c6c6f77616e6365000000604482015260640161042e565b6106a38484848403610488565b6001600160a01b0383166107815760405162461bcd60e51b815260206004820152602560248201527f45524332303a207472616e736665722066726f6d20746865207a65726f206164604482015264647265737360d81b606482015260840161042e565b6001600160a01b0382166107e35760405162461bcd60e51b815260206004820152602360248201527f45524332303a207472616e7366657220746f20746865207a65726f206164647260448201526265737360e81b606482015260840161042e565b6107ee8383836109e9565b6001600160a01b038316600090815260208190526040902054818110156108665760405162461bcd60e51b815260206004820152602660248201527f45524332303a207472616e7366657220616d6f756e7420657863656564732062604482015265616c616e636560d01b606482015260840161042e565b6001600160a01b03848116600081815260208181526040808320878703905593871680835291849020805487019055925185815290927fddf252ad1be2c89b69c2b068fc378daa952ba7f163c4a11628f55a4df523b3ef910160405180910390a36106a3565b6005546040516323b872dd60e01b81526001600160a01b03858116600483015230602483015260448201849052909116906323b872dd906064016020604051808303816000875af1158015610925573d6000803e3d6000fd5b505050506040513d601f19601f820116820180604052508101906109499190610bfa565b506001600160a01b03821660009081526006602052604081208054839290610972908490610bd9565b90915550506001600160a01b0382166000908152602081815260408083205460069092529091205410156109e45760405162461bcd60e51b815260206004820152601960248201527842616c616e6365203c20436861726765642062616c616e636560381b604482015260640161042e565b505050565b6001600160a01b03831660009081526020818152604080832054600690925290912054610a17908390610bd9565b10156109e45760405162461bcd60e51b815260206004820152601960248201527842616c616e6365203c20436861726765642062616c616e636560381b604482015260640161042e565b600060208083528351808285015260005b81811015610a8e57858101830151858201604001528201610a72565b506000604082860101526040601f19601f8301168501019250505092915050565b80356001600160a01b0381168114610ac657600080fd5b919050565b60008060408385031215610ade57600080fd5b610ae783610aaf565b946020939093013593505050565b600060208284031215610b0757600080fd5b5035919050565b600080600060608486031215610b2357600080fd5b610b2c84610aaf565b9250610b3a60208501610aaf565b9150604084013590509250925092565b600060208284031215610b5c57600080fd5b610b6582610aaf565b9392505050565b60008060408385031215610b7f57600080fd5b610b8883610aaf565b9150610b9660208401610aaf565b90509250929050565b600181811c90821680610bb357607f821691505b602082108103610bd357634e487b7160e01b600052602260045260246000fd5b50919050565b8082018082111561034157634e487b7160e01b600052601160045260246000fd5b600060208284031215610c0c57600080fd5b81518015158114610b6557600080fdfea264697066735822122064378fa725269d9cdb28a3c1656921dd4a350545dcc6a50a4b8efcc613f5382064736f6c63430008100033",
  "linkReferences": {},
  "deployedLinkReferences": {}
}