{
  "_format": "hh-sol-artifact-1",
  "contractName": "AddressBook",
  "sourceName": "contracts/interfaces/AddressBook.sol",
  "abi": [
    {
      "inputs": [
        {
          "internalType": "address",
          "name": "flow_",
          "type": "address"
        },
        {
          "internalType": "address",
          "name": "market_",
          "type": "address"
        },
        {
          "internalType": "address",
          "name": "reward_",
          "type": "address"
        },
        {
          "internalType": "address",
          "name": "mine_",
          "type": "address"
        }
      ],
      "stateMutability": "nonpayable",
      "type": "constructor"
    },
    {
      "inputs": [],
      "name": "flow",
      "outputs": [
        {
          "internalType": "contract IFlow",
          "name": "",
          "type": "address"
        }
      ],
      "stateMutability": "view",
      "type": "function"
    },
    {
      "inputs": [],
      "name": "market",
      "outputs": [
        {
          "internalType": "contract IMarket",
          "name": "",
          "type": "address"
        }
      ],
      "stateMutability": "view",
      "type": "function"
    },
    {
      "inputs": [],
      "name": "mine",
      "outputs": [
        {
          "internalType": "address",
          "name": "",
          "type": "address"
        }
      ],
      "stateMutability": "view",
      "type": "function"
    },
    {
      "inputs": [],
      "name": "reward",
      "outputs": [
        {
          "internalType": "contract IReward",
          "name": "",
          "type": "address"
        }
      ],
      "stateMutability": "view",
      "type": "function"
    }
  ],
  "bytecode": "0x61010060405234801561001157600080fd5b5060405161047d38038061047d833981016040819052610030916100ff565b6001600160a01b0380851660c052831661007057604051610050906100ca565b604051809103906000f08015801561006c573d6000803e3d6000fd5b5092505b6001600160a01b0380841660805282166100b057604051610090906100d6565b604051809103906000f0801580156100ac573d6000803e3d6000fd5b5091505b6001600160a01b0391821660a0521660e052506101539050565b60b3806102c783390190565b6101038061037a83390190565b80516001600160a01b03811681146100fa57600080fd5b919050565b6000806000806080858703121561011557600080fd5b61011e856100e3565b935061012c602086016100e3565b925061013a604086016100e3565b9150610148606086016100e3565b905092959194509250565b60805160a05160c05160e05161013f610188600039600060e70152600060990152600060560152600060c0015261013f6000f3fe608060405234801561001057600080fd5b506004361061004c5760003560e01c8063228cb73314610051578063343aad821461009457806380f55605146100bb57806399f4b251146100e2575b600080fd5b6100787f000000000000000000000000000000000000000000000000000000000000000081565b6040516001600160a01b03909116815260200160405180910390f35b6100787f000000000000000000000000000000000000000000000000000000000000000081565b6100787f000000000000000000000000000000000000000000000000000000000000000081565b6100787f00000000000000000000000000000000000000000000000000000000000000008156fea264697066735822122015e7c5633bb143755fa9ef04ae8cc0fa2dc3698fa50b538660d55e3573a6330764736f6c634300081000336080604052348015600f57600080fd5b5060958061001e6000396000f3fe6080604052348015600f57600080fd5b506004361060285760003560e01c8063881fa03c14602d575b600080fd5b603c6038366004603e565b5050565b005b60008060408385031215605057600080fd5b5050803592602090910135915056fea26469706673582212201dcd26f4c719581a8d6944f41094d52790b98be632e92ff5961c10562c2d30bd64736f6c63430008100033608060405234801561001057600080fd5b5060e48061001f6000396000f3fe60806040526004361060265760003560e01c806359e9670014602b578063ccec92c414603c575b600080fd5b603a60363660046053565b5050565b005b348015604757600080fd5b50603a60363660046074565b60008060408385031215606557600080fd5b50508035926020909101359150565b60008060408385031215608657600080fd5b8235915060208301356001600160a01b038116811460a357600080fd5b80915050925092905056fea26469706673582212201431f63fefc0029b38d2a7498510babcbb9c93ba21f64379ea9836dcc8d698f564736f6c63430008100033",
  "linkReferences": {},
  "deployedLinkReferences": {}
}