{
  "_format": "hh-sol-artifact-1",
  "contractName": "DummyMarket",
  "sourceName": "contracts/interfaces/AddressBook.sol",
  "abi": [
    {
      "inputs": [
        {
          "internalType": "uint256",
          "name": "uploadSectors",
          "type": "uint256"
        },
        {
          "internalType": "uint256",
          "name": "paddingSectors",
          "type": "uint256"
        }
      ],
      "name": "chargeFee",
      "outputs": [],
      "stateMutability": "nonpayable",
      "type": "function"
    }
  ],
  "bytecode": "0x6080604052348015600f57600080fd5b5060958061001e6000396000f3fe6080604052348015600f57600080fd5b506004361060285760003560e01c8063881fa03c14602d575b600080fd5b603c6038366004603e565b5050565b005b60008060408385031215605057600080fd5b5050803592602090910135915056fea26469706673582212201dcd26f4c719581a8d6944f41094d52790b98be632e92ff5961c10562c2d30bd64736f6c63430008100033",
  "linkReferences": {},
  "deployedLinkReferences": {}
}