{
  "_format": "hh-sol-artifact-1",
  "contractName": "DummyMarket",
  "sourceName": "contracts/interfaces/AddressBook.sol",
  "abi": [
    {
      "inputs": [
        {
          "internalType": "uint256",
          "name": "beforeLength",
          "type": "uint256"
        },
        {
          "internalType": "uint256",
          "name": "uploadSectors",
          "type": "uint256"
        },
        {
          "internalType": "uint256",
          "name": "paddingSectors",
          "type": "uint256"
        }
      ],
      "name": "chargeFee",
      "outputs": [],
      "stateMutability": "nonpayable",
      "type": "function"
    }
  ],
  "bytecode": "0x6080604052348015600f57600080fd5b5060a08061001e6000396000f3fe6080604052348015600f57600080fd5b506004361060285760003560e01c8063da6eb36a14602d575b600080fd5b603d6038366004603f565b505050565b005b600080600060608486031215605357600080fd5b50508135936020830135935060409092013591905056fea2646970667358221220f9a70969227cb24de6dc3ce674650a5a82c54d3c33b0f1dc06cb7284257ae38c64736f6c63430008100033",
  "linkReferences": {},
  "deployedLinkReferences": {}
}