{
  "_format": "hh-sol-artifact-1",
  "contractName": "Blake2b",
  "sourceName": "contracts/utils/Blake2b.sol",
  "abi": [
    {
      "inputs": [],
      "name": "BLAKE2B_INIT_STATE0",
      "outputs": [
        {
          "internalType": "bytes32",
          "name": "",
          "type": "bytes32"
        }
      ],
      "stateMutability": "view",
      "type": "function"
    },
    {
      "inputs": [],
      "name": "BLAKE2B_INIT_STATE1",
      "outputs": [
        {
          "internalType": "bytes32",
          "name": "",
          "type": "bytes32"
        }
      ],
      "stateMutability": "view",
      "type": "function"
    }
  ],
  "bytecode": "0x60d6610039600b82828239805160001a60731461002c57634e487b7160e01b600052600060045260246000fd5b30600052607381538281f3fe7300000000000000000000000000000000000000003014608060405260043610603d5760003560e01c806315a2045c14604257806367d90ee214607a575b600080fd5b60687f48c9bdf267e6096a3ba7ca8485ae67bb2bf894fe72f36e3cf1361d5f3af54fa581565b60405190815260200160405180910390f35b60687fd182e6ad7f520e511f6c3e2b8c68059b6bbd41fbabd9831f79217e1319cde05b8156fea2646970667358221220d8da1db41a363a7aa9bfe8abf656f9daa6f8bf162b775dab3568c930432165c664736f6c63430008100033",
  "linkReferences": {},
  "deployedLinkReferences": {}
}