{
  "_format": "hh-sol-artifact-1",
  "contractName": "ChunkLinearReward",
  "sourceName": "contracts/reward/ChunkLinearReward.sol",
  "abi": [
    {
      "inputs": [
        {
          "internalType": "uint16",
          "name": "releaseMonths_",
          "type": "uint16"
        }
      ],
      "stateMutability": "nonpayable",
      "type": "constructor"
    },
    {
      "anonymous": false,
      "inputs": [
        {
          "indexed": true,
          "internalType": "uint256",
          "name": "pricingIndex",
          "type": "uint256"
        },
        {
          "indexed": true,
          "internalType": "address",
          "name": "beneficiary",
          "type": "address"
        },
        {
          "indexed": false,
          "internalType": "uint256",
          "name": "amount",
          "type": "uint256"
        }
      ],
      "name": "DistributeReward",
      "type": "event"
    },
    {
      "inputs": [
        {
          "internalType": "uint256",
          "name": "pricingIndex",
          "type": "uint256"
        },
        {
          "internalType": "address payable",
          "name": "beneficiary",
          "type": "address"
        },
        {
          "internalType": "bytes32",
          "name": "",
          "type": "bytes32"
        }
      ],
      "name": "claimMineReward",
      "outputs": [],
      "stateMutability": "nonpayable",
      "type": "function"
    },
    {
      "inputs": [
        {
          "internalType": "uint256",
          "name": "beforeLength",
          "type": "uint256"
        },
        {
          "internalType": "uint256",
          "name": "chargedSectors",
          "type": "uint256"
        }
      ],
      "name": "fillReward",
      "outputs": [],
      "stateMutability": "payable",
      "type": "function"
    },
    {
      "inputs": [
        {
          "internalType": "address",
          "name": "market_",
          "type": "address"
        },
        {
          "internalType": "address",
          "name": "mine_",
          "type": "address"
        }
      ],
      "name": "initialize",
      "outputs": [],
      "stateMutability": "nonpayable",
      "type": "function"
    },
    {
      "inputs": [],
      "name": "initialized",
      "outputs": [
        {
          "internalType": "bool",
          "name": "",
          "type": "bool"
        }
      ],
      "stateMutability": "view",
      "type": "function"
    },
    {
      "inputs": [],
      "name": "market",
      "outputs": [
        {
          "internalType": "address",
          "name": "",
          "type": "address"
        }
      ],
      "stateMutability": "view",
      "type": "function"
    },
    {
      "inputs": [],
      "name": "mine",
      "outputs": [
        {
          "internalType": "address",
          "name": "",
          "type": "address"
        }
      ],
      "stateMutability": "view",
      "type": "function"
    },
    {
      "inputs": [],
      "name": "releaseMonths",
      "outputs": [
        {
          "internalType": "uint16",
          "name": "",
          "type": "uint16"
        }
      ],
      "stateMutability": "view",
      "type": "function"
    },
    {
      "inputs": [
        {
          "internalType": "uint256",
          "name": "",
          "type": "uint256"
        }
      ],
      "name": "rewards",
      "outputs": [
        {
          "internalType": "uint128",
          "name": "lockedReward",
          "type": "uint128"
        },
        {
          "internalType": "uint128",
          "name": "claimableReward",
          "type": "uint128"
        },
        {
          "internalType": "uint128",
          "name": "distributedReward",
          "type": "uint128"
        },
        {
          "internalType": "uint40",
          "name": "startTime",
          "type": "uint40"
        },
        {
          "internalType": "uint40",
          "name": "lastUpdate",
          "type": "uint40"
        }
      ],
      "stateMutability": "view",
      "type": "function"
    }
  ],
  "bytecode": "0x60a060405234801561001057600080fd5b50604051610e71380380610e7183398101604081905261002f9161003b565b61ffff16608052610066565b60006020828403121561004d57600080fd5b815161ffff8116811461005f57600080fd5b9392505050565b608051610dea6100876000396000818160c10152610a1a0152610dea6000f3fe60806040526004361061007b5760003560e01c806380f556051161004e57806380f556051461012b57806399f4b25114610168578063b7a3c04c14610188578063f301af42146101a857600080fd5b8063158ef93e14610080578063347f3b58146100af578063485cc955146100f657806359e9670014610118575b600080fd5b34801561008c57600080fd5b5060005461009a9060ff1681565b60405190151581526020015b60405180910390f35b3480156100bb57600080fd5b506100e37f000000000000000000000000000000000000000000000000000000000000000081565b60405161ffff90911681526020016100a6565b34801561010257600080fd5b50610116610111366004610be9565b61024f565b005b610116610126366004610c22565b6102ed565b34801561013757600080fd5b506000546101509061010090046001600160a01b031681565b6040516001600160a01b0390911681526020016100a6565b34801561017457600080fd5b50600154610150906001600160a01b031681565b34801561019457600080fd5b506101166101a3366004610c44565b6106dd565b3480156101b457600080fd5b5061020d6101c3366004610c7c565b600260205260009081526040902080546001909101546001600160801b0380831692600160801b908190048216929182169164ffffffffff918104821691600160a81b9091041685565b604080516001600160801b0396871681529486166020860152929094169183019190915264ffffffffff9081166060830152909116608082015260a0016100a6565b60005460ff16156102b25760405162461bcd60e51b815260206004820152602260248201527f496e697469616c697a61626c653a20616c726561647920696e697469616c697a604482015261195960f21b60648201526084015b60405180910390fd5b600080546001600160a81b0319166101006001600160a01b039485160217600190811790915580546001600160a01b03191691909216179055565b60005461010090046001600160a01b0316336001600160a01b0316146103555760405162461bcd60e51b815260206004820152601f60248201527f53656e64657220646f6573206e6f742068617665207065726d697373696f6e0060448201526064016102a9565b8060008161010061036861040080610cab565b61037490610400610cab565b61037f906008610cab565b6103899190610ce0565b6103939034610cab565b61039d9190610ce0565b905060006103ab8386610cf4565b905060006101006103be61040080610cab565b6103ca90610400610cab565b6103d5906008610cab565b6103df9190610ce0565b6103e99087610d07565b6101006103f861040080610cab565b61040490610400610cab565b61040f906008610cab565b6104199190610ce0565b6104239190610d1b565b90506000600161010061043861040080610cab565b61044490610400610cab565b61044f906008610cab565b6104599190610ce0565b610463848a610cf4565b61046d9190610ce0565b6104779190610d1b565b9050600061010061048a61040080610cab565b61049690610400610cab565b6104a1906008610cab565b6104ab9190610ce0565b6104b6600186610d1b565b6104c09190610d07565b6104cb906001610cf4565b905060006101006104de61040080610cab565b6104ea90610400610cab565b6104f5906008610cab565b6104ff9190610ce0565b6105098387610d1b565b6105139190610ce0565b9050600061010061052661040080610cab565b61053290610400610cab565b61053d906008610cab565b6105479190610ce0565b610552836001610cf4565b61055c9190610cab565b861490508184036105d2576105cd61010061057961040080610cab565b61058590610400610cab565b610590906008610cab565b61059a9190610ce0565b6105a48c89610d1b565b6105ae908a610cab565b6105b89190610ce0565b600086815260026020526040902090836108d8565b6106d1565b61062f6101006105e461040080610cab565b6105f090610400610cab565b6105fb906008610cab565b6106059190610ce0565b61060f878a610cab565b6106199190610ce0565b60008681526002602052604090209060016108d8565b61068b61010061064161040080610cab565b61064d90610400610cab565b610658906008610cab565b6106629190610ce0565b61066c858a610cab565b6106769190610ce0565b600084815260026020526040902090836108d8565b6000610698856001610cf4565b90505b828110156106cf5760008181526002602052604090206106bd908960016108d8565b806106c781610d2e565b91505061069b565b505b50505050505050505050565b6001546001600160a01b0316336001600160a01b0316146107405760405162461bcd60e51b815260206004820152601f60248201527f53656e64657220646f6573206e6f742068617665207065726d697373696f6e0060448201526064016102a9565b6000838152600260209081526040808320815160a08101835281546001600160801b038082168352600160801b918290048116958301959095526001909201549384169281019290925264ffffffffff90830481166060830152600160a81b9092049091166080820152906107b482610a0f565b90506107c08282610a45565b60006107cb83610a94565b6000878152600260209081526040918290208651918701516001600160801b03928316600160801b91841682021782559287015160019091018054606089015160808a0151939094166001600160a81b03199091161764ffffffffff9384169094029390931764ffffffffff60a81b1916600160a81b9290911691909102179055905080156108d0576040516001600160a01b0386169082156108fc029083906000818181858888f1935050505015801561088a573d6000803e3d6000fd5b50846001600160a01b0316867f83617a1b0f847971f005bd162dde513cfe93df96e6293c3bbb5fe9c40629dd4c836040516108c791815260200190565b60405180910390a35b505050505050565b6001600160801b038211156109215760405162461bcd60e51b815260206004820152600f60248201526e526577617264206f766572666c6f7760881b60448201526064016102a9565b6001830154600160801b900464ffffffffff16156109815760405162461bcd60e51b815260206004820181905260248201527f526577617264206974656d20686173206265656e20696e697469616c697a656460448201526064016102a9565b82548290849060009061099e9084906001600160801b0316610d47565b92506101000a8154816001600160801b0302191690836001600160801b031602179055508015610a0a5760018301805469ffffffffffffffffffff60801b1916600160801b4264ffffffffff1690810264ffffffffff60a81b191691909117600160a81b919091021790555b505050565b6000610a3f8261ffff7f000000000000000000000000000000000000000000000000000000000000000016610af5565b92915050565b8082600001818151610a579190610d6e565b6001600160801b0316905250602082018051829190610a77908390610d47565b6001600160801b03169052505064ffffffffff4216608090910152565b60008060028360200151610aa89190610d8e565b90508083602001818151610abc9190610d6e565b6001600160801b0316905250604083018051829190610adc908390610d47565b6001600160801b03908116909152919091169392505050565b6000826080015164ffffffffff16600003610b1257506000610a3f565b600083604001518460200151610b289190610d47565b6001600160801b0316905060008185600001516001600160801b0316610b4e9190610cf4565b90506000856060015164ffffffffff1642610b699190610d1b565b90506000610b7b601f62015180610cab565b86610b868486610cab565b610b909190610ce0565b610b9a9190610ce0565b905082811115610ba75750815b83811015610bbc576000945050505050610a3f565b610bc68482610d1b565b979650505050505050565b6001600160a01b0381168114610be657600080fd5b50565b60008060408385031215610bfc57600080fd5b8235610c0781610bd1565b91506020830135610c1781610bd1565b809150509250929050565b60008060408385031215610c3557600080fd5b50508035926020909101359150565b600080600060608486031215610c5957600080fd5b833592506020840135610c6b81610bd1565b929592945050506040919091013590565b600060208284031215610c8e57600080fd5b5035919050565b634e487b7160e01b600052601160045260246000fd5b6000816000190483118215151615610cc557610cc5610c95565b500290565b634e487b7160e01b600052601260045260246000fd5b600082610cef57610cef610cca565b500490565b80820180821115610a3f57610a3f610c95565b600082610d1657610d16610cca565b500690565b81810381811115610a3f57610a3f610c95565b600060018201610d4057610d40610c95565b5060010190565b6001600160801b03818116838216019080821115610d6757610d67610c95565b5092915050565b6001600160801b03828116828216039080821115610d6757610d67610c95565b60006001600160801b0380841680610da857610da8610cca565b9216919091049291505056fea2646970667358221220dd50aa7a190094ebd267dbefe167bde8cd9d9ccdcd2a7c9f74a2e181df584a4264736f6c63430008100033",
  "linkReferences": {},
  "deployedLinkReferences": {}
}