{
  "_format": "hh-sol-artifact-1",
  "contractName": "ChunkLinearReward",
  "sourceName": "contracts/reward/ChunkLinearReward.sol",
  "abi": [
    {
      "inputs": [
        {
          "internalType": "uint16",
          "name": "releaseSeconds_",
          "type": "uint16"
        }
      ],
      "stateMutability": "nonpayable",
      "type": "constructor"
    },
    {
      "anonymous": false,
      "inputs": [
        {
          "indexed": true,
          "internalType": "uint256",
          "name": "pricingIndex",
          "type": "uint256"
        },
        {
          "indexed": true,
          "internalType": "address",
          "name": "beneficiary",
          "type": "address"
        },
        {
          "indexed": false,
          "internalType": "uint256",
          "name": "amount",
          "type": "uint256"
        }
      ],
      "name": "DistributeReward",
      "type": "event"
    },
    {
      "anonymous": false,
      "inputs": [
        {
          "indexed": true,
          "internalType": "bytes32",
          "name": "role",
          "type": "bytes32"
        },
        {
          "indexed": true,
          "internalType": "bytes32",
          "name": "previousAdminRole",
          "type": "bytes32"
        },
        {
          "indexed": true,
          "internalType": "bytes32",
          "name": "newAdminRole",
          "type": "bytes32"
        }
      ],
      "name": "RoleAdminChanged",
      "type": "event"
    },
    {
      "anonymous": false,
      "inputs": [
        {
          "indexed": true,
          "internalType": "bytes32",
          "name": "role",
          "type": "bytes32"
        },
        {
          "indexed": true,
          "internalType": "address",
          "name": "account",
          "type": "address"
        },
        {
          "indexed": true,
          "internalType": "address",
          "name": "sender",
          "type": "address"
        }
      ],
      "name": "RoleGranted",
      "type": "event"
    },
    {
      "anonymous": false,
      "inputs": [
        {
          "indexed": true,
          "internalType": "bytes32",
          "name": "role",
          "type": "bytes32"
        },
        {
          "indexed": true,
          "internalType": "address",
          "name": "account",
          "type": "address"
        },
        {
          "indexed": true,
          "internalType": "address",
          "name": "sender",
          "type": "address"
        }
      ],
      "name": "RoleRevoked",
      "type": "event"
    },
    {
      "inputs": [],
      "name": "DEFAULT_ADMIN_ROLE",
      "outputs": [
        {
          "internalType": "bytes32",
          "name": "",
          "type": "bytes32"
        }
      ],
      "stateMutability": "view",
      "type": "function"
    },
    {
      "inputs": [],
      "name": "PARAMS_ADMIN_ROLE",
      "outputs": [
        {
          "internalType": "bytes32",
          "name": "",
          "type": "bytes32"
        }
      ],
      "stateMutability": "view",
      "type": "function"
    },
    {
      "inputs": [],
      "name": "baseReward",
      "outputs": [
        {
          "internalType": "uint256",
          "name": "",
          "type": "uint256"
        }
      ],
      "stateMutability": "view",
      "type": "function"
    },
    {
      "inputs": [
        {
          "internalType": "uint256",
          "name": "pricingIndex",
          "type": "uint256"
        },
        {
          "internalType": "address payable",
          "name": "beneficiary",
          "type": "address"
        },
        {
          "internalType": "bytes32",
          "name": "",
          "type": "bytes32"
        }
      ],
      "name": "claimMineReward",
      "outputs": [],
      "stateMutability": "nonpayable",
      "type": "function"
    },
    {
      "inputs": [],
      "name": "donate",
      "outputs": [],
      "stateMutability": "payable",
      "type": "function"
    },
    {
      "inputs": [
        {
          "internalType": "uint256",
          "name": "beforeLength",
          "type": "uint256"
        },
        {
          "internalType": "uint256",
          "name": "chargedSectors",
          "type": "uint256"
        }
      ],
      "name": "fillReward",
      "outputs": [],
      "stateMutability": "payable",
      "type": "function"
    },
    {
      "inputs": [],
      "name": "firstRewardableChunk",
      "outputs": [
        {
          "internalType": "uint64",
          "name": "",
          "type": "uint64"
        }
      ],
      "stateMutability": "view",
      "type": "function"
    },
    {
      "inputs": [
        {
          "internalType": "bytes32",
          "name": "role",
          "type": "bytes32"
        }
      ],
      "name": "getRoleAdmin",
      "outputs": [
        {
          "internalType": "bytes32",
          "name": "",
          "type": "bytes32"
        }
      ],
      "stateMutability": "view",
      "type": "function"
    },
    {
      "inputs": [
        {
          "internalType": "bytes32",
          "name": "role",
          "type": "bytes32"
        },
        {
          "internalType": "uint256",
          "name": "index",
          "type": "uint256"
        }
      ],
      "name": "getRoleMember",
      "outputs": [
        {
          "internalType": "address",
          "name": "",
          "type": "address"
        }
      ],
      "stateMutability": "view",
      "type": "function"
    },
    {
      "inputs": [
        {
          "internalType": "bytes32",
          "name": "role",
          "type": "bytes32"
        }
      ],
      "name": "getRoleMemberCount",
      "outputs": [
        {
          "internalType": "uint256",
          "name": "",
          "type": "uint256"
        }
      ],
      "stateMutability": "view",
      "type": "function"
    },
    {
      "inputs": [
        {
          "internalType": "bytes32",
          "name": "role",
          "type": "bytes32"
        },
        {
          "internalType": "address",
          "name": "account",
          "type": "address"
        }
      ],
      "name": "grantRole",
      "outputs": [],
      "stateMutability": "nonpayable",
      "type": "function"
    },
    {
      "inputs": [
        {
          "internalType": "bytes32",
          "name": "role",
          "type": "bytes32"
        },
        {
          "internalType": "address",
          "name": "account",
          "type": "address"
        }
      ],
      "name": "hasRole",
      "outputs": [
        {
          "internalType": "bool",
          "name": "",
          "type": "bool"
        }
      ],
      "stateMutability": "view",
      "type": "function"
    },
    {
      "inputs": [
        {
          "internalType": "address",
          "name": "market_",
          "type": "address"
        },
        {
          "internalType": "address",
          "name": "mine_",
          "type": "address"
        }
      ],
      "name": "initialize",
      "outputs": [],
      "stateMutability": "nonpayable",
      "type": "function"
    },
    {
      "inputs": [],
      "name": "initialized",
      "outputs": [
        {
          "internalType": "bool",
          "name": "",
          "type": "bool"
        }
      ],
      "stateMutability": "view",
      "type": "function"
    },
    {
      "inputs": [],
      "name": "market",
      "outputs": [
        {
          "internalType": "address",
          "name": "",
          "type": "address"
        }
      ],
      "stateMutability": "view",
      "type": "function"
    },
    {
      "inputs": [],
      "name": "mine",
      "outputs": [
        {
          "internalType": "address",
          "name": "",
          "type": "address"
        }
      ],
      "stateMutability": "view",
      "type": "function"
    },
    {
      "inputs": [
        {
          "internalType": "address",
          "name": "dest",
          "type": "address"
        }
      ],
      "name": "payments",
      "outputs": [
        {
          "internalType": "uint256",
          "name": "",
          "type": "uint256"
        }
      ],
      "stateMutability": "view",
      "type": "function"
    },
    {
      "inputs": [],
      "name": "releaseSeconds",
      "outputs": [
        {
          "internalType": "uint16",
          "name": "",
          "type": "uint16"
        }
      ],
      "stateMutability": "view",
      "type": "function"
    },
    {
      "inputs": [
        {
          "internalType": "bytes32",
          "name": "role",
          "type": "bytes32"
        },
        {
          "internalType": "address",
          "name": "account",
          "type": "address"
        }
      ],
      "name": "renounceRole",
      "outputs": [],
      "stateMutability": "nonpayable",
      "type": "function"
    },
    {
      "inputs": [
        {
          "internalType": "bytes32",
          "name": "role",
          "type": "bytes32"
        },
        {
          "internalType": "address",
          "name": "account",
          "type": "address"
        }
      ],
      "name": "revokeRole",
      "outputs": [],
      "stateMutability": "nonpayable",
      "type": "function"
    },
    {
      "inputs": [
        {
          "internalType": "uint256",
          "name": "pricingIndex",
          "type": "uint256"
        }
      ],
      "name": "rewardDeadline",
      "outputs": [
        {
          "internalType": "uint256",
          "name": "",
          "type": "uint256"
        }
      ],
      "stateMutability": "view",
      "type": "function"
    },
    {
      "inputs": [
        {
          "internalType": "uint256",
          "name": "",
          "type": "uint256"
        }
      ],
      "name": "rewards",
      "outputs": [
        {
          "internalType": "uint128",
          "name": "lockedReward",
          "type": "uint128"
        },
        {
          "internalType": "uint128",
          "name": "claimableReward",
          "type": "uint128"
        },
        {
          "internalType": "uint128",
          "name": "distributedReward",
          "type": "uint128"
        },
        {
          "internalType": "uint40",
          "name": "startTime",
          "type": "uint40"
        },
        {
          "internalType": "uint40",
          "name": "lastUpdate",
          "type": "uint40"
        }
      ],
      "stateMutability": "view",
      "type": "function"
    },
    {
      "inputs": [],
      "name": "serviceFeeRateBps",
      "outputs": [
        {
          "internalType": "uint256",
          "name": "",
          "type": "uint256"
        }
      ],
      "stateMutability": "view",
      "type": "function"
    },
    {
      "inputs": [
        {
          "internalType": "uint256",
          "name": "baseReward_",
          "type": "uint256"
        }
      ],
      "name": "setBaseReward",
      "outputs": [],
      "stateMutability": "nonpayable",
      "type": "function"
    },
    {
      "inputs": [
        {
          "internalType": "uint256",
          "name": "bps",
          "type": "uint256"
        }
      ],
      "name": "setServiceFeeRate",
      "outputs": [],
      "stateMutability": "nonpayable",
      "type": "function"
    },
    {
      "inputs": [
        {
          "internalType": "address",
          "name": "treasury_",
          "type": "address"
        }
      ],
      "name": "setTreasury",
      "outputs": [],
      "stateMutability": "nonpayable",
      "type": "function"
    },
    {
      "inputs": [
        {
          "internalType": "bytes4",
          "name": "interfaceId",
          "type": "bytes4"
        }
      ],
      "name": "supportsInterface",
      "outputs": [
        {
          "internalType": "bool",
          "name": "",
          "type": "bool"
        }
      ],
      "stateMutability": "view",
      "type": "function"
    },
    {
      "inputs": [],
      "name": "totalBaseReward",
      "outputs": [
        {
          "internalType": "uint256",
          "name": "",
          "type": "uint256"
        }
      ],
      "stateMutability": "view",
      "type": "function"
    },
    {
      "inputs": [],
      "name": "treasury",
      "outputs": [
        {
          "internalType": "address",
          "name": "",
          "type": "address"
        }
      ],
      "stateMutability": "view",
      "type": "function"
    },
    {
      "inputs": [
        {
          "internalType": "address payable",
          "name": "payee",
          "type": "address"
        }
      ],
      "name": "withdrawPayments",
      "outputs": [],
      "stateMutability": "nonpayable",
      "type": "function"
    }
  ],
  "bytecode": "0x60c06040523480156200001157600080fd5b506040516200267c3803806200267c833981016040819052620000349162000087565b604051620000429062000079565b604051809103906000f0801580156200005f573d6000803e3d6000fd5b506001600160a01b031660805261ffff1660a052620000b4565b61058c80620020f083390190565b6000602082840312156200009a57600080fd5b815161ffff81168114620000ad57600080fd5b9392505050565b60805160a051611ff3620000fd600039600081816102830152818161070f0152818161147f0152611559015260008181610799015281816110b401526115c90152611ff36000f3fe6080604052600436106101cd5760003560e01c80639010d07c116100f7578063b7a3c04c11610095578063e2982c2111610064578063e2982c211461055b578063ed88c68e1461057b578063f0f4426014610583578063f301af42146105a357600080fd5b8063b7a3c04c146104e5578063c057511114610505578063ca15c8731461051b578063d547741f1461053b57600080fd5b80639b1d3091116100d15780639b1d309114610460578063a217fddf14610480578063b15d20da14610495578063b3b30c1a146104b757600080fd5b80639010d07c1461040057806391d148541461042057806399f4b2511461044057600080fd5b806331b3eb941161016f57806361d027b31161013e57806361d027b31461037c57806376ad03bc146103b45780637f1b5e43146103ca57806380f55605146103e057600080fd5b806331b3eb941461030957806336568abe14610329578063485cc9551461034957806359e967001461036957600080fd5b8063158ef93e116101ab578063158ef93e146102575780632129593114610271578063248a9ca3146102b85780632f2ff15d146102e957600080fd5b806301ffc9a7146101d25780630373a23a146102075780630a539a1914610229575b600080fd5b3480156101de57600080fd5b506101f26101ed366004611b6f565b61064a565b60405190151581526020015b60405180910390f35b34801561021357600080fd5b50610227610222366004611b99565b610675565b005b34801561023557600080fd5b50610249610244366004611b99565b610693565b6040519081526020016101fe565b34801561026357600080fd5b506000546101f29060ff1681565b34801561027d57600080fd5b506102a57f000000000000000000000000000000000000000000000000000000000000000081565b60405161ffff90911681526020016101fe565b3480156102c457600080fd5b506102496102d3366004611b99565b6000908152600160208190526040909120015490565b3480156102f557600080fd5b50610227610304366004611bc7565b61074f565b34801561031557600080fd5b50610227610324366004611bf7565b61077a565b34801561033557600080fd5b50610227610344366004611bc7565b6107f8565b34801561035557600080fd5b50610227610364366004611c14565b61087b565b610227610377366004611c42565b61093d565b34801561038857600080fd5b5060095461039c906001600160a01b031681565b6040516001600160a01b0390911681526020016101fe565b3480156103c057600080fd5b5061024960075481565b3480156103d657600080fd5b5061024960065481565b3480156103ec57600080fd5b5060035461039c906001600160a01b031681565b34801561040c57600080fd5b5061039c61041b366004611c42565b610d25565b34801561042c57600080fd5b506101f261043b366004611bc7565b610d44565b34801561044c57600080fd5b5060045461039c906001600160a01b031681565b34801561046c57600080fd5b5061022761047b366004611b99565b610d6f565b34801561048c57600080fd5b50610249600081565b3480156104a157600080fd5b50610249600080516020611f9e83398151915281565b3480156104c357600080fd5b506104cc610d8d565b60405167ffffffffffffffff90911681526020016101fe565b3480156104f157600080fd5b50610227610500366004611c64565b610e3b565b34801561051157600080fd5b5061024960085481565b34801561052757600080fd5b50610249610536366004611b99565b611055565b34801561054757600080fd5b50610227610556366004611bc7565b61106c565b34801561056757600080fd5b50610249610576366004611bf7565b611092565b610227611121565b34801561058f57600080fd5b5061022761059e366004611bf7565b61113a565b3480156105af57600080fd5b506106086105be366004611b99565b600560205260009081526040902080546001909101546001600160801b0380831692600160801b908190048216929182169164ffffffffff918104821691600160a81b9091041685565b604080516001600160801b0396871681529486166020860152929094169183019190915264ffffffffff9081166060830152909116608082015260a0016101fe565b60006001600160e01b03198216635a05180f60e01b148061066f575061066f82611175565b92915050565b600080516020611f9e83398151915261068d816111aa565b50600755565b6000818152600560209081526040808320815160a08101835281546001600160801b038082168352600160801b918290048116958301959095526001909201549384169281019290925264ffffffffff908304811660608301819052600160a81b90930416608082015290820361070d5750600092915050565b7f000000000000000000000000000000000000000000000000000000000000000061ffff1681606001516107419190611cb2565b64ffffffffff169392505050565b6000828152600160208190526040909120015461076b816111aa565b61077583836111b7565b505050565b6040516351cff8d960e01b81526001600160a01b0382811660048301527f000000000000000000000000000000000000000000000000000000000000000016906351cff8d990602401600060405180830381600087803b1580156107dd57600080fd5b505af11580156107f1573d6000803e3d6000fd5b5050505050565b6001600160a01b038116331461086d5760405162461bcd60e51b815260206004820152602f60248201527f416363657373436f6e74726f6c3a2063616e206f6e6c792072656e6f756e636560448201526e103937b632b9903337b91039b2b63360891b60648201526084015b60405180910390fd5b61087782826111d9565b5050565b60005460ff16156108da5760405162461bcd60e51b8152602060048201526024808201527f5a67496e697469616c697a61626c653a20616c726561647920696e697469616c6044820152631a5e995960e21b6064820152608401610864565b6000805460ff191660011781556108f7906108f23390565b6111b7565b61090f600080516020611f9e833981519152336111b7565b600380546001600160a01b039384166001600160a01b03199182161790915560048054929093169116179055565b6003546001600160a01b0316336001600160a01b0316146109a05760405162461bcd60e51b815260206004820152601f60248201527f53656e64657220646f6573206e6f742068617665207065726d697373696f6e006044820152606401610864565b6000612710600854346109b39190611cd0565b6109bd9190611d05565b905080156109db576009546109db906001600160a01b0316826111fb565b60006109e78234611d19565b9050826000816101006109fc61040080611cd0565b610a0890610400611cd0565b610a13906008611cd0565b610a1d9190611d05565b610a279085611cd0565b610a319190611d05565b90506000610a3f8388611d2c565b90506000610100610a5261040080611cd0565b610a5e90610400611cd0565b610a69906008611cd0565b610a739190611d05565b610a7d9089611d3f565b610100610a8c61040080611cd0565b610a9890610400611cd0565b610aa3906008611cd0565b610aad9190611d05565b610ab79190611d19565b905060006001610100610acc61040080611cd0565b610ad890610400611cd0565b610ae3906008611cd0565b610aed9190611d05565b610af7848c611d2c565b610b019190611d05565b610b0b9190611d19565b90506000610100610b1e61040080611cd0565b610b2a90610400611cd0565b610b35906008611cd0565b610b3f9190611d05565b610b4a600186611d19565b610b549190611d3f565b610b5f906001611d2c565b90506000610100610b7261040080611cd0565b610b7e90610400611cd0565b610b89906008611cd0565b610b939190611d05565b610b9d8387611d19565b610ba79190611d05565b90506000610100610bba61040080611cd0565b610bc690610400611cd0565b610bd1906008611cd0565b610bdb9190611d05565b610be6836001611d2c565b610bf09190611cd0565b86149050818403610c19576000848152600560205260409020610c14903483611314565b610d17565b610c76610100610c2b61040080611cd0565b610c3790610400611cd0565b610c42906008611cd0565b610c4c9190611d05565b610c56878a611cd0565b610c609190611d05565b6000868152600560205260409020906001611314565b6000610c83856001611d2c565b90505b82811015610cba576000818152600560205260409020610ca890896001611314565b80610cb281611d53565b915050610c86565b50610d17610100610ccd61040080611cd0565b610cd990610400611cd0565b610ce4906008611cd0565b610cee9190611d05565b610cf8858a611cd0565b610d029190611d05565b60008481526005602052604090209083611314565b505050505050505050505050565b6000828152600260205260408120610d3d9083611448565b9392505050565b60009182526001602090815260408084206001600160a01b0393909316845291905290205460ff1690565b600080516020611f9e833981519152610d87816111aa565b50600855565b6000806104005b610da78167ffffffffffffffff16611454565b15610dc157905080610dba600282611d6c565b9050610d94565b8067ffffffffffffffff168267ffffffffffffffff161015610e355760006002610deb8484611d9c565b610df59190611dbd565b610dff9084611de4565b9050610e148167ffffffffffffffff16611454565b15610e2b57610e24816001611de4565b9250610e2f565b8091505b50610dc1565b50919050565b6004546001600160a01b0316336001600160a01b031614610e9e5760405162461bcd60e51b815260206004820152601f60248201527f53656e64657220646f6573206e6f742068617665207065726d697373696f6e006044820152606401610864565b6000838152600560209081526040808320815160a08101835281546001600160801b038082168352600160801b918290048116958301959095526001909201549384169281019290925264ffffffffff90830481166060830152600160a81b909204909116608082015290610f1282611474565b9050610f1e82826114a4565b6000610f29836114f3565b60008781526005602090815260408083208751928801516001600160801b03938416600160801b9185168202178255918801516001909101805460608a015160808b0151939095166001600160a81b03199091161764ffffffffff9485169093029290921764ffffffffff60a81b1916600160a81b9390911692909202919091179055909150610fba878584611554565b905060008160065411610fcf57600654610fd1565b815b9050610fdd8184611d2c565b92508060066000828254610ff19190611d19565b9091555050821561104b5761100687846115aa565b866001600160a01b0316887f83617a1b0f847971f005bd162dde513cfe93df96e6293c3bbb5fe9c40629dd4c8560405161104291815260200190565b60405180910390a35b5050505050505050565b600081815260026020526040812061066f9061162b565b60008281526001602081905260409091200154611088816111aa565b61077583836111d9565b6040516371d4ed8d60e11b81526001600160a01b0382811660048301526000917f00000000000000000000000000000000000000000000000000000000000000009091169063e3a9db1a90602401602060405180830381865afa1580156110fd573d6000803e3d6000fd5b505050506040513d601f19601f8201168201806040525081019061066f9190611e05565b34600660008282546111339190611d2c565b9091555050565b600080516020611f9e833981519152611152816111aa565b50600980546001600160a01b0319166001600160a01b0392909216919091179055565b60006001600160e01b03198216637965db0b60e01b148061066f57506301ffc9a760e01b6001600160e01b031983161461066f565b6111b48133611635565b50565b6111c1828261168e565b600082815260026020526040902061077590826116f9565b6111e3828261170e565b60008281526002602052604090206107759082611775565b8047101561124b5760405162461bcd60e51b815260206004820152601d60248201527f416464726573733a20696e73756666696369656e742062616c616e63650000006044820152606401610864565b6000826001600160a01b03168260405160006040518083038185875af1925050503d8060008114611298576040519150601f19603f3d011682016040523d82523d6000602084013e61129d565b606091505b50509050806107755760405162461bcd60e51b815260206004820152603a60248201527f416464726573733a20756e61626c6520746f2073656e642076616c75652c207260448201527f6563697069656e74206d617920686176652072657665727465640000000000006064820152608401610864565b6001600160801b0382111561135d5760405162461bcd60e51b815260206004820152600f60248201526e526577617264206f766572666c6f7760881b6044820152606401610864565b6001830154600160801b900464ffffffffff16156113bd5760405162461bcd60e51b815260206004820181905260248201527f526577617264206974656d20686173206265656e20696e697469616c697a65646044820152606401610864565b8254829084906000906113da9084906001600160801b0316611e1e565b92506101000a8154816001600160801b0302191690836001600160801b031602179055508015610775575050600101805469ffffffffffffffffffff60801b1916600160801b4264ffffffffff1690810264ffffffffff60a81b191691909117600160a81b91909102179055565b6000610d3d838361178a565b60008061146083610693565b90508015801590610d3d5750421192915050565b600061066f8261ffff7f0000000000000000000000000000000000000000000000000000000000000000166117b4565b80826000018181516114b69190611e3e565b6001600160801b03169052506020820180518291906114d6908390611e1e565b6001600160801b03169052505064ffffffffff4216608090910152565b600080600283602001516115079190611e5e565b9050808360200181815161151b9190611e3e565b6001600160801b031690525060408301805182919061153b908390611e1e565b6001600160801b03908116909152919091169392505050565b6000427f000000000000000000000000000000000000000000000000000000000000000061ffff16846060015161158b9190611cb2565b64ffffffffff16116115a05750600754610d3d565b5060009392505050565b60405163f340fa0160e01b81526001600160a01b0383811660048301527f0000000000000000000000000000000000000000000000000000000000000000169063f340fa019083906024016000604051808303818588803b15801561160e57600080fd5b505af1158015611622573d6000803e3d6000fd5b50505050505050565b600061066f825490565b61163f8282610d44565b6108775761164c81611878565b61165783602061188a565b604051602001611668929190611e9c565b60408051601f198184030181529082905262461bcd60e51b825261086491600401611f11565b6116988282610d44565b6108775760008281526001602081815260408084206001600160a01b0386168086529252808420805460ff19169093179092559051339285917f2f8788117e7eff1d82e926ec794901d17c78024a50270940304540a733656f0d9190a45050565b6000610d3d836001600160a01b038416611a26565b6117188282610d44565b156108775760008281526001602090815260408083206001600160a01b0385168085529252808320805460ff1916905551339285917ff6391f5c32d9c69d2a47ea670b442974b53935d1edc7fd64eb21e047a839171b9190a45050565b6000610d3d836001600160a01b038416611a75565b60008260000182815481106117a1576117a1611f44565b9060005260206000200154905092915050565b6000826080015164ffffffffff166000036117d15750600061066f565b6000836040015184602001516117e79190611e1e565b6001600160801b0316905060008185600001516001600160801b031661180d9190611d2c565b90506000856060015164ffffffffff16426118289190611d19565b90506000856118378385611cd0565b6118419190611d05565b90508281111561184e5750815b8381101561186357600094505050505061066f565b61186d8482611d19565b979650505050505050565b606061066f6001600160a01b03831660145b60606000611899836002611cd0565b6118a4906002611d2c565b67ffffffffffffffff8111156118bc576118bc611f5a565b6040519080825280601f01601f1916602001820160405280156118e6576020820181803683370190505b509050600360fc1b8160008151811061190157611901611f44565b60200101906001600160f81b031916908160001a905350600f60fb1b8160018151811061193057611930611f44565b60200101906001600160f81b031916908160001a9053506000611954846002611cd0565b61195f906001611d2c565b90505b60018111156119d7576f181899199a1a9b1b9c1cb0b131b232b360811b85600f166010811061199357611993611f44565b1a60f81b8282815181106119a9576119a9611f44565b60200101906001600160f81b031916908160001a90535060049490941c936119d081611f70565b9050611962565b508315610d3d5760405162461bcd60e51b815260206004820181905260248201527f537472696e67733a20686578206c656e67746820696e73756666696369656e746044820152606401610864565b6000818152600183016020526040812054611a6d5750815460018181018455600084815260208082209093018490558454848252828601909352604090209190915561066f565b50600061066f565b60008181526001830160205260408120548015611b5e576000611a99600183611d19565b8554909150600090611aad90600190611d19565b9050818114611b12576000866000018281548110611acd57611acd611f44565b9060005260206000200154905080876000018481548110611af057611af0611f44565b6000918252602080832090910192909255918252600188019052604090208390555b8554869080611b2357611b23611f87565b60019003818190600052602060002001600090559055856001016000868152602001908152602001600020600090556001935050505061066f565b600091505061066f565b5092915050565b600060208284031215611b8157600080fd5b81356001600160e01b031981168114610d3d57600080fd5b600060208284031215611bab57600080fd5b5035919050565b6001600160a01b03811681146111b457600080fd5b60008060408385031215611bda57600080fd5b823591506020830135611bec81611bb2565b809150509250929050565b600060208284031215611c0957600080fd5b8135610d3d81611bb2565b60008060408385031215611c2757600080fd5b8235611c3281611bb2565b91506020830135611bec81611bb2565b60008060408385031215611c5557600080fd5b50508035926020909101359150565b600080600060608486031215611c7957600080fd5b833592506020840135611c8b81611bb2565b929592945050506040919091013590565b634e487b7160e01b600052601160045260246000fd5b64ffffffffff818116838216019080821115611b6857611b68611c9c565b6000816000190483118215151615611cea57611cea611c9c565b500290565b634e487b7160e01b600052601260045260246000fd5b600082611d1457611d14611cef565b500490565b8181038181111561066f5761066f611c9c565b8082018082111561066f5761066f611c9c565b600082611d4e57611d4e611cef565b500690565b600060018201611d6557611d65611c9c565b5060010190565b600067ffffffffffffffff80831681851681830481118215151615611d9357611d93611c9c565b02949350505050565b67ffffffffffffffff828116828216039080821115611b6857611b68611c9c565b600067ffffffffffffffff80841680611dd857611dd8611cef565b92169190910492915050565b67ffffffffffffffff818116838216019080821115611b6857611b68611c9c565b600060208284031215611e1757600080fd5b5051919050565b6001600160801b03818116838216019080821115611b6857611b68611c9c565b6001600160801b03828116828216039080821115611b6857611b68611c9c565b60006001600160801b0380841680611dd857611dd8611cef565b60005b83811015611e93578181015183820152602001611e7b565b50506000910152565b7f416363657373436f6e74726f6c3a206163636f756e7420000000000000000000815260008351611ed4816017850160208801611e78565b7001034b99036b4b9b9b4b733903937b6329607d1b6017918401918201528351611f05816028840160208801611e78565b01602801949350505050565b6020815260008251806020840152611f30816040850160208701611e78565b601f01601f19169190910160400192915050565b634e487b7160e01b600052603260045260246000fd5b634e487b7160e01b600052604160045260246000fd5b600081611f7f57611f7f611c9c565b506000190190565b634e487b7160e01b600052603160045260246000fdfeb9d69e0ca90be54a40811e436234a7f7908b87ff2bec27e64f878b166da8e8e5a2646970667358221220bb470ba0e9e5d8b7e682f4de2e2ea865f4f17708299e07e2485b234abca12bd064736f6c63430008100033608060405234801561001057600080fd5b5061001a3361001f565b61006f565b600080546001600160a01b038381166001600160a01b0319831681178455604051919092169283917f8be0079c531659141344cd1fd0a4f28419497f9722a3daafe3b4186f6b6457e09190a35050565b61050e8061007e6000396000f3fe6080604052600436106100555760003560e01c806351cff8d91461005a578063715018a61461007c5780638da5cb5b14610091578063e3a9db1a146100be578063f2fde38b14610102578063f340fa0114610122575b600080fd5b34801561006657600080fd5b5061007a61007536600461048d565b610135565b005b34801561008857600080fd5b5061007a6101ac565b34801561009d57600080fd5b506000546040516001600160a01b0390911681526020015b60405180910390f35b3480156100ca57600080fd5b506100f46100d936600461048d565b6001600160a01b031660009081526001602052604090205490565b6040519081526020016100b5565b34801561010e57600080fd5b5061007a61011d36600461048d565b6101c0565b61007a61013036600461048d565b61023e565b61013d6102b0565b6001600160a01b0381166000818152600160205260408120805491905590610165908261030a565b816001600160a01b03167f7084f5476618d8e60b11ef0d7d3f06914655adb8793e28ff7f018d4c76d505d5826040516101a091815260200190565b60405180910390a25050565b6101b46102b0565b6101be6000610428565b565b6101c86102b0565b6001600160a01b0381166102325760405162461bcd60e51b815260206004820152602660248201527f4f776e61626c653a206e6577206f776e657220697320746865207a65726f206160448201526564647265737360d01b60648201526084015b60405180910390fd5b61023b81610428565b50565b6102466102b0565b6001600160a01b0381166000908152600160205260408120805434928392916102709084906104b1565b90915550506040518181526001600160a01b038316907f2da466a7b24304f47e87fa2e1e5a81b9831ce54fec19055ce277ca2f39ba42c4906020016101a0565b6000546001600160a01b031633146101be5760405162461bcd60e51b815260206004820181905260248201527f4f776e61626c653a2063616c6c6572206973206e6f7420746865206f776e65726044820152606401610229565b8047101561035a5760405162461bcd60e51b815260206004820152601d60248201527f416464726573733a20696e73756666696369656e742062616c616e63650000006044820152606401610229565b6000826001600160a01b03168260405160006040518083038185875af1925050503d80600081146103a7576040519150601f19603f3d011682016040523d82523d6000602084013e6103ac565b606091505b50509050806104235760405162461bcd60e51b815260206004820152603a60248201527f416464726573733a20756e61626c6520746f2073656e642076616c75652c207260448201527f6563697069656e74206d617920686176652072657665727465640000000000006064820152608401610229565b505050565b600080546001600160a01b038381166001600160a01b0319831681178455604051919092169283917f8be0079c531659141344cd1fd0a4f28419497f9722a3daafe3b4186f6b6457e09190a35050565b6001600160a01b038116811461023b57600080fd5b60006020828403121561049f57600080fd5b81356104aa81610478565b9392505050565b808201808211156104d257634e487b7160e01b600052601160045260246000fd5b9291505056fea2646970667358221220e52cf2b51f0a8d14b10d6c445edb47884f6fbd6d5fbaed7572ef106f818cf48064736f6c63430008100033",
  "linkReferences": {},
  "deployedLinkReferences": {}
}