{
  "_format": "hh-sol-artifact-1",
  "contractName": "ChunkLinearReward",
  "sourceName": "contracts/reward/ChunkLinearReward.sol",
  "abi": [
    {
      "inputs": [
        {
          "internalType": "address",
          "name": "book_",
          "type": "address"
        },
        {
          "internalType": "uint16",
          "name": "releaseMonths_",
          "type": "uint16"
        }
      ],
      "stateMutability": "nonpayable",
      "type": "constructor"
    },
    {
      "anonymous": false,
      "inputs": [
        {
          "indexed": true,
          "internalType": "uint256",
          "name": "pricingIndex",
          "type": "uint256"
        },
        {
          "indexed": true,
          "internalType": "address",
          "name": "beneficiary",
          "type": "address"
        },
        {
          "indexed": false,
          "internalType": "uint256",
          "name": "amount",
          "type": "uint256"
        }
      ],
      "name": "DistributeReward",
      "type": "event"
    },
    {
      "inputs": [],
      "name": "book",
      "outputs": [
        {
          "internalType": "contract AddressBook",
          "name": "",
          "type": "address"
        }
      ],
      "stateMutability": "view",
      "type": "function"
    },
    {
      "inputs": [
        {
          "internalType": "uint256",
          "name": "pricingIndex",
          "type": "uint256"
        },
        {
          "internalType": "address payable",
          "name": "beneficiary",
          "type": "address"
        },
        {
          "internalType": "bytes32",
          "name": "",
          "type": "bytes32"
        }
      ],
      "name": "claimMineReward",
      "outputs": [],
      "stateMutability": "nonpayable",
      "type": "function"
    },
    {
      "inputs": [
        {
          "internalType": "uint256",
          "name": "beforeLength",
          "type": "uint256"
        },
        {
          "internalType": "uint256",
          "name": "chargedSectors",
          "type": "uint256"
        }
      ],
      "name": "fillReward",
      "outputs": [],
      "stateMutability": "payable",
      "type": "function"
    },
    {
      "inputs": [],
      "name": "releaseMonths",
      "outputs": [
        {
          "internalType": "uint16",
          "name": "",
          "type": "uint16"
        }
      ],
      "stateMutability": "view",
      "type": "function"
    },
    {
      "inputs": [
        {
          "internalType": "uint256",
          "name": "",
          "type": "uint256"
        }
      ],
      "name": "rewards",
      "outputs": [
        {
          "internalType": "uint128",
          "name": "lockedReward",
          "type": "uint128"
        },
        {
          "internalType": "uint128",
          "name": "claimableReward",
          "type": "uint128"
        },
        {
          "internalType": "uint128",
          "name": "distributedReward",
          "type": "uint128"
        },
        {
          "internalType": "uint40",
          "name": "startTime",
          "type": "uint40"
        },
        {
          "internalType": "uint40",
          "name": "lastUpdate",
          "type": "uint40"
        }
      ],
      "stateMutability": "view",
      "type": "function"
    }
  ],
  "bytecode": "0x60c060405234801561001057600080fd5b50604051610e73380380610e7383398101604081905261002f91610049565b6001600160a01b0390911660805261ffff1660a052610096565b6000806040838503121561005c57600080fd5b82516001600160a01b038116811461007357600080fd5b602084015190925061ffff8116811461008b57600080fd5b809150509250929050565b60805160a051610da56100ce6000396000818160b201526109ea0152600081816061015281816101c501526106340152610da56000f3fe60806040526004361061004a5760003560e01c806305a8da721461004f578063347f3b58146100a057806359e96700146100e7578063b7a3c04c146100fc578063f301af421461011c575b600080fd5b34801561005b57600080fd5b506100837f000000000000000000000000000000000000000000000000000000000000000081565b6040516001600160a01b0390911681526020015b60405180910390f35b3480156100ac57600080fd5b506100d47f000000000000000000000000000000000000000000000000000000000000000081565b60405161ffff9091168152602001610097565b6100fa6100f5366004610ba1565b6101c3565b005b34801561010857600080fd5b506100fa610117366004610bdb565b610632565b34801561012857600080fd5b50610181610137366004610c13565b600060208190529081526040902080546001909101546001600160801b0380831692600160801b908190048216929182169164ffffffffff918104821691600160a81b9091041685565b604080516001600160801b0396871681529486166020860152929094169183019190915264ffffffffff9081166060830152909116608082015260a001610097565b7f00000000000000000000000000000000000000000000000000000000000000006001600160a01b03166380f556056040518163ffffffff1660e01b8152600401602060405180830381865afa158015610221573d6000803e3d6000fd5b505050506040513d601f19601f820116820180604052508101906102459190610c2c565b6001600160a01b0316336001600160a01b0316146102aa5760405162461bcd60e51b815260206004820152601f60248201527f53656e64657220646f6573206e6f742068617665207065726d697373696f6e0060448201526064015b60405180910390fd5b806000816101006102bd61040080610c66565b6102c990610400610c66565b6102d4906008610c66565b6102de9190610c9b565b6102e89034610c66565b6102f29190610c9b565b905060006103008386610caf565b9050600061010061031361040080610c66565b61031f90610400610c66565b61032a906008610c66565b6103349190610c9b565b61033e9087610cc2565b61010061034d61040080610c66565b61035990610400610c66565b610364906008610c66565b61036e9190610c9b565b6103789190610cd6565b90506000600161010061038d61040080610c66565b61039990610400610c66565b6103a4906008610c66565b6103ae9190610c9b565b6103b8848a610caf565b6103c29190610c9b565b6103cc9190610cd6565b905060006101006103df61040080610c66565b6103eb90610400610c66565b6103f6906008610c66565b6104009190610c9b565b61040b600186610cd6565b6104159190610cc2565b610420906001610caf565b9050600061010061043361040080610c66565b61043f90610400610c66565b61044a906008610c66565b6104549190610c9b565b61045e8387610cd6565b6104689190610c9b565b9050600061010061047b61040080610c66565b61048790610400610c66565b610492906008610c66565b61049c9190610c9b565b6104a7836001610caf565b6104b19190610c66565b86149050818403610527576105226101006104ce61040080610c66565b6104da90610400610c66565b6104e5906008610c66565b6104ef9190610c9b565b6104f98c89610cd6565b610503908a610c66565b61050d9190610c9b565b600086815260208190526040902090836108a8565b610626565b61058461010061053961040080610c66565b61054590610400610c66565b610550906008610c66565b61055a9190610c9b565b610564878a610c66565b61056e9190610c9b565b60008681526020819052604090209060016108a8565b6105e061010061059661040080610c66565b6105a290610400610c66565b6105ad906008610c66565b6105b79190610c9b565b6105c1858a610c66565b6105cb9190610c9b565b600084815260208190526040902090836108a8565b60006105ed856001610caf565b90505b82811015610624576000818152602081905260409020610612908960016108a8565b8061061c81610ce9565b9150506105f0565b505b50505050505050505050565b7f00000000000000000000000000000000000000000000000000000000000000006001600160a01b03166399f4b2516040518163ffffffff1660e01b8152600401602060405180830381865afa158015610690573d6000803e3d6000fd5b505050506040513d601f19601f820116820180604052508101906106b49190610c2c565b6001600160a01b0316336001600160a01b0316146107145760405162461bcd60e51b815260206004820152601f60248201527f53656e64657220646f6573206e6f742068617665207065726d697373696f6e0060448201526064016102a1565b600083815260208181526040808320815160a08101835281546001600160801b038082168352600160801b918290048116958301959095526001909201549384169281019290925264ffffffffff90830481166060830152600160a81b909204909116608082015290610786826109df565b90506107928282610a15565b600061079d83610a64565b600087815260208181526040918290208651918701516001600160801b03928316600160801b91841682021782559287015160019091018054606089015160808a0151939094166001600160a81b03199091161764ffffffffff9384169094029390931764ffffffffff60a81b1916600160a81b9290911691909102179055905080156108a0576040516001600160a01b0386169082156108fc029083906000818181858888f1935050505015801561085a573d6000803e3d6000fd5b50846001600160a01b0316867f83617a1b0f847971f005bd162dde513cfe93df96e6293c3bbb5fe9c40629dd4c8360405161089791815260200190565b60405180910390a35b505050505050565b6001600160801b038211156108f15760405162461bcd60e51b815260206004820152600f60248201526e526577617264206f766572666c6f7760881b60448201526064016102a1565b6001830154600160801b900464ffffffffff16156109515760405162461bcd60e51b815260206004820181905260248201527f526577617264206974656d20686173206265656e20696e697469616c697a656460448201526064016102a1565b82548290849060009061096e9084906001600160801b0316610d02565b92506101000a8154816001600160801b0302191690836001600160801b0316021790555080156109da5760018301805469ffffffffffffffffffff60801b1916600160801b4264ffffffffff1690810264ffffffffff60a81b191691909117600160a81b919091021790555b505050565b6000610a0f8261ffff7f000000000000000000000000000000000000000000000000000000000000000016610ac5565b92915050565b8082600001818151610a279190610d29565b6001600160801b0316905250602082018051829190610a47908390610d02565b6001600160801b03169052505064ffffffffff4216608090910152565b60008060028360200151610a789190610d49565b90508083602001818151610a8c9190610d29565b6001600160801b0316905250604083018051829190610aac908390610d02565b6001600160801b03908116909152919091169392505050565b6000826080015164ffffffffff16600003610ae257506000610a0f565b600083604001518460200151610af89190610d02565b6001600160801b0316905060008185600001516001600160801b0316610b1e9190610caf565b90506000856060015164ffffffffff1642610b399190610cd6565b90506000610b4b601f62015180610c66565b86610b568486610c66565b610b609190610c9b565b610b6a9190610c9b565b905082811115610b775750815b83811015610b8c576000945050505050610a0f565b610b968482610cd6565b979650505050505050565b60008060408385031215610bb457600080fd5b50508035926020909101359150565b6001600160a01b0381168114610bd857600080fd5b50565b600080600060608486031215610bf057600080fd5b833592506020840135610c0281610bc3565b929592945050506040919091013590565b600060208284031215610c2557600080fd5b5035919050565b600060208284031215610c3e57600080fd5b8151610c4981610bc3565b9392505050565b634e487b7160e01b600052601160045260246000fd5b6000816000190483118215151615610c8057610c80610c50565b500290565b634e487b7160e01b600052601260045260246000fd5b600082610caa57610caa610c85565b500490565b80820180821115610a0f57610a0f610c50565b600082610cd157610cd1610c85565b500690565b81810381811115610a0f57610a0f610c50565b600060018201610cfb57610cfb610c50565b5060010190565b6001600160801b03818116838216019080821115610d2257610d22610c50565b5092915050565b6001600160801b03828116828216039080821115610d2257610d22610c50565b60006001600160801b0380841680610d6357610d63610c85565b9216919091049291505056fea2646970667358221220d4fba009cb4a2cc34696cf3c1c483cc2fbe419349834fdb493bd621cf40b349a64736f6c63430008100033",
  "linkReferences": {},
  "deployedLinkReferences": {}
}