{
  "_format": "hh-sol-artifact-1",
  "contractName": "PoraMine",
  "sourceName": "contracts/miner/Mine.sol",
  "abi": [
    {
      "inputs": [
        {
          "internalType": "address",
          "name": "book_",
          "type": "address"
        },
        {
          "internalType": "uint256",
          "name": "initRate",
          "type": "uint256"
        },
        {
          "internalType": "uint256",
          "name": "adjustRatio_",
          "type": "uint256"
        },
        {
          "internalType": "uint256",
          "name": "settings",
          "type": "uint256"
        }
      ],
      "stateMutability": "nonpayable",
      "type": "constructor"
    },
    {
      "anonymous": false,
      "inputs": [
        {
          "indexed": true,
          "internalType": "bytes32",
          "name": "minerId",
          "type": "bytes32"
        },
        {
          "indexed": true,
          "internalType": "address",
          "name": "beneficiary",
          "type": "address"
        }
      ],
      "name": "NewMinerId",
      "type": "event"
    },
    {
      "anonymous": false,
      "inputs": [
        {
          "indexed": true,
          "internalType": "bytes32",
          "name": "minerId",
          "type": "bytes32"
        },
        {
          "indexed": true,
          "internalType": "address",
          "name": "from",
          "type": "address"
        },
        {
          "indexed": true,
          "internalType": "address",
          "name": "to",
          "type": "address"
        }
      ],
      "name": "UpdateMinerId",
      "type": "event"
    },
    {
      "inputs": [],
      "name": "adjustRatio",
      "outputs": [
        {
          "internalType": "uint256",
          "name": "",
          "type": "uint256"
        }
      ],
      "stateMutability": "view",
      "type": "function"
    },
    {
      "inputs": [
        {
          "components": [
            {
              "internalType": "bytes32",
              "name": "contextDigest",
              "type": "bytes32"
            },
            {
              "internalType": "bytes32",
              "name": "nonce",
              "type": "bytes32"
            },
            {
              "internalType": "bytes32",
              "name": "minerId",
              "type": "bytes32"
            },
            {
              "internalType": "uint256",
              "name": "startPosition",
              "type": "uint256"
            },
            {
              "internalType": "uint256",
              "name": "mineLength",
              "type": "uint256"
            },
            {
              "internalType": "uint256",
              "name": "recallPosition",
              "type": "uint256"
            },
            {
              "internalType": "uint256",
              "name": "sealOffset",
              "type": "uint256"
            },
            {
              "internalType": "bytes32",
              "name": "sealedContextDigest",
              "type": "bytes32"
            },
            {
              "internalType": "bytes32[128]",
              "name": "sealedData",
              "type": "bytes32[128]"
            },
            {
              "internalType": "bytes32[]",
              "name": "merkleProof",
              "type": "bytes32[]"
            }
          ],
          "internalType": "struct PoraMine.PoraAnswer",
          "name": "answer",
          "type": "tuple"
        },
        {
          "components": [
            {
              "internalType": "uint256",
              "name": "epoch",
              "type": "uint256"
            },
            {
              "internalType": "uint256",
              "name": "mineStart",
              "type": "uint256"
            },
            {
              "internalType": "bytes32",
              "name": "flowRoot",
              "type": "bytes32"
            },
            {
              "internalType": "uint256",
              "name": "flowLength",
              "type": "uint256"
            },
            {
              "internalType": "bytes32",
              "name": "blockDigest",
              "type": "bytes32"
            },
            {
              "internalType": "bytes32",
              "name": "digest",
              "type": "bytes32"
            }
          ],
          "internalType": "struct MineContext",
          "name": "context",
          "type": "tuple"
        }
      ],
      "name": "basicCheck",
      "outputs": [],
      "stateMutability": "view",
      "type": "function"
    },
    {
      "inputs": [
        {
          "internalType": "bytes32",
          "name": "",
          "type": "bytes32"
        }
      ],
      "name": "beneficiaries",
      "outputs": [
        {
          "internalType": "address",
          "name": "",
          "type": "address"
        }
      ],
      "stateMutability": "view",
      "type": "function"
    },
    {
      "inputs": [],
      "name": "book",
      "outputs": [
        {
          "internalType": "contract AddressBook",
          "name": "",
          "type": "address"
        }
      ],
      "stateMutability": "view",
      "type": "function"
    },
    {
      "inputs": [],
      "name": "dataProofEnabled",
      "outputs": [
        {
          "internalType": "bool",
          "name": "",
          "type": "bool"
        }
      ],
      "stateMutability": "view",
      "type": "function"
    },
    {
      "inputs": [],
      "name": "fixedQuality",
      "outputs": [
        {
          "internalType": "bool",
          "name": "",
          "type": "bool"
        }
      ],
      "stateMutability": "view",
      "type": "function"
    },
    {
      "inputs": [],
      "name": "lastMinedEpoch",
      "outputs": [
        {
          "internalType": "uint256",
          "name": "",
          "type": "uint256"
        }
      ],
      "stateMutability": "view",
      "type": "function"
    },
    {
      "inputs": [
        {
          "components": [
            {
              "internalType": "bytes32",
              "name": "contextDigest",
              "type": "bytes32"
            },
            {
              "internalType": "bytes32",
              "name": "nonce",
              "type": "bytes32"
            },
            {
              "internalType": "bytes32",
              "name": "minerId",
              "type": "bytes32"
            },
            {
              "internalType": "uint256",
              "name": "startPosition",
              "type": "uint256"
            },
            {
              "internalType": "uint256",
              "name": "mineLength",
              "type": "uint256"
            },
            {
              "internalType": "uint256",
              "name": "recallPosition",
              "type": "uint256"
            },
            {
              "internalType": "uint256",
              "name": "sealOffset",
              "type": "uint256"
            },
            {
              "internalType": "bytes32",
              "name": "sealedContextDigest",
              "type": "bytes32"
            },
            {
              "internalType": "bytes32[128]",
              "name": "sealedData",
              "type": "bytes32[128]"
            },
            {
              "internalType": "bytes32[]",
              "name": "merkleProof",
              "type": "bytes32[]"
            }
          ],
          "internalType": "struct PoraMine.PoraAnswer",
          "name": "answer",
          "type": "tuple"
        }
      ],
      "name": "pora",
      "outputs": [
        {
          "internalType": "bytes32",
          "name": "",
          "type": "bytes32"
        }
      ],
      "stateMutability": "view",
      "type": "function"
    },
    {
      "inputs": [
        {
          "components": [
            {
              "internalType": "bytes32",
              "name": "contextDigest",
              "type": "bytes32"
            },
            {
              "internalType": "bytes32",
              "name": "nonce",
              "type": "bytes32"
            },
            {
              "internalType": "bytes32",
              "name": "minerId",
              "type": "bytes32"
            },
            {
              "internalType": "uint256",
              "name": "startPosition",
              "type": "uint256"
            },
            {
              "internalType": "uint256",
              "name": "mineLength",
              "type": "uint256"
            },
            {
              "internalType": "uint256",
              "name": "recallPosition",
              "type": "uint256"
            },
            {
              "internalType": "uint256",
              "name": "sealOffset",
              "type": "uint256"
            },
            {
              "internalType": "bytes32",
              "name": "sealedContextDigest",
              "type": "bytes32"
            },
            {
              "internalType": "bytes32[128]",
              "name": "sealedData",
              "type": "bytes32[128]"
            },
            {
              "internalType": "bytes32[]",
              "name": "merkleProof",
              "type": "bytes32[]"
            }
          ],
          "internalType": "struct PoraMine.PoraAnswer",
          "name": "answer",
          "type": "tuple"
        },
        {
          "internalType": "bytes32[128]",
          "name": "unsealedData",
          "type": "bytes32[128]"
        }
      ],
      "name": "recoverMerkleRoot",
      "outputs": [
        {
          "internalType": "bytes32",
          "name": "",
          "type": "bytes32"
        }
      ],
      "stateMutability": "pure",
      "type": "function"
    },
    {
      "inputs": [
        {
          "internalType": "address",
          "name": "beneficiary",
          "type": "address"
        },
        {
          "internalType": "uint64",
          "name": "seed",
          "type": "uint64"
        }
      ],
      "name": "requestMinerId",
      "outputs": [],
      "stateMutability": "nonpayable",
      "type": "function"
    },
    {
      "inputs": [],
      "name": "sealDataEnabled",
      "outputs": [
        {
          "internalType": "bool",
          "name": "",
          "type": "bool"
        }
      ],
      "stateMutability": "view",
      "type": "function"
    },
    {
      "inputs": [
        {
          "components": [
            {
              "internalType": "bytes32",
              "name": "contextDigest",
              "type": "bytes32"
            },
            {
              "internalType": "bytes32",
              "name": "nonce",
              "type": "bytes32"
            },
            {
              "internalType": "bytes32",
              "name": "minerId",
              "type": "bytes32"
            },
            {
              "internalType": "uint256",
              "name": "startPosition",
              "type": "uint256"
            },
            {
              "internalType": "uint256",
              "name": "mineLength",
              "type": "uint256"
            },
            {
              "internalType": "uint256",
              "name": "recallPosition",
              "type": "uint256"
            },
            {
              "internalType": "uint256",
              "name": "sealOffset",
              "type": "uint256"
            },
            {
              "internalType": "bytes32",
              "name": "sealedContextDigest",
              "type": "bytes32"
            },
            {
              "internalType": "bytes32[128]",
              "name": "sealedData",
              "type": "bytes32[128]"
            },
            {
              "internalType": "bytes32[]",
              "name": "merkleProof",
              "type": "bytes32[]"
            }
          ],
          "internalType": "struct PoraMine.PoraAnswer",
          "name": "answer",
          "type": "tuple"
        }
      ],
      "name": "submit",
      "outputs": [],
      "stateMutability": "nonpayable",
      "type": "function"
    },
    {
      "inputs": [],
      "name": "targetQuality",
      "outputs": [
        {
          "internalType": "uint256",
          "name": "",
          "type": "uint256"
        }
      ],
      "stateMutability": "view",
      "type": "function"
    },
    {
      "inputs": [
        {
          "internalType": "address",
          "name": "to",
          "type": "address"
        },
        {
          "internalType": "bytes32",
          "name": "minerId",
          "type": "bytes32"
        }
      ],
      "name": "transferBeneficial",
      "outputs": [],
      "stateMutability": "nonpayable",
      "type": "function"
    },
    {
      "inputs": [
        {
          "components": [
            {
              "internalType": "bytes32",
              "name": "contextDigest",
              "type": "bytes32"
            },
            {
              "internalType": "bytes32",
              "name": "nonce",
              "type": "bytes32"
            },
            {
              "internalType": "bytes32",
              "name": "minerId",
              "type": "bytes32"
            },
            {
              "internalType": "uint256",
              "name": "startPosition",
              "type": "uint256"
            },
            {
              "internalType": "uint256",
              "name": "mineLength",
              "type": "uint256"
            },
            {
              "internalType": "uint256",
              "name": "recallPosition",
              "type": "uint256"
            },
            {
              "internalType": "uint256",
              "name": "sealOffset",
              "type": "uint256"
            },
            {
              "internalType": "bytes32",
              "name": "sealedContextDigest",
              "type": "bytes32"
            },
            {
              "internalType": "bytes32[128]",
              "name": "sealedData",
              "type": "bytes32[128]"
            },
            {
              "internalType": "bytes32[]",
              "name": "merkleProof",
              "type": "bytes32[]"
            }
          ],
          "internalType": "struct PoraMine.PoraAnswer",
          "name": "answer",
          "type": "tuple"
        }
      ],
      "name": "unseal",
      "outputs": [
        {
          "internalType": "bytes32[128]",
          "name": "unsealedData",
          "type": "bytes32[128]"
        }
      ],
      "stateMutability": "pure",
      "type": "function"
    }
  ],
  "bytecode": "0x61010060405260006001553480156200001757600080fd5b506040516200252a3803806200252a8339810160408190526200003a916200009a565b61012c6200004b84600019620000e7565b620000579190620000e7565b60029081556000839055600182161560805281161560a0526004811615801560c05262000085576000196002555b5050506001600160a01b031660e0526200010a565b60008060008060808587031215620000b157600080fd5b84516001600160a01b0381168114620000c957600080fd5b60208601516040870151606090970151919890975090945092505050565b6000826200010557634e487b7160e01b600052601260045260246000fd5b500490565b60805160a05160c05160e0516123bc6200016e600039600081816101140152818161047b0152818161083f0152610ce501526000818161027401526108110152600081816101f0015261071e01526000818161022701526106e001526123bc6000f3fe608060405234801561001057600080fd5b50600436106100f55760003560e01c80636c39785011610097578063b0628ee011610066578063b0628ee014610249578063e058455d1461025c578063e0ba72801461026f578063fe65947f1461029657600080fd5b80636c397850146101cf57806382532afd146101d857806382975fe7146101eb578063adaa7a0f1461022257600080fd5b806339cd53ee116100d357806339cd53ee1461016a5780633e97c5101461019357806359b4a3f3146101a6578063609a3280146101af57600080fd5b8063047c13f5146100fa57806305a8da721461010f57806331223ba714610153575b600080fd5b61010d610108366004611da9565b6102a9565b005b6101367f000000000000000000000000000000000000000000000000000000000000000081565b6040516001600160a01b0390911681526020015b60405180910390f35b61015c60015481565b60405190815260200161014a565b610136610178366004611def565b6003602052600090815260409020546001600160a01b031681565b61010d6101a1366004612022565b6103c5565b61015c60005481565b6101c26101bd366004612022565b61097e565b60405161014a919061205f565b61015c60025481565b61010d6101e6366004612091565b610a8e565b6102127f000000000000000000000000000000000000000000000000000000000000000081565b604051901515815260200161014a565b6102127f000000000000000000000000000000000000000000000000000000000000000081565b61010d61025736600461212a565b610e82565b61015c61026a366004612156565b610f42565b6102127f000000000000000000000000000000000000000000000000000000000000000081565b61015c6102a4366004612022565b6111b7565b60006102b66001436121bc565b60408051914060208301526bffffffffffffffffffffffff193360601b16908201526001600160c01b031960c084901b166054820152605c0160408051601f198184030181529181528151602092830120600081815260039093529120549091506001600160a01b03161561036b5760405162461bcd60e51b8152602060048201526016602482015275135a5b995c9259081a185cc81c9959da5cdd195c995960521b60448201526064015b60405180910390fd5b60008181526003602052604080822080546001600160a01b0319166001600160a01b0387169081179091559051909183917fbfeb006f16aca8eb3d9953cf44db6b11b6f3041a313875dfa18f2e9d71bd309e9190a3505050565b604081015161040f5760405162461bcd60e51b81526020600482015260166024820152754d696e657249642063616e6e6f74206265207a65726f60501b6044820152606401610362565b6040808201516000908152600360205220546001600160a01b0316806104775760405162461bcd60e51b815260206004820152601b60248201527f4d696e6572496420646f6573206e6f74207265676973746572656400000000006044820152606401610362565b60007f00000000000000000000000000000000000000000000000000000000000000006001600160a01b031663343aad826040518163ffffffff1660e01b8152600401602060405180830381865afa1580156104d7573d6000803e3d6000fd5b505050506040513d601f19601f820116820180604052508101906104fb91906121cf565b9050806001600160a01b03166338d45e106040518163ffffffff1660e01b8152600401600060405180830381600087803b15801561053857600080fd5b505af115801561054c573d6000803e3d6000fd5b505050506000816001600160a01b031663127f0f076040518163ffffffff1660e01b815260040160c060405180830381865afa158015610590573d6000803e3d6000fd5b505050506040513d601f19601f820116820180604052508101906105b491906121ec565b845160a08201519192501461060b5760405162461bcd60e51b815260206004820152601a60248201527f496e636f6e73697374656e74206d696e696e67206469676573740000000000006044820152606401610362565b7fc5d2460186f7233c927e7db2dcc703c0e500b653ca82273b7bfad8045d85a4708160a001510361067e5760405162461bcd60e51b815260206004820152601960248201527f456d707479206469676573742063616e206e6f74206d696e65000000000000006044820152606401610362565b6001548151116106c75760405162461bcd60e51b8152602060048201526014602482015273115c1bd8da081a185cc81899595b881b5a5b995960621b6044820152606401610362565b80516001556106d68482610a8e565b6106de611d54565b7f0000000000000000000000000000000000000000000000000000000000000000156107145761070d8561097e565b905061071c565b506101008401515b7f0000000000000000000000000000000000000000000000000000000000000000156107a557600061074e8683610f42565b9050826040015181146107a35760405162461bcd60e51b815260206004820152601860248201527f496e636f6e73697374656e74206d65726b6c6520726f6f7400000000000000006044820152606401610362565b505b6107ad611d54565b905060006107ba866111b7565b60025490915081111561080f5760405162461bcd60e51b815260206004820152601b60248201527f446f206e6f7420726561636820746172676574207175616c69747900000000006044820152606401610362565b7f000000000000000000000000000000000000000000000000000000000000000061083d5761083d8361186e565b7f00000000000000000000000000000000000000000000000000000000000000006001600160a01b031663228cb7336040518163ffffffff1660e01b8152600401602060405180830381865afa15801561089b573d6000803e3d6000fd5b505050506040513d601f19601f820116820180604052508101906108bf91906121cf565b6001600160a01b031663b7a3c04c6101006108dc61040080612266565b6108e890610400612266565b6108f3906008612266565b6108fd919061229b565b8860a0015161090c919061229b565b6040808a015190516001600160e01b031960e085901b16815260048101929092526001600160a01b03891660248301526044820152606401600060405180830381600087803b15801561095e57600080fd5b505af1158015610972573d6000803e3d6000fd5b50505050505050505050565b610986611d54565b60408281015160e084015160a08501518351602081019390935292820152606081019190915260800160408051808303601f1901815291905280516020909101206101008301515118815260015b60206109e36104006004612266565b6109ed919061229b565b811015610a8857610100830151610a056001836121bc565b60808110610a1557610a156122af565b6020020151604051602001610a2c91815260200190565b604051602081830303815290604052805190602001208361010001518260808110610a5957610a596122af565b602002015118828260808110610a7157610a716122af565b6020020152610a816001826122c5565b90506109d4565b50919050565b6000610100610a9f61040082612266565b610aa9919061229b565b610100610ab861040082612266565b610ac2919061229b565b8360600151610ad1919061229b565b610adb9190612266565b90508083608001518460600151610af291906122c5565b1115610b385760405162461bcd60e51b81526020600482015260156024820152744d696e696e672072616e6765206f766572666c6f7760581b6044820152606401610362565b610100610b4761040080612266565b610b5390610400612266565b610b5f90610400612266565b610b6a906008612266565b610b74919061229b565b83608001511115610bbf5760405162461bcd60e51b81526020600482015260156024820152744d696e696e672072616e676520746f6f206c6f6e6760581b6044820152606401610362565b610100610bce61040080612266565b610bda90610400612266565b610be5906008612266565b610bef919061229b565b8360600151610bfe91906122d8565b15610c4b5760405162461bcd60e51b815260206004820152601d60248201527f537461727420706f736974696f6e206973206e6f7420616c69676e65640000006044820152606401610362565b6000610c9282610100610c6061040080612266565b610c6c90610400612266565b610c7890610400612266565b610c83906008612266565b610c8d919061229b565b611930565b90508084608001511015610ce15760405162461bcd60e51b8152602060048201526016602482015275135a5b9a5b99c81c985b99d9481d1bdbc81cda1bdc9d60521b6044820152606401610362565b60007f00000000000000000000000000000000000000000000000000000000000000006001600160a01b031663343aad826040518163ffffffff1660e01b8152600401602060405180830381865afa158015610d41573d6000803e3d6000fd5b505050506040513d601f19601f82011682018060405250810190610d6591906121cf565b6001600160a01b0316637d5907088660e001516040518263ffffffff1660e01b8152600401610d9691815260200190565b6040805180830381865afa158015610db2573d6000803e3d6000fd5b505050506040513d601f19601f82011682018060405250810190610dd69190612303565b90506000610100610dea6104006004612266565b610df4919061229b565b8660a00151610e0391906122c5565b90508082600001516001600160801b0316108015610e2e57508082602001516001600160801b031610155b610e7a5760405162461bcd60e51b815260206004820152601d60248201527f496e76616c6964207365616c656420636f6e74657874206469676573740000006044820152606401610362565b505050505050565b6000818152600360205260409020546001600160a01b03163314610ee85760405162461bcd60e51b815260206004820152601b60248201527f53656e64657220646f6573206e6f74206f776e206d696e6572496400000000006044820152606401610362565b60008181526003602052604080822080546001600160a01b0319166001600160a01b03861690811790915590519091339184917f9a26a8e7fd42c501b452c02016def8048e3ea28c2bf15127a9b5e2029d989bf191a45050565b6000805b6020610f556104006004612266565b610f5f919061229b565b811015610fad576101006020820284012080848360808110610f8357610f836122af565b602002018181525050506020610100610f9c919061229b565b610fa690826122c5565b9050610f46565b506000610fbd602061010061229b565b90505b6020610fcf6104006004612266565b610fd9919061229b565b8110156110ac5760005b6020610ff26104006004612266565b610ffc919061229b565b8110156110a3576000848260808110611017576110176122af565b6020020151905060008561102b85856122c5565b6080811061103b5761103b6122af565b60200201519050818160405160200161105e929190918252602082015260400190565b60405160208183030381529060405280519060200120868460808110611086576110866122af565b60200201525061109c9050600183901b826122c5565b9050610fe3565b5060011b610fc0565b5081516110b7611d54565b925060006101006110cb6104006004612266565b6110d5919061229b565b8560a001516110e4919061229b565b905060005b856101200151518110156111ab576000806111056002856122d8565b600003611135578491508761012001518381518110611126576111266122af565b6020026020010151905061115a565b876101200151838151811061114c5761114c6122af565b602002602001015191508490505b6040805160208101849052908101829052606001604051602081830303815290604052805190602001209450600284611193919061229b565b935050506001816111a491906122c5565b90506110e9565b50909150505b92915050565b604081015160009061120b5760405162461bcd60e51b815260206004820152601860248201527f4d696e65722049442063616e6e6f7420626520656d70747900000000000000006044820152606401610362565b6040805160a081018252838201518152602080850151908201528351918101919091526060808401519082015260808084015190820152600061124d82611948565b9050600061125e6104006040612266565b61126c610400610100612266565b611276919061229b565b6112836104006004612266565b611291610400610100612266565b61129b919061229b565b6112a5919061229b565b8560c001516112b491906122d8565b90506112be611d54565b60005b8281101561131c5760005b60406112db6104006004612266565b6112e5919061229b565b811015611309576112f5856119db565b94506113026001826122c5565b90506112cc565b506113156001826122c5565b90506112c1565b5060005b602061132f6104006004612266565b611339919061229b565b8110156113e357611349846119db565b93508661010001518160808110611362576113626122af565b602002015184511882826080811061137c5761137c6122af565b60200201526101008701516113928260016122c5565b608081106113a2576113a26122af565b6020020151846001602002015118826113bc8360016122c5565b608081106113cc576113cc6122af565b60200201526113dc6002826122c5565b9050611320565b5060006113f18360016122c5565b90505b6114016104006040612266565b61140f610400610100612266565b611419919061229b565b6114266104006004612266565b611434610400610100612266565b61143e919061229b565b611448919061229b565b8110156114a25760005b60406114616104006004612266565b61146b919061229b565b81101561148f5761147b856119db565b94506114886001826122c5565b9050611452565b5061149b6001826122c5565b90506113f4565b5060006101006114b461040082612266565b6114be919061229b565b87608001516114cd919061229b565b846040516020016114de919061235e565b6040516020818303038152906040528051906020012060001c61150191906122d8565b90506101006115136104006004612266565b61151d919061229b565b8760c0015161152c9190612266565b61010061153b61040082612266565b611545919061229b565b61154f9083612266565b886060015161155e91906122c5565b61156891906122c5565b8760a00151146115ba5760405162461bcd60e51b815260206004820152601960248201527f496e636f727265637420726563616c6c20706f736974696f6e000000000000006044820152606401610362565b6115c2611d73565b7f48c9bdf267e6096a3ba7ca8485ae67bb2bf894fe72f36e3cf1361d5f3af54fa581527fd182e6ad7f520e511f6c3e2b8c68059b6bbd41fbabd9831f79217e1319cde05b60208083019190915260c089015160408a0151918a01518a5161163193859392909160806000611a44565b606089015160808a01519192506116519183919060008061010081611a44565b905060005b6004602061166661040083612266565b611670919061229b565b61167a91906121bc565b811015611728576101006020600483010201611712838684608081106116a2576116a26122af565b6020020151876116b38660016122c5565b608081106116c3576116c36122af565b6020020151886116d48760026122c5565b608081106116e4576116e46122af565b6020020151896116f58860036122c5565b60808110611705576117056122af565b6020020151866000611a44565b925061172190506004826122c5565b9050611656565b5061185781846004602061173e61040083612266565b611748919061229b565b61175291906121bc565b60808110611762576117626122af565b60200201518560036020610400600461177b9190612266565b611785919061229b565b61178f91906121bc565b6080811061179f5761179f6122af565b6020020151866002602061040060046117b89190612266565b6117c2919061229b565b6117cc91906121bc565b608081106117dc576117dc6122af565b6020020151876001602061040060046117f59190612266565b6117ff919061229b565b61180991906121bc565b60808110611819576118196122af565b60200201516020610400600461182f9190612266565b611839919061229b565b611844906020612266565b611850906101006122c5565b6001611a44565b9050611861611d54565b5051979650505050505050565b600081602001514361188091906121bc565b60025490915060101c600061189782846064611b03565b90506014600081836118aa6001836121bc565b6118b49087612266565b6118be91906122c5565b6118c8919061229b565b90506118d5846002612266565b8111156118ea576118e7846002612266565b90505b6118f560028561229b565b81101561190a5761190760028561229b565b90505b6001600160f01b0381111561192357506001600160f01b035b60101b6002555050505050565b600081831061193f5781611941565b825b9392505050565b611950611d73565b7f48c9bdf267e6096a3ba7ca8485ae67bb2bf894fe72f36e3cf1361d5f3af54fa581527fd182e6ad7f520e511f6c3e2b8c68059b6bbd41fbabd9831f79217e1319cde05b602080830191909152825190830151604084015160608501516119c09385939092909160806000611a44565b90506111b18183600460200201516000808060a06001611a44565b6119e3611d73565b7f48c9bdf267e6096a3ba7ca8485ae67bb2bf894fe72f36e3cf1361d5f3af54fa581527fd182e6ad7f520e511f6c3e2b8c68059b6bbd41fbabd9831f79217e1319cde05b6020808301919091528251908301516111b1918391600080604060015b611a4c611d73565b600c6000611a5985611bb1565b8a516020808d0151835184830151604080516001600160e01b031960e08b901b168187015260248101969096526044860193909352606485018f9052608485018e905260a485018d905260c485018c90526001600160c01b031991821660e48601521660ec84015287151560f81b60f4840152805160d58185038101825260f5909401825293945091869184016009600019fa611af557600080fd5b505050979650505050505050565b6000808060001985870985870292508281108382030391505080600003611b3d57838281611b3357611b33612285565b0492505050611941565b808411611b4957600080fd5b600084868809600260036001881981018916988990049182028318808302840302808302840302808302840302808302840302808302840302918202909203026000889003889004909101858311909403939093029303949094049190911702949350505050565b611bb9611d73565b62010000821015611bfd57600882811c66ffffffffffffff169083901b67ffffffffffffff00161760f01b5b6001600160c01b031916815260006020820152919050565b640100000000821015611c3d57600882811b63ff00ff001662ff00ff9184901c9190911617601081811b91901c1760e01b6001600160e01b031916611be5565b68010000000000000000821015611c5757611be582611cee565b600160801b821015611ca85767ffffffffffffffff8216604083901c611c7c82611cee565b6001600160c01b0319168352611c9181611cee565b6001600160c01b031916602084015250611ce99050565b60405162461bcd60e51b8152602060048201526016602482015275626c616b65326220696e70757420746f6f206c6f6e6760501b6044820152606401610362565b919050565b65ff000000ff00600882811b91821664ff000000ff9390911c92831617601090811b67ff000000ff0000009290921666ff000000ff0000939093169290921790911c17602081811b6bffffffffffffffff000000001691901c63ffffffff161760c01b90565b6040518061100001604052806080906020820280368337509192915050565b60405180604001604052806002906020820280368337509192915050565b6001600160a01b0381168114611da657600080fd5b50565b60008060408385031215611dbc57600080fd5b8235611dc781611d91565b9150602083013567ffffffffffffffff81168114611de457600080fd5b809150509250929050565b600060208284031215611e0157600080fd5b5035919050565b634e487b7160e01b600052604160045260246000fd5b604051610140810167ffffffffffffffff81118282101715611e4257611e42611e08565b60405290565b60405160c0810167ffffffffffffffff81118282101715611e4257611e42611e08565b600082601f830112611e7c57600080fd5b60405161100080820182811067ffffffffffffffff82111715611ea157611ea1611e08565b60405283018185821115611eb457600080fd5b845b82811015611ece578035825260209182019101611eb6565b509195945050505050565b600082601f830112611eea57600080fd5b8135602067ffffffffffffffff80831115611f0757611f07611e08565b8260051b604051601f19603f83011681018181108482111715611f2c57611f2c611e08565b604052938452858101830193838101925087851115611f4a57600080fd5b83870191505b84821015611f6957813583529183019190830190611f50565b979650505050505050565b60006111208284031215611f8757600080fd5b611f8f611e1e565b9050813581526020820135602082015260408201356040820152606082013560608201526080820135608082015260a082013560a082015260c082013560c082015260e082013560e0820152610100611fea84828501611e6b565b9082015261110082013567ffffffffffffffff81111561200957600080fd5b61201584828501611ed9565b6101208301525092915050565b60006020828403121561203457600080fd5b813567ffffffffffffffff81111561204b57600080fd5b61205784828501611f74565b949350505050565b6110008101818360005b6080811015612088578151835260209283019290910190600101612069565b50505092915050565b60008082840360e08112156120a557600080fd5b833567ffffffffffffffff8111156120bc57600080fd5b6120c886828701611f74565b93505060c0601f19820112156120dd57600080fd5b506120e6611e48565b6020840135815260408401356020820152606084013560408201526080840135606082015260a0840135608082015260c084013560a0820152809150509250929050565b6000806040838503121561213d57600080fd5b823561214881611d91565b946020939093013593505050565b600080611020838503121561216a57600080fd5b823567ffffffffffffffff81111561218157600080fd5b61218d85828601611f74565b92505061219d8460208501611e6b565b90509250929050565b634e487b7160e01b600052601160045260246000fd5b818103818111156111b1576111b16121a6565b6000602082840312156121e157600080fd5b815161194181611d91565b600060c082840312156121fe57600080fd5b60405160c0810181811067ffffffffffffffff8211171561222157612221611e08565b8060405250825181526020830151602082015260408301516040820152606083015160608201526080830151608082015260a083015160a08201528091505092915050565b6000816000190483118215151615612280576122806121a6565b500290565b634e487b7160e01b600052601260045260246000fd5b6000826122aa576122aa612285565b500490565b634e487b7160e01b600052603260045260246000fd5b808201808211156111b1576111b16121a6565b6000826122e7576122e7612285565b500690565b80516001600160801b0381168114611ce957600080fd5b60006040828403121561231557600080fd5b6040516040810181811067ffffffffffffffff8211171561233857612338611e08565b604052612344836122ec565b8152612352602084016122ec565b60208201529392505050565b60408101818360005b600281101561208857815183526020928301929091019060010161236756fea264697066735822122080941b0929f7480f2ef361056fbb6dcd76255a7a261dc1d1c1a6e5a5b84fbe9c64736f6c63430008100033",
  "linkReferences": {},
  "deployedLinkReferences": {}
}