{
  "_format": "hh-sol-artifact-1",
  "contractName": "PoraMine",
  "sourceName": "contracts/miner/Mine.sol",
  "abi": [
    {
      "inputs": [
        {
          "internalType": "uint256",
          "name": "settings",
          "type": "uint256"
        }
      ],
      "stateMutability": "nonpayable",
      "type": "constructor"
    },
    {
      "anonymous": false,
      "inputs": [
        {
          "indexed": true,
          "internalType": "bytes32",
          "name": "minerId",
          "type": "bytes32"
        },
        {
          "indexed": true,
          "internalType": "address",
          "name": "beneficiary",
          "type": "address"
        }
      ],
      "name": "NewMinerId",
      "type": "event"
    },
    {
      "anonymous": false,
      "inputs": [
        {
          "indexed": true,
          "internalType": "uint256",
          "name": "epoch",
          "type": "uint256"
        },
        {
          "indexed": true,
          "internalType": "bytes32",
          "name": "minerId",
          "type": "bytes32"
        },
        {
          "indexed": false,
          "internalType": "uint256",
          "name": "epochIndex",
          "type": "uint256"
        },
        {
          "indexed": false,
          "internalType": "uint256",
          "name": "recallPosition",
          "type": "uint256"
        }
      ],
      "name": "NewSubmission",
      "type": "event"
    },
    {
      "anonymous": false,
      "inputs": [
        {
          "indexed": true,
          "internalType": "bytes32",
          "name": "role",
          "type": "bytes32"
        },
        {
          "indexed": true,
          "internalType": "bytes32",
          "name": "previousAdminRole",
          "type": "bytes32"
        },
        {
          "indexed": true,
          "internalType": "bytes32",
          "name": "newAdminRole",
          "type": "bytes32"
        }
      ],
      "name": "RoleAdminChanged",
      "type": "event"
    },
    {
      "anonymous": false,
      "inputs": [
        {
          "indexed": true,
          "internalType": "bytes32",
          "name": "role",
          "type": "bytes32"
        },
        {
          "indexed": true,
          "internalType": "address",
          "name": "account",
          "type": "address"
        },
        {
          "indexed": true,
          "internalType": "address",
          "name": "sender",
          "type": "address"
        }
      ],
      "name": "RoleGranted",
      "type": "event"
    },
    {
      "anonymous": false,
      "inputs": [
        {
          "indexed": true,
          "internalType": "bytes32",
          "name": "role",
          "type": "bytes32"
        },
        {
          "indexed": true,
          "internalType": "address",
          "name": "account",
          "type": "address"
        },
        {
          "indexed": true,
          "internalType": "address",
          "name": "sender",
          "type": "address"
        }
      ],
      "name": "RoleRevoked",
      "type": "event"
    },
    {
      "anonymous": false,
      "inputs": [
        {
          "indexed": true,
          "internalType": "bytes32",
          "name": "minerId",
          "type": "bytes32"
        },
        {
          "indexed": true,
          "internalType": "address",
          "name": "from",
          "type": "address"
        },
        {
          "indexed": true,
          "internalType": "address",
          "name": "to",
          "type": "address"
        }
      ],
      "name": "UpdateMinerId",
      "type": "event"
    },
    {
      "inputs": [],
      "name": "DEFAULT_ADMIN_ROLE",
      "outputs": [
        {
          "internalType": "bytes32",
          "name": "",
          "type": "bytes32"
        }
      ],
      "stateMutability": "view",
      "type": "function"
    },
    {
      "inputs": [],
      "name": "PARAMS_ADMIN_ROLE",
      "outputs": [
        {
          "internalType": "bytes32",
          "name": "",
          "type": "bytes32"
        }
      ],
      "stateMutability": "view",
      "type": "function"
    },
    {
      "inputs": [
        {
          "components": [
            {
              "internalType": "bytes32",
              "name": "contextDigest",
              "type": "bytes32"
            },
            {
              "internalType": "bytes32",
              "name": "nonce",
              "type": "bytes32"
            },
            {
              "internalType": "bytes32",
              "name": "minerId",
              "type": "bytes32"
            },
            {
              "components": [
                {
                  "internalType": "uint256",
                  "name": "startPosition",
                  "type": "uint256"
                },
                {
                  "internalType": "uint256",
                  "name": "mineLength",
                  "type": "uint256"
                },
                {
                  "internalType": "uint64",
                  "name": "shardId",
                  "type": "uint64"
                },
                {
                  "internalType": "uint64",
                  "name": "shardMask",
                  "type": "uint64"
                }
              ],
              "internalType": "struct RecallRange",
              "name": "range",
              "type": "tuple"
            },
            {
              "internalType": "uint256",
              "name": "recallPosition",
              "type": "uint256"
            },
            {
              "internalType": "uint256",
              "name": "sealOffset",
              "type": "uint256"
            },
            {
              "internalType": "bytes32",
              "name": "sealedContextDigest",
              "type": "bytes32"
            },
            {
              "internalType": "bytes32[128]",
              "name": "sealedData",
              "type": "bytes32[128]"
            },
            {
              "internalType": "bytes32[]",
              "name": "merkleProof",
              "type": "bytes32[]"
            }
          ],
          "internalType": "struct MineLib.PoraAnswer",
          "name": "answer",
          "type": "tuple"
        },
        {
          "components": [
            {
              "internalType": "uint256",
              "name": "epoch",
              "type": "uint256"
            },
            {
              "internalType": "uint256",
              "name": "mineStart",
              "type": "uint256"
            },
            {
              "internalType": "bytes32",
              "name": "flowRoot",
              "type": "bytes32"
            },
            {
              "internalType": "uint256",
              "name": "flowLength",
              "type": "uint256"
            },
            {
              "internalType": "bytes32",
              "name": "blockDigest",
              "type": "bytes32"
            },
            {
              "internalType": "bytes32",
              "name": "digest",
              "type": "bytes32"
            }
          ],
          "internalType": "struct MineContext",
          "name": "context",
          "type": "tuple"
        }
      ],
      "name": "basicCheck",
      "outputs": [],
      "stateMutability": "view",
      "type": "function"
    },
    {
      "inputs": [
        {
          "internalType": "bytes32",
          "name": "",
          "type": "bytes32"
        }
      ],
      "name": "beneficiaries",
      "outputs": [
        {
          "internalType": "address",
          "name": "",
          "type": "address"
        }
      ],
      "stateMutability": "view",
      "type": "function"
    },
    {
      "inputs": [],
      "name": "canSubmit",
      "outputs": [
        {
          "internalType": "bool",
          "name": "",
          "type": "bool"
        }
      ],
      "stateMutability": "nonpayable",
      "type": "function"
    },
    {
      "inputs": [],
      "name": "currentSubmissions",
      "outputs": [
        {
          "internalType": "uint256",
          "name": "",
          "type": "uint256"
        }
      ],
      "stateMutability": "view",
      "type": "function"
    },
    {
      "inputs": [],
      "name": "dataProofEnabled",
      "outputs": [
        {
          "internalType": "bool",
          "name": "",
          "type": "bool"
        }
      ],
      "stateMutability": "view",
      "type": "function"
    },
    {
      "inputs": [],
      "name": "difficultyAdjustRatio",
      "outputs": [
        {
          "internalType": "uint256",
          "name": "",
          "type": "uint256"
        }
      ],
      "stateMutability": "view",
      "type": "function"
    },
    {
      "inputs": [],
      "name": "fixedDifficulty",
      "outputs": [
        {
          "internalType": "bool",
          "name": "",
          "type": "bool"
        }
      ],
      "stateMutability": "view",
      "type": "function"
    },
    {
      "inputs": [],
      "name": "flow",
      "outputs": [
        {
          "internalType": "address",
          "name": "",
          "type": "address"
        }
      ],
      "stateMutability": "view",
      "type": "function"
    },
    {
      "inputs": [
        {
          "internalType": "bytes32",
          "name": "role",
          "type": "bytes32"
        }
      ],
      "name": "getRoleAdmin",
      "outputs": [
        {
          "internalType": "bytes32",
          "name": "",
          "type": "bytes32"
        }
      ],
      "stateMutability": "view",
      "type": "function"
    },
    {
      "inputs": [
        {
          "internalType": "bytes32",
          "name": "role",
          "type": "bytes32"
        },
        {
          "internalType": "uint256",
          "name": "index",
          "type": "uint256"
        }
      ],
      "name": "getRoleMember",
      "outputs": [
        {
          "internalType": "address",
          "name": "",
          "type": "address"
        }
      ],
      "stateMutability": "view",
      "type": "function"
    },
    {
      "inputs": [
        {
          "internalType": "bytes32",
          "name": "role",
          "type": "bytes32"
        }
      ],
      "name": "getRoleMemberCount",
      "outputs": [
        {
          "internalType": "uint256",
          "name": "",
          "type": "uint256"
        }
      ],
      "stateMutability": "view",
      "type": "function"
    },
    {
      "inputs": [
        {
          "internalType": "bytes32",
          "name": "role",
          "type": "bytes32"
        },
        {
          "internalType": "address",
          "name": "account",
          "type": "address"
        }
      ],
      "name": "grantRole",
      "outputs": [],
      "stateMutability": "nonpayable",
      "type": "function"
    },
    {
      "inputs": [
        {
          "internalType": "bytes32",
          "name": "role",
          "type": "bytes32"
        },
        {
          "internalType": "address",
          "name": "account",
          "type": "address"
        }
      ],
      "name": "hasRole",
      "outputs": [
        {
          "internalType": "bool",
          "name": "",
          "type": "bool"
        }
      ],
      "stateMutability": "view",
      "type": "function"
    },
    {
      "inputs": [
        {
          "internalType": "uint256",
          "name": "difficulty",
          "type": "uint256"
        },
        {
          "internalType": "address",
          "name": "flow_",
          "type": "address"
        },
        {
          "internalType": "address",
          "name": "reward_",
          "type": "address"
        }
      ],
      "name": "initialize",
      "outputs": [],
      "stateMutability": "nonpayable",
      "type": "function"
    },
    {
      "inputs": [],
      "name": "initialized",
      "outputs": [
        {
          "internalType": "bool",
          "name": "",
          "type": "bool"
        }
      ],
      "stateMutability": "view",
      "type": "function"
    },
    {
      "inputs": [],
      "name": "lastMinedEpoch",
      "outputs": [
        {
          "internalType": "uint256",
          "name": "",
          "type": "uint256"
        }
      ],
      "stateMutability": "view",
      "type": "function"
    },
    {
      "inputs": [
        {
          "components": [
            {
              "internalType": "bytes32",
              "name": "contextDigest",
              "type": "bytes32"
            },
            {
              "internalType": "bytes32",
              "name": "nonce",
              "type": "bytes32"
            },
            {
              "internalType": "bytes32",
              "name": "minerId",
              "type": "bytes32"
            },
            {
              "components": [
                {
                  "internalType": "uint256",
                  "name": "startPosition",
                  "type": "uint256"
                },
                {
                  "internalType": "uint256",
                  "name": "mineLength",
                  "type": "uint256"
                },
                {
                  "internalType": "uint64",
                  "name": "shardId",
                  "type": "uint64"
                },
                {
                  "internalType": "uint64",
                  "name": "shardMask",
                  "type": "uint64"
                }
              ],
              "internalType": "struct RecallRange",
              "name": "range",
              "type": "tuple"
            },
            {
              "internalType": "uint256",
              "name": "recallPosition",
              "type": "uint256"
            },
            {
              "internalType": "uint256",
              "name": "sealOffset",
              "type": "uint256"
            },
            {
              "internalType": "bytes32",
              "name": "sealedContextDigest",
              "type": "bytes32"
            },
            {
              "internalType": "bytes32[128]",
              "name": "sealedData",
              "type": "bytes32[128]"
            },
            {
              "internalType": "bytes32[]",
              "name": "merkleProof",
              "type": "bytes32[]"
            }
          ],
          "internalType": "struct MineLib.PoraAnswer",
          "name": "answer",
          "type": "tuple"
        }
      ],
      "name": "pora",
      "outputs": [
        {
          "internalType": "bytes32",
          "name": "",
          "type": "bytes32"
        }
      ],
      "stateMutability": "view",
      "type": "function"
    },
    {
      "inputs": [],
      "name": "poraTarget",
      "outputs": [
        {
          "internalType": "uint256",
          "name": "",
          "type": "uint256"
        }
      ],
      "stateMutability": "view",
      "type": "function"
    },
    {
      "inputs": [
        {
          "internalType": "bytes32",
          "name": "role",
          "type": "bytes32"
        },
        {
          "internalType": "address",
          "name": "account",
          "type": "address"
        }
      ],
      "name": "renounceRole",
      "outputs": [],
      "stateMutability": "nonpayable",
      "type": "function"
    },
    {
      "inputs": [
        {
          "internalType": "address",
          "name": "beneficiary",
          "type": "address"
        },
        {
          "internalType": "uint64",
          "name": "seed",
          "type": "uint64"
        }
      ],
      "name": "requestMinerId",
      "outputs": [],
      "stateMutability": "nonpayable",
      "type": "function"
    },
    {
      "inputs": [
        {
          "internalType": "bytes32",
          "name": "role",
          "type": "bytes32"
        },
        {
          "internalType": "address",
          "name": "account",
          "type": "address"
        }
      ],
      "name": "revokeRole",
      "outputs": [],
      "stateMutability": "nonpayable",
      "type": "function"
    },
    {
      "inputs": [],
      "name": "reward",
      "outputs": [
        {
          "internalType": "address",
          "name": "",
          "type": "address"
        }
      ],
      "stateMutability": "view",
      "type": "function"
    },
    {
      "inputs": [],
      "name": "sealDataEnabled",
      "outputs": [
        {
          "internalType": "bool",
          "name": "",
          "type": "bool"
        }
      ],
      "stateMutability": "view",
      "type": "function"
    },
    {
      "inputs": [
        {
          "internalType": "uint256",
          "name": "difficultyAdjustRatio_",
          "type": "uint256"
        }
      ],
      "name": "setDifficultyAdjustRatio",
      "outputs": [],
      "stateMutability": "nonpayable",
      "type": "function"
    },
    {
      "inputs": [
        {
          "internalType": "uint256",
          "name": "targetMineBlocks_",
          "type": "uint256"
        }
      ],
      "name": "setTargetMineBlocks",
      "outputs": [],
      "stateMutability": "nonpayable",
      "type": "function"
    },
    {
      "inputs": [
        {
          "internalType": "uint256",
          "name": "targetSubmissions_",
          "type": "uint256"
        }
      ],
      "name": "setTargetSubmissions",
      "outputs": [],
      "stateMutability": "nonpayable",
      "type": "function"
    },
    {
      "inputs": [
        {
          "components": [
            {
              "internalType": "bytes32",
              "name": "contextDigest",
              "type": "bytes32"
            },
            {
              "internalType": "bytes32",
              "name": "nonce",
              "type": "bytes32"
            },
            {
              "internalType": "bytes32",
              "name": "minerId",
              "type": "bytes32"
            },
            {
              "components": [
                {
                  "internalType": "uint256",
                  "name": "startPosition",
                  "type": "uint256"
                },
                {
                  "internalType": "uint256",
                  "name": "mineLength",
                  "type": "uint256"
                },
                {
                  "internalType": "uint64",
                  "name": "shardId",
                  "type": "uint64"
                },
                {
                  "internalType": "uint64",
                  "name": "shardMask",
                  "type": "uint64"
                }
              ],
              "internalType": "struct RecallRange",
              "name": "range",
              "type": "tuple"
            },
            {
              "internalType": "uint256",
              "name": "recallPosition",
              "type": "uint256"
            },
            {
              "internalType": "uint256",
              "name": "sealOffset",
              "type": "uint256"
            },
            {
              "internalType": "bytes32",
              "name": "sealedContextDigest",
              "type": "bytes32"
            },
            {
              "internalType": "bytes32[128]",
              "name": "sealedData",
              "type": "bytes32[128]"
            },
            {
              "internalType": "bytes32[]",
              "name": "merkleProof",
              "type": "bytes32[]"
            }
          ],
          "internalType": "struct MineLib.PoraAnswer",
          "name": "answer",
          "type": "tuple"
        }
      ],
      "name": "submit",
      "outputs": [],
      "stateMutability": "nonpayable",
      "type": "function"
    },
    {
      "inputs": [
        {
          "internalType": "bytes4",
          "name": "interfaceId",
          "type": "bytes4"
        }
      ],
      "name": "supportsInterface",
      "outputs": [
        {
          "internalType": "bool",
          "name": "",
          "type": "bool"
        }
      ],
      "stateMutability": "view",
      "type": "function"
    },
    {
      "inputs": [],
      "name": "targetMineBlocks",
      "outputs": [
        {
          "internalType": "uint256",
          "name": "",
          "type": "uint256"
        }
      ],
      "stateMutability": "view",
      "type": "function"
    },
    {
      "inputs": [],
      "name": "targetSubmissions",
      "outputs": [
        {
          "internalType": "uint256",
          "name": "",
          "type": "uint256"
        }
      ],
      "stateMutability": "view",
      "type": "function"
    },
    {
      "inputs": [],
      "name": "targetSubmissionsNextEpoch",
      "outputs": [
        {
          "internalType": "uint256",
          "name": "",
          "type": "uint256"
        }
      ],
      "stateMutability": "view",
      "type": "function"
    },
    {
      "inputs": [
        {
          "internalType": "address",
          "name": "to",
          "type": "address"
        },
        {
          "internalType": "bytes32",
          "name": "minerId",
          "type": "bytes32"
        }
      ],
      "name": "transferBeneficial",
      "outputs": [],
      "stateMutability": "nonpayable",
      "type": "function"
    }
  ],
  "bytecode": "0x60e06040523480156200001157600080fd5b50604051620032eb380380620032eb833981016040819052620000349162000052565b6001811615608052600281161560a052600416151560c0526200006c565b6000602082840312156200006557600080fd5b5051919050565b60805160a05160c051613233620000b86000396000818161038001528181610f2201526112b60152600081816103b00152610c6c01526000818161040e0152610c2f01526132336000f3fe608060405234801561001057600080fd5b50600436106102065760003560e01c80637eca56881161011a578063aed75224116100ad578063b776a5121161007c578063b776a51214610491578063ca15c8731461049a578063d547741f146104ad578063dddc61a8146104c0578063ffbc9bd0146104c957600080fd5b8063aed7522414610443578063b0628ee014610456578063b15d20da14610469578063b4988fd01461047e57600080fd5b8063a217fddf116100e9578063a217fddf146103f8578063a827918214610400578063adaa7a0f14610409578063ae722e821461043057600080fd5b80637eca5688146103a257806382975fe7146103ab5780639010d07c146103d257806391d14854146103e557600080fd5b8063331f3b9c1161019d5780633baebb751161016c5780633baebb751461033957806348f614411461034c5780635bdca85514610355578063704d3c96146103685780637bba7d611461037b57600080fd5b8063331f3b9c146102e1578063343aad82146102ea57806336568abe146102fd57806339cd53ee1461031057600080fd5b8063228cb733116101d9578063228cb73314610268578063248a9ca3146102935780632f2ff15d146102c557806331223ba7146102d857600080fd5b806301ffc9a71461020b578063047c13f514610233578063158ef93e146102485780631600c62414610255575b600080fd5b61021e610219366004612a3b565b6104d1565b60405190151581526020015b60405180910390f35b610246610241366004612a93565b6104fc565b005b60005461021e9060ff1681565b610246610263366004612ac6565b610618565b60045461027b906001600160a01b031681565b6040516001600160a01b03909116815260200161022a565b6102b76102a1366004612ac6565b6000908152600160208190526040909120015490565b60405190815260200161022a565b6102466102d3366004612adf565b610636565b6102b7600a5481565b6102b760065481565b60035461027b906001600160a01b031681565b61024661030b366004612adf565b610661565b61027b61031e366004612ac6565b600d602052600090815260409020546001600160a01b031681565b610246610347366004612d7f565b6106df565b6102b7600c5481565b610246610363366004612ac6565b610976565b610246610376366004612ac6565b6109a3565b61021e7f000000000000000000000000000000000000000000000000000000000000000081565b6102b760085481565b61021e7f000000000000000000000000000000000000000000000000000000000000000081565b61027b6103e0366004612e17565b610a11565b61021e6103f3366004612adf565b610a30565b6102b7600081565b6102b7600b5481565b61021e7f000000000000000000000000000000000000000000000000000000000000000081565b61024661043e366004612e39565b610a5b565b6102b7610451366004612e39565b610f4e565b610246610464366004612e75565b611151565b6102b76000805160206131de83398151915281565b61024661048c366004612e9f565b611211565b6102b760075481565b6102b76104a8366004612ac6565b611324565b6102466104bb366004612adf565b61133b565b6102b760095481565b61021e611361565b60006001600160e01b03198216635a05180f60e01b14806104f657506104f6826113fc565b92915050565b6000610509600143612ef1565b60408051914060208301526bffffffffffffffffffffffff193360601b16908201526001600160c01b031960c084901b166054820152605c0160408051601f1981840301815291815281516020928301206000818152600d9093529120549091506001600160a01b0316156105be5760405162461bcd60e51b8152602060048201526016602482015275135a5b995c9259081a185cc81c9959da5cdd195c995960521b60448201526064015b60405180910390fd5b6000818152600d602052604080822080546001600160a01b0319166001600160a01b0387169081179091559051909183917fbfeb006f16aca8eb3d9953cf44db6b11b6f3041a313875dfa18f2e9d71bd309e9190a3505050565b6000805160206131de83398151915261063081611431565b50600655565b6000828152600160208190526040909120015461065281611431565b61065c838361143e565b505050565b6001600160a01b03811633146106d15760405162461bcd60e51b815260206004820152602f60248201527f416363657373436f6e74726f6c3a2063616e206f6e6c792072656e6f756e636560448201526e103937b632b9903337b91039b2b63360891b60648201526084016105b5565b6106db8282611460565b5050565b815160a0820151146107335760405162461bcd60e51b815260206004820152601a60248201527f496e636f6e73697374656e74206d696e696e672064696765737400000000000060448201526064016105b5565b7fc5d2460186f7233c927e7db2dcc703c0e500b653ca82273b7bfad8045d85a4708160a00151036107a65760405162461bcd60e51b815260206004820152601960248201527f456d707479206469676573742063616e206e6f74206d696e650000000000000060448201526064016105b5565b600754600b54106107f95760405162461bcd60e51b815260206004820152601c60248201527f45706f63682068617320656e6f756768207375626d697373696f6e730000000060448201526064016105b5565b600061010061080a61040082612f04565b6108149190612f39565b61010061082361040082612f04565b61082d9190612f39565b836060015161083c9190612f39565b6108469190612f04565b60608401519091506108589082611482565b60035460c0840151604051630fab20e160e31b815260048101919091526000916001600160a01b031690637d590708906024016040805180830381865afa1580156108a7573d6000803e3d6000fd5b505050506040513d601f19601f820116820180604052508101906108cb9190612f64565b905060006101006108df6104006004612f04565b6108e99190612f39565b85608001516108f89190612fbe565b90508082600001516001600160801b031610801561092357508082602001516001600160801b031610155b61096f5760405162461bcd60e51b815260206004820152601d60248201527f496e76616c6964207365616c656420636f6e746578742064696765737400000060448201526064016105b5565b5050505050565b6000805160206131de83398151915261098e81611431565b6008829055600a546000036106db5750600755565b6000805160206131de8339815191526109bb81611431565b60008211610a0b5760405162461bcd60e51b815260206004820152601d60248201527f41646a75737420726174696f206d757374206265206e6f6e2d7a65726f00000060448201526064016105b5565b50600955565b6000828152600260205260408120610a2990836116c6565b9392505050565b60009182526001602090815260408084206001600160a01b0393909316845291905290205460ff1690565b6040810151610aa55760405162461bcd60e51b81526020600482015260166024820152754d696e657249642063616e6e6f74206265207a65726f60501b60448201526064016105b5565b6040808201516000908152600d60205220546001600160a01b031680610b0d5760405162461bcd60e51b815260206004820152601b60248201527f4d696e6572496420646f6573206e6f742072656769737465726564000000000060448201526064016105b5565b60035460408051635a325a9f60e11b815290516000926001600160a01b03169163b464b53e9160048083019260c0929190829003018187875af1158015610b58573d6000803e3d6000fd5b505050506040513d601f19601f82011682018060405250810190610b7c9190612fd1565b9050600a5481600001511015610be25760405162461bcd60e51b815260206004820152602560248201527f496e7465726e616c206572726f723a2065706f6368206e756d62657220646563604482015264726561736560d81b60648201526084016105b5565b600a548151118015610bf657506000600a54115b15610c1b57600754600b541015610c0f57610c0f6116d2565b6000600b556008546007555b610c2583826106df565b610c2d6129fe565b7f000000000000000000000000000000000000000000000000000000000000000015610c6357610c5c846116e4565b9050610c6a565b5060e08301515b7f000000000000000000000000000000000000000000000000000000000000000015610cf3576000610c9c85836117f8565b905082604001518114610cf15760405162461bcd60e51b815260206004820152601860248201527f496e636f6e73697374656e74206d65726b6c6520726f6f74000000000000000060448201526064016105b5565b505b610cfb6129fe565b90506000610d0885610f4e565b9050610d178560600151611a6b565b600c54610d249190612f39565b811115610d735760405162461bcd60e51b815260206004820152601b60248201527f446f206e6f7420726561636820746172676574207175616c697479000000000060448201526064016105b5565b60008181526005602052604090205460ff1615610dd25760405162461bcd60e51b815260206004820152601960248201527f416e7377657220686173206265656e207375626d69747465640000000000000060448201526064016105b5565b6000818152600560205260409020805460ff191660011790556004546001600160a01b031663b7a3c04c610100610e0b61040080612f04565b610e1790610400612f04565b610e22906008612f04565b610e2c9190612f39565b8760800151610e3b9190612f39565b60408089015190516001600160e01b031960e085901b16815260048101929092526001600160a01b03881660248301526044820152606401600060405180830381600087803b158015610e8d57600080fd5b505af1158015610ea1573d6000803e3d6000fd5b5050506040808701518551600b5460808a015184519182526020820152919350917ffedd8f58059af8fd54b4394c01ea8d07cac041988be3b5a822fb779f9c8de3a4910160405180910390a38251600a55600b805460019190600090610f08908490612fbe565b9091555050600754600b541015610f20575050505050565b7f000000000000000000000000000000000000000000000000000000000000000061096f5761096f83611ab5565b6040810151600090610fa25760405162461bcd60e51b815260206004820152601860248201527f4d696e65722049442063616e6e6f7420626520656d707479000000000000000060448201526064016105b5565b60006040518060800160405280846040015181526020018460200151815260200184600001518152602001610fda8560600151611aee565b905290506000610fe982611b56565b90506000610ffa6104006040612f04565b611008610400610100612f04565b6110129190612f39565b61101f6104006004612f04565b61102d610400610100612f04565b6110379190612f39565b6110419190612f39565b8560a00151611050919061304a565b905061105a6129fe565b611062612a1d565b6110718760e001518486611bce565b925090506101006110856104006004612f04565b61108f9190612f39565b8760a0015161109e9190612f04565b6110db826040516020016110b2919061305e565b604051602081830303815290604052805190602001208960600151611dc490919063ffffffff16565b6110e59190612fbe565b8760800151146111375760405162461bcd60e51b815260206004820152601960248201527f496e636f727265637420726563616c6c20706f736974696f6e0000000000000060448201526064016105b5565b6111468760a001518584611eca565b979650505050505050565b6000818152600d60205260409020546001600160a01b031633146111b75760405162461bcd60e51b815260206004820152601b60248201527f53656e64657220646f6573206e6f74206f776e206d696e65724964000000000060448201526064016105b5565b6000818152600d602052604080822080546001600160a01b0319166001600160a01b03861690811790915590519091339184917f9a26a8e7fd42c501b452c02016def8048e3ea28c2bf15127a9b5e2029d989bf191a45050565b60005460ff16156112705760405162461bcd60e51b8152602060048201526024808201527f5a67496e697469616c697a61626c653a20616c726561647920696e697469616c6044820152631a5e995960e21b60648201526084016105b5565b6000805460ff1916600117815561128d906112883390565b61143e565b6112a56000805160206131de8339815191523361143e565b6112b183600019612f39565b600c557f0000000000000000000000000000000000000000000000000000000000000000156112e157600019600c555b600380546001600160a01b039384166001600160a01b03199182161790915560048054929093169116179055506064600655600a60078190556008556014600955565b60008181526002602052604081206104f69061214c565b6000828152600160208190526040909120015461135781611431565b61065c8383611460565b600080600360009054906101000a90046001600160a01b03166001600160a01b031663b464b53e6040518163ffffffff1660e01b815260040160c0604051808303816000875af11580156113b9573d6000803e3d6000fd5b505050506040513d601f19601f820116820180604052508101906113dd9190612fd1565b9050600a54816000015111806113f65750600754600b54105b91505090565b60006001600160e01b03198216637965db0b60e01b14806104f657506301ffc9a760e01b6001600160e01b03198316146104f6565b61143b8133612156565b50565b61144882826121af565b600082815260026020526040902061065c908261221a565b61146a828261222f565b600082815260026020526040902061065c9082612296565b61010061149161040080612f04565b61149d90610400612f04565b6114a8906008612f04565b6114b29190612f39565b82516114be919061304a565b1561150b5760405162461bcd60e51b815260206004820152601d60248201527f537461727420706f736974696f6e206973206e6f7420616c69676e656400000060448201526064016105b5565b60208201518251829161151d91612fbe565b11156115635760405162461bcd60e51b81526020600482015260156024820152744d696e696e672072616e6765206f766572666c6f7760581b60448201526064016105b5565b600061156e83611a6b565b61010061157d61040080612f04565b61158990610400612f04565b61159590610400612f04565b6115a0906008612f04565b6115aa9190612f39565b6115b49190612f04565b905080836020015111156116025760405162461bcd60e51b81526020600482015260156024820152744d696e696e672072616e676520746f6f206c6f6e6760581b60448201526064016105b5565b600061160e83836122ab565b9050808460200151101561165d5760405162461bcd60e51b8152602060048201526016602482015275135a5b9a5b99c81c985b99d9481d1bdbc81cda1bdc9d60521b60448201526064016105b5565b83606001518460400151166001600160401b03166000146116c05760405162461bcd60e51b815260206004820152601a60248201527f4d61736b656420626974732073686f756c64206265207a65726f00000000000060448201526064016105b5565b50505050565b6000610a2983836122c1565b6116e26001600160f01b036122eb565b565b6116ec6129fe565b60408083015160c08401516080850151925161171c93906020019283526020830191909152604082015260600190565b60408051808303601f19018152919052805160209091012060e08301515118815260015b602061174f6104006004612f04565b6117599190612f39565b8110156117f25760e0830151611770600183612ef1565b608081106117805761178061308f565b602002015160405160200161179791815260200190565b604051602081830303815290604052805190602001208360e0015182608081106117c3576117c361308f565b6020020151188282608081106117db576117db61308f565b60200201526117eb600182612fbe565b9050611740565b50919050565b6000805b602061180b6104006004612f04565b6118159190612f39565b8110156118635761010060208202840120808483608081106118395761183961308f565b6020020181815250505060206101006118529190612f39565b61185c9082612fbe565b90506117fc565b5060006118736020610100612f39565b90505b60206118856104006004612f04565b61188f9190612f39565b8110156119625760005b60206118a86104006004612f04565b6118b29190612f39565b8110156119595760008482608081106118cd576118cd61308f565b602002015190506000856118e18585612fbe565b608081106118f1576118f161308f565b602002015190508181604051602001611914929190918252602082015260400190565b6040516020818303038152906040528051906020012086846080811061193c5761193c61308f565b6020020152506119529050600183901b82612fbe565b9050611899565b5060011b611876565b50815161196d6129fe565b925060006101006119816104006004612f04565b61198b9190612f39565b856080015161199a9190612f39565b905060005b85610100015151811015611a61576000806119bb60028561304a565b6000036119eb5784915087610100015183815181106119dc576119dc61308f565b60200260200101519050611a10565b8761010001518381518110611a0257611a0261308f565b602002602001015191508490505b6040805160208101849052908101829052606001604051602081830303815290604052805190602001209450600284611a499190612f39565b93505050600181611a5a9190612fbe565b905061199f565b5090949350505050565b606081015160009019815b6001600160401b03821615611aa657611a906001836130a5565b9091169080611a9e816130c5565b915050611a76565b600160ff9091161b9392505050565b6000816020015143611ac79190612ef1565b905060006010600c54901c90506000611ae3828460065461238b565b90506116c0816122eb565b60008160000151826020015183604001518460600151604051602001611b39949392919093845260208401929092526001600160401b03908116604084015216606082015260800190565b604051602081830303815290604052805190602001209050919050565b611b5e612a1d565b7f48c9bdf267e6096a3ba7ca8485ae67bb2bf894fe72f36e3cf1361d5f3af54fa581527fd182e6ad7f520e511f6c3e2b8c68059b6bbd41fbabd9831f79217e1319cde05b602080830191909152825190830151604084015160608501516104f6938593909290916080600161243a565b611bd6612a1d565b611bde6129fe565b60005b84811015611c3c5760005b6040611bfb6104006004612f04565b611c059190612f39565b811015611c2957611c15856124f9565b9450611c22600182612fbe565b9050611bec565b50611c35600182612fbe565b9050611be1565b5060005b6020611c4f6104006004612f04565b611c599190612f39565b811015611cf957611c69846124f9565b9350858160808110611c7d57611c7d61308f565b6020020151845118828260808110611c9757611c9761308f565b602002015285611ca8826001612fbe565b60808110611cb857611cb861308f565b602002015184600160200201511882611cd2836001612fbe565b60808110611ce257611ce261308f565b6020020152611cf2600282612fbe565b9050611c40565b506000611d07856001612fbe565b90505b611d176104006040612f04565b611d25610400610100612f04565b611d2f9190612f39565b611d3c6104006004612f04565b611d4a610400610100612f04565b611d549190612f39565b611d5e9190612f39565b811015611db85760005b6040611d776104006004612f04565b611d819190612f39565b811015611da557611d91856124f9565b9450611d9e600182612fbe565b9050611d68565b50611db1600182612fbe565b9050611d0a565b50829150935093915050565b600080610100611dd661040082612f04565b611de09190612f39565b8460200151611def9190612f39565b611df9908461304a565b60408501516060860151602087015192935083161790610100611e1e61040082612f04565b611e289190612f39565b611e3b906001600160401b038416612f04565b1115611e895760405162461bcd60e51b815260206004820152601c60248201527f526563616c6c20706f736974696f6e206f7574206f6620626f756e640000000060448201526064016105b5565b610100611e9861040082612f04565b611ea29190612f39565b611eb5906001600160401b038316612f04565b8551611ec19190612fbe565b95945050505050565b6000611ed4612a1d565b7f48c9bdf267e6096a3ba7ca8485ae67bb2bf894fe72f36e3cf1361d5f3af54fa581527fd182e6ad7f520e511f6c3e2b8c68059b6bbd41fbabd9831f79217e1319cde05b602080830191909152845190850151611f3a918391889190600060808161243a565b905060005b60046020611f4f61040083612f04565b611f599190612f39565b611f639190612ef1565b811015612014576000816004016020026080019050611ffe83868460808110611f8e57611f8e61308f565b602002015187611f9f866001612fbe565b60808110611faf57611faf61308f565b602002015188611fc0876002612fbe565b60808110611fd057611fd061308f565b602002015189611fe1886003612fbe565b60808110611ff157611ff161308f565b602002015186600061243a565b925061200d9050600482612fbe565b9050611f3f565b5061214281846004602061202a61040083612f04565b6120349190612f39565b61203e9190612ef1565b6080811061204e5761204e61308f565b6020020151856003602061040060046120679190612f04565b6120719190612f39565b61207b9190612ef1565b6080811061208b5761208b61308f565b6020020151866002602061040060046120a49190612f04565b6120ae9190612f39565b6120b89190612ef1565b608081106120c8576120c861308f565b6020020151876001602061040060046120e19190612f04565b6120eb9190612f39565b6120f59190612ef1565b608081106121055761210561308f565b60200201516020610400600461211b9190612f04565b6121259190612f39565b612130906020612f04565b61213b906080612fbe565b600161243a565b5195945050505050565b60006104f6825490565b6121608282610a30565b6106db5761216d81612566565b612178836020612578565b604051602001612189929190613108565b60408051601f198184030181529082905262461bcd60e51b82526105b59160040161317d565b6121b98282610a30565b6106db5760008281526001602081815260408084206001600160a01b0386168086529252808420805460ff19169093179092559051339285917f2f8788117e7eff1d82e926ec794901d17c78024a50270940304540a733656f0d9190a45050565b6000610a29836001600160a01b038416612713565b6122398282610a30565b156106db5760008281526001602090815260408083206001600160a01b0385168085529252808320805460ff1916905551339285917ff6391f5c32d9c69d2a47ea670b442974b53935d1edc7fd64eb21e047a839171b9190a45050565b6000610a29836001600160a01b038416612762565b60008183106122ba5781610a29565b5090919050565b60008260000182815481106122d8576122d861308f565b9060005260206000200154905092915050565b600c5460095460109190911c9060008184612307600183612ef1565b6123119086612f04565b61231b9190612fbe565b6123259190612f39565b9050612332836002612f04565b81111561234757612344836002612f04565b90505b612352600284612f39565b81101561236757612364600284612f39565b90505b6001600160f01b0381111561238057506001600160f01b035b60101b600c55505050565b60008080600019858709858702925082811083820303915050806000036123c5578382816123bb576123bb612f23565b0492505050610a29565b8084116123d157600080fd5b60008486880960026001871981018816978890046003810283188082028403028082028403028082028403028082028403028082028403029081029092039091026000889003889004909101858311909403939093029303949094049190911702949350505050565b612442612a1d565b600c600061244f8561285c565b8a516020808d0151835184830151604080516001600160e01b031960e08b901b168187015260248101969096526044860193909352606485018f9052608485018e905260a485018d905260c485018c90526001600160c01b031991821660e48601521660ec84015287151560f81b60f4840152805160d58185038101825260f5909401825293945091869184016009600019fa6124eb57600080fd5b505050979650505050505050565b612501612a1d565b7f48c9bdf267e6096a3ba7ca8485ae67bb2bf894fe72f36e3cf1361d5f3af54fa581527fd182e6ad7f520e511f6c3e2b8c68059b6bbd41fbabd9831f79217e1319cde05b6020808301919091528251908301516104f69183916000806040600161243a565b60606104f66001600160a01b03831660145b60606000612587836002612f04565b612592906002612fbe565b6001600160401b038111156125a9576125a9612b02565b6040519080825280601f01601f1916602001820160405280156125d3576020820181803683370190505b509050600360fc1b816000815181106125ee576125ee61308f565b60200101906001600160f81b031916908160001a905350600f60fb1b8160018151811061261d5761261d61308f565b60200101906001600160f81b031916908160001a9053506000612641846002612f04565b61264c906001612fbe565b90505b60018111156126c4576f181899199a1a9b1b9c1cb0b131b232b360811b85600f16601081106126805761268061308f565b1a60f81b8282815181106126965761269661308f565b60200101906001600160f81b031916908160001a90535060049490941c936126bd816131b0565b905061264f565b508315610a295760405162461bcd60e51b815260206004820181905260248201527f537472696e67733a20686578206c656e67746820696e73756666696369656e7460448201526064016105b5565b600081815260018301602052604081205461275a575081546001818101845560008481526020808220909301849055845484825282860190935260409020919091556104f6565b5060006104f6565b6000818152600183016020526040812054801561284b576000612786600183612ef1565b855490915060009061279a90600190612ef1565b90508181146127ff5760008660000182815481106127ba576127ba61308f565b90600052602060002001549050808760000184815481106127dd576127dd61308f565b6000918252602080832090910192909255918252600188019052604090208390555b8554869080612810576128106131c7565b6001900381819060005260206000200160009055905585600101600086815260200190815260200160002060009055600193505050506104f6565b60009150506104f6565b5092915050565b612864612a1d565b620100008210156128a857600882811c66ffffffffffffff169083901b67ffffffffffffff00161760f01b5b6001600160c01b031916815260006020820152919050565b6401000000008210156128e857600882811b63ff00ff001662ff00ff9184901c9190911617601081811b91901c1760e01b6001600160e01b031916612890565b680100000000000000008210156129025761289082612998565b600160801b821015612952576001600160401b038216604083901c61292682612998565b6001600160c01b031916835261293b81612998565b6001600160c01b0319166020840152506129939050565b60405162461bcd60e51b8152602060048201526016602482015275626c616b65326220696e70757420746f6f206c6f6e6760501b60448201526064016105b5565b919050565b65ff000000ff00600882811b91821664ff000000ff9390911c92831617601090811b67ff000000ff0000009290921666ff000000ff0000939093169290921790911c17602081811b6bffffffffffffffff000000001691901c63ffffffff161760c01b90565b6040518061100001604052806080906020820280368337509192915050565b60405180604001604052806002906020820280368337509192915050565b600060208284031215612a4d57600080fd5b81356001600160e01b031981168114610a2957600080fd5b80356001600160a01b038116811461299357600080fd5b80356001600160401b038116811461299357600080fd5b60008060408385031215612aa657600080fd5b612aaf83612a65565b9150612abd60208401612a7c565b90509250929050565b600060208284031215612ad857600080fd5b5035919050565b60008060408385031215612af257600080fd5b82359150612abd60208401612a65565b634e487b7160e01b600052604160045260246000fd5b60405161012081016001600160401b0381118282101715612b3b57612b3b612b02565b60405290565b60405160c081016001600160401b0381118282101715612b3b57612b3b612b02565b600060808284031215612b7557600080fd5b604051608081018181106001600160401b0382111715612b9757612b97612b02565b80604052508091508235815260208301356020820152612bb960408401612a7c565b6040820152612bca60608401612a7c565b60608201525092915050565b600082601f830112612be757600080fd5b6040516110008082018281106001600160401b0382111715612c0b57612c0b612b02565b60405283018185821115612c1e57600080fd5b845b82811015612c38578035825260209182019101612c20565b509195945050505050565b600082601f830112612c5457600080fd5b813560206001600160401b0380831115612c7057612c70612b02565b8260051b604051601f19603f83011681018181108482111715612c9557612c95612b02565b604052938452858101830193838101925087851115612cb357600080fd5b83870191505b8482101561114657813583529183019190830190612cb9565b60006111608284031215612ce557600080fd5b612ced612b18565b9050813581526020820135602082015260408201356040820152612d148360608401612b63565b606082015260e082013560808201526101008083013560a083015261012083013560c0830152612d48846101408501612bd6565b60e08301526111408301356001600160401b03811115612d6757600080fd5b612d7385828601612c43565b82840152505092915050565b60008082840360e0811215612d9357600080fd5b83356001600160401b03811115612da957600080fd5b612db586828701612cd2565b93505060c0601f1982011215612dca57600080fd5b50612dd3612b41565b6020840135815260408401356020820152606084013560408201526080840135606082015260a0840135608082015260c084013560a0820152809150509250929050565b60008060408385031215612e2a57600080fd5b50508035926020909101359150565b600060208284031215612e4b57600080fd5b81356001600160401b03811115612e6157600080fd5b612e6d84828501612cd2565b949350505050565b60008060408385031215612e8857600080fd5b612e9183612a65565b946020939093013593505050565b600080600060608486031215612eb457600080fd5b83359250612ec460208501612a65565b9150612ed260408501612a65565b90509250925092565b634e487b7160e01b600052601160045260246000fd5b818103818111156104f6576104f6612edb565b6000816000190483118215151615612f1e57612f1e612edb565b500290565b634e487b7160e01b600052601260045260246000fd5b600082612f4857612f48612f23565b500490565b80516001600160801b038116811461299357600080fd5b600060408284031215612f7657600080fd5b604051604081018181106001600160401b0382111715612f9857612f98612b02565b604052612fa483612f4d565b8152612fb260208401612f4d565b60208201529392505050565b808201808211156104f6576104f6612edb565b600060c08284031215612fe357600080fd5b60405160c081018181106001600160401b038211171561300557613005612b02565b8060405250825181526020830151602082015260408301516040820152606083015160608201526080830151608082015260a083015160a08201528091505092915050565b60008261305957613059612f23565b500690565b60408101818360005b6002811015613086578151835260209283019290910190600101613067565b50505092915050565b634e487b7160e01b600052603260045260246000fd5b6001600160401b0382811682821603908082111561285557612855612edb565b600060ff821660ff81036130db576130db612edb565b60010192915050565b60005b838110156130ff5781810151838201526020016130e7565b50506000910152565b7f416363657373436f6e74726f6c3a206163636f756e74200000000000000000008152600083516131408160178501602088016130e4565b7001034b99036b4b9b9b4b733903937b6329607d1b60179184019182015283516131718160288401602088016130e4565b01602801949350505050565b602081526000825180602084015261319c8160408501602087016130e4565b601f01601f19169190910160400192915050565b6000816131bf576131bf612edb565b506000190190565b634e487b7160e01b600052603160045260246000fdfeb9d69e0ca90be54a40811e436234a7f7908b87ff2bec27e64f878b166da8e8e5a264697066735822122033c918b6c8e14fe9cd2b8e76157e066102ba83463c1ab4df39134dd46488999e64736f6c63430008100033",
  "linkReferences": {},
  "deployedLinkReferences": {}
}