{
  "_format": "hh-sol-artifact-1",
  "contractName": "PoraMine",
  "sourceName": "contracts/miner/Mine.sol",
  "abi": [
    {
      "inputs": [
        {
          "internalType": "address",
          "name": "flow_",
          "type": "address"
        },
        {
          "internalType": "address",
          "name": "cashier_",
          "type": "address"
        },
        {
          "internalType": "uint256",
          "name": "settings",
          "type": "uint256"
        }
      ],
      "stateMutability": "nonpayable",
      "type": "constructor"
    },
    {
      "inputs": [
        {
          "components": [
            {
              "internalType": "bytes32",
              "name": "contextDigest",
              "type": "bytes32"
            },
            {
              "internalType": "bytes32",
              "name": "nonce",
              "type": "bytes32"
            },
            {
              "internalType": "bytes32",
              "name": "minerId",
              "type": "bytes32"
            },
            {
              "internalType": "uint256",
              "name": "startPosition",
              "type": "uint256"
            },
            {
              "internalType": "uint256",
              "name": "mineLength",
              "type": "uint256"
            },
            {
              "internalType": "uint256",
              "name": "recallPosition",
              "type": "uint256"
            },
            {
              "internalType": "uint256",
              "name": "sealOffset",
              "type": "uint256"
            },
            {
              "internalType": "bytes32",
              "name": "sealedContextDigest",
              "type": "bytes32"
            },
            {
              "internalType": "bytes32[128]",
              "name": "sealedData",
              "type": "bytes32[128]"
            },
            {
              "internalType": "bytes32[]",
              "name": "merkleProof",
              "type": "bytes32[]"
            }
          ],
          "internalType": "struct PoraMine.PoraAnswer",
          "name": "answer",
          "type": "tuple"
        },
        {
          "components": [
            {
              "internalType": "uint256",
              "name": "epoch",
              "type": "uint256"
            },
            {
              "internalType": "uint256",
              "name": "mineStart",
              "type": "uint256"
            },
            {
              "internalType": "bytes32",
              "name": "flowRoot",
              "type": "bytes32"
            },
            {
              "internalType": "uint256",
              "name": "flowLength",
              "type": "uint256"
            },
            {
              "internalType": "bytes32",
              "name": "blockDigest",
              "type": "bytes32"
            },
            {
              "internalType": "bytes32",
              "name": "digest",
              "type": "bytes32"
            }
          ],
          "internalType": "struct MineContext",
          "name": "context",
          "type": "tuple"
        }
      ],
      "name": "basicCheck",
      "outputs": [],
      "stateMutability": "view",
      "type": "function"
    },
    {
      "inputs": [],
      "name": "cashier",
      "outputs": [
        {
          "internalType": "contract ICashier",
          "name": "",
          "type": "address"
        }
      ],
      "stateMutability": "view",
      "type": "function"
    },
    {
      "inputs": [],
      "name": "dataProofEnabled",
      "outputs": [
        {
          "internalType": "bool",
          "name": "",
          "type": "bool"
        }
      ],
      "stateMutability": "view",
      "type": "function"
    },
    {
      "inputs": [],
      "name": "flow",
      "outputs": [
        {
          "internalType": "contract IFlow",
          "name": "",
          "type": "address"
        }
      ],
      "stateMutability": "view",
      "type": "function"
    },
    {
      "inputs": [],
      "name": "lastMinedEpoch",
      "outputs": [
        {
          "internalType": "uint256",
          "name": "",
          "type": "uint256"
        }
      ],
      "stateMutability": "view",
      "type": "function"
    },
    {
      "inputs": [],
      "name": "marketEnabled",
      "outputs": [
        {
          "internalType": "bool",
          "name": "",
          "type": "bool"
        }
      ],
      "stateMutability": "view",
      "type": "function"
    },
    {
      "inputs": [
        {
          "internalType": "address",
          "name": "",
          "type": "address"
        }
      ],
      "name": "minerIds",
      "outputs": [
        {
          "internalType": "bytes32",
          "name": "",
          "type": "bytes32"
        }
      ],
      "stateMutability": "view",
      "type": "function"
    },
    {
      "inputs": [
        {
          "components": [
            {
              "internalType": "bytes32",
              "name": "contextDigest",
              "type": "bytes32"
            },
            {
              "internalType": "bytes32",
              "name": "nonce",
              "type": "bytes32"
            },
            {
              "internalType": "bytes32",
              "name": "minerId",
              "type": "bytes32"
            },
            {
              "internalType": "uint256",
              "name": "startPosition",
              "type": "uint256"
            },
            {
              "internalType": "uint256",
              "name": "mineLength",
              "type": "uint256"
            },
            {
              "internalType": "uint256",
              "name": "recallPosition",
              "type": "uint256"
            },
            {
              "internalType": "uint256",
              "name": "sealOffset",
              "type": "uint256"
            },
            {
              "internalType": "bytes32",
              "name": "sealedContextDigest",
              "type": "bytes32"
            },
            {
              "internalType": "bytes32[128]",
              "name": "sealedData",
              "type": "bytes32[128]"
            },
            {
              "internalType": "bytes32[]",
              "name": "merkleProof",
              "type": "bytes32[]"
            }
          ],
          "internalType": "struct PoraMine.PoraAnswer",
          "name": "answer",
          "type": "tuple"
        }
      ],
      "name": "pora",
      "outputs": [
        {
          "internalType": "bytes32",
          "name": "",
          "type": "bytes32"
        }
      ],
      "stateMutability": "view",
      "type": "function"
    },
    {
      "inputs": [
        {
          "components": [
            {
              "internalType": "bytes32",
              "name": "contextDigest",
              "type": "bytes32"
            },
            {
              "internalType": "bytes32",
              "name": "nonce",
              "type": "bytes32"
            },
            {
              "internalType": "bytes32",
              "name": "minerId",
              "type": "bytes32"
            },
            {
              "internalType": "uint256",
              "name": "startPosition",
              "type": "uint256"
            },
            {
              "internalType": "uint256",
              "name": "mineLength",
              "type": "uint256"
            },
            {
              "internalType": "uint256",
              "name": "recallPosition",
              "type": "uint256"
            },
            {
              "internalType": "uint256",
              "name": "sealOffset",
              "type": "uint256"
            },
            {
              "internalType": "bytes32",
              "name": "sealedContextDigest",
              "type": "bytes32"
            },
            {
              "internalType": "bytes32[128]",
              "name": "sealedData",
              "type": "bytes32[128]"
            },
            {
              "internalType": "bytes32[]",
              "name": "merkleProof",
              "type": "bytes32[]"
            }
          ],
          "internalType": "struct PoraMine.PoraAnswer",
          "name": "answer",
          "type": "tuple"
        },
        {
          "internalType": "bytes32[128]",
          "name": "unsealedData",
          "type": "bytes32[128]"
        }
      ],
      "name": "recoverMerkleRoot",
      "outputs": [
        {
          "internalType": "bytes32",
          "name": "",
          "type": "bytes32"
        }
      ],
      "stateMutability": "pure",
      "type": "function"
    },
    {
      "inputs": [],
      "name": "sealDataEnabled",
      "outputs": [
        {
          "internalType": "bool",
          "name": "",
          "type": "bool"
        }
      ],
      "stateMutability": "view",
      "type": "function"
    },
    {
      "inputs": [
        {
          "components": [
            {
              "internalType": "bytes32",
              "name": "contextDigest",
              "type": "bytes32"
            },
            {
              "internalType": "bytes32",
              "name": "nonce",
              "type": "bytes32"
            },
            {
              "internalType": "bytes32",
              "name": "minerId",
              "type": "bytes32"
            },
            {
              "internalType": "uint256",
              "name": "startPosition",
              "type": "uint256"
            },
            {
              "internalType": "uint256",
              "name": "mineLength",
              "type": "uint256"
            },
            {
              "internalType": "uint256",
              "name": "recallPosition",
              "type": "uint256"
            },
            {
              "internalType": "uint256",
              "name": "sealOffset",
              "type": "uint256"
            },
            {
              "internalType": "bytes32",
              "name": "sealedContextDigest",
              "type": "bytes32"
            },
            {
              "internalType": "bytes32[128]",
              "name": "sealedData",
              "type": "bytes32[128]"
            },
            {
              "internalType": "bytes32[]",
              "name": "merkleProof",
              "type": "bytes32[]"
            }
          ],
          "internalType": "struct PoraMine.PoraAnswer",
          "name": "answer",
          "type": "tuple"
        }
      ],
      "name": "submit",
      "outputs": [],
      "stateMutability": "nonpayable",
      "type": "function"
    },
    {
      "inputs": [],
      "name": "targetQuality",
      "outputs": [
        {
          "internalType": "uint256",
          "name": "",
          "type": "uint256"
        }
      ],
      "stateMutability": "view",
      "type": "function"
    },
    {
      "inputs": [],
      "name": "totalMiningTime",
      "outputs": [
        {
          "internalType": "uint256",
          "name": "",
          "type": "uint256"
        }
      ],
      "stateMutability": "view",
      "type": "function"
    },
    {
      "inputs": [],
      "name": "totalSubmission",
      "outputs": [
        {
          "internalType": "uint256",
          "name": "",
          "type": "uint256"
        }
      ],
      "stateMutability": "view",
      "type": "function"
    },
    {
      "inputs": [
        {
          "components": [
            {
              "internalType": "bytes32",
              "name": "contextDigest",
              "type": "bytes32"
            },
            {
              "internalType": "bytes32",
              "name": "nonce",
              "type": "bytes32"
            },
            {
              "internalType": "bytes32",
              "name": "minerId",
              "type": "bytes32"
            },
            {
              "internalType": "uint256",
              "name": "startPosition",
              "type": "uint256"
            },
            {
              "internalType": "uint256",
              "name": "mineLength",
              "type": "uint256"
            },
            {
              "internalType": "uint256",
              "name": "recallPosition",
              "type": "uint256"
            },
            {
              "internalType": "uint256",
              "name": "sealOffset",
              "type": "uint256"
            },
            {
              "internalType": "bytes32",
              "name": "sealedContextDigest",
              "type": "bytes32"
            },
            {
              "internalType": "bytes32[128]",
              "name": "sealedData",
              "type": "bytes32[128]"
            },
            {
              "internalType": "bytes32[]",
              "name": "merkleProof",
              "type": "bytes32[]"
            }
          ],
          "internalType": "struct PoraMine.PoraAnswer",
          "name": "answer",
          "type": "tuple"
        }
      ],
      "name": "unseal",
      "outputs": [
        {
          "internalType": "bytes32[128]",
          "name": "unsealedData",
          "type": "bytes32[128]"
        }
      ],
      "stateMutability": "pure",
      "type": "function"
    }
  ],
  "bytecode": "0x610120604052600080553480156200001657600080fd5b5060405162001f2138038062001f21833981016040819052620000399162000101565b6000196001908155811615608052600281161560a052600481161560c0526001600160a01b0382161515806200006f575060c051155b620000ca5760405162461bcd60e51b815260206004820152602160248201527f4361736869657220646f6573206e6f7420696e6974656420636f72726563746c6044820152607960f81b606482015260840160405180910390fd5b506001600160a01b0391821660e052166101005262000142565b80516001600160a01b0381168114620000fc57600080fd5b919050565b6000806000606084860312156200011757600080fd5b6200012284620000e4565b92506200013260208501620000e4565b9150604084015190509250925092565b60805160a05160c05160e05161010051611d6a620001b7600039600081816102750152610657015260008181610152015281816102ac015281816103210152610a8e01526000818160ff0152610629015260008181610214015261053601526000818161023b01526104d20152611d6a6000f3fe608060405234801561001057600080fd5b50600436106100f55760003560e01c8063755d0c6311610097578063adaa7a0f11610066578063adaa7a0f14610236578063e058455d1461025d578063ed740e9714610270578063fe65947f1461029757600080fd5b8063755d0c63146101d357806380884dc6146101dc57806382532afd146101fc57806382975fe71461020f57600080fd5b8063362a5389116100d3578063362a53891461018c5780633e97c51014610195578063609a3280146101aa5780636c397850146101ca57600080fd5b80631ef261ba146100fa57806331223ba714610136578063343aad821461014d575b600080fd5b6101217f000000000000000000000000000000000000000000000000000000000000000081565b60405190151581526020015b60405180910390f35b61013f60005481565b60405190815260200161012d565b6101747f000000000000000000000000000000000000000000000000000000000000000081565b6040516001600160a01b03909116815260200161012d565b61013f60035481565b6101a86101a3366004611905565b6102aa565b005b6101bd6101b8366004611905565b610718565b60405161012d9190611942565b61013f60015481565b61013f60045481565b61013f6101ea366004611974565b60026020526000908152604090205481565b6101a861020a3660046119dc565b610822565b6101217f000000000000000000000000000000000000000000000000000000000000000081565b6101217f000000000000000000000000000000000000000000000000000000000000000081565b61013f61026b366004611a75565b610bab565b6101747f000000000000000000000000000000000000000000000000000000000000000081565b61013f6102a5366004611905565b610e34565b7f00000000000000000000000000000000000000000000000000000000000000006001600160a01b03166338d45e106040518163ffffffff1660e01b8152600401600060405180830381600087803b15801561030557600080fd5b505af1158015610319573d6000803e3d6000fd5b5050505060007f00000000000000000000000000000000000000000000000000000000000000006001600160a01b031663127f0f076040518163ffffffff1660e01b815260040160c060405180830381865afa15801561037d573d6000803e3d6000fd5b505050506040513d601f19601f820116820180604052508101906103a19190611b20565b60a08101519091508235146103fd5760405162461bcd60e51b815260206004820152601a60248201527f496e636f6e73697374656e74206d696e696e672064696765737400000000000060448201526064015b60405180910390fd5b7fc5d2460186f7233c927e7db2dcc703c0e500b653ca82273b7bfad8045d85a4708160a00151036104705760405162461bcd60e51b815260206004820152601960248201527f456d707479206469676573742063616e206e6f74206d696e650000000000000060448201526064016103f4565b6000548151116104b95760405162461bcd60e51b8152602060048201526014602482015273115c1bd8da081a185cc81899595b881b5a5b995960621b60448201526064016103f4565b80516000556104c88282610822565b6104d06118b5565b7f000000000000000000000000000000000000000000000000000000000000000015610506576104ff83610718565b9050610534565b6040805161100081810190925290610100850190608090839083908082843760009201919091525091925050505b7f0000000000000000000000000000000000000000000000000000000000000000156105bd5760006105668483610bab565b9050826040015181146105bb5760405162461bcd60e51b815260206004820152601860248201527f496e636f6e73697374656e74206d65726b6c6520726f6f74000000000000000060448201526064016103f4565b505b6105c56118b5565b905060006105d284610e34565b6001549091508111156106275760405162461bcd60e51b815260206004820152601b60248201527f446f206e6f7420726561636820746172676574207175616c697479000000000060448201526064016103f4565b7f000000000000000000000000000000000000000000000000000000000000000015610712576001600160a01b037f00000000000000000000000000000000000000000000000000000000000000001663ccec92c461010061068b61040080611bb0565b61069790610400611bb0565b6106a2906008611bb0565b6106ac9190611be5565b6106ba9060a0880135611be5565b6040516001600160e01b031960e084901b1681526004810191909152336024820152604401600060405180830381600087803b1580156106f957600080fd5b505af115801561070d573d6000803e3d6000fd5b505050505b50505050565b6107206118b5565b6040805181840135602082015260e08401359181019190915260a0830135606082015260800160408051808303601f19018152919052805160209091012061010083013518815260015b60206107796104006004611bb0565b6107839190611be5565b81101561081c57610100830161079a600183611c0f565b608081106107aa576107aa611bf9565b60200201356040516020016107c191815260200190565b60405160208183030381529060405280519060200120836101000182608081106107ed576107ed611bf9565b60200201351882826080811061080557610805611bf9565b6020020152610815600182611c22565b905061076a565b50919050565b600061010061083361040082611bb0565b61083d9190611be5565b61010061084c61040082611bb0565b6108569190611be5565b83606001516108659190611be5565b61086f9190611bb0565b90508061088460808501356060860135611c22565b11156108ca5760405162461bcd60e51b81526020600482015260156024820152744d696e696e672072616e6765206f766572666c6f7760581b60448201526064016103f4565b6101006108d961040080611bb0565b6108e590610400611bb0565b6108f190610400611bb0565b6108fc906008611bb0565b6109069190611be5565b836080013511156109515760405162461bcd60e51b81526020600482015260156024820152744d696e696e672072616e676520746f6f206c6f6e6760581b60448201526064016103f4565b61010061096061040080611bb0565b61096c90610400611bb0565b610977906008611bb0565b6109819190611be5565b61098f906060850135611c35565b156109dc5760405162461bcd60e51b815260206004820152601d60248201527f537461727420706f736974696f6e206973206e6f7420616c69676e656400000060448201526064016103f4565b6000610a23826101006109f161040080611bb0565b6109fd90610400611bb0565b610a0990610400611bb0565b610a14906008611bb0565b610a1e9190611be5565b61153f565b90508084608001351015610a725760405162461bcd60e51b8152602060048201526016602482015275135a5b9a5b99c81c985b99d9481d1bdbc81cda1bdc9d60521b60448201526064016103f4565b604051630fab20e160e31b815260e085013560048201526000907f00000000000000000000000000000000000000000000000000000000000000006001600160a01b031690637d590708906024016040805180830381865afa158015610adc573d6000803e3d6000fd5b505050506040513d601f19601f82011682018060405250810190610b009190611c60565b90506000610100610b146104006004611bb0565b610b1e9190611be5565b610b2c9060a0880135611c22565b90508082600001516001600160801b0316108015610b5757508082602001516001600160801b031610155b610ba35760405162461bcd60e51b815260206004820152601d60248201527f496e76616c6964207365616c656420636f6e746578742064696765737400000060448201526064016103f4565b505050505050565b6000805b6020610bbe6104006004611bb0565b610bc89190611be5565b811015610c16576101006020820284012080848360808110610bec57610bec611bf9565b602002018181525050506020610100610c059190611be5565b610c0f9082611c22565b9050610baf565b506000610c266020610100611be5565b90505b6020610c386104006004611bb0565b610c429190611be5565b811015610d155760005b6020610c5b6104006004611bb0565b610c659190611be5565b811015610d0c576000848260808110610c8057610c80611bf9565b60200201519050600085610c948585611c22565b60808110610ca457610ca4611bf9565b602002015190508181604051602001610cc7929190918252602082015260400190565b60405160208183030381529060405280519060200120868460808110610cef57610cef611bf9565b602002015250610d059050600183901b82611c22565b9050610c4c565b5060011b610c29565b508151610d206118b5565b92506000610100610d346104006004611bb0565b610d3e9190611be5565b610d4c9060a0870135611be5565b905060005b610d5f611100870187611cbb565b9050811015610e2857600080610d76600285611c35565b600003610dac57849150610d8e611100890189611cbb565b84818110610d9e57610d9e611bf9565b905060200201359050610dd7565b610dba611100890189611cbb565b84818110610dca57610dca611bf9565b9050602002013591508490505b6040805160208101849052908101829052606001604051602081830303815290604052805190602001209450600284610e109190611be5565b93505050600181610e219190611c22565b9050610d51565b50909150505b92915050565b336000908152600260205260408082205490830135610e955760405162461bcd60e51b815260206004820152601760248201527f4d696e657220494420646f6573206e6f7420657869737400000000000000000060448201526064016103f4565b80836040013514610ee85760405162461bcd60e51b815260206004820152601860248201527f4d696e657220494420697320696e636f6e73697374656e74000000000000000060448201526064016103f4565b6040805160a0810182528281526020858101359082015284359181019190915260608085013590820152608080850135908201526000610f2782611557565b90506000610f386104006040611bb0565b610f46610400610100611bb0565b610f509190611be5565b610f5d6104006004611bb0565b610f6b610400610100611bb0565b610f759190611be5565b610f7f9190611be5565b610f8d9060c0880135611c35565b9050610f976118b5565b60005b82811015610ff55760005b6040610fb46104006004611bb0565b610fbe9190611be5565b811015610fe257610fce856115ea565b9450610fdb600182611c22565b9050610fa5565b50610fee600182611c22565b9050610f9a565b5060005b60206110086104006004611bb0565b6110129190611be5565b8110156110c057611022846115ea565b93508761010001816080811061103a5761103a611bf9565b602002013584600060200201511882826080811061105a5761105a611bf9565b6020020152610100880161106f826001611c22565b6080811061107f5761107f611bf9565b602002013584600160200201511882611099836001611c22565b608081106110a9576110a9611bf9565b60200201526110b9600282611c22565b9050610ff9565b5060006110ce836001611c22565b90505b6110de6104006040611bb0565b6110ec610400610100611bb0565b6110f69190611be5565b6111036104006004611bb0565b611111610400610100611bb0565b61111b9190611be5565b6111259190611be5565b81101561117f5760005b604061113e6104006004611bb0565b6111489190611be5565b81101561116c57611158856115ea565b9450611165600182611c22565b905061112f565b50611178600182611c22565b90506110d1565b50600061010061119161040082611bb0565b61119b9190611be5565b6111a99060808a0135611be5565b846040516020016111ba9190611d0c565b6040516020818303038152906040528051906020012060001c6111dd9190611c35565b90506101006111ef6104006004611bb0565b6111f99190611be5565b6112079060c08a0135611bb0565b61010061121661040082611bb0565b6112209190611be5565b61122a9083611bb0565b6112389060608b0135611c22565b6112429190611c22565b8860a00135146112945760405162461bcd60e51b815260206004820152601960248201527f496e636f727265637420726563616c6c20706f736974696f6e0000000000000060448201526064016103f4565b61129c6118d4565b7f48c9bdf267e6096a3ba7ca8485ae67bb2bf894fe72f36e3cf1361d5f3af54fa581527fd182e6ad7f520e511f6c3e2b8c68059b6bbd41fbabd9831f79217e1319cde05b60208083019190915261130590829060c08c0135908a908d01358d3560806000611653565b90506113218160608b013560808c013560008061010081611653565b905060005b6004602061133661040083611bb0565b6113409190611be5565b61134a9190611c0f565b8110156113f85761010060206004830102016113e28386846080811061137257611372611bf9565b602002015187611383866001611c22565b6080811061139357611393611bf9565b6020020151886113a4876002611c22565b608081106113b4576113b4611bf9565b6020020151896113c5886003611c22565b608081106113d5576113d5611bf9565b6020020151866000611653565b92506113f19050600482611c22565b9050611326565b5061152781846004602061140e61040083611bb0565b6114189190611be5565b6114229190611c0f565b6080811061143257611432611bf9565b60200201518560036020610400600461144b9190611bb0565b6114559190611be5565b61145f9190611c0f565b6080811061146f5761146f611bf9565b6020020151866002602061040060046114889190611bb0565b6114929190611be5565b61149c9190611c0f565b608081106114ac576114ac611bf9565b6020020151876001602061040060046114c59190611bb0565b6114cf9190611be5565b6114d99190611c0f565b608081106114e9576114e9611bf9565b6020020151602061040060046114ff9190611bb0565b6115099190611be5565b611514906020611bb0565b61152090610100611c22565b6001611653565b90506115316118b5565b505198975050505050505050565b600081831061154e5781611550565b825b9392505050565b61155f6118d4565b7f48c9bdf267e6096a3ba7ca8485ae67bb2bf894fe72f36e3cf1361d5f3af54fa581527fd182e6ad7f520e511f6c3e2b8c68059b6bbd41fbabd9831f79217e1319cde05b602080830191909152825190830151604084015160608501516115cf9385939092909160806000611653565b9050610e2e8183600460200201516000808060a06001611653565b6115f26118d4565b7f48c9bdf267e6096a3ba7ca8485ae67bb2bf894fe72f36e3cf1361d5f3af54fa581527fd182e6ad7f520e511f6c3e2b8c68059b6bbd41fbabd9831f79217e1319cde05b602080830191909152825190830151610e2e918391600080604060015b61165b6118d4565b600c600061166885611712565b8a516020808d0151835184830151604080516001600160e01b031960e08b901b168187015260248101969096526044860193909352606485018f9052608485018e905260a485018d905260c485018c90526001600160c01b031991821660e48601521660ec84015287151560f81b60f4840152805160d58185038101825260f5909401825293945091869184016009600019fa61170457600080fd5b505050979650505050505050565b61171a6118d4565b6201000082101561175e57600882811c66ffffffffffffff169083901b67ffffffffffffff00161760f01b5b6001600160c01b031916815260006020820152919050565b64010000000082101561179e57600882811b63ff00ff001662ff00ff9184901c9190911617601081811b91901c1760e01b6001600160e01b031916611746565b680100000000000000008210156117b8576117468261184f565b600160801b8210156118095767ffffffffffffffff8216604083901c6117dd8261184f565b6001600160c01b03191683526117f28161184f565b6001600160c01b03191660208401525061184a9050565b60405162461bcd60e51b8152602060048201526016602482015275626c616b65326220696e70757420746f6f206c6f6e6760501b60448201526064016103f4565b919050565b65ff000000ff00600882811b91821664ff000000ff9390911c92831617601090811b67ff000000ff0000009290921666ff000000ff0000939093169290921790911c17602081811b6bffffffffffffffff000000001691901c63ffffffff161760c01b90565b6040518061100001604052806080906020820280368337509192915050565b60405180604001604052806002906020820280368337509192915050565b6000611120828403121561081c57600080fd5b60006020828403121561191757600080fd5b813567ffffffffffffffff81111561192e57600080fd5b61193a848285016118f2565b949350505050565b6110008101818360005b608081101561196b57815183526020928301929091019060010161194c565b50505092915050565b60006020828403121561198657600080fd5b81356001600160a01b038116811461155057600080fd5b634e487b7160e01b600052604160045260246000fd5b60405160c0810167ffffffffffffffff811182821017156119d6576119d661199d565b60405290565b60008082840360e08112156119f057600080fd5b833567ffffffffffffffff811115611a0757600080fd5b611a13868287016118f2565b93505060c0601f1982011215611a2857600080fd5b50611a316119b3565b6020840135815260408401356020820152606084013560408201526080840135606082015260a0840135608082015260c084013560a0820152809150509250929050565b600080611020808486031215611a8a57600080fd5b833567ffffffffffffffff80821115611aa257600080fd5b611aae878388016118f2565b94506020915086603f870112611ac357600080fd5b60405161100081018181108382111715611adf57611adf61199d565b6040529286019290508087841115611af657600080fd5b8287015b84811015611b115780358352918301918301611afa565b50809450505050509250929050565b600060c08284031215611b3257600080fd5b60405160c0810181811067ffffffffffffffff82111715611b5557611b5561199d565b8060405250825181526020830151602082015260408301516040820152606083015160608201526080830151608082015260a083015160a08201528091505092915050565b634e487b7160e01b600052601160045260246000fd5b6000816000190483118215151615611bca57611bca611b9a565b500290565b634e487b7160e01b600052601260045260246000fd5b600082611bf457611bf4611bcf565b500490565b634e487b7160e01b600052603260045260246000fd5b81810381811115610e2e57610e2e611b9a565b80820180821115610e2e57610e2e611b9a565b600082611c4457611c44611bcf565b500690565b80516001600160801b038116811461184a57600080fd5b600060408284031215611c7257600080fd5b6040516040810181811067ffffffffffffffff82111715611c9557611c9561199d565b604052611ca183611c49565b8152611caf60208401611c49565b60208201529392505050565b6000808335601e19843603018112611cd257600080fd5b83018035915067ffffffffffffffff821115611ced57600080fd5b6020019150600581901b3603821315611d0557600080fd5b9250929050565b60408101818360005b600281101561196b578151835260209283019290910190600101611d1556fea264697066735822122032c2c32f535650a73c65025dd55c4d76114c807e3c1ce5aa9b08964fe7e7075d64736f6c63430008100033",
  "linkReferences": {},
  "deployedLinkReferences": {}
}