{
  "_format": "hh-sol-artifact-1",
  "contractName": "PoraMine",
  "sourceName": "contracts/miner/Mine.sol",
  "abi": [
    {
      "inputs": [
        {
          "internalType": "address",
          "name": "flow_",
          "type": "address"
        },
        {
          "internalType": "address",
          "name": "cashier_",
          "type": "address"
        },
        {
          "internalType": "uint256",
          "name": "settings",
          "type": "uint256"
        }
      ],
      "stateMutability": "nonpayable",
      "type": "constructor"
    },
    {
      "inputs": [
        {
          "components": [
            {
              "internalType": "bytes32",
              "name": "contextDigest",
              "type": "bytes32"
            },
            {
              "internalType": "bytes32",
              "name": "nonce",
              "type": "bytes32"
            },
            {
              "internalType": "bytes32",
              "name": "minerId",
              "type": "bytes32"
            },
            {
              "internalType": "uint256",
              "name": "startPosition",
              "type": "uint256"
            },
            {
              "internalType": "uint256",
              "name": "mineLength",
              "type": "uint256"
            },
            {
              "internalType": "uint256",
              "name": "recallPosition",
              "type": "uint256"
            },
            {
              "internalType": "uint256",
              "name": "sealOffset",
              "type": "uint256"
            },
            {
              "internalType": "bytes32",
              "name": "sealedContextDigest",
              "type": "bytes32"
            },
            {
              "internalType": "bytes32[128]",
              "name": "sealedData",
              "type": "bytes32[128]"
            },
            {
              "internalType": "bytes32[]",
              "name": "merkleProof",
              "type": "bytes32[]"
            }
          ],
          "internalType": "struct PoraMine.PoraAnswer",
          "name": "answer",
          "type": "tuple"
        },
        {
          "components": [
            {
              "internalType": "uint256",
              "name": "epoch",
              "type": "uint256"
            },
            {
              "internalType": "uint256",
              "name": "mineStart",
              "type": "uint256"
            },
            {
              "internalType": "bytes32",
              "name": "flowRoot",
              "type": "bytes32"
            },
            {
              "internalType": "uint256",
              "name": "flowLength",
              "type": "uint256"
            },
            {
              "internalType": "bytes32",
              "name": "blockDigest",
              "type": "bytes32"
            },
            {
              "internalType": "bytes32",
              "name": "digest",
              "type": "bytes32"
            }
          ],
          "internalType": "struct MineContext",
          "name": "context",
          "type": "tuple"
        }
      ],
      "name": "basicCheck",
      "outputs": [],
      "stateMutability": "view",
      "type": "function"
    },
    {
      "inputs": [],
      "name": "cashier",
      "outputs": [
        {
          "internalType": "contract ICashier",
          "name": "",
          "type": "address"
        }
      ],
      "stateMutability": "view",
      "type": "function"
    },
    {
      "inputs": [],
      "name": "dataProofEnabled",
      "outputs": [
        {
          "internalType": "bool",
          "name": "",
          "type": "bool"
        }
      ],
      "stateMutability": "view",
      "type": "function"
    },
    {
      "inputs": [],
      "name": "flow",
      "outputs": [
        {
          "internalType": "contract IFlow",
          "name": "",
          "type": "address"
        }
      ],
      "stateMutability": "view",
      "type": "function"
    },
    {
      "inputs": [],
      "name": "lastMinedEpoch",
      "outputs": [
        {
          "internalType": "uint256",
          "name": "",
          "type": "uint256"
        }
      ],
      "stateMutability": "view",
      "type": "function"
    },
    {
      "inputs": [],
      "name": "marketEnabled",
      "outputs": [
        {
          "internalType": "bool",
          "name": "",
          "type": "bool"
        }
      ],
      "stateMutability": "view",
      "type": "function"
    },
    {
      "inputs": [
        {
          "internalType": "address",
          "name": "",
          "type": "address"
        }
      ],
      "name": "minerIds",
      "outputs": [
        {
          "internalType": "bytes32",
          "name": "",
          "type": "bytes32"
        }
      ],
      "stateMutability": "view",
      "type": "function"
    },
    {
      "inputs": [
        {
          "components": [
            {
              "internalType": "bytes32",
              "name": "contextDigest",
              "type": "bytes32"
            },
            {
              "internalType": "bytes32",
              "name": "nonce",
              "type": "bytes32"
            },
            {
              "internalType": "bytes32",
              "name": "minerId",
              "type": "bytes32"
            },
            {
              "internalType": "uint256",
              "name": "startPosition",
              "type": "uint256"
            },
            {
              "internalType": "uint256",
              "name": "mineLength",
              "type": "uint256"
            },
            {
              "internalType": "uint256",
              "name": "recallPosition",
              "type": "uint256"
            },
            {
              "internalType": "uint256",
              "name": "sealOffset",
              "type": "uint256"
            },
            {
              "internalType": "bytes32",
              "name": "sealedContextDigest",
              "type": "bytes32"
            },
            {
              "internalType": "bytes32[128]",
              "name": "sealedData",
              "type": "bytes32[128]"
            },
            {
              "internalType": "bytes32[]",
              "name": "merkleProof",
              "type": "bytes32[]"
            }
          ],
          "internalType": "struct PoraMine.PoraAnswer",
          "name": "answer",
          "type": "tuple"
        }
      ],
      "name": "pora",
      "outputs": [
        {
          "internalType": "bytes32",
          "name": "",
          "type": "bytes32"
        }
      ],
      "stateMutability": "view",
      "type": "function"
    },
    {
      "inputs": [
        {
          "components": [
            {
              "internalType": "bytes32",
              "name": "contextDigest",
              "type": "bytes32"
            },
            {
              "internalType": "bytes32",
              "name": "nonce",
              "type": "bytes32"
            },
            {
              "internalType": "bytes32",
              "name": "minerId",
              "type": "bytes32"
            },
            {
              "internalType": "uint256",
              "name": "startPosition",
              "type": "uint256"
            },
            {
              "internalType": "uint256",
              "name": "mineLength",
              "type": "uint256"
            },
            {
              "internalType": "uint256",
              "name": "recallPosition",
              "type": "uint256"
            },
            {
              "internalType": "uint256",
              "name": "sealOffset",
              "type": "uint256"
            },
            {
              "internalType": "bytes32",
              "name": "sealedContextDigest",
              "type": "bytes32"
            },
            {
              "internalType": "bytes32[128]",
              "name": "sealedData",
              "type": "bytes32[128]"
            },
            {
              "internalType": "bytes32[]",
              "name": "merkleProof",
              "type": "bytes32[]"
            }
          ],
          "internalType": "struct PoraMine.PoraAnswer",
          "name": "answer",
          "type": "tuple"
        },
        {
          "internalType": "bytes32[128]",
          "name": "unsealedData",
          "type": "bytes32[128]"
        }
      ],
      "name": "recoverMerkleRoot",
      "outputs": [
        {
          "internalType": "bytes32",
          "name": "",
          "type": "bytes32"
        }
      ],
      "stateMutability": "pure",
      "type": "function"
    },
    {
      "inputs": [],
      "name": "sealDataEnabled",
      "outputs": [
        {
          "internalType": "bool",
          "name": "",
          "type": "bool"
        }
      ],
      "stateMutability": "view",
      "type": "function"
    },
    {
      "inputs": [
        {
          "components": [
            {
              "internalType": "bytes32",
              "name": "contextDigest",
              "type": "bytes32"
            },
            {
              "internalType": "bytes32",
              "name": "nonce",
              "type": "bytes32"
            },
            {
              "internalType": "bytes32",
              "name": "minerId",
              "type": "bytes32"
            },
            {
              "internalType": "uint256",
              "name": "startPosition",
              "type": "uint256"
            },
            {
              "internalType": "uint256",
              "name": "mineLength",
              "type": "uint256"
            },
            {
              "internalType": "uint256",
              "name": "recallPosition",
              "type": "uint256"
            },
            {
              "internalType": "uint256",
              "name": "sealOffset",
              "type": "uint256"
            },
            {
              "internalType": "bytes32",
              "name": "sealedContextDigest",
              "type": "bytes32"
            },
            {
              "internalType": "bytes32[128]",
              "name": "sealedData",
              "type": "bytes32[128]"
            },
            {
              "internalType": "bytes32[]",
              "name": "merkleProof",
              "type": "bytes32[]"
            }
          ],
          "internalType": "struct PoraMine.PoraAnswer",
          "name": "answer",
          "type": "tuple"
        }
      ],
      "name": "submit",
      "outputs": [],
      "stateMutability": "nonpayable",
      "type": "function"
    },
    {
      "inputs": [],
      "name": "targetQuality",
      "outputs": [
        {
          "internalType": "uint256",
          "name": "",
          "type": "uint256"
        }
      ],
      "stateMutability": "view",
      "type": "function"
    },
    {
      "inputs": [],
      "name": "totalMiningTime",
      "outputs": [
        {
          "internalType": "uint256",
          "name": "",
          "type": "uint256"
        }
      ],
      "stateMutability": "view",
      "type": "function"
    },
    {
      "inputs": [],
      "name": "totalSubmission",
      "outputs": [
        {
          "internalType": "uint256",
          "name": "",
          "type": "uint256"
        }
      ],
      "stateMutability": "view",
      "type": "function"
    },
    {
      "inputs": [
        {
          "components": [
            {
              "internalType": "bytes32",
              "name": "contextDigest",
              "type": "bytes32"
            },
            {
              "internalType": "bytes32",
              "name": "nonce",
              "type": "bytes32"
            },
            {
              "internalType": "bytes32",
              "name": "minerId",
              "type": "bytes32"
            },
            {
              "internalType": "uint256",
              "name": "startPosition",
              "type": "uint256"
            },
            {
              "internalType": "uint256",
              "name": "mineLength",
              "type": "uint256"
            },
            {
              "internalType": "uint256",
              "name": "recallPosition",
              "type": "uint256"
            },
            {
              "internalType": "uint256",
              "name": "sealOffset",
              "type": "uint256"
            },
            {
              "internalType": "bytes32",
              "name": "sealedContextDigest",
              "type": "bytes32"
            },
            {
              "internalType": "bytes32[128]",
              "name": "sealedData",
              "type": "bytes32[128]"
            },
            {
              "internalType": "bytes32[]",
              "name": "merkleProof",
              "type": "bytes32[]"
            }
          ],
          "internalType": "struct PoraMine.PoraAnswer",
          "name": "answer",
          "type": "tuple"
        }
      ],
      "name": "unseal",
      "outputs": [
        {
          "internalType": "bytes32[128]",
          "name": "unsealedData",
          "type": "bytes32[128]"
        }
      ],
      "stateMutability": "pure",
      "type": "function"
    }
  ],
  "bytecode": "0x610120604052600080553480156200001657600080fd5b506040516200201d3803806200201d833981016040819052620000399162000101565b6000196001908155811615608052600281161560a052600481161560c0526001600160a01b0382161515806200006f575060c051155b620000ca5760405162461bcd60e51b815260206004820152602160248201527f4361736869657220646f6573206e6f7420696e6974656420636f72726563746c6044820152607960f81b606482015260840160405180910390fd5b506001600160a01b0391821660e052166101005262000142565b80516001600160a01b0381168114620000fc57600080fd5b919050565b6000806000606084860312156200011757600080fd5b6200012284620000e4565b92506200013260208501620000e4565b9150604084015190509250925092565b60805160a05160c05160e05161010051611e66620001b7600039600081816102750152610631015260008181610152015281816102ac015281816103210152610a7501526000818160ff0152610603015260008181610214015261051001526000818161023b01526104d20152611e666000f3fe608060405234801561001057600080fd5b50600436106100f55760003560e01c8063755d0c6311610097578063adaa7a0f11610066578063adaa7a0f14610236578063e058455d1461025d578063ed740e9714610270578063fe65947f1461029757600080fd5b8063755d0c63146101d357806380884dc6146101dc57806382532afd146101fc57806382975fe71461020f57600080fd5b8063362a5389116100d3578063362a53891461018c5780633e97c51014610195578063609a3280146101aa5780636c397850146101ca57600080fd5b80631ef261ba146100fa57806331223ba714610136578063343aad821461014d575b600080fd5b6101217f000000000000000000000000000000000000000000000000000000000000000081565b60405190151581526020015b60405180910390f35b61013f60005481565b60405190815260200161012d565b6101747f000000000000000000000000000000000000000000000000000000000000000081565b6040516001600160a01b03909116815260200161012d565b61013f60035481565b6101a86101a3366004611aec565b6102aa565b005b6101bd6101b8366004611aec565b6106f3565b60405161012d9190611b29565b61013f60015481565b61013f60045481565b61013f6101ea366004611b5b565b60026020526000908152604090205481565b6101a861020a366004611b84565b610803565b6101217f000000000000000000000000000000000000000000000000000000000000000081565b6101217f000000000000000000000000000000000000000000000000000000000000000081565b61013f61026b366004611c1d565b610b98565b6101747f000000000000000000000000000000000000000000000000000000000000000081565b61013f6102a5366004611aec565b610e0d565b7f00000000000000000000000000000000000000000000000000000000000000006001600160a01b03166338d45e106040518163ffffffff1660e01b8152600401600060405180830381600087803b15801561030557600080fd5b505af1158015610319573d6000803e3d6000fd5b5050505060007f00000000000000000000000000000000000000000000000000000000000000006001600160a01b031663127f0f076040518163ffffffff1660e01b815260040160c060405180830381865afa15801561037d573d6000803e3d6000fd5b505050506040513d601f19601f820116820180604052508101906103a19190611c6d565b825160a0820151919250146103fd5760405162461bcd60e51b815260206004820152601a60248201527f496e636f6e73697374656e74206d696e696e672064696765737400000000000060448201526064015b60405180910390fd5b7fc5d2460186f7233c927e7db2dcc703c0e500b653ca82273b7bfad8045d85a4708160a00151036104705760405162461bcd60e51b815260206004820152601960248201527f456d707479206469676573742063616e206e6f74206d696e650000000000000060448201526064016103f4565b6000548151116104b95760405162461bcd60e51b8152602060048201526014602482015273115c1bd8da081a185cc81899595b881b5a5b995960621b60448201526064016103f4565b80516000556104c88282610803565b6104d0611895565b7f000000000000000000000000000000000000000000000000000000000000000015610506576104ff836106f3565b905061050e565b506101008201515b7f0000000000000000000000000000000000000000000000000000000000000000156105975760006105408483610b98565b9050826040015181146105955760405162461bcd60e51b815260206004820152601860248201527f496e636f6e73697374656e74206d65726b6c6520726f6f74000000000000000060448201526064016103f4565b505b61059f611895565b905060006105ac84610e0d565b6001549091508111156106015760405162461bcd60e51b815260206004820152601b60248201527f446f206e6f7420726561636820746172676574207175616c697479000000000060448201526064016103f4565b7f0000000000000000000000000000000000000000000000000000000000000000156106ed576001600160a01b037f00000000000000000000000000000000000000000000000000000000000000001663ccec92c461010061066561040080611cfd565b61067190610400611cfd565b61067c906008611cfd565b6106869190611d32565b8660a001516106959190611d32565b6040516001600160e01b031960e084901b1681526004810191909152336024820152604401600060405180830381600087803b1580156106d457600080fd5b505af11580156106e8573d6000803e3d6000fd5b505050505b50505050565b6106fb611895565b60408281015160e084015160a08501518351602081019390935292820152606081019190915260800160408051808303601f1901815291905280516020909101206101008301515118815260015b60206107586104006004611cfd565b6107629190611d32565b8110156107fd5761010083015161077a600183611d5c565b6080811061078a5761078a611d46565b60200201516040516020016107a191815260200190565b6040516020818303038152906040528051906020012083610100015182608081106107ce576107ce611d46565b6020020151188282608081106107e6576107e6611d46565b60200201526107f6600182611d6f565b9050610749565b50919050565b600061010061081461040082611cfd565b61081e9190611d32565b61010061082d61040082611cfd565b6108379190611d32565b83606001516108469190611d32565b6108509190611cfd565b905080836080015184606001516108679190611d6f565b11156108ad5760405162461bcd60e51b81526020600482015260156024820152744d696e696e672072616e6765206f766572666c6f7760581b60448201526064016103f4565b6101006108bc61040080611cfd565b6108c890610400611cfd565b6108d490610400611cfd565b6108df906008611cfd565b6108e99190611d32565b836080015111156109345760405162461bcd60e51b81526020600482015260156024820152744d696e696e672072616e676520746f6f206c6f6e6760581b60448201526064016103f4565b61010061094361040080611cfd565b61094f90610400611cfd565b61095a906008611cfd565b6109649190611d32565b83606001516109739190611d82565b156109c05760405162461bcd60e51b815260206004820152601d60248201527f537461727420706f736974696f6e206973206e6f7420616c69676e656400000060448201526064016103f4565b6000610a07826101006109d561040080611cfd565b6109e190610400611cfd565b6109ed90610400611cfd565b6109f8906008611cfd565b610a029190611d32565b61151f565b90508084608001511015610a565760405162461bcd60e51b8152602060048201526016602482015275135a5b9a5b99c81c985b99d9481d1bdbc81cda1bdc9d60521b60448201526064016103f4565b60e0840151604051630fab20e160e31b81526000916001600160a01b037f00000000000000000000000000000000000000000000000000000000000000001691637d59070891610aac9160040190815260200190565b6040805180830381865afa158015610ac8573d6000803e3d6000fd5b505050506040513d601f19601f82011682018060405250810190610aec9190611dad565b90506000610100610b006104006004611cfd565b610b0a9190611d32565b8660a00151610b199190611d6f565b90508082600001516001600160801b0316108015610b4457508082602001516001600160801b031610155b610b905760405162461bcd60e51b815260206004820152601d60248201527f496e76616c6964207365616c656420636f6e746578742064696765737400000060448201526064016103f4565b505050505050565b6000805b6020610bab6104006004611cfd565b610bb59190611d32565b811015610c03576101006020820284012080848360808110610bd957610bd9611d46565b602002018181525050506020610100610bf29190611d32565b610bfc9082611d6f565b9050610b9c565b506000610c136020610100611d32565b90505b6020610c256104006004611cfd565b610c2f9190611d32565b811015610d025760005b6020610c486104006004611cfd565b610c529190611d32565b811015610cf9576000848260808110610c6d57610c6d611d46565b60200201519050600085610c818585611d6f565b60808110610c9157610c91611d46565b602002015190508181604051602001610cb4929190918252602082015260400190565b60405160208183030381529060405280519060200120868460808110610cdc57610cdc611d46565b602002015250610cf29050600183901b82611d6f565b9050610c39565b5060011b610c16565b508151610d0d611895565b92506000610100610d216104006004611cfd565b610d2b9190611d32565b8560a00151610d3a9190611d32565b905060005b85610120015151811015610e0157600080610d5b600285611d82565b600003610d8b578491508761012001518381518110610d7c57610d7c611d46565b60200260200101519050610db0565b8761012001518381518110610da257610da2611d46565b602002602001015191508490505b6040805160208101849052908101829052606001604051602081830303815290604052805190602001209450600284610de99190611d32565b93505050600181610dfa9190611d6f565b9050610d3f565b50909150505b92915050565b336000908152600260205260408082205490830151610e6e5760405162461bcd60e51b815260206004820152601760248201527f4d696e657220494420646f6573206e6f7420657869737400000000000000000060448201526064016103f4565b80836040015114610ec15760405162461bcd60e51b815260206004820152601860248201527f4d696e657220494420697320696e636f6e73697374656e74000000000000000060448201526064016103f4565b6040805160a0810182528281526020858101519082015284519181019190915260608085015190820152608080850151908201526000610f0082611537565b90506000610f116104006040611cfd565b610f1f610400610100611cfd565b610f299190611d32565b610f366104006004611cfd565b610f44610400610100611cfd565b610f4e9190611d32565b610f589190611d32565b8660c00151610f679190611d82565b9050610f71611895565b60005b82811015610fcf5760005b6040610f8e6104006004611cfd565b610f989190611d32565b811015610fbc57610fa8856115ca565b9450610fb5600182611d6f565b9050610f7f565b50610fc8600182611d6f565b9050610f74565b5060005b6020610fe26104006004611cfd565b610fec9190611d32565b81101561109657610ffc846115ca565b9350876101000151816080811061101557611015611d46565b602002015184511882826080811061102f5761102f611d46565b6020020152610100880151611045826001611d6f565b6080811061105557611055611d46565b60200201518460016020020151188261106f836001611d6f565b6080811061107f5761107f611d46565b602002015261108f600282611d6f565b9050610fd3565b5060006110a4836001611d6f565b90505b6110b46104006040611cfd565b6110c2610400610100611cfd565b6110cc9190611d32565b6110d96104006004611cfd565b6110e7610400610100611cfd565b6110f19190611d32565b6110fb9190611d32565b8110156111555760005b60406111146104006004611cfd565b61111e9190611d32565b8110156111425761112e856115ca565b945061113b600182611d6f565b9050611105565b5061114e600182611d6f565b90506110a7565b50600061010061116761040082611cfd565b6111719190611d32565b88608001516111809190611d32565b846040516020016111919190611e08565b6040516020818303038152906040528051906020012060001c6111b49190611d82565b90506101006111c66104006004611cfd565b6111d09190611d32565b8860c001516111df9190611cfd565b6101006111ee61040082611cfd565b6111f89190611d32565b6112029083611cfd565b89606001516112119190611d6f565b61121b9190611d6f565b8860a001511461126d5760405162461bcd60e51b815260206004820152601960248201527f496e636f727265637420726563616c6c20706f736974696f6e0000000000000060448201526064016103f4565b6112756118b4565b7f48c9bdf267e6096a3ba7ca8485ae67bb2bf894fe72f36e3cf1361d5f3af54fa581527fd182e6ad7f520e511f6c3e2b8c68059b6bbd41fbabd9831f79217e1319cde05b60208083019190915260c08a0151908a01518a516112e192849290918b919060806000611633565b60608a015160808b01519192506113019183919060008061010081611633565b905060005b6004602061131661040083611cfd565b6113209190611d32565b61132a9190611d5c565b8110156113d85761010060206004830102016113c28386846080811061135257611352611d46565b602002015187611363866001611d6f565b6080811061137357611373611d46565b602002015188611384876002611d6f565b6080811061139457611394611d46565b6020020151896113a5886003611d6f565b608081106113b5576113b5611d46565b6020020151866000611633565b92506113d19050600482611d6f565b9050611306565b506115078184600460206113ee61040083611cfd565b6113f89190611d32565b6114029190611d5c565b6080811061141257611412611d46565b60200201518560036020610400600461142b9190611cfd565b6114359190611d32565b61143f9190611d5c565b6080811061144f5761144f611d46565b6020020151866002602061040060046114689190611cfd565b6114729190611d32565b61147c9190611d5c565b6080811061148c5761148c611d46565b6020020151876001602061040060046114a59190611cfd565b6114af9190611d32565b6114b99190611d5c565b608081106114c9576114c9611d46565b6020020151602061040060046114df9190611cfd565b6114e99190611d32565b6114f4906020611cfd565b61150090610100611d6f565b6001611633565b9050611511611895565b505198975050505050505050565b600081831061152e5781611530565b825b9392505050565b61153f6118b4565b7f48c9bdf267e6096a3ba7ca8485ae67bb2bf894fe72f36e3cf1361d5f3af54fa581527fd182e6ad7f520e511f6c3e2b8c68059b6bbd41fbabd9831f79217e1319cde05b602080830191909152825190830151604084015160608501516115af9385939092909160806000611633565b9050610e078183600460200201516000808060a06001611633565b6115d26118b4565b7f48c9bdf267e6096a3ba7ca8485ae67bb2bf894fe72f36e3cf1361d5f3af54fa581527fd182e6ad7f520e511f6c3e2b8c68059b6bbd41fbabd9831f79217e1319cde05b602080830191909152825190830151610e07918391600080604060015b61163b6118b4565b600c6000611648856116f2565b8a516020808d0151835184830151604080516001600160e01b031960e08b901b168187015260248101969096526044860193909352606485018f9052608485018e905260a485018d905260c485018c90526001600160c01b031991821660e48601521660ec84015287151560f81b60f4840152805160d58185038101825260f5909401825293945091869184016009600019fa6116e457600080fd5b505050979650505050505050565b6116fa6118b4565b6201000082101561173e57600882811c66ffffffffffffff169083901b67ffffffffffffff00161760f01b5b6001600160c01b031916815260006020820152919050565b64010000000082101561177e57600882811b63ff00ff001662ff00ff9184901c9190911617601081811b91901c1760e01b6001600160e01b031916611726565b68010000000000000000821015611798576117268261182f565b600160801b8210156117e95767ffffffffffffffff8216604083901c6117bd8261182f565b6001600160c01b03191683526117d28161182f565b6001600160c01b03191660208401525061182a9050565b60405162461bcd60e51b8152602060048201526016602482015275626c616b65326220696e70757420746f6f206c6f6e6760501b60448201526064016103f4565b919050565b65ff000000ff00600882811b91821664ff000000ff9390911c92831617601090811b67ff000000ff0000009290921666ff000000ff0000939093169290921790911c17602081811b6bffffffffffffffff000000001691901c63ffffffff161760c01b90565b6040518061100001604052806080906020820280368337509192915050565b60405180604001604052806002906020820280368337509192915050565b634e487b7160e01b600052604160045260246000fd5b604051610140810167ffffffffffffffff8111828210171561190c5761190c6118d2565b60405290565b60405160c0810167ffffffffffffffff8111828210171561190c5761190c6118d2565b600082601f83011261194657600080fd5b60405161100080820182811067ffffffffffffffff8211171561196b5761196b6118d2565b6040528301818582111561197e57600080fd5b845b82811015611998578035825260209182019101611980565b509195945050505050565b600082601f8301126119b457600080fd5b8135602067ffffffffffffffff808311156119d1576119d16118d2565b8260051b604051601f19603f830116810181811084821117156119f6576119f66118d2565b604052938452858101830193838101925087851115611a1457600080fd5b83870191505b84821015611a3357813583529183019190830190611a1a565b979650505050505050565b60006111208284031215611a5157600080fd5b611a596118e8565b9050813581526020820135602082015260408201356040820152606082013560608201526080820135608082015260a082013560a082015260c082013560c082015260e082013560e0820152610100611ab484828501611935565b9082015261110082013567ffffffffffffffff811115611ad357600080fd5b611adf848285016119a3565b6101208301525092915050565b600060208284031215611afe57600080fd5b813567ffffffffffffffff811115611b1557600080fd5b611b2184828501611a3e565b949350505050565b6110008101818360005b6080811015611b52578151835260209283019290910190600101611b33565b50505092915050565b600060208284031215611b6d57600080fd5b81356001600160a01b038116811461153057600080fd5b60008082840360e0811215611b9857600080fd5b833567ffffffffffffffff811115611baf57600080fd5b611bbb86828701611a3e565b93505060c0601f1982011215611bd057600080fd5b50611bd9611912565b6020840135815260408401356020820152606084013560408201526080840135606082015260a0840135608082015260c084013560a0820152809150509250929050565b6000806110208385031215611c3157600080fd5b823567ffffffffffffffff811115611c4857600080fd5b611c5485828601611a3e565b925050611c648460208501611935565b90509250929050565b600060c08284031215611c7f57600080fd5b60405160c0810181811067ffffffffffffffff82111715611ca257611ca26118d2565b8060405250825181526020830151602082015260408301516040820152606083015160608201526080830151608082015260a083015160a08201528091505092915050565b634e487b7160e01b600052601160045260246000fd5b6000816000190483118215151615611d1757611d17611ce7565b500290565b634e487b7160e01b600052601260045260246000fd5b600082611d4157611d41611d1c565b500490565b634e487b7160e01b600052603260045260246000fd5b81810381811115610e0757610e07611ce7565b80820180821115610e0757610e07611ce7565b600082611d9157611d91611d1c565b500690565b80516001600160801b038116811461182a57600080fd5b600060408284031215611dbf57600080fd5b6040516040810181811067ffffffffffffffff82111715611de257611de26118d2565b604052611dee83611d96565b8152611dfc60208401611d96565b60208201529392505050565b60408101818360005b6002811015611b52578151835260209283019290910190600101611e1156fea2646970667358221220b31a1eeea9f73fe04bdbd99c091cb5951422cd62a002d65914390aca31fcb78064736f6c63430008100033",
  "linkReferences": {},
  "deployedLinkReferences": {}
}