{
  "_format": "hh-sol-artifact-1",
  "contractName": "PoraMine",
  "sourceName": "contracts/miner/Mine.sol",
  "abi": [
    {
      "inputs": [
        {
          "internalType": "address",
          "name": "book_",
          "type": "address"
        },
        {
          "internalType": "uint256",
          "name": "initRate",
          "type": "uint256"
        },
        {
          "internalType": "uint256",
          "name": "adjustRatio_",
          "type": "uint256"
        },
        {
          "internalType": "uint256",
          "name": "settings",
          "type": "uint256"
        }
      ],
      "stateMutability": "nonpayable",
      "type": "constructor"
    },
    {
      "inputs": [],
      "name": "adjustRatio",
      "outputs": [
        {
          "internalType": "uint256",
          "name": "",
          "type": "uint256"
        }
      ],
      "stateMutability": "view",
      "type": "function"
    },
    {
      "inputs": [
        {
          "components": [
            {
              "internalType": "bytes32",
              "name": "contextDigest",
              "type": "bytes32"
            },
            {
              "internalType": "bytes32",
              "name": "nonce",
              "type": "bytes32"
            },
            {
              "internalType": "bytes32",
              "name": "minerId",
              "type": "bytes32"
            },
            {
              "internalType": "uint256",
              "name": "startPosition",
              "type": "uint256"
            },
            {
              "internalType": "uint256",
              "name": "mineLength",
              "type": "uint256"
            },
            {
              "internalType": "uint256",
              "name": "recallPosition",
              "type": "uint256"
            },
            {
              "internalType": "uint256",
              "name": "sealOffset",
              "type": "uint256"
            },
            {
              "internalType": "bytes32",
              "name": "sealedContextDigest",
              "type": "bytes32"
            },
            {
              "internalType": "bytes32[128]",
              "name": "sealedData",
              "type": "bytes32[128]"
            },
            {
              "internalType": "bytes32[]",
              "name": "merkleProof",
              "type": "bytes32[]"
            }
          ],
          "internalType": "struct PoraMine.PoraAnswer",
          "name": "answer",
          "type": "tuple"
        },
        {
          "components": [
            {
              "internalType": "uint256",
              "name": "epoch",
              "type": "uint256"
            },
            {
              "internalType": "uint256",
              "name": "mineStart",
              "type": "uint256"
            },
            {
              "internalType": "bytes32",
              "name": "flowRoot",
              "type": "bytes32"
            },
            {
              "internalType": "uint256",
              "name": "flowLength",
              "type": "uint256"
            },
            {
              "internalType": "bytes32",
              "name": "blockDigest",
              "type": "bytes32"
            },
            {
              "internalType": "bytes32",
              "name": "digest",
              "type": "bytes32"
            }
          ],
          "internalType": "struct MineContext",
          "name": "context",
          "type": "tuple"
        }
      ],
      "name": "basicCheck",
      "outputs": [],
      "stateMutability": "view",
      "type": "function"
    },
    {
      "inputs": [],
      "name": "book",
      "outputs": [
        {
          "internalType": "contract AddressBook",
          "name": "",
          "type": "address"
        }
      ],
      "stateMutability": "view",
      "type": "function"
    },
    {
      "inputs": [],
      "name": "dataProofEnabled",
      "outputs": [
        {
          "internalType": "bool",
          "name": "",
          "type": "bool"
        }
      ],
      "stateMutability": "view",
      "type": "function"
    },
    {
      "inputs": [],
      "name": "fixedQuality",
      "outputs": [
        {
          "internalType": "bool",
          "name": "",
          "type": "bool"
        }
      ],
      "stateMutability": "view",
      "type": "function"
    },
    {
      "inputs": [],
      "name": "lastMinedEpoch",
      "outputs": [
        {
          "internalType": "uint256",
          "name": "",
          "type": "uint256"
        }
      ],
      "stateMutability": "view",
      "type": "function"
    },
    {
      "inputs": [
        {
          "internalType": "address",
          "name": "",
          "type": "address"
        }
      ],
      "name": "minerIds",
      "outputs": [
        {
          "internalType": "bytes32",
          "name": "",
          "type": "bytes32"
        }
      ],
      "stateMutability": "view",
      "type": "function"
    },
    {
      "inputs": [
        {
          "components": [
            {
              "internalType": "bytes32",
              "name": "contextDigest",
              "type": "bytes32"
            },
            {
              "internalType": "bytes32",
              "name": "nonce",
              "type": "bytes32"
            },
            {
              "internalType": "bytes32",
              "name": "minerId",
              "type": "bytes32"
            },
            {
              "internalType": "uint256",
              "name": "startPosition",
              "type": "uint256"
            },
            {
              "internalType": "uint256",
              "name": "mineLength",
              "type": "uint256"
            },
            {
              "internalType": "uint256",
              "name": "recallPosition",
              "type": "uint256"
            },
            {
              "internalType": "uint256",
              "name": "sealOffset",
              "type": "uint256"
            },
            {
              "internalType": "bytes32",
              "name": "sealedContextDigest",
              "type": "bytes32"
            },
            {
              "internalType": "bytes32[128]",
              "name": "sealedData",
              "type": "bytes32[128]"
            },
            {
              "internalType": "bytes32[]",
              "name": "merkleProof",
              "type": "bytes32[]"
            }
          ],
          "internalType": "struct PoraMine.PoraAnswer",
          "name": "answer",
          "type": "tuple"
        }
      ],
      "name": "pora",
      "outputs": [
        {
          "internalType": "bytes32",
          "name": "",
          "type": "bytes32"
        }
      ],
      "stateMutability": "view",
      "type": "function"
    },
    {
      "inputs": [
        {
          "components": [
            {
              "internalType": "bytes32",
              "name": "contextDigest",
              "type": "bytes32"
            },
            {
              "internalType": "bytes32",
              "name": "nonce",
              "type": "bytes32"
            },
            {
              "internalType": "bytes32",
              "name": "minerId",
              "type": "bytes32"
            },
            {
              "internalType": "uint256",
              "name": "startPosition",
              "type": "uint256"
            },
            {
              "internalType": "uint256",
              "name": "mineLength",
              "type": "uint256"
            },
            {
              "internalType": "uint256",
              "name": "recallPosition",
              "type": "uint256"
            },
            {
              "internalType": "uint256",
              "name": "sealOffset",
              "type": "uint256"
            },
            {
              "internalType": "bytes32",
              "name": "sealedContextDigest",
              "type": "bytes32"
            },
            {
              "internalType": "bytes32[128]",
              "name": "sealedData",
              "type": "bytes32[128]"
            },
            {
              "internalType": "bytes32[]",
              "name": "merkleProof",
              "type": "bytes32[]"
            }
          ],
          "internalType": "struct PoraMine.PoraAnswer",
          "name": "answer",
          "type": "tuple"
        },
        {
          "internalType": "bytes32[128]",
          "name": "unsealedData",
          "type": "bytes32[128]"
        }
      ],
      "name": "recoverMerkleRoot",
      "outputs": [
        {
          "internalType": "bytes32",
          "name": "",
          "type": "bytes32"
        }
      ],
      "stateMutability": "pure",
      "type": "function"
    },
    {
      "inputs": [
        {
          "internalType": "bytes32",
          "name": "minerId",
          "type": "bytes32"
        }
      ],
      "name": "registMiner",
      "outputs": [],
      "stateMutability": "nonpayable",
      "type": "function"
    },
    {
      "inputs": [],
      "name": "sealDataEnabled",
      "outputs": [
        {
          "internalType": "bool",
          "name": "",
          "type": "bool"
        }
      ],
      "stateMutability": "view",
      "type": "function"
    },
    {
      "inputs": [
        {
          "components": [
            {
              "internalType": "bytes32",
              "name": "contextDigest",
              "type": "bytes32"
            },
            {
              "internalType": "bytes32",
              "name": "nonce",
              "type": "bytes32"
            },
            {
              "internalType": "bytes32",
              "name": "minerId",
              "type": "bytes32"
            },
            {
              "internalType": "uint256",
              "name": "startPosition",
              "type": "uint256"
            },
            {
              "internalType": "uint256",
              "name": "mineLength",
              "type": "uint256"
            },
            {
              "internalType": "uint256",
              "name": "recallPosition",
              "type": "uint256"
            },
            {
              "internalType": "uint256",
              "name": "sealOffset",
              "type": "uint256"
            },
            {
              "internalType": "bytes32",
              "name": "sealedContextDigest",
              "type": "bytes32"
            },
            {
              "internalType": "bytes32[128]",
              "name": "sealedData",
              "type": "bytes32[128]"
            },
            {
              "internalType": "bytes32[]",
              "name": "merkleProof",
              "type": "bytes32[]"
            }
          ],
          "internalType": "struct PoraMine.PoraAnswer",
          "name": "answer",
          "type": "tuple"
        }
      ],
      "name": "submit",
      "outputs": [],
      "stateMutability": "nonpayable",
      "type": "function"
    },
    {
      "inputs": [],
      "name": "targetQuality",
      "outputs": [
        {
          "internalType": "uint256",
          "name": "",
          "type": "uint256"
        }
      ],
      "stateMutability": "view",
      "type": "function"
    },
    {
      "inputs": [
        {
          "components": [
            {
              "internalType": "bytes32",
              "name": "contextDigest",
              "type": "bytes32"
            },
            {
              "internalType": "bytes32",
              "name": "nonce",
              "type": "bytes32"
            },
            {
              "internalType": "bytes32",
              "name": "minerId",
              "type": "bytes32"
            },
            {
              "internalType": "uint256",
              "name": "startPosition",
              "type": "uint256"
            },
            {
              "internalType": "uint256",
              "name": "mineLength",
              "type": "uint256"
            },
            {
              "internalType": "uint256",
              "name": "recallPosition",
              "type": "uint256"
            },
            {
              "internalType": "uint256",
              "name": "sealOffset",
              "type": "uint256"
            },
            {
              "internalType": "bytes32",
              "name": "sealedContextDigest",
              "type": "bytes32"
            },
            {
              "internalType": "bytes32[128]",
              "name": "sealedData",
              "type": "bytes32[128]"
            },
            {
              "internalType": "bytes32[]",
              "name": "merkleProof",
              "type": "bytes32[]"
            }
          ],
          "internalType": "struct PoraMine.PoraAnswer",
          "name": "answer",
          "type": "tuple"
        }
      ],
      "name": "unseal",
      "outputs": [
        {
          "internalType": "bytes32[128]",
          "name": "unsealedData",
          "type": "bytes32[128]"
        }
      ],
      "stateMutability": "pure",
      "type": "function"
    }
  ],
  "bytecode": "0x61010060405260006001553480156200001757600080fd5b50604051620022e8380380620022e88339810160408190526200003a916200009a565b61012c6200004b84600019620000e7565b620000579190620000e7565b60029081556000839055600182161560805281161560a0526004811615801560c05262000085576000196002555b5050506001600160a01b031660e0526200010a565b60008060008060808587031215620000b157600080fd5b84516001600160a01b0381168114620000c957600080fd5b60208601516040870151606090970151919890975090945092505050565b6000826200010557634e487b7160e01b600052601260045260246000fd5b500490565b60805160a05160c05160e051612174620001746000396000818160f401528181610303015281816106c70152610b5901526000818161024d01526106990152600081816101dc01526105a601526000818161021301528181610284015261056801526121746000f3fe608060405234801561001057600080fd5b50600436106100ea5760003560e01c806380884dc61161008c578063adaa7a0f11610066578063adaa7a0f1461020e578063e058455d14610235578063e0ba728014610248578063fe65947f1461026f57600080fd5b806380884dc6146101a457806382532afd146101c457806382975fe7146101d757600080fd5b80633e97c510116100c85780633e97c5101461015f57806359b4a3f314610172578063609a32801461017b5780636c3978501461019b57600080fd5b806305a8da72146100ef57806311c2f7c61461013357806331223ba714610148575b600080fd5b6101167f000000000000000000000000000000000000000000000000000000000000000081565b6040516001600160a01b0390911681526020015b60405180910390f35b610146610141366004611ba1565b610282565b005b61015160015481565b60405190815260200161012a565b61014661016d366004611dd4565b6102ff565b61015160005481565b61018e610189366004611dd4565b6107f2565b60405161012a9190611e11565b61015160025481565b6101516101b2366004611e58565b60036020526000908152604090205481565b6101466101d2366004611e75565b610902565b6101fe7f000000000000000000000000000000000000000000000000000000000000000081565b604051901515815260200161012a565b6101fe7f000000000000000000000000000000000000000000000000000000000000000081565b610151610243366004611f0e565b610cf6565b6101fe7f000000000000000000000000000000000000000000000000000000000000000081565b61015161027d366004611dd4565b610f6b565b7f00000000000000000000000000000000000000000000000000000000000000006102b95733600090815260036020526040902055565b60405162461bcd60e51b8152602060048201526013602482015272139bdd081a5b5c1b195b595b9d1959081e595d606a1b60448201526064015b60405180910390fd5b50565b60007f00000000000000000000000000000000000000000000000000000000000000006001600160a01b031663343aad826040518163ffffffff1660e01b8152600401602060405180830381865afa15801561035f573d6000803e3d6000fd5b505050506040513d601f19601f820116820180604052508101906103839190611f5e565b9050806001600160a01b03166338d45e106040518163ffffffff1660e01b8152600401600060405180830381600087803b1580156103c057600080fd5b505af11580156103d4573d6000803e3d6000fd5b505050506000816001600160a01b031663127f0f076040518163ffffffff1660e01b815260040160c060405180830381865afa158015610418573d6000803e3d6000fd5b505050506040513d601f19601f8201168201806040525081019061043c9190611f7b565b835160a0820151919250146104935760405162461bcd60e51b815260206004820152601a60248201527f496e636f6e73697374656e74206d696e696e672064696765737400000000000060448201526064016102f3565b7fc5d2460186f7233c927e7db2dcc703c0e500b653ca82273b7bfad8045d85a4708160a00151036105065760405162461bcd60e51b815260206004820152601960248201527f456d707479206469676573742063616e206e6f74206d696e650000000000000060448201526064016102f3565b60015481511161054f5760405162461bcd60e51b8152602060048201526014602482015273115c1bd8da081a185cc81899595b881b5a5b995960621b60448201526064016102f3565b805160015561055e8382610902565b610566611b64565b7f00000000000000000000000000000000000000000000000000000000000000001561059c57610595846107f2565b90506105a4565b506101008301515b7f00000000000000000000000000000000000000000000000000000000000000001561062d5760006105d68583610cf6565b90508260400151811461062b5760405162461bcd60e51b815260206004820152601860248201527f496e636f6e73697374656e74206d65726b6c6520726f6f74000000000000000060448201526064016102f3565b505b610635611b64565b9050600061064285610f6b565b6002549091508111156106975760405162461bcd60e51b815260206004820152601b60248201527f446f206e6f7420726561636820746172676574207175616c697479000000000060448201526064016102f3565b7f00000000000000000000000000000000000000000000000000000000000000006106c5576106c58361167d565b7f00000000000000000000000000000000000000000000000000000000000000006001600160a01b031663228cb7336040518163ffffffff1660e01b8152600401602060405180830381865afa158015610723573d6000803e3d6000fd5b505050506040513d601f19601f820116820180604052508101906107479190611f5e565b6001600160a01b031663ccec92c46101006107646104008061200b565b6107709061040061200b565b61077b90600861200b565b6107859190612040565b8760a001516107949190612040565b6040516001600160e01b031960e084901b1681526004810191909152336024820152604401600060405180830381600087803b1580156107d357600080fd5b505af11580156107e7573d6000803e3d6000fd5b505050505050505050565b6107fa611b64565b60408281015160e084015160a08501518351602081019390935292820152606081019190915260800160408051808303601f1901815291905280516020909101206101008301515118815260015b6020610857610400600461200b565b6108619190612040565b8110156108fc5761010083015161087960018361206a565b6080811061088957610889612054565b60200201516040516020016108a091815260200190565b6040516020818303038152906040528051906020012083610100015182608081106108cd576108cd612054565b6020020151188282608081106108e5576108e5612054565b60200201526108f560018261207d565b9050610848565b50919050565b60006101006109136104008261200b565b61091d9190612040565b61010061092c6104008261200b565b6109369190612040565b83606001516109459190612040565b61094f919061200b565b90508083608001518460600151610966919061207d565b11156109ac5760405162461bcd60e51b81526020600482015260156024820152744d696e696e672072616e6765206f766572666c6f7760581b60448201526064016102f3565b6101006109bb6104008061200b565b6109c79061040061200b565b6109d39061040061200b565b6109de90600861200b565b6109e89190612040565b83608001511115610a335760405162461bcd60e51b81526020600482015260156024820152744d696e696e672072616e676520746f6f206c6f6e6760581b60448201526064016102f3565b610100610a426104008061200b565b610a4e9061040061200b565b610a5990600861200b565b610a639190612040565b8360600151610a729190612090565b15610abf5760405162461bcd60e51b815260206004820152601d60248201527f537461727420706f736974696f6e206973206e6f7420616c69676e656400000060448201526064016102f3565b6000610b0682610100610ad46104008061200b565b610ae09061040061200b565b610aec9061040061200b565b610af790600861200b565b610b019190612040565b611740565b90508084608001511015610b555760405162461bcd60e51b8152602060048201526016602482015275135a5b9a5b99c81c985b99d9481d1bdbc81cda1bdc9d60521b60448201526064016102f3565b60007f00000000000000000000000000000000000000000000000000000000000000006001600160a01b031663343aad826040518163ffffffff1660e01b8152600401602060405180830381865afa158015610bb5573d6000803e3d6000fd5b505050506040513d601f19601f82011682018060405250810190610bd99190611f5e565b6001600160a01b0316637d5907088660e001516040518263ffffffff1660e01b8152600401610c0a91815260200190565b6040805180830381865afa158015610c26573d6000803e3d6000fd5b505050506040513d601f19601f82011682018060405250810190610c4a91906120bb565b90506000610100610c5e610400600461200b565b610c689190612040565b8660a00151610c77919061207d565b90508082600001516001600160801b0316108015610ca257508082602001516001600160801b031610155b610cee5760405162461bcd60e51b815260206004820152601d60248201527f496e76616c6964207365616c656420636f6e746578742064696765737400000060448201526064016102f3565b505050505050565b6000805b6020610d09610400600461200b565b610d139190612040565b811015610d61576101006020820284012080848360808110610d3757610d37612054565b602002018181525050506020610100610d509190612040565b610d5a908261207d565b9050610cfa565b506000610d716020610100612040565b90505b6020610d83610400600461200b565b610d8d9190612040565b811015610e605760005b6020610da6610400600461200b565b610db09190612040565b811015610e57576000848260808110610dcb57610dcb612054565b60200201519050600085610ddf858561207d565b60808110610def57610def612054565b602002015190508181604051602001610e12929190918252602082015260400190565b60405160208183030381529060405280519060200120868460808110610e3a57610e3a612054565b602002015250610e509050600183901b8261207d565b9050610d97565b5060011b610d74565b508151610e6b611b64565b92506000610100610e7f610400600461200b565b610e899190612040565b8560a00151610e989190612040565b905060005b85610120015151811015610f5f57600080610eb9600285612090565b600003610ee9578491508761012001518381518110610eda57610eda612054565b60200260200101519050610f0e565b8761012001518381518110610f0057610f00612054565b602002602001015191508490505b6040805160208101849052908101829052606001604051602081830303815290604052805190602001209450600284610f479190612040565b93505050600181610f58919061207d565b9050610e9d565b50909150505b92915050565b336000908152600360205260408082205490830151610fcc5760405162461bcd60e51b815260206004820152601760248201527f4d696e657220494420646f6573206e6f7420657869737400000000000000000060448201526064016102f3565b8083604001511461101f5760405162461bcd60e51b815260206004820152601860248201527f4d696e657220494420697320696e636f6e73697374656e74000000000000000060448201526064016102f3565b6040805160a081018252828152602085810151908201528451918101919091526060808501519082015260808085015190820152600061105e82611758565b9050600061106f610400604061200b565b61107d61040061010061200b565b6110879190612040565b611094610400600461200b565b6110a261040061010061200b565b6110ac9190612040565b6110b69190612040565b8660c001516110c59190612090565b90506110cf611b64565b60005b8281101561112d5760005b60406110ec610400600461200b565b6110f69190612040565b81101561111a57611106856117eb565b945061111360018261207d565b90506110dd565b5061112660018261207d565b90506110d2565b5060005b6020611140610400600461200b565b61114a9190612040565b8110156111f45761115a846117eb565b9350876101000151816080811061117357611173612054565b602002015184511882826080811061118d5761118d612054565b60200201526101008801516111a382600161207d565b608081106111b3576111b3612054565b6020020151846001602002015118826111cd83600161207d565b608081106111dd576111dd612054565b60200201526111ed60028261207d565b9050611131565b50600061120283600161207d565b90505b611212610400604061200b565b61122061040061010061200b565b61122a9190612040565b611237610400600461200b565b61124561040061010061200b565b61124f9190612040565b6112599190612040565b8110156112b35760005b6040611272610400600461200b565b61127c9190612040565b8110156112a05761128c856117eb565b945061129960018261207d565b9050611263565b506112ac60018261207d565b9050611205565b5060006101006112c56104008261200b565b6112cf9190612040565b88608001516112de9190612040565b846040516020016112ef9190612116565b6040516020818303038152906040528051906020012060001c6113129190612090565b9050610100611324610400600461200b565b61132e9190612040565b8860c0015161133d919061200b565b61010061134c6104008261200b565b6113569190612040565b611360908361200b565b896060015161136f919061207d565b611379919061207d565b8860a00151146113cb5760405162461bcd60e51b815260206004820152601960248201527f496e636f727265637420726563616c6c20706f736974696f6e0000000000000060448201526064016102f3565b6113d3611b83565b7f48c9bdf267e6096a3ba7ca8485ae67bb2bf894fe72f36e3cf1361d5f3af54fa581527fd182e6ad7f520e511f6c3e2b8c68059b6bbd41fbabd9831f79217e1319cde05b60208083019190915260c08a0151908a01518a5161143f92849290918b919060806000611854565b60608a015160808b015191925061145f9183919060008061010081611854565b905060005b600460206114746104008361200b565b61147e9190612040565b611488919061206a565b811015611536576101006020600483010201611520838684608081106114b0576114b0612054565b6020020151876114c186600161207d565b608081106114d1576114d1612054565b6020020151886114e287600261207d565b608081106114f2576114f2612054565b60200201518961150388600361207d565b6080811061151357611513612054565b6020020151866000611854565b925061152f905060048261207d565b9050611464565b5061166581846004602061154c6104008361200b565b6115569190612040565b611560919061206a565b6080811061157057611570612054565b602002015185600360206104006004611589919061200b565b6115939190612040565b61159d919061206a565b608081106115ad576115ad612054565b6020020151866002602061040060046115c6919061200b565b6115d09190612040565b6115da919061206a565b608081106115ea576115ea612054565b602002015187600160206104006004611603919061200b565b61160d9190612040565b611617919061206a565b6080811061162757611627612054565b60200201516020610400600461163d919061200b565b6116479190612040565b61165290602061200b565b61165e9061010061207d565b6001611854565b905061166f611b64565b505198975050505050505050565b600081602001514361168f919061206a565b60025490915060101c60006116a7828461012c611913565b90506014600081836116ba60018361206a565b6116c4908761200b565b6116ce919061207d565b6116d89190612040565b90506116e584600261200b565b8111156116fa576116f784600261200b565b90505b611705600285612040565b81101561171a57611717600285612040565b90505b6001600160f01b0381111561173357506001600160f01b035b60101b6002555050505050565b600081831061174f5781611751565b825b9392505050565b611760611b83565b7f48c9bdf267e6096a3ba7ca8485ae67bb2bf894fe72f36e3cf1361d5f3af54fa581527fd182e6ad7f520e511f6c3e2b8c68059b6bbd41fbabd9831f79217e1319cde05b602080830191909152825190830151604084015160608501516117d09385939092909160806000611854565b9050610f658183600460200201516000808060a06001611854565b6117f3611b83565b7f48c9bdf267e6096a3ba7ca8485ae67bb2bf894fe72f36e3cf1361d5f3af54fa581527fd182e6ad7f520e511f6c3e2b8c68059b6bbd41fbabd9831f79217e1319cde05b602080830191909152825190830151610f65918391600080604060015b61185c611b83565b600c6000611869856119c1565b8a516020808d0151835184830151604080516001600160e01b031960e08b901b168187015260248101969096526044860193909352606485018f9052608485018e905260a485018d905260c485018c90526001600160c01b031991821660e48601521660ec84015287151560f81b60f4840152805160d58185038101825260f5909401825293945091869184016009600019fa61190557600080fd5b505050979650505050505050565b600080806000198587098587029250828110838203039150508060000361194d578382816119435761194361202a565b0492505050611751565b80841161195957600080fd5b600084868809600260036001881981018916988990049182028318808302840302808302840302808302840302808302840302808302840302918202909203026000889003889004909101858311909403939093029303949094049190911702949350505050565b6119c9611b83565b62010000821015611a0d57600882811c66ffffffffffffff169083901b67ffffffffffffff00161760f01b5b6001600160c01b031916815260006020820152919050565b640100000000821015611a4d57600882811b63ff00ff001662ff00ff9184901c9190911617601081811b91901c1760e01b6001600160e01b0319166119f5565b68010000000000000000821015611a67576119f582611afe565b600160801b821015611ab85767ffffffffffffffff8216604083901c611a8c82611afe565b6001600160c01b0319168352611aa181611afe565b6001600160c01b031916602084015250611af99050565b60405162461bcd60e51b8152602060048201526016602482015275626c616b65326220696e70757420746f6f206c6f6e6760501b60448201526064016102f3565b919050565b65ff000000ff00600882811b91821664ff000000ff9390911c92831617601090811b67ff000000ff0000009290921666ff000000ff0000939093169290921790911c17602081811b6bffffffffffffffff000000001691901c63ffffffff161760c01b90565b6040518061100001604052806080906020820280368337509192915050565b60405180604001604052806002906020820280368337509192915050565b600060208284031215611bb357600080fd5b5035919050565b634e487b7160e01b600052604160045260246000fd5b604051610140810167ffffffffffffffff81118282101715611bf457611bf4611bba565b60405290565b60405160c0810167ffffffffffffffff81118282101715611bf457611bf4611bba565b600082601f830112611c2e57600080fd5b60405161100080820182811067ffffffffffffffff82111715611c5357611c53611bba565b60405283018185821115611c6657600080fd5b845b82811015611c80578035825260209182019101611c68565b509195945050505050565b600082601f830112611c9c57600080fd5b8135602067ffffffffffffffff80831115611cb957611cb9611bba565b8260051b604051601f19603f83011681018181108482111715611cde57611cde611bba565b604052938452858101830193838101925087851115611cfc57600080fd5b83870191505b84821015611d1b57813583529183019190830190611d02565b979650505050505050565b60006111208284031215611d3957600080fd5b611d41611bd0565b9050813581526020820135602082015260408201356040820152606082013560608201526080820135608082015260a082013560a082015260c082013560c082015260e082013560e0820152610100611d9c84828501611c1d565b9082015261110082013567ffffffffffffffff811115611dbb57600080fd5b611dc784828501611c8b565b6101208301525092915050565b600060208284031215611de657600080fd5b813567ffffffffffffffff811115611dfd57600080fd5b611e0984828501611d26565b949350505050565b6110008101818360005b6080811015611e3a578151835260209283019290910190600101611e1b565b50505092915050565b6001600160a01b03811681146102fc57600080fd5b600060208284031215611e6a57600080fd5b813561175181611e43565b60008082840360e0811215611e8957600080fd5b833567ffffffffffffffff811115611ea057600080fd5b611eac86828701611d26565b93505060c0601f1982011215611ec157600080fd5b50611eca611bfa565b6020840135815260408401356020820152606084013560408201526080840135606082015260a0840135608082015260c084013560a0820152809150509250929050565b6000806110208385031215611f2257600080fd5b823567ffffffffffffffff811115611f3957600080fd5b611f4585828601611d26565b925050611f558460208501611c1d565b90509250929050565b600060208284031215611f7057600080fd5b815161175181611e43565b600060c08284031215611f8d57600080fd5b60405160c0810181811067ffffffffffffffff82111715611fb057611fb0611bba565b8060405250825181526020830151602082015260408301516040820152606083015160608201526080830151608082015260a083015160a08201528091505092915050565b634e487b7160e01b600052601160045260246000fd5b600081600019048311821515161561202557612025611ff5565b500290565b634e487b7160e01b600052601260045260246000fd5b60008261204f5761204f61202a565b500490565b634e487b7160e01b600052603260045260246000fd5b81810381811115610f6557610f65611ff5565b80820180821115610f6557610f65611ff5565b60008261209f5761209f61202a565b500690565b80516001600160801b0381168114611af957600080fd5b6000604082840312156120cd57600080fd5b6040516040810181811067ffffffffffffffff821117156120f0576120f0611bba565b6040526120fc836120a4565b815261210a602084016120a4565b60208201529392505050565b60408101818360005b6002811015611e3a57815183526020928301929091019060010161211f56fea264697066735822122046e522c9962d700291a8a6666ad105aca8689ba65e0227a6777d421769a62a2f64736f6c63430008100033",
  "linkReferences": {},
  "deployedLinkReferences": {}
}