{
  "_format": "hh-sol-artifact-1",
  "contractName": "PoraMine",
  "sourceName": "contracts/miner/Mine.sol",
  "abi": [
    {
      "inputs": [
        {
          "internalType": "address",
          "name": "book_",
          "type": "address"
        },
        {
          "internalType": "uint256",
          "name": "settings",
          "type": "uint256"
        }
      ],
      "stateMutability": "nonpayable",
      "type": "constructor"
    },
    {
      "inputs": [
        {
          "components": [
            {
              "internalType": "bytes32",
              "name": "contextDigest",
              "type": "bytes32"
            },
            {
              "internalType": "bytes32",
              "name": "nonce",
              "type": "bytes32"
            },
            {
              "internalType": "bytes32",
              "name": "minerId",
              "type": "bytes32"
            },
            {
              "internalType": "uint256",
              "name": "startPosition",
              "type": "uint256"
            },
            {
              "internalType": "uint256",
              "name": "mineLength",
              "type": "uint256"
            },
            {
              "internalType": "uint256",
              "name": "recallPosition",
              "type": "uint256"
            },
            {
              "internalType": "uint256",
              "name": "sealOffset",
              "type": "uint256"
            },
            {
              "internalType": "bytes32",
              "name": "sealedContextDigest",
              "type": "bytes32"
            },
            {
              "internalType": "bytes32[128]",
              "name": "sealedData",
              "type": "bytes32[128]"
            },
            {
              "internalType": "bytes32[]",
              "name": "merkleProof",
              "type": "bytes32[]"
            }
          ],
          "internalType": "struct PoraMine.PoraAnswer",
          "name": "answer",
          "type": "tuple"
        },
        {
          "components": [
            {
              "internalType": "uint256",
              "name": "epoch",
              "type": "uint256"
            },
            {
              "internalType": "uint256",
              "name": "mineStart",
              "type": "uint256"
            },
            {
              "internalType": "bytes32",
              "name": "flowRoot",
              "type": "bytes32"
            },
            {
              "internalType": "uint256",
              "name": "flowLength",
              "type": "uint256"
            },
            {
              "internalType": "bytes32",
              "name": "blockDigest",
              "type": "bytes32"
            },
            {
              "internalType": "bytes32",
              "name": "digest",
              "type": "bytes32"
            }
          ],
          "internalType": "struct MineContext",
          "name": "context",
          "type": "tuple"
        }
      ],
      "name": "basicCheck",
      "outputs": [],
      "stateMutability": "view",
      "type": "function"
    },
    {
      "inputs": [],
      "name": "book",
      "outputs": [
        {
          "internalType": "contract AddressBook",
          "name": "",
          "type": "address"
        }
      ],
      "stateMutability": "view",
      "type": "function"
    },
    {
      "inputs": [],
      "name": "dataProofEnabled",
      "outputs": [
        {
          "internalType": "bool",
          "name": "",
          "type": "bool"
        }
      ],
      "stateMutability": "view",
      "type": "function"
    },
    {
      "inputs": [],
      "name": "lastMinedEpoch",
      "outputs": [
        {
          "internalType": "uint256",
          "name": "",
          "type": "uint256"
        }
      ],
      "stateMutability": "view",
      "type": "function"
    },
    {
      "inputs": [
        {
          "internalType": "address",
          "name": "",
          "type": "address"
        }
      ],
      "name": "minerIds",
      "outputs": [
        {
          "internalType": "bytes32",
          "name": "",
          "type": "bytes32"
        }
      ],
      "stateMutability": "view",
      "type": "function"
    },
    {
      "inputs": [
        {
          "components": [
            {
              "internalType": "bytes32",
              "name": "contextDigest",
              "type": "bytes32"
            },
            {
              "internalType": "bytes32",
              "name": "nonce",
              "type": "bytes32"
            },
            {
              "internalType": "bytes32",
              "name": "minerId",
              "type": "bytes32"
            },
            {
              "internalType": "uint256",
              "name": "startPosition",
              "type": "uint256"
            },
            {
              "internalType": "uint256",
              "name": "mineLength",
              "type": "uint256"
            },
            {
              "internalType": "uint256",
              "name": "recallPosition",
              "type": "uint256"
            },
            {
              "internalType": "uint256",
              "name": "sealOffset",
              "type": "uint256"
            },
            {
              "internalType": "bytes32",
              "name": "sealedContextDigest",
              "type": "bytes32"
            },
            {
              "internalType": "bytes32[128]",
              "name": "sealedData",
              "type": "bytes32[128]"
            },
            {
              "internalType": "bytes32[]",
              "name": "merkleProof",
              "type": "bytes32[]"
            }
          ],
          "internalType": "struct PoraMine.PoraAnswer",
          "name": "answer",
          "type": "tuple"
        }
      ],
      "name": "pora",
      "outputs": [
        {
          "internalType": "bytes32",
          "name": "",
          "type": "bytes32"
        }
      ],
      "stateMutability": "view",
      "type": "function"
    },
    {
      "inputs": [
        {
          "components": [
            {
              "internalType": "bytes32",
              "name": "contextDigest",
              "type": "bytes32"
            },
            {
              "internalType": "bytes32",
              "name": "nonce",
              "type": "bytes32"
            },
            {
              "internalType": "bytes32",
              "name": "minerId",
              "type": "bytes32"
            },
            {
              "internalType": "uint256",
              "name": "startPosition",
              "type": "uint256"
            },
            {
              "internalType": "uint256",
              "name": "mineLength",
              "type": "uint256"
            },
            {
              "internalType": "uint256",
              "name": "recallPosition",
              "type": "uint256"
            },
            {
              "internalType": "uint256",
              "name": "sealOffset",
              "type": "uint256"
            },
            {
              "internalType": "bytes32",
              "name": "sealedContextDigest",
              "type": "bytes32"
            },
            {
              "internalType": "bytes32[128]",
              "name": "sealedData",
              "type": "bytes32[128]"
            },
            {
              "internalType": "bytes32[]",
              "name": "merkleProof",
              "type": "bytes32[]"
            }
          ],
          "internalType": "struct PoraMine.PoraAnswer",
          "name": "answer",
          "type": "tuple"
        },
        {
          "internalType": "bytes32[128]",
          "name": "unsealedData",
          "type": "bytes32[128]"
        }
      ],
      "name": "recoverMerkleRoot",
      "outputs": [
        {
          "internalType": "bytes32",
          "name": "",
          "type": "bytes32"
        }
      ],
      "stateMutability": "pure",
      "type": "function"
    },
    {
      "inputs": [],
      "name": "sealDataEnabled",
      "outputs": [
        {
          "internalType": "bool",
          "name": "",
          "type": "bool"
        }
      ],
      "stateMutability": "view",
      "type": "function"
    },
    {
      "inputs": [
        {
          "components": [
            {
              "internalType": "bytes32",
              "name": "contextDigest",
              "type": "bytes32"
            },
            {
              "internalType": "bytes32",
              "name": "nonce",
              "type": "bytes32"
            },
            {
              "internalType": "bytes32",
              "name": "minerId",
              "type": "bytes32"
            },
            {
              "internalType": "uint256",
              "name": "startPosition",
              "type": "uint256"
            },
            {
              "internalType": "uint256",
              "name": "mineLength",
              "type": "uint256"
            },
            {
              "internalType": "uint256",
              "name": "recallPosition",
              "type": "uint256"
            },
            {
              "internalType": "uint256",
              "name": "sealOffset",
              "type": "uint256"
            },
            {
              "internalType": "bytes32",
              "name": "sealedContextDigest",
              "type": "bytes32"
            },
            {
              "internalType": "bytes32[128]",
              "name": "sealedData",
              "type": "bytes32[128]"
            },
            {
              "internalType": "bytes32[]",
              "name": "merkleProof",
              "type": "bytes32[]"
            }
          ],
          "internalType": "struct PoraMine.PoraAnswer",
          "name": "answer",
          "type": "tuple"
        }
      ],
      "name": "submit",
      "outputs": [],
      "stateMutability": "nonpayable",
      "type": "function"
    },
    {
      "inputs": [],
      "name": "targetQuality",
      "outputs": [
        {
          "internalType": "uint256",
          "name": "",
          "type": "uint256"
        }
      ],
      "stateMutability": "view",
      "type": "function"
    },
    {
      "inputs": [],
      "name": "totalMiningTime",
      "outputs": [
        {
          "internalType": "uint256",
          "name": "",
          "type": "uint256"
        }
      ],
      "stateMutability": "view",
      "type": "function"
    },
    {
      "inputs": [],
      "name": "totalSubmission",
      "outputs": [
        {
          "internalType": "uint256",
          "name": "",
          "type": "uint256"
        }
      ],
      "stateMutability": "view",
      "type": "function"
    },
    {
      "inputs": [
        {
          "components": [
            {
              "internalType": "bytes32",
              "name": "contextDigest",
              "type": "bytes32"
            },
            {
              "internalType": "bytes32",
              "name": "nonce",
              "type": "bytes32"
            },
            {
              "internalType": "bytes32",
              "name": "minerId",
              "type": "bytes32"
            },
            {
              "internalType": "uint256",
              "name": "startPosition",
              "type": "uint256"
            },
            {
              "internalType": "uint256",
              "name": "mineLength",
              "type": "uint256"
            },
            {
              "internalType": "uint256",
              "name": "recallPosition",
              "type": "uint256"
            },
            {
              "internalType": "uint256",
              "name": "sealOffset",
              "type": "uint256"
            },
            {
              "internalType": "bytes32",
              "name": "sealedContextDigest",
              "type": "bytes32"
            },
            {
              "internalType": "bytes32[128]",
              "name": "sealedData",
              "type": "bytes32[128]"
            },
            {
              "internalType": "bytes32[]",
              "name": "merkleProof",
              "type": "bytes32[]"
            }
          ],
          "internalType": "struct PoraMine.PoraAnswer",
          "name": "answer",
          "type": "tuple"
        }
      ],
      "name": "unseal",
      "outputs": [
        {
          "internalType": "bytes32[128]",
          "name": "unsealedData",
          "type": "bytes32[128]"
        }
      ],
      "stateMutability": "pure",
      "type": "function"
    }
  ],
  "bytecode": "0x60e06040526000805534801561001457600080fd5b50604051611fdf380380611fdf83398101604081905261003391610059565b60001960019081558116156080526002161560a0526001600160a01b031660c052610093565b6000806040838503121561006c57600080fd5b82516001600160a01b038116811461008357600080fd5b6020939093015192949293505050565b60805160a05160c051611efb6100e46000396000818160d90152818161023a015281816105d50152610a670152600081816101b701526104e20152600081816101ee01526104a40152611efb6000f3fe608060405234801561001057600080fd5b50600436106100cf5760003560e01c8063755d0c631161008c57806382975fe71161006657806382975fe7146101b2578063adaa7a0f146101e9578063e058455d14610210578063fe65947f1461022357600080fd5b8063755d0c631461017657806380884dc61461017f57806382532afd1461019f57600080fd5b806305a8da72146100d457806331223ba714610118578063362a53891461012f5780633e97c51014610138578063609a32801461014d5780636c3978501461016d575b600080fd5b6100fb7f000000000000000000000000000000000000000000000000000000000000000081565b6040516001600160a01b0390911681526020015b60405180910390f35b61012160005481565b60405190815260200161010f565b61012160035481565b61014b610146366004611b58565b610236565b005b61016061015b366004611b58565b610700565b60405161010f9190611b95565b61012160015481565b61012160045481565b61012161018d366004611bdf565b60026020526000908152604090205481565b61014b6101ad366004611bfc565b610810565b6101d97f000000000000000000000000000000000000000000000000000000000000000081565b604051901515815260200161010f565b6101d97f000000000000000000000000000000000000000000000000000000000000000081565b61012161021e366004611c95565b610c04565b610121610231366004611b58565b610e79565b60007f00000000000000000000000000000000000000000000000000000000000000006001600160a01b031663343aad826040518163ffffffff1660e01b8152600401602060405180830381865afa158015610296573d6000803e3d6000fd5b505050506040513d601f19601f820116820180604052508101906102ba9190611ce5565b9050806001600160a01b03166338d45e106040518163ffffffff1660e01b8152600401600060405180830381600087803b1580156102f757600080fd5b505af115801561030b573d6000803e3d6000fd5b505050506000816001600160a01b031663127f0f076040518163ffffffff1660e01b815260040160c060405180830381865afa15801561034f573d6000803e3d6000fd5b505050506040513d601f19601f820116820180604052508101906103739190611d02565b835160a0820151919250146103cf5760405162461bcd60e51b815260206004820152601a60248201527f496e636f6e73697374656e74206d696e696e672064696765737400000000000060448201526064015b60405180910390fd5b7fc5d2460186f7233c927e7db2dcc703c0e500b653ca82273b7bfad8045d85a4708160a00151036104425760405162461bcd60e51b815260206004820152601960248201527f456d707479206469676573742063616e206e6f74206d696e650000000000000060448201526064016103c6565b60005481511161048b5760405162461bcd60e51b8152602060048201526014602482015273115c1bd8da081a185cc81899595b881b5a5b995960621b60448201526064016103c6565b805160005561049a8382610810565b6104a2611901565b7f0000000000000000000000000000000000000000000000000000000000000000156104d8576104d184610700565b90506104e0565b506101008301515b7f0000000000000000000000000000000000000000000000000000000000000000156105695760006105128583610c04565b9050826040015181146105675760405162461bcd60e51b815260206004820152601860248201527f496e636f6e73697374656e74206d65726b6c6520726f6f74000000000000000060448201526064016103c6565b505b610571611901565b9050600061057e85610e79565b6001549091508111156105d35760405162461bcd60e51b815260206004820152601b60248201527f446f206e6f7420726561636820746172676574207175616c697479000000000060448201526064016103c6565b7f00000000000000000000000000000000000000000000000000000000000000006001600160a01b031663228cb7336040518163ffffffff1660e01b8152600401602060405180830381865afa158015610631573d6000803e3d6000fd5b505050506040513d601f19601f820116820180604052508101906106559190611ce5565b6001600160a01b031663ccec92c461010061067261040080611d92565b61067e90610400611d92565b610689906008611d92565b6106939190611dc7565b8760a001516106a29190611dc7565b6040516001600160e01b031960e084901b1681526004810191909152336024820152604401600060405180830381600087803b1580156106e157600080fd5b505af11580156106f5573d6000803e3d6000fd5b505050505050505050565b610708611901565b60408281015160e084015160a08501518351602081019390935292820152606081019190915260800160408051808303601f1901815291905280516020909101206101008301515118815260015b60206107656104006004611d92565b61076f9190611dc7565b81101561080a57610100830151610787600183611df1565b6080811061079757610797611ddb565b60200201516040516020016107ae91815260200190565b6040516020818303038152906040528051906020012083610100015182608081106107db576107db611ddb565b6020020151188282608081106107f3576107f3611ddb565b6020020152610803600182611e04565b9050610756565b50919050565b600061010061082161040082611d92565b61082b9190611dc7565b61010061083a61040082611d92565b6108449190611dc7565b83606001516108539190611dc7565b61085d9190611d92565b905080836080015184606001516108749190611e04565b11156108ba5760405162461bcd60e51b81526020600482015260156024820152744d696e696e672072616e6765206f766572666c6f7760581b60448201526064016103c6565b6101006108c961040080611d92565b6108d590610400611d92565b6108e190610400611d92565b6108ec906008611d92565b6108f69190611dc7565b836080015111156109415760405162461bcd60e51b81526020600482015260156024820152744d696e696e672072616e676520746f6f206c6f6e6760581b60448201526064016103c6565b61010061095061040080611d92565b61095c90610400611d92565b610967906008611d92565b6109719190611dc7565b83606001516109809190611e17565b156109cd5760405162461bcd60e51b815260206004820152601d60248201527f537461727420706f736974696f6e206973206e6f7420616c69676e656400000060448201526064016103c6565b6000610a14826101006109e261040080611d92565b6109ee90610400611d92565b6109fa90610400611d92565b610a05906008611d92565b610a0f9190611dc7565b61158b565b90508084608001511015610a635760405162461bcd60e51b8152602060048201526016602482015275135a5b9a5b99c81c985b99d9481d1bdbc81cda1bdc9d60521b60448201526064016103c6565b60007f00000000000000000000000000000000000000000000000000000000000000006001600160a01b031663343aad826040518163ffffffff1660e01b8152600401602060405180830381865afa158015610ac3573d6000803e3d6000fd5b505050506040513d601f19601f82011682018060405250810190610ae79190611ce5565b6001600160a01b0316637d5907088660e001516040518263ffffffff1660e01b8152600401610b1891815260200190565b6040805180830381865afa158015610b34573d6000803e3d6000fd5b505050506040513d601f19601f82011682018060405250810190610b589190611e42565b90506000610100610b6c6104006004611d92565b610b769190611dc7565b8660a00151610b859190611e04565b90508082600001516001600160801b0316108015610bb057508082602001516001600160801b031610155b610bfc5760405162461bcd60e51b815260206004820152601d60248201527f496e76616c6964207365616c656420636f6e746578742064696765737400000060448201526064016103c6565b505050505050565b6000805b6020610c176104006004611d92565b610c219190611dc7565b811015610c6f576101006020820284012080848360808110610c4557610c45611ddb565b602002018181525050506020610100610c5e9190611dc7565b610c689082611e04565b9050610c08565b506000610c7f6020610100611dc7565b90505b6020610c916104006004611d92565b610c9b9190611dc7565b811015610d6e5760005b6020610cb46104006004611d92565b610cbe9190611dc7565b811015610d65576000848260808110610cd957610cd9611ddb565b60200201519050600085610ced8585611e04565b60808110610cfd57610cfd611ddb565b602002015190508181604051602001610d20929190918252602082015260400190565b60405160208183030381529060405280519060200120868460808110610d4857610d48611ddb565b602002015250610d5e9050600183901b82611e04565b9050610ca5565b5060011b610c82565b508151610d79611901565b92506000610100610d8d6104006004611d92565b610d979190611dc7565b8560a00151610da69190611dc7565b905060005b85610120015151811015610e6d57600080610dc7600285611e17565b600003610df7578491508761012001518381518110610de857610de8611ddb565b60200260200101519050610e1c565b8761012001518381518110610e0e57610e0e611ddb565b602002602001015191508490505b6040805160208101849052908101829052606001604051602081830303815290604052805190602001209450600284610e559190611dc7565b93505050600181610e669190611e04565b9050610dab565b50909150505b92915050565b336000908152600260205260408082205490830151610eda5760405162461bcd60e51b815260206004820152601760248201527f4d696e657220494420646f6573206e6f7420657869737400000000000000000060448201526064016103c6565b80836040015114610f2d5760405162461bcd60e51b815260206004820152601860248201527f4d696e657220494420697320696e636f6e73697374656e74000000000000000060448201526064016103c6565b6040805160a0810182528281526020858101519082015284519181019190915260608085015190820152608080850151908201526000610f6c826115a3565b90506000610f7d6104006040611d92565b610f8b610400610100611d92565b610f959190611dc7565b610fa26104006004611d92565b610fb0610400610100611d92565b610fba9190611dc7565b610fc49190611dc7565b8660c00151610fd39190611e17565b9050610fdd611901565b60005b8281101561103b5760005b6040610ffa6104006004611d92565b6110049190611dc7565b8110156110285761101485611636565b9450611021600182611e04565b9050610feb565b50611034600182611e04565b9050610fe0565b5060005b602061104e6104006004611d92565b6110589190611dc7565b8110156111025761106884611636565b9350876101000151816080811061108157611081611ddb565b602002015184511882826080811061109b5761109b611ddb565b60200201526101008801516110b1826001611e04565b608081106110c1576110c1611ddb565b6020020151846001602002015118826110db836001611e04565b608081106110eb576110eb611ddb565b60200201526110fb600282611e04565b905061103f565b506000611110836001611e04565b90505b6111206104006040611d92565b61112e610400610100611d92565b6111389190611dc7565b6111456104006004611d92565b611153610400610100611d92565b61115d9190611dc7565b6111679190611dc7565b8110156111c15760005b60406111806104006004611d92565b61118a9190611dc7565b8110156111ae5761119a85611636565b94506111a7600182611e04565b9050611171565b506111ba600182611e04565b9050611113565b5060006101006111d361040082611d92565b6111dd9190611dc7565b88608001516111ec9190611dc7565b846040516020016111fd9190611e9d565b6040516020818303038152906040528051906020012060001c6112209190611e17565b90506101006112326104006004611d92565b61123c9190611dc7565b8860c0015161124b9190611d92565b61010061125a61040082611d92565b6112649190611dc7565b61126e9083611d92565b896060015161127d9190611e04565b6112879190611e04565b8860a00151146112d95760405162461bcd60e51b815260206004820152601960248201527f496e636f727265637420726563616c6c20706f736974696f6e0000000000000060448201526064016103c6565b6112e1611920565b7f48c9bdf267e6096a3ba7ca8485ae67bb2bf894fe72f36e3cf1361d5f3af54fa581527fd182e6ad7f520e511f6c3e2b8c68059b6bbd41fbabd9831f79217e1319cde05b60208083019190915260c08a0151908a01518a5161134d92849290918b91906080600061169f565b60608a015160808b015191925061136d918391906000806101008161169f565b905060005b6004602061138261040083611d92565b61138c9190611dc7565b6113969190611df1565b81101561144457610100602060048301020161142e838684608081106113be576113be611ddb565b6020020151876113cf866001611e04565b608081106113df576113df611ddb565b6020020151886113f0876002611e04565b6080811061140057611400611ddb565b602002015189611411886003611e04565b6080811061142157611421611ddb565b602002015186600061169f565b925061143d9050600482611e04565b9050611372565b5061157381846004602061145a61040083611d92565b6114649190611dc7565b61146e9190611df1565b6080811061147e5761147e611ddb565b6020020151856003602061040060046114979190611d92565b6114a19190611dc7565b6114ab9190611df1565b608081106114bb576114bb611ddb565b6020020151866002602061040060046114d49190611d92565b6114de9190611dc7565b6114e89190611df1565b608081106114f8576114f8611ddb565b6020020151876001602061040060046115119190611d92565b61151b9190611dc7565b6115259190611df1565b6080811061153557611535611ddb565b60200201516020610400600461154b9190611d92565b6115559190611dc7565b611560906020611d92565b61156c90610100611e04565b600161169f565b905061157d611901565b505198975050505050505050565b600081831061159a578161159c565b825b9392505050565b6115ab611920565b7f48c9bdf267e6096a3ba7ca8485ae67bb2bf894fe72f36e3cf1361d5f3af54fa581527fd182e6ad7f520e511f6c3e2b8c68059b6bbd41fbabd9831f79217e1319cde05b6020808301919091528251908301516040840151606085015161161b938593909290916080600061169f565b9050610e738183600460200201516000808060a0600161169f565b61163e611920565b7f48c9bdf267e6096a3ba7ca8485ae67bb2bf894fe72f36e3cf1361d5f3af54fa581527fd182e6ad7f520e511f6c3e2b8c68059b6bbd41fbabd9831f79217e1319cde05b602080830191909152825190830151610e73918391600080604060015b6116a7611920565b600c60006116b48561175e565b8a516020808d0151835184830151604080516001600160e01b031960e08b901b168187015260248101969096526044860193909352606485018f9052608485018e905260a485018d905260c485018c90526001600160c01b031991821660e48601521660ec84015287151560f81b60f4840152805160d58185038101825260f5909401825293945091869184016009600019fa61175057600080fd5b505050979650505050505050565b611766611920565b620100008210156117aa57600882811c66ffffffffffffff169083901b67ffffffffffffff00161760f01b5b6001600160c01b031916815260006020820152919050565b6401000000008210156117ea57600882811b63ff00ff001662ff00ff9184901c9190911617601081811b91901c1760e01b6001600160e01b031916611792565b68010000000000000000821015611804576117928261189b565b600160801b8210156118555767ffffffffffffffff8216604083901c6118298261189b565b6001600160c01b031916835261183e8161189b565b6001600160c01b0319166020840152506118969050565b60405162461bcd60e51b8152602060048201526016602482015275626c616b65326220696e70757420746f6f206c6f6e6760501b60448201526064016103c6565b919050565b65ff000000ff00600882811b91821664ff000000ff9390911c92831617601090811b67ff000000ff0000009290921666ff000000ff0000939093169290921790911c17602081811b6bffffffffffffffff000000001691901c63ffffffff161760c01b90565b6040518061100001604052806080906020820280368337509192915050565b60405180604001604052806002906020820280368337509192915050565b634e487b7160e01b600052604160045260246000fd5b604051610140810167ffffffffffffffff811182821017156119785761197861193e565b60405290565b60405160c0810167ffffffffffffffff811182821017156119785761197861193e565b600082601f8301126119b257600080fd5b60405161100080820182811067ffffffffffffffff821117156119d7576119d761193e565b604052830181858211156119ea57600080fd5b845b82811015611a045780358252602091820191016119ec565b509195945050505050565b600082601f830112611a2057600080fd5b8135602067ffffffffffffffff80831115611a3d57611a3d61193e565b8260051b604051601f19603f83011681018181108482111715611a6257611a6261193e565b604052938452858101830193838101925087851115611a8057600080fd5b83870191505b84821015611a9f57813583529183019190830190611a86565b979650505050505050565b60006111208284031215611abd57600080fd5b611ac5611954565b9050813581526020820135602082015260408201356040820152606082013560608201526080820135608082015260a082013560a082015260c082013560c082015260e082013560e0820152610100611b20848285016119a1565b9082015261110082013567ffffffffffffffff811115611b3f57600080fd5b611b4b84828501611a0f565b6101208301525092915050565b600060208284031215611b6a57600080fd5b813567ffffffffffffffff811115611b8157600080fd5b611b8d84828501611aaa565b949350505050565b6110008101818360005b6080811015611bbe578151835260209283019290910190600101611b9f565b50505092915050565b6001600160a01b0381168114611bdc57600080fd5b50565b600060208284031215611bf157600080fd5b813561159c81611bc7565b60008082840360e0811215611c1057600080fd5b833567ffffffffffffffff811115611c2757600080fd5b611c3386828701611aaa565b93505060c0601f1982011215611c4857600080fd5b50611c5161197e565b6020840135815260408401356020820152606084013560408201526080840135606082015260a0840135608082015260c084013560a0820152809150509250929050565b6000806110208385031215611ca957600080fd5b823567ffffffffffffffff811115611cc057600080fd5b611ccc85828601611aaa565b925050611cdc84602085016119a1565b90509250929050565b600060208284031215611cf757600080fd5b815161159c81611bc7565b600060c08284031215611d1457600080fd5b60405160c0810181811067ffffffffffffffff82111715611d3757611d3761193e565b8060405250825181526020830151602082015260408301516040820152606083015160608201526080830151608082015260a083015160a08201528091505092915050565b634e487b7160e01b600052601160045260246000fd5b6000816000190483118215151615611dac57611dac611d7c565b500290565b634e487b7160e01b600052601260045260246000fd5b600082611dd657611dd6611db1565b500490565b634e487b7160e01b600052603260045260246000fd5b81810381811115610e7357610e73611d7c565b80820180821115610e7357610e73611d7c565b600082611e2657611e26611db1565b500690565b80516001600160801b038116811461189657600080fd5b600060408284031215611e5457600080fd5b6040516040810181811067ffffffffffffffff82111715611e7757611e7761193e565b604052611e8383611e2b565b8152611e9160208401611e2b565b60208201529392505050565b60408101818360005b6002811015611bbe578151835260209283019290910190600101611ea656fea2646970667358221220c14685bf9662507caa9cbf922839dc9889f4712cc57a9b67c5ebc3a7afdd641b64736f6c63430008100033",
  "linkReferences": {},
  "deployedLinkReferences": {}
}