{
  "_format": "hh-sol-artifact-1",
  "contractName": "PoraMine",
  "sourceName": "contracts/miner/Mine.sol",
  "abi": [
    {
      "inputs": [
        {
          "internalType": "uint256",
          "name": "settings",
          "type": "uint256"
        }
      ],
      "stateMutability": "nonpayable",
      "type": "constructor"
    },
    {
      "anonymous": false,
      "inputs": [
        {
          "indexed": true,
          "internalType": "bytes32",
          "name": "minerId",
          "type": "bytes32"
        },
        {
          "indexed": true,
          "internalType": "address",
          "name": "beneficiary",
          "type": "address"
        }
      ],
      "name": "NewMinerId",
      "type": "event"
    },
    {
      "anonymous": false,
      "inputs": [
        {
          "indexed": true,
          "internalType": "bytes32",
          "name": "minerId",
          "type": "bytes32"
        },
        {
          "indexed": true,
          "internalType": "address",
          "name": "from",
          "type": "address"
        },
        {
          "indexed": true,
          "internalType": "address",
          "name": "to",
          "type": "address"
        }
      ],
      "name": "UpdateMinerId",
      "type": "event"
    },
    {
      "inputs": [],
      "name": "adjustRatio",
      "outputs": [
        {
          "internalType": "uint256",
          "name": "",
          "type": "uint256"
        }
      ],
      "stateMutability": "view",
      "type": "function"
    },
    {
      "inputs": [
        {
          "components": [
            {
              "internalType": "bytes32",
              "name": "contextDigest",
              "type": "bytes32"
            },
            {
              "internalType": "bytes32",
              "name": "nonce",
              "type": "bytes32"
            },
            {
              "internalType": "bytes32",
              "name": "minerId",
              "type": "bytes32"
            },
            {
              "components": [
                {
                  "internalType": "uint256",
                  "name": "startPosition",
                  "type": "uint256"
                },
                {
                  "internalType": "uint256",
                  "name": "mineLength",
                  "type": "uint256"
                },
                {
                  "internalType": "uint64",
                  "name": "shardId",
                  "type": "uint64"
                },
                {
                  "internalType": "uint64",
                  "name": "shardMask",
                  "type": "uint64"
                }
              ],
              "internalType": "struct RecallRange",
              "name": "range",
              "type": "tuple"
            },
            {
              "internalType": "uint256",
              "name": "recallPosition",
              "type": "uint256"
            },
            {
              "internalType": "uint256",
              "name": "sealOffset",
              "type": "uint256"
            },
            {
              "internalType": "bytes32",
              "name": "sealedContextDigest",
              "type": "bytes32"
            },
            {
              "internalType": "bytes32[128]",
              "name": "sealedData",
              "type": "bytes32[128]"
            },
            {
              "internalType": "bytes32[]",
              "name": "merkleProof",
              "type": "bytes32[]"
            }
          ],
          "internalType": "struct PoraMine.PoraAnswer",
          "name": "answer",
          "type": "tuple"
        },
        {
          "components": [
            {
              "internalType": "uint256",
              "name": "epoch",
              "type": "uint256"
            },
            {
              "internalType": "uint256",
              "name": "mineStart",
              "type": "uint256"
            },
            {
              "internalType": "bytes32",
              "name": "flowRoot",
              "type": "bytes32"
            },
            {
              "internalType": "uint256",
              "name": "flowLength",
              "type": "uint256"
            },
            {
              "internalType": "bytes32",
              "name": "blockDigest",
              "type": "bytes32"
            },
            {
              "internalType": "bytes32",
              "name": "digest",
              "type": "bytes32"
            }
          ],
          "internalType": "struct MineContext",
          "name": "context",
          "type": "tuple"
        }
      ],
      "name": "basicCheck",
      "outputs": [],
      "stateMutability": "view",
      "type": "function"
    },
    {
      "inputs": [
        {
          "internalType": "bytes32",
          "name": "",
          "type": "bytes32"
        }
      ],
      "name": "beneficiaries",
      "outputs": [
        {
          "internalType": "address",
          "name": "",
          "type": "address"
        }
      ],
      "stateMutability": "view",
      "type": "function"
    },
    {
      "inputs": [],
      "name": "dataProofEnabled",
      "outputs": [
        {
          "internalType": "bool",
          "name": "",
          "type": "bool"
        }
      ],
      "stateMutability": "view",
      "type": "function"
    },
    {
      "inputs": [],
      "name": "fixedQuality",
      "outputs": [
        {
          "internalType": "bool",
          "name": "",
          "type": "bool"
        }
      ],
      "stateMutability": "view",
      "type": "function"
    },
    {
      "inputs": [],
      "name": "flow",
      "outputs": [
        {
          "internalType": "address",
          "name": "",
          "type": "address"
        }
      ],
      "stateMutability": "view",
      "type": "function"
    },
    {
      "inputs": [
        {
          "internalType": "uint256",
          "name": "initRate",
          "type": "uint256"
        },
        {
          "internalType": "uint256",
          "name": "adjustRatio_",
          "type": "uint256"
        },
        {
          "internalType": "address",
          "name": "flow_",
          "type": "address"
        },
        {
          "internalType": "address",
          "name": "reward_",
          "type": "address"
        }
      ],
      "name": "initialize",
      "outputs": [],
      "stateMutability": "nonpayable",
      "type": "function"
    },
    {
      "inputs": [],
      "name": "initialized",
      "outputs": [
        {
          "internalType": "bool",
          "name": "",
          "type": "bool"
        }
      ],
      "stateMutability": "view",
      "type": "function"
    },
    {
      "inputs": [],
      "name": "lastMinedEpoch",
      "outputs": [
        {
          "internalType": "uint256",
          "name": "",
          "type": "uint256"
        }
      ],
      "stateMutability": "view",
      "type": "function"
    },
    {
      "inputs": [
        {
          "components": [
            {
              "internalType": "bytes32",
              "name": "contextDigest",
              "type": "bytes32"
            },
            {
              "internalType": "bytes32",
              "name": "nonce",
              "type": "bytes32"
            },
            {
              "internalType": "bytes32",
              "name": "minerId",
              "type": "bytes32"
            },
            {
              "components": [
                {
                  "internalType": "uint256",
                  "name": "startPosition",
                  "type": "uint256"
                },
                {
                  "internalType": "uint256",
                  "name": "mineLength",
                  "type": "uint256"
                },
                {
                  "internalType": "uint64",
                  "name": "shardId",
                  "type": "uint64"
                },
                {
                  "internalType": "uint64",
                  "name": "shardMask",
                  "type": "uint64"
                }
              ],
              "internalType": "struct RecallRange",
              "name": "range",
              "type": "tuple"
            },
            {
              "internalType": "uint256",
              "name": "recallPosition",
              "type": "uint256"
            },
            {
              "internalType": "uint256",
              "name": "sealOffset",
              "type": "uint256"
            },
            {
              "internalType": "bytes32",
              "name": "sealedContextDigest",
              "type": "bytes32"
            },
            {
              "internalType": "bytes32[128]",
              "name": "sealedData",
              "type": "bytes32[128]"
            },
            {
              "internalType": "bytes32[]",
              "name": "merkleProof",
              "type": "bytes32[]"
            }
          ],
          "internalType": "struct PoraMine.PoraAnswer",
          "name": "answer",
          "type": "tuple"
        }
      ],
      "name": "pora",
      "outputs": [
        {
          "internalType": "bytes32",
          "name": "",
          "type": "bytes32"
        }
      ],
      "stateMutability": "view",
      "type": "function"
    },
    {
      "inputs": [
        {
          "components": [
            {
              "internalType": "bytes32",
              "name": "contextDigest",
              "type": "bytes32"
            },
            {
              "internalType": "bytes32",
              "name": "nonce",
              "type": "bytes32"
            },
            {
              "internalType": "bytes32",
              "name": "minerId",
              "type": "bytes32"
            },
            {
              "components": [
                {
                  "internalType": "uint256",
                  "name": "startPosition",
                  "type": "uint256"
                },
                {
                  "internalType": "uint256",
                  "name": "mineLength",
                  "type": "uint256"
                },
                {
                  "internalType": "uint64",
                  "name": "shardId",
                  "type": "uint64"
                },
                {
                  "internalType": "uint64",
                  "name": "shardMask",
                  "type": "uint64"
                }
              ],
              "internalType": "struct RecallRange",
              "name": "range",
              "type": "tuple"
            },
            {
              "internalType": "uint256",
              "name": "recallPosition",
              "type": "uint256"
            },
            {
              "internalType": "uint256",
              "name": "sealOffset",
              "type": "uint256"
            },
            {
              "internalType": "bytes32",
              "name": "sealedContextDigest",
              "type": "bytes32"
            },
            {
              "internalType": "bytes32[128]",
              "name": "sealedData",
              "type": "bytes32[128]"
            },
            {
              "internalType": "bytes32[]",
              "name": "merkleProof",
              "type": "bytes32[]"
            }
          ],
          "internalType": "struct PoraMine.PoraAnswer",
          "name": "answer",
          "type": "tuple"
        },
        {
          "internalType": "bytes32[128]",
          "name": "unsealedData",
          "type": "bytes32[128]"
        }
      ],
      "name": "recoverMerkleRoot",
      "outputs": [
        {
          "internalType": "bytes32",
          "name": "",
          "type": "bytes32"
        }
      ],
      "stateMutability": "pure",
      "type": "function"
    },
    {
      "inputs": [
        {
          "internalType": "address",
          "name": "beneficiary",
          "type": "address"
        },
        {
          "internalType": "uint64",
          "name": "seed",
          "type": "uint64"
        }
      ],
      "name": "requestMinerId",
      "outputs": [],
      "stateMutability": "nonpayable",
      "type": "function"
    },
    {
      "inputs": [],
      "name": "reward",
      "outputs": [
        {
          "internalType": "address",
          "name": "",
          "type": "address"
        }
      ],
      "stateMutability": "view",
      "type": "function"
    },
    {
      "inputs": [],
      "name": "sealDataEnabled",
      "outputs": [
        {
          "internalType": "bool",
          "name": "",
          "type": "bool"
        }
      ],
      "stateMutability": "view",
      "type": "function"
    },
    {
      "inputs": [
        {
          "components": [
            {
              "internalType": "bytes32",
              "name": "contextDigest",
              "type": "bytes32"
            },
            {
              "internalType": "bytes32",
              "name": "nonce",
              "type": "bytes32"
            },
            {
              "internalType": "bytes32",
              "name": "minerId",
              "type": "bytes32"
            },
            {
              "components": [
                {
                  "internalType": "uint256",
                  "name": "startPosition",
                  "type": "uint256"
                },
                {
                  "internalType": "uint256",
                  "name": "mineLength",
                  "type": "uint256"
                },
                {
                  "internalType": "uint64",
                  "name": "shardId",
                  "type": "uint64"
                },
                {
                  "internalType": "uint64",
                  "name": "shardMask",
                  "type": "uint64"
                }
              ],
              "internalType": "struct RecallRange",
              "name": "range",
              "type": "tuple"
            },
            {
              "internalType": "uint256",
              "name": "recallPosition",
              "type": "uint256"
            },
            {
              "internalType": "uint256",
              "name": "sealOffset",
              "type": "uint256"
            },
            {
              "internalType": "bytes32",
              "name": "sealedContextDigest",
              "type": "bytes32"
            },
            {
              "internalType": "bytes32[128]",
              "name": "sealedData",
              "type": "bytes32[128]"
            },
            {
              "internalType": "bytes32[]",
              "name": "merkleProof",
              "type": "bytes32[]"
            }
          ],
          "internalType": "struct PoraMine.PoraAnswer",
          "name": "answer",
          "type": "tuple"
        }
      ],
      "name": "submit",
      "outputs": [],
      "stateMutability": "nonpayable",
      "type": "function"
    },
    {
      "inputs": [],
      "name": "targetQuality",
      "outputs": [
        {
          "internalType": "uint256",
          "name": "",
          "type": "uint256"
        }
      ],
      "stateMutability": "view",
      "type": "function"
    },
    {
      "inputs": [
        {
          "internalType": "address",
          "name": "to",
          "type": "address"
        },
        {
          "internalType": "bytes32",
          "name": "minerId",
          "type": "bytes32"
        }
      ],
      "name": "transferBeneficial",
      "outputs": [],
      "stateMutability": "nonpayable",
      "type": "function"
    },
    {
      "inputs": [
        {
          "components": [
            {
              "internalType": "bytes32",
              "name": "contextDigest",
              "type": "bytes32"
            },
            {
              "internalType": "bytes32",
              "name": "nonce",
              "type": "bytes32"
            },
            {
              "internalType": "bytes32",
              "name": "minerId",
              "type": "bytes32"
            },
            {
              "components": [
                {
                  "internalType": "uint256",
                  "name": "startPosition",
                  "type": "uint256"
                },
                {
                  "internalType": "uint256",
                  "name": "mineLength",
                  "type": "uint256"
                },
                {
                  "internalType": "uint64",
                  "name": "shardId",
                  "type": "uint64"
                },
                {
                  "internalType": "uint64",
                  "name": "shardMask",
                  "type": "uint64"
                }
              ],
              "internalType": "struct RecallRange",
              "name": "range",
              "type": "tuple"
            },
            {
              "internalType": "uint256",
              "name": "recallPosition",
              "type": "uint256"
            },
            {
              "internalType": "uint256",
              "name": "sealOffset",
              "type": "uint256"
            },
            {
              "internalType": "bytes32",
              "name": "sealedContextDigest",
              "type": "bytes32"
            },
            {
              "internalType": "bytes32[128]",
              "name": "sealedData",
              "type": "bytes32[128]"
            },
            {
              "internalType": "bytes32[]",
              "name": "merkleProof",
              "type": "bytes32[]"
            }
          ],
          "internalType": "struct PoraMine.PoraAnswer",
          "name": "answer",
          "type": "tuple"
        }
      ],
      "name": "unseal",
      "outputs": [
        {
          "internalType": "bytes32[128]",
          "name": "unsealedData",
          "type": "bytes32[128]"
        }
      ],
      "stateMutability": "pure",
      "type": "function"
    }
  ],
  "bytecode": "0x60e0604052600060035534801561001557600080fd5b506040516200267b3803806200267b83398101604081905261003691610053565b6001811615608052600281161560a052600416151560c05261006c565b60006020828403121561006557600080fd5b5051919050565b60805160a05160c0516125c3620000b8600039600081816102cc015281816103810152610d9f0152600081816102450152610c9601526000818161026c0152610c5901526125c36000f3fe608060405234801561001057600080fd5b50600436106101165760003560e01c806359e7b5be116100a2578063adaa7a0f11610071578063adaa7a0f14610267578063ae722e821461028e578063aed75224146102a1578063b0628ee0146102b4578063e0ba7280146102c757600080fd5b806359e7b5be146102045780636c397850146102245780636e9bb60b1461022d57806382975fe71461024057600080fd5b806331223ba7116100e957806331223ba714610190578063343aad82146101a757806339cd53ee146101bf5780633baebb75146101e857806359b4a3f3146101fb57600080fd5b8063019e27291461011b578063047c13f514610130578063158ef93e14610143578063228cb73314610165575b600080fd5b61012e610129366004611eea565b6102ee565b005b61012e61013e366004611f47565b6103e6565b6000546101509060ff1681565b60405190151581526020015b60405180910390f35b600154610178906001600160a01b031681565b6040516001600160a01b03909116815260200161015c565b61019960035481565b60405190815260200161015c565b6000546101789061010090046001600160a01b031681565b6101786101cd366004611f7a565b6005602052600090815260409020546001600160a01b031681565b61012e6101f6366004612210565b6104fd565b61019960025481565b6102176102123660046122a8565b61078e565b60405161015c91906122e4565b61019960045481565b61019961023b366004612316565b6108a2565b6101507f000000000000000000000000000000000000000000000000000000000000000081565b6101507f000000000000000000000000000000000000000000000000000000000000000081565b61012e61029c3660046122a8565b610b17565b6101996102af3660046122a8565b610e90565b61012e6102c236600461235c565b611093565b6101507f000000000000000000000000000000000000000000000000000000000000000081565b60005460ff16156103515760405162461bcd60e51b815260206004820152602260248201527f496e697469616c697a61626c653a20616c726561647920696e697469616c697a604482015261195960f21b60648201526084015b60405180910390fd5b6000805460ff1916600117905561012c61036d856000196123b2565b61037791906123b2565b60045560028390557f0000000000000000000000000000000000000000000000000000000000000000156103ac576000196004555b60008054610100600160a81b0319166101006001600160a01b0394851602179055600180546001600160a01b031916919092161790555050565b60006103f36001436123c6565b60408051914060208301526bffffffffffffffffffffffff193360601b16908201526001600160c01b031960c084901b166054820152605c0160408051601f198184030181529181528151602092830120600081815260059093529120549091506001600160a01b0316156104a35760405162461bcd60e51b8152602060048201526016602482015275135a5b995c9259081a185cc81c9959da5cdd195c995960521b6044820152606401610348565b60008181526005602052604080822080546001600160a01b0319166001600160a01b0387169081179091559051909183917fbfeb006f16aca8eb3d9953cf44db6b11b6f3041a313875dfa18f2e9d71bd309e9190a3505050565b815160a0820151146105515760405162461bcd60e51b815260206004820152601a60248201527f496e636f6e73697374656e74206d696e696e67206469676573740000000000006044820152606401610348565b7fc5d2460186f7233c927e7db2dcc703c0e500b653ca82273b7bfad8045d85a4708160a00151036105c45760405162461bcd60e51b815260206004820152601960248201527f456d707479206469676573742063616e206e6f74206d696e65000000000000006044820152606401610348565b60035481511161060d5760405162461bcd60e51b8152602060048201526014602482015273115c1bd8da081a185cc81899595b881b5a5b995960621b6044820152606401610348565b600061010061061e610400826123d9565b61062891906123b2565b610100610637610400826123d9565b61064191906123b2565b836060015161065091906123b2565b61065a91906123d9565b606084015190915061066c9082611153565b6000805460c0850151604051630fab20e160e31b815260048101919091526101009091046001600160a01b031690637d590708906024016040805180830381865afa1580156106bf573d6000803e3d6000fd5b505050506040513d601f19601f820116820180604052508101906106e3919061240f565b905060006101006106f761040060046123d9565b61070191906123b2565b85608001516107109190612469565b90508082600001516001600160801b031610801561073b57508082602001516001600160801b031610155b6107875760405162461bcd60e51b815260206004820152601d60248201527f496e76616c6964207365616c656420636f6e74657874206469676573740000006044820152606401610348565b5050505050565b610796611e96565b60408083015160c0840151608085015192516107c693906020019283526020830191909152604082015260600190565b60408051808303601f19018152919052805160209091012060e08301515118815260015b60206107f961040060046123d9565b61080391906123b2565b81101561089c5760e083015161081a6001836123c6565b6080811061082a5761082a61247c565b602002015160405160200161084191815260200190565b604051602081830303815290604052805190602001208360e00151826080811061086d5761086d61247c565b6020020151188282608081106108855761088561247c565b6020020152610895600182612469565b90506107ea565b50919050565b6000805b60206108b561040060046123d9565b6108bf91906123b2565b81101561090d5761010060208202840120808483608081106108e3576108e361247c565b6020020181815250505060206101006108fc91906123b2565b6109069082612469565b90506108a6565b50600061091d60206101006123b2565b90505b602061092f61040060046123d9565b61093991906123b2565b811015610a0c5760005b602061095261040060046123d9565b61095c91906123b2565b811015610a035760008482608081106109775761097761247c565b6020020151905060008561098b8585612469565b6080811061099b5761099b61247c565b6020020151905081816040516020016109be929190918252602082015260400190565b604051602081830303815290604052805190602001208684608081106109e6576109e661247c565b6020020152506109fc9050600183901b82612469565b9050610943565b5060011b610920565b508151610a17611e96565b92506000610100610a2b61040060046123d9565b610a3591906123b2565b8560800151610a4491906123b2565b905060005b85610100015151811015610b0b57600080610a65600285612492565b600003610a95578491508761010001518381518110610a8657610a8661247c565b60200260200101519050610aba565b8761010001518381518110610aac57610aac61247c565b602002602001015191508490505b6040805160208101849052908101829052606001604051602081830303815290604052805190602001209450600284610af391906123b2565b93505050600181610b049190612469565b9050610a49565b50909150505b92915050565b6040810151610b615760405162461bcd60e51b81526020600482015260166024820152754d696e657249642063616e6e6f74206265207a65726f60501b6044820152606401610348565b6040808201516000908152600560205220546001600160a01b031680610bc95760405162461bcd60e51b815260206004820152601b60248201527f4d696e6572496420646f6573206e6f74207265676973746572656400000000006044820152606401610348565b60008060019054906101000a90046001600160a01b03166001600160a01b031663b464b53e6040518163ffffffff1660e01b815260040160c0604051808303816000875af1158015610c1f573d6000803e3d6000fd5b505050506040513d601f19601f82011682018060405250810190610c4391906124a6565b9050610c4f83826104fd565b610c57611e96565b7f000000000000000000000000000000000000000000000000000000000000000015610c8d57610c868461078e565b9050610c94565b5060e08301515b7f000000000000000000000000000000000000000000000000000000000000000015610d1d576000610cc685836108a2565b905082604001518114610d1b5760405162461bcd60e51b815260206004820152601860248201527f496e636f6e73697374656e74206d65726b6c6520726f6f7400000000000000006044820152606401610348565b505b610d25611e96565b90506000610d3285610e90565b9050610d418560600151611397565b600454610d4e91906123b2565b811115610d9d5760405162461bcd60e51b815260206004820152601b60248201527f446f206e6f7420726561636820746172676574207175616c69747900000000006044820152606401610348565b7f0000000000000000000000000000000000000000000000000000000000000000610dcb57610dcb836113e1565b6001546001600160a01b031663b7a3c04c610100610deb610400806123d9565b610df7906104006123d9565b610e029060086123d9565b610e0c91906123b2565b8760800151610e1b91906123b2565b60408089015190516001600160e01b031960e085901b16815260048101929092526001600160a01b03881660248301526044820152606401600060405180830381600087803b158015610e6d57600080fd5b505af1158015610e81573d6000803e3d6000fd5b50509351600355505050505050565b6040810151600090610ee45760405162461bcd60e51b815260206004820152601860248201527f4d696e65722049442063616e6e6f7420626520656d70747900000000000000006044820152606401610348565b60006040518060800160405280846040015181526020018460200151815260200184600001518152602001610f1c85606001516114a3565b905290506000610f2b8261150b565b90506000610f3c61040060406123d9565b610f4a6104006101006123d9565b610f5491906123b2565b610f6161040060046123d9565b610f6f6104006101006123d9565b610f7991906123b2565b610f8391906123b2565b8560a00151610f929190612492565b9050610f9c611e96565b610fa4611eb5565b610fb38760e001518486611583565b92509050610100610fc761040060046123d9565b610fd191906123b2565b8760a00151610fe091906123d9565b61101d82604051602001610ff4919061251f565b60405160208183030381529060405280519060200120896060015161177990919063ffffffff16565b6110279190612469565b8760800151146110795760405162461bcd60e51b815260206004820152601960248201527f496e636f727265637420726563616c6c20706f736974696f6e000000000000006044820152606401610348565b6110888760a00151858461187f565b979650505050505050565b6000818152600560205260409020546001600160a01b031633146110f95760405162461bcd60e51b815260206004820152601b60248201527f53656e64657220646f6573206e6f74206f776e206d696e6572496400000000006044820152606401610348565b60008181526005602052604080822080546001600160a01b0319166001600160a01b03861690811790915590519091339184917f9a26a8e7fd42c501b452c02016def8048e3ea28c2bf15127a9b5e2029d989bf191a45050565b610100611162610400806123d9565b61116e906104006123d9565b6111799060086123d9565b61118391906123b2565b825161118f9190612492565b156111dc5760405162461bcd60e51b815260206004820152601d60248201527f537461727420706f736974696f6e206973206e6f7420616c69676e65640000006044820152606401610348565b6020820151825182916111ee91612469565b11156112345760405162461bcd60e51b81526020600482015260156024820152744d696e696e672072616e6765206f766572666c6f7760581b6044820152606401610348565b600061123f83611397565b61010061124e610400806123d9565b61125a906104006123d9565b611266906104006123d9565b6112719060086123d9565b61127b91906123b2565b61128591906123d9565b905080836020015111156112d35760405162461bcd60e51b81526020600482015260156024820152744d696e696e672072616e676520746f6f206c6f6e6760581b6044820152606401610348565b60006112df8383611b03565b9050808460200151101561132e5760405162461bcd60e51b8152602060048201526016602482015275135a5b9a5b99c81c985b99d9481d1bdbc81cda1bdc9d60521b6044820152606401610348565b83606001518460400151166001600160401b03166000146113915760405162461bcd60e51b815260206004820152601a60248201527f4d61736b656420626974732073686f756c64206265207a65726f0000000000006044820152606401610348565b50505050565b606081015160009019815b6001600160401b038216156113d2576113bc600183612547565b90911690806113ca8161256e565b9150506113a2565b600160ff9091161b9392505050565b60008160200151436113f391906123c6565b60045490915060101c600061140a82846064611b19565b905060146000818361141d6001836123c6565b61142790876123d9565b6114319190612469565b61143b91906123b2565b90506114488460026123d9565b81111561145d5761145a8460026123d9565b90505b6114686002856123b2565b81101561147d5761147a6002856123b2565b90505b6001600160f01b0381111561149657506001600160f01b035b60101b6004555050505050565b600081600001518260200151836040015184606001516040516020016114ee949392919093845260208401929092526001600160401b03908116604084015216606082015260800190565b604051602081830303815290604052805190602001209050919050565b611513611eb5565b7f48c9bdf267e6096a3ba7ca8485ae67bb2bf894fe72f36e3cf1361d5f3af54fa581527fd182e6ad7f520e511f6c3e2b8c68059b6bbd41fbabd9831f79217e1319cde05b60208083019190915282519083015160408401516060850151610b119385939092909160806001611bc8565b61158b611eb5565b611593611e96565b60005b848110156115f15760005b60406115b061040060046123d9565b6115ba91906123b2565b8110156115de576115ca85611c87565b94506115d7600182612469565b90506115a1565b506115ea600182612469565b9050611596565b5060005b602061160461040060046123d9565b61160e91906123b2565b8110156116ae5761161e84611c87565b93508581608081106116325761163261247c565b602002015184511882826080811061164c5761164c61247c565b60200201528561165d826001612469565b6080811061166d5761166d61247c565b602002015184600160200201511882611687836001612469565b608081106116975761169761247c565b60200201526116a7600282612469565b90506115f5565b5060006116bc856001612469565b90505b6116cc61040060406123d9565b6116da6104006101006123d9565b6116e491906123b2565b6116f161040060046123d9565b6116ff6104006101006123d9565b61170991906123b2565b61171391906123b2565b81101561176d5760005b604061172c61040060046123d9565b61173691906123b2565b81101561175a5761174685611c87565b9450611753600182612469565b905061171d565b50611766600182612469565b90506116bf565b50829150935093915050565b60008061010061178b610400826123d9565b61179591906123b2565b84602001516117a491906123b2565b6117ae9084612492565b604085015160608601516020870151929350831617906101006117d3610400826123d9565b6117dd91906123b2565b6117f0906001600160401b0384166123d9565b111561183e5760405162461bcd60e51b815260206004820152601c60248201527f526563616c6c20706f736974696f6e206f7574206f6620626f756e64000000006044820152606401610348565b61010061184d610400826123d9565b61185791906123b2565b61186a906001600160401b0383166123d9565b85516118769190612469565b95945050505050565b6000611889611eb5565b7f48c9bdf267e6096a3ba7ca8485ae67bb2bf894fe72f36e3cf1361d5f3af54fa581527fd182e6ad7f520e511f6c3e2b8c68059b6bbd41fbabd9831f79217e1319cde05b6020808301919091528451908501516118ef9183918891906000608081611bc8565b905060005b60046020611904610400836123d9565b61190e91906123b2565b61191891906123c6565b8110156119c95760008160040160200260800190506119b3838684608081106119435761194361247c565b602002015187611954866001612469565b608081106119645761196461247c565b602002015188611975876002612469565b608081106119855761198561247c565b602002015189611996886003612469565b608081106119a6576119a661247c565b6020020151866000611bc8565b92506119c29050600482612469565b90506118f4565b50611af78184600460206119df610400836123d9565b6119e991906123b2565b6119f391906123c6565b60808110611a0357611a0361247c565b602002015185600360206104006004611a1c91906123d9565b611a2691906123b2565b611a3091906123c6565b60808110611a4057611a4061247c565b602002015186600260206104006004611a5991906123d9565b611a6391906123b2565b611a6d91906123c6565b60808110611a7d57611a7d61247c565b602002015187600160206104006004611a9691906123d9565b611aa091906123b2565b611aaa91906123c6565b60808110611aba57611aba61247c565b602002015160206104006004611ad091906123d9565b611ada91906123b2565b611ae59060206123d9565b611af0906080612469565b6001611bc8565b519150505b9392505050565b6000818310611b125781611afc565b5090919050565b6000808060001985870985870292508281108382030391505080600003611b5357838281611b4957611b49612386565b0492505050611afc565b808411611b5f57600080fd5b60008486880960026001871981018816978890046003810283188082028403028082028403028082028403028082028403028082028403029081029092039091026000889003889004909101858311909403939093029303949094049190911702949350505050565b611bd0611eb5565b600c6000611bdd85611cf4565b8a516020808d0151835184830151604080516001600160e01b031960e08b901b168187015260248101969096526044860193909352606485018f9052608485018e905260a485018d905260c485018c90526001600160c01b031991821660e48601521660ec84015287151560f81b60f4840152805160d58185038101825260f5909401825293945091869184016009600019fa611c7957600080fd5b505050979650505050505050565b611c8f611eb5565b7f48c9bdf267e6096a3ba7ca8485ae67bb2bf894fe72f36e3cf1361d5f3af54fa581527fd182e6ad7f520e511f6c3e2b8c68059b6bbd41fbabd9831f79217e1319cde05b602080830191909152825190830151610b1191839160008060406001611bc8565b611cfc611eb5565b62010000821015611d4057600882811c66ffffffffffffff169083901b67ffffffffffffff00161760f01b5b6001600160c01b031916815260006020820152919050565b640100000000821015611d8057600882811b63ff00ff001662ff00ff9184901c9190911617601081811b91901c1760e01b6001600160e01b031916611d28565b68010000000000000000821015611d9a57611d2882611e30565b600160801b821015611dea576001600160401b038216604083901c611dbe82611e30565b6001600160c01b0319168352611dd381611e30565b6001600160c01b031916602084015250611e2b9050565b60405162461bcd60e51b8152602060048201526016602482015275626c616b65326220696e70757420746f6f206c6f6e6760501b6044820152606401610348565b919050565b65ff000000ff00600882811b91821664ff000000ff9390911c92831617601090811b67ff000000ff0000009290921666ff000000ff0000939093169290921790911c17602081811b6bffffffffffffffff000000001691901c63ffffffff161760c01b90565b6040518061100001604052806080906020820280368337509192915050565b60405180604001604052806002906020820280368337509192915050565b80356001600160a01b0381168114611e2b57600080fd5b60008060008060808587031215611f0057600080fd5b8435935060208501359250611f1760408601611ed3565b9150611f2560608601611ed3565b905092959194509250565b80356001600160401b0381168114611e2b57600080fd5b60008060408385031215611f5a57600080fd5b611f6383611ed3565b9150611f7160208401611f30565b90509250929050565b600060208284031215611f8c57600080fd5b5035919050565b634e487b7160e01b600052604160045260246000fd5b60405161012081016001600160401b0381118282101715611fcc57611fcc611f93565b60405290565b60405160c081016001600160401b0381118282101715611fcc57611fcc611f93565b60006080828403121561200657600080fd5b604051608081018181106001600160401b038211171561202857612028611f93565b8060405250809150823581526020830135602082015261204a60408401611f30565b604082015261205b60608401611f30565b60608201525092915050565b600082601f83011261207857600080fd5b6040516110008082018281106001600160401b038211171561209c5761209c611f93565b604052830181858211156120af57600080fd5b845b828110156120c95780358252602091820191016120b1565b509195945050505050565b600082601f8301126120e557600080fd5b813560206001600160401b038083111561210157612101611f93565b8260051b604051601f19603f8301168101818110848211171561212657612126611f93565b60405293845285810183019383810192508785111561214457600080fd5b83870191505b848210156110885781358352918301919083019061214a565b6000611160828403121561217657600080fd5b61217e611fa9565b90508135815260208201356020820152604082013560408201526121a58360608401611ff4565b606082015260e082013560808201526101008083013560a083015261012083013560c08301526121d9846101408501612067565b60e08301526111408301356001600160401b038111156121f857600080fd5b612204858286016120d4565b82840152505092915050565b60008082840360e081121561222457600080fd5b83356001600160401b0381111561223a57600080fd5b61224686828701612163565b93505060c0601f198201121561225b57600080fd5b50612264611fd2565b6020840135815260408401356020820152606084013560408201526080840135606082015260a0840135608082015260c084013560a0820152809150509250929050565b6000602082840312156122ba57600080fd5b81356001600160401b038111156122d057600080fd5b6122dc84828501612163565b949350505050565b6110008101818360005b608081101561230d5781518352602092830192909101906001016122ee565b50505092915050565b600080611020838503121561232a57600080fd5b82356001600160401b0381111561234057600080fd5b61234c85828601612163565b925050611f718460208501612067565b6000806040838503121561236f57600080fd5b61237883611ed3565b946020939093013593505050565b634e487b7160e01b600052601260045260246000fd5b634e487b7160e01b600052601160045260246000fd5b6000826123c1576123c1612386565b500490565b81810381811115610b1157610b1161239c565b60008160001904831182151516156123f3576123f361239c565b500290565b80516001600160801b0381168114611e2b57600080fd5b60006040828403121561242157600080fd5b604051604081018181106001600160401b038211171561244357612443611f93565b60405261244f836123f8565b815261245d602084016123f8565b60208201529392505050565b80820180821115610b1157610b1161239c565b634e487b7160e01b600052603260045260246000fd5b6000826124a1576124a1612386565b500690565b600060c082840312156124b857600080fd5b60405160c081018181106001600160401b03821117156124da576124da611f93565b8060405250825181526020830151602082015260408301516040820152606083015160608201526080830151608082015260a083015160a08201528091505092915050565b60408101818360005b600281101561230d578151835260209283019290910190600101612528565b6001600160401b038281168282160390808211156125675761256761239c565b5092915050565b600060ff821660ff81036125845761258461239c565b6001019291505056fea2646970667358221220c5e06dd268b014521d970094a8c437818a16b2eb0a3ddb55ad76dc1f977f448a64736f6c63430008100033",
  "linkReferences": {},
  "deployedLinkReferences": {}
}