{
  "_format": "hh-sol-artifact-1",
  "contractName": "PoraMine",
  "sourceName": "contracts/miner/Mine.sol",
  "abi": [
    {
      "inputs": [
        {
          "internalType": "address",
          "name": "book_",
          "type": "address"
        },
        {
          "internalType": "uint256",
          "name": "initRate",
          "type": "uint256"
        },
        {
          "internalType": "uint256",
          "name": "adjustRatio_",
          "type": "uint256"
        },
        {
          "internalType": "uint256",
          "name": "settings",
          "type": "uint256"
        }
      ],
      "stateMutability": "nonpayable",
      "type": "constructor"
    },
    {
      "anonymous": false,
      "inputs": [
        {
          "indexed": true,
          "internalType": "bytes32",
          "name": "minerId",
          "type": "bytes32"
        },
        {
          "indexed": true,
          "internalType": "address",
          "name": "beneficiary",
          "type": "address"
        }
      ],
      "name": "NewMinerId",
      "type": "event"
    },
    {
      "anonymous": false,
      "inputs": [
        {
          "indexed": true,
          "internalType": "bytes32",
          "name": "minerId",
          "type": "bytes32"
        },
        {
          "indexed": true,
          "internalType": "address",
          "name": "from",
          "type": "address"
        },
        {
          "indexed": true,
          "internalType": "address",
          "name": "to",
          "type": "address"
        }
      ],
      "name": "UpdateMinerId",
      "type": "event"
    },
    {
      "inputs": [],
      "name": "adjustRatio",
      "outputs": [
        {
          "internalType": "uint256",
          "name": "",
          "type": "uint256"
        }
      ],
      "stateMutability": "view",
      "type": "function"
    },
    {
      "inputs": [
        {
          "components": [
            {
              "internalType": "bytes32",
              "name": "contextDigest",
              "type": "bytes32"
            },
            {
              "internalType": "bytes32",
              "name": "nonce",
              "type": "bytes32"
            },
            {
              "internalType": "bytes32",
              "name": "minerId",
              "type": "bytes32"
            },
            {
              "components": [
                {
                  "internalType": "uint256",
                  "name": "startPosition",
                  "type": "uint256"
                },
                {
                  "internalType": "uint256",
                  "name": "mineLength",
                  "type": "uint256"
                },
                {
                  "internalType": "uint64",
                  "name": "shardId",
                  "type": "uint64"
                },
                {
                  "internalType": "uint64",
                  "name": "shardMask",
                  "type": "uint64"
                }
              ],
              "internalType": "struct RecallRange",
              "name": "range",
              "type": "tuple"
            },
            {
              "internalType": "uint256",
              "name": "recallPosition",
              "type": "uint256"
            },
            {
              "internalType": "uint256",
              "name": "sealOffset",
              "type": "uint256"
            },
            {
              "internalType": "bytes32",
              "name": "sealedContextDigest",
              "type": "bytes32"
            },
            {
              "internalType": "bytes32[128]",
              "name": "sealedData",
              "type": "bytes32[128]"
            },
            {
              "internalType": "bytes32[]",
              "name": "merkleProof",
              "type": "bytes32[]"
            }
          ],
          "internalType": "struct PoraMine.PoraAnswer",
          "name": "answer",
          "type": "tuple"
        },
        {
          "components": [
            {
              "internalType": "uint256",
              "name": "epoch",
              "type": "uint256"
            },
            {
              "internalType": "uint256",
              "name": "mineStart",
              "type": "uint256"
            },
            {
              "internalType": "bytes32",
              "name": "flowRoot",
              "type": "bytes32"
            },
            {
              "internalType": "uint256",
              "name": "flowLength",
              "type": "uint256"
            },
            {
              "internalType": "bytes32",
              "name": "blockDigest",
              "type": "bytes32"
            },
            {
              "internalType": "bytes32",
              "name": "digest",
              "type": "bytes32"
            }
          ],
          "internalType": "struct MineContext",
          "name": "context",
          "type": "tuple"
        }
      ],
      "name": "basicCheck",
      "outputs": [],
      "stateMutability": "view",
      "type": "function"
    },
    {
      "inputs": [
        {
          "internalType": "bytes32",
          "name": "",
          "type": "bytes32"
        }
      ],
      "name": "beneficiaries",
      "outputs": [
        {
          "internalType": "address",
          "name": "",
          "type": "address"
        }
      ],
      "stateMutability": "view",
      "type": "function"
    },
    {
      "inputs": [],
      "name": "book",
      "outputs": [
        {
          "internalType": "contract AddressBook",
          "name": "",
          "type": "address"
        }
      ],
      "stateMutability": "view",
      "type": "function"
    },
    {
      "inputs": [],
      "name": "dataProofEnabled",
      "outputs": [
        {
          "internalType": "bool",
          "name": "",
          "type": "bool"
        }
      ],
      "stateMutability": "view",
      "type": "function"
    },
    {
      "inputs": [],
      "name": "fixedQuality",
      "outputs": [
        {
          "internalType": "bool",
          "name": "",
          "type": "bool"
        }
      ],
      "stateMutability": "view",
      "type": "function"
    },
    {
      "inputs": [],
      "name": "lastMinedEpoch",
      "outputs": [
        {
          "internalType": "uint256",
          "name": "",
          "type": "uint256"
        }
      ],
      "stateMutability": "view",
      "type": "function"
    },
    {
      "inputs": [
        {
          "components": [
            {
              "internalType": "bytes32",
              "name": "contextDigest",
              "type": "bytes32"
            },
            {
              "internalType": "bytes32",
              "name": "nonce",
              "type": "bytes32"
            },
            {
              "internalType": "bytes32",
              "name": "minerId",
              "type": "bytes32"
            },
            {
              "components": [
                {
                  "internalType": "uint256",
                  "name": "startPosition",
                  "type": "uint256"
                },
                {
                  "internalType": "uint256",
                  "name": "mineLength",
                  "type": "uint256"
                },
                {
                  "internalType": "uint64",
                  "name": "shardId",
                  "type": "uint64"
                },
                {
                  "internalType": "uint64",
                  "name": "shardMask",
                  "type": "uint64"
                }
              ],
              "internalType": "struct RecallRange",
              "name": "range",
              "type": "tuple"
            },
            {
              "internalType": "uint256",
              "name": "recallPosition",
              "type": "uint256"
            },
            {
              "internalType": "uint256",
              "name": "sealOffset",
              "type": "uint256"
            },
            {
              "internalType": "bytes32",
              "name": "sealedContextDigest",
              "type": "bytes32"
            },
            {
              "internalType": "bytes32[128]",
              "name": "sealedData",
              "type": "bytes32[128]"
            },
            {
              "internalType": "bytes32[]",
              "name": "merkleProof",
              "type": "bytes32[]"
            }
          ],
          "internalType": "struct PoraMine.PoraAnswer",
          "name": "answer",
          "type": "tuple"
        }
      ],
      "name": "pora",
      "outputs": [
        {
          "internalType": "bytes32",
          "name": "",
          "type": "bytes32"
        }
      ],
      "stateMutability": "view",
      "type": "function"
    },
    {
      "inputs": [
        {
          "components": [
            {
              "internalType": "bytes32",
              "name": "contextDigest",
              "type": "bytes32"
            },
            {
              "internalType": "bytes32",
              "name": "nonce",
              "type": "bytes32"
            },
            {
              "internalType": "bytes32",
              "name": "minerId",
              "type": "bytes32"
            },
            {
              "components": [
                {
                  "internalType": "uint256",
                  "name": "startPosition",
                  "type": "uint256"
                },
                {
                  "internalType": "uint256",
                  "name": "mineLength",
                  "type": "uint256"
                },
                {
                  "internalType": "uint64",
                  "name": "shardId",
                  "type": "uint64"
                },
                {
                  "internalType": "uint64",
                  "name": "shardMask",
                  "type": "uint64"
                }
              ],
              "internalType": "struct RecallRange",
              "name": "range",
              "type": "tuple"
            },
            {
              "internalType": "uint256",
              "name": "recallPosition",
              "type": "uint256"
            },
            {
              "internalType": "uint256",
              "name": "sealOffset",
              "type": "uint256"
            },
            {
              "internalType": "bytes32",
              "name": "sealedContextDigest",
              "type": "bytes32"
            },
            {
              "internalType": "bytes32[128]",
              "name": "sealedData",
              "type": "bytes32[128]"
            },
            {
              "internalType": "bytes32[]",
              "name": "merkleProof",
              "type": "bytes32[]"
            }
          ],
          "internalType": "struct PoraMine.PoraAnswer",
          "name": "answer",
          "type": "tuple"
        },
        {
          "internalType": "bytes32[128]",
          "name": "unsealedData",
          "type": "bytes32[128]"
        }
      ],
      "name": "recoverMerkleRoot",
      "outputs": [
        {
          "internalType": "bytes32",
          "name": "",
          "type": "bytes32"
        }
      ],
      "stateMutability": "pure",
      "type": "function"
    },
    {
      "inputs": [
        {
          "internalType": "address",
          "name": "beneficiary",
          "type": "address"
        },
        {
          "internalType": "uint64",
          "name": "seed",
          "type": "uint64"
        }
      ],
      "name": "requestMinerId",
      "outputs": [],
      "stateMutability": "nonpayable",
      "type": "function"
    },
    {
      "inputs": [],
      "name": "sealDataEnabled",
      "outputs": [
        {
          "internalType": "bool",
          "name": "",
          "type": "bool"
        }
      ],
      "stateMutability": "view",
      "type": "function"
    },
    {
      "inputs": [
        {
          "components": [
            {
              "internalType": "bytes32",
              "name": "contextDigest",
              "type": "bytes32"
            },
            {
              "internalType": "bytes32",
              "name": "nonce",
              "type": "bytes32"
            },
            {
              "internalType": "bytes32",
              "name": "minerId",
              "type": "bytes32"
            },
            {
              "components": [
                {
                  "internalType": "uint256",
                  "name": "startPosition",
                  "type": "uint256"
                },
                {
                  "internalType": "uint256",
                  "name": "mineLength",
                  "type": "uint256"
                },
                {
                  "internalType": "uint64",
                  "name": "shardId",
                  "type": "uint64"
                },
                {
                  "internalType": "uint64",
                  "name": "shardMask",
                  "type": "uint64"
                }
              ],
              "internalType": "struct RecallRange",
              "name": "range",
              "type": "tuple"
            },
            {
              "internalType": "uint256",
              "name": "recallPosition",
              "type": "uint256"
            },
            {
              "internalType": "uint256",
              "name": "sealOffset",
              "type": "uint256"
            },
            {
              "internalType": "bytes32",
              "name": "sealedContextDigest",
              "type": "bytes32"
            },
            {
              "internalType": "bytes32[128]",
              "name": "sealedData",
              "type": "bytes32[128]"
            },
            {
              "internalType": "bytes32[]",
              "name": "merkleProof",
              "type": "bytes32[]"
            }
          ],
          "internalType": "struct PoraMine.PoraAnswer",
          "name": "answer",
          "type": "tuple"
        }
      ],
      "name": "submit",
      "outputs": [],
      "stateMutability": "nonpayable",
      "type": "function"
    },
    {
      "inputs": [],
      "name": "targetQuality",
      "outputs": [
        {
          "internalType": "uint256",
          "name": "",
          "type": "uint256"
        }
      ],
      "stateMutability": "view",
      "type": "function"
    },
    {
      "inputs": [
        {
          "internalType": "address",
          "name": "to",
          "type": "address"
        },
        {
          "internalType": "bytes32",
          "name": "minerId",
          "type": "bytes32"
        }
      ],
      "name": "transferBeneficial",
      "outputs": [],
      "stateMutability": "nonpayable",
      "type": "function"
    },
    {
      "inputs": [
        {
          "components": [
            {
              "internalType": "bytes32",
              "name": "contextDigest",
              "type": "bytes32"
            },
            {
              "internalType": "bytes32",
              "name": "nonce",
              "type": "bytes32"
            },
            {
              "internalType": "bytes32",
              "name": "minerId",
              "type": "bytes32"
            },
            {
              "components": [
                {
                  "internalType": "uint256",
                  "name": "startPosition",
                  "type": "uint256"
                },
                {
                  "internalType": "uint256",
                  "name": "mineLength",
                  "type": "uint256"
                },
                {
                  "internalType": "uint64",
                  "name": "shardId",
                  "type": "uint64"
                },
                {
                  "internalType": "uint64",
                  "name": "shardMask",
                  "type": "uint64"
                }
              ],
              "internalType": "struct RecallRange",
              "name": "range",
              "type": "tuple"
            },
            {
              "internalType": "uint256",
              "name": "recallPosition",
              "type": "uint256"
            },
            {
              "internalType": "uint256",
              "name": "sealOffset",
              "type": "uint256"
            },
            {
              "internalType": "bytes32",
              "name": "sealedContextDigest",
              "type": "bytes32"
            },
            {
              "internalType": "bytes32[128]",
              "name": "sealedData",
              "type": "bytes32[128]"
            },
            {
              "internalType": "bytes32[]",
              "name": "merkleProof",
              "type": "bytes32[]"
            }
          ],
          "internalType": "struct PoraMine.PoraAnswer",
          "name": "answer",
          "type": "tuple"
        }
      ],
      "name": "unseal",
      "outputs": [
        {
          "internalType": "bytes32[128]",
          "name": "unsealedData",
          "type": "bytes32[128]"
        }
      ],
      "stateMutability": "pure",
      "type": "function"
    }
  ],
  "bytecode": "0x61010060405260006001553480156200001757600080fd5b506040516200273f3803806200273f8339810160408190526200003a916200009a565b61012c6200004b84600019620000e7565b620000579190620000e7565b60029081556000839055600182161560805281161560a0526004811615801560c05262000085576000196002555b5050506001600160a01b031660e0526200010a565b60008060008060808587031215620000b157600080fd5b84516001600160a01b0381168114620000c957600080fd5b60208601516040870151606090970151919890975090945092505050565b6000826200010557634e487b7160e01b600052601260045260246000fd5b500490565b60805160a05160c05160e0516125d16200016e600039600081816101140152818161053801528181610b130152610d800152600081816102870152610d520152600081816101f00152610c490152600081816102270152610c0c01526125d16000f3fe608060405234801561001057600080fd5b50600436106100f55760003560e01c80636c39785011610097578063ae722e8211610066578063ae722e8214610249578063aed752241461025c578063b0628ee01461026f578063e0ba72801461028257600080fd5b80636c397850146101cf5780636e9bb60b146101d857806382975fe7146101eb578063adaa7a0f1461022257600080fd5b806339cd53ee116100d357806339cd53ee1461016a5780633baebb751461019357806359b4a3f3146101a657806359e7b5be146101af57600080fd5b8063047c13f5146100fa57806305a8da721461010f57806331223ba714610153575b600080fd5b61010d610108366004611f34565b6102a9565b005b6101367f000000000000000000000000000000000000000000000000000000000000000081565b6040516001600160a01b0390911681526020015b60405180910390f35b61015c60015481565b60405190815260200161014a565b610136610178366004611f69565b6003602052600090815260409020546001600160a01b031681565b61010d6101a13660046121ff565b6103c5565b61015c60005481565b6101c26101bd366004612297565b6106d4565b60405161014a91906122d3565b61015c60025481565b61015c6101e6366004612305565b6107e8565b6102127f000000000000000000000000000000000000000000000000000000000000000081565b604051901515815260200161014a565b6102127f000000000000000000000000000000000000000000000000000000000000000081565b61010d610257366004612297565b610a5d565b61015c61026a366004612297565b610ec2565b61010d61027d36600461234b565b6110c5565b6102127f000000000000000000000000000000000000000000000000000000000000000081565b60006102b660014361238d565b60408051914060208301526bffffffffffffffffffffffff193360601b16908201526001600160c01b031960c084901b166054820152605c0160408051601f198184030181529181528151602092830120600081815260039093529120549091506001600160a01b03161561036b5760405162461bcd60e51b8152602060048201526016602482015275135a5b995c9259081a185cc81c9959da5cdd195c995960521b60448201526064015b60405180910390fd5b60008181526003602052604080822080546001600160a01b0319166001600160a01b0387169081179091559051909183917fbfeb006f16aca8eb3d9953cf44db6b11b6f3041a313875dfa18f2e9d71bd309e9190a3505050565b815160a0820151146104195760405162461bcd60e51b815260206004820152601a60248201527f496e636f6e73697374656e74206d696e696e67206469676573740000000000006044820152606401610362565b7fc5d2460186f7233c927e7db2dcc703c0e500b653ca82273b7bfad8045d85a4708160a001510361048c5760405162461bcd60e51b815260206004820152601960248201527f456d707479206469676573742063616e206e6f74206d696e65000000000000006044820152606401610362565b6001548151116104d55760405162461bcd60e51b8152602060048201526014602482015273115c1bd8da081a185cc81899595b881b5a5b995960621b6044820152606401610362565b60006101006104e6610400826123a0565b6104f091906123d5565b6101006104ff610400826123a0565b61050991906123d5565b836060015161051891906123d5565b61052291906123a0565b60608401519091506105349082611185565b60007f00000000000000000000000000000000000000000000000000000000000000006001600160a01b031663343aad826040518163ffffffff1660e01b8152600401602060405180830381865afa158015610594573d6000803e3d6000fd5b505050506040513d601f19601f820116820180604052508101906105b891906123e9565b6001600160a01b0316637d5907088560c001516040518263ffffffff1660e01b81526004016105e991815260200190565b6040805180830381865afa158015610605573d6000803e3d6000fd5b505050506040513d601f19601f82011682018060405250810190610629919061241d565b9050600061010061063d61040060046123a0565b61064791906123d5565b85608001516106569190612477565b90508082600001516001600160801b031610801561068157508082602001516001600160801b031610155b6106cd5760405162461bcd60e51b815260206004820152601d60248201527f496e76616c6964207365616c656420636f6e74657874206469676573740000006044820152606401610362565b5050505050565b6106dc611ec8565b60408083015160c08401516080850151925161070c93906020019283526020830191909152604082015260600190565b60408051808303601f19018152919052805160209091012060e08301515118815260015b602061073f61040060046123a0565b61074991906123d5565b8110156107e25760e083015161076060018361238d565b608081106107705761077061248a565b602002015160405160200161078791815260200190565b604051602081830303815290604052805190602001208360e0015182608081106107b3576107b361248a565b6020020151188282608081106107cb576107cb61248a565b60200201526107db600182612477565b9050610730565b50919050565b6000805b60206107fb61040060046123a0565b61080591906123d5565b8110156108535761010060208202840120808483608081106108295761082961248a565b60200201818152505050602061010061084291906123d5565b61084c9082612477565b90506107ec565b50600061086360206101006123d5565b90505b602061087561040060046123a0565b61087f91906123d5565b8110156109525760005b602061089861040060046123a0565b6108a291906123d5565b8110156109495760008482608081106108bd576108bd61248a565b602002015190506000856108d18585612477565b608081106108e1576108e161248a565b602002015190508181604051602001610904929190918252602082015260400190565b6040516020818303038152906040528051906020012086846080811061092c5761092c61248a565b6020020152506109429050600183901b82612477565b9050610889565b5060011b610866565b50815161095d611ec8565b9250600061010061097161040060046123a0565b61097b91906123d5565b856080015161098a91906123d5565b905060005b85610100015151811015610a51576000806109ab6002856124a0565b6000036109db5784915087610100015183815181106109cc576109cc61248a565b60200260200101519050610a00565b87610100015183815181106109f2576109f261248a565b602002602001015191508490505b6040805160208101849052908101829052606001604051602081830303815290604052805190602001209450600284610a3991906123d5565b93505050600181610a4a9190612477565b905061098f565b50909150505b92915050565b6040810151610aa75760405162461bcd60e51b81526020600482015260166024820152754d696e657249642063616e6e6f74206265207a65726f60501b6044820152606401610362565b6040808201516000908152600360205220546001600160a01b031680610b0f5760405162461bcd60e51b815260206004820152601b60248201527f4d696e6572496420646f6573206e6f74207265676973746572656400000000006044820152606401610362565b60007f00000000000000000000000000000000000000000000000000000000000000006001600160a01b031663343aad826040518163ffffffff1660e01b8152600401602060405180830381865afa158015610b6f573d6000803e3d6000fd5b505050506040513d601f19601f82011682018060405250810190610b9391906123e9565b6001600160a01b031663b464b53e6040518163ffffffff1660e01b815260040160c0604051808303816000875af1158015610bd2573d6000803e3d6000fd5b505050506040513d601f19601f82011682018060405250810190610bf691906124b4565b9050610c0283826103c5565b610c0a611ec8565b7f000000000000000000000000000000000000000000000000000000000000000015610c4057610c39846106d4565b9050610c47565b5060e08301515b7f000000000000000000000000000000000000000000000000000000000000000015610cd0576000610c7985836107e8565b905082604001518114610cce5760405162461bcd60e51b815260206004820152601860248201527f496e636f6e73697374656e74206d65726b6c6520726f6f7400000000000000006044820152606401610362565b505b610cd8611ec8565b90506000610ce585610ec2565b9050610cf485606001516113c9565b600254610d0191906123d5565b811115610d505760405162461bcd60e51b815260206004820152601b60248201527f446f206e6f7420726561636820746172676574207175616c69747900000000006044820152606401610362565b7f0000000000000000000000000000000000000000000000000000000000000000610d7e57610d7e83611413565b7f00000000000000000000000000000000000000000000000000000000000000006001600160a01b031663228cb7336040518163ffffffff1660e01b8152600401602060405180830381865afa158015610ddc573d6000803e3d6000fd5b505050506040513d601f19601f82011682018060405250810190610e0091906123e9565b6001600160a01b031663b7a3c04c610100610e1d610400806123a0565b610e29906104006123a0565b610e349060086123a0565b610e3e91906123d5565b8760800151610e4d91906123d5565b60408089015190516001600160e01b031960e085901b16815260048101929092526001600160a01b03881660248301526044820152606401600060405180830381600087803b158015610e9f57600080fd5b505af1158015610eb3573d6000803e3d6000fd5b50509351600155505050505050565b6040810151600090610f165760405162461bcd60e51b815260206004820152601860248201527f4d696e65722049442063616e6e6f7420626520656d70747900000000000000006044820152606401610362565b60006040518060800160405280846040015181526020018460200151815260200184600001518152602001610f4e85606001516114d5565b905290506000610f5d8261153d565b90506000610f6e61040060406123a0565b610f7c6104006101006123a0565b610f8691906123d5565b610f9361040060046123a0565b610fa16104006101006123a0565b610fab91906123d5565b610fb591906123d5565b8560a00151610fc491906124a0565b9050610fce611ec8565b610fd6611ee7565b610fe58760e0015184866115b5565b92509050610100610ff961040060046123a0565b61100391906123d5565b8760a0015161101291906123a0565b61104f82604051602001611026919061252d565b6040516020818303038152906040528051906020012089606001516117ab90919063ffffffff16565b6110599190612477565b8760800151146110ab5760405162461bcd60e51b815260206004820152601960248201527f496e636f727265637420726563616c6c20706f736974696f6e000000000000006044820152606401610362565b6110ba8760a0015185846118b1565b979650505050505050565b6000818152600360205260409020546001600160a01b0316331461112b5760405162461bcd60e51b815260206004820152601b60248201527f53656e64657220646f6573206e6f74206f776e206d696e6572496400000000006044820152606401610362565b60008181526003602052604080822080546001600160a01b0319166001600160a01b03861690811790915590519091339184917f9a26a8e7fd42c501b452c02016def8048e3ea28c2bf15127a9b5e2029d989bf191a45050565b610100611194610400806123a0565b6111a0906104006123a0565b6111ab9060086123a0565b6111b591906123d5565b82516111c191906124a0565b1561120e5760405162461bcd60e51b815260206004820152601d60248201527f537461727420706f736974696f6e206973206e6f7420616c69676e65640000006044820152606401610362565b60208201518251829161122091612477565b11156112665760405162461bcd60e51b81526020600482015260156024820152744d696e696e672072616e6765206f766572666c6f7760581b6044820152606401610362565b6000611271836113c9565b610100611280610400806123a0565b61128c906104006123a0565b611298906104006123a0565b6112a39060086123a0565b6112ad91906123d5565b6112b791906123a0565b905080836020015111156113055760405162461bcd60e51b81526020600482015260156024820152744d696e696e672072616e676520746f6f206c6f6e6760581b6044820152606401610362565b60006113118383611b35565b905080846020015110156113605760405162461bcd60e51b8152602060048201526016602482015275135a5b9a5b99c81c985b99d9481d1bdbc81cda1bdc9d60521b6044820152606401610362565b83606001518460400151166001600160401b03166000146113c35760405162461bcd60e51b815260206004820152601a60248201527f4d61736b656420626974732073686f756c64206265207a65726f0000000000006044820152606401610362565b50505050565b606081015160009019815b6001600160401b03821615611404576113ee600183612555565b90911690806113fc8161257c565b9150506113d4565b600160ff9091161b9392505050565b6000816020015143611425919061238d565b60025490915060101c600061143c82846064611b4b565b905060146000818361144f60018361238d565b61145990876123a0565b6114639190612477565b61146d91906123d5565b905061147a8460026123a0565b81111561148f5761148c8460026123a0565b90505b61149a6002856123d5565b8110156114af576114ac6002856123d5565b90505b6001600160f01b038111156114c857506001600160f01b035b60101b6002555050505050565b60008160000151826020015183604001518460600151604051602001611520949392919093845260208401929092526001600160401b03908116604084015216606082015260800190565b604051602081830303815290604052805190602001209050919050565b611545611ee7565b7f48c9bdf267e6096a3ba7ca8485ae67bb2bf894fe72f36e3cf1361d5f3af54fa581527fd182e6ad7f520e511f6c3e2b8c68059b6bbd41fbabd9831f79217e1319cde05b60208083019190915282519083015160408401516060850151610a579385939092909160806001611bfa565b6115bd611ee7565b6115c5611ec8565b60005b848110156116235760005b60406115e261040060046123a0565b6115ec91906123d5565b811015611610576115fc85611cb9565b9450611609600182612477565b90506115d3565b5061161c600182612477565b90506115c8565b5060005b602061163661040060046123a0565b61164091906123d5565b8110156116e05761165084611cb9565b93508581608081106116645761166461248a565b602002015184511882826080811061167e5761167e61248a565b60200201528561168f826001612477565b6080811061169f5761169f61248a565b6020020151846001602002015118826116b9836001612477565b608081106116c9576116c961248a565b60200201526116d9600282612477565b9050611627565b5060006116ee856001612477565b90505b6116fe61040060406123a0565b61170c6104006101006123a0565b61171691906123d5565b61172361040060046123a0565b6117316104006101006123a0565b61173b91906123d5565b61174591906123d5565b81101561179f5760005b604061175e61040060046123a0565b61176891906123d5565b81101561178c5761177885611cb9565b9450611785600182612477565b905061174f565b50611798600182612477565b90506116f1565b50829150935093915050565b6000806101006117bd610400826123a0565b6117c791906123d5565b84602001516117d691906123d5565b6117e090846124a0565b60408501516060860151602087015192935083161790610100611805610400826123a0565b61180f91906123d5565b611822906001600160401b0384166123a0565b11156118705760405162461bcd60e51b815260206004820152601c60248201527f526563616c6c20706f736974696f6e206f7574206f6620626f756e64000000006044820152606401610362565b61010061187f610400826123a0565b61188991906123d5565b61189c906001600160401b0383166123a0565b85516118a89190612477565b95945050505050565b60006118bb611ee7565b7f48c9bdf267e6096a3ba7ca8485ae67bb2bf894fe72f36e3cf1361d5f3af54fa581527fd182e6ad7f520e511f6c3e2b8c68059b6bbd41fbabd9831f79217e1319cde05b6020808301919091528451908501516119219183918891906000608081611bfa565b905060005b60046020611936610400836123a0565b61194091906123d5565b61194a919061238d565b8110156119fb5760008160040160200260800190506119e5838684608081106119755761197561248a565b602002015187611986866001612477565b608081106119965761199661248a565b6020020151886119a7876002612477565b608081106119b7576119b761248a565b6020020151896119c8886003612477565b608081106119d8576119d861248a565b6020020151866000611bfa565b92506119f49050600482612477565b9050611926565b50611b29818460046020611a11610400836123a0565b611a1b91906123d5565b611a25919061238d565b60808110611a3557611a3561248a565b602002015185600360206104006004611a4e91906123a0565b611a5891906123d5565b611a62919061238d565b60808110611a7257611a7261248a565b602002015186600260206104006004611a8b91906123a0565b611a9591906123d5565b611a9f919061238d565b60808110611aaf57611aaf61248a565b602002015187600160206104006004611ac891906123a0565b611ad291906123d5565b611adc919061238d565b60808110611aec57611aec61248a565b602002015160206104006004611b0291906123a0565b611b0c91906123d5565b611b179060206123a0565b611b22906080612477565b6001611bfa565b519150505b9392505050565b6000818310611b445781611b2e565b5090919050565b6000808060001985870985870292508281108382030391505080600003611b8557838281611b7b57611b7b6123bf565b0492505050611b2e565b808411611b9157600080fd5b60008486880960026001871981018816978890046003810283188082028403028082028403028082028403028082028403028082028403029081029092039091026000889003889004909101858311909403939093029303949094049190911702949350505050565b611c02611ee7565b600c6000611c0f85611d26565b8a516020808d0151835184830151604080516001600160e01b031960e08b901b168187015260248101969096526044860193909352606485018f9052608485018e905260a485018d905260c485018c90526001600160c01b031991821660e48601521660ec84015287151560f81b60f4840152805160d58185038101825260f5909401825293945091869184016009600019fa611cab57600080fd5b505050979650505050505050565b611cc1611ee7565b7f48c9bdf267e6096a3ba7ca8485ae67bb2bf894fe72f36e3cf1361d5f3af54fa581527fd182e6ad7f520e511f6c3e2b8c68059b6bbd41fbabd9831f79217e1319cde05b602080830191909152825190830151610a5791839160008060406001611bfa565b611d2e611ee7565b62010000821015611d7257600882811c66ffffffffffffff169083901b67ffffffffffffff00161760f01b5b6001600160c01b031916815260006020820152919050565b640100000000821015611db257600882811b63ff00ff001662ff00ff9184901c9190911617601081811b91901c1760e01b6001600160e01b031916611d5a565b68010000000000000000821015611dcc57611d5a82611e62565b600160801b821015611e1c576001600160401b038216604083901c611df082611e62565b6001600160c01b0319168352611e0581611e62565b6001600160c01b031916602084015250611e5d9050565b60405162461bcd60e51b8152602060048201526016602482015275626c616b65326220696e70757420746f6f206c6f6e6760501b6044820152606401610362565b919050565b65ff000000ff00600882811b91821664ff000000ff9390911c92831617601090811b67ff000000ff0000009290921666ff000000ff0000939093169290921790911c17602081811b6bffffffffffffffff000000001691901c63ffffffff161760c01b90565b6040518061100001604052806080906020820280368337509192915050565b60405180604001604052806002906020820280368337509192915050565b6001600160a01b0381168114611f1a57600080fd5b50565b80356001600160401b0381168114611e5d57600080fd5b60008060408385031215611f4757600080fd5b8235611f5281611f05565b9150611f6060208401611f1d565b90509250929050565b600060208284031215611f7b57600080fd5b5035919050565b634e487b7160e01b600052604160045260246000fd5b60405161012081016001600160401b0381118282101715611fbb57611fbb611f82565b60405290565b60405160c081016001600160401b0381118282101715611fbb57611fbb611f82565b600060808284031215611ff557600080fd5b604051608081018181106001600160401b038211171561201757612017611f82565b8060405250809150823581526020830135602082015261203960408401611f1d565b604082015261204a60608401611f1d565b60608201525092915050565b600082601f83011261206757600080fd5b6040516110008082018281106001600160401b038211171561208b5761208b611f82565b6040528301818582111561209e57600080fd5b845b828110156120b85780358252602091820191016120a0565b509195945050505050565b600082601f8301126120d457600080fd5b813560206001600160401b03808311156120f0576120f0611f82565b8260051b604051601f19603f8301168101818110848211171561211557612115611f82565b60405293845285810183019383810192508785111561213357600080fd5b83870191505b848210156110ba57813583529183019190830190612139565b6000611160828403121561216557600080fd5b61216d611f98565b90508135815260208201356020820152604082013560408201526121948360608401611fe3565b606082015260e082013560808201526101008083013560a083015261012083013560c08301526121c8846101408501612056565b60e08301526111408301356001600160401b038111156121e757600080fd5b6121f3858286016120c3565b82840152505092915050565b60008082840360e081121561221357600080fd5b83356001600160401b0381111561222957600080fd5b61223586828701612152565b93505060c0601f198201121561224a57600080fd5b50612253611fc1565b6020840135815260408401356020820152606084013560408201526080840135606082015260a0840135608082015260c084013560a0820152809150509250929050565b6000602082840312156122a957600080fd5b81356001600160401b038111156122bf57600080fd5b6122cb84828501612152565b949350505050565b6110008101818360005b60808110156122fc5781518352602092830192909101906001016122dd565b50505092915050565b600080611020838503121561231957600080fd5b82356001600160401b0381111561232f57600080fd5b61233b85828601612152565b925050611f608460208501612056565b6000806040838503121561235e57600080fd5b823561236981611f05565b946020939093013593505050565b634e487b7160e01b600052601160045260246000fd5b81810381811115610a5757610a57612377565b60008160001904831182151516156123ba576123ba612377565b500290565b634e487b7160e01b600052601260045260246000fd5b6000826123e4576123e46123bf565b500490565b6000602082840312156123fb57600080fd5b8151611b2e81611f05565b80516001600160801b0381168114611e5d57600080fd5b60006040828403121561242f57600080fd5b604051604081018181106001600160401b038211171561245157612451611f82565b60405261245d83612406565b815261246b60208401612406565b60208201529392505050565b80820180821115610a5757610a57612377565b634e487b7160e01b600052603260045260246000fd5b6000826124af576124af6123bf565b500690565b600060c082840312156124c657600080fd5b60405160c081018181106001600160401b03821117156124e8576124e8611f82565b8060405250825181526020830151602082015260408301516040820152606083015160608201526080830151608082015260a083015160a08201528091505092915050565b60408101818360005b60028110156122fc578151835260209283019290910190600101612536565b6001600160401b0382811682821603908082111561257557612575612377565b5092915050565b600060ff821660ff810361259257612592612377565b6001019291505056fea2646970667358221220ba5eb3928655ea80fcbade9e5bfe52183184f0509fdcf978f890d6a88374bc3e64736f6c63430008100033",
  "linkReferences": {},
  "deployedLinkReferences": {}
}