{
  "_format": "hh-sol-artifact-1",
  "contractName": "UQ112x112",
  "sourceName": "contracts/utils/UQ112x112.sol",
  "abi": [
    {
      "inputs": [],
      "name": "Q112",
      "outputs": [
        {
          "internalType": "uint224",
          "name": "",
          "type": "uint224"
        }
      ],
      "stateMutability": "view",
      "type": "function"
    }
  ],
  "bytecode": "0x6094610038600b82828239805160001a607314602b57634e487b7160e01b600052600060045260246000fd5b30600052607381538281f3fe730000000000000000000000000000000000000000301460806040526004361060335760003560e01c80633bf7a83e146038575b600080fd5b6042600160701b81565b6040516001600160e01b03909116815260200160405180910390f3fea26469706673582212203a46767a07dcaebb0a56d4a43cc87c23bc640c12809b8badd84332cc7a780fbb64736f6c63430008100033",
  "linkReferences": {},
  "deployedLinkReferences": {}
}